{
	"contracts/ETH-AVX-DegenToken.sol": {
		"Degen_Token_Gaming": {
			"abi": [
				{
					"inputs": [],
					"stateMutability": "nonpayable",
					"type": "constructor"
				},
				{
					"anonymous": false,
					"inputs": [
						{
							"indexed": true,
							"internalType": "address",
							"name": "owner",
							"type": "address"
						},
						{
							"indexed": true,
							"internalType": "address",
							"name": "spender",
							"type": "address"
						},
						{
							"indexed": false,
							"internalType": "uint256",
							"name": "value",
							"type": "uint256"
						}
					],
					"name": "Approval",
					"type": "event"
				},
				{
					"anonymous": false,
					"inputs": [
						{
							"indexed": true,
							"internalType": "address",
							"name": "previousOwner",
							"type": "address"
						},
						{
							"indexed": true,
							"internalType": "address",
							"name": "newOwner",
							"type": "address"
						}
					],
					"name": "OwnershipTransferred",
					"type": "event"
				},
				{
					"anonymous": false,
					"inputs": [
						{
							"indexed": true,
							"internalType": "address",
							"name": "from",
							"type": "address"
						},
						{
							"indexed": true,
							"internalType": "address",
							"name": "to",
							"type": "address"
						},
						{
							"indexed": false,
							"internalType": "uint256",
							"name": "value",
							"type": "uint256"
						}
					],
					"name": "Transfer",
					"type": "event"
				},
				{
					"inputs": [
						{
							"internalType": "string",
							"name": "itemName",
							"type": "string"
						},
						{
							"internalType": "uint256",
							"name": "price",
							"type": "uint256"
						},
						{
							"internalType": "uint256",
							"name": "stock",
							"type": "uint256"
						}
					],
					"name": "addItemToGameStore",
					"outputs": [],
					"stateMutability": "nonpayable",
					"type": "function"
				},
				{
					"inputs": [
						{
							"internalType": "address",
							"name": "owner",
							"type": "address"
						},
						{
							"internalType": "address",
							"name": "spender",
							"type": "address"
						}
					],
					"name": "allowance",
					"outputs": [
						{
							"internalType": "uint256",
							"name": "",
							"type": "uint256"
						}
					],
					"stateMutability": "view",
					"type": "function"
				},
				{
					"inputs": [
						{
							"internalType": "address",
							"name": "spender",
							"type": "address"
						},
						{
							"internalType": "uint256",
							"name": "amount",
							"type": "uint256"
						}
					],
					"name": "approve",
					"outputs": [
						{
							"internalType": "bool",
							"name": "",
							"type": "bool"
						}
					],
					"stateMutability": "nonpayable",
					"type": "function"
				},
				{
					"inputs": [
						{
							"internalType": "address",
							"name": "account",
							"type": "address"
						}
					],
					"name": "balanceOf",
					"outputs": [
						{
							"internalType": "uint256",
							"name": "",
							"type": "uint256"
						}
					],
					"stateMutability": "view",
					"type": "function"
				},
				{
					"inputs": [
						{
							"internalType": "uint256",
							"name": "amount",
							"type": "uint256"
						}
					],
					"name": "burnUserTokens",
					"outputs": [],
					"stateMutability": "nonpayable",
					"type": "function"
				},
				{
					"inputs": [
						{
							"internalType": "address",
							"name": "account",
							"type": "address"
						}
					],
					"name": "checkAccountTokenBalance",
					"outputs": [
						{
							"internalType": "uint256",
							"name": "",
							"type": "uint256"
						}
					],
					"stateMutability": "view",
					"type": "function"
				},
				{
					"inputs": [],
					"name": "decimals",
					"outputs": [
						{
							"internalType": "uint8",
							"name": "",
							"type": "uint8"
						}
					],
					"stateMutability": "view",
					"type": "function"
				},
				{
					"inputs": [
						{
							"internalType": "address",
							"name": "spender",
							"type": "address"
						},
						{
							"internalType": "uint256",
							"name": "subtractedValue",
							"type": "uint256"
						}
					],
					"name": "decreaseAllowance",
					"outputs": [
						{
							"internalType": "bool",
							"name": "",
							"type": "bool"
						}
					],
					"stateMutability": "nonpayable",
					"type": "function"
				},
				{
					"inputs": [
						{
							"internalType": "uint256",
							"name": "",
							"type": "uint256"
						}
					],
					"name": "gameStoreInventory",
					"outputs": [
						{
							"internalType": "string",
							"name": "itemName",
							"type": "string"
						},
						{
							"internalType": "uint256",
							"name": "itemPrice",
							"type": "uint256"
						},
						{
							"internalType": "uint256",
							"name": "itemStock",
							"type": "uint256"
						}
					],
					"stateMutability": "view",
					"type": "function"
				},
				{
					"inputs": [],
					"name": "getGameStoreInventory",
					"outputs": [
						{
							"components": [
								{
									"internalType": "string",
									"name": "itemName",
									"type": "string"
								},
								{
									"internalType": "uint256",
									"name": "itemPrice",
									"type": "uint256"
								},
								{
									"internalType": "uint256",
									"name": "itemStock",
									"type": "uint256"
								}
							],
							"internalType": "struct Degen_Token_Gaming.GameStoreItem[]",
							"name": "",
							"type": "tuple[]"
						}
					],
					"stateMutability": "view",
					"type": "function"
				},
				{
					"inputs": [
						{
							"internalType": "address",
							"name": "spender",
							"type": "address"
						},
						{
							"internalType": "uint256",
							"name": "addedValue",
							"type": "uint256"
						}
					],
					"name": "increaseAllowance",
					"outputs": [
						{
							"internalType": "bool",
							"name": "",
							"type": "bool"
						}
					],
					"stateMutability": "nonpayable",
					"type": "function"
				},
				{
					"inputs": [
						{
							"internalType": "address",
							"name": "recipient",
							"type": "address"
						},
						{
							"internalType": "uint256",
							"name": "amount",
							"type": "uint256"
						}
					],
					"name": "mintOwnerTokens",
					"outputs": [],
					"stateMutability": "nonpayable",
					"type": "function"
				},
				{
					"inputs": [],
					"name": "name",
					"outputs": [
						{
							"internalType": "string",
							"name": "",
							"type": "string"
						}
					],
					"stateMutability": "view",
					"type": "function"
				},
				{
					"inputs": [],
					"name": "owner",
					"outputs": [
						{
							"internalType": "address",
							"name": "",
							"type": "address"
						}
					],
					"stateMutability": "view",
					"type": "function"
				},
				{
					"inputs": [
						{
							"internalType": "uint256",
							"name": "itemId",
							"type": "uint256"
						}
					],
					"name": "redeemGameStoreItem",
					"outputs": [],
					"stateMutability": "nonpayable",
					"type": "function"
				},
				{
					"inputs": [
						{
							"internalType": "uint256",
							"name": "amount",
							"type": "uint256"
						}
					],
					"name": "redeemTokensFor",
					"outputs": [],
					"stateMutability": "nonpayable",
					"type": "function"
				},
				{
					"inputs": [],
					"name": "renounceOwnership",
					"outputs": [],
					"stateMutability": "nonpayable",
					"type": "function"
				},
				{
					"inputs": [],
					"name": "symbol",
					"outputs": [
						{
							"internalType": "string",
							"name": "",
							"type": "string"
						}
					],
					"stateMutability": "view",
					"type": "function"
				},
				{
					"inputs": [],
					"name": "totalItems",
					"outputs": [
						{
							"internalType": "uint256",
							"name": "",
							"type": "uint256"
						}
					],
					"stateMutability": "view",
					"type": "function"
				},
				{
					"inputs": [],
					"name": "totalSupply",
					"outputs": [
						{
							"internalType": "uint256",
							"name": "",
							"type": "uint256"
						}
					],
					"stateMutability": "view",
					"type": "function"
				},
				{
					"inputs": [
						{
							"internalType": "address",
							"name": "to",
							"type": "address"
						},
						{
							"internalType": "uint256",
							"name": "amount",
							"type": "uint256"
						}
					],
					"name": "transfer",
					"outputs": [
						{
							"internalType": "bool",
							"name": "",
							"type": "bool"
						}
					],
					"stateMutability": "nonpayable",
					"type": "function"
				},
				{
					"inputs": [
						{
							"internalType": "address",
							"name": "from",
							"type": "address"
						},
						{
							"internalType": "address",
							"name": "to",
							"type": "address"
						},
						{
							"internalType": "uint256",
							"name": "amount",
							"type": "uint256"
						}
					],
					"name": "transferFrom",
					"outputs": [
						{
							"internalType": "bool",
							"name": "",
							"type": "bool"
						}
					],
					"stateMutability": "nonpayable",
					"type": "function"
				},
				{
					"inputs": [
						{
							"internalType": "address",
							"name": "newOwner",
							"type": "address"
						}
					],
					"name": "transferOwnership",
					"outputs": [],
					"stateMutability": "nonpayable",
					"type": "function"
				},
				{
					"inputs": [
						{
							"internalType": "address",
							"name": "to",
							"type": "address"
						},
						{
							"internalType": "uint256",
							"name": "amount",
							"type": "uint256"
						}
					],
					"name": "transferTokensTo",
					"outputs": [],
					"stateMutability": "nonpayable",
					"type": "function"
				}
			],
			"devdoc": {
				"events": {
					"Approval(address,address,uint256)": {
						"details": "Emitted when the allowance of a `spender` for an `owner` is set by a call to {approve}. `value` is the new allowance."
					},
					"Transfer(address,address,uint256)": {
						"details": "Emitted when `value` tokens are moved from one account (`from`) to another (`to`). Note that `value` may be zero."
					}
				},
				"kind": "dev",
				"methods": {
					"allowance(address,address)": {
						"details": "See {IERC20-allowance}."
					},
					"approve(address,uint256)": {
						"details": "See {IERC20-approve}. NOTE: If `amount` is the maximum `uint256`, the allowance is not updated on `transferFrom`. This is semantically equivalent to an infinite approval. Requirements: - `spender` cannot be the zero address."
					},
					"balanceOf(address)": {
						"details": "See {IERC20-balanceOf}."
					},
					"decimals()": {
						"details": "Returns the number of decimals used to get its user representation. For example, if `decimals` equals `2`, a balance of `505` tokens should be displayed to a user as `5.05` (`505 / 10 ** 2`). Tokens usually opt for a value of 18, imitating the relationship between Ether and Wei. This is the default value returned by this function, unless it's overridden. NOTE: This information is only used for _display_ purposes: it in no way affects any of the arithmetic of the contract, including {IERC20-balanceOf} and {IERC20-transfer}."
					},
					"decreaseAllowance(address,uint256)": {
						"details": "Atomically decreases the allowance granted to `spender` by the caller. This is an alternative to {approve} that can be used as a mitigation for problems described in {IERC20-approve}. Emits an {Approval} event indicating the updated allowance. Requirements: - `spender` cannot be the zero address. - `spender` must have allowance for the caller of at least `subtractedValue`."
					},
					"increaseAllowance(address,uint256)": {
						"details": "Atomically increases the allowance granted to `spender` by the caller. This is an alternative to {approve} that can be used as a mitigation for problems described in {IERC20-approve}. Emits an {Approval} event indicating the updated allowance. Requirements: - `spender` cannot be the zero address."
					},
					"name()": {
						"details": "Returns the name of the token."
					},
					"owner()": {
						"details": "Returns the address of the current owner."
					},
					"renounceOwnership()": {
						"details": "Leaves the contract without owner. It will not be possible to call `onlyOwner` functions. Can only be called by the current owner. NOTE: Renouncing ownership will leave the contract without an owner, thereby disabling any functionality that is only available to the owner."
					},
					"symbol()": {
						"details": "Returns the symbol of the token, usually a shorter version of the name."
					},
					"totalSupply()": {
						"details": "See {IERC20-totalSupply}."
					},
					"transfer(address,uint256)": {
						"details": "See {IERC20-transfer}. Requirements: - `to` cannot be the zero address. - the caller must have a balance of at least `amount`."
					},
					"transferFrom(address,address,uint256)": {
						"details": "See {IERC20-transferFrom}. Emits an {Approval} event indicating the updated allowance. This is not required by the EIP. See the note at the beginning of {ERC20}. NOTE: Does not update the allowance if the current allowance is the maximum `uint256`. Requirements: - `from` and `to` cannot be the zero address. - `from` must have a balance of at least `amount`. - the caller must have allowance for ``from``'s tokens of at least `amount`."
					},
					"transferOwnership(address)": {
						"details": "Transfers ownership of the contract to a new account (`newOwner`). Can only be called by the current owner."
					}
				},
				"version": 1
			},
			"evm": {
				"assembly": "    /* \"contracts/ETH-AVX-DegenToken.sol\":167:2572  contract Degen_Token_Gaming is ERC20, Ownable {... */\n  mstore(0x40, 0x80)\n    /* \"contracts/ETH-AVX-DegenToken.sol\":456:567  constructor() ERC20(\"Degen_Token\", \"_DEGEN_\") {... */\n  callvalue\n  dup1\n  iszero\n  tag_1\n  jumpi\n  0x00\n  dup1\n  revert\ntag_1:\n  pop\n    /* \"@openzeppelin/contracts/token/ERC20/ERC20.sol\":1980:2093  constructor(string memory name_, string memory symbol_) {... */\n  mload(0x40)\n  dup1\n  0x40\n  add\n  0x40\n  mstore\n  dup1\n  0x0b\n  dup2\n  mstore\n  0x20\n  add\n  0x446567656e5f546f6b656e000000000000000000000000000000000000000000\n  dup2\n  mstore\n  pop\n  mload(0x40)\n  dup1\n  0x40\n  add\n  0x40\n  mstore\n  dup1\n  0x07\n  dup2\n  mstore\n  0x20\n  add\n  0x5f444547454e5f00000000000000000000000000000000000000000000000000\n  dup2\n  mstore\n  pop\n    /* \"@openzeppelin/contracts/token/ERC20/ERC20.sol\":2054:2059  name_ */\n  dup2\n    /* \"@openzeppelin/contracts/token/ERC20/ERC20.sol\":2046:2051  _name */\n  0x03\n    /* \"@openzeppelin/contracts/token/ERC20/ERC20.sol\":2046:2059  _name = name_ */\n  swap1\n  dup2\n  tag_6\n  swap2\n  swap1\n  tag_7\n  jump\t// in\ntag_6:\n  pop\n    /* \"@openzeppelin/contracts/token/ERC20/ERC20.sol\":2079:2086  symbol_ */\n  dup1\n    /* \"@openzeppelin/contracts/token/ERC20/ERC20.sol\":2069:2076  _symbol */\n  0x04\n    /* \"@openzeppelin/contracts/token/ERC20/ERC20.sol\":2069:2086  _symbol = symbol_ */\n  swap1\n  dup2\n  tag_8\n  swap2\n  swap1\n  tag_7\n  jump\t// in\ntag_8:\n  pop\n    /* \"@openzeppelin/contracts/token/ERC20/ERC20.sol\":1980:2093  constructor(string memory name_, string memory symbol_) {... */\n  pop\n  pop\n    /* \"@openzeppelin/contracts/access/Ownable.sol\":936:968  _transferOwnership(_msgSender()) */\n  tag_10\n    /* \"@openzeppelin/contracts/access/Ownable.sol\":955:967  _msgSender() */\n  tag_11\n    /* \"@openzeppelin/contracts/access/Ownable.sol\":955:965  _msgSender */\n  shl(0x20, tag_12)\n    /* \"@openzeppelin/contracts/access/Ownable.sol\":955:967  _msgSender() */\n  0x20\n  shr\n  jump\t// in\ntag_11:\n    /* \"@openzeppelin/contracts/access/Ownable.sol\":936:954  _transferOwnership */\n  shl(0x20, tag_13)\n    /* \"@openzeppelin/contracts/access/Ownable.sol\":936:968  _transferOwnership(_msgSender()) */\n  0x20\n  shr\n  jump\t// in\ntag_10:\n    /* \"contracts/ETH-AVX-DegenToken.sol\":512:535  _mint(msg.sender, 1000) */\n  tag_15\n    /* \"contracts/ETH-AVX-DegenToken.sol\":518:528  msg.sender */\n  caller\n    /* \"contracts/ETH-AVX-DegenToken.sol\":530:534  1000 */\n  0x03e8\n    /* \"contracts/ETH-AVX-DegenToken.sol\":512:517  _mint */\n  shl(0x20, tag_16)\n    /* \"contracts/ETH-AVX-DegenToken.sol\":512:535  _mint(msg.sender, 1000) */\n  0x20\n  shr\n  jump\t// in\ntag_15:\n    /* \"contracts/ETH-AVX-DegenToken.sol\":167:2572  contract Degen_Token_Gaming is ERC20, Ownable {... */\n  jump(tag_17)\n    /* \"@openzeppelin/contracts/utils/Context.sol\":640:736  function _msgSender() internal view virtual returns (address) {... */\ntag_12:\n    /* \"@openzeppelin/contracts/utils/Context.sol\":693:700  address */\n  0x00\n    /* \"@openzeppelin/contracts/utils/Context.sol\":719:729  msg.sender */\n  caller\n    /* \"@openzeppelin/contracts/utils/Context.sol\":712:729  return msg.sender */\n  swap1\n  pop\n    /* \"@openzeppelin/contracts/utils/Context.sol\":640:736  function _msgSender() internal view virtual returns (address) {... */\n  swap1\n  jump\t// out\n    /* \"@openzeppelin/contracts/access/Ownable.sol\":2426:2613  function _transferOwnership(address newOwner) internal virtual {... */\ntag_13:\n    /* \"@openzeppelin/contracts/access/Ownable.sol\":2499:2515  address oldOwner */\n  0x00\n    /* \"@openzeppelin/contracts/access/Ownable.sol\":2518:2524  _owner */\n  0x05\n  0x00\n  swap1\n  sload\n  swap1\n  0x0100\n  exp\n  swap1\n  div\n  0xffffffffffffffffffffffffffffffffffffffff\n  and\n    /* \"@openzeppelin/contracts/access/Ownable.sol\":2499:2524  address oldOwner = _owner */\n  swap1\n  pop\n    /* \"@openzeppelin/contracts/access/Ownable.sol\":2543:2551  newOwner */\n  dup2\n    /* \"@openzeppelin/contracts/access/Ownable.sol\":2534:2540  _owner */\n  0x05\n  0x00\n    /* \"@openzeppelin/contracts/access/Ownable.sol\":2534:2551  _owner = newOwner */\n  0x0100\n  exp\n  dup2\n  sload\n  dup2\n  0xffffffffffffffffffffffffffffffffffffffff\n  mul\n  not\n  and\n  swap1\n  dup4\n  0xffffffffffffffffffffffffffffffffffffffff\n  and\n  mul\n  or\n  swap1\n  sstore\n  pop\n    /* \"@openzeppelin/contracts/access/Ownable.sol\":2597:2605  newOwner */\n  dup2\n    /* \"@openzeppelin/contracts/access/Ownable.sol\":2566:2606  OwnershipTransferred(oldOwner, newOwner) */\n  0xffffffffffffffffffffffffffffffffffffffff\n  and\n    /* \"@openzeppelin/contracts/access/Ownable.sol\":2587:2595  oldOwner */\n  dup2\n    /* \"@openzeppelin/contracts/access/Ownable.sol\":2566:2606  OwnershipTransferred(oldOwner, newOwner) */\n  0xffffffffffffffffffffffffffffffffffffffff\n  and\n  0x8be0079c531659141344cd1fd0a4f28419497f9722a3daafe3b4186f6b6457e0\n  mload(0x40)\n  mload(0x40)\n  dup1\n  swap2\n  sub\n  swap1\n  log3\n    /* \"@openzeppelin/contracts/access/Ownable.sol\":2489:2613  {... */\n  pop\n    /* \"@openzeppelin/contracts/access/Ownable.sol\":2426:2613  function _transferOwnership(address newOwner) internal virtual {... */\n  pop\n  jump\t// out\n    /* \"@openzeppelin/contracts/token/ERC20/ERC20.sol\":8520:9055  function _mint(address account, uint256 amount) internal virtual {... */\ntag_16:\n    /* \"@openzeppelin/contracts/token/ERC20/ERC20.sol\":8622:8623  0 */\n  0x00\n    /* \"@openzeppelin/contracts/token/ERC20/ERC20.sol\":8603:8624  account != address(0) */\n  0xffffffffffffffffffffffffffffffffffffffff\n  and\n    /* \"@openzeppelin/contracts/token/ERC20/ERC20.sol\":8603:8610  account */\n  dup3\n    /* \"@openzeppelin/contracts/token/ERC20/ERC20.sol\":8603:8624  account != address(0) */\n  0xffffffffffffffffffffffffffffffffffffffff\n  and\n  sub\n    /* \"@openzeppelin/contracts/token/ERC20/ERC20.sol\":8595:8660  require(account != address(0), \"ERC20: mint to the zero address\") */\n  tag_21\n  jumpi\n  mload(0x40)\n  0x08c379a000000000000000000000000000000000000000000000000000000000\n  dup2\n  mstore\n  0x04\n  add\n  tag_22\n  swap1\n  tag_23\n  jump\t// in\ntag_22:\n  mload(0x40)\n  dup1\n  swap2\n  sub\n  swap1\n  revert\ntag_21:\n    /* \"@openzeppelin/contracts/token/ERC20/ERC20.sol\":8671:8720  _beforeTokenTransfer(address(0), account, amount) */\n  tag_24\n    /* \"@openzeppelin/contracts/token/ERC20/ERC20.sol\":8700:8701  0 */\n  0x00\n    /* \"@openzeppelin/contracts/token/ERC20/ERC20.sol\":8704:8711  account */\n  dup4\n    /* \"@openzeppelin/contracts/token/ERC20/ERC20.sol\":8713:8719  amount */\n  dup4\n    /* \"@openzeppelin/contracts/token/ERC20/ERC20.sol\":8671:8691  _beforeTokenTransfer */\n  shl(0x20, tag_25)\n    /* \"@openzeppelin/contracts/token/ERC20/ERC20.sol\":8671:8720  _beforeTokenTransfer(address(0), account, amount) */\n  0x20\n  shr\n  jump\t// in\ntag_24:\n    /* \"@openzeppelin/contracts/token/ERC20/ERC20.sol\":8747:8753  amount */\n  dup1\n    /* \"@openzeppelin/contracts/token/ERC20/ERC20.sol\":8731:8743  _totalSupply */\n  0x02\n  0x00\n    /* \"@openzeppelin/contracts/token/ERC20/ERC20.sol\":8731:8753  _totalSupply += amount */\n  dup3\n  dup3\n  sload\n  tag_26\n  swap2\n  swap1\n  tag_27\n  jump\t// in\ntag_26:\n  swap3\n  pop\n  pop\n  dup2\n  swap1\n  sstore\n  pop\n    /* \"@openzeppelin/contracts/token/ERC20/ERC20.sol\":8921:8927  amount */\n  dup1\n    /* \"@openzeppelin/contracts/token/ERC20/ERC20.sol\":8899:8908  _balances */\n  0x00\n    /* \"@openzeppelin/contracts/token/ERC20/ERC20.sol\":8899:8917  _balances[account] */\n  dup1\n    /* \"@openzeppelin/contracts/token/ERC20/ERC20.sol\":8909:8916  account */\n  dup5\n    /* \"@openzeppelin/contracts/token/ERC20/ERC20.sol\":8899:8917  _balances[account] */\n  0xffffffffffffffffffffffffffffffffffffffff\n  and\n  0xffffffffffffffffffffffffffffffffffffffff\n  and\n  dup2\n  mstore\n  0x20\n  add\n  swap1\n  dup2\n  mstore\n  0x20\n  add\n  0x00\n  keccak256\n  0x00\n    /* \"@openzeppelin/contracts/token/ERC20/ERC20.sol\":8899:8927  _balances[account] += amount */\n  dup3\n  dup3\n  sload\n  add\n  swap3\n  pop\n  pop\n  dup2\n  swap1\n  sstore\n  pop\n    /* \"@openzeppelin/contracts/token/ERC20/ERC20.sol\":8973:8980  account */\n  dup2\n    /* \"@openzeppelin/contracts/token/ERC20/ERC20.sol\":8952:8989  Transfer(address(0), account, amount) */\n  0xffffffffffffffffffffffffffffffffffffffff\n  and\n    /* \"@openzeppelin/contracts/token/ERC20/ERC20.sol\":8969:8970  0 */\n  0x00\n    /* \"@openzeppelin/contracts/token/ERC20/ERC20.sol\":8952:8989  Transfer(address(0), account, amount) */\n  0xffffffffffffffffffffffffffffffffffffffff\n  and\n  0xddf252ad1be2c89b69c2b068fc378daa952ba7f163c4a11628f55a4df523b3ef\n    /* \"@openzeppelin/contracts/token/ERC20/ERC20.sol\":8982:8988  amount */\n  dup4\n    /* \"@openzeppelin/contracts/token/ERC20/ERC20.sol\":8952:8989  Transfer(address(0), account, amount) */\n  mload(0x40)\n  tag_28\n  swap2\n  swap1\n  tag_29\n  jump\t// in\ntag_28:\n  mload(0x40)\n  dup1\n  swap2\n  sub\n  swap1\n  log3\n    /* \"@openzeppelin/contracts/token/ERC20/ERC20.sol\":9000:9048  _afterTokenTransfer(address(0), account, amount) */\n  tag_30\n    /* \"@openzeppelin/contracts/token/ERC20/ERC20.sol\":9028:9029  0 */\n  0x00\n    /* \"@openzeppelin/contracts/token/ERC20/ERC20.sol\":9032:9039  account */\n  dup4\n    /* \"@openzeppelin/contracts/token/ERC20/ERC20.sol\":9041:9047  amount */\n  dup4\n    /* \"@openzeppelin/contracts/token/ERC20/ERC20.sol\":9000:9019  _afterTokenTransfer */\n  shl(0x20, tag_31)\n    /* \"@openzeppelin/contracts/token/ERC20/ERC20.sol\":9000:9048  _afterTokenTransfer(address(0), account, amount) */\n  0x20\n  shr\n  jump\t// in\ntag_30:\n    /* \"@openzeppelin/contracts/token/ERC20/ERC20.sol\":8520:9055  function _mint(address account, uint256 amount) internal virtual {... */\n  pop\n  pop\n  jump\t// out\n    /* \"@openzeppelin/contracts/token/ERC20/ERC20.sol\":12073:12164  function _beforeTokenTransfer(address from, address to, uint256 amount) internal virtual {} */\ntag_25:\n  pop\n  pop\n  pop\n  jump\t// out\n    /* \"@openzeppelin/contracts/token/ERC20/ERC20.sol\":12752:12842  function _afterTokenTransfer(address from, address to, uint256 amount) internal virtual {} */\ntag_31:\n  pop\n  pop\n  pop\n  jump\t// out\n    /* \"#utility.yul\":7:106   */\ntag_34:\n    /* \"#utility.yul\":59:65   */\n  0x00\n    /* \"#utility.yul\":93:98   */\n  dup2\n    /* \"#utility.yul\":87:99   */\n  mload\n    /* \"#utility.yul\":77:99   */\n  swap1\n  pop\n    /* \"#utility.yul\":7:106   */\n  swap2\n  swap1\n  pop\n  jump\t// out\n    /* \"#utility.yul\":112:292   */\ntag_35:\n    /* \"#utility.yul\":160:237   */\n  0x4e487b7100000000000000000000000000000000000000000000000000000000\n    /* \"#utility.yul\":157:158   */\n  0x00\n    /* \"#utility.yul\":150:238   */\n  mstore\n    /* \"#utility.yul\":257:261   */\n  0x41\n    /* \"#utility.yul\":254:255   */\n  0x04\n    /* \"#utility.yul\":247:262   */\n  mstore\n    /* \"#utility.yul\":281:285   */\n  0x24\n    /* \"#utility.yul\":278:279   */\n  0x00\n    /* \"#utility.yul\":271:286   */\n  revert\n    /* \"#utility.yul\":298:478   */\ntag_36:\n    /* \"#utility.yul\":346:423   */\n  0x4e487b7100000000000000000000000000000000000000000000000000000000\n    /* \"#utility.yul\":343:344   */\n  0x00\n    /* \"#utility.yul\":336:424   */\n  mstore\n    /* \"#utility.yul\":443:447   */\n  0x22\n    /* \"#utility.yul\":440:441   */\n  0x04\n    /* \"#utility.yul\":433:448   */\n  mstore\n    /* \"#utility.yul\":467:471   */\n  0x24\n    /* \"#utility.yul\":464:465   */\n  0x00\n    /* \"#utility.yul\":457:472   */\n  revert\n    /* \"#utility.yul\":484:804   */\ntag_37:\n    /* \"#utility.yul\":528:534   */\n  0x00\n    /* \"#utility.yul\":565:566   */\n  0x02\n    /* \"#utility.yul\":559:563   */\n  dup3\n    /* \"#utility.yul\":555:567   */\n  div\n    /* \"#utility.yul\":545:567   */\n  swap1\n  pop\n    /* \"#utility.yul\":612:613   */\n  0x01\n    /* \"#utility.yul\":606:610   */\n  dup3\n    /* \"#utility.yul\":602:614   */\n  and\n    /* \"#utility.yul\":633:651   */\n  dup1\n    /* \"#utility.yul\":623:704   */\n  tag_64\n  jumpi\n    /* \"#utility.yul\":689:693   */\n  0x7f\n    /* \"#utility.yul\":681:687   */\n  dup3\n    /* \"#utility.yul\":677:694   */\n  and\n    /* \"#utility.yul\":667:694   */\n  swap2\n  pop\n    /* \"#utility.yul\":623:704   */\ntag_64:\n    /* \"#utility.yul\":751:753   */\n  0x20\n    /* \"#utility.yul\":743:749   */\n  dup3\n    /* \"#utility.yul\":740:754   */\n  lt\n    /* \"#utility.yul\":720:738   */\n  dup2\n    /* \"#utility.yul\":717:755   */\n  sub\n    /* \"#utility.yul\":714:798   */\n  tag_65\n  jumpi\n    /* \"#utility.yul\":770:788   */\n  tag_66\n  tag_36\n  jump\t// in\ntag_66:\n    /* \"#utility.yul\":714:798   */\ntag_65:\n    /* \"#utility.yul\":535:804   */\n  pop\n    /* \"#utility.yul\":484:804   */\n  swap2\n  swap1\n  pop\n  jump\t// out\n    /* \"#utility.yul\":810:951   */\ntag_38:\n    /* \"#utility.yul\":859:863   */\n  0x00\n    /* \"#utility.yul\":882:885   */\n  dup2\n    /* \"#utility.yul\":874:885   */\n  swap1\n  pop\n    /* \"#utility.yul\":905:908   */\n  dup2\n    /* \"#utility.yul\":902:903   */\n  0x00\n    /* \"#utility.yul\":895:909   */\n  mstore\n    /* \"#utility.yul\":939:943   */\n  0x20\n    /* \"#utility.yul\":936:937   */\n  0x00\n    /* \"#utility.yul\":926:944   */\n  keccak256\n    /* \"#utility.yul\":918:944   */\n  swap1\n  pop\n    /* \"#utility.yul\":810:951   */\n  swap2\n  swap1\n  pop\n  jump\t// out\n    /* \"#utility.yul\":957:1050   */\ntag_39:\n    /* \"#utility.yul\":994:1000   */\n  0x00\n    /* \"#utility.yul\":1041:1043   */\n  0x20\n    /* \"#utility.yul\":1036:1038   */\n  0x1f\n    /* \"#utility.yul\":1029:1034   */\n  dup4\n    /* \"#utility.yul\":1025:1039   */\n  add\n    /* \"#utility.yul\":1021:1044   */\n  div\n    /* \"#utility.yul\":1011:1044   */\n  swap1\n  pop\n    /* \"#utility.yul\":957:1050   */\n  swap2\n  swap1\n  pop\n  jump\t// out\n    /* \"#utility.yul\":1056:1163   */\ntag_40:\n    /* \"#utility.yul\":1100:1108   */\n  0x00\n    /* \"#utility.yul\":1150:1155   */\n  dup3\n    /* \"#utility.yul\":1144:1148   */\n  dup3\n    /* \"#utility.yul\":1140:1156   */\n  shl\n    /* \"#utility.yul\":1119:1156   */\n  swap1\n  pop\n    /* \"#utility.yul\":1056:1163   */\n  swap3\n  swap2\n  pop\n  pop\n  jump\t// out\n    /* \"#utility.yul\":1169:1562   */\ntag_41:\n    /* \"#utility.yul\":1238:1244   */\n  0x00\n    /* \"#utility.yul\":1288:1289   */\n  0x08\n    /* \"#utility.yul\":1276:1286   */\n  dup4\n    /* \"#utility.yul\":1272:1290   */\n  mul\n    /* \"#utility.yul\":1311:1408   */\n  tag_71\n    /* \"#utility.yul\":1341:1407   */\n  0xffffffffffffffffffffffffffffffffffffffffffffffffffffffffffffffff\n    /* \"#utility.yul\":1330:1339   */\n  dup3\n    /* \"#utility.yul\":1311:1408   */\n  tag_40\n  jump\t// in\ntag_71:\n    /* \"#utility.yul\":1429:1468   */\n  tag_72\n    /* \"#utility.yul\":1459:1467   */\n  dup7\n    /* \"#utility.yul\":1448:1457   */\n  dup4\n    /* \"#utility.yul\":1429:1468   */\n  tag_40\n  jump\t// in\ntag_72:\n    /* \"#utility.yul\":1417:1468   */\n  swap6\n  pop\n    /* \"#utility.yul\":1501:1505   */\n  dup1\n    /* \"#utility.yul\":1497:1506   */\n  not\n    /* \"#utility.yul\":1490:1495   */\n  dup5\n    /* \"#utility.yul\":1486:1507   */\n  and\n    /* \"#utility.yul\":1477:1507   */\n  swap4\n  pop\n    /* \"#utility.yul\":1550:1554   */\n  dup1\n    /* \"#utility.yul\":1540:1548   */\n  dup7\n    /* \"#utility.yul\":1536:1555   */\n  and\n    /* \"#utility.yul\":1529:1534   */\n  dup5\n    /* \"#utility.yul\":1526:1556   */\n  or\n    /* \"#utility.yul\":1516:1556   */\n  swap3\n  pop\n    /* \"#utility.yul\":1245:1562   */\n  pop\n  pop\n    /* \"#utility.yul\":1169:1562   */\n  swap4\n  swap3\n  pop\n  pop\n  pop\n  jump\t// out\n    /* \"#utility.yul\":1568:1645   */\ntag_42:\n    /* \"#utility.yul\":1605:1612   */\n  0x00\n    /* \"#utility.yul\":1634:1639   */\n  dup2\n    /* \"#utility.yul\":1623:1639   */\n  swap1\n  pop\n    /* \"#utility.yul\":1568:1645   */\n  swap2\n  swap1\n  pop\n  jump\t// out\n    /* \"#utility.yul\":1651:1711   */\ntag_43:\n    /* \"#utility.yul\":1679:1682   */\n  0x00\n    /* \"#utility.yul\":1700:1705   */\n  dup2\n    /* \"#utility.yul\":1693:1705   */\n  swap1\n  pop\n    /* \"#utility.yul\":1651:1711   */\n  swap2\n  swap1\n  pop\n  jump\t// out\n    /* \"#utility.yul\":1717:1859   */\ntag_44:\n    /* \"#utility.yul\":1767:1776   */\n  0x00\n    /* \"#utility.yul\":1800:1853   */\n  tag_76\n    /* \"#utility.yul\":1818:1852   */\n  tag_77\n    /* \"#utility.yul\":1827:1851   */\n  tag_78\n    /* \"#utility.yul\":1845:1850   */\n  dup5\n    /* \"#utility.yul\":1827:1851   */\n  tag_42\n  jump\t// in\ntag_78:\n    /* \"#utility.yul\":1818:1852   */\n  tag_43\n  jump\t// in\ntag_77:\n    /* \"#utility.yul\":1800:1853   */\n  tag_42\n  jump\t// in\ntag_76:\n    /* \"#utility.yul\":1787:1853   */\n  swap1\n  pop\n    /* \"#utility.yul\":1717:1859   */\n  swap2\n  swap1\n  pop\n  jump\t// out\n    /* \"#utility.yul\":1865:1940   */\ntag_45:\n    /* \"#utility.yul\":1908:1911   */\n  0x00\n    /* \"#utility.yul\":1929:1934   */\n  dup2\n    /* \"#utility.yul\":1922:1934   */\n  swap1\n  pop\n    /* \"#utility.yul\":1865:1940   */\n  swap2\n  swap1\n  pop\n  jump\t// out\n    /* \"#utility.yul\":1946:2215   */\ntag_46:\n    /* \"#utility.yul\":2056:2095   */\n  tag_81\n    /* \"#utility.yul\":2087:2094   */\n  dup4\n    /* \"#utility.yul\":2056:2095   */\n  tag_44\n  jump\t// in\ntag_81:\n    /* \"#utility.yul\":2117:2208   */\n  tag_82\n    /* \"#utility.yul\":2166:2207   */\n  tag_83\n    /* \"#utility.yul\":2190:2206   */\n  dup3\n    /* \"#utility.yul\":2166:2207   */\n  tag_45\n  jump\t// in\ntag_83:\n    /* \"#utility.yul\":2158:2164   */\n  dup5\n    /* \"#utility.yul\":2151:2155   */\n  dup5\n    /* \"#utility.yul\":2145:2156   */\n  sload\n    /* \"#utility.yul\":2117:2208   */\n  tag_41\n  jump\t// in\ntag_82:\n    /* \"#utility.yul\":2111:2115   */\n  dup3\n    /* \"#utility.yul\":2104:2209   */\n  sstore\n    /* \"#utility.yul\":2022:2215   */\n  pop\n    /* \"#utility.yul\":1946:2215   */\n  pop\n  pop\n  pop\n  jump\t// out\n    /* \"#utility.yul\":2221:2294   */\ntag_47:\n    /* \"#utility.yul\":2266:2269   */\n  0x00\n    /* \"#utility.yul\":2221:2294   */\n  swap1\n  jump\t// out\n    /* \"#utility.yul\":2300:2489   */\ntag_48:\n    /* \"#utility.yul\":2377:2409   */\n  tag_86\n  tag_47\n  jump\t// in\ntag_86:\n    /* \"#utility.yul\":2418:2483   */\n  tag_87\n    /* \"#utility.yul\":2476:2482   */\n  dup2\n    /* \"#utility.yul\":2468:2474   */\n  dup5\n    /* \"#utility.yul\":2462:2466   */\n  dup5\n    /* \"#utility.yul\":2418:2483   */\n  tag_46\n  jump\t// in\ntag_87:\n    /* \"#utility.yul\":2353:2489   */\n  pop\n    /* \"#utility.yul\":2300:2489   */\n  pop\n  pop\n  jump\t// out\n    /* \"#utility.yul\":2495:2681   */\ntag_49:\n    /* \"#utility.yul\":2555:2675   */\ntag_89:\n    /* \"#utility.yul\":2572:2575   */\n  dup2\n    /* \"#utility.yul\":2565:2570   */\n  dup2\n    /* \"#utility.yul\":2562:2576   */\n  lt\n    /* \"#utility.yul\":2555:2675   */\n  iszero\n  tag_91\n  jumpi\n    /* \"#utility.yul\":2626:2665   */\n  tag_92\n    /* \"#utility.yul\":2663:2664   */\n  0x00\n    /* \"#utility.yul\":2656:2661   */\n  dup3\n    /* \"#utility.yul\":2626:2665   */\n  tag_48\n  jump\t// in\ntag_92:\n    /* \"#utility.yul\":2599:2600   */\n  0x01\n    /* \"#utility.yul\":2592:2597   */\n  dup2\n    /* \"#utility.yul\":2588:2601   */\n  add\n    /* \"#utility.yul\":2579:2601   */\n  swap1\n  pop\n    /* \"#utility.yul\":2555:2675   */\n  jump(tag_89)\ntag_91:\n    /* \"#utility.yul\":2495:2681   */\n  pop\n  pop\n  jump\t// out\n    /* \"#utility.yul\":2687:3230   */\ntag_50:\n    /* \"#utility.yul\":2788:2790   */\n  0x1f\n    /* \"#utility.yul\":2783:2786   */\n  dup3\n    /* \"#utility.yul\":2780:2791   */\n  gt\n    /* \"#utility.yul\":2777:3223   */\n  iszero\n  tag_94\n  jumpi\n    /* \"#utility.yul\":2822:2860   */\n  tag_95\n    /* \"#utility.yul\":2854:2859   */\n  dup2\n    /* \"#utility.yul\":2822:2860   */\n  tag_38\n  jump\t// in\ntag_95:\n    /* \"#utility.yul\":2906:2935   */\n  tag_96\n    /* \"#utility.yul\":2924:2934   */\n  dup5\n    /* \"#utility.yul\":2906:2935   */\n  tag_39\n  jump\t// in\ntag_96:\n    /* \"#utility.yul\":2896:2904   */\n  dup2\n    /* \"#utility.yul\":2892:2936   */\n  add\n    /* \"#utility.yul\":3089:3091   */\n  0x20\n    /* \"#utility.yul\":3077:3087   */\n  dup6\n    /* \"#utility.yul\":3074:3092   */\n  lt\n    /* \"#utility.yul\":3071:3120   */\n  iszero\n  tag_97\n  jumpi\n    /* \"#utility.yul\":3110:3118   */\n  dup2\n    /* \"#utility.yul\":3095:3118   */\n  swap1\n  pop\n    /* \"#utility.yul\":3071:3120   */\ntag_97:\n    /* \"#utility.yul\":3133:3213   */\n  tag_98\n    /* \"#utility.yul\":3189:3211   */\n  tag_99\n    /* \"#utility.yul\":3207:3210   */\n  dup6\n    /* \"#utility.yul\":3189:3211   */\n  tag_39\n  jump\t// in\ntag_99:\n    /* \"#utility.yul\":3179:3187   */\n  dup4\n    /* \"#utility.yul\":3175:3212   */\n  add\n    /* \"#utility.yul\":3162:3173   */\n  dup3\n    /* \"#utility.yul\":3133:3213   */\n  tag_49\n  jump\t// in\ntag_98:\n    /* \"#utility.yul\":2792:3223   */\n  pop\n  pop\n    /* \"#utility.yul\":2777:3223   */\ntag_94:\n    /* \"#utility.yul\":2687:3230   */\n  pop\n  pop\n  pop\n  jump\t// out\n    /* \"#utility.yul\":3236:3353   */\ntag_51:\n    /* \"#utility.yul\":3290:3298   */\n  0x00\n    /* \"#utility.yul\":3340:3345   */\n  dup3\n    /* \"#utility.yul\":3334:3338   */\n  dup3\n    /* \"#utility.yul\":3330:3346   */\n  shr\n    /* \"#utility.yul\":3309:3346   */\n  swap1\n  pop\n    /* \"#utility.yul\":3236:3353   */\n  swap3\n  swap2\n  pop\n  pop\n  jump\t// out\n    /* \"#utility.yul\":3359:3528   */\ntag_52:\n    /* \"#utility.yul\":3403:3409   */\n  0x00\n    /* \"#utility.yul\":3436:3487   */\n  tag_102\n    /* \"#utility.yul\":3484:3485   */\n  0x00\n    /* \"#utility.yul\":3480:3486   */\n  not\n    /* \"#utility.yul\":3472:3477   */\n  dup5\n    /* \"#utility.yul\":3469:3470   */\n  0x08\n    /* \"#utility.yul\":3465:3478   */\n  mul\n    /* \"#utility.yul\":3436:3487   */\n  tag_51\n  jump\t// in\ntag_102:\n    /* \"#utility.yul\":3432:3488   */\n  not\n    /* \"#utility.yul\":3517:3521   */\n  dup1\n    /* \"#utility.yul\":3511:3515   */\n  dup4\n    /* \"#utility.yul\":3507:3522   */\n  and\n    /* \"#utility.yul\":3497:3522   */\n  swap2\n  pop\n    /* \"#utility.yul\":3410:3528   */\n  pop\n    /* \"#utility.yul\":3359:3528   */\n  swap3\n  swap2\n  pop\n  pop\n  jump\t// out\n    /* \"#utility.yul\":3533:3828   */\ntag_53:\n    /* \"#utility.yul\":3609:3613   */\n  0x00\n    /* \"#utility.yul\":3755:3784   */\n  tag_104\n    /* \"#utility.yul\":3780:3783   */\n  dup4\n    /* \"#utility.yul\":3774:3778   */\n  dup4\n    /* \"#utility.yul\":3755:3784   */\n  tag_52\n  jump\t// in\ntag_104:\n    /* \"#utility.yul\":3747:3784   */\n  swap2\n  pop\n    /* \"#utility.yul\":3817:3820   */\n  dup3\n    /* \"#utility.yul\":3814:3815   */\n  0x02\n    /* \"#utility.yul\":3810:3821   */\n  mul\n    /* \"#utility.yul\":3804:3808   */\n  dup3\n    /* \"#utility.yul\":3801:3822   */\n  or\n    /* \"#utility.yul\":3793:3822   */\n  swap1\n  pop\n    /* \"#utility.yul\":3533:3828   */\n  swap3\n  swap2\n  pop\n  pop\n  jump\t// out\n    /* \"#utility.yul\":3833:5228   */\ntag_7:\n    /* \"#utility.yul\":3950:3987   */\n  tag_106\n    /* \"#utility.yul\":3983:3986   */\n  dup3\n    /* \"#utility.yul\":3950:3987   */\n  tag_34\n  jump\t// in\ntag_106:\n    /* \"#utility.yul\":4052:4070   */\n  0xffffffffffffffff\n    /* \"#utility.yul\":4044:4050   */\n  dup2\n    /* \"#utility.yul\":4041:4071   */\n  gt\n    /* \"#utility.yul\":4038:4094   */\n  iszero\n  tag_107\n  jumpi\n    /* \"#utility.yul\":4074:4092   */\n  tag_108\n  tag_35\n  jump\t// in\ntag_108:\n    /* \"#utility.yul\":4038:4094   */\ntag_107:\n    /* \"#utility.yul\":4118:4156   */\n  tag_109\n    /* \"#utility.yul\":4150:4154   */\n  dup3\n    /* \"#utility.yul\":4144:4155   */\n  sload\n    /* \"#utility.yul\":4118:4156   */\n  tag_37\n  jump\t// in\ntag_109:\n    /* \"#utility.yul\":4203:4270   */\n  tag_110\n    /* \"#utility.yul\":4263:4269   */\n  dup3\n    /* \"#utility.yul\":4255:4261   */\n  dup3\n    /* \"#utility.yul\":4249:4253   */\n  dup6\n    /* \"#utility.yul\":4203:4270   */\n  tag_50\n  jump\t// in\ntag_110:\n    /* \"#utility.yul\":4297:4298   */\n  0x00\n    /* \"#utility.yul\":4321:4325   */\n  0x20\n    /* \"#utility.yul\":4308:4325   */\n  swap1\n  pop\n    /* \"#utility.yul\":4353:4355   */\n  0x1f\n    /* \"#utility.yul\":4345:4351   */\n  dup4\n    /* \"#utility.yul\":4342:4356   */\n  gt\n    /* \"#utility.yul\":4370:4371   */\n  0x01\n    /* \"#utility.yul\":4365:4983   */\n  dup2\n  eq\n  tag_112\n  jumpi\n    /* \"#utility.yul\":5027:5028   */\n  0x00\n    /* \"#utility.yul\":5044:5050   */\n  dup5\n    /* \"#utility.yul\":5041:5118   */\n  iszero\n  tag_113\n  jumpi\n    /* \"#utility.yul\":5093:5102   */\n  dup3\n    /* \"#utility.yul\":5088:5091   */\n  dup8\n    /* \"#utility.yul\":5084:5103   */\n  add\n    /* \"#utility.yul\":5078:5104   */\n  mload\n    /* \"#utility.yul\":5069:5104   */\n  swap1\n  pop\n    /* \"#utility.yul\":5041:5118   */\ntag_113:\n    /* \"#utility.yul\":5144:5211   */\n  tag_114\n    /* \"#utility.yul\":5204:5210   */\n  dup6\n    /* \"#utility.yul\":5197:5202   */\n  dup3\n    /* \"#utility.yul\":5144:5211   */\n  tag_53\n  jump\t// in\ntag_114:\n    /* \"#utility.yul\":5138:5142   */\n  dup7\n    /* \"#utility.yul\":5131:5212   */\n  sstore\n    /* \"#utility.yul\":5000:5222   */\n  pop\n    /* \"#utility.yul\":4335:5222   */\n  jump(tag_111)\n    /* \"#utility.yul\":4365:4983   */\ntag_112:\n    /* \"#utility.yul\":4417:4421   */\n  0x1f\n    /* \"#utility.yul\":4413:4422   */\n  not\n    /* \"#utility.yul\":4405:4411   */\n  dup5\n    /* \"#utility.yul\":4401:4423   */\n  and\n    /* \"#utility.yul\":4451:4488   */\n  tag_115\n    /* \"#utility.yul\":4483:4487   */\n  dup7\n    /* \"#utility.yul\":4451:4488   */\n  tag_38\n  jump\t// in\ntag_115:\n    /* \"#utility.yul\":4510:4511   */\n  0x00\n    /* \"#utility.yul\":4524:4732   */\ntag_116:\n    /* \"#utility.yul\":4538:4545   */\n  dup3\n    /* \"#utility.yul\":4535:4536   */\n  dup2\n    /* \"#utility.yul\":4532:4546   */\n  lt\n    /* \"#utility.yul\":4524:4732   */\n  iszero\n  tag_118\n  jumpi\n    /* \"#utility.yul\":4617:4626   */\n  dup5\n    /* \"#utility.yul\":4612:4615   */\n  dup10\n    /* \"#utility.yul\":4608:4627   */\n  add\n    /* \"#utility.yul\":4602:4628   */\n  mload\n    /* \"#utility.yul\":4594:4600   */\n  dup3\n    /* \"#utility.yul\":4587:4629   */\n  sstore\n    /* \"#utility.yul\":4668:4669   */\n  0x01\n    /* \"#utility.yul\":4660:4666   */\n  dup3\n    /* \"#utility.yul\":4656:4670   */\n  add\n    /* \"#utility.yul\":4646:4670   */\n  swap2\n  pop\n    /* \"#utility.yul\":4715:4717   */\n  0x20\n    /* \"#utility.yul\":4704:4713   */\n  dup6\n    /* \"#utility.yul\":4700:4718   */\n  add\n    /* \"#utility.yul\":4687:4718   */\n  swap5\n  pop\n    /* \"#utility.yul\":4561:4565   */\n  0x20\n    /* \"#utility.yul\":4558:4559   */\n  dup2\n    /* \"#utility.yul\":4554:4566   */\n  add\n    /* \"#utility.yul\":4549:4566   */\n  swap1\n  pop\n    /* \"#utility.yul\":4524:4732   */\n  jump(tag_116)\ntag_118:\n    /* \"#utility.yul\":4760:4766   */\n  dup7\n    /* \"#utility.yul\":4751:4758   */\n  dup4\n    /* \"#utility.yul\":4748:4767   */\n  lt\n    /* \"#utility.yul\":4745:4924   */\n  iszero\n  tag_119\n  jumpi\n    /* \"#utility.yul\":4818:4827   */\n  dup5\n    /* \"#utility.yul\":4813:4816   */\n  dup10\n    /* \"#utility.yul\":4809:4828   */\n  add\n    /* \"#utility.yul\":4803:4829   */\n  mload\n    /* \"#utility.yul\":4861:4909   */\n  tag_120\n    /* \"#utility.yul\":4903:4907   */\n  0x1f\n    /* \"#utility.yul\":4895:4901   */\n  dup10\n    /* \"#utility.yul\":4891:4908   */\n  and\n    /* \"#utility.yul\":4880:4889   */\n  dup3\n    /* \"#utility.yul\":4861:4909   */\n  tag_52\n  jump\t// in\ntag_120:\n    /* \"#utility.yul\":4853:4859   */\n  dup4\n    /* \"#utility.yul\":4846:4910   */\n  sstore\n    /* \"#utility.yul\":4768:4924   */\n  pop\n    /* \"#utility.yul\":4745:4924   */\ntag_119:\n    /* \"#utility.yul\":4970:4971   */\n  0x01\n    /* \"#utility.yul\":4966:4967   */\n  0x02\n    /* \"#utility.yul\":4958:4964   */\n  dup9\n    /* \"#utility.yul\":4954:4968   */\n  mul\n    /* \"#utility.yul\":4950:4972   */\n  add\n    /* \"#utility.yul\":4944:4948   */\n  dup9\n    /* \"#utility.yul\":4937:4973   */\n  sstore\n    /* \"#utility.yul\":4372:4983   */\n  pop\n  pop\n  pop\n    /* \"#utility.yul\":4335:5222   */\ntag_111:\n  pop\n    /* \"#utility.yul\":3925:5228   */\n  pop\n  pop\n  pop\n    /* \"#utility.yul\":3833:5228   */\n  pop\n  pop\n  jump\t// out\n    /* \"#utility.yul\":5234:5403   */\ntag_54:\n    /* \"#utility.yul\":5318:5329   */\n  0x00\n    /* \"#utility.yul\":5352:5358   */\n  dup3\n    /* \"#utility.yul\":5347:5350   */\n  dup3\n    /* \"#utility.yul\":5340:5359   */\n  mstore\n    /* \"#utility.yul\":5392:5396   */\n  0x20\n    /* \"#utility.yul\":5387:5390   */\n  dup3\n    /* \"#utility.yul\":5383:5397   */\n  add\n    /* \"#utility.yul\":5368:5397   */\n  swap1\n  pop\n    /* \"#utility.yul\":5234:5403   */\n  swap3\n  swap2\n  pop\n  pop\n  jump\t// out\n    /* \"#utility.yul\":5409:5590   */\ntag_55:\n    /* \"#utility.yul\":5549:5582   */\n  0x45524332303a206d696e7420746f20746865207a65726f206164647265737300\n    /* \"#utility.yul\":5545:5546   */\n  0x00\n    /* \"#utility.yul\":5537:5543   */\n  dup3\n    /* \"#utility.yul\":5533:5547   */\n  add\n    /* \"#utility.yul\":5526:5583   */\n  mstore\n    /* \"#utility.yul\":5409:5590   */\n  pop\n  jump\t// out\n    /* \"#utility.yul\":5596:5962   */\ntag_56:\n    /* \"#utility.yul\":5738:5741   */\n  0x00\n    /* \"#utility.yul\":5759:5826   */\n  tag_124\n    /* \"#utility.yul\":5823:5825   */\n  0x1f\n    /* \"#utility.yul\":5818:5821   */\n  dup4\n    /* \"#utility.yul\":5759:5826   */\n  tag_54\n  jump\t// in\ntag_124:\n    /* \"#utility.yul\":5752:5826   */\n  swap2\n  pop\n    /* \"#utility.yul\":5835:5928   */\n  tag_125\n    /* \"#utility.yul\":5924:5927   */\n  dup3\n    /* \"#utility.yul\":5835:5928   */\n  tag_55\n  jump\t// in\ntag_125:\n    /* \"#utility.yul\":5953:5955   */\n  0x20\n    /* \"#utility.yul\":5948:5951   */\n  dup3\n    /* \"#utility.yul\":5944:5956   */\n  add\n    /* \"#utility.yul\":5937:5956   */\n  swap1\n  pop\n    /* \"#utility.yul\":5596:5962   */\n  swap2\n  swap1\n  pop\n  jump\t// out\n    /* \"#utility.yul\":5968:6387   */\ntag_23:\n    /* \"#utility.yul\":6134:6138   */\n  0x00\n    /* \"#utility.yul\":6172:6174   */\n  0x20\n    /* \"#utility.yul\":6161:6170   */\n  dup3\n    /* \"#utility.yul\":6157:6175   */\n  add\n    /* \"#utility.yul\":6149:6175   */\n  swap1\n  pop\n    /* \"#utility.yul\":6221:6230   */\n  dup2\n    /* \"#utility.yul\":6215:6219   */\n  dup2\n    /* \"#utility.yul\":6211:6231   */\n  sub\n    /* \"#utility.yul\":6207:6208   */\n  0x00\n    /* \"#utility.yul\":6196:6205   */\n  dup4\n    /* \"#utility.yul\":6192:6209   */\n  add\n    /* \"#utility.yul\":6185:6232   */\n  mstore\n    /* \"#utility.yul\":6249:6380   */\n  tag_127\n    /* \"#utility.yul\":6375:6379   */\n  dup2\n    /* \"#utility.yul\":6249:6380   */\n  tag_56\n  jump\t// in\ntag_127:\n    /* \"#utility.yul\":6241:6380   */\n  swap1\n  pop\n    /* \"#utility.yul\":5968:6387   */\n  swap2\n  swap1\n  pop\n  jump\t// out\n    /* \"#utility.yul\":6393:6573   */\ntag_57:\n    /* \"#utility.yul\":6441:6518   */\n  0x4e487b7100000000000000000000000000000000000000000000000000000000\n    /* \"#utility.yul\":6438:6439   */\n  0x00\n    /* \"#utility.yul\":6431:6519   */\n  mstore\n    /* \"#utility.yul\":6538:6542   */\n  0x11\n    /* \"#utility.yul\":6535:6536   */\n  0x04\n    /* \"#utility.yul\":6528:6543   */\n  mstore\n    /* \"#utility.yul\":6562:6566   */\n  0x24\n    /* \"#utility.yul\":6559:6560   */\n  0x00\n    /* \"#utility.yul\":6552:6567   */\n  revert\n    /* \"#utility.yul\":6579:6770   */\ntag_27:\n    /* \"#utility.yul\":6619:6622   */\n  0x00\n    /* \"#utility.yul\":6638:6658   */\n  tag_130\n    /* \"#utility.yul\":6656:6657   */\n  dup3\n    /* \"#utility.yul\":6638:6658   */\n  tag_42\n  jump\t// in\ntag_130:\n    /* \"#utility.yul\":6633:6658   */\n  swap2\n  pop\n    /* \"#utility.yul\":6672:6692   */\n  tag_131\n    /* \"#utility.yul\":6690:6691   */\n  dup4\n    /* \"#utility.yul\":6672:6692   */\n  tag_42\n  jump\t// in\ntag_131:\n    /* \"#utility.yul\":6667:6692   */\n  swap3\n  pop\n    /* \"#utility.yul\":6715:6716   */\n  dup3\n    /* \"#utility.yul\":6712:6713   */\n  dup3\n    /* \"#utility.yul\":6708:6717   */\n  add\n    /* \"#utility.yul\":6701:6717   */\n  swap1\n  pop\n    /* \"#utility.yul\":6736:6739   */\n  dup1\n    /* \"#utility.yul\":6733:6734   */\n  dup3\n    /* \"#utility.yul\":6730:6740   */\n  gt\n    /* \"#utility.yul\":6727:6763   */\n  iszero\n  tag_132\n  jumpi\n    /* \"#utility.yul\":6743:6761   */\n  tag_133\n  tag_57\n  jump\t// in\ntag_133:\n    /* \"#utility.yul\":6727:6763   */\ntag_132:\n    /* \"#utility.yul\":6579:6770   */\n  swap3\n  swap2\n  pop\n  pop\n  jump\t// out\n    /* \"#utility.yul\":6776:6894   */\ntag_58:\n    /* \"#utility.yul\":6863:6887   */\n  tag_135\n    /* \"#utility.yul\":6881:6886   */\n  dup2\n    /* \"#utility.yul\":6863:6887   */\n  tag_42\n  jump\t// in\ntag_135:\n    /* \"#utility.yul\":6858:6861   */\n  dup3\n    /* \"#utility.yul\":6851:6888   */\n  mstore\n    /* \"#utility.yul\":6776:6894   */\n  pop\n  pop\n  jump\t// out\n    /* \"#utility.yul\":6900:7122   */\ntag_29:\n    /* \"#utility.yul\":6993:6997   */\n  0x00\n    /* \"#utility.yul\":7031:7033   */\n  0x20\n    /* \"#utility.yul\":7020:7029   */\n  dup3\n    /* \"#utility.yul\":7016:7034   */\n  add\n    /* \"#utility.yul\":7008:7034   */\n  swap1\n  pop\n    /* \"#utility.yul\":7044:7115   */\n  tag_137\n    /* \"#utility.yul\":7112:7113   */\n  0x00\n    /* \"#utility.yul\":7101:7110   */\n  dup4\n    /* \"#utility.yul\":7097:7114   */\n  add\n    /* \"#utility.yul\":7088:7094   */\n  dup5\n    /* \"#utility.yul\":7044:7115   */\n  tag_58\n  jump\t// in\ntag_137:\n    /* \"#utility.yul\":6900:7122   */\n  swap3\n  swap2\n  pop\n  pop\n  jump\t// out\n    /* \"contracts/ETH-AVX-DegenToken.sol\":167:2572  contract Degen_Token_Gaming is ERC20, Ownable {... */\ntag_17:\n  dataSize(sub_0)\n  dup1\n  dataOffset(sub_0)\n  0x00\n  codecopy\n  0x00\n  return\nstop\n\nsub_0: assembly {\n        /* \"contracts/ETH-AVX-DegenToken.sol\":167:2572  contract Degen_Token_Gaming is ERC20, Ownable {... */\n      mstore(0x40, 0x80)\n      callvalue\n      dup1\n      iszero\n      tag_1\n      jumpi\n      0x00\n      dup1\n      revert\n    tag_1:\n      pop\n      jumpi(tag_2, lt(calldatasize, 0x04))\n      shr(0xe0, calldataload(0x00))\n      dup1\n      0x70a08231\n      gt\n      tag_27\n      jumpi\n      dup1\n      0xcb01a6bd\n      gt\n      tag_28\n      jumpi\n      dup1\n      0xcb01a6bd\n      eq\n      tag_21\n      jumpi\n      dup1\n      0xdd62ed3e\n      eq\n      tag_22\n      jumpi\n      dup1\n      0xe3e4a1b4\n      eq\n      tag_23\n      jumpi\n      dup1\n      0xe6e645d1\n      eq\n      tag_24\n      jumpi\n      dup1\n      0xf2fde38b\n      eq\n      tag_25\n      jumpi\n      dup1\n      0xfe290917\n      eq\n      tag_26\n      jumpi\n      jump(tag_2)\n    tag_28:\n      dup1\n      0x70a08231\n      eq\n      tag_15\n      jumpi\n      dup1\n      0x715018a6\n      eq\n      tag_16\n      jumpi\n      dup1\n      0x8da5cb5b\n      eq\n      tag_17\n      jumpi\n      dup1\n      0x95d89b41\n      eq\n      tag_18\n      jumpi\n      dup1\n      0xa457c2d7\n      eq\n      tag_19\n      jumpi\n      dup1\n      0xa9059cbb\n      eq\n      tag_20\n      jumpi\n      jump(tag_2)\n    tag_27:\n      dup1\n      0x2be8c2a5\n      gt\n      tag_29\n      jumpi\n      dup1\n      0x2be8c2a5\n      eq\n      tag_9\n      jumpi\n      dup1\n      0x313ce567\n      eq\n      tag_10\n      jumpi\n      dup1\n      0x37f7c412\n      eq\n      tag_11\n      jumpi\n      dup1\n      0x39509351\n      eq\n      tag_12\n      jumpi\n      dup1\n      0x4d264827\n      eq\n      tag_13\n      jumpi\n      dup1\n      0x5873607b\n      eq\n      tag_14\n      jumpi\n      jump(tag_2)\n    tag_29:\n      dup1\n      0x0439c734\n      eq\n      tag_3\n      jumpi\n      dup1\n      0x06fdde03\n      eq\n      tag_4\n      jumpi\n      dup1\n      0x095ea7b3\n      eq\n      tag_5\n      jumpi\n      dup1\n      0x18160ddd\n      eq\n      tag_6\n      jumpi\n      dup1\n      0x23b872dd\n      eq\n      tag_7\n      jumpi\n      dup1\n      0x2799276d\n      eq\n      tag_8\n      jumpi\n    tag_2:\n      0x00\n      dup1\n      revert\n        /* \"contracts/ETH-AVX-DegenToken.sol\":878:1042  function redeemTokensFor(uint256 amount) public {... */\n    tag_3:\n      tag_30\n      0x04\n      dup1\n      calldatasize\n      sub\n      dup2\n      add\n      swap1\n      tag_31\n      swap2\n      swap1\n      tag_32\n      jump\t// in\n    tag_31:\n      tag_33\n      jump\t// in\n    tag_30:\n      stop\n        /* \"@openzeppelin/contracts/token/ERC20/ERC20.sol\":2158:2256  function name() public view virtual override returns (string memory) {... */\n    tag_4:\n      tag_34\n      tag_35\n      jump\t// in\n    tag_34:\n      mload(0x40)\n      tag_36\n      swap2\n      swap1\n      tag_37\n      jump\t// in\n    tag_36:\n      mload(0x40)\n      dup1\n      swap2\n      sub\n      swap1\n      return\n        /* \"@openzeppelin/contracts/token/ERC20/ERC20.sol\":4444:4641  function approve(address spender, uint256 amount) public virtual override returns (bool) {... */\n    tag_5:\n      tag_38\n      0x04\n      dup1\n      calldatasize\n      sub\n      dup2\n      add\n      swap1\n      tag_39\n      swap2\n      swap1\n      tag_40\n      jump\t// in\n    tag_39:\n      tag_41\n      jump\t// in\n    tag_38:\n      mload(0x40)\n      tag_42\n      swap2\n      swap1\n      tag_43\n      jump\t// in\n    tag_42:\n      mload(0x40)\n      dup1\n      swap2\n      sub\n      swap1\n      return\n        /* \"@openzeppelin/contracts/token/ERC20/ERC20.sol\":3255:3361  function totalSupply() public view virtual override returns (uint256) {... */\n    tag_6:\n      tag_44\n      tag_45\n      jump\t// in\n    tag_44:\n      mload(0x40)\n      tag_46\n      swap2\n      swap1\n      tag_47\n      jump\t// in\n    tag_46:\n      mload(0x40)\n      dup1\n      swap2\n      sub\n      swap1\n      return\n        /* \"@openzeppelin/contracts/token/ERC20/ERC20.sol\":5203:5459  function transferFrom(address from, address to, uint256 amount) public virtual override returns (bool) {... */\n    tag_7:\n      tag_48\n      0x04\n      dup1\n      calldatasize\n      sub\n      dup2\n      add\n      swap1\n      tag_49\n      swap2\n      swap1\n      tag_50\n      jump\t// in\n    tag_49:\n      tag_51\n      jump\t// in\n    tag_48:\n      mload(0x40)\n      tag_52\n      swap2\n      swap1\n      tag_43\n      jump\t// in\n    tag_52:\n      mload(0x40)\n      dup1\n      swap2\n      sub\n      swap1\n      return\n        /* \"contracts/ETH-AVX-DegenToken.sol\":424:449  uint256 public totalItems */\n    tag_8:\n      tag_53\n      tag_54\n      jump\t// in\n    tag_53:\n      mload(0x40)\n      tag_55\n      swap2\n      swap1\n      tag_47\n      jump\t// in\n    tag_55:\n      mload(0x40)\n      dup1\n      swap2\n      sub\n      swap1\n      return\n        /* \"contracts/ETH-AVX-DegenToken.sol\":697:872  function transferTokensTo(address to, uint256 amount) public {... */\n    tag_9:\n      tag_56\n      0x04\n      dup1\n      calldatasize\n      sub\n      dup2\n      add\n      swap1\n      tag_57\n      swap2\n      swap1\n      tag_40\n      jump\t// in\n    tag_57:\n      tag_58\n      jump\t// in\n    tag_56:\n      stop\n        /* \"@openzeppelin/contracts/token/ERC20/ERC20.sol\":3104:3195  function decimals() public view virtual override returns (uint8) {... */\n    tag_10:\n      tag_59\n      tag_60\n      jump\t// in\n    tag_59:\n      mload(0x40)\n      tag_61\n      swap2\n      swap1\n      tag_62\n      jump\t// in\n    tag_61:\n      mload(0x40)\n      dup1\n      swap2\n      sub\n      swap1\n      return\n        /* \"contracts/ETH-AVX-DegenToken.sol\":1048:1171  function checkAccountTokenBalance(address account) public view returns (uint256) {... */\n    tag_11:\n      tag_63\n      0x04\n      dup1\n      calldatasize\n      sub\n      dup2\n      add\n      swap1\n      tag_64\n      swap2\n      swap1\n      tag_65\n      jump\t// in\n    tag_64:\n      tag_66\n      jump\t// in\n    tag_63:\n      mload(0x40)\n      tag_67\n      swap2\n      swap1\n      tag_47\n      jump\t// in\n    tag_67:\n      mload(0x40)\n      dup1\n      swap2\n      sub\n      swap1\n      return\n        /* \"@openzeppelin/contracts/token/ERC20/ERC20.sol\":5854:6088  function increaseAllowance(address spender, uint256 addedValue) public virtual returns (bool) {... */\n    tag_12:\n      tag_68\n      0x04\n      dup1\n      calldatasize\n      sub\n      dup2\n      add\n      swap1\n      tag_69\n      swap2\n      swap1\n      tag_40\n      jump\t// in\n    tag_69:\n      tag_70\n      jump\t// in\n    tag_68:\n      mload(0x40)\n      tag_71\n      swap2\n      swap1\n      tag_43\n      jump\t// in\n    tag_71:\n      mload(0x40)\n      dup1\n      swap2\n      sub\n      swap1\n      return\n        /* \"contracts/ETH-AVX-DegenToken.sol\":1681:1972  function getGameStoreInventory() public view returns (GameStoreItem[] memory) {... */\n    tag_13:\n      tag_72\n      tag_73\n      jump\t// in\n    tag_72:\n      mload(0x40)\n      tag_74\n      swap2\n      swap1\n      tag_75\n      jump\t// in\n    tag_74:\n      mload(0x40)\n      dup1\n      swap2\n      sub\n      swap1\n      return\n        /* \"contracts/ETH-AVX-DegenToken.sol\":573:691  function mintOwnerTokens(address recipient, uint256 amount) public onlyOwner {... */\n    tag_14:\n      tag_76\n      0x04\n      dup1\n      calldatasize\n      sub\n      dup2\n      add\n      swap1\n      tag_77\n      swap2\n      swap1\n      tag_40\n      jump\t// in\n    tag_77:\n      tag_78\n      jump\t// in\n    tag_76:\n      stop\n        /* \"@openzeppelin/contracts/token/ERC20/ERC20.sol\":3419:3544  function balanceOf(address account) public view virtual override returns (uint256) {... */\n    tag_15:\n      tag_79\n      0x04\n      dup1\n      calldatasize\n      sub\n      dup2\n      add\n      swap1\n      tag_80\n      swap2\n      swap1\n      tag_65\n      jump\t// in\n    tag_80:\n      tag_81\n      jump\t// in\n    tag_79:\n      mload(0x40)\n      tag_82\n      swap2\n      swap1\n      tag_47\n      jump\t// in\n    tag_82:\n      mload(0x40)\n      dup1\n      swap2\n      sub\n      swap1\n      return\n        /* \"@openzeppelin/contracts/access/Ownable.sol\":1824:1925  function renounceOwnership() public virtual onlyOwner {... */\n    tag_16:\n      tag_83\n      tag_84\n      jump\t// in\n    tag_83:\n      stop\n        /* \"@openzeppelin/contracts/access/Ownable.sol\":1201:1286  function owner() public view virtual returns (address) {... */\n    tag_17:\n      tag_85\n      tag_86\n      jump\t// in\n    tag_85:\n      mload(0x40)\n      tag_87\n      swap2\n      swap1\n      tag_88\n      jump\t// in\n    tag_87:\n      mload(0x40)\n      dup1\n      swap2\n      sub\n      swap1\n      return\n        /* \"@openzeppelin/contracts/token/ERC20/ERC20.sol\":2369:2471  function symbol() public view virtual override returns (string memory) {... */\n    tag_18:\n      tag_89\n      tag_90\n      jump\t// in\n    tag_89:\n      mload(0x40)\n      tag_91\n      swap2\n      swap1\n      tag_37\n      jump\t// in\n    tag_91:\n      mload(0x40)\n      dup1\n      swap2\n      sub\n      swap1\n      return\n        /* \"@openzeppelin/contracts/token/ERC20/ERC20.sol\":6575:7002  function decreaseAllowance(address spender, uint256 subtractedValue) public virtual returns (bool) {... */\n    tag_19:\n      tag_92\n      0x04\n      dup1\n      calldatasize\n      sub\n      dup2\n      add\n      swap1\n      tag_93\n      swap2\n      swap1\n      tag_40\n      jump\t// in\n    tag_93:\n      tag_94\n      jump\t// in\n    tag_92:\n      mload(0x40)\n      tag_95\n      swap2\n      swap1\n      tag_43\n      jump\t// in\n    tag_95:\n      mload(0x40)\n      dup1\n      swap2\n      sub\n      swap1\n      return\n        /* \"@openzeppelin/contracts/token/ERC20/ERC20.sol\":3740:3929  function transfer(address to, uint256 amount) public virtual override returns (bool) {... */\n    tag_20:\n      tag_96\n      0x04\n      dup1\n      calldatasize\n      sub\n      dup2\n      add\n      swap1\n      tag_97\n      swap2\n      swap1\n      tag_40\n      jump\t// in\n    tag_97:\n      tag_98\n      jump\t// in\n    tag_96:\n      mload(0x40)\n      tag_99\n      swap2\n      swap1\n      tag_43\n      jump\t// in\n    tag_99:\n      mload(0x40)\n      dup1\n      swap2\n      sub\n      swap1\n      return\n        /* \"contracts/ETH-AVX-DegenToken.sol\":1349:1675  function addItemToGameStore(string memory itemName, uint256 price, uint256 stock) public onlyOwner {... */\n    tag_21:\n      tag_100\n      0x04\n      dup1\n      calldatasize\n      sub\n      dup2\n      add\n      swap1\n      tag_101\n      swap2\n      swap1\n      tag_102\n      jump\t// in\n    tag_101:\n      tag_103\n      jump\t// in\n    tag_100:\n      stop\n        /* \"@openzeppelin/contracts/token/ERC20/ERC20.sol\":3987:4136  function allowance(address owner, address spender) public view virtual override returns (uint256) {... */\n    tag_22:\n      tag_104\n      0x04\n      dup1\n      calldatasize\n      sub\n      dup2\n      add\n      swap1\n      tag_105\n      swap2\n      swap1\n      tag_106\n      jump\t// in\n    tag_105:\n      tag_107\n      jump\t// in\n    tag_104:\n      mload(0x40)\n      tag_108\n      swap2\n      swap1\n      tag_47\n      jump\t// in\n    tag_108:\n      mload(0x40)\n      dup1\n      swap2\n      sub\n      swap1\n      return\n        /* \"contracts/ETH-AVX-DegenToken.sol\":1177:1343  function burnUserTokens(uint256 amount) public {... */\n    tag_23:\n      tag_109\n      0x04\n      dup1\n      calldatasize\n      sub\n      dup2\n      add\n      swap1\n      tag_110\n      swap2\n      swap1\n      tag_32\n      jump\t// in\n    tag_110:\n      tag_111\n      jump\t// in\n    tag_109:\n      stop\n        /* \"contracts/ETH-AVX-DegenToken.sol\":1978:2570  function redeemGameStoreItem(uint256 itemId) public {... */\n    tag_24:\n      tag_112\n      0x04\n      dup1\n      calldatasize\n      sub\n      dup2\n      add\n      swap1\n      tag_113\n      swap2\n      swap1\n      tag_32\n      jump\t// in\n    tag_113:\n      tag_114\n      jump\t// in\n    tag_112:\n      stop\n        /* \"@openzeppelin/contracts/access/Ownable.sol\":2074:2272  function transferOwnership(address newOwner) public virtual onlyOwner {... */\n    tag_25:\n      tag_115\n      0x04\n      dup1\n      calldatasize\n      sub\n      dup2\n      add\n      swap1\n      tag_116\n      swap2\n      swap1\n      tag_65\n      jump\t// in\n    tag_116:\n      tag_117\n      jump\t// in\n    tag_115:\n      stop\n        /* \"contracts/ETH-AVX-DegenToken.sol\":359:418  mapping(uint256 => GameStoreItem) public gameStoreInventory */\n    tag_26:\n      tag_118\n      0x04\n      dup1\n      calldatasize\n      sub\n      dup2\n      add\n      swap1\n      tag_119\n      swap2\n      swap1\n      tag_32\n      jump\t// in\n    tag_119:\n      tag_120\n      jump\t// in\n    tag_118:\n      mload(0x40)\n      tag_121\n      swap4\n      swap3\n      swap2\n      swap1\n      tag_122\n      jump\t// in\n    tag_121:\n      mload(0x40)\n      dup1\n      swap2\n      sub\n      swap1\n      return\n        /* \"contracts/ETH-AVX-DegenToken.sol\":878:1042  function redeemTokensFor(uint256 amount) public {... */\n    tag_33:\n        /* \"contracts/ETH-AVX-DegenToken.sol\":969:975  amount */\n      dup1\n        /* \"contracts/ETH-AVX-DegenToken.sol\":944:965  balanceOf(msg.sender) */\n      tag_124\n        /* \"contracts/ETH-AVX-DegenToken.sol\":954:964  msg.sender */\n      caller\n        /* \"contracts/ETH-AVX-DegenToken.sol\":944:953  balanceOf */\n      tag_81\n        /* \"contracts/ETH-AVX-DegenToken.sol\":944:965  balanceOf(msg.sender) */\n      jump\t// in\n    tag_124:\n        /* \"contracts/ETH-AVX-DegenToken.sol\":944:975  balanceOf(msg.sender) >= amount */\n      lt\n      iszero\n        /* \"contracts/ETH-AVX-DegenToken.sol\":936:1000  require(balanceOf(msg.sender) >= amount, \"Insufficient balance\") */\n      tag_125\n      jumpi\n      mload(0x40)\n      0x08c379a000000000000000000000000000000000000000000000000000000000\n      dup2\n      mstore\n      0x04\n      add\n      tag_126\n      swap1\n      tag_127\n      jump\t// in\n    tag_126:\n      mload(0x40)\n      dup1\n      swap2\n      sub\n      swap1\n      revert\n    tag_125:\n        /* \"contracts/ETH-AVX-DegenToken.sol\":1010:1035  _burn(msg.sender, amount) */\n      tag_128\n        /* \"contracts/ETH-AVX-DegenToken.sol\":1016:1026  msg.sender */\n      caller\n        /* \"contracts/ETH-AVX-DegenToken.sol\":1028:1034  amount */\n      dup3\n        /* \"contracts/ETH-AVX-DegenToken.sol\":1010:1015  _burn */\n      tag_129\n        /* \"contracts/ETH-AVX-DegenToken.sol\":1010:1035  _burn(msg.sender, amount) */\n      jump\t// in\n    tag_128:\n        /* \"contracts/ETH-AVX-DegenToken.sol\":878:1042  function redeemTokensFor(uint256 amount) public {... */\n      pop\n      jump\t// out\n        /* \"@openzeppelin/contracts/token/ERC20/ERC20.sol\":2158:2256  function name() public view virtual override returns (string memory) {... */\n    tag_35:\n        /* \"@openzeppelin/contracts/token/ERC20/ERC20.sol\":2212:2225  string memory */\n      0x60\n        /* \"@openzeppelin/contracts/token/ERC20/ERC20.sol\":2244:2249  _name */\n      0x03\n        /* \"@openzeppelin/contracts/token/ERC20/ERC20.sol\":2237:2249  return _name */\n      dup1\n      sload\n      tag_131\n      swap1\n      tag_132\n      jump\t// in\n    tag_131:\n      dup1\n      0x1f\n      add\n      0x20\n      dup1\n      swap2\n      div\n      mul\n      0x20\n      add\n      mload(0x40)\n      swap1\n      dup2\n      add\n      0x40\n      mstore\n      dup1\n      swap3\n      swap2\n      swap1\n      dup2\n      dup2\n      mstore\n      0x20\n      add\n      dup3\n      dup1\n      sload\n      tag_133\n      swap1\n      tag_132\n      jump\t// in\n    tag_133:\n      dup1\n      iszero\n      tag_134\n      jumpi\n      dup1\n      0x1f\n      lt\n      tag_135\n      jumpi\n      0x0100\n      dup1\n      dup4\n      sload\n      div\n      mul\n      dup4\n      mstore\n      swap2\n      0x20\n      add\n      swap2\n      jump(tag_134)\n    tag_135:\n      dup3\n      add\n      swap2\n      swap1\n      0x00\n      mstore\n      keccak256(0x00, 0x20)\n      swap1\n    tag_136:\n      dup2\n      sload\n      dup2\n      mstore\n      swap1\n      0x01\n      add\n      swap1\n      0x20\n      add\n      dup1\n      dup4\n      gt\n      tag_136\n      jumpi\n      dup3\n      swap1\n      sub\n      0x1f\n      and\n      dup3\n      add\n      swap2\n    tag_134:\n      pop\n      pop\n      pop\n      pop\n      pop\n      swap1\n      pop\n        /* \"@openzeppelin/contracts/token/ERC20/ERC20.sol\":2158:2256  function name() public view virtual override returns (string memory) {... */\n      swap1\n      jump\t// out\n        /* \"@openzeppelin/contracts/token/ERC20/ERC20.sol\":4444:4641  function approve(address spender, uint256 amount) public virtual override returns (bool) {... */\n    tag_41:\n        /* \"@openzeppelin/contracts/token/ERC20/ERC20.sol\":4527:4531  bool */\n      0x00\n        /* \"@openzeppelin/contracts/token/ERC20/ERC20.sol\":4543:4556  address owner */\n      dup1\n        /* \"@openzeppelin/contracts/token/ERC20/ERC20.sol\":4559:4571  _msgSender() */\n      tag_138\n        /* \"@openzeppelin/contracts/token/ERC20/ERC20.sol\":4559:4569  _msgSender */\n      tag_139\n        /* \"@openzeppelin/contracts/token/ERC20/ERC20.sol\":4559:4571  _msgSender() */\n      jump\t// in\n    tag_138:\n        /* \"@openzeppelin/contracts/token/ERC20/ERC20.sol\":4543:4571  address owner = _msgSender() */\n      swap1\n      pop\n        /* \"@openzeppelin/contracts/token/ERC20/ERC20.sol\":4581:4613  _approve(owner, spender, amount) */\n      tag_140\n        /* \"@openzeppelin/contracts/token/ERC20/ERC20.sol\":4590:4595  owner */\n      dup2\n        /* \"@openzeppelin/contracts/token/ERC20/ERC20.sol\":4597:4604  spender */\n      dup6\n        /* \"@openzeppelin/contracts/token/ERC20/ERC20.sol\":4606:4612  amount */\n      dup6\n        /* \"@openzeppelin/contracts/token/ERC20/ERC20.sol\":4581:4589  _approve */\n      tag_141\n        /* \"@openzeppelin/contracts/token/ERC20/ERC20.sol\":4581:4613  _approve(owner, spender, amount) */\n      jump\t// in\n    tag_140:\n        /* \"@openzeppelin/contracts/token/ERC20/ERC20.sol\":4630:4634  true */\n      0x01\n        /* \"@openzeppelin/contracts/token/ERC20/ERC20.sol\":4623:4634  return true */\n      swap2\n      pop\n      pop\n        /* \"@openzeppelin/contracts/token/ERC20/ERC20.sol\":4444:4641  function approve(address spender, uint256 amount) public virtual override returns (bool) {... */\n      swap3\n      swap2\n      pop\n      pop\n      jump\t// out\n        /* \"@openzeppelin/contracts/token/ERC20/ERC20.sol\":3255:3361  function totalSupply() public view virtual override returns (uint256) {... */\n    tag_45:\n        /* \"@openzeppelin/contracts/token/ERC20/ERC20.sol\":3316:3323  uint256 */\n      0x00\n        /* \"@openzeppelin/contracts/token/ERC20/ERC20.sol\":3342:3354  _totalSupply */\n      sload(0x02)\n        /* \"@openzeppelin/contracts/token/ERC20/ERC20.sol\":3335:3354  return _totalSupply */\n      swap1\n      pop\n        /* \"@openzeppelin/contracts/token/ERC20/ERC20.sol\":3255:3361  function totalSupply() public view virtual override returns (uint256) {... */\n      swap1\n      jump\t// out\n        /* \"@openzeppelin/contracts/token/ERC20/ERC20.sol\":5203:5459  function transferFrom(address from, address to, uint256 amount) public virtual override returns (bool) {... */\n    tag_51:\n        /* \"@openzeppelin/contracts/token/ERC20/ERC20.sol\":5300:5304  bool */\n      0x00\n        /* \"@openzeppelin/contracts/token/ERC20/ERC20.sol\":5316:5331  address spender */\n      dup1\n        /* \"@openzeppelin/contracts/token/ERC20/ERC20.sol\":5334:5346  _msgSender() */\n      tag_144\n        /* \"@openzeppelin/contracts/token/ERC20/ERC20.sol\":5334:5344  _msgSender */\n      tag_139\n        /* \"@openzeppelin/contracts/token/ERC20/ERC20.sol\":5334:5346  _msgSender() */\n      jump\t// in\n    tag_144:\n        /* \"@openzeppelin/contracts/token/ERC20/ERC20.sol\":5316:5346  address spender = _msgSender() */\n      swap1\n      pop\n        /* \"@openzeppelin/contracts/token/ERC20/ERC20.sol\":5356:5394  _spendAllowance(from, spender, amount) */\n      tag_145\n        /* \"@openzeppelin/contracts/token/ERC20/ERC20.sol\":5372:5376  from */\n      dup6\n        /* \"@openzeppelin/contracts/token/ERC20/ERC20.sol\":5378:5385  spender */\n      dup3\n        /* \"@openzeppelin/contracts/token/ERC20/ERC20.sol\":5387:5393  amount */\n      dup6\n        /* \"@openzeppelin/contracts/token/ERC20/ERC20.sol\":5356:5371  _spendAllowance */\n      tag_146\n        /* \"@openzeppelin/contracts/token/ERC20/ERC20.sol\":5356:5394  _spendAllowance(from, spender, amount) */\n      jump\t// in\n    tag_145:\n        /* \"@openzeppelin/contracts/token/ERC20/ERC20.sol\":5404:5431  _transfer(from, to, amount) */\n      tag_147\n        /* \"@openzeppelin/contracts/token/ERC20/ERC20.sol\":5414:5418  from */\n      dup6\n        /* \"@openzeppelin/contracts/token/ERC20/ERC20.sol\":5420:5422  to */\n      dup6\n        /* \"@openzeppelin/contracts/token/ERC20/ERC20.sol\":5424:5430  amount */\n      dup6\n        /* \"@openzeppelin/contracts/token/ERC20/ERC20.sol\":5404:5413  _transfer */\n      tag_148\n        /* \"@openzeppelin/contracts/token/ERC20/ERC20.sol\":5404:5431  _transfer(from, to, amount) */\n      jump\t// in\n    tag_147:\n        /* \"@openzeppelin/contracts/token/ERC20/ERC20.sol\":5448:5452  true */\n      0x01\n        /* \"@openzeppelin/contracts/token/ERC20/ERC20.sol\":5441:5452  return true */\n      swap2\n      pop\n      pop\n        /* \"@openzeppelin/contracts/token/ERC20/ERC20.sol\":5203:5459  function transferFrom(address from, address to, uint256 amount) public virtual override returns (bool) {... */\n      swap4\n      swap3\n      pop\n      pop\n      pop\n      jump\t// out\n        /* \"contracts/ETH-AVX-DegenToken.sol\":424:449  uint256 public totalItems */\n    tag_54:\n      sload(0x07)\n      dup2\n      jump\t// out\n        /* \"contracts/ETH-AVX-DegenToken.sol\":697:872  function transferTokensTo(address to, uint256 amount) public {... */\n    tag_58:\n        /* \"contracts/ETH-AVX-DegenToken.sol\":790:791  0 */\n      0x00\n        /* \"contracts/ETH-AVX-DegenToken.sol\":776:792  to != address(0) */\n      0xffffffffffffffffffffffffffffffffffffffff\n      and\n        /* \"contracts/ETH-AVX-DegenToken.sol\":776:778  to */\n      dup3\n        /* \"contracts/ETH-AVX-DegenToken.sol\":776:792  to != address(0) */\n      0xffffffffffffffffffffffffffffffffffffffff\n      and\n      sub\n        /* \"contracts/ETH-AVX-DegenToken.sol\":768:822  require(to != address(0), \"Invalid recipient address\") */\n      tag_150\n      jumpi\n      mload(0x40)\n      0x08c379a000000000000000000000000000000000000000000000000000000000\n      dup2\n      mstore\n      0x04\n      add\n      tag_151\n      swap1\n      tag_152\n      jump\t// in\n    tag_151:\n      mload(0x40)\n      dup1\n      swap2\n      sub\n      swap1\n      revert\n    tag_150:\n        /* \"contracts/ETH-AVX-DegenToken.sol\":832:865  _transfer(msg.sender, to, amount) */\n      tag_153\n        /* \"contracts/ETH-AVX-DegenToken.sol\":842:852  msg.sender */\n      caller\n        /* \"contracts/ETH-AVX-DegenToken.sol\":854:856  to */\n      dup4\n        /* \"contracts/ETH-AVX-DegenToken.sol\":858:864  amount */\n      dup4\n        /* \"contracts/ETH-AVX-DegenToken.sol\":832:841  _transfer */\n      tag_148\n        /* \"contracts/ETH-AVX-DegenToken.sol\":832:865  _transfer(msg.sender, to, amount) */\n      jump\t// in\n    tag_153:\n        /* \"contracts/ETH-AVX-DegenToken.sol\":697:872  function transferTokensTo(address to, uint256 amount) public {... */\n      pop\n      pop\n      jump\t// out\n        /* \"@openzeppelin/contracts/token/ERC20/ERC20.sol\":3104:3195  function decimals() public view virtual override returns (uint8) {... */\n    tag_60:\n        /* \"@openzeppelin/contracts/token/ERC20/ERC20.sol\":3162:3167  uint8 */\n      0x00\n        /* \"@openzeppelin/contracts/token/ERC20/ERC20.sol\":3186:3188  18 */\n      0x12\n        /* \"@openzeppelin/contracts/token/ERC20/ERC20.sol\":3179:3188  return 18 */\n      swap1\n      pop\n        /* \"@openzeppelin/contracts/token/ERC20/ERC20.sol\":3104:3195  function decimals() public view virtual override returns (uint8) {... */\n      swap1\n      jump\t// out\n        /* \"contracts/ETH-AVX-DegenToken.sol\":1048:1171  function checkAccountTokenBalance(address account) public view returns (uint256) {... */\n    tag_66:\n        /* \"contracts/ETH-AVX-DegenToken.sol\":1120:1127  uint256 */\n      0x00\n        /* \"contracts/ETH-AVX-DegenToken.sol\":1146:1164  balanceOf(account) */\n      tag_156\n        /* \"contracts/ETH-AVX-DegenToken.sol\":1156:1163  account */\n      dup3\n        /* \"contracts/ETH-AVX-DegenToken.sol\":1146:1155  balanceOf */\n      tag_81\n        /* \"contracts/ETH-AVX-DegenToken.sol\":1146:1164  balanceOf(account) */\n      jump\t// in\n    tag_156:\n        /* \"contracts/ETH-AVX-DegenToken.sol\":1139:1164  return balanceOf(account) */\n      swap1\n      pop\n        /* \"contracts/ETH-AVX-DegenToken.sol\":1048:1171  function checkAccountTokenBalance(address account) public view returns (uint256) {... */\n      swap2\n      swap1\n      pop\n      jump\t// out\n        /* \"@openzeppelin/contracts/token/ERC20/ERC20.sol\":5854:6088  function increaseAllowance(address spender, uint256 addedValue) public virtual returns (bool) {... */\n    tag_70:\n        /* \"@openzeppelin/contracts/token/ERC20/ERC20.sol\":5942:5946  bool */\n      0x00\n        /* \"@openzeppelin/contracts/token/ERC20/ERC20.sol\":5958:5971  address owner */\n      dup1\n        /* \"@openzeppelin/contracts/token/ERC20/ERC20.sol\":5974:5986  _msgSender() */\n      tag_158\n        /* \"@openzeppelin/contracts/token/ERC20/ERC20.sol\":5974:5984  _msgSender */\n      tag_139\n        /* \"@openzeppelin/contracts/token/ERC20/ERC20.sol\":5974:5986  _msgSender() */\n      jump\t// in\n    tag_158:\n        /* \"@openzeppelin/contracts/token/ERC20/ERC20.sol\":5958:5986  address owner = _msgSender() */\n      swap1\n      pop\n        /* \"@openzeppelin/contracts/token/ERC20/ERC20.sol\":5996:6060  _approve(owner, spender, allowance(owner, spender) + addedValue) */\n      tag_159\n        /* \"@openzeppelin/contracts/token/ERC20/ERC20.sol\":6005:6010  owner */\n      dup2\n        /* \"@openzeppelin/contracts/token/ERC20/ERC20.sol\":6012:6019  spender */\n      dup6\n        /* \"@openzeppelin/contracts/token/ERC20/ERC20.sol\":6049:6059  addedValue */\n      dup6\n        /* \"@openzeppelin/contracts/token/ERC20/ERC20.sol\":6021:6046  allowance(owner, spender) */\n      tag_160\n        /* \"@openzeppelin/contracts/token/ERC20/ERC20.sol\":6031:6036  owner */\n      dup6\n        /* \"@openzeppelin/contracts/token/ERC20/ERC20.sol\":6038:6045  spender */\n      dup10\n        /* \"@openzeppelin/contracts/token/ERC20/ERC20.sol\":6021:6030  allowance */\n      tag_107\n        /* \"@openzeppelin/contracts/token/ERC20/ERC20.sol\":6021:6046  allowance(owner, spender) */\n      jump\t// in\n    tag_160:\n        /* \"@openzeppelin/contracts/token/ERC20/ERC20.sol\":6021:6059  allowance(owner, spender) + addedValue */\n      tag_161\n      swap2\n      swap1\n      tag_162\n      jump\t// in\n    tag_161:\n        /* \"@openzeppelin/contracts/token/ERC20/ERC20.sol\":5996:6004  _approve */\n      tag_141\n        /* \"@openzeppelin/contracts/token/ERC20/ERC20.sol\":5996:6060  _approve(owner, spender, allowance(owner, spender) + addedValue) */\n      jump\t// in\n    tag_159:\n        /* \"@openzeppelin/contracts/token/ERC20/ERC20.sol\":6077:6081  true */\n      0x01\n        /* \"@openzeppelin/contracts/token/ERC20/ERC20.sol\":6070:6081  return true */\n      swap2\n      pop\n      pop\n        /* \"@openzeppelin/contracts/token/ERC20/ERC20.sol\":5854:6088  function increaseAllowance(address spender, uint256 addedValue) public virtual returns (bool) {... */\n      swap3\n      swap2\n      pop\n      pop\n      jump\t// out\n        /* \"contracts/ETH-AVX-DegenToken.sol\":1681:1972  function getGameStoreInventory() public view returns (GameStoreItem[] memory) {... */\n    tag_73:\n        /* \"contracts/ETH-AVX-DegenToken.sol\":1735:1757  GameStoreItem[] memory */\n      0x60\n        /* \"contracts/ETH-AVX-DegenToken.sol\":1769:1797  GameStoreItem[] memory items */\n      0x00\n        /* \"contracts/ETH-AVX-DegenToken.sol\":1820:1830  totalItems */\n      sload(0x07)\n        /* \"contracts/ETH-AVX-DegenToken.sol\":1800:1831  new GameStoreItem[](totalItems) */\n      0xffffffffffffffff\n      dup2\n      gt\n      iszero\n      tag_164\n      jumpi\n      tag_165\n      tag_166\n      jump\t// in\n    tag_165:\n    tag_164:\n      mload(0x40)\n      swap1\n      dup1\n      dup3\n      mstore\n      dup1\n      0x20\n      mul\n      0x20\n      add\n      dup3\n      add\n      0x40\n      mstore\n      dup1\n      iszero\n      tag_167\n      jumpi\n      dup2\n      0x20\n      add\n    tag_168:\n      tag_169\n      tag_170\n      jump\t// in\n    tag_169:\n      dup2\n      mstore\n      0x20\n      add\n      swap1\n      0x01\n      swap1\n      sub\n      swap1\n      dup2\n      tag_168\n      jumpi\n      swap1\n      pop\n    tag_167:\n      pop\n        /* \"contracts/ETH-AVX-DegenToken.sol\":1769:1831  GameStoreItem[] memory items = new GameStoreItem[](totalItems) */\n      swap1\n      pop\n        /* \"contracts/ETH-AVX-DegenToken.sol\":1846:1855  uint256 i */\n      0x00\n        /* \"contracts/ETH-AVX-DegenToken.sol\":1858:1859  1 */\n      0x01\n        /* \"contracts/ETH-AVX-DegenToken.sol\":1846:1859  uint256 i = 1 */\n      swap1\n      pop\n        /* \"contracts/ETH-AVX-DegenToken.sol\":1841:1944  for (uint256 i = 1; i <= totalItems; i++) {... */\n    tag_171:\n        /* \"contracts/ETH-AVX-DegenToken.sol\":1866:1876  totalItems */\n      sload(0x07)\n        /* \"contracts/ETH-AVX-DegenToken.sol\":1861:1862  i */\n      dup2\n        /* \"contracts/ETH-AVX-DegenToken.sol\":1861:1876  i <= totalItems */\n      gt\n        /* \"contracts/ETH-AVX-DegenToken.sol\":1841:1944  for (uint256 i = 1; i <= totalItems; i++) {... */\n      tag_172\n      jumpi\n        /* \"contracts/ETH-AVX-DegenToken.sol\":1912:1930  gameStoreInventory */\n      0x06\n        /* \"contracts/ETH-AVX-DegenToken.sol\":1912:1933  gameStoreInventory[i] */\n      0x00\n        /* \"contracts/ETH-AVX-DegenToken.sol\":1931:1932  i */\n      dup3\n        /* \"contracts/ETH-AVX-DegenToken.sol\":1912:1933  gameStoreInventory[i] */\n      dup2\n      mstore\n      0x20\n      add\n      swap1\n      dup2\n      mstore\n      0x20\n      add\n      0x00\n      keccak256\n        /* \"contracts/ETH-AVX-DegenToken.sol\":1897:1933  items[i - 1] = gameStoreInventory[i] */\n      mload(0x40)\n      dup1\n      0x60\n      add\n      0x40\n      mstore\n      swap1\n      dup2\n      0x00\n      dup3\n      add\n      dup1\n      sload\n      tag_174\n      swap1\n      tag_132\n      jump\t// in\n    tag_174:\n      dup1\n      0x1f\n      add\n      0x20\n      dup1\n      swap2\n      div\n      mul\n      0x20\n      add\n      mload(0x40)\n      swap1\n      dup2\n      add\n      0x40\n      mstore\n      dup1\n      swap3\n      swap2\n      swap1\n      dup2\n      dup2\n      mstore\n      0x20\n      add\n      dup3\n      dup1\n      sload\n      tag_175\n      swap1\n      tag_132\n      jump\t// in\n    tag_175:\n      dup1\n      iszero\n      tag_176\n      jumpi\n      dup1\n      0x1f\n      lt\n      tag_177\n      jumpi\n      0x0100\n      dup1\n      dup4\n      sload\n      div\n      mul\n      dup4\n      mstore\n      swap2\n      0x20\n      add\n      swap2\n      jump(tag_176)\n    tag_177:\n      dup3\n      add\n      swap2\n      swap1\n      0x00\n      mstore\n      keccak256(0x00, 0x20)\n      swap1\n    tag_178:\n      dup2\n      sload\n      dup2\n      mstore\n      swap1\n      0x01\n      add\n      swap1\n      0x20\n      add\n      dup1\n      dup4\n      gt\n      tag_178\n      jumpi\n      dup3\n      swap1\n      sub\n      0x1f\n      and\n      dup3\n      add\n      swap2\n    tag_176:\n      pop\n      pop\n      pop\n      pop\n      pop\n      dup2\n      mstore\n      0x20\n      add\n      0x01\n      dup3\n      add\n      sload\n      dup2\n      mstore\n      0x20\n      add\n      0x02\n      dup3\n      add\n      sload\n      dup2\n      mstore\n      pop\n      pop\n        /* \"contracts/ETH-AVX-DegenToken.sol\":1897:1902  items */\n      dup3\n        /* \"contracts/ETH-AVX-DegenToken.sol\":1907:1908  1 */\n      0x01\n        /* \"contracts/ETH-AVX-DegenToken.sol\":1903:1904  i */\n      dup4\n        /* \"contracts/ETH-AVX-DegenToken.sol\":1903:1908  i - 1 */\n      tag_179\n      swap2\n      swap1\n      tag_180\n      jump\t// in\n    tag_179:\n        /* \"contracts/ETH-AVX-DegenToken.sol\":1897:1909  items[i - 1] */\n      dup2\n      mload\n      dup2\n      lt\n      tag_181\n      jumpi\n      tag_182\n      tag_183\n      jump\t// in\n    tag_182:\n    tag_181:\n      0x20\n      mul\n      0x20\n      add\n      add\n        /* \"contracts/ETH-AVX-DegenToken.sol\":1897:1933  items[i - 1] = gameStoreInventory[i] */\n      dup2\n      swap1\n      mstore\n      pop\n        /* \"contracts/ETH-AVX-DegenToken.sol\":1878:1881  i++ */\n      dup1\n      dup1\n      tag_184\n      swap1\n      tag_185\n      jump\t// in\n    tag_184:\n      swap2\n      pop\n      pop\n        /* \"contracts/ETH-AVX-DegenToken.sol\":1841:1944  for (uint256 i = 1; i <= totalItems; i++) {... */\n      jump(tag_171)\n    tag_172:\n      pop\n        /* \"contracts/ETH-AVX-DegenToken.sol\":1960:1965  items */\n      dup1\n        /* \"contracts/ETH-AVX-DegenToken.sol\":1953:1965  return items */\n      swap2\n      pop\n      pop\n        /* \"contracts/ETH-AVX-DegenToken.sol\":1681:1972  function getGameStoreInventory() public view returns (GameStoreItem[] memory) {... */\n      swap1\n      jump\t// out\n        /* \"contracts/ETH-AVX-DegenToken.sol\":573:691  function mintOwnerTokens(address recipient, uint256 amount) public onlyOwner {... */\n    tag_78:\n        /* \"@openzeppelin/contracts/access/Ownable.sol\":1094:1107  _checkOwner() */\n      tag_187\n        /* \"@openzeppelin/contracts/access/Ownable.sol\":1094:1105  _checkOwner */\n      tag_188\n        /* \"@openzeppelin/contracts/access/Ownable.sol\":1094:1107  _checkOwner() */\n      jump\t// in\n    tag_187:\n        /* \"contracts/ETH-AVX-DegenToken.sol\":660:684  _mint(recipient, amount) */\n      tag_190\n        /* \"contracts/ETH-AVX-DegenToken.sol\":666:675  recipient */\n      dup3\n        /* \"contracts/ETH-AVX-DegenToken.sol\":677:683  amount */\n      dup3\n        /* \"contracts/ETH-AVX-DegenToken.sol\":660:665  _mint */\n      tag_191\n        /* \"contracts/ETH-AVX-DegenToken.sol\":660:684  _mint(recipient, amount) */\n      jump\t// in\n    tag_190:\n        /* \"contracts/ETH-AVX-DegenToken.sol\":573:691  function mintOwnerTokens(address recipient, uint256 amount) public onlyOwner {... */\n      pop\n      pop\n      jump\t// out\n        /* \"@openzeppelin/contracts/token/ERC20/ERC20.sol\":3419:3544  function balanceOf(address account) public view virtual override returns (uint256) {... */\n    tag_81:\n        /* \"@openzeppelin/contracts/token/ERC20/ERC20.sol\":3493:3500  uint256 */\n      0x00\n        /* \"@openzeppelin/contracts/token/ERC20/ERC20.sol\":3519:3528  _balances */\n      dup1\n        /* \"@openzeppelin/contracts/token/ERC20/ERC20.sol\":3519:3537  _balances[account] */\n      0x00\n        /* \"@openzeppelin/contracts/token/ERC20/ERC20.sol\":3529:3536  account */\n      dup4\n        /* \"@openzeppelin/contracts/token/ERC20/ERC20.sol\":3519:3537  _balances[account] */\n      0xffffffffffffffffffffffffffffffffffffffff\n      and\n      0xffffffffffffffffffffffffffffffffffffffff\n      and\n      dup2\n      mstore\n      0x20\n      add\n      swap1\n      dup2\n      mstore\n      0x20\n      add\n      0x00\n      keccak256\n      sload\n        /* \"@openzeppelin/contracts/token/ERC20/ERC20.sol\":3512:3537  return _balances[account] */\n      swap1\n      pop\n        /* \"@openzeppelin/contracts/token/ERC20/ERC20.sol\":3419:3544  function balanceOf(address account) public view virtual override returns (uint256) {... */\n      swap2\n      swap1\n      pop\n      jump\t// out\n        /* \"@openzeppelin/contracts/access/Ownable.sol\":1824:1925  function renounceOwnership() public virtual onlyOwner {... */\n    tag_84:\n        /* \"@openzeppelin/contracts/access/Ownable.sol\":1094:1107  _checkOwner() */\n      tag_194\n        /* \"@openzeppelin/contracts/access/Ownable.sol\":1094:1105  _checkOwner */\n      tag_188\n        /* \"@openzeppelin/contracts/access/Ownable.sol\":1094:1107  _checkOwner() */\n      jump\t// in\n    tag_194:\n        /* \"@openzeppelin/contracts/access/Ownable.sol\":1888:1918  _transferOwnership(address(0)) */\n      tag_196\n        /* \"@openzeppelin/contracts/access/Ownable.sol\":1915:1916  0 */\n      0x00\n        /* \"@openzeppelin/contracts/access/Ownable.sol\":1888:1906  _transferOwnership */\n      tag_197\n        /* \"@openzeppelin/contracts/access/Ownable.sol\":1888:1918  _transferOwnership(address(0)) */\n      jump\t// in\n    tag_196:\n        /* \"@openzeppelin/contracts/access/Ownable.sol\":1824:1925  function renounceOwnership() public virtual onlyOwner {... */\n      jump\t// out\n        /* \"@openzeppelin/contracts/access/Ownable.sol\":1201:1286  function owner() public view virtual returns (address) {... */\n    tag_86:\n        /* \"@openzeppelin/contracts/access/Ownable.sol\":1247:1254  address */\n      0x00\n        /* \"@openzeppelin/contracts/access/Ownable.sol\":1273:1279  _owner */\n      0x05\n      0x00\n      swap1\n      sload\n      swap1\n      0x0100\n      exp\n      swap1\n      div\n      0xffffffffffffffffffffffffffffffffffffffff\n      and\n        /* \"@openzeppelin/contracts/access/Ownable.sol\":1266:1279  return _owner */\n      swap1\n      pop\n        /* \"@openzeppelin/contracts/access/Ownable.sol\":1201:1286  function owner() public view virtual returns (address) {... */\n      swap1\n      jump\t// out\n        /* \"@openzeppelin/contracts/token/ERC20/ERC20.sol\":2369:2471  function symbol() public view virtual override returns (string memory) {... */\n    tag_90:\n        /* \"@openzeppelin/contracts/token/ERC20/ERC20.sol\":2425:2438  string memory */\n      0x60\n        /* \"@openzeppelin/contracts/token/ERC20/ERC20.sol\":2457:2464  _symbol */\n      0x04\n        /* \"@openzeppelin/contracts/token/ERC20/ERC20.sol\":2450:2464  return _symbol */\n      dup1\n      sload\n      tag_200\n      swap1\n      tag_132\n      jump\t// in\n    tag_200:\n      dup1\n      0x1f\n      add\n      0x20\n      dup1\n      swap2\n      div\n      mul\n      0x20\n      add\n      mload(0x40)\n      swap1\n      dup2\n      add\n      0x40\n      mstore\n      dup1\n      swap3\n      swap2\n      swap1\n      dup2\n      dup2\n      mstore\n      0x20\n      add\n      dup3\n      dup1\n      sload\n      tag_201\n      swap1\n      tag_132\n      jump\t// in\n    tag_201:\n      dup1\n      iszero\n      tag_202\n      jumpi\n      dup1\n      0x1f\n      lt\n      tag_203\n      jumpi\n      0x0100\n      dup1\n      dup4\n      sload\n      div\n      mul\n      dup4\n      mstore\n      swap2\n      0x20\n      add\n      swap2\n      jump(tag_202)\n    tag_203:\n      dup3\n      add\n      swap2\n      swap1\n      0x00\n      mstore\n      keccak256(0x00, 0x20)\n      swap1\n    tag_204:\n      dup2\n      sload\n      dup2\n      mstore\n      swap1\n      0x01\n      add\n      swap1\n      0x20\n      add\n      dup1\n      dup4\n      gt\n      tag_204\n      jumpi\n      dup3\n      swap1\n      sub\n      0x1f\n      and\n      dup3\n      add\n      swap2\n    tag_202:\n      pop\n      pop\n      pop\n      pop\n      pop\n      swap1\n      pop\n        /* \"@openzeppelin/contracts/token/ERC20/ERC20.sol\":2369:2471  function symbol() public view virtual override returns (string memory) {... */\n      swap1\n      jump\t// out\n        /* \"@openzeppelin/contracts/token/ERC20/ERC20.sol\":6575:7002  function decreaseAllowance(address spender, uint256 subtractedValue) public virtual returns (bool) {... */\n    tag_94:\n        /* \"@openzeppelin/contracts/token/ERC20/ERC20.sol\":6668:6672  bool */\n      0x00\n        /* \"@openzeppelin/contracts/token/ERC20/ERC20.sol\":6684:6697  address owner */\n      dup1\n        /* \"@openzeppelin/contracts/token/ERC20/ERC20.sol\":6700:6712  _msgSender() */\n      tag_206\n        /* \"@openzeppelin/contracts/token/ERC20/ERC20.sol\":6700:6710  _msgSender */\n      tag_139\n        /* \"@openzeppelin/contracts/token/ERC20/ERC20.sol\":6700:6712  _msgSender() */\n      jump\t// in\n    tag_206:\n        /* \"@openzeppelin/contracts/token/ERC20/ERC20.sol\":6684:6712  address owner = _msgSender() */\n      swap1\n      pop\n        /* \"@openzeppelin/contracts/token/ERC20/ERC20.sol\":6722:6746  uint256 currentAllowance */\n      0x00\n        /* \"@openzeppelin/contracts/token/ERC20/ERC20.sol\":6749:6774  allowance(owner, spender) */\n      tag_207\n        /* \"@openzeppelin/contracts/token/ERC20/ERC20.sol\":6759:6764  owner */\n      dup3\n        /* \"@openzeppelin/contracts/token/ERC20/ERC20.sol\":6766:6773  spender */\n      dup7\n        /* \"@openzeppelin/contracts/token/ERC20/ERC20.sol\":6749:6758  allowance */\n      tag_107\n        /* \"@openzeppelin/contracts/token/ERC20/ERC20.sol\":6749:6774  allowance(owner, spender) */\n      jump\t// in\n    tag_207:\n        /* \"@openzeppelin/contracts/token/ERC20/ERC20.sol\":6722:6774  uint256 currentAllowance = allowance(owner, spender) */\n      swap1\n      pop\n        /* \"@openzeppelin/contracts/token/ERC20/ERC20.sol\":6812:6827  subtractedValue */\n      dup4\n        /* \"@openzeppelin/contracts/token/ERC20/ERC20.sol\":6792:6808  currentAllowance */\n      dup2\n        /* \"@openzeppelin/contracts/token/ERC20/ERC20.sol\":6792:6827  currentAllowance >= subtractedValue */\n      lt\n      iszero\n        /* \"@openzeppelin/contracts/token/ERC20/ERC20.sol\":6784:6869  require(currentAllowance >= subtractedValue, \"ERC20: decreased allowance below zero\") */\n      tag_208\n      jumpi\n      mload(0x40)\n      0x08c379a000000000000000000000000000000000000000000000000000000000\n      dup2\n      mstore\n      0x04\n      add\n      tag_209\n      swap1\n      tag_210\n      jump\t// in\n    tag_209:\n      mload(0x40)\n      dup1\n      swap2\n      sub\n      swap1\n      revert\n    tag_208:\n        /* \"@openzeppelin/contracts/token/ERC20/ERC20.sol\":6903:6963  _approve(owner, spender, currentAllowance - subtractedValue) */\n      tag_211\n        /* \"@openzeppelin/contracts/token/ERC20/ERC20.sol\":6912:6917  owner */\n      dup3\n        /* \"@openzeppelin/contracts/token/ERC20/ERC20.sol\":6919:6926  spender */\n      dup7\n        /* \"@openzeppelin/contracts/token/ERC20/ERC20.sol\":6947:6962  subtractedValue */\n      dup7\n        /* \"@openzeppelin/contracts/token/ERC20/ERC20.sol\":6928:6944  currentAllowance */\n      dup5\n        /* \"@openzeppelin/contracts/token/ERC20/ERC20.sol\":6928:6962  currentAllowance - subtractedValue */\n      sub\n        /* \"@openzeppelin/contracts/token/ERC20/ERC20.sol\":6903:6911  _approve */\n      tag_141\n        /* \"@openzeppelin/contracts/token/ERC20/ERC20.sol\":6903:6963  _approve(owner, spender, currentAllowance - subtractedValue) */\n      jump\t// in\n    tag_211:\n        /* \"@openzeppelin/contracts/token/ERC20/ERC20.sol\":6991:6995  true */\n      0x01\n        /* \"@openzeppelin/contracts/token/ERC20/ERC20.sol\":6984:6995  return true */\n      swap3\n      pop\n      pop\n      pop\n        /* \"@openzeppelin/contracts/token/ERC20/ERC20.sol\":6575:7002  function decreaseAllowance(address spender, uint256 subtractedValue) public virtual returns (bool) {... */\n      swap3\n      swap2\n      pop\n      pop\n      jump\t// out\n        /* \"@openzeppelin/contracts/token/ERC20/ERC20.sol\":3740:3929  function transfer(address to, uint256 amount) public virtual override returns (bool) {... */\n    tag_98:\n        /* \"@openzeppelin/contracts/token/ERC20/ERC20.sol\":3819:3823  bool */\n      0x00\n        /* \"@openzeppelin/contracts/token/ERC20/ERC20.sol\":3835:3848  address owner */\n      dup1\n        /* \"@openzeppelin/contracts/token/ERC20/ERC20.sol\":3851:3863  _msgSender() */\n      tag_213\n        /* \"@openzeppelin/contracts/token/ERC20/ERC20.sol\":3851:3861  _msgSender */\n      tag_139\n        /* \"@openzeppelin/contracts/token/ERC20/ERC20.sol\":3851:3863  _msgSender() */\n      jump\t// in\n    tag_213:\n        /* \"@openzeppelin/contracts/token/ERC20/ERC20.sol\":3835:3863  address owner = _msgSender() */\n      swap1\n      pop\n        /* \"@openzeppelin/contracts/token/ERC20/ERC20.sol\":3873:3901  _transfer(owner, to, amount) */\n      tag_214\n        /* \"@openzeppelin/contracts/token/ERC20/ERC20.sol\":3883:3888  owner */\n      dup2\n        /* \"@openzeppelin/contracts/token/ERC20/ERC20.sol\":3890:3892  to */\n      dup6\n        /* \"@openzeppelin/contracts/token/ERC20/ERC20.sol\":3894:3900  amount */\n      dup6\n        /* \"@openzeppelin/contracts/token/ERC20/ERC20.sol\":3873:3882  _transfer */\n      tag_148\n        /* \"@openzeppelin/contracts/token/ERC20/ERC20.sol\":3873:3901  _transfer(owner, to, amount) */\n      jump\t// in\n    tag_214:\n        /* \"@openzeppelin/contracts/token/ERC20/ERC20.sol\":3918:3922  true */\n      0x01\n        /* \"@openzeppelin/contracts/token/ERC20/ERC20.sol\":3911:3922  return true */\n      swap2\n      pop\n      pop\n        /* \"@openzeppelin/contracts/token/ERC20/ERC20.sol\":3740:3929  function transfer(address to, uint256 amount) public virtual override returns (bool) {... */\n      swap3\n      swap2\n      pop\n      pop\n      jump\t// out\n        /* \"contracts/ETH-AVX-DegenToken.sol\":1349:1675  function addItemToGameStore(string memory itemName, uint256 price, uint256 stock) public onlyOwner {... */\n    tag_103:\n        /* \"@openzeppelin/contracts/access/Ownable.sol\":1094:1107  _checkOwner() */\n      tag_216\n        /* \"@openzeppelin/contracts/access/Ownable.sol\":1094:1105  _checkOwner */\n      tag_188\n        /* \"@openzeppelin/contracts/access/Ownable.sol\":1094:1107  _checkOwner() */\n      jump\t// in\n    tag_216:\n        /* \"contracts/ETH-AVX-DegenToken.sol\":1474:1475  0 */\n      0x00\n        /* \"contracts/ETH-AVX-DegenToken.sol\":1466:1471  price */\n      dup3\n        /* \"contracts/ETH-AVX-DegenToken.sol\":1466:1475  price > 0 */\n      gt\n        /* \"contracts/ETH-AVX-DegenToken.sol\":1458:1507  require(price > 0, \"Price should be more than 0\") */\n      tag_218\n      jumpi\n      mload(0x40)\n      0x08c379a000000000000000000000000000000000000000000000000000000000\n      dup2\n      mstore\n      0x04\n      add\n      tag_219\n      swap1\n      tag_220\n      jump\t// in\n    tag_219:\n      mload(0x40)\n      dup1\n      swap2\n      sub\n      swap1\n      revert\n    tag_218:\n        /* \"contracts/ETH-AVX-DegenToken.sol\":1533:1534  0 */\n      0x00\n        /* \"contracts/ETH-AVX-DegenToken.sol\":1525:1530  stock */\n      dup2\n        /* \"contracts/ETH-AVX-DegenToken.sol\":1525:1534  stock > 0 */\n      gt\n        /* \"contracts/ETH-AVX-DegenToken.sol\":1517:1566  require(stock > 0, \"Stock should be more than 0\") */\n      tag_221\n      jumpi\n      mload(0x40)\n      0x08c379a000000000000000000000000000000000000000000000000000000000\n      dup2\n      mstore\n      0x04\n      add\n      tag_222\n      swap1\n      tag_223\n      jump\t// in\n    tag_222:\n      mload(0x40)\n      dup1\n      swap2\n      sub\n      swap1\n      revert\n    tag_221:\n        /* \"contracts/ETH-AVX-DegenToken.sol\":1576:1586  totalItems */\n      0x07\n      0x00\n        /* \"contracts/ETH-AVX-DegenToken.sol\":1576:1588  totalItems++ */\n      dup2\n      sload\n      dup1\n      swap3\n      swap2\n      swap1\n      tag_224\n      swap1\n      tag_185\n      jump\t// in\n    tag_224:\n      swap2\n      swap1\n      pop\n      sstore\n      pop\n        /* \"contracts/ETH-AVX-DegenToken.sol\":1631:1668  GameStoreItem(itemName, price, stock) */\n      mload(0x40)\n      dup1\n      0x60\n      add\n      0x40\n      mstore\n      dup1\n        /* \"contracts/ETH-AVX-DegenToken.sol\":1645:1653  itemName */\n      dup5\n        /* \"contracts/ETH-AVX-DegenToken.sol\":1631:1668  GameStoreItem(itemName, price, stock) */\n      dup2\n      mstore\n      0x20\n      add\n        /* \"contracts/ETH-AVX-DegenToken.sol\":1655:1660  price */\n      dup4\n        /* \"contracts/ETH-AVX-DegenToken.sol\":1631:1668  GameStoreItem(itemName, price, stock) */\n      dup2\n      mstore\n      0x20\n      add\n        /* \"contracts/ETH-AVX-DegenToken.sol\":1662:1667  stock */\n      dup3\n        /* \"contracts/ETH-AVX-DegenToken.sol\":1631:1668  GameStoreItem(itemName, price, stock) */\n      dup2\n      mstore\n      pop\n        /* \"contracts/ETH-AVX-DegenToken.sol\":1598:1616  gameStoreInventory */\n      0x06\n        /* \"contracts/ETH-AVX-DegenToken.sol\":1598:1628  gameStoreInventory[totalItems] */\n      0x00\n        /* \"contracts/ETH-AVX-DegenToken.sol\":1617:1627  totalItems */\n      sload(0x07)\n        /* \"contracts/ETH-AVX-DegenToken.sol\":1598:1628  gameStoreInventory[totalItems] */\n      dup2\n      mstore\n      0x20\n      add\n      swap1\n      dup2\n      mstore\n      0x20\n      add\n      0x00\n      keccak256\n        /* \"contracts/ETH-AVX-DegenToken.sol\":1598:1668  gameStoreInventory[totalItems] = GameStoreItem(itemName, price, stock) */\n      0x00\n      dup3\n      add\n      mload\n      dup2\n      0x00\n      add\n      swap1\n      dup2\n      tag_225\n      swap2\n      swap1\n      tag_226\n      jump\t// in\n    tag_225:\n      pop\n      0x20\n      dup3\n      add\n      mload\n      dup2\n      0x01\n      add\n      sstore\n      0x40\n      dup3\n      add\n      mload\n      dup2\n      0x02\n      add\n      sstore\n      swap1\n      pop\n      pop\n        /* \"contracts/ETH-AVX-DegenToken.sol\":1349:1675  function addItemToGameStore(string memory itemName, uint256 price, uint256 stock) public onlyOwner {... */\n      pop\n      pop\n      pop\n      jump\t// out\n        /* \"@openzeppelin/contracts/token/ERC20/ERC20.sol\":3987:4136  function allowance(address owner, address spender) public view virtual override returns (uint256) {... */\n    tag_107:\n        /* \"@openzeppelin/contracts/token/ERC20/ERC20.sol\":4076:4083  uint256 */\n      0x00\n        /* \"@openzeppelin/contracts/token/ERC20/ERC20.sol\":4102:4113  _allowances */\n      0x01\n        /* \"@openzeppelin/contracts/token/ERC20/ERC20.sol\":4102:4120  _allowances[owner] */\n      0x00\n        /* \"@openzeppelin/contracts/token/ERC20/ERC20.sol\":4114:4119  owner */\n      dup5\n        /* \"@openzeppelin/contracts/token/ERC20/ERC20.sol\":4102:4120  _allowances[owner] */\n      0xffffffffffffffffffffffffffffffffffffffff\n      and\n      0xffffffffffffffffffffffffffffffffffffffff\n      and\n      dup2\n      mstore\n      0x20\n      add\n      swap1\n      dup2\n      mstore\n      0x20\n      add\n      0x00\n      keccak256\n        /* \"@openzeppelin/contracts/token/ERC20/ERC20.sol\":4102:4129  _allowances[owner][spender] */\n      0x00\n        /* \"@openzeppelin/contracts/token/ERC20/ERC20.sol\":4121:4128  spender */\n      dup4\n        /* \"@openzeppelin/contracts/token/ERC20/ERC20.sol\":4102:4129  _allowances[owner][spender] */\n      0xffffffffffffffffffffffffffffffffffffffff\n      and\n      0xffffffffffffffffffffffffffffffffffffffff\n      and\n      dup2\n      mstore\n      0x20\n      add\n      swap1\n      dup2\n      mstore\n      0x20\n      add\n      0x00\n      keccak256\n      sload\n        /* \"@openzeppelin/contracts/token/ERC20/ERC20.sol\":4095:4129  return _allowances[owner][spender] */\n      swap1\n      pop\n        /* \"@openzeppelin/contracts/token/ERC20/ERC20.sol\":3987:4136  function allowance(address owner, address spender) public view virtual override returns (uint256) {... */\n      swap3\n      swap2\n      pop\n      pop\n      jump\t// out\n        /* \"contracts/ETH-AVX-DegenToken.sol\":1177:1343  function burnUserTokens(uint256 amount) public {... */\n    tag_111:\n        /* \"contracts/ETH-AVX-DegenToken.sol\":1267:1273  amount */\n      dup1\n        /* \"contracts/ETH-AVX-DegenToken.sol\":1242:1263  balanceOf(msg.sender) */\n      tag_229\n        /* \"contracts/ETH-AVX-DegenToken.sol\":1252:1262  msg.sender */\n      caller\n        /* \"contracts/ETH-AVX-DegenToken.sol\":1242:1251  balanceOf */\n      tag_81\n        /* \"contracts/ETH-AVX-DegenToken.sol\":1242:1263  balanceOf(msg.sender) */\n      jump\t// in\n    tag_229:\n        /* \"contracts/ETH-AVX-DegenToken.sol\":1242:1273  balanceOf(msg.sender) >= amount */\n      lt\n      iszero\n        /* \"contracts/ETH-AVX-DegenToken.sol\":1234:1301  require(balanceOf(msg.sender) >= amount, \"balance is Insufficient\") */\n      tag_230\n      jumpi\n      mload(0x40)\n      0x08c379a000000000000000000000000000000000000000000000000000000000\n      dup2\n      mstore\n      0x04\n      add\n      tag_231\n      swap1\n      tag_232\n      jump\t// in\n    tag_231:\n      mload(0x40)\n      dup1\n      swap2\n      sub\n      swap1\n      revert\n    tag_230:\n        /* \"contracts/ETH-AVX-DegenToken.sol\":1311:1336  _burn(msg.sender, amount) */\n      tag_233\n        /* \"contracts/ETH-AVX-DegenToken.sol\":1317:1327  msg.sender */\n      caller\n        /* \"contracts/ETH-AVX-DegenToken.sol\":1329:1335  amount */\n      dup3\n        /* \"contracts/ETH-AVX-DegenToken.sol\":1311:1316  _burn */\n      tag_129\n        /* \"contracts/ETH-AVX-DegenToken.sol\":1311:1336  _burn(msg.sender, amount) */\n      jump\t// in\n    tag_233:\n        /* \"contracts/ETH-AVX-DegenToken.sol\":1177:1343  function burnUserTokens(uint256 amount) public {... */\n      pop\n      jump\t// out\n        /* \"contracts/ETH-AVX-DegenToken.sol\":1978:2570  function redeemGameStoreItem(uint256 itemId) public {... */\n    tag_114:\n        /* \"contracts/ETH-AVX-DegenToken.sol\":2057:2058  0 */\n      0x00\n        /* \"contracts/ETH-AVX-DegenToken.sol\":2048:2054  itemId */\n      dup2\n        /* \"contracts/ETH-AVX-DegenToken.sol\":2048:2058  itemId > 0 */\n      gt\n        /* \"contracts/ETH-AVX-DegenToken.sol\":2048:2082  itemId > 0 && itemId <= totalItems */\n      dup1\n      iszero\n      tag_235\n      jumpi\n      pop\n        /* \"contracts/ETH-AVX-DegenToken.sol\":2072:2082  totalItems */\n      sload(0x07)\n        /* \"contracts/ETH-AVX-DegenToken.sol\":2062:2068  itemId */\n      dup2\n        /* \"contracts/ETH-AVX-DegenToken.sol\":2062:2082  itemId <= totalItems */\n      gt\n      iszero\n        /* \"contracts/ETH-AVX-DegenToken.sol\":2048:2082  itemId > 0 && itemId <= totalItems */\n    tag_235:\n        /* \"contracts/ETH-AVX-DegenToken.sol\":2040:2104  require(itemId > 0 && itemId <= totalItems, \"item ID not valid\") */\n      tag_236\n      jumpi\n      mload(0x40)\n      0x08c379a000000000000000000000000000000000000000000000000000000000\n      dup2\n      mstore\n      0x04\n      add\n      tag_237\n      swap1\n      tag_238\n      jump\t// in\n    tag_237:\n      mload(0x40)\n      dup1\n      swap2\n      sub\n      swap1\n      revert\n    tag_236:\n        /* \"contracts/ETH-AVX-DegenToken.sol\":2114:2140  GameStoreItem storage item */\n      0x00\n        /* \"contracts/ETH-AVX-DegenToken.sol\":2143:2161  gameStoreInventory */\n      0x06\n        /* \"contracts/ETH-AVX-DegenToken.sol\":2143:2169  gameStoreInventory[itemId] */\n      0x00\n        /* \"contracts/ETH-AVX-DegenToken.sol\":2162:2168  itemId */\n      dup4\n        /* \"contracts/ETH-AVX-DegenToken.sol\":2143:2169  gameStoreInventory[itemId] */\n      dup2\n      mstore\n      0x20\n      add\n      swap1\n      dup2\n      mstore\n      0x20\n      add\n      0x00\n      keccak256\n        /* \"contracts/ETH-AVX-DegenToken.sol\":2114:2169  GameStoreItem storage item = gameStoreInventory[itemId] */\n      swap1\n      pop\n        /* \"contracts/ETH-AVX-DegenToken.sol\":2204:2205  0 */\n      0x00\n        /* \"contracts/ETH-AVX-DegenToken.sol\":2187:2191  item */\n      dup2\n        /* \"contracts/ETH-AVX-DegenToken.sol\":2187:2201  item.itemStock */\n      0x02\n      add\n      sload\n        /* \"contracts/ETH-AVX-DegenToken.sol\":2187:2205  item.itemStock > 0 */\n      gt\n        /* \"contracts/ETH-AVX-DegenToken.sol\":2179:2247  require(item.itemStock > 0, \"Item is out of stock so not avaliable\") */\n      tag_239\n      jumpi\n      mload(0x40)\n      0x08c379a000000000000000000000000000000000000000000000000000000000\n      dup2\n      mstore\n      0x04\n      add\n      tag_240\n      swap1\n      tag_241\n      jump\t// in\n    tag_240:\n      mload(0x40)\n      dup1\n      swap2\n      sub\n      swap1\n      revert\n    tag_239:\n        /* \"contracts/ETH-AVX-DegenToken.sol\":2290:2294  item */\n      dup1\n        /* \"contracts/ETH-AVX-DegenToken.sol\":2290:2304  item.itemPrice */\n      0x01\n      add\n      sload\n        /* \"contracts/ETH-AVX-DegenToken.sol\":2265:2286  balanceOf(msg.sender) */\n      tag_242\n        /* \"contracts/ETH-AVX-DegenToken.sol\":2275:2285  msg.sender */\n      caller\n        /* \"contracts/ETH-AVX-DegenToken.sol\":2265:2274  balanceOf */\n      tag_81\n        /* \"contracts/ETH-AVX-DegenToken.sol\":2265:2286  balanceOf(msg.sender) */\n      jump\t// in\n    tag_242:\n        /* \"contracts/ETH-AVX-DegenToken.sol\":2265:2304  balanceOf(msg.sender) >= item.itemPrice */\n      lt\n      iszero\n        /* \"contracts/ETH-AVX-DegenToken.sol\":2257:2384  require(balanceOf(msg.sender) >= item.itemPrice, \"balance is not sufficient plese check you balance before making transaction\") */\n      tag_243\n      jumpi\n      mload(0x40)\n      0x08c379a000000000000000000000000000000000000000000000000000000000\n      dup2\n      mstore\n      0x04\n      add\n      tag_244\n      swap1\n      tag_245\n      jump\t// in\n    tag_244:\n      mload(0x40)\n      dup1\n      swap2\n      sub\n      swap1\n      revert\n    tag_243:\n        /* \"contracts/ETH-AVX-DegenToken.sol\":2395:2441  _transfer(msg.sender, owner(), item.itemPrice) */\n      tag_246\n        /* \"contracts/ETH-AVX-DegenToken.sol\":2405:2415  msg.sender */\n      caller\n        /* \"contracts/ETH-AVX-DegenToken.sol\":2417:2424  owner() */\n      tag_247\n        /* \"contracts/ETH-AVX-DegenToken.sol\":2417:2422  owner */\n      tag_86\n        /* \"contracts/ETH-AVX-DegenToken.sol\":2417:2424  owner() */\n      jump\t// in\n    tag_247:\n        /* \"contracts/ETH-AVX-DegenToken.sol\":2426:2430  item */\n      dup4\n        /* \"contracts/ETH-AVX-DegenToken.sol\":2426:2440  item.itemPrice */\n      0x01\n      add\n      sload\n        /* \"contracts/ETH-AVX-DegenToken.sol\":2395:2404  _transfer */\n      tag_148\n        /* \"contracts/ETH-AVX-DegenToken.sol\":2395:2441  _transfer(msg.sender, owner(), item.itemPrice) */\n      jump\t// in\n    tag_246:\n        /* \"contracts/ETH-AVX-DegenToken.sol\":2479:2512  _burn(msg.sender, item.itemPrice) */\n      tag_248\n        /* \"contracts/ETH-AVX-DegenToken.sol\":2485:2495  msg.sender */\n      caller\n        /* \"contracts/ETH-AVX-DegenToken.sol\":2497:2501  item */\n      dup3\n        /* \"contracts/ETH-AVX-DegenToken.sol\":2497:2511  item.itemPrice */\n      0x01\n      add\n      sload\n        /* \"contracts/ETH-AVX-DegenToken.sol\":2479:2484  _burn */\n      tag_129\n        /* \"contracts/ETH-AVX-DegenToken.sol\":2479:2512  _burn(msg.sender, item.itemPrice) */\n      jump\t// in\n    tag_248:\n        /* \"contracts/ETH-AVX-DegenToken.sol\":2547:2551  item */\n      dup1\n        /* \"contracts/ETH-AVX-DegenToken.sol\":2547:2561  item.itemStock */\n      0x02\n      add\n      0x00\n        /* \"contracts/ETH-AVX-DegenToken.sol\":2547:2563  item.itemStock-- */\n      dup2\n      sload\n      dup1\n      swap3\n      swap2\n      swap1\n      tag_249\n      swap1\n      tag_250\n      jump\t// in\n    tag_249:\n      swap2\n      swap1\n      pop\n      sstore\n      pop\n        /* \"contracts/ETH-AVX-DegenToken.sol\":2030:2570  {... */\n      pop\n        /* \"contracts/ETH-AVX-DegenToken.sol\":1978:2570  function redeemGameStoreItem(uint256 itemId) public {... */\n      pop\n      jump\t// out\n        /* \"@openzeppelin/contracts/access/Ownable.sol\":2074:2272  function transferOwnership(address newOwner) public virtual onlyOwner {... */\n    tag_117:\n        /* \"@openzeppelin/contracts/access/Ownable.sol\":1094:1107  _checkOwner() */\n      tag_252\n        /* \"@openzeppelin/contracts/access/Ownable.sol\":1094:1105  _checkOwner */\n      tag_188\n        /* \"@openzeppelin/contracts/access/Ownable.sol\":1094:1107  _checkOwner() */\n      jump\t// in\n    tag_252:\n        /* \"@openzeppelin/contracts/access/Ownable.sol\":2182:2183  0 */\n      0x00\n        /* \"@openzeppelin/contracts/access/Ownable.sol\":2162:2184  newOwner != address(0) */\n      0xffffffffffffffffffffffffffffffffffffffff\n      and\n        /* \"@openzeppelin/contracts/access/Ownable.sol\":2162:2170  newOwner */\n      dup2\n        /* \"@openzeppelin/contracts/access/Ownable.sol\":2162:2184  newOwner != address(0) */\n      0xffffffffffffffffffffffffffffffffffffffff\n      and\n      sub\n        /* \"@openzeppelin/contracts/access/Ownable.sol\":2154:2227  require(newOwner != address(0), \"Ownable: new owner is the zero address\") */\n      tag_254\n      jumpi\n      mload(0x40)\n      0x08c379a000000000000000000000000000000000000000000000000000000000\n      dup2\n      mstore\n      0x04\n      add\n      tag_255\n      swap1\n      tag_256\n      jump\t// in\n    tag_255:\n      mload(0x40)\n      dup1\n      swap2\n      sub\n      swap1\n      revert\n    tag_254:\n        /* \"@openzeppelin/contracts/access/Ownable.sol\":2237:2265  _transferOwnership(newOwner) */\n      tag_257\n        /* \"@openzeppelin/contracts/access/Ownable.sol\":2256:2264  newOwner */\n      dup2\n        /* \"@openzeppelin/contracts/access/Ownable.sol\":2237:2255  _transferOwnership */\n      tag_197\n        /* \"@openzeppelin/contracts/access/Ownable.sol\":2237:2265  _transferOwnership(newOwner) */\n      jump\t// in\n    tag_257:\n        /* \"@openzeppelin/contracts/access/Ownable.sol\":2074:2272  function transferOwnership(address newOwner) public virtual onlyOwner {... */\n      pop\n      jump\t// out\n        /* \"contracts/ETH-AVX-DegenToken.sol\":359:418  mapping(uint256 => GameStoreItem) public gameStoreInventory */\n    tag_120:\n      mstore(0x20, 0x06)\n      dup1\n      0x00\n      mstore\n      keccak256(0x00, 0x40)\n      0x00\n      swap2\n      pop\n      swap1\n      pop\n      dup1\n      0x00\n      add\n      dup1\n      sload\n      tag_258\n      swap1\n      tag_132\n      jump\t// in\n    tag_258:\n      dup1\n      0x1f\n      add\n      0x20\n      dup1\n      swap2\n      div\n      mul\n      0x20\n      add\n      mload(0x40)\n      swap1\n      dup2\n      add\n      0x40\n      mstore\n      dup1\n      swap3\n      swap2\n      swap1\n      dup2\n      dup2\n      mstore\n      0x20\n      add\n      dup3\n      dup1\n      sload\n      tag_259\n      swap1\n      tag_132\n      jump\t// in\n    tag_259:\n      dup1\n      iszero\n      tag_260\n      jumpi\n      dup1\n      0x1f\n      lt\n      tag_261\n      jumpi\n      0x0100\n      dup1\n      dup4\n      sload\n      div\n      mul\n      dup4\n      mstore\n      swap2\n      0x20\n      add\n      swap2\n      jump(tag_260)\n    tag_261:\n      dup3\n      add\n      swap2\n      swap1\n      0x00\n      mstore\n      keccak256(0x00, 0x20)\n      swap1\n    tag_262:\n      dup2\n      sload\n      dup2\n      mstore\n      swap1\n      0x01\n      add\n      swap1\n      0x20\n      add\n      dup1\n      dup4\n      gt\n      tag_262\n      jumpi\n      dup3\n      swap1\n      sub\n      0x1f\n      and\n      dup3\n      add\n      swap2\n    tag_260:\n      pop\n      pop\n      pop\n      pop\n      pop\n      swap1\n      dup1\n      0x01\n      add\n      sload\n      swap1\n      dup1\n      0x02\n      add\n      sload\n      swap1\n      pop\n      dup4\n      jump\t// out\n        /* \"@openzeppelin/contracts/token/ERC20/ERC20.sol\":9375:10034  function _burn(address account, uint256 amount) internal virtual {... */\n    tag_129:\n        /* \"@openzeppelin/contracts/token/ERC20/ERC20.sol\":9477:9478  0 */\n      0x00\n        /* \"@openzeppelin/contracts/token/ERC20/ERC20.sol\":9458:9479  account != address(0) */\n      0xffffffffffffffffffffffffffffffffffffffff\n      and\n        /* \"@openzeppelin/contracts/token/ERC20/ERC20.sol\":9458:9465  account */\n      dup3\n        /* \"@openzeppelin/contracts/token/ERC20/ERC20.sol\":9458:9479  account != address(0) */\n      0xffffffffffffffffffffffffffffffffffffffff\n      and\n      sub\n        /* \"@openzeppelin/contracts/token/ERC20/ERC20.sol\":9450:9517  require(account != address(0), \"ERC20: burn from the zero address\") */\n      tag_264\n      jumpi\n      mload(0x40)\n      0x08c379a000000000000000000000000000000000000000000000000000000000\n      dup2\n      mstore\n      0x04\n      add\n      tag_265\n      swap1\n      tag_266\n      jump\t// in\n    tag_265:\n      mload(0x40)\n      dup1\n      swap2\n      sub\n      swap1\n      revert\n    tag_264:\n        /* \"@openzeppelin/contracts/token/ERC20/ERC20.sol\":9528:9577  _beforeTokenTransfer(account, address(0), amount) */\n      tag_267\n        /* \"@openzeppelin/contracts/token/ERC20/ERC20.sol\":9549:9556  account */\n      dup3\n        /* \"@openzeppelin/contracts/token/ERC20/ERC20.sol\":9566:9567  0 */\n      0x00\n        /* \"@openzeppelin/contracts/token/ERC20/ERC20.sol\":9570:9576  amount */\n      dup4\n        /* \"@openzeppelin/contracts/token/ERC20/ERC20.sol\":9528:9548  _beforeTokenTransfer */\n      tag_268\n        /* \"@openzeppelin/contracts/token/ERC20/ERC20.sol\":9528:9577  _beforeTokenTransfer(account, address(0), amount) */\n      jump\t// in\n    tag_267:\n        /* \"@openzeppelin/contracts/token/ERC20/ERC20.sol\":9588:9610  uint256 accountBalance */\n      0x00\n        /* \"@openzeppelin/contracts/token/ERC20/ERC20.sol\":9613:9622  _balances */\n      dup1\n        /* \"@openzeppelin/contracts/token/ERC20/ERC20.sol\":9613:9631  _balances[account] */\n      0x00\n        /* \"@openzeppelin/contracts/token/ERC20/ERC20.sol\":9623:9630  account */\n      dup5\n        /* \"@openzeppelin/contracts/token/ERC20/ERC20.sol\":9613:9631  _balances[account] */\n      0xffffffffffffffffffffffffffffffffffffffff\n      and\n      0xffffffffffffffffffffffffffffffffffffffff\n      and\n      dup2\n      mstore\n      0x20\n      add\n      swap1\n      dup2\n      mstore\n      0x20\n      add\n      0x00\n      keccak256\n      sload\n        /* \"@openzeppelin/contracts/token/ERC20/ERC20.sol\":9588:9631  uint256 accountBalance = _balances[account] */\n      swap1\n      pop\n        /* \"@openzeppelin/contracts/token/ERC20/ERC20.sol\":9667:9673  amount */\n      dup2\n        /* \"@openzeppelin/contracts/token/ERC20/ERC20.sol\":9649:9663  accountBalance */\n      dup2\n        /* \"@openzeppelin/contracts/token/ERC20/ERC20.sol\":9649:9673  accountBalance >= amount */\n      lt\n      iszero\n        /* \"@openzeppelin/contracts/token/ERC20/ERC20.sol\":9641:9712  require(accountBalance >= amount, \"ERC20: burn amount exceeds balance\") */\n      tag_269\n      jumpi\n      mload(0x40)\n      0x08c379a000000000000000000000000000000000000000000000000000000000\n      dup2\n      mstore\n      0x04\n      add\n      tag_270\n      swap1\n      tag_271\n      jump\t// in\n    tag_270:\n      mload(0x40)\n      dup1\n      swap2\n      sub\n      swap1\n      revert\n    tag_269:\n        /* \"@openzeppelin/contracts/token/ERC20/ERC20.sol\":9784:9790  amount */\n      dup2\n        /* \"@openzeppelin/contracts/token/ERC20/ERC20.sol\":9767:9781  accountBalance */\n      dup2\n        /* \"@openzeppelin/contracts/token/ERC20/ERC20.sol\":9767:9790  accountBalance - amount */\n      sub\n        /* \"@openzeppelin/contracts/token/ERC20/ERC20.sol\":9746:9755  _balances */\n      0x00\n        /* \"@openzeppelin/contracts/token/ERC20/ERC20.sol\":9746:9764  _balances[account] */\n      dup1\n        /* \"@openzeppelin/contracts/token/ERC20/ERC20.sol\":9756:9763  account */\n      dup6\n        /* \"@openzeppelin/contracts/token/ERC20/ERC20.sol\":9746:9764  _balances[account] */\n      0xffffffffffffffffffffffffffffffffffffffff\n      and\n      0xffffffffffffffffffffffffffffffffffffffff\n      and\n      dup2\n      mstore\n      0x20\n      add\n      swap1\n      dup2\n      mstore\n      0x20\n      add\n      0x00\n      keccak256\n        /* \"@openzeppelin/contracts/token/ERC20/ERC20.sol\":9746:9790  _balances[account] = accountBalance - amount */\n      dup2\n      swap1\n      sstore\n      pop\n        /* \"@openzeppelin/contracts/token/ERC20/ERC20.sol\":9899:9905  amount */\n      dup2\n        /* \"@openzeppelin/contracts/token/ERC20/ERC20.sol\":9883:9895  _totalSupply */\n      0x02\n      0x00\n        /* \"@openzeppelin/contracts/token/ERC20/ERC20.sol\":9883:9905  _totalSupply -= amount */\n      dup3\n      dup3\n      sload\n      sub\n      swap3\n      pop\n      pop\n      dup2\n      swap1\n      sstore\n      pop\n        /* \"@openzeppelin/contracts/token/ERC20/ERC20.sol\":9957:9958  0 */\n      0x00\n        /* \"@openzeppelin/contracts/token/ERC20/ERC20.sol\":9931:9968  Transfer(account, address(0), amount) */\n      0xffffffffffffffffffffffffffffffffffffffff\n      and\n        /* \"@openzeppelin/contracts/token/ERC20/ERC20.sol\":9940:9947  account */\n      dup4\n        /* \"@openzeppelin/contracts/token/ERC20/ERC20.sol\":9931:9968  Transfer(account, address(0), amount) */\n      0xffffffffffffffffffffffffffffffffffffffff\n      and\n      0xddf252ad1be2c89b69c2b068fc378daa952ba7f163c4a11628f55a4df523b3ef\n        /* \"@openzeppelin/contracts/token/ERC20/ERC20.sol\":9961:9967  amount */\n      dup5\n        /* \"@openzeppelin/contracts/token/ERC20/ERC20.sol\":9931:9968  Transfer(account, address(0), amount) */\n      mload(0x40)\n      tag_272\n      swap2\n      swap1\n      tag_47\n      jump\t// in\n    tag_272:\n      mload(0x40)\n      dup1\n      swap2\n      sub\n      swap1\n      log3\n        /* \"@openzeppelin/contracts/token/ERC20/ERC20.sol\":9979:10027  _afterTokenTransfer(account, address(0), amount) */\n      tag_273\n        /* \"@openzeppelin/contracts/token/ERC20/ERC20.sol\":9999:10006  account */\n      dup4\n        /* \"@openzeppelin/contracts/token/ERC20/ERC20.sol\":10016:10017  0 */\n      0x00\n        /* \"@openzeppelin/contracts/token/ERC20/ERC20.sol\":10020:10026  amount */\n      dup5\n        /* \"@openzeppelin/contracts/token/ERC20/ERC20.sol\":9979:9998  _afterTokenTransfer */\n      tag_274\n        /* \"@openzeppelin/contracts/token/ERC20/ERC20.sol\":9979:10027  _afterTokenTransfer(account, address(0), amount) */\n      jump\t// in\n    tag_273:\n        /* \"@openzeppelin/contracts/token/ERC20/ERC20.sol\":9440:10034  {... */\n      pop\n        /* \"@openzeppelin/contracts/token/ERC20/ERC20.sol\":9375:10034  function _burn(address account, uint256 amount) internal virtual {... */\n      pop\n      pop\n      jump\t// out\n        /* \"@openzeppelin/contracts/utils/Context.sol\":640:736  function _msgSender() internal view virtual returns (address) {... */\n    tag_139:\n        /* \"@openzeppelin/contracts/utils/Context.sol\":693:700  address */\n      0x00\n        /* \"@openzeppelin/contracts/utils/Context.sol\":719:729  msg.sender */\n      caller\n        /* \"@openzeppelin/contracts/utils/Context.sol\":712:729  return msg.sender */\n      swap1\n      pop\n        /* \"@openzeppelin/contracts/utils/Context.sol\":640:736  function _msgSender() internal view virtual returns (address) {... */\n      swap1\n      jump\t// out\n        /* \"@openzeppelin/contracts/token/ERC20/ERC20.sol\":10457:10797  function _approve(address owner, address spender, uint256 amount) internal virtual {... */\n    tag_141:\n        /* \"@openzeppelin/contracts/token/ERC20/ERC20.sol\":10575:10576  0 */\n      0x00\n        /* \"@openzeppelin/contracts/token/ERC20/ERC20.sol\":10558:10577  owner != address(0) */\n      0xffffffffffffffffffffffffffffffffffffffff\n      and\n        /* \"@openzeppelin/contracts/token/ERC20/ERC20.sol\":10558:10563  owner */\n      dup4\n        /* \"@openzeppelin/contracts/token/ERC20/ERC20.sol\":10558:10577  owner != address(0) */\n      0xffffffffffffffffffffffffffffffffffffffff\n      and\n      sub\n        /* \"@openzeppelin/contracts/token/ERC20/ERC20.sol\":10550:10618  require(owner != address(0), \"ERC20: approve from the zero address\") */\n      tag_277\n      jumpi\n      mload(0x40)\n      0x08c379a000000000000000000000000000000000000000000000000000000000\n      dup2\n      mstore\n      0x04\n      add\n      tag_278\n      swap1\n      tag_279\n      jump\t// in\n    tag_278:\n      mload(0x40)\n      dup1\n      swap2\n      sub\n      swap1\n      revert\n    tag_277:\n        /* \"@openzeppelin/contracts/token/ERC20/ERC20.sol\":10655:10656  0 */\n      0x00\n        /* \"@openzeppelin/contracts/token/ERC20/ERC20.sol\":10636:10657  spender != address(0) */\n      0xffffffffffffffffffffffffffffffffffffffff\n      and\n        /* \"@openzeppelin/contracts/token/ERC20/ERC20.sol\":10636:10643  spender */\n      dup3\n        /* \"@openzeppelin/contracts/token/ERC20/ERC20.sol\":10636:10657  spender != address(0) */\n      0xffffffffffffffffffffffffffffffffffffffff\n      and\n      sub\n        /* \"@openzeppelin/contracts/token/ERC20/ERC20.sol\":10628:10696  require(spender != address(0), \"ERC20: approve to the zero address\") */\n      tag_280\n      jumpi\n      mload(0x40)\n      0x08c379a000000000000000000000000000000000000000000000000000000000\n      dup2\n      mstore\n      0x04\n      add\n      tag_281\n      swap1\n      tag_282\n      jump\t// in\n    tag_281:\n      mload(0x40)\n      dup1\n      swap2\n      sub\n      swap1\n      revert\n    tag_280:\n        /* \"@openzeppelin/contracts/token/ERC20/ERC20.sol\":10737:10743  amount */\n      dup1\n        /* \"@openzeppelin/contracts/token/ERC20/ERC20.sol\":10707:10718  _allowances */\n      0x01\n        /* \"@openzeppelin/contracts/token/ERC20/ERC20.sol\":10707:10725  _allowances[owner] */\n      0x00\n        /* \"@openzeppelin/contracts/token/ERC20/ERC20.sol\":10719:10724  owner */\n      dup6\n        /* \"@openzeppelin/contracts/token/ERC20/ERC20.sol\":10707:10725  _allowances[owner] */\n      0xffffffffffffffffffffffffffffffffffffffff\n      and\n      0xffffffffffffffffffffffffffffffffffffffff\n      and\n      dup2\n      mstore\n      0x20\n      add\n      swap1\n      dup2\n      mstore\n      0x20\n      add\n      0x00\n      keccak256\n        /* \"@openzeppelin/contracts/token/ERC20/ERC20.sol\":10707:10734  _allowances[owner][spender] */\n      0x00\n        /* \"@openzeppelin/contracts/token/ERC20/ERC20.sol\":10726:10733  spender */\n      dup5\n        /* \"@openzeppelin/contracts/token/ERC20/ERC20.sol\":10707:10734  _allowances[owner][spender] */\n      0xffffffffffffffffffffffffffffffffffffffff\n      and\n      0xffffffffffffffffffffffffffffffffffffffff\n      and\n      dup2\n      mstore\n      0x20\n      add\n      swap1\n      dup2\n      mstore\n      0x20\n      add\n      0x00\n      keccak256\n        /* \"@openzeppelin/contracts/token/ERC20/ERC20.sol\":10707:10743  _allowances[owner][spender] = amount */\n      dup2\n      swap1\n      sstore\n      pop\n        /* \"@openzeppelin/contracts/token/ERC20/ERC20.sol\":10774:10781  spender */\n      dup2\n        /* \"@openzeppelin/contracts/token/ERC20/ERC20.sol\":10758:10790  Approval(owner, spender, amount) */\n      0xffffffffffffffffffffffffffffffffffffffff\n      and\n        /* \"@openzeppelin/contracts/token/ERC20/ERC20.sol\":10767:10772  owner */\n      dup4\n        /* \"@openzeppelin/contracts/token/ERC20/ERC20.sol\":10758:10790  Approval(owner, spender, amount) */\n      0xffffffffffffffffffffffffffffffffffffffff\n      and\n      0x8c5be1e5ebec7d5bd14f71427d1e84f3dd0314c0f7b2291e5b200ac8c7c3b925\n        /* \"@openzeppelin/contracts/token/ERC20/ERC20.sol\":10783:10789  amount */\n      dup4\n        /* \"@openzeppelin/contracts/token/ERC20/ERC20.sol\":10758:10790  Approval(owner, spender, amount) */\n      mload(0x40)\n      tag_283\n      swap2\n      swap1\n      tag_47\n      jump\t// in\n    tag_283:\n      mload(0x40)\n      dup1\n      swap2\n      sub\n      swap1\n      log3\n        /* \"@openzeppelin/contracts/token/ERC20/ERC20.sol\":10457:10797  function _approve(address owner, address spender, uint256 amount) internal virtual {... */\n      pop\n      pop\n      pop\n      jump\t// out\n        /* \"@openzeppelin/contracts/token/ERC20/ERC20.sol\":11078:11489  function _spendAllowance(address owner, address spender, uint256 amount) internal virtual {... */\n    tag_146:\n        /* \"@openzeppelin/contracts/token/ERC20/ERC20.sol\":11178:11202  uint256 currentAllowance */\n      0x00\n        /* \"@openzeppelin/contracts/token/ERC20/ERC20.sol\":11205:11230  allowance(owner, spender) */\n      tag_285\n        /* \"@openzeppelin/contracts/token/ERC20/ERC20.sol\":11215:11220  owner */\n      dup5\n        /* \"@openzeppelin/contracts/token/ERC20/ERC20.sol\":11222:11229  spender */\n      dup5\n        /* \"@openzeppelin/contracts/token/ERC20/ERC20.sol\":11205:11214  allowance */\n      tag_107\n        /* \"@openzeppelin/contracts/token/ERC20/ERC20.sol\":11205:11230  allowance(owner, spender) */\n      jump\t// in\n    tag_285:\n        /* \"@openzeppelin/contracts/token/ERC20/ERC20.sol\":11178:11230  uint256 currentAllowance = allowance(owner, spender) */\n      swap1\n      pop\n        /* \"@openzeppelin/contracts/token/ERC20/ERC20.sol\":11264:11281  type(uint256).max */\n      0xffffffffffffffffffffffffffffffffffffffffffffffffffffffffffffffff\n        /* \"@openzeppelin/contracts/token/ERC20/ERC20.sol\":11244:11260  currentAllowance */\n      dup2\n        /* \"@openzeppelin/contracts/token/ERC20/ERC20.sol\":11244:11281  currentAllowance != type(uint256).max */\n      eq\n        /* \"@openzeppelin/contracts/token/ERC20/ERC20.sol\":11240:11483  if (currentAllowance != type(uint256).max) {... */\n      tag_286\n      jumpi\n        /* \"@openzeppelin/contracts/token/ERC20/ERC20.sol\":11325:11331  amount */\n      dup2\n        /* \"@openzeppelin/contracts/token/ERC20/ERC20.sol\":11305:11321  currentAllowance */\n      dup2\n        /* \"@openzeppelin/contracts/token/ERC20/ERC20.sol\":11305:11331  currentAllowance >= amount */\n      lt\n      iszero\n        /* \"@openzeppelin/contracts/token/ERC20/ERC20.sol\":11297:11365  require(currentAllowance >= amount, \"ERC20: insufficient allowance\") */\n      tag_287\n      jumpi\n      mload(0x40)\n      0x08c379a000000000000000000000000000000000000000000000000000000000\n      dup2\n      mstore\n      0x04\n      add\n      tag_288\n      swap1\n      tag_289\n      jump\t// in\n    tag_288:\n      mload(0x40)\n      dup1\n      swap2\n      sub\n      swap1\n      revert\n    tag_287:\n        /* \"@openzeppelin/contracts/token/ERC20/ERC20.sol\":11407:11458  _approve(owner, spender, currentAllowance - amount) */\n      tag_290\n        /* \"@openzeppelin/contracts/token/ERC20/ERC20.sol\":11416:11421  owner */\n      dup5\n        /* \"@openzeppelin/contracts/token/ERC20/ERC20.sol\":11423:11430  spender */\n      dup5\n        /* \"@openzeppelin/contracts/token/ERC20/ERC20.sol\":11451:11457  amount */\n      dup5\n        /* \"@openzeppelin/contracts/token/ERC20/ERC20.sol\":11432:11448  currentAllowance */\n      dup5\n        /* \"@openzeppelin/contracts/token/ERC20/ERC20.sol\":11432:11457  currentAllowance - amount */\n      sub\n        /* \"@openzeppelin/contracts/token/ERC20/ERC20.sol\":11407:11415  _approve */\n      tag_141\n        /* \"@openzeppelin/contracts/token/ERC20/ERC20.sol\":11407:11458  _approve(owner, spender, currentAllowance - amount) */\n      jump\t// in\n    tag_290:\n        /* \"@openzeppelin/contracts/token/ERC20/ERC20.sol\":11240:11483  if (currentAllowance != type(uint256).max) {... */\n    tag_286:\n        /* \"@openzeppelin/contracts/token/ERC20/ERC20.sol\":11168:11489  {... */\n      pop\n        /* \"@openzeppelin/contracts/token/ERC20/ERC20.sol\":11078:11489  function _spendAllowance(address owner, address spender, uint256 amount) internal virtual {... */\n      pop\n      pop\n      pop\n      jump\t// out\n        /* \"@openzeppelin/contracts/token/ERC20/ERC20.sol\":7456:8244  function _transfer(address from, address to, uint256 amount) internal virtual {... */\n    tag_148:\n        /* \"@openzeppelin/contracts/token/ERC20/ERC20.sol\":7568:7569  0 */\n      0x00\n        /* \"@openzeppelin/contracts/token/ERC20/ERC20.sol\":7552:7570  from != address(0) */\n      0xffffffffffffffffffffffffffffffffffffffff\n      and\n        /* \"@openzeppelin/contracts/token/ERC20/ERC20.sol\":7552:7556  from */\n      dup4\n        /* \"@openzeppelin/contracts/token/ERC20/ERC20.sol\":7552:7570  from != address(0) */\n      0xffffffffffffffffffffffffffffffffffffffff\n      and\n      sub\n        /* \"@openzeppelin/contracts/token/ERC20/ERC20.sol\":7544:7612  require(from != address(0), \"ERC20: transfer from the zero address\") */\n      tag_292\n      jumpi\n      mload(0x40)\n      0x08c379a000000000000000000000000000000000000000000000000000000000\n      dup2\n      mstore\n      0x04\n      add\n      tag_293\n      swap1\n      tag_294\n      jump\t// in\n    tag_293:\n      mload(0x40)\n      dup1\n      swap2\n      sub\n      swap1\n      revert\n    tag_292:\n        /* \"@openzeppelin/contracts/token/ERC20/ERC20.sol\":7644:7645  0 */\n      0x00\n        /* \"@openzeppelin/contracts/token/ERC20/ERC20.sol\":7630:7646  to != address(0) */\n      0xffffffffffffffffffffffffffffffffffffffff\n      and\n        /* \"@openzeppelin/contracts/token/ERC20/ERC20.sol\":7630:7632  to */\n      dup3\n        /* \"@openzeppelin/contracts/token/ERC20/ERC20.sol\":7630:7646  to != address(0) */\n      0xffffffffffffffffffffffffffffffffffffffff\n      and\n      sub\n        /* \"@openzeppelin/contracts/token/ERC20/ERC20.sol\":7622:7686  require(to != address(0), \"ERC20: transfer to the zero address\") */\n      tag_295\n      jumpi\n      mload(0x40)\n      0x08c379a000000000000000000000000000000000000000000000000000000000\n      dup2\n      mstore\n      0x04\n      add\n      tag_296\n      swap1\n      tag_297\n      jump\t// in\n    tag_296:\n      mload(0x40)\n      dup1\n      swap2\n      sub\n      swap1\n      revert\n    tag_295:\n        /* \"@openzeppelin/contracts/token/ERC20/ERC20.sol\":7697:7735  _beforeTokenTransfer(from, to, amount) */\n      tag_298\n        /* \"@openzeppelin/contracts/token/ERC20/ERC20.sol\":7718:7722  from */\n      dup4\n        /* \"@openzeppelin/contracts/token/ERC20/ERC20.sol\":7724:7726  to */\n      dup4\n        /* \"@openzeppelin/contracts/token/ERC20/ERC20.sol\":7728:7734  amount */\n      dup4\n        /* \"@openzeppelin/contracts/token/ERC20/ERC20.sol\":7697:7717  _beforeTokenTransfer */\n      tag_268\n        /* \"@openzeppelin/contracts/token/ERC20/ERC20.sol\":7697:7735  _beforeTokenTransfer(from, to, amount) */\n      jump\t// in\n    tag_298:\n        /* \"@openzeppelin/contracts/token/ERC20/ERC20.sol\":7746:7765  uint256 fromBalance */\n      0x00\n        /* \"@openzeppelin/contracts/token/ERC20/ERC20.sol\":7768:7777  _balances */\n      dup1\n        /* \"@openzeppelin/contracts/token/ERC20/ERC20.sol\":7768:7783  _balances[from] */\n      0x00\n        /* \"@openzeppelin/contracts/token/ERC20/ERC20.sol\":7778:7782  from */\n      dup6\n        /* \"@openzeppelin/contracts/token/ERC20/ERC20.sol\":7768:7783  _balances[from] */\n      0xffffffffffffffffffffffffffffffffffffffff\n      and\n      0xffffffffffffffffffffffffffffffffffffffff\n      and\n      dup2\n      mstore\n      0x20\n      add\n      swap1\n      dup2\n      mstore\n      0x20\n      add\n      0x00\n      keccak256\n      sload\n        /* \"@openzeppelin/contracts/token/ERC20/ERC20.sol\":7746:7783  uint256 fromBalance = _balances[from] */\n      swap1\n      pop\n        /* \"@openzeppelin/contracts/token/ERC20/ERC20.sol\":7816:7822  amount */\n      dup2\n        /* \"@openzeppelin/contracts/token/ERC20/ERC20.sol\":7801:7812  fromBalance */\n      dup2\n        /* \"@openzeppelin/contracts/token/ERC20/ERC20.sol\":7801:7822  fromBalance >= amount */\n      lt\n      iszero\n        /* \"@openzeppelin/contracts/token/ERC20/ERC20.sol\":7793:7865  require(fromBalance >= amount, \"ERC20: transfer amount exceeds balance\") */\n      tag_299\n      jumpi\n      mload(0x40)\n      0x08c379a000000000000000000000000000000000000000000000000000000000\n      dup2\n      mstore\n      0x04\n      add\n      tag_300\n      swap1\n      tag_301\n      jump\t// in\n    tag_300:\n      mload(0x40)\n      dup1\n      swap2\n      sub\n      swap1\n      revert\n    tag_299:\n        /* \"@openzeppelin/contracts/token/ERC20/ERC20.sol\":7931:7937  amount */\n      dup2\n        /* \"@openzeppelin/contracts/token/ERC20/ERC20.sol\":7917:7928  fromBalance */\n      dup2\n        /* \"@openzeppelin/contracts/token/ERC20/ERC20.sol\":7917:7937  fromBalance - amount */\n      sub\n        /* \"@openzeppelin/contracts/token/ERC20/ERC20.sol\":7899:7908  _balances */\n      0x00\n        /* \"@openzeppelin/contracts/token/ERC20/ERC20.sol\":7899:7914  _balances[from] */\n      dup1\n        /* \"@openzeppelin/contracts/token/ERC20/ERC20.sol\":7909:7913  from */\n      dup7\n        /* \"@openzeppelin/contracts/token/ERC20/ERC20.sol\":7899:7914  _balances[from] */\n      0xffffffffffffffffffffffffffffffffffffffff\n      and\n      0xffffffffffffffffffffffffffffffffffffffff\n      and\n      dup2\n      mstore\n      0x20\n      add\n      swap1\n      dup2\n      mstore\n      0x20\n      add\n      0x00\n      keccak256\n        /* \"@openzeppelin/contracts/token/ERC20/ERC20.sol\":7899:7937  _balances[from] = fromBalance - amount */\n      dup2\n      swap1\n      sstore\n      pop\n        /* \"@openzeppelin/contracts/token/ERC20/ERC20.sol\":8131:8137  amount */\n      dup2\n        /* \"@openzeppelin/contracts/token/ERC20/ERC20.sol\":8114:8123  _balances */\n      0x00\n        /* \"@openzeppelin/contracts/token/ERC20/ERC20.sol\":8114:8127  _balances[to] */\n      dup1\n        /* \"@openzeppelin/contracts/token/ERC20/ERC20.sol\":8124:8126  to */\n      dup6\n        /* \"@openzeppelin/contracts/token/ERC20/ERC20.sol\":8114:8127  _balances[to] */\n      0xffffffffffffffffffffffffffffffffffffffff\n      and\n      0xffffffffffffffffffffffffffffffffffffffff\n      and\n      dup2\n      mstore\n      0x20\n      add\n      swap1\n      dup2\n      mstore\n      0x20\n      add\n      0x00\n      keccak256\n      0x00\n        /* \"@openzeppelin/contracts/token/ERC20/ERC20.sol\":8114:8137  _balances[to] += amount */\n      dup3\n      dup3\n      sload\n      add\n      swap3\n      pop\n      pop\n      dup2\n      swap1\n      sstore\n      pop\n        /* \"@openzeppelin/contracts/token/ERC20/ERC20.sol\":8178:8180  to */\n      dup3\n        /* \"@openzeppelin/contracts/token/ERC20/ERC20.sol\":8163:8189  Transfer(from, to, amount) */\n      0xffffffffffffffffffffffffffffffffffffffff\n      and\n        /* \"@openzeppelin/contracts/token/ERC20/ERC20.sol\":8172:8176  from */\n      dup5\n        /* \"@openzeppelin/contracts/token/ERC20/ERC20.sol\":8163:8189  Transfer(from, to, amount) */\n      0xffffffffffffffffffffffffffffffffffffffff\n      and\n      0xddf252ad1be2c89b69c2b068fc378daa952ba7f163c4a11628f55a4df523b3ef\n        /* \"@openzeppelin/contracts/token/ERC20/ERC20.sol\":8182:8188  amount */\n      dup5\n        /* \"@openzeppelin/contracts/token/ERC20/ERC20.sol\":8163:8189  Transfer(from, to, amount) */\n      mload(0x40)\n      tag_302\n      swap2\n      swap1\n      tag_47\n      jump\t// in\n    tag_302:\n      mload(0x40)\n      dup1\n      swap2\n      sub\n      swap1\n      log3\n        /* \"@openzeppelin/contracts/token/ERC20/ERC20.sol\":8200:8237  _afterTokenTransfer(from, to, amount) */\n      tag_303\n        /* \"@openzeppelin/contracts/token/ERC20/ERC20.sol\":8220:8224  from */\n      dup5\n        /* \"@openzeppelin/contracts/token/ERC20/ERC20.sol\":8226:8228  to */\n      dup5\n        /* \"@openzeppelin/contracts/token/ERC20/ERC20.sol\":8230:8236  amount */\n      dup5\n        /* \"@openzeppelin/contracts/token/ERC20/ERC20.sol\":8200:8219  _afterTokenTransfer */\n      tag_274\n        /* \"@openzeppelin/contracts/token/ERC20/ERC20.sol\":8200:8237  _afterTokenTransfer(from, to, amount) */\n      jump\t// in\n    tag_303:\n        /* \"@openzeppelin/contracts/token/ERC20/ERC20.sol\":7534:8244  {... */\n      pop\n        /* \"@openzeppelin/contracts/token/ERC20/ERC20.sol\":7456:8244  function _transfer(address from, address to, uint256 amount) internal virtual {... */\n      pop\n      pop\n      pop\n      jump\t// out\n        /* \"@openzeppelin/contracts/access/Ownable.sol\":1359:1489  function _checkOwner() internal view virtual {... */\n    tag_188:\n        /* \"@openzeppelin/contracts/access/Ownable.sol\":1433:1445  _msgSender() */\n      tag_305\n        /* \"@openzeppelin/contracts/access/Ownable.sol\":1433:1443  _msgSender */\n      tag_139\n        /* \"@openzeppelin/contracts/access/Ownable.sol\":1433:1445  _msgSender() */\n      jump\t// in\n    tag_305:\n        /* \"@openzeppelin/contracts/access/Ownable.sol\":1422:1445  owner() == _msgSender() */\n      0xffffffffffffffffffffffffffffffffffffffff\n      and\n        /* \"@openzeppelin/contracts/access/Ownable.sol\":1422:1429  owner() */\n      tag_306\n        /* \"@openzeppelin/contracts/access/Ownable.sol\":1422:1427  owner */\n      tag_86\n        /* \"@openzeppelin/contracts/access/Ownable.sol\":1422:1429  owner() */\n      jump\t// in\n    tag_306:\n        /* \"@openzeppelin/contracts/access/Ownable.sol\":1422:1445  owner() == _msgSender() */\n      0xffffffffffffffffffffffffffffffffffffffff\n      and\n      eq\n        /* \"@openzeppelin/contracts/access/Ownable.sol\":1414:1482  require(owner() == _msgSender(), \"Ownable: caller is not the owner\") */\n      tag_307\n      jumpi\n      mload(0x40)\n      0x08c379a000000000000000000000000000000000000000000000000000000000\n      dup2\n      mstore\n      0x04\n      add\n      tag_308\n      swap1\n      tag_309\n      jump\t// in\n    tag_308:\n      mload(0x40)\n      dup1\n      swap2\n      sub\n      swap1\n      revert\n    tag_307:\n        /* \"@openzeppelin/contracts/access/Ownable.sol\":1359:1489  function _checkOwner() internal view virtual {... */\n      jump\t// out\n        /* \"@openzeppelin/contracts/token/ERC20/ERC20.sol\":8520:9055  function _mint(address account, uint256 amount) internal virtual {... */\n    tag_191:\n        /* \"@openzeppelin/contracts/token/ERC20/ERC20.sol\":8622:8623  0 */\n      0x00\n        /* \"@openzeppelin/contracts/token/ERC20/ERC20.sol\":8603:8624  account != address(0) */\n      0xffffffffffffffffffffffffffffffffffffffff\n      and\n        /* \"@openzeppelin/contracts/token/ERC20/ERC20.sol\":8603:8610  account */\n      dup3\n        /* \"@openzeppelin/contracts/token/ERC20/ERC20.sol\":8603:8624  account != address(0) */\n      0xffffffffffffffffffffffffffffffffffffffff\n      and\n      sub\n        /* \"@openzeppelin/contracts/token/ERC20/ERC20.sol\":8595:8660  require(account != address(0), \"ERC20: mint to the zero address\") */\n      tag_311\n      jumpi\n      mload(0x40)\n      0x08c379a000000000000000000000000000000000000000000000000000000000\n      dup2\n      mstore\n      0x04\n      add\n      tag_312\n      swap1\n      tag_313\n      jump\t// in\n    tag_312:\n      mload(0x40)\n      dup1\n      swap2\n      sub\n      swap1\n      revert\n    tag_311:\n        /* \"@openzeppelin/contracts/token/ERC20/ERC20.sol\":8671:8720  _beforeTokenTransfer(address(0), account, amount) */\n      tag_314\n        /* \"@openzeppelin/contracts/token/ERC20/ERC20.sol\":8700:8701  0 */\n      0x00\n        /* \"@openzeppelin/contracts/token/ERC20/ERC20.sol\":8704:8711  account */\n      dup4\n        /* \"@openzeppelin/contracts/token/ERC20/ERC20.sol\":8713:8719  amount */\n      dup4\n        /* \"@openzeppelin/contracts/token/ERC20/ERC20.sol\":8671:8691  _beforeTokenTransfer */\n      tag_268\n        /* \"@openzeppelin/contracts/token/ERC20/ERC20.sol\":8671:8720  _beforeTokenTransfer(address(0), account, amount) */\n      jump\t// in\n    tag_314:\n        /* \"@openzeppelin/contracts/token/ERC20/ERC20.sol\":8747:8753  amount */\n      dup1\n        /* \"@openzeppelin/contracts/token/ERC20/ERC20.sol\":8731:8743  _totalSupply */\n      0x02\n      0x00\n        /* \"@openzeppelin/contracts/token/ERC20/ERC20.sol\":8731:8753  _totalSupply += amount */\n      dup3\n      dup3\n      sload\n      tag_315\n      swap2\n      swap1\n      tag_162\n      jump\t// in\n    tag_315:\n      swap3\n      pop\n      pop\n      dup2\n      swap1\n      sstore\n      pop\n        /* \"@openzeppelin/contracts/token/ERC20/ERC20.sol\":8921:8927  amount */\n      dup1\n        /* \"@openzeppelin/contracts/token/ERC20/ERC20.sol\":8899:8908  _balances */\n      0x00\n        /* \"@openzeppelin/contracts/token/ERC20/ERC20.sol\":8899:8917  _balances[account] */\n      dup1\n        /* \"@openzeppelin/contracts/token/ERC20/ERC20.sol\":8909:8916  account */\n      dup5\n        /* \"@openzeppelin/contracts/token/ERC20/ERC20.sol\":8899:8917  _balances[account] */\n      0xffffffffffffffffffffffffffffffffffffffff\n      and\n      0xffffffffffffffffffffffffffffffffffffffff\n      and\n      dup2\n      mstore\n      0x20\n      add\n      swap1\n      dup2\n      mstore\n      0x20\n      add\n      0x00\n      keccak256\n      0x00\n        /* \"@openzeppelin/contracts/token/ERC20/ERC20.sol\":8899:8927  _balances[account] += amount */\n      dup3\n      dup3\n      sload\n      add\n      swap3\n      pop\n      pop\n      dup2\n      swap1\n      sstore\n      pop\n        /* \"@openzeppelin/contracts/token/ERC20/ERC20.sol\":8973:8980  account */\n      dup2\n        /* \"@openzeppelin/contracts/token/ERC20/ERC20.sol\":8952:8989  Transfer(address(0), account, amount) */\n      0xffffffffffffffffffffffffffffffffffffffff\n      and\n        /* \"@openzeppelin/contracts/token/ERC20/ERC20.sol\":8969:8970  0 */\n      0x00\n        /* \"@openzeppelin/contracts/token/ERC20/ERC20.sol\":8952:8989  Transfer(address(0), account, amount) */\n      0xffffffffffffffffffffffffffffffffffffffff\n      and\n      0xddf252ad1be2c89b69c2b068fc378daa952ba7f163c4a11628f55a4df523b3ef\n        /* \"@openzeppelin/contracts/token/ERC20/ERC20.sol\":8982:8988  amount */\n      dup4\n        /* \"@openzeppelin/contracts/token/ERC20/ERC20.sol\":8952:8989  Transfer(address(0), account, amount) */\n      mload(0x40)\n      tag_316\n      swap2\n      swap1\n      tag_47\n      jump\t// in\n    tag_316:\n      mload(0x40)\n      dup1\n      swap2\n      sub\n      swap1\n      log3\n        /* \"@openzeppelin/contracts/token/ERC20/ERC20.sol\":9000:9048  _afterTokenTransfer(address(0), account, amount) */\n      tag_317\n        /* \"@openzeppelin/contracts/token/ERC20/ERC20.sol\":9028:9029  0 */\n      0x00\n        /* \"@openzeppelin/contracts/token/ERC20/ERC20.sol\":9032:9039  account */\n      dup4\n        /* \"@openzeppelin/contracts/token/ERC20/ERC20.sol\":9041:9047  amount */\n      dup4\n        /* \"@openzeppelin/contracts/token/ERC20/ERC20.sol\":9000:9019  _afterTokenTransfer */\n      tag_274\n        /* \"@openzeppelin/contracts/token/ERC20/ERC20.sol\":9000:9048  _afterTokenTransfer(address(0), account, amount) */\n      jump\t// in\n    tag_317:\n        /* \"@openzeppelin/contracts/token/ERC20/ERC20.sol\":8520:9055  function _mint(address account, uint256 amount) internal virtual {... */\n      pop\n      pop\n      jump\t// out\n        /* \"@openzeppelin/contracts/access/Ownable.sol\":2426:2613  function _transferOwnership(address newOwner) internal virtual {... */\n    tag_197:\n        /* \"@openzeppelin/contracts/access/Ownable.sol\":2499:2515  address oldOwner */\n      0x00\n        /* \"@openzeppelin/contracts/access/Ownable.sol\":2518:2524  _owner */\n      0x05\n      0x00\n      swap1\n      sload\n      swap1\n      0x0100\n      exp\n      swap1\n      div\n      0xffffffffffffffffffffffffffffffffffffffff\n      and\n        /* \"@openzeppelin/contracts/access/Ownable.sol\":2499:2524  address oldOwner = _owner */\n      swap1\n      pop\n        /* \"@openzeppelin/contracts/access/Ownable.sol\":2543:2551  newOwner */\n      dup2\n        /* \"@openzeppelin/contracts/access/Ownable.sol\":2534:2540  _owner */\n      0x05\n      0x00\n        /* \"@openzeppelin/contracts/access/Ownable.sol\":2534:2551  _owner = newOwner */\n      0x0100\n      exp\n      dup2\n      sload\n      dup2\n      0xffffffffffffffffffffffffffffffffffffffff\n      mul\n      not\n      and\n      swap1\n      dup4\n      0xffffffffffffffffffffffffffffffffffffffff\n      and\n      mul\n      or\n      swap1\n      sstore\n      pop\n        /* \"@openzeppelin/contracts/access/Ownable.sol\":2597:2605  newOwner */\n      dup2\n        /* \"@openzeppelin/contracts/access/Ownable.sol\":2566:2606  OwnershipTransferred(oldOwner, newOwner) */\n      0xffffffffffffffffffffffffffffffffffffffff\n      and\n        /* \"@openzeppelin/contracts/access/Ownable.sol\":2587:2595  oldOwner */\n      dup2\n        /* \"@openzeppelin/contracts/access/Ownable.sol\":2566:2606  OwnershipTransferred(oldOwner, newOwner) */\n      0xffffffffffffffffffffffffffffffffffffffff\n      and\n      0x8be0079c531659141344cd1fd0a4f28419497f9722a3daafe3b4186f6b6457e0\n      mload(0x40)\n      mload(0x40)\n      dup1\n      swap2\n      sub\n      swap1\n      log3\n        /* \"@openzeppelin/contracts/access/Ownable.sol\":2489:2613  {... */\n      pop\n        /* \"@openzeppelin/contracts/access/Ownable.sol\":2426:2613  function _transferOwnership(address newOwner) internal virtual {... */\n      pop\n      jump\t// out\n        /* \"@openzeppelin/contracts/token/ERC20/ERC20.sol\":12073:12164  function _beforeTokenTransfer(address from, address to, uint256 amount) internal virtual {} */\n    tag_268:\n      pop\n      pop\n      pop\n      jump\t// out\n        /* \"@openzeppelin/contracts/token/ERC20/ERC20.sol\":12752:12842  function _afterTokenTransfer(address from, address to, uint256 amount) internal virtual {} */\n    tag_274:\n      pop\n      pop\n      pop\n      jump\t// out\n    tag_170:\n      mload(0x40)\n      dup1\n      0x60\n      add\n      0x40\n      mstore\n      dup1\n      0x60\n      dup2\n      mstore\n      0x20\n      add\n      0x00\n      dup2\n      mstore\n      0x20\n      add\n      0x00\n      dup2\n      mstore\n      pop\n      swap1\n      jump\t// out\n        /* \"#utility.yul\":7:82   */\n    tag_321:\n        /* \"#utility.yul\":40:46   */\n      0x00\n        /* \"#utility.yul\":73:75   */\n      0x40\n        /* \"#utility.yul\":67:76   */\n      mload\n        /* \"#utility.yul\":57:76   */\n      swap1\n      pop\n        /* \"#utility.yul\":7:82   */\n      swap1\n      jump\t// out\n        /* \"#utility.yul\":88:205   */\n    tag_322:\n        /* \"#utility.yul\":197:198   */\n      0x00\n        /* \"#utility.yul\":194:195   */\n      dup1\n        /* \"#utility.yul\":187:199   */\n      revert\n        /* \"#utility.yul\":211:328   */\n    tag_323:\n        /* \"#utility.yul\":320:321   */\n      0x00\n        /* \"#utility.yul\":317:318   */\n      dup1\n        /* \"#utility.yul\":310:322   */\n      revert\n        /* \"#utility.yul\":334:411   */\n    tag_324:\n        /* \"#utility.yul\":371:378   */\n      0x00\n        /* \"#utility.yul\":400:405   */\n      dup2\n        /* \"#utility.yul\":389:405   */\n      swap1\n      pop\n        /* \"#utility.yul\":334:411   */\n      swap2\n      swap1\n      pop\n      jump\t// out\n        /* \"#utility.yul\":417:539   */\n    tag_325:\n        /* \"#utility.yul\":490:514   */\n      tag_423\n        /* \"#utility.yul\":508:513   */\n      dup2\n        /* \"#utility.yul\":490:514   */\n      tag_324\n      jump\t// in\n    tag_423:\n        /* \"#utility.yul\":483:488   */\n      dup2\n        /* \"#utility.yul\":480:515   */\n      eq\n        /* \"#utility.yul\":470:533   */\n      tag_424\n      jumpi\n        /* \"#utility.yul\":529:530   */\n      0x00\n        /* \"#utility.yul\":526:527   */\n      dup1\n        /* \"#utility.yul\":519:531   */\n      revert\n        /* \"#utility.yul\":470:533   */\n    tag_424:\n        /* \"#utility.yul\":417:539   */\n      pop\n      jump\t// out\n        /* \"#utility.yul\":545:684   */\n    tag_326:\n        /* \"#utility.yul\":591:596   */\n      0x00\n        /* \"#utility.yul\":629:635   */\n      dup2\n        /* \"#utility.yul\":616:636   */\n      calldataload\n        /* \"#utility.yul\":607:636   */\n      swap1\n      pop\n        /* \"#utility.yul\":645:678   */\n      tag_426\n        /* \"#utility.yul\":672:677   */\n      dup2\n        /* \"#utility.yul\":645:678   */\n      tag_325\n      jump\t// in\n    tag_426:\n        /* \"#utility.yul\":545:684   */\n      swap3\n      swap2\n      pop\n      pop\n      jump\t// out\n        /* \"#utility.yul\":690:1019   */\n    tag_32:\n        /* \"#utility.yul\":749:755   */\n      0x00\n        /* \"#utility.yul\":798:800   */\n      0x20\n        /* \"#utility.yul\":786:795   */\n      dup3\n        /* \"#utility.yul\":777:784   */\n      dup5\n        /* \"#utility.yul\":773:796   */\n      sub\n        /* \"#utility.yul\":769:801   */\n      slt\n        /* \"#utility.yul\":766:885   */\n      iszero\n      tag_428\n      jumpi\n        /* \"#utility.yul\":804:883   */\n      tag_429\n      tag_322\n      jump\t// in\n    tag_429:\n        /* \"#utility.yul\":766:885   */\n    tag_428:\n        /* \"#utility.yul\":924:925   */\n      0x00\n        /* \"#utility.yul\":949:1002   */\n      tag_430\n        /* \"#utility.yul\":994:1001   */\n      dup5\n        /* \"#utility.yul\":985:991   */\n      dup3\n        /* \"#utility.yul\":974:983   */\n      dup6\n        /* \"#utility.yul\":970:992   */\n      add\n        /* \"#utility.yul\":949:1002   */\n      tag_326\n      jump\t// in\n    tag_430:\n        /* \"#utility.yul\":939:1002   */\n      swap2\n      pop\n        /* \"#utility.yul\":895:1012   */\n      pop\n        /* \"#utility.yul\":690:1019   */\n      swap3\n      swap2\n      pop\n      pop\n      jump\t// out\n        /* \"#utility.yul\":1025:1124   */\n    tag_327:\n        /* \"#utility.yul\":1077:1083   */\n      0x00\n        /* \"#utility.yul\":1111:1116   */\n      dup2\n        /* \"#utility.yul\":1105:1117   */\n      mload\n        /* \"#utility.yul\":1095:1117   */\n      swap1\n      pop\n        /* \"#utility.yul\":1025:1124   */\n      swap2\n      swap1\n      pop\n      jump\t// out\n        /* \"#utility.yul\":1130:1299   */\n    tag_328:\n        /* \"#utility.yul\":1214:1225   */\n      0x00\n        /* \"#utility.yul\":1248:1254   */\n      dup3\n        /* \"#utility.yul\":1243:1246   */\n      dup3\n        /* \"#utility.yul\":1236:1255   */\n      mstore\n        /* \"#utility.yul\":1288:1292   */\n      0x20\n        /* \"#utility.yul\":1283:1286   */\n      dup3\n        /* \"#utility.yul\":1279:1293   */\n      add\n        /* \"#utility.yul\":1264:1293   */\n      swap1\n      pop\n        /* \"#utility.yul\":1130:1299   */\n      swap3\n      swap2\n      pop\n      pop\n      jump\t// out\n        /* \"#utility.yul\":1305:1551   */\n    tag_329:\n        /* \"#utility.yul\":1386:1387   */\n      0x00\n        /* \"#utility.yul\":1396:1509   */\n    tag_434:\n        /* \"#utility.yul\":1410:1416   */\n      dup4\n        /* \"#utility.yul\":1407:1408   */\n      dup2\n        /* \"#utility.yul\":1404:1417   */\n      lt\n        /* \"#utility.yul\":1396:1509   */\n      iszero\n      tag_436\n      jumpi\n        /* \"#utility.yul\":1495:1496   */\n      dup1\n        /* \"#utility.yul\":1490:1493   */\n      dup3\n        /* \"#utility.yul\":1486:1497   */\n      add\n        /* \"#utility.yul\":1480:1498   */\n      mload\n        /* \"#utility.yul\":1476:1477   */\n      dup2\n        /* \"#utility.yul\":1471:1474   */\n      dup5\n        /* \"#utility.yul\":1467:1478   */\n      add\n        /* \"#utility.yul\":1460:1499   */\n      mstore\n        /* \"#utility.yul\":1432:1434   */\n      0x20\n        /* \"#utility.yul\":1429:1430   */\n      dup2\n        /* \"#utility.yul\":1425:1435   */\n      add\n        /* \"#utility.yul\":1420:1435   */\n      swap1\n      pop\n        /* \"#utility.yul\":1396:1509   */\n      jump(tag_434)\n    tag_436:\n        /* \"#utility.yul\":1543:1544   */\n      0x00\n        /* \"#utility.yul\":1534:1540   */\n      dup5\n        /* \"#utility.yul\":1529:1532   */\n      dup5\n        /* \"#utility.yul\":1525:1541   */\n      add\n        /* \"#utility.yul\":1518:1545   */\n      mstore\n        /* \"#utility.yul\":1367:1551   */\n      pop\n        /* \"#utility.yul\":1305:1551   */\n      pop\n      pop\n      pop\n      jump\t// out\n        /* \"#utility.yul\":1557:1659   */\n    tag_330:\n        /* \"#utility.yul\":1598:1604   */\n      0x00\n        /* \"#utility.yul\":1649:1651   */\n      0x1f\n        /* \"#utility.yul\":1645:1652   */\n      not\n        /* \"#utility.yul\":1640:1642   */\n      0x1f\n        /* \"#utility.yul\":1633:1638   */\n      dup4\n        /* \"#utility.yul\":1629:1643   */\n      add\n        /* \"#utility.yul\":1625:1653   */\n      and\n        /* \"#utility.yul\":1615:1653   */\n      swap1\n      pop\n        /* \"#utility.yul\":1557:1659   */\n      swap2\n      swap1\n      pop\n      jump\t// out\n        /* \"#utility.yul\":1665:2042   */\n    tag_331:\n        /* \"#utility.yul\":1753:1756   */\n      0x00\n        /* \"#utility.yul\":1781:1820   */\n      tag_439\n        /* \"#utility.yul\":1814:1819   */\n      dup3\n        /* \"#utility.yul\":1781:1820   */\n      tag_327\n      jump\t// in\n    tag_439:\n        /* \"#utility.yul\":1836:1907   */\n      tag_440\n        /* \"#utility.yul\":1900:1906   */\n      dup2\n        /* \"#utility.yul\":1895:1898   */\n      dup6\n        /* \"#utility.yul\":1836:1907   */\n      tag_328\n      jump\t// in\n    tag_440:\n        /* \"#utility.yul\":1829:1907   */\n      swap4\n      pop\n        /* \"#utility.yul\":1916:1981   */\n      tag_441\n        /* \"#utility.yul\":1974:1980   */\n      dup2\n        /* \"#utility.yul\":1969:1972   */\n      dup6\n        /* \"#utility.yul\":1962:1966   */\n      0x20\n        /* \"#utility.yul\":1955:1960   */\n      dup7\n        /* \"#utility.yul\":1951:1967   */\n      add\n        /* \"#utility.yul\":1916:1981   */\n      tag_329\n      jump\t// in\n    tag_441:\n        /* \"#utility.yul\":2006:2035   */\n      tag_442\n        /* \"#utility.yul\":2028:2034   */\n      dup2\n        /* \"#utility.yul\":2006:2035   */\n      tag_330\n      jump\t// in\n    tag_442:\n        /* \"#utility.yul\":2001:2004   */\n      dup5\n        /* \"#utility.yul\":1997:2036   */\n      add\n        /* \"#utility.yul\":1990:2036   */\n      swap2\n      pop\n        /* \"#utility.yul\":1757:2042   */\n      pop\n        /* \"#utility.yul\":1665:2042   */\n      swap3\n      swap2\n      pop\n      pop\n      jump\t// out\n        /* \"#utility.yul\":2048:2361   */\n    tag_37:\n        /* \"#utility.yul\":2161:2165   */\n      0x00\n        /* \"#utility.yul\":2199:2201   */\n      0x20\n        /* \"#utility.yul\":2188:2197   */\n      dup3\n        /* \"#utility.yul\":2184:2202   */\n      add\n        /* \"#utility.yul\":2176:2202   */\n      swap1\n      pop\n        /* \"#utility.yul\":2248:2257   */\n      dup2\n        /* \"#utility.yul\":2242:2246   */\n      dup2\n        /* \"#utility.yul\":2238:2258   */\n      sub\n        /* \"#utility.yul\":2234:2235   */\n      0x00\n        /* \"#utility.yul\":2223:2232   */\n      dup4\n        /* \"#utility.yul\":2219:2236   */\n      add\n        /* \"#utility.yul\":2212:2259   */\n      mstore\n        /* \"#utility.yul\":2276:2354   */\n      tag_444\n        /* \"#utility.yul\":2349:2353   */\n      dup2\n        /* \"#utility.yul\":2340:2346   */\n      dup5\n        /* \"#utility.yul\":2276:2354   */\n      tag_331\n      jump\t// in\n    tag_444:\n        /* \"#utility.yul\":2268:2354   */\n      swap1\n      pop\n        /* \"#utility.yul\":2048:2361   */\n      swap3\n      swap2\n      pop\n      pop\n      jump\t// out\n        /* \"#utility.yul\":2367:2493   */\n    tag_332:\n        /* \"#utility.yul\":2404:2411   */\n      0x00\n        /* \"#utility.yul\":2444:2486   */\n      0xffffffffffffffffffffffffffffffffffffffff\n        /* \"#utility.yul\":2437:2442   */\n      dup3\n        /* \"#utility.yul\":2433:2487   */\n      and\n        /* \"#utility.yul\":2422:2487   */\n      swap1\n      pop\n        /* \"#utility.yul\":2367:2493   */\n      swap2\n      swap1\n      pop\n      jump\t// out\n        /* \"#utility.yul\":2499:2595   */\n    tag_333:\n        /* \"#utility.yul\":2536:2543   */\n      0x00\n        /* \"#utility.yul\":2565:2589   */\n      tag_447\n        /* \"#utility.yul\":2583:2588   */\n      dup3\n        /* \"#utility.yul\":2565:2589   */\n      tag_332\n      jump\t// in\n    tag_447:\n        /* \"#utility.yul\":2554:2589   */\n      swap1\n      pop\n        /* \"#utility.yul\":2499:2595   */\n      swap2\n      swap1\n      pop\n      jump\t// out\n        /* \"#utility.yul\":2601:2723   */\n    tag_334:\n        /* \"#utility.yul\":2674:2698   */\n      tag_449\n        /* \"#utility.yul\":2692:2697   */\n      dup2\n        /* \"#utility.yul\":2674:2698   */\n      tag_333\n      jump\t// in\n    tag_449:\n        /* \"#utility.yul\":2667:2672   */\n      dup2\n        /* \"#utility.yul\":2664:2699   */\n      eq\n        /* \"#utility.yul\":2654:2717   */\n      tag_450\n      jumpi\n        /* \"#utility.yul\":2713:2714   */\n      0x00\n        /* \"#utility.yul\":2710:2711   */\n      dup1\n        /* \"#utility.yul\":2703:2715   */\n      revert\n        /* \"#utility.yul\":2654:2717   */\n    tag_450:\n        /* \"#utility.yul\":2601:2723   */\n      pop\n      jump\t// out\n        /* \"#utility.yul\":2729:2868   */\n    tag_335:\n        /* \"#utility.yul\":2775:2780   */\n      0x00\n        /* \"#utility.yul\":2813:2819   */\n      dup2\n        /* \"#utility.yul\":2800:2820   */\n      calldataload\n        /* \"#utility.yul\":2791:2820   */\n      swap1\n      pop\n        /* \"#utility.yul\":2829:2862   */\n      tag_452\n        /* \"#utility.yul\":2856:2861   */\n      dup2\n        /* \"#utility.yul\":2829:2862   */\n      tag_334\n      jump\t// in\n    tag_452:\n        /* \"#utility.yul\":2729:2868   */\n      swap3\n      swap2\n      pop\n      pop\n      jump\t// out\n        /* \"#utility.yul\":2874:3348   */\n    tag_40:\n        /* \"#utility.yul\":2942:2948   */\n      0x00\n        /* \"#utility.yul\":2950:2956   */\n      dup1\n        /* \"#utility.yul\":2999:3001   */\n      0x40\n        /* \"#utility.yul\":2987:2996   */\n      dup4\n        /* \"#utility.yul\":2978:2985   */\n      dup6\n        /* \"#utility.yul\":2974:2997   */\n      sub\n        /* \"#utility.yul\":2970:3002   */\n      slt\n        /* \"#utility.yul\":2967:3086   */\n      iszero\n      tag_454\n      jumpi\n        /* \"#utility.yul\":3005:3084   */\n      tag_455\n      tag_322\n      jump\t// in\n    tag_455:\n        /* \"#utility.yul\":2967:3086   */\n    tag_454:\n        /* \"#utility.yul\":3125:3126   */\n      0x00\n        /* \"#utility.yul\":3150:3203   */\n      tag_456\n        /* \"#utility.yul\":3195:3202   */\n      dup6\n        /* \"#utility.yul\":3186:3192   */\n      dup3\n        /* \"#utility.yul\":3175:3184   */\n      dup7\n        /* \"#utility.yul\":3171:3193   */\n      add\n        /* \"#utility.yul\":3150:3203   */\n      tag_335\n      jump\t// in\n    tag_456:\n        /* \"#utility.yul\":3140:3203   */\n      swap3\n      pop\n        /* \"#utility.yul\":3096:3213   */\n      pop\n        /* \"#utility.yul\":3252:3254   */\n      0x20\n        /* \"#utility.yul\":3278:3331   */\n      tag_457\n        /* \"#utility.yul\":3323:3330   */\n      dup6\n        /* \"#utility.yul\":3314:3320   */\n      dup3\n        /* \"#utility.yul\":3303:3312   */\n      dup7\n        /* \"#utility.yul\":3299:3321   */\n      add\n        /* \"#utility.yul\":3278:3331   */\n      tag_326\n      jump\t// in\n    tag_457:\n        /* \"#utility.yul\":3268:3331   */\n      swap2\n      pop\n        /* \"#utility.yul\":3223:3341   */\n      pop\n        /* \"#utility.yul\":2874:3348   */\n      swap3\n      pop\n      swap3\n      swap1\n      pop\n      jump\t// out\n        /* \"#utility.yul\":3354:3444   */\n    tag_336:\n        /* \"#utility.yul\":3388:3395   */\n      0x00\n        /* \"#utility.yul\":3431:3436   */\n      dup2\n        /* \"#utility.yul\":3424:3437   */\n      iszero\n        /* \"#utility.yul\":3417:3438   */\n      iszero\n        /* \"#utility.yul\":3406:3438   */\n      swap1\n      pop\n        /* \"#utility.yul\":3354:3444   */\n      swap2\n      swap1\n      pop\n      jump\t// out\n        /* \"#utility.yul\":3450:3559   */\n    tag_337:\n        /* \"#utility.yul\":3531:3552   */\n      tag_460\n        /* \"#utility.yul\":3546:3551   */\n      dup2\n        /* \"#utility.yul\":3531:3552   */\n      tag_336\n      jump\t// in\n    tag_460:\n        /* \"#utility.yul\":3526:3529   */\n      dup3\n        /* \"#utility.yul\":3519:3553   */\n      mstore\n        /* \"#utility.yul\":3450:3559   */\n      pop\n      pop\n      jump\t// out\n        /* \"#utility.yul\":3565:3775   */\n    tag_43:\n        /* \"#utility.yul\":3652:3656   */\n      0x00\n        /* \"#utility.yul\":3690:3692   */\n      0x20\n        /* \"#utility.yul\":3679:3688   */\n      dup3\n        /* \"#utility.yul\":3675:3693   */\n      add\n        /* \"#utility.yul\":3667:3693   */\n      swap1\n      pop\n        /* \"#utility.yul\":3703:3768   */\n      tag_462\n        /* \"#utility.yul\":3765:3766   */\n      0x00\n        /* \"#utility.yul\":3754:3763   */\n      dup4\n        /* \"#utility.yul\":3750:3767   */\n      add\n        /* \"#utility.yul\":3741:3747   */\n      dup5\n        /* \"#utility.yul\":3703:3768   */\n      tag_337\n      jump\t// in\n    tag_462:\n        /* \"#utility.yul\":3565:3775   */\n      swap3\n      swap2\n      pop\n      pop\n      jump\t// out\n        /* \"#utility.yul\":3781:3899   */\n    tag_338:\n        /* \"#utility.yul\":3868:3892   */\n      tag_464\n        /* \"#utility.yul\":3886:3891   */\n      dup2\n        /* \"#utility.yul\":3868:3892   */\n      tag_324\n      jump\t// in\n    tag_464:\n        /* \"#utility.yul\":3863:3866   */\n      dup3\n        /* \"#utility.yul\":3856:3893   */\n      mstore\n        /* \"#utility.yul\":3781:3899   */\n      pop\n      pop\n      jump\t// out\n        /* \"#utility.yul\":3905:4127   */\n    tag_47:\n        /* \"#utility.yul\":3998:4002   */\n      0x00\n        /* \"#utility.yul\":4036:4038   */\n      0x20\n        /* \"#utility.yul\":4025:4034   */\n      dup3\n        /* \"#utility.yul\":4021:4039   */\n      add\n        /* \"#utility.yul\":4013:4039   */\n      swap1\n      pop\n        /* \"#utility.yul\":4049:4120   */\n      tag_466\n        /* \"#utility.yul\":4117:4118   */\n      0x00\n        /* \"#utility.yul\":4106:4115   */\n      dup4\n        /* \"#utility.yul\":4102:4119   */\n      add\n        /* \"#utility.yul\":4093:4099   */\n      dup5\n        /* \"#utility.yul\":4049:4120   */\n      tag_338\n      jump\t// in\n    tag_466:\n        /* \"#utility.yul\":3905:4127   */\n      swap3\n      swap2\n      pop\n      pop\n      jump\t// out\n        /* \"#utility.yul\":4133:4752   */\n    tag_50:\n        /* \"#utility.yul\":4210:4216   */\n      0x00\n        /* \"#utility.yul\":4218:4224   */\n      dup1\n        /* \"#utility.yul\":4226:4232   */\n      0x00\n        /* \"#utility.yul\":4275:4277   */\n      0x60\n        /* \"#utility.yul\":4263:4272   */\n      dup5\n        /* \"#utility.yul\":4254:4261   */\n      dup7\n        /* \"#utility.yul\":4250:4273   */\n      sub\n        /* \"#utility.yul\":4246:4278   */\n      slt\n        /* \"#utility.yul\":4243:4362   */\n      iszero\n      tag_468\n      jumpi\n        /* \"#utility.yul\":4281:4360   */\n      tag_469\n      tag_322\n      jump\t// in\n    tag_469:\n        /* \"#utility.yul\":4243:4362   */\n    tag_468:\n        /* \"#utility.yul\":4401:4402   */\n      0x00\n        /* \"#utility.yul\":4426:4479   */\n      tag_470\n        /* \"#utility.yul\":4471:4478   */\n      dup7\n        /* \"#utility.yul\":4462:4468   */\n      dup3\n        /* \"#utility.yul\":4451:4460   */\n      dup8\n        /* \"#utility.yul\":4447:4469   */\n      add\n        /* \"#utility.yul\":4426:4479   */\n      tag_335\n      jump\t// in\n    tag_470:\n        /* \"#utility.yul\":4416:4479   */\n      swap4\n      pop\n        /* \"#utility.yul\":4372:4489   */\n      pop\n        /* \"#utility.yul\":4528:4530   */\n      0x20\n        /* \"#utility.yul\":4554:4607   */\n      tag_471\n        /* \"#utility.yul\":4599:4606   */\n      dup7\n        /* \"#utility.yul\":4590:4596   */\n      dup3\n        /* \"#utility.yul\":4579:4588   */\n      dup8\n        /* \"#utility.yul\":4575:4597   */\n      add\n        /* \"#utility.yul\":4554:4607   */\n      tag_335\n      jump\t// in\n    tag_471:\n        /* \"#utility.yul\":4544:4607   */\n      swap3\n      pop\n        /* \"#utility.yul\":4499:4617   */\n      pop\n        /* \"#utility.yul\":4656:4658   */\n      0x40\n        /* \"#utility.yul\":4682:4735   */\n      tag_472\n        /* \"#utility.yul\":4727:4734   */\n      dup7\n        /* \"#utility.yul\":4718:4724   */\n      dup3\n        /* \"#utility.yul\":4707:4716   */\n      dup8\n        /* \"#utility.yul\":4703:4725   */\n      add\n        /* \"#utility.yul\":4682:4735   */\n      tag_326\n      jump\t// in\n    tag_472:\n        /* \"#utility.yul\":4672:4735   */\n      swap2\n      pop\n        /* \"#utility.yul\":4627:4745   */\n      pop\n        /* \"#utility.yul\":4133:4752   */\n      swap3\n      pop\n      swap3\n      pop\n      swap3\n      jump\t// out\n        /* \"#utility.yul\":4758:4844   */\n    tag_339:\n        /* \"#utility.yul\":4793:4800   */\n      0x00\n        /* \"#utility.yul\":4833:4837   */\n      0xff\n        /* \"#utility.yul\":4826:4831   */\n      dup3\n        /* \"#utility.yul\":4822:4838   */\n      and\n        /* \"#utility.yul\":4811:4838   */\n      swap1\n      pop\n        /* \"#utility.yul\":4758:4844   */\n      swap2\n      swap1\n      pop\n      jump\t// out\n        /* \"#utility.yul\":4850:4962   */\n    tag_340:\n        /* \"#utility.yul\":4933:4955   */\n      tag_475\n        /* \"#utility.yul\":4949:4954   */\n      dup2\n        /* \"#utility.yul\":4933:4955   */\n      tag_339\n      jump\t// in\n    tag_475:\n        /* \"#utility.yul\":4928:4931   */\n      dup3\n        /* \"#utility.yul\":4921:4956   */\n      mstore\n        /* \"#utility.yul\":4850:4962   */\n      pop\n      pop\n      jump\t// out\n        /* \"#utility.yul\":4968:5182   */\n    tag_62:\n        /* \"#utility.yul\":5057:5061   */\n      0x00\n        /* \"#utility.yul\":5095:5097   */\n      0x20\n        /* \"#utility.yul\":5084:5093   */\n      dup3\n        /* \"#utility.yul\":5080:5098   */\n      add\n        /* \"#utility.yul\":5072:5098   */\n      swap1\n      pop\n        /* \"#utility.yul\":5108:5175   */\n      tag_477\n        /* \"#utility.yul\":5172:5173   */\n      0x00\n        /* \"#utility.yul\":5161:5170   */\n      dup4\n        /* \"#utility.yul\":5157:5174   */\n      add\n        /* \"#utility.yul\":5148:5154   */\n      dup5\n        /* \"#utility.yul\":5108:5175   */\n      tag_340\n      jump\t// in\n    tag_477:\n        /* \"#utility.yul\":4968:5182   */\n      swap3\n      swap2\n      pop\n      pop\n      jump\t// out\n        /* \"#utility.yul\":5188:5517   */\n    tag_65:\n        /* \"#utility.yul\":5247:5253   */\n      0x00\n        /* \"#utility.yul\":5296:5298   */\n      0x20\n        /* \"#utility.yul\":5284:5293   */\n      dup3\n        /* \"#utility.yul\":5275:5282   */\n      dup5\n        /* \"#utility.yul\":5271:5294   */\n      sub\n        /* \"#utility.yul\":5267:5299   */\n      slt\n        /* \"#utility.yul\":5264:5383   */\n      iszero\n      tag_479\n      jumpi\n        /* \"#utility.yul\":5302:5381   */\n      tag_480\n      tag_322\n      jump\t// in\n    tag_480:\n        /* \"#utility.yul\":5264:5383   */\n    tag_479:\n        /* \"#utility.yul\":5422:5423   */\n      0x00\n        /* \"#utility.yul\":5447:5500   */\n      tag_481\n        /* \"#utility.yul\":5492:5499   */\n      dup5\n        /* \"#utility.yul\":5483:5489   */\n      dup3\n        /* \"#utility.yul\":5472:5481   */\n      dup6\n        /* \"#utility.yul\":5468:5490   */\n      add\n        /* \"#utility.yul\":5447:5500   */\n      tag_335\n      jump\t// in\n    tag_481:\n        /* \"#utility.yul\":5437:5500   */\n      swap2\n      pop\n        /* \"#utility.yul\":5393:5510   */\n      pop\n        /* \"#utility.yul\":5188:5517   */\n      swap3\n      swap2\n      pop\n      pop\n      jump\t// out\n        /* \"#utility.yul\":5523:5667   */\n    tag_341:\n        /* \"#utility.yul\":5620:5626   */\n      0x00\n        /* \"#utility.yul\":5654:5659   */\n      dup2\n        /* \"#utility.yul\":5648:5660   */\n      mload\n        /* \"#utility.yul\":5638:5660   */\n      swap1\n      pop\n        /* \"#utility.yul\":5523:5667   */\n      swap2\n      swap1\n      pop\n      jump\t// out\n        /* \"#utility.yul\":5673:5887   */\n    tag_342:\n        /* \"#utility.yul\":5802:5813   */\n      0x00\n        /* \"#utility.yul\":5836:5842   */\n      dup3\n        /* \"#utility.yul\":5831:5834   */\n      dup3\n        /* \"#utility.yul\":5824:5843   */\n      mstore\n        /* \"#utility.yul\":5876:5880   */\n      0x20\n        /* \"#utility.yul\":5871:5874   */\n      dup3\n        /* \"#utility.yul\":5867:5881   */\n      add\n        /* \"#utility.yul\":5852:5881   */\n      swap1\n      pop\n        /* \"#utility.yul\":5673:5887   */\n      swap3\n      swap2\n      pop\n      pop\n      jump\t// out\n        /* \"#utility.yul\":5893:6055   */\n    tag_343:\n        /* \"#utility.yul\":5990:5994   */\n      0x00\n        /* \"#utility.yul\":6013:6016   */\n      dup2\n        /* \"#utility.yul\":6005:6016   */\n      swap1\n      pop\n        /* \"#utility.yul\":6043:6047   */\n      0x20\n        /* \"#utility.yul\":6038:6041   */\n      dup3\n        /* \"#utility.yul\":6034:6048   */\n      add\n        /* \"#utility.yul\":6026:6048   */\n      swap1\n      pop\n        /* \"#utility.yul\":5893:6055   */\n      swap2\n      swap1\n      pop\n      jump\t// out\n        /* \"#utility.yul\":6061:6220   */\n    tag_344:\n        /* \"#utility.yul\":6135:6146   */\n      0x00\n        /* \"#utility.yul\":6169:6175   */\n      dup3\n        /* \"#utility.yul\":6164:6167   */\n      dup3\n        /* \"#utility.yul\":6157:6176   */\n      mstore\n        /* \"#utility.yul\":6209:6213   */\n      0x20\n        /* \"#utility.yul\":6204:6207   */\n      dup3\n        /* \"#utility.yul\":6200:6214   */\n      add\n        /* \"#utility.yul\":6185:6214   */\n      swap1\n      pop\n        /* \"#utility.yul\":6061:6220   */\n      swap3\n      swap2\n      pop\n      pop\n      jump\t// out\n        /* \"#utility.yul\":6226:6583   */\n    tag_345:\n        /* \"#utility.yul\":6304:6307   */\n      0x00\n        /* \"#utility.yul\":6332:6371   */\n      tag_487\n        /* \"#utility.yul\":6365:6370   */\n      dup3\n        /* \"#utility.yul\":6332:6371   */\n      tag_327\n      jump\t// in\n    tag_487:\n        /* \"#utility.yul\":6387:6448   */\n      tag_488\n        /* \"#utility.yul\":6441:6447   */\n      dup2\n        /* \"#utility.yul\":6436:6439   */\n      dup6\n        /* \"#utility.yul\":6387:6448   */\n      tag_344\n      jump\t// in\n    tag_488:\n        /* \"#utility.yul\":6380:6448   */\n      swap4\n      pop\n        /* \"#utility.yul\":6457:6522   */\n      tag_489\n        /* \"#utility.yul\":6515:6521   */\n      dup2\n        /* \"#utility.yul\":6510:6513   */\n      dup6\n        /* \"#utility.yul\":6503:6507   */\n      0x20\n        /* \"#utility.yul\":6496:6501   */\n      dup7\n        /* \"#utility.yul\":6492:6508   */\n      add\n        /* \"#utility.yul\":6457:6522   */\n      tag_329\n      jump\t// in\n    tag_489:\n        /* \"#utility.yul\":6547:6576   */\n      tag_490\n        /* \"#utility.yul\":6569:6575   */\n      dup2\n        /* \"#utility.yul\":6547:6576   */\n      tag_330\n      jump\t// in\n    tag_490:\n        /* \"#utility.yul\":6542:6545   */\n      dup5\n        /* \"#utility.yul\":6538:6577   */\n      add\n        /* \"#utility.yul\":6531:6577   */\n      swap2\n      pop\n        /* \"#utility.yul\":6308:6583   */\n      pop\n        /* \"#utility.yul\":6226:6583   */\n      swap3\n      swap2\n      pop\n      pop\n      jump\t// out\n        /* \"#utility.yul\":6589:6697   */\n    tag_346:\n        /* \"#utility.yul\":6666:6690   */\n      tag_492\n        /* \"#utility.yul\":6684:6689   */\n      dup2\n        /* \"#utility.yul\":6666:6690   */\n      tag_324\n      jump\t// in\n    tag_492:\n        /* \"#utility.yul\":6661:6664   */\n      dup3\n        /* \"#utility.yul\":6654:6691   */\n      mstore\n        /* \"#utility.yul\":6589:6697   */\n      pop\n      pop\n      jump\t// out\n        /* \"#utility.yul\":6793:7587   */\n    tag_347:\n        /* \"#utility.yul\":6912:6915   */\n      0x00\n        /* \"#utility.yul\":6948:6952   */\n      0x60\n        /* \"#utility.yul\":6943:6946   */\n      dup4\n        /* \"#utility.yul\":6939:6953   */\n      add\n        /* \"#utility.yul\":7039:7043   */\n      0x00\n        /* \"#utility.yul\":7032:7037   */\n      dup4\n        /* \"#utility.yul\":7028:7044   */\n      add\n        /* \"#utility.yul\":7022:7045   */\n      mload\n        /* \"#utility.yul\":7092:7095   */\n      dup5\n        /* \"#utility.yul\":7086:7090   */\n      dup3\n        /* \"#utility.yul\":7082:7096   */\n      sub\n        /* \"#utility.yul\":7075:7079   */\n      0x00\n        /* \"#utility.yul\":7070:7073   */\n      dup7\n        /* \"#utility.yul\":7066:7080   */\n      add\n        /* \"#utility.yul\":7059:7097   */\n      mstore\n        /* \"#utility.yul\":7118:7191   */\n      tag_494\n        /* \"#utility.yul\":7186:7190   */\n      dup3\n        /* \"#utility.yul\":7172:7184   */\n      dup3\n        /* \"#utility.yul\":7118:7191   */\n      tag_345\n      jump\t// in\n    tag_494:\n        /* \"#utility.yul\":7110:7191   */\n      swap2\n      pop\n        /* \"#utility.yul\":6963:7202   */\n      pop\n        /* \"#utility.yul\":7289:7293   */\n      0x20\n        /* \"#utility.yul\":7282:7287   */\n      dup4\n        /* \"#utility.yul\":7278:7294   */\n      add\n        /* \"#utility.yul\":7272:7295   */\n      mload\n        /* \"#utility.yul\":7308:7371   */\n      tag_495\n        /* \"#utility.yul\":7365:7369   */\n      0x20\n        /* \"#utility.yul\":7360:7363   */\n      dup7\n        /* \"#utility.yul\":7356:7370   */\n      add\n        /* \"#utility.yul\":7342:7354   */\n      dup3\n        /* \"#utility.yul\":7308:7371   */\n      tag_346\n      jump\t// in\n    tag_495:\n        /* \"#utility.yul\":7212:7381   */\n      pop\n        /* \"#utility.yul\":7468:7472   */\n      0x40\n        /* \"#utility.yul\":7461:7466   */\n      dup4\n        /* \"#utility.yul\":7457:7473   */\n      add\n        /* \"#utility.yul\":7451:7474   */\n      mload\n        /* \"#utility.yul\":7487:7550   */\n      tag_496\n        /* \"#utility.yul\":7544:7548   */\n      0x40\n        /* \"#utility.yul\":7539:7542   */\n      dup7\n        /* \"#utility.yul\":7535:7549   */\n      add\n        /* \"#utility.yul\":7521:7533   */\n      dup3\n        /* \"#utility.yul\":7487:7550   */\n      tag_346\n      jump\t// in\n    tag_496:\n        /* \"#utility.yul\":7391:7560   */\n      pop\n        /* \"#utility.yul\":7577:7581   */\n      dup1\n        /* \"#utility.yul\":7570:7581   */\n      swap2\n      pop\n        /* \"#utility.yul\":6917:7587   */\n      pop\n        /* \"#utility.yul\":6793:7587   */\n      swap3\n      swap2\n      pop\n      pop\n      jump\t// out\n        /* \"#utility.yul\":7593:7869   */\n    tag_348:\n        /* \"#utility.yul\":7722:7732   */\n      0x00\n        /* \"#utility.yul\":7757:7863   */\n      tag_498\n        /* \"#utility.yul\":7859:7862   */\n      dup4\n        /* \"#utility.yul\":7851:7857   */\n      dup4\n        /* \"#utility.yul\":7757:7863   */\n      tag_347\n      jump\t// in\n    tag_498:\n        /* \"#utility.yul\":7743:7863   */\n      swap1\n      pop\n        /* \"#utility.yul\":7593:7869   */\n      swap3\n      swap2\n      pop\n      pop\n      jump\t// out\n        /* \"#utility.yul\":7875:8018   */\n    tag_349:\n        /* \"#utility.yul\":7975:7979   */\n      0x00\n        /* \"#utility.yul\":8007:8011   */\n      0x20\n        /* \"#utility.yul\":8002:8005   */\n      dup3\n        /* \"#utility.yul\":7998:8012   */\n      add\n        /* \"#utility.yul\":7990:8012   */\n      swap1\n      pop\n        /* \"#utility.yul\":7875:8018   */\n      swap2\n      swap1\n      pop\n      jump\t// out\n        /* \"#utility.yul\":8118:9269   */\n    tag_350:\n        /* \"#utility.yul\":8297:8300   */\n      0x00\n        /* \"#utility.yul\":8326:8410   */\n      tag_501\n        /* \"#utility.yul\":8404:8409   */\n      dup3\n        /* \"#utility.yul\":8326:8410   */\n      tag_341\n      jump\t// in\n    tag_501:\n        /* \"#utility.yul\":8426:8542   */\n      tag_502\n        /* \"#utility.yul\":8535:8541   */\n      dup2\n        /* \"#utility.yul\":8530:8533   */\n      dup6\n        /* \"#utility.yul\":8426:8542   */\n      tag_342\n      jump\t// in\n    tag_502:\n        /* \"#utility.yul\":8419:8542   */\n      swap4\n      pop\n        /* \"#utility.yul\":8568:8571   */\n      dup4\n        /* \"#utility.yul\":8613:8617   */\n      0x20\n        /* \"#utility.yul\":8605:8611   */\n      dup3\n        /* \"#utility.yul\":8601:8618   */\n      mul\n        /* \"#utility.yul\":8596:8599   */\n      dup6\n        /* \"#utility.yul\":8592:8619   */\n      add\n        /* \"#utility.yul\":8643:8729   */\n      tag_503\n        /* \"#utility.yul\":8723:8728   */\n      dup6\n        /* \"#utility.yul\":8643:8729   */\n      tag_343\n      jump\t// in\n    tag_503:\n        /* \"#utility.yul\":8752:8759   */\n      dup1\n        /* \"#utility.yul\":8783:8784   */\n      0x00\n        /* \"#utility.yul\":8768:9224   */\n    tag_504:\n        /* \"#utility.yul\":8793:8799   */\n      dup6\n        /* \"#utility.yul\":8790:8791   */\n      dup2\n        /* \"#utility.yul\":8787:8800   */\n      lt\n        /* \"#utility.yul\":8768:9224   */\n      iszero\n      tag_506\n      jumpi\n        /* \"#utility.yul\":8864:8873   */\n      dup5\n        /* \"#utility.yul\":8858:8862   */\n      dup5\n        /* \"#utility.yul\":8854:8874   */\n      sub\n        /* \"#utility.yul\":8849:8852   */\n      dup10\n        /* \"#utility.yul\":8842:8875   */\n      mstore\n        /* \"#utility.yul\":8915:8921   */\n      dup2\n        /* \"#utility.yul\":8909:8922   */\n      mload\n        /* \"#utility.yul\":8943:9067   */\n      tag_507\n        /* \"#utility.yul\":9062:9066   */\n      dup6\n        /* \"#utility.yul\":9047:9060   */\n      dup3\n        /* \"#utility.yul\":8943:9067   */\n      tag_348\n      jump\t// in\n    tag_507:\n        /* \"#utility.yul\":8935:9067   */\n      swap5\n      pop\n        /* \"#utility.yul\":9090:9180   */\n      tag_508\n        /* \"#utility.yul\":9173:9179   */\n      dup4\n        /* \"#utility.yul\":9090:9180   */\n      tag_349\n      jump\t// in\n    tag_508:\n        /* \"#utility.yul\":9080:9180   */\n      swap3\n      pop\n        /* \"#utility.yul\":9209:9213   */\n      0x20\n        /* \"#utility.yul\":9204:9207   */\n      dup11\n        /* \"#utility.yul\":9200:9214   */\n      add\n        /* \"#utility.yul\":9193:9214   */\n      swap10\n      pop\n        /* \"#utility.yul\":8828:9224   */\n      pop\n        /* \"#utility.yul\":8815:8816   */\n      0x01\n        /* \"#utility.yul\":8812:8813   */\n      dup2\n        /* \"#utility.yul\":8808:8817   */\n      add\n        /* \"#utility.yul\":8803:8817   */\n      swap1\n      pop\n        /* \"#utility.yul\":8768:9224   */\n      jump(tag_504)\n    tag_506:\n        /* \"#utility.yul\":8772:8786   */\n      pop\n        /* \"#utility.yul\":9240:9244   */\n      dup3\n        /* \"#utility.yul\":9233:9244   */\n      swap8\n      pop\n        /* \"#utility.yul\":9260:9263   */\n      dup8\n        /* \"#utility.yul\":9253:9263   */\n      swap6\n      pop\n        /* \"#utility.yul\":8302:9269   */\n      pop\n      pop\n      pop\n      pop\n      pop\n        /* \"#utility.yul\":8118:9269   */\n      swap3\n      swap2\n      pop\n      pop\n      jump\t// out\n        /* \"#utility.yul\":9275:9768   */\n    tag_75:\n        /* \"#utility.yul\":9478:9482   */\n      0x00\n        /* \"#utility.yul\":9516:9518   */\n      0x20\n        /* \"#utility.yul\":9505:9514   */\n      dup3\n        /* \"#utility.yul\":9501:9519   */\n      add\n        /* \"#utility.yul\":9493:9519   */\n      swap1\n      pop\n        /* \"#utility.yul\":9565:9574   */\n      dup2\n        /* \"#utility.yul\":9559:9563   */\n      dup2\n        /* \"#utility.yul\":9555:9575   */\n      sub\n        /* \"#utility.yul\":9551:9552   */\n      0x00\n        /* \"#utility.yul\":9540:9549   */\n      dup4\n        /* \"#utility.yul\":9536:9553   */\n      add\n        /* \"#utility.yul\":9529:9576   */\n      mstore\n        /* \"#utility.yul\":9593:9761   */\n      tag_510\n        /* \"#utility.yul\":9756:9760   */\n      dup2\n        /* \"#utility.yul\":9747:9753   */\n      dup5\n        /* \"#utility.yul\":9593:9761   */\n      tag_350\n      jump\t// in\n    tag_510:\n        /* \"#utility.yul\":9585:9761   */\n      swap1\n      pop\n        /* \"#utility.yul\":9275:9768   */\n      swap3\n      swap2\n      pop\n      pop\n      jump\t// out\n        /* \"#utility.yul\":9774:9892   */\n    tag_351:\n        /* \"#utility.yul\":9861:9885   */\n      tag_512\n        /* \"#utility.yul\":9879:9884   */\n      dup2\n        /* \"#utility.yul\":9861:9885   */\n      tag_333\n      jump\t// in\n    tag_512:\n        /* \"#utility.yul\":9856:9859   */\n      dup3\n        /* \"#utility.yul\":9849:9886   */\n      mstore\n        /* \"#utility.yul\":9774:9892   */\n      pop\n      pop\n      jump\t// out\n        /* \"#utility.yul\":9898:10120   */\n    tag_88:\n        /* \"#utility.yul\":9991:9995   */\n      0x00\n        /* \"#utility.yul\":10029:10031   */\n      0x20\n        /* \"#utility.yul\":10018:10027   */\n      dup3\n        /* \"#utility.yul\":10014:10032   */\n      add\n        /* \"#utility.yul\":10006:10032   */\n      swap1\n      pop\n        /* \"#utility.yul\":10042:10113   */\n      tag_514\n        /* \"#utility.yul\":10110:10111   */\n      0x00\n        /* \"#utility.yul\":10099:10108   */\n      dup4\n        /* \"#utility.yul\":10095:10112   */\n      add\n        /* \"#utility.yul\":10086:10092   */\n      dup5\n        /* \"#utility.yul\":10042:10113   */\n      tag_351\n      jump\t// in\n    tag_514:\n        /* \"#utility.yul\":9898:10120   */\n      swap3\n      swap2\n      pop\n      pop\n      jump\t// out\n        /* \"#utility.yul\":10126:10243   */\n    tag_352:\n        /* \"#utility.yul\":10235:10236   */\n      0x00\n        /* \"#utility.yul\":10232:10233   */\n      dup1\n        /* \"#utility.yul\":10225:10237   */\n      revert\n        /* \"#utility.yul\":10249:10366   */\n    tag_353:\n        /* \"#utility.yul\":10358:10359   */\n      0x00\n        /* \"#utility.yul\":10355:10356   */\n      dup1\n        /* \"#utility.yul\":10348:10360   */\n      revert\n        /* \"#utility.yul\":10372:10552   */\n    tag_166:\n        /* \"#utility.yul\":10420:10497   */\n      0x4e487b7100000000000000000000000000000000000000000000000000000000\n        /* \"#utility.yul\":10417:10418   */\n      0x00\n        /* \"#utility.yul\":10410:10498   */\n      mstore\n        /* \"#utility.yul\":10517:10521   */\n      0x41\n        /* \"#utility.yul\":10514:10515   */\n      0x04\n        /* \"#utility.yul\":10507:10522   */\n      mstore\n        /* \"#utility.yul\":10541:10545   */\n      0x24\n        /* \"#utility.yul\":10538:10539   */\n      0x00\n        /* \"#utility.yul\":10531:10546   */\n      revert\n        /* \"#utility.yul\":10558:10839   */\n    tag_354:\n        /* \"#utility.yul\":10641:10668   */\n      tag_519\n        /* \"#utility.yul\":10663:10667   */\n      dup3\n        /* \"#utility.yul\":10641:10668   */\n      tag_330\n      jump\t// in\n    tag_519:\n        /* \"#utility.yul\":10633:10639   */\n      dup2\n        /* \"#utility.yul\":10629:10669   */\n      add\n        /* \"#utility.yul\":10771:10777   */\n      dup2\n        /* \"#utility.yul\":10759:10769   */\n      dup2\n        /* \"#utility.yul\":10756:10778   */\n      lt\n        /* \"#utility.yul\":10735:10753   */\n      0xffffffffffffffff\n        /* \"#utility.yul\":10723:10733   */\n      dup3\n        /* \"#utility.yul\":10720:10754   */\n      gt\n        /* \"#utility.yul\":10717:10779   */\n      or\n        /* \"#utility.yul\":10714:10802   */\n      iszero\n      tag_520\n      jumpi\n        /* \"#utility.yul\":10782:10800   */\n      tag_521\n      tag_166\n      jump\t// in\n    tag_521:\n        /* \"#utility.yul\":10714:10802   */\n    tag_520:\n        /* \"#utility.yul\":10822:10832   */\n      dup1\n        /* \"#utility.yul\":10818:10820   */\n      0x40\n        /* \"#utility.yul\":10811:10833   */\n      mstore\n        /* \"#utility.yul\":10601:10839   */\n      pop\n        /* \"#utility.yul\":10558:10839   */\n      pop\n      pop\n      jump\t// out\n        /* \"#utility.yul\":10845:10974   */\n    tag_355:\n        /* \"#utility.yul\":10879:10885   */\n      0x00\n        /* \"#utility.yul\":10906:10926   */\n      tag_523\n      tag_321\n      jump\t// in\n    tag_523:\n        /* \"#utility.yul\":10896:10926   */\n      swap1\n      pop\n        /* \"#utility.yul\":10935:10968   */\n      tag_524\n        /* \"#utility.yul\":10963:10967   */\n      dup3\n        /* \"#utility.yul\":10955:10961   */\n      dup3\n        /* \"#utility.yul\":10935:10968   */\n      tag_354\n      jump\t// in\n    tag_524:\n        /* \"#utility.yul\":10845:10974   */\n      swap2\n      swap1\n      pop\n      jump\t// out\n        /* \"#utility.yul\":10980:11288   */\n    tag_356:\n        /* \"#utility.yul\":11042:11046   */\n      0x00\n        /* \"#utility.yul\":11132:11150   */\n      0xffffffffffffffff\n        /* \"#utility.yul\":11124:11130   */\n      dup3\n        /* \"#utility.yul\":11121:11151   */\n      gt\n        /* \"#utility.yul\":11118:11174   */\n      iszero\n      tag_526\n      jumpi\n        /* \"#utility.yul\":11154:11172   */\n      tag_527\n      tag_166\n      jump\t// in\n    tag_527:\n        /* \"#utility.yul\":11118:11174   */\n    tag_526:\n        /* \"#utility.yul\":11192:11221   */\n      tag_528\n        /* \"#utility.yul\":11214:11220   */\n      dup3\n        /* \"#utility.yul\":11192:11221   */\n      tag_330\n      jump\t// in\n    tag_528:\n        /* \"#utility.yul\":11184:11221   */\n      swap1\n      pop\n        /* \"#utility.yul\":11276:11280   */\n      0x20\n        /* \"#utility.yul\":11270:11274   */\n      dup2\n        /* \"#utility.yul\":11266:11281   */\n      add\n        /* \"#utility.yul\":11258:11281   */\n      swap1\n      pop\n        /* \"#utility.yul\":10980:11288   */\n      swap2\n      swap1\n      pop\n      jump\t// out\n        /* \"#utility.yul\":11294:11440   */\n    tag_357:\n        /* \"#utility.yul\":11391:11397   */\n      dup3\n        /* \"#utility.yul\":11386:11389   */\n      dup2\n        /* \"#utility.yul\":11381:11384   */\n      dup4\n        /* \"#utility.yul\":11368:11398   */\n      calldatacopy\n        /* \"#utility.yul\":11432:11433   */\n      0x00\n        /* \"#utility.yul\":11423:11429   */\n      dup4\n        /* \"#utility.yul\":11418:11421   */\n      dup4\n        /* \"#utility.yul\":11414:11430   */\n      add\n        /* \"#utility.yul\":11407:11434   */\n      mstore\n        /* \"#utility.yul\":11294:11440   */\n      pop\n      pop\n      pop\n      jump\t// out\n        /* \"#utility.yul\":11446:11871   */\n    tag_358:\n        /* \"#utility.yul\":11524:11529   */\n      0x00\n        /* \"#utility.yul\":11549:11615   */\n      tag_531\n        /* \"#utility.yul\":11565:11614   */\n      tag_532\n        /* \"#utility.yul\":11607:11613   */\n      dup5\n        /* \"#utility.yul\":11565:11614   */\n      tag_356\n      jump\t// in\n    tag_532:\n        /* \"#utility.yul\":11549:11615   */\n      tag_355\n      jump\t// in\n    tag_531:\n        /* \"#utility.yul\":11540:11615   */\n      swap1\n      pop\n        /* \"#utility.yul\":11638:11644   */\n      dup3\n        /* \"#utility.yul\":11631:11636   */\n      dup2\n        /* \"#utility.yul\":11624:11645   */\n      mstore\n        /* \"#utility.yul\":11676:11680   */\n      0x20\n        /* \"#utility.yul\":11669:11674   */\n      dup2\n        /* \"#utility.yul\":11665:11681   */\n      add\n        /* \"#utility.yul\":11714:11717   */\n      dup5\n        /* \"#utility.yul\":11705:11711   */\n      dup5\n        /* \"#utility.yul\":11700:11703   */\n      dup5\n        /* \"#utility.yul\":11696:11712   */\n      add\n        /* \"#utility.yul\":11693:11718   */\n      gt\n        /* \"#utility.yul\":11690:11802   */\n      iszero\n      tag_533\n      jumpi\n        /* \"#utility.yul\":11721:11800   */\n      tag_534\n      tag_353\n      jump\t// in\n    tag_534:\n        /* \"#utility.yul\":11690:11802   */\n    tag_533:\n        /* \"#utility.yul\":11811:11865   */\n      tag_535\n        /* \"#utility.yul\":11858:11864   */\n      dup5\n        /* \"#utility.yul\":11853:11856   */\n      dup3\n        /* \"#utility.yul\":11848:11851   */\n      dup6\n        /* \"#utility.yul\":11811:11865   */\n      tag_357\n      jump\t// in\n    tag_535:\n        /* \"#utility.yul\":11530:11871   */\n      pop\n        /* \"#utility.yul\":11446:11871   */\n      swap4\n      swap3\n      pop\n      pop\n      pop\n      jump\t// out\n        /* \"#utility.yul\":11891:12231   */\n    tag_359:\n        /* \"#utility.yul\":11947:11952   */\n      0x00\n        /* \"#utility.yul\":11996:11999   */\n      dup3\n        /* \"#utility.yul\":11989:11993   */\n      0x1f\n        /* \"#utility.yul\":11981:11987   */\n      dup4\n        /* \"#utility.yul\":11977:11994   */\n      add\n        /* \"#utility.yul\":11973:12000   */\n      slt\n        /* \"#utility.yul\":11963:12085   */\n      tag_537\n      jumpi\n        /* \"#utility.yul\":12004:12083   */\n      tag_538\n      tag_352\n      jump\t// in\n    tag_538:\n        /* \"#utility.yul\":11963:12085   */\n    tag_537:\n        /* \"#utility.yul\":12121:12127   */\n      dup2\n        /* \"#utility.yul\":12108:12128   */\n      calldataload\n        /* \"#utility.yul\":12146:12225   */\n      tag_539\n        /* \"#utility.yul\":12221:12224   */\n      dup5\n        /* \"#utility.yul\":12213:12219   */\n      dup3\n        /* \"#utility.yul\":12206:12210   */\n      0x20\n        /* \"#utility.yul\":12198:12204   */\n      dup7\n        /* \"#utility.yul\":12194:12211   */\n      add\n        /* \"#utility.yul\":12146:12225   */\n      tag_358\n      jump\t// in\n    tag_539:\n        /* \"#utility.yul\":12137:12225   */\n      swap2\n      pop\n        /* \"#utility.yul\":11953:12231   */\n      pop\n        /* \"#utility.yul\":11891:12231   */\n      swap3\n      swap2\n      pop\n      pop\n      jump\t// out\n        /* \"#utility.yul\":12237:13036   */\n    tag_102:\n        /* \"#utility.yul\":12324:12330   */\n      0x00\n        /* \"#utility.yul\":12332:12338   */\n      dup1\n        /* \"#utility.yul\":12340:12346   */\n      0x00\n        /* \"#utility.yul\":12389:12391   */\n      0x60\n        /* \"#utility.yul\":12377:12386   */\n      dup5\n        /* \"#utility.yul\":12368:12375   */\n      dup7\n        /* \"#utility.yul\":12364:12387   */\n      sub\n        /* \"#utility.yul\":12360:12392   */\n      slt\n        /* \"#utility.yul\":12357:12476   */\n      iszero\n      tag_541\n      jumpi\n        /* \"#utility.yul\":12395:12474   */\n      tag_542\n      tag_322\n      jump\t// in\n    tag_542:\n        /* \"#utility.yul\":12357:12476   */\n    tag_541:\n        /* \"#utility.yul\":12543:12544   */\n      0x00\n        /* \"#utility.yul\":12532:12541   */\n      dup5\n        /* \"#utility.yul\":12528:12545   */\n      add\n        /* \"#utility.yul\":12515:12546   */\n      calldataload\n        /* \"#utility.yul\":12573:12591   */\n      0xffffffffffffffff\n        /* \"#utility.yul\":12565:12571   */\n      dup2\n        /* \"#utility.yul\":12562:12592   */\n      gt\n        /* \"#utility.yul\":12559:12676   */\n      iszero\n      tag_543\n      jumpi\n        /* \"#utility.yul\":12595:12674   */\n      tag_544\n      tag_323\n      jump\t// in\n    tag_544:\n        /* \"#utility.yul\":12559:12676   */\n    tag_543:\n        /* \"#utility.yul\":12700:12763   */\n      tag_545\n        /* \"#utility.yul\":12755:12762   */\n      dup7\n        /* \"#utility.yul\":12746:12752   */\n      dup3\n        /* \"#utility.yul\":12735:12744   */\n      dup8\n        /* \"#utility.yul\":12731:12753   */\n      add\n        /* \"#utility.yul\":12700:12763   */\n      tag_359\n      jump\t// in\n    tag_545:\n        /* \"#utility.yul\":12690:12763   */\n      swap4\n      pop\n        /* \"#utility.yul\":12486:12773   */\n      pop\n        /* \"#utility.yul\":12812:12814   */\n      0x20\n        /* \"#utility.yul\":12838:12891   */\n      tag_546\n        /* \"#utility.yul\":12883:12890   */\n      dup7\n        /* \"#utility.yul\":12874:12880   */\n      dup3\n        /* \"#utility.yul\":12863:12872   */\n      dup8\n        /* \"#utility.yul\":12859:12881   */\n      add\n        /* \"#utility.yul\":12838:12891   */\n      tag_326\n      jump\t// in\n    tag_546:\n        /* \"#utility.yul\":12828:12891   */\n      swap3\n      pop\n        /* \"#utility.yul\":12783:12901   */\n      pop\n        /* \"#utility.yul\":12940:12942   */\n      0x40\n        /* \"#utility.yul\":12966:13019   */\n      tag_547\n        /* \"#utility.yul\":13011:13018   */\n      dup7\n        /* \"#utility.yul\":13002:13008   */\n      dup3\n        /* \"#utility.yul\":12991:13000   */\n      dup8\n        /* \"#utility.yul\":12987:13009   */\n      add\n        /* \"#utility.yul\":12966:13019   */\n      tag_326\n      jump\t// in\n    tag_547:\n        /* \"#utility.yul\":12956:13019   */\n      swap2\n      pop\n        /* \"#utility.yul\":12911:13029   */\n      pop\n        /* \"#utility.yul\":12237:13036   */\n      swap3\n      pop\n      swap3\n      pop\n      swap3\n      jump\t// out\n        /* \"#utility.yul\":13042:13516   */\n    tag_106:\n        /* \"#utility.yul\":13110:13116   */\n      0x00\n        /* \"#utility.yul\":13118:13124   */\n      dup1\n        /* \"#utility.yul\":13167:13169   */\n      0x40\n        /* \"#utility.yul\":13155:13164   */\n      dup4\n        /* \"#utility.yul\":13146:13153   */\n      dup6\n        /* \"#utility.yul\":13142:13165   */\n      sub\n        /* \"#utility.yul\":13138:13170   */\n      slt\n        /* \"#utility.yul\":13135:13254   */\n      iszero\n      tag_549\n      jumpi\n        /* \"#utility.yul\":13173:13252   */\n      tag_550\n      tag_322\n      jump\t// in\n    tag_550:\n        /* \"#utility.yul\":13135:13254   */\n    tag_549:\n        /* \"#utility.yul\":13293:13294   */\n      0x00\n        /* \"#utility.yul\":13318:13371   */\n      tag_551\n        /* \"#utility.yul\":13363:13370   */\n      dup6\n        /* \"#utility.yul\":13354:13360   */\n      dup3\n        /* \"#utility.yul\":13343:13352   */\n      dup7\n        /* \"#utility.yul\":13339:13361   */\n      add\n        /* \"#utility.yul\":13318:13371   */\n      tag_335\n      jump\t// in\n    tag_551:\n        /* \"#utility.yul\":13308:13371   */\n      swap3\n      pop\n        /* \"#utility.yul\":13264:13381   */\n      pop\n        /* \"#utility.yul\":13420:13422   */\n      0x20\n        /* \"#utility.yul\":13446:13499   */\n      tag_552\n        /* \"#utility.yul\":13491:13498   */\n      dup6\n        /* \"#utility.yul\":13482:13488   */\n      dup3\n        /* \"#utility.yul\":13471:13480   */\n      dup7\n        /* \"#utility.yul\":13467:13489   */\n      add\n        /* \"#utility.yul\":13446:13499   */\n      tag_335\n      jump\t// in\n    tag_552:\n        /* \"#utility.yul\":13436:13499   */\n      swap2\n      pop\n        /* \"#utility.yul\":13391:13509   */\n      pop\n        /* \"#utility.yul\":13042:13516   */\n      swap3\n      pop\n      swap3\n      swap1\n      pop\n      jump\t// out\n        /* \"#utility.yul\":13522:14055   */\n    tag_122:\n        /* \"#utility.yul\":13691:13695   */\n      0x00\n        /* \"#utility.yul\":13729:13731   */\n      0x60\n        /* \"#utility.yul\":13718:13727   */\n      dup3\n        /* \"#utility.yul\":13714:13732   */\n      add\n        /* \"#utility.yul\":13706:13732   */\n      swap1\n      pop\n        /* \"#utility.yul\":13778:13787   */\n      dup2\n        /* \"#utility.yul\":13772:13776   */\n      dup2\n        /* \"#utility.yul\":13768:13788   */\n      sub\n        /* \"#utility.yul\":13764:13765   */\n      0x00\n        /* \"#utility.yul\":13753:13762   */\n      dup4\n        /* \"#utility.yul\":13749:13766   */\n      add\n        /* \"#utility.yul\":13742:13789   */\n      mstore\n        /* \"#utility.yul\":13806:13884   */\n      tag_554\n        /* \"#utility.yul\":13879:13883   */\n      dup2\n        /* \"#utility.yul\":13870:13876   */\n      dup7\n        /* \"#utility.yul\":13806:13884   */\n      tag_331\n      jump\t// in\n    tag_554:\n        /* \"#utility.yul\":13798:13884   */\n      swap1\n      pop\n        /* \"#utility.yul\":13894:13966   */\n      tag_555\n        /* \"#utility.yul\":13962:13964   */\n      0x20\n        /* \"#utility.yul\":13951:13960   */\n      dup4\n        /* \"#utility.yul\":13947:13965   */\n      add\n        /* \"#utility.yul\":13938:13944   */\n      dup6\n        /* \"#utility.yul\":13894:13966   */\n      tag_338\n      jump\t// in\n    tag_555:\n        /* \"#utility.yul\":13976:14048   */\n      tag_556\n        /* \"#utility.yul\":14044:14046   */\n      0x40\n        /* \"#utility.yul\":14033:14042   */\n      dup4\n        /* \"#utility.yul\":14029:14047   */\n      add\n        /* \"#utility.yul\":14020:14026   */\n      dup5\n        /* \"#utility.yul\":13976:14048   */\n      tag_338\n      jump\t// in\n    tag_556:\n        /* \"#utility.yul\":13522:14055   */\n      swap5\n      swap4\n      pop\n      pop\n      pop\n      pop\n      jump\t// out\n        /* \"#utility.yul\":14061:14231   */\n    tag_360:\n        /* \"#utility.yul\":14201:14223   */\n      0x496e73756666696369656e742062616c616e6365000000000000000000000000\n        /* \"#utility.yul\":14197:14198   */\n      0x00\n        /* \"#utility.yul\":14189:14195   */\n      dup3\n        /* \"#utility.yul\":14185:14199   */\n      add\n        /* \"#utility.yul\":14178:14224   */\n      mstore\n        /* \"#utility.yul\":14061:14231   */\n      pop\n      jump\t// out\n        /* \"#utility.yul\":14237:14603   */\n    tag_361:\n        /* \"#utility.yul\":14379:14382   */\n      0x00\n        /* \"#utility.yul\":14400:14467   */\n      tag_559\n        /* \"#utility.yul\":14464:14466   */\n      0x14\n        /* \"#utility.yul\":14459:14462   */\n      dup4\n        /* \"#utility.yul\":14400:14467   */\n      tag_328\n      jump\t// in\n    tag_559:\n        /* \"#utility.yul\":14393:14467   */\n      swap2\n      pop\n        /* \"#utility.yul\":14476:14569   */\n      tag_560\n        /* \"#utility.yul\":14565:14568   */\n      dup3\n        /* \"#utility.yul\":14476:14569   */\n      tag_360\n      jump\t// in\n    tag_560:\n        /* \"#utility.yul\":14594:14596   */\n      0x20\n        /* \"#utility.yul\":14589:14592   */\n      dup3\n        /* \"#utility.yul\":14585:14597   */\n      add\n        /* \"#utility.yul\":14578:14597   */\n      swap1\n      pop\n        /* \"#utility.yul\":14237:14603   */\n      swap2\n      swap1\n      pop\n      jump\t// out\n        /* \"#utility.yul\":14609:15028   */\n    tag_127:\n        /* \"#utility.yul\":14775:14779   */\n      0x00\n        /* \"#utility.yul\":14813:14815   */\n      0x20\n        /* \"#utility.yul\":14802:14811   */\n      dup3\n        /* \"#utility.yul\":14798:14816   */\n      add\n        /* \"#utility.yul\":14790:14816   */\n      swap1\n      pop\n        /* \"#utility.yul\":14862:14871   */\n      dup2\n        /* \"#utility.yul\":14856:14860   */\n      dup2\n        /* \"#utility.yul\":14852:14872   */\n      sub\n        /* \"#utility.yul\":14848:14849   */\n      0x00\n        /* \"#utility.yul\":14837:14846   */\n      dup4\n        /* \"#utility.yul\":14833:14850   */\n      add\n        /* \"#utility.yul\":14826:14873   */\n      mstore\n        /* \"#utility.yul\":14890:15021   */\n      tag_562\n        /* \"#utility.yul\":15016:15020   */\n      dup2\n        /* \"#utility.yul\":14890:15021   */\n      tag_361\n      jump\t// in\n    tag_562:\n        /* \"#utility.yul\":14882:15021   */\n      swap1\n      pop\n        /* \"#utility.yul\":14609:15028   */\n      swap2\n      swap1\n      pop\n      jump\t// out\n        /* \"#utility.yul\":15034:15214   */\n    tag_362:\n        /* \"#utility.yul\":15082:15159   */\n      0x4e487b7100000000000000000000000000000000000000000000000000000000\n        /* \"#utility.yul\":15079:15080   */\n      0x00\n        /* \"#utility.yul\":15072:15160   */\n      mstore\n        /* \"#utility.yul\":15179:15183   */\n      0x22\n        /* \"#utility.yul\":15176:15177   */\n      0x04\n        /* \"#utility.yul\":15169:15184   */\n      mstore\n        /* \"#utility.yul\":15203:15207   */\n      0x24\n        /* \"#utility.yul\":15200:15201   */\n      0x00\n        /* \"#utility.yul\":15193:15208   */\n      revert\n        /* \"#utility.yul\":15220:15540   */\n    tag_132:\n        /* \"#utility.yul\":15264:15270   */\n      0x00\n        /* \"#utility.yul\":15301:15302   */\n      0x02\n        /* \"#utility.yul\":15295:15299   */\n      dup3\n        /* \"#utility.yul\":15291:15303   */\n      div\n        /* \"#utility.yul\":15281:15303   */\n      swap1\n      pop\n        /* \"#utility.yul\":15348:15349   */\n      0x01\n        /* \"#utility.yul\":15342:15346   */\n      dup3\n        /* \"#utility.yul\":15338:15350   */\n      and\n        /* \"#utility.yul\":15369:15387   */\n      dup1\n        /* \"#utility.yul\":15359:15440   */\n      tag_565\n      jumpi\n        /* \"#utility.yul\":15425:15429   */\n      0x7f\n        /* \"#utility.yul\":15417:15423   */\n      dup3\n        /* \"#utility.yul\":15413:15430   */\n      and\n        /* \"#utility.yul\":15403:15430   */\n      swap2\n      pop\n        /* \"#utility.yul\":15359:15440   */\n    tag_565:\n        /* \"#utility.yul\":15487:15489   */\n      0x20\n        /* \"#utility.yul\":15479:15485   */\n      dup3\n        /* \"#utility.yul\":15476:15490   */\n      lt\n        /* \"#utility.yul\":15456:15474   */\n      dup2\n        /* \"#utility.yul\":15453:15491   */\n      sub\n        /* \"#utility.yul\":15450:15534   */\n      tag_566\n      jumpi\n        /* \"#utility.yul\":15506:15524   */\n      tag_567\n      tag_362\n      jump\t// in\n    tag_567:\n        /* \"#utility.yul\":15450:15534   */\n    tag_566:\n        /* \"#utility.yul\":15271:15540   */\n      pop\n        /* \"#utility.yul\":15220:15540   */\n      swap2\n      swap1\n      pop\n      jump\t// out\n        /* \"#utility.yul\":15546:15721   */\n    tag_363:\n        /* \"#utility.yul\":15686:15713   */\n      0x496e76616c696420726563697069656e74206164647265737300000000000000\n        /* \"#utility.yul\":15682:15683   */\n      0x00\n        /* \"#utility.yul\":15674:15680   */\n      dup3\n        /* \"#utility.yul\":15670:15684   */\n      add\n        /* \"#utility.yul\":15663:15714   */\n      mstore\n        /* \"#utility.yul\":15546:15721   */\n      pop\n      jump\t// out\n        /* \"#utility.yul\":15727:16093   */\n    tag_364:\n        /* \"#utility.yul\":15869:15872   */\n      0x00\n        /* \"#utility.yul\":15890:15957   */\n      tag_570\n        /* \"#utility.yul\":15954:15956   */\n      0x19\n        /* \"#utility.yul\":15949:15952   */\n      dup4\n        /* \"#utility.yul\":15890:15957   */\n      tag_328\n      jump\t// in\n    tag_570:\n        /* \"#utility.yul\":15883:15957   */\n      swap2\n      pop\n        /* \"#utility.yul\":15966:16059   */\n      tag_571\n        /* \"#utility.yul\":16055:16058   */\n      dup3\n        /* \"#utility.yul\":15966:16059   */\n      tag_363\n      jump\t// in\n    tag_571:\n        /* \"#utility.yul\":16084:16086   */\n      0x20\n        /* \"#utility.yul\":16079:16082   */\n      dup3\n        /* \"#utility.yul\":16075:16087   */\n      add\n        /* \"#utility.yul\":16068:16087   */\n      swap1\n      pop\n        /* \"#utility.yul\":15727:16093   */\n      swap2\n      swap1\n      pop\n      jump\t// out\n        /* \"#utility.yul\":16099:16518   */\n    tag_152:\n        /* \"#utility.yul\":16265:16269   */\n      0x00\n        /* \"#utility.yul\":16303:16305   */\n      0x20\n        /* \"#utility.yul\":16292:16301   */\n      dup3\n        /* \"#utility.yul\":16288:16306   */\n      add\n        /* \"#utility.yul\":16280:16306   */\n      swap1\n      pop\n        /* \"#utility.yul\":16352:16361   */\n      dup2\n        /* \"#utility.yul\":16346:16350   */\n      dup2\n        /* \"#utility.yul\":16342:16362   */\n      sub\n        /* \"#utility.yul\":16338:16339   */\n      0x00\n        /* \"#utility.yul\":16327:16336   */\n      dup4\n        /* \"#utility.yul\":16323:16340   */\n      add\n        /* \"#utility.yul\":16316:16363   */\n      mstore\n        /* \"#utility.yul\":16380:16511   */\n      tag_573\n        /* \"#utility.yul\":16506:16510   */\n      dup2\n        /* \"#utility.yul\":16380:16511   */\n      tag_364\n      jump\t// in\n    tag_573:\n        /* \"#utility.yul\":16372:16511   */\n      swap1\n      pop\n        /* \"#utility.yul\":16099:16518   */\n      swap2\n      swap1\n      pop\n      jump\t// out\n        /* \"#utility.yul\":16524:16704   */\n    tag_365:\n        /* \"#utility.yul\":16572:16649   */\n      0x4e487b7100000000000000000000000000000000000000000000000000000000\n        /* \"#utility.yul\":16569:16570   */\n      0x00\n        /* \"#utility.yul\":16562:16650   */\n      mstore\n        /* \"#utility.yul\":16669:16673   */\n      0x11\n        /* \"#utility.yul\":16666:16667   */\n      0x04\n        /* \"#utility.yul\":16659:16674   */\n      mstore\n        /* \"#utility.yul\":16693:16697   */\n      0x24\n        /* \"#utility.yul\":16690:16691   */\n      0x00\n        /* \"#utility.yul\":16683:16698   */\n      revert\n        /* \"#utility.yul\":16710:16901   */\n    tag_162:\n        /* \"#utility.yul\":16750:16753   */\n      0x00\n        /* \"#utility.yul\":16769:16789   */\n      tag_576\n        /* \"#utility.yul\":16787:16788   */\n      dup3\n        /* \"#utility.yul\":16769:16789   */\n      tag_324\n      jump\t// in\n    tag_576:\n        /* \"#utility.yul\":16764:16789   */\n      swap2\n      pop\n        /* \"#utility.yul\":16803:16823   */\n      tag_577\n        /* \"#utility.yul\":16821:16822   */\n      dup4\n        /* \"#utility.yul\":16803:16823   */\n      tag_324\n      jump\t// in\n    tag_577:\n        /* \"#utility.yul\":16798:16823   */\n      swap3\n      pop\n        /* \"#utility.yul\":16846:16847   */\n      dup3\n        /* \"#utility.yul\":16843:16844   */\n      dup3\n        /* \"#utility.yul\":16839:16848   */\n      add\n        /* \"#utility.yul\":16832:16848   */\n      swap1\n      pop\n        /* \"#utility.yul\":16867:16870   */\n      dup1\n        /* \"#utility.yul\":16864:16865   */\n      dup3\n        /* \"#utility.yul\":16861:16871   */\n      gt\n        /* \"#utility.yul\":16858:16894   */\n      iszero\n      tag_578\n      jumpi\n        /* \"#utility.yul\":16874:16892   */\n      tag_579\n      tag_365\n      jump\t// in\n    tag_579:\n        /* \"#utility.yul\":16858:16894   */\n    tag_578:\n        /* \"#utility.yul\":16710:16901   */\n      swap3\n      swap2\n      pop\n      pop\n      jump\t// out\n        /* \"#utility.yul\":16907:17101   */\n    tag_180:\n        /* \"#utility.yul\":16947:16951   */\n      0x00\n        /* \"#utility.yul\":16967:16987   */\n      tag_581\n        /* \"#utility.yul\":16985:16986   */\n      dup3\n        /* \"#utility.yul\":16967:16987   */\n      tag_324\n      jump\t// in\n    tag_581:\n        /* \"#utility.yul\":16962:16987   */\n      swap2\n      pop\n        /* \"#utility.yul\":17001:17021   */\n      tag_582\n        /* \"#utility.yul\":17019:17020   */\n      dup4\n        /* \"#utility.yul\":17001:17021   */\n      tag_324\n      jump\t// in\n    tag_582:\n        /* \"#utility.yul\":16996:17021   */\n      swap3\n      pop\n        /* \"#utility.yul\":17045:17046   */\n      dup3\n        /* \"#utility.yul\":17042:17043   */\n      dup3\n        /* \"#utility.yul\":17038:17047   */\n      sub\n        /* \"#utility.yul\":17030:17047   */\n      swap1\n      pop\n        /* \"#utility.yul\":17069:17070   */\n      dup2\n        /* \"#utility.yul\":17063:17067   */\n      dup2\n        /* \"#utility.yul\":17060:17071   */\n      gt\n        /* \"#utility.yul\":17057:17094   */\n      iszero\n      tag_583\n      jumpi\n        /* \"#utility.yul\":17074:17092   */\n      tag_584\n      tag_365\n      jump\t// in\n    tag_584:\n        /* \"#utility.yul\":17057:17094   */\n    tag_583:\n        /* \"#utility.yul\":16907:17101   */\n      swap3\n      swap2\n      pop\n      pop\n      jump\t// out\n        /* \"#utility.yul\":17107:17287   */\n    tag_183:\n        /* \"#utility.yul\":17155:17232   */\n      0x4e487b7100000000000000000000000000000000000000000000000000000000\n        /* \"#utility.yul\":17152:17153   */\n      0x00\n        /* \"#utility.yul\":17145:17233   */\n      mstore\n        /* \"#utility.yul\":17252:17256   */\n      0x32\n        /* \"#utility.yul\":17249:17250   */\n      0x04\n        /* \"#utility.yul\":17242:17257   */\n      mstore\n        /* \"#utility.yul\":17276:17280   */\n      0x24\n        /* \"#utility.yul\":17273:17274   */\n      0x00\n        /* \"#utility.yul\":17266:17281   */\n      revert\n        /* \"#utility.yul\":17293:17526   */\n    tag_185:\n        /* \"#utility.yul\":17332:17335   */\n      0x00\n        /* \"#utility.yul\":17355:17379   */\n      tag_587\n        /* \"#utility.yul\":17373:17378   */\n      dup3\n        /* \"#utility.yul\":17355:17379   */\n      tag_324\n      jump\t// in\n    tag_587:\n        /* \"#utility.yul\":17346:17379   */\n      swap2\n      pop\n        /* \"#utility.yul\":17401:17467   */\n      0xffffffffffffffffffffffffffffffffffffffffffffffffffffffffffffffff\n        /* \"#utility.yul\":17394:17399   */\n      dup3\n        /* \"#utility.yul\":17391:17468   */\n      sub\n        /* \"#utility.yul\":17388:17491   */\n      tag_588\n      jumpi\n        /* \"#utility.yul\":17471:17489   */\n      tag_589\n      tag_365\n      jump\t// in\n    tag_589:\n        /* \"#utility.yul\":17388:17491   */\n    tag_588:\n        /* \"#utility.yul\":17518:17519   */\n      0x01\n        /* \"#utility.yul\":17511:17516   */\n      dup3\n        /* \"#utility.yul\":17507:17520   */\n      add\n        /* \"#utility.yul\":17500:17520   */\n      swap1\n      pop\n        /* \"#utility.yul\":17293:17526   */\n      swap2\n      swap1\n      pop\n      jump\t// out\n        /* \"#utility.yul\":17532:17756   */\n    tag_366:\n        /* \"#utility.yul\":17672:17706   */\n      0x45524332303a2064656372656173656420616c6c6f77616e63652062656c6f77\n        /* \"#utility.yul\":17668:17669   */\n      0x00\n        /* \"#utility.yul\":17660:17666   */\n      dup3\n        /* \"#utility.yul\":17656:17670   */\n      add\n        /* \"#utility.yul\":17649:17707   */\n      mstore\n        /* \"#utility.yul\":17741:17748   */\n      0x207a65726f000000000000000000000000000000000000000000000000000000\n        /* \"#utility.yul\":17736:17738   */\n      0x20\n        /* \"#utility.yul\":17728:17734   */\n      dup3\n        /* \"#utility.yul\":17724:17739   */\n      add\n        /* \"#utility.yul\":17717:17749   */\n      mstore\n        /* \"#utility.yul\":17532:17756   */\n      pop\n      jump\t// out\n        /* \"#utility.yul\":17762:18128   */\n    tag_367:\n        /* \"#utility.yul\":17904:17907   */\n      0x00\n        /* \"#utility.yul\":17925:17992   */\n      tag_592\n        /* \"#utility.yul\":17989:17991   */\n      0x25\n        /* \"#utility.yul\":17984:17987   */\n      dup4\n        /* \"#utility.yul\":17925:17992   */\n      tag_328\n      jump\t// in\n    tag_592:\n        /* \"#utility.yul\":17918:17992   */\n      swap2\n      pop\n        /* \"#utility.yul\":18001:18094   */\n      tag_593\n        /* \"#utility.yul\":18090:18093   */\n      dup3\n        /* \"#utility.yul\":18001:18094   */\n      tag_366\n      jump\t// in\n    tag_593:\n        /* \"#utility.yul\":18119:18121   */\n      0x40\n        /* \"#utility.yul\":18114:18117   */\n      dup3\n        /* \"#utility.yul\":18110:18122   */\n      add\n        /* \"#utility.yul\":18103:18122   */\n      swap1\n      pop\n        /* \"#utility.yul\":17762:18128   */\n      swap2\n      swap1\n      pop\n      jump\t// out\n        /* \"#utility.yul\":18134:18553   */\n    tag_210:\n        /* \"#utility.yul\":18300:18304   */\n      0x00\n        /* \"#utility.yul\":18338:18340   */\n      0x20\n        /* \"#utility.yul\":18327:18336   */\n      dup3\n        /* \"#utility.yul\":18323:18341   */\n      add\n        /* \"#utility.yul\":18315:18341   */\n      swap1\n      pop\n        /* \"#utility.yul\":18387:18396   */\n      dup2\n        /* \"#utility.yul\":18381:18385   */\n      dup2\n        /* \"#utility.yul\":18377:18397   */\n      sub\n        /* \"#utility.yul\":18373:18374   */\n      0x00\n        /* \"#utility.yul\":18362:18371   */\n      dup4\n        /* \"#utility.yul\":18358:18375   */\n      add\n        /* \"#utility.yul\":18351:18398   */\n      mstore\n        /* \"#utility.yul\":18415:18546   */\n      tag_595\n        /* \"#utility.yul\":18541:18545   */\n      dup2\n        /* \"#utility.yul\":18415:18546   */\n      tag_367\n      jump\t// in\n    tag_595:\n        /* \"#utility.yul\":18407:18546   */\n      swap1\n      pop\n        /* \"#utility.yul\":18134:18553   */\n      swap2\n      swap1\n      pop\n      jump\t// out\n        /* \"#utility.yul\":18559:18736   */\n    tag_368:\n        /* \"#utility.yul\":18699:18728   */\n      0x50726963652073686f756c64206265206d6f7265207468616e20300000000000\n        /* \"#utility.yul\":18695:18696   */\n      0x00\n        /* \"#utility.yul\":18687:18693   */\n      dup3\n        /* \"#utility.yul\":18683:18697   */\n      add\n        /* \"#utility.yul\":18676:18729   */\n      mstore\n        /* \"#utility.yul\":18559:18736   */\n      pop\n      jump\t// out\n        /* \"#utility.yul\":18742:19108   */\n    tag_369:\n        /* \"#utility.yul\":18884:18887   */\n      0x00\n        /* \"#utility.yul\":18905:18972   */\n      tag_598\n        /* \"#utility.yul\":18969:18971   */\n      0x1b\n        /* \"#utility.yul\":18964:18967   */\n      dup4\n        /* \"#utility.yul\":18905:18972   */\n      tag_328\n      jump\t// in\n    tag_598:\n        /* \"#utility.yul\":18898:18972   */\n      swap2\n      pop\n        /* \"#utility.yul\":18981:19074   */\n      tag_599\n        /* \"#utility.yul\":19070:19073   */\n      dup3\n        /* \"#utility.yul\":18981:19074   */\n      tag_368\n      jump\t// in\n    tag_599:\n        /* \"#utility.yul\":19099:19101   */\n      0x20\n        /* \"#utility.yul\":19094:19097   */\n      dup3\n        /* \"#utility.yul\":19090:19102   */\n      add\n        /* \"#utility.yul\":19083:19102   */\n      swap1\n      pop\n        /* \"#utility.yul\":18742:19108   */\n      swap2\n      swap1\n      pop\n      jump\t// out\n        /* \"#utility.yul\":19114:19533   */\n    tag_220:\n        /* \"#utility.yul\":19280:19284   */\n      0x00\n        /* \"#utility.yul\":19318:19320   */\n      0x20\n        /* \"#utility.yul\":19307:19316   */\n      dup3\n        /* \"#utility.yul\":19303:19321   */\n      add\n        /* \"#utility.yul\":19295:19321   */\n      swap1\n      pop\n        /* \"#utility.yul\":19367:19376   */\n      dup2\n        /* \"#utility.yul\":19361:19365   */\n      dup2\n        /* \"#utility.yul\":19357:19377   */\n      sub\n        /* \"#utility.yul\":19353:19354   */\n      0x00\n        /* \"#utility.yul\":19342:19351   */\n      dup4\n        /* \"#utility.yul\":19338:19355   */\n      add\n        /* \"#utility.yul\":19331:19378   */\n      mstore\n        /* \"#utility.yul\":19395:19526   */\n      tag_601\n        /* \"#utility.yul\":19521:19525   */\n      dup2\n        /* \"#utility.yul\":19395:19526   */\n      tag_369\n      jump\t// in\n    tag_601:\n        /* \"#utility.yul\":19387:19526   */\n      swap1\n      pop\n        /* \"#utility.yul\":19114:19533   */\n      swap2\n      swap1\n      pop\n      jump\t// out\n        /* \"#utility.yul\":19539:19716   */\n    tag_370:\n        /* \"#utility.yul\":19679:19708   */\n      0x53746f636b2073686f756c64206265206d6f7265207468616e20300000000000\n        /* \"#utility.yul\":19675:19676   */\n      0x00\n        /* \"#utility.yul\":19667:19673   */\n      dup3\n        /* \"#utility.yul\":19663:19677   */\n      add\n        /* \"#utility.yul\":19656:19709   */\n      mstore\n        /* \"#utility.yul\":19539:19716   */\n      pop\n      jump\t// out\n        /* \"#utility.yul\":19722:20088   */\n    tag_371:\n        /* \"#utility.yul\":19864:19867   */\n      0x00\n        /* \"#utility.yul\":19885:19952   */\n      tag_604\n        /* \"#utility.yul\":19949:19951   */\n      0x1b\n        /* \"#utility.yul\":19944:19947   */\n      dup4\n        /* \"#utility.yul\":19885:19952   */\n      tag_328\n      jump\t// in\n    tag_604:\n        /* \"#utility.yul\":19878:19952   */\n      swap2\n      pop\n        /* \"#utility.yul\":19961:20054   */\n      tag_605\n        /* \"#utility.yul\":20050:20053   */\n      dup3\n        /* \"#utility.yul\":19961:20054   */\n      tag_370\n      jump\t// in\n    tag_605:\n        /* \"#utility.yul\":20079:20081   */\n      0x20\n        /* \"#utility.yul\":20074:20077   */\n      dup3\n        /* \"#utility.yul\":20070:20082   */\n      add\n        /* \"#utility.yul\":20063:20082   */\n      swap1\n      pop\n        /* \"#utility.yul\":19722:20088   */\n      swap2\n      swap1\n      pop\n      jump\t// out\n        /* \"#utility.yul\":20094:20513   */\n    tag_223:\n        /* \"#utility.yul\":20260:20264   */\n      0x00\n        /* \"#utility.yul\":20298:20300   */\n      0x20\n        /* \"#utility.yul\":20287:20296   */\n      dup3\n        /* \"#utility.yul\":20283:20301   */\n      add\n        /* \"#utility.yul\":20275:20301   */\n      swap1\n      pop\n        /* \"#utility.yul\":20347:20356   */\n      dup2\n        /* \"#utility.yul\":20341:20345   */\n      dup2\n        /* \"#utility.yul\":20337:20357   */\n      sub\n        /* \"#utility.yul\":20333:20334   */\n      0x00\n        /* \"#utility.yul\":20322:20331   */\n      dup4\n        /* \"#utility.yul\":20318:20335   */\n      add\n        /* \"#utility.yul\":20311:20358   */\n      mstore\n        /* \"#utility.yul\":20375:20506   */\n      tag_607\n        /* \"#utility.yul\":20501:20505   */\n      dup2\n        /* \"#utility.yul\":20375:20506   */\n      tag_371\n      jump\t// in\n    tag_607:\n        /* \"#utility.yul\":20367:20506   */\n      swap1\n      pop\n        /* \"#utility.yul\":20094:20513   */\n      swap2\n      swap1\n      pop\n      jump\t// out\n        /* \"#utility.yul\":20519:20660   */\n    tag_372:\n        /* \"#utility.yul\":20568:20572   */\n      0x00\n        /* \"#utility.yul\":20591:20594   */\n      dup2\n        /* \"#utility.yul\":20583:20594   */\n      swap1\n      pop\n        /* \"#utility.yul\":20614:20617   */\n      dup2\n        /* \"#utility.yul\":20611:20612   */\n      0x00\n        /* \"#utility.yul\":20604:20618   */\n      mstore\n        /* \"#utility.yul\":20648:20652   */\n      0x20\n        /* \"#utility.yul\":20645:20646   */\n      0x00\n        /* \"#utility.yul\":20635:20653   */\n      keccak256\n        /* \"#utility.yul\":20627:20653   */\n      swap1\n      pop\n        /* \"#utility.yul\":20519:20660   */\n      swap2\n      swap1\n      pop\n      jump\t// out\n        /* \"#utility.yul\":20666:20759   */\n    tag_373:\n        /* \"#utility.yul\":20703:20709   */\n      0x00\n        /* \"#utility.yul\":20750:20752   */\n      0x20\n        /* \"#utility.yul\":20745:20747   */\n      0x1f\n        /* \"#utility.yul\":20738:20743   */\n      dup4\n        /* \"#utility.yul\":20734:20748   */\n      add\n        /* \"#utility.yul\":20730:20753   */\n      div\n        /* \"#utility.yul\":20720:20753   */\n      swap1\n      pop\n        /* \"#utility.yul\":20666:20759   */\n      swap2\n      swap1\n      pop\n      jump\t// out\n        /* \"#utility.yul\":20765:20872   */\n    tag_374:\n        /* \"#utility.yul\":20809:20817   */\n      0x00\n        /* \"#utility.yul\":20859:20864   */\n      dup3\n        /* \"#utility.yul\":20853:20857   */\n      dup3\n        /* \"#utility.yul\":20849:20865   */\n      shl\n        /* \"#utility.yul\":20828:20865   */\n      swap1\n      pop\n        /* \"#utility.yul\":20765:20872   */\n      swap3\n      swap2\n      pop\n      pop\n      jump\t// out\n        /* \"#utility.yul\":20878:21271   */\n    tag_375:\n        /* \"#utility.yul\":20947:20953   */\n      0x00\n        /* \"#utility.yul\":20997:20998   */\n      0x08\n        /* \"#utility.yul\":20985:20995   */\n      dup4\n        /* \"#utility.yul\":20981:20999   */\n      mul\n        /* \"#utility.yul\":21020:21117   */\n      tag_612\n        /* \"#utility.yul\":21050:21116   */\n      0xffffffffffffffffffffffffffffffffffffffffffffffffffffffffffffffff\n        /* \"#utility.yul\":21039:21048   */\n      dup3\n        /* \"#utility.yul\":21020:21117   */\n      tag_374\n      jump\t// in\n    tag_612:\n        /* \"#utility.yul\":21138:21177   */\n      tag_613\n        /* \"#utility.yul\":21168:21176   */\n      dup7\n        /* \"#utility.yul\":21157:21166   */\n      dup4\n        /* \"#utility.yul\":21138:21177   */\n      tag_374\n      jump\t// in\n    tag_613:\n        /* \"#utility.yul\":21126:21177   */\n      swap6\n      pop\n        /* \"#utility.yul\":21210:21214   */\n      dup1\n        /* \"#utility.yul\":21206:21215   */\n      not\n        /* \"#utility.yul\":21199:21204   */\n      dup5\n        /* \"#utility.yul\":21195:21216   */\n      and\n        /* \"#utility.yul\":21186:21216   */\n      swap4\n      pop\n        /* \"#utility.yul\":21259:21263   */\n      dup1\n        /* \"#utility.yul\":21249:21257   */\n      dup7\n        /* \"#utility.yul\":21245:21264   */\n      and\n        /* \"#utility.yul\":21238:21243   */\n      dup5\n        /* \"#utility.yul\":21235:21265   */\n      or\n        /* \"#utility.yul\":21225:21265   */\n      swap3\n      pop\n        /* \"#utility.yul\":20954:21271   */\n      pop\n      pop\n        /* \"#utility.yul\":20878:21271   */\n      swap4\n      swap3\n      pop\n      pop\n      pop\n      jump\t// out\n        /* \"#utility.yul\":21277:21337   */\n    tag_376:\n        /* \"#utility.yul\":21305:21308   */\n      0x00\n        /* \"#utility.yul\":21326:21331   */\n      dup2\n        /* \"#utility.yul\":21319:21331   */\n      swap1\n      pop\n        /* \"#utility.yul\":21277:21337   */\n      swap2\n      swap1\n      pop\n      jump\t// out\n        /* \"#utility.yul\":21343:21485   */\n    tag_377:\n        /* \"#utility.yul\":21393:21402   */\n      0x00\n        /* \"#utility.yul\":21426:21479   */\n      tag_616\n        /* \"#utility.yul\":21444:21478   */\n      tag_617\n        /* \"#utility.yul\":21453:21477   */\n      tag_618\n        /* \"#utility.yul\":21471:21476   */\n      dup5\n        /* \"#utility.yul\":21453:21477   */\n      tag_324\n      jump\t// in\n    tag_618:\n        /* \"#utility.yul\":21444:21478   */\n      tag_376\n      jump\t// in\n    tag_617:\n        /* \"#utility.yul\":21426:21479   */\n      tag_324\n      jump\t// in\n    tag_616:\n        /* \"#utility.yul\":21413:21479   */\n      swap1\n      pop\n        /* \"#utility.yul\":21343:21485   */\n      swap2\n      swap1\n      pop\n      jump\t// out\n        /* \"#utility.yul\":21491:21566   */\n    tag_378:\n        /* \"#utility.yul\":21534:21537   */\n      0x00\n        /* \"#utility.yul\":21555:21560   */\n      dup2\n        /* \"#utility.yul\":21548:21560   */\n      swap1\n      pop\n        /* \"#utility.yul\":21491:21566   */\n      swap2\n      swap1\n      pop\n      jump\t// out\n        /* \"#utility.yul\":21572:21841   */\n    tag_379:\n        /* \"#utility.yul\":21682:21721   */\n      tag_621\n        /* \"#utility.yul\":21713:21720   */\n      dup4\n        /* \"#utility.yul\":21682:21721   */\n      tag_377\n      jump\t// in\n    tag_621:\n        /* \"#utility.yul\":21743:21834   */\n      tag_622\n        /* \"#utility.yul\":21792:21833   */\n      tag_623\n        /* \"#utility.yul\":21816:21832   */\n      dup3\n        /* \"#utility.yul\":21792:21833   */\n      tag_378\n      jump\t// in\n    tag_623:\n        /* \"#utility.yul\":21784:21790   */\n      dup5\n        /* \"#utility.yul\":21777:21781   */\n      dup5\n        /* \"#utility.yul\":21771:21782   */\n      sload\n        /* \"#utility.yul\":21743:21834   */\n      tag_375\n      jump\t// in\n    tag_622:\n        /* \"#utility.yul\":21737:21741   */\n      dup3\n        /* \"#utility.yul\":21730:21835   */\n      sstore\n        /* \"#utility.yul\":21648:21841   */\n      pop\n        /* \"#utility.yul\":21572:21841   */\n      pop\n      pop\n      pop\n      jump\t// out\n        /* \"#utility.yul\":21847:21920   */\n    tag_380:\n        /* \"#utility.yul\":21892:21895   */\n      0x00\n        /* \"#utility.yul\":21847:21920   */\n      swap1\n      jump\t// out\n        /* \"#utility.yul\":21926:22115   */\n    tag_381:\n        /* \"#utility.yul\":22003:22035   */\n      tag_626\n      tag_380\n      jump\t// in\n    tag_626:\n        /* \"#utility.yul\":22044:22109   */\n      tag_627\n        /* \"#utility.yul\":22102:22108   */\n      dup2\n        /* \"#utility.yul\":22094:22100   */\n      dup5\n        /* \"#utility.yul\":22088:22092   */\n      dup5\n        /* \"#utility.yul\":22044:22109   */\n      tag_379\n      jump\t// in\n    tag_627:\n        /* \"#utility.yul\":21979:22115   */\n      pop\n        /* \"#utility.yul\":21926:22115   */\n      pop\n      pop\n      jump\t// out\n        /* \"#utility.yul\":22121:22307   */\n    tag_382:\n        /* \"#utility.yul\":22181:22301   */\n    tag_629:\n        /* \"#utility.yul\":22198:22201   */\n      dup2\n        /* \"#utility.yul\":22191:22196   */\n      dup2\n        /* \"#utility.yul\":22188:22202   */\n      lt\n        /* \"#utility.yul\":22181:22301   */\n      iszero\n      tag_631\n      jumpi\n        /* \"#utility.yul\":22252:22291   */\n      tag_632\n        /* \"#utility.yul\":22289:22290   */\n      0x00\n        /* \"#utility.yul\":22282:22287   */\n      dup3\n        /* \"#utility.yul\":22252:22291   */\n      tag_381\n      jump\t// in\n    tag_632:\n        /* \"#utility.yul\":22225:22226   */\n      0x01\n        /* \"#utility.yul\":22218:22223   */\n      dup2\n        /* \"#utility.yul\":22214:22227   */\n      add\n        /* \"#utility.yul\":22205:22227   */\n      swap1\n      pop\n        /* \"#utility.yul\":22181:22301   */\n      jump(tag_629)\n    tag_631:\n        /* \"#utility.yul\":22121:22307   */\n      pop\n      pop\n      jump\t// out\n        /* \"#utility.yul\":22313:22856   */\n    tag_383:\n        /* \"#utility.yul\":22414:22416   */\n      0x1f\n        /* \"#utility.yul\":22409:22412   */\n      dup3\n        /* \"#utility.yul\":22406:22417   */\n      gt\n        /* \"#utility.yul\":22403:22849   */\n      iszero\n      tag_634\n      jumpi\n        /* \"#utility.yul\":22448:22486   */\n      tag_635\n        /* \"#utility.yul\":22480:22485   */\n      dup2\n        /* \"#utility.yul\":22448:22486   */\n      tag_372\n      jump\t// in\n    tag_635:\n        /* \"#utility.yul\":22532:22561   */\n      tag_636\n        /* \"#utility.yul\":22550:22560   */\n      dup5\n        /* \"#utility.yul\":22532:22561   */\n      tag_373\n      jump\t// in\n    tag_636:\n        /* \"#utility.yul\":22522:22530   */\n      dup2\n        /* \"#utility.yul\":22518:22562   */\n      add\n        /* \"#utility.yul\":22715:22717   */\n      0x20\n        /* \"#utility.yul\":22703:22713   */\n      dup6\n        /* \"#utility.yul\":22700:22718   */\n      lt\n        /* \"#utility.yul\":22697:22746   */\n      iszero\n      tag_637\n      jumpi\n        /* \"#utility.yul\":22736:22744   */\n      dup2\n        /* \"#utility.yul\":22721:22744   */\n      swap1\n      pop\n        /* \"#utility.yul\":22697:22746   */\n    tag_637:\n        /* \"#utility.yul\":22759:22839   */\n      tag_638\n        /* \"#utility.yul\":22815:22837   */\n      tag_639\n        /* \"#utility.yul\":22833:22836   */\n      dup6\n        /* \"#utility.yul\":22815:22837   */\n      tag_373\n      jump\t// in\n    tag_639:\n        /* \"#utility.yul\":22805:22813   */\n      dup4\n        /* \"#utility.yul\":22801:22838   */\n      add\n        /* \"#utility.yul\":22788:22799   */\n      dup3\n        /* \"#utility.yul\":22759:22839   */\n      tag_382\n      jump\t// in\n    tag_638:\n        /* \"#utility.yul\":22418:22849   */\n      pop\n      pop\n        /* \"#utility.yul\":22403:22849   */\n    tag_634:\n        /* \"#utility.yul\":22313:22856   */\n      pop\n      pop\n      pop\n      jump\t// out\n        /* \"#utility.yul\":22862:22979   */\n    tag_384:\n        /* \"#utility.yul\":22916:22924   */\n      0x00\n        /* \"#utility.yul\":22966:22971   */\n      dup3\n        /* \"#utility.yul\":22960:22964   */\n      dup3\n        /* \"#utility.yul\":22956:22972   */\n      shr\n        /* \"#utility.yul\":22935:22972   */\n      swap1\n      pop\n        /* \"#utility.yul\":22862:22979   */\n      swap3\n      swap2\n      pop\n      pop\n      jump\t// out\n        /* \"#utility.yul\":22985:23154   */\n    tag_385:\n        /* \"#utility.yul\":23029:23035   */\n      0x00\n        /* \"#utility.yul\":23062:23113   */\n      tag_642\n        /* \"#utility.yul\":23110:23111   */\n      0x00\n        /* \"#utility.yul\":23106:23112   */\n      not\n        /* \"#utility.yul\":23098:23103   */\n      dup5\n        /* \"#utility.yul\":23095:23096   */\n      0x08\n        /* \"#utility.yul\":23091:23104   */\n      mul\n        /* \"#utility.yul\":23062:23113   */\n      tag_384\n      jump\t// in\n    tag_642:\n        /* \"#utility.yul\":23058:23114   */\n      not\n        /* \"#utility.yul\":23143:23147   */\n      dup1\n        /* \"#utility.yul\":23137:23141   */\n      dup4\n        /* \"#utility.yul\":23133:23148   */\n      and\n        /* \"#utility.yul\":23123:23148   */\n      swap2\n      pop\n        /* \"#utility.yul\":23036:23154   */\n      pop\n        /* \"#utility.yul\":22985:23154   */\n      swap3\n      swap2\n      pop\n      pop\n      jump\t// out\n        /* \"#utility.yul\":23159:23454   */\n    tag_386:\n        /* \"#utility.yul\":23235:23239   */\n      0x00\n        /* \"#utility.yul\":23381:23410   */\n      tag_644\n        /* \"#utility.yul\":23406:23409   */\n      dup4\n        /* \"#utility.yul\":23400:23404   */\n      dup4\n        /* \"#utility.yul\":23381:23410   */\n      tag_385\n      jump\t// in\n    tag_644:\n        /* \"#utility.yul\":23373:23410   */\n      swap2\n      pop\n        /* \"#utility.yul\":23443:23446   */\n      dup3\n        /* \"#utility.yul\":23440:23441   */\n      0x02\n        /* \"#utility.yul\":23436:23447   */\n      mul\n        /* \"#utility.yul\":23430:23434   */\n      dup3\n        /* \"#utility.yul\":23427:23448   */\n      or\n        /* \"#utility.yul\":23419:23448   */\n      swap1\n      pop\n        /* \"#utility.yul\":23159:23454   */\n      swap3\n      swap2\n      pop\n      pop\n      jump\t// out\n        /* \"#utility.yul\":23459:24854   */\n    tag_226:\n        /* \"#utility.yul\":23576:23613   */\n      tag_646\n        /* \"#utility.yul\":23609:23612   */\n      dup3\n        /* \"#utility.yul\":23576:23613   */\n      tag_327\n      jump\t// in\n    tag_646:\n        /* \"#utility.yul\":23678:23696   */\n      0xffffffffffffffff\n        /* \"#utility.yul\":23670:23676   */\n      dup2\n        /* \"#utility.yul\":23667:23697   */\n      gt\n        /* \"#utility.yul\":23664:23720   */\n      iszero\n      tag_647\n      jumpi\n        /* \"#utility.yul\":23700:23718   */\n      tag_648\n      tag_166\n      jump\t// in\n    tag_648:\n        /* \"#utility.yul\":23664:23720   */\n    tag_647:\n        /* \"#utility.yul\":23744:23782   */\n      tag_649\n        /* \"#utility.yul\":23776:23780   */\n      dup3\n        /* \"#utility.yul\":23770:23781   */\n      sload\n        /* \"#utility.yul\":23744:23782   */\n      tag_132\n      jump\t// in\n    tag_649:\n        /* \"#utility.yul\":23829:23896   */\n      tag_650\n        /* \"#utility.yul\":23889:23895   */\n      dup3\n        /* \"#utility.yul\":23881:23887   */\n      dup3\n        /* \"#utility.yul\":23875:23879   */\n      dup6\n        /* \"#utility.yul\":23829:23896   */\n      tag_383\n      jump\t// in\n    tag_650:\n        /* \"#utility.yul\":23923:23924   */\n      0x00\n        /* \"#utility.yul\":23947:23951   */\n      0x20\n        /* \"#utility.yul\":23934:23951   */\n      swap1\n      pop\n        /* \"#utility.yul\":23979:23981   */\n      0x1f\n        /* \"#utility.yul\":23971:23977   */\n      dup4\n        /* \"#utility.yul\":23968:23982   */\n      gt\n        /* \"#utility.yul\":23996:23997   */\n      0x01\n        /* \"#utility.yul\":23991:24609   */\n      dup2\n      eq\n      tag_652\n      jumpi\n        /* \"#utility.yul\":24653:24654   */\n      0x00\n        /* \"#utility.yul\":24670:24676   */\n      dup5\n        /* \"#utility.yul\":24667:24744   */\n      iszero\n      tag_653\n      jumpi\n        /* \"#utility.yul\":24719:24728   */\n      dup3\n        /* \"#utility.yul\":24714:24717   */\n      dup8\n        /* \"#utility.yul\":24710:24729   */\n      add\n        /* \"#utility.yul\":24704:24730   */\n      mload\n        /* \"#utility.yul\":24695:24730   */\n      swap1\n      pop\n        /* \"#utility.yul\":24667:24744   */\n    tag_653:\n        /* \"#utility.yul\":24770:24837   */\n      tag_654\n        /* \"#utility.yul\":24830:24836   */\n      dup6\n        /* \"#utility.yul\":24823:24828   */\n      dup3\n        /* \"#utility.yul\":24770:24837   */\n      tag_386\n      jump\t// in\n    tag_654:\n        /* \"#utility.yul\":24764:24768   */\n      dup7\n        /* \"#utility.yul\":24757:24838   */\n      sstore\n        /* \"#utility.yul\":24626:24848   */\n      pop\n        /* \"#utility.yul\":23961:24848   */\n      jump(tag_651)\n        /* \"#utility.yul\":23991:24609   */\n    tag_652:\n        /* \"#utility.yul\":24043:24047   */\n      0x1f\n        /* \"#utility.yul\":24039:24048   */\n      not\n        /* \"#utility.yul\":24031:24037   */\n      dup5\n        /* \"#utility.yul\":24027:24049   */\n      and\n        /* \"#utility.yul\":24077:24114   */\n      tag_655\n        /* \"#utility.yul\":24109:24113   */\n      dup7\n        /* \"#utility.yul\":24077:24114   */\n      tag_372\n      jump\t// in\n    tag_655:\n        /* \"#utility.yul\":24136:24137   */\n      0x00\n        /* \"#utility.yul\":24150:24358   */\n    tag_656:\n        /* \"#utility.yul\":24164:24171   */\n      dup3\n        /* \"#utility.yul\":24161:24162   */\n      dup2\n        /* \"#utility.yul\":24158:24172   */\n      lt\n        /* \"#utility.yul\":24150:24358   */\n      iszero\n      tag_658\n      jumpi\n        /* \"#utility.yul\":24243:24252   */\n      dup5\n        /* \"#utility.yul\":24238:24241   */\n      dup10\n        /* \"#utility.yul\":24234:24253   */\n      add\n        /* \"#utility.yul\":24228:24254   */\n      mload\n        /* \"#utility.yul\":24220:24226   */\n      dup3\n        /* \"#utility.yul\":24213:24255   */\n      sstore\n        /* \"#utility.yul\":24294:24295   */\n      0x01\n        /* \"#utility.yul\":24286:24292   */\n      dup3\n        /* \"#utility.yul\":24282:24296   */\n      add\n        /* \"#utility.yul\":24272:24296   */\n      swap2\n      pop\n        /* \"#utility.yul\":24341:24343   */\n      0x20\n        /* \"#utility.yul\":24330:24339   */\n      dup6\n        /* \"#utility.yul\":24326:24344   */\n      add\n        /* \"#utility.yul\":24313:24344   */\n      swap5\n      pop\n        /* \"#utility.yul\":24187:24191   */\n      0x20\n        /* \"#utility.yul\":24184:24185   */\n      dup2\n        /* \"#utility.yul\":24180:24192   */\n      add\n        /* \"#utility.yul\":24175:24192   */\n      swap1\n      pop\n        /* \"#utility.yul\":24150:24358   */\n      jump(tag_656)\n    tag_658:\n        /* \"#utility.yul\":24386:24392   */\n      dup7\n        /* \"#utility.yul\":24377:24384   */\n      dup4\n        /* \"#utility.yul\":24374:24393   */\n      lt\n        /* \"#utility.yul\":24371:24550   */\n      iszero\n      tag_659\n      jumpi\n        /* \"#utility.yul\":24444:24453   */\n      dup5\n        /* \"#utility.yul\":24439:24442   */\n      dup10\n        /* \"#utility.yul\":24435:24454   */\n      add\n        /* \"#utility.yul\":24429:24455   */\n      mload\n        /* \"#utility.yul\":24487:24535   */\n      tag_660\n        /* \"#utility.yul\":24529:24533   */\n      0x1f\n        /* \"#utility.yul\":24521:24527   */\n      dup10\n        /* \"#utility.yul\":24517:24534   */\n      and\n        /* \"#utility.yul\":24506:24515   */\n      dup3\n        /* \"#utility.yul\":24487:24535   */\n      tag_385\n      jump\t// in\n    tag_660:\n        /* \"#utility.yul\":24479:24485   */\n      dup4\n        /* \"#utility.yul\":24472:24536   */\n      sstore\n        /* \"#utility.yul\":24394:24550   */\n      pop\n        /* \"#utility.yul\":24371:24550   */\n    tag_659:\n        /* \"#utility.yul\":24596:24597   */\n      0x01\n        /* \"#utility.yul\":24592:24593   */\n      0x02\n        /* \"#utility.yul\":24584:24590   */\n      dup9\n        /* \"#utility.yul\":24580:24594   */\n      mul\n        /* \"#utility.yul\":24576:24598   */\n      add\n        /* \"#utility.yul\":24570:24574   */\n      dup9\n        /* \"#utility.yul\":24563:24599   */\n      sstore\n        /* \"#utility.yul\":23998:24609   */\n      pop\n      pop\n      pop\n        /* \"#utility.yul\":23961:24848   */\n    tag_651:\n      pop\n        /* \"#utility.yul\":23551:24854   */\n      pop\n      pop\n      pop\n        /* \"#utility.yul\":23459:24854   */\n      pop\n      pop\n      jump\t// out\n        /* \"#utility.yul\":24860:25033   */\n    tag_387:\n        /* \"#utility.yul\":25000:25025   */\n      0x62616c616e636520697320496e73756666696369656e74000000000000000000\n        /* \"#utility.yul\":24996:24997   */\n      0x00\n        /* \"#utility.yul\":24988:24994   */\n      dup3\n        /* \"#utility.yul\":24984:24998   */\n      add\n        /* \"#utility.yul\":24977:25026   */\n      mstore\n        /* \"#utility.yul\":24860:25033   */\n      pop\n      jump\t// out\n        /* \"#utility.yul\":25039:25405   */\n    tag_388:\n        /* \"#utility.yul\":25181:25184   */\n      0x00\n        /* \"#utility.yul\":25202:25269   */\n      tag_663\n        /* \"#utility.yul\":25266:25268   */\n      0x17\n        /* \"#utility.yul\":25261:25264   */\n      dup4\n        /* \"#utility.yul\":25202:25269   */\n      tag_328\n      jump\t// in\n    tag_663:\n        /* \"#utility.yul\":25195:25269   */\n      swap2\n      pop\n        /* \"#utility.yul\":25278:25371   */\n      tag_664\n        /* \"#utility.yul\":25367:25370   */\n      dup3\n        /* \"#utility.yul\":25278:25371   */\n      tag_387\n      jump\t// in\n    tag_664:\n        /* \"#utility.yul\":25396:25398   */\n      0x20\n        /* \"#utility.yul\":25391:25394   */\n      dup3\n        /* \"#utility.yul\":25387:25399   */\n      add\n        /* \"#utility.yul\":25380:25399   */\n      swap1\n      pop\n        /* \"#utility.yul\":25039:25405   */\n      swap2\n      swap1\n      pop\n      jump\t// out\n        /* \"#utility.yul\":25411:25830   */\n    tag_232:\n        /* \"#utility.yul\":25577:25581   */\n      0x00\n        /* \"#utility.yul\":25615:25617   */\n      0x20\n        /* \"#utility.yul\":25604:25613   */\n      dup3\n        /* \"#utility.yul\":25600:25618   */\n      add\n        /* \"#utility.yul\":25592:25618   */\n      swap1\n      pop\n        /* \"#utility.yul\":25664:25673   */\n      dup2\n        /* \"#utility.yul\":25658:25662   */\n      dup2\n        /* \"#utility.yul\":25654:25674   */\n      sub\n        /* \"#utility.yul\":25650:25651   */\n      0x00\n        /* \"#utility.yul\":25639:25648   */\n      dup4\n        /* \"#utility.yul\":25635:25652   */\n      add\n        /* \"#utility.yul\":25628:25675   */\n      mstore\n        /* \"#utility.yul\":25692:25823   */\n      tag_666\n        /* \"#utility.yul\":25818:25822   */\n      dup2\n        /* \"#utility.yul\":25692:25823   */\n      tag_388\n      jump\t// in\n    tag_666:\n        /* \"#utility.yul\":25684:25823   */\n      swap1\n      pop\n        /* \"#utility.yul\":25411:25830   */\n      swap2\n      swap1\n      pop\n      jump\t// out\n        /* \"#utility.yul\":25836:26003   */\n    tag_389:\n        /* \"#utility.yul\":25976:25995   */\n      0x6974656d204944206e6f742076616c6964000000000000000000000000000000\n        /* \"#utility.yul\":25972:25973   */\n      0x00\n        /* \"#utility.yul\":25964:25970   */\n      dup3\n        /* \"#utility.yul\":25960:25974   */\n      add\n        /* \"#utility.yul\":25953:25996   */\n      mstore\n        /* \"#utility.yul\":25836:26003   */\n      pop\n      jump\t// out\n        /* \"#utility.yul\":26009:26375   */\n    tag_390:\n        /* \"#utility.yul\":26151:26154   */\n      0x00\n        /* \"#utility.yul\":26172:26239   */\n      tag_669\n        /* \"#utility.yul\":26236:26238   */\n      0x11\n        /* \"#utility.yul\":26231:26234   */\n      dup4\n        /* \"#utility.yul\":26172:26239   */\n      tag_328\n      jump\t// in\n    tag_669:\n        /* \"#utility.yul\":26165:26239   */\n      swap2\n      pop\n        /* \"#utility.yul\":26248:26341   */\n      tag_670\n        /* \"#utility.yul\":26337:26340   */\n      dup3\n        /* \"#utility.yul\":26248:26341   */\n      tag_389\n      jump\t// in\n    tag_670:\n        /* \"#utility.yul\":26366:26368   */\n      0x20\n        /* \"#utility.yul\":26361:26364   */\n      dup3\n        /* \"#utility.yul\":26357:26369   */\n      add\n        /* \"#utility.yul\":26350:26369   */\n      swap1\n      pop\n        /* \"#utility.yul\":26009:26375   */\n      swap2\n      swap1\n      pop\n      jump\t// out\n        /* \"#utility.yul\":26381:26800   */\n    tag_238:\n        /* \"#utility.yul\":26547:26551   */\n      0x00\n        /* \"#utility.yul\":26585:26587   */\n      0x20\n        /* \"#utility.yul\":26574:26583   */\n      dup3\n        /* \"#utility.yul\":26570:26588   */\n      add\n        /* \"#utility.yul\":26562:26588   */\n      swap1\n      pop\n        /* \"#utility.yul\":26634:26643   */\n      dup2\n        /* \"#utility.yul\":26628:26632   */\n      dup2\n        /* \"#utility.yul\":26624:26644   */\n      sub\n        /* \"#utility.yul\":26620:26621   */\n      0x00\n        /* \"#utility.yul\":26609:26618   */\n      dup4\n        /* \"#utility.yul\":26605:26622   */\n      add\n        /* \"#utility.yul\":26598:26645   */\n      mstore\n        /* \"#utility.yul\":26662:26793   */\n      tag_672\n        /* \"#utility.yul\":26788:26792   */\n      dup2\n        /* \"#utility.yul\":26662:26793   */\n      tag_390\n      jump\t// in\n    tag_672:\n        /* \"#utility.yul\":26654:26793   */\n      swap1\n      pop\n        /* \"#utility.yul\":26381:26800   */\n      swap2\n      swap1\n      pop\n      jump\t// out\n        /* \"#utility.yul\":26806:27030   */\n    tag_391:\n        /* \"#utility.yul\":26946:26980   */\n      0x4974656d206973206f7574206f662073746f636b20736f206e6f74206176616c\n        /* \"#utility.yul\":26942:26943   */\n      0x00\n        /* \"#utility.yul\":26934:26940   */\n      dup3\n        /* \"#utility.yul\":26930:26944   */\n      add\n        /* \"#utility.yul\":26923:26981   */\n      mstore\n        /* \"#utility.yul\":27015:27022   */\n      0x6961626c65000000000000000000000000000000000000000000000000000000\n        /* \"#utility.yul\":27010:27012   */\n      0x20\n        /* \"#utility.yul\":27002:27008   */\n      dup3\n        /* \"#utility.yul\":26998:27013   */\n      add\n        /* \"#utility.yul\":26991:27023   */\n      mstore\n        /* \"#utility.yul\":26806:27030   */\n      pop\n      jump\t// out\n        /* \"#utility.yul\":27036:27402   */\n    tag_392:\n        /* \"#utility.yul\":27178:27181   */\n      0x00\n        /* \"#utility.yul\":27199:27266   */\n      tag_675\n        /* \"#utility.yul\":27263:27265   */\n      0x25\n        /* \"#utility.yul\":27258:27261   */\n      dup4\n        /* \"#utility.yul\":27199:27266   */\n      tag_328\n      jump\t// in\n    tag_675:\n        /* \"#utility.yul\":27192:27266   */\n      swap2\n      pop\n        /* \"#utility.yul\":27275:27368   */\n      tag_676\n        /* \"#utility.yul\":27364:27367   */\n      dup3\n        /* \"#utility.yul\":27275:27368   */\n      tag_391\n      jump\t// in\n    tag_676:\n        /* \"#utility.yul\":27393:27395   */\n      0x40\n        /* \"#utility.yul\":27388:27391   */\n      dup3\n        /* \"#utility.yul\":27384:27396   */\n      add\n        /* \"#utility.yul\":27377:27396   */\n      swap1\n      pop\n        /* \"#utility.yul\":27036:27402   */\n      swap2\n      swap1\n      pop\n      jump\t// out\n        /* \"#utility.yul\":27408:27827   */\n    tag_241:\n        /* \"#utility.yul\":27574:27578   */\n      0x00\n        /* \"#utility.yul\":27612:27614   */\n      0x20\n        /* \"#utility.yul\":27601:27610   */\n      dup3\n        /* \"#utility.yul\":27597:27615   */\n      add\n        /* \"#utility.yul\":27589:27615   */\n      swap1\n      pop\n        /* \"#utility.yul\":27661:27670   */\n      dup2\n        /* \"#utility.yul\":27655:27659   */\n      dup2\n        /* \"#utility.yul\":27651:27671   */\n      sub\n        /* \"#utility.yul\":27647:27648   */\n      0x00\n        /* \"#utility.yul\":27636:27645   */\n      dup4\n        /* \"#utility.yul\":27632:27649   */\n      add\n        /* \"#utility.yul\":27625:27672   */\n      mstore\n        /* \"#utility.yul\":27689:27820   */\n      tag_678\n        /* \"#utility.yul\":27815:27819   */\n      dup2\n        /* \"#utility.yul\":27689:27820   */\n      tag_392\n      jump\t// in\n    tag_678:\n        /* \"#utility.yul\":27681:27820   */\n      swap1\n      pop\n        /* \"#utility.yul\":27408:27827   */\n      swap2\n      swap1\n      pop\n      jump\t// out\n        /* \"#utility.yul\":27833:28132   */\n    tag_393:\n        /* \"#utility.yul\":27973:28007   */\n      0x62616c616e6365206973206e6f742073756666696369656e7420706c65736520\n        /* \"#utility.yul\":27969:27970   */\n      0x00\n        /* \"#utility.yul\":27961:27967   */\n      dup3\n        /* \"#utility.yul\":27957:27971   */\n      add\n        /* \"#utility.yul\":27950:28008   */\n      mstore\n        /* \"#utility.yul\":28042:28076   */\n      0x636865636b20796f752062616c616e6365206265666f7265206d616b696e6720\n        /* \"#utility.yul\":28037:28039   */\n      0x20\n        /* \"#utility.yul\":28029:28035   */\n      dup3\n        /* \"#utility.yul\":28025:28040   */\n      add\n        /* \"#utility.yul\":28018:28077   */\n      mstore\n        /* \"#utility.yul\":28111:28124   */\n      0x7472616e73616374696f6e000000000000000000000000000000000000000000\n        /* \"#utility.yul\":28106:28108   */\n      0x40\n        /* \"#utility.yul\":28098:28104   */\n      dup3\n        /* \"#utility.yul\":28094:28109   */\n      add\n        /* \"#utility.yul\":28087:28125   */\n      mstore\n        /* \"#utility.yul\":27833:28132   */\n      pop\n      jump\t// out\n        /* \"#utility.yul\":28138:28504   */\n    tag_394:\n        /* \"#utility.yul\":28280:28283   */\n      0x00\n        /* \"#utility.yul\":28301:28368   */\n      tag_681\n        /* \"#utility.yul\":28365:28367   */\n      0x4b\n        /* \"#utility.yul\":28360:28363   */\n      dup4\n        /* \"#utility.yul\":28301:28368   */\n      tag_328\n      jump\t// in\n    tag_681:\n        /* \"#utility.yul\":28294:28368   */\n      swap2\n      pop\n        /* \"#utility.yul\":28377:28470   */\n      tag_682\n        /* \"#utility.yul\":28466:28469   */\n      dup3\n        /* \"#utility.yul\":28377:28470   */\n      tag_393\n      jump\t// in\n    tag_682:\n        /* \"#utility.yul\":28495:28497   */\n      0x60\n        /* \"#utility.yul\":28490:28493   */\n      dup3\n        /* \"#utility.yul\":28486:28498   */\n      add\n        /* \"#utility.yul\":28479:28498   */\n      swap1\n      pop\n        /* \"#utility.yul\":28138:28504   */\n      swap2\n      swap1\n      pop\n      jump\t// out\n        /* \"#utility.yul\":28510:28929   */\n    tag_245:\n        /* \"#utility.yul\":28676:28680   */\n      0x00\n        /* \"#utility.yul\":28714:28716   */\n      0x20\n        /* \"#utility.yul\":28703:28712   */\n      dup3\n        /* \"#utility.yul\":28699:28717   */\n      add\n        /* \"#utility.yul\":28691:28717   */\n      swap1\n      pop\n        /* \"#utility.yul\":28763:28772   */\n      dup2\n        /* \"#utility.yul\":28757:28761   */\n      dup2\n        /* \"#utility.yul\":28753:28773   */\n      sub\n        /* \"#utility.yul\":28749:28750   */\n      0x00\n        /* \"#utility.yul\":28738:28747   */\n      dup4\n        /* \"#utility.yul\":28734:28751   */\n      add\n        /* \"#utility.yul\":28727:28774   */\n      mstore\n        /* \"#utility.yul\":28791:28922   */\n      tag_684\n        /* \"#utility.yul\":28917:28921   */\n      dup2\n        /* \"#utility.yul\":28791:28922   */\n      tag_394\n      jump\t// in\n    tag_684:\n        /* \"#utility.yul\":28783:28922   */\n      swap1\n      pop\n        /* \"#utility.yul\":28510:28929   */\n      swap2\n      swap1\n      pop\n      jump\t// out\n        /* \"#utility.yul\":28935:29106   */\n    tag_250:\n        /* \"#utility.yul\":28974:28977   */\n      0x00\n        /* \"#utility.yul\":28997:29021   */\n      tag_686\n        /* \"#utility.yul\":29015:29020   */\n      dup3\n        /* \"#utility.yul\":28997:29021   */\n      tag_324\n      jump\t// in\n    tag_686:\n        /* \"#utility.yul\":28988:29021   */\n      swap2\n      pop\n        /* \"#utility.yul\":29043:29047   */\n      0x00\n        /* \"#utility.yul\":29036:29041   */\n      dup3\n        /* \"#utility.yul\":29033:29048   */\n      sub\n        /* \"#utility.yul\":29030:29071   */\n      tag_687\n      jumpi\n        /* \"#utility.yul\":29051:29069   */\n      tag_688\n      tag_365\n      jump\t// in\n    tag_688:\n        /* \"#utility.yul\":29030:29071   */\n    tag_687:\n        /* \"#utility.yul\":29098:29099   */\n      0x01\n        /* \"#utility.yul\":29091:29096   */\n      dup3\n        /* \"#utility.yul\":29087:29100   */\n      sub\n        /* \"#utility.yul\":29080:29100   */\n      swap1\n      pop\n        /* \"#utility.yul\":28935:29106   */\n      swap2\n      swap1\n      pop\n      jump\t// out\n        /* \"#utility.yul\":29112:29337   */\n    tag_395:\n        /* \"#utility.yul\":29252:29286   */\n      0x4f776e61626c653a206e6577206f776e657220697320746865207a65726f2061\n        /* \"#utility.yul\":29248:29249   */\n      0x00\n        /* \"#utility.yul\":29240:29246   */\n      dup3\n        /* \"#utility.yul\":29236:29250   */\n      add\n        /* \"#utility.yul\":29229:29287   */\n      mstore\n        /* \"#utility.yul\":29321:29329   */\n      0x6464726573730000000000000000000000000000000000000000000000000000\n        /* \"#utility.yul\":29316:29318   */\n      0x20\n        /* \"#utility.yul\":29308:29314   */\n      dup3\n        /* \"#utility.yul\":29304:29319   */\n      add\n        /* \"#utility.yul\":29297:29330   */\n      mstore\n        /* \"#utility.yul\":29112:29337   */\n      pop\n      jump\t// out\n        /* \"#utility.yul\":29343:29709   */\n    tag_396:\n        /* \"#utility.yul\":29485:29488   */\n      0x00\n        /* \"#utility.yul\":29506:29573   */\n      tag_691\n        /* \"#utility.yul\":29570:29572   */\n      0x26\n        /* \"#utility.yul\":29565:29568   */\n      dup4\n        /* \"#utility.yul\":29506:29573   */\n      tag_328\n      jump\t// in\n    tag_691:\n        /* \"#utility.yul\":29499:29573   */\n      swap2\n      pop\n        /* \"#utility.yul\":29582:29675   */\n      tag_692\n        /* \"#utility.yul\":29671:29674   */\n      dup3\n        /* \"#utility.yul\":29582:29675   */\n      tag_395\n      jump\t// in\n    tag_692:\n        /* \"#utility.yul\":29700:29702   */\n      0x40\n        /* \"#utility.yul\":29695:29698   */\n      dup3\n        /* \"#utility.yul\":29691:29703   */\n      add\n        /* \"#utility.yul\":29684:29703   */\n      swap1\n      pop\n        /* \"#utility.yul\":29343:29709   */\n      swap2\n      swap1\n      pop\n      jump\t// out\n        /* \"#utility.yul\":29715:30134   */\n    tag_256:\n        /* \"#utility.yul\":29881:29885   */\n      0x00\n        /* \"#utility.yul\":29919:29921   */\n      0x20\n        /* \"#utility.yul\":29908:29917   */\n      dup3\n        /* \"#utility.yul\":29904:29922   */\n      add\n        /* \"#utility.yul\":29896:29922   */\n      swap1\n      pop\n        /* \"#utility.yul\":29968:29977   */\n      dup2\n        /* \"#utility.yul\":29962:29966   */\n      dup2\n        /* \"#utility.yul\":29958:29978   */\n      sub\n        /* \"#utility.yul\":29954:29955   */\n      0x00\n        /* \"#utility.yul\":29943:29952   */\n      dup4\n        /* \"#utility.yul\":29939:29956   */\n      add\n        /* \"#utility.yul\":29932:29979   */\n      mstore\n        /* \"#utility.yul\":29996:30127   */\n      tag_694\n        /* \"#utility.yul\":30122:30126   */\n      dup2\n        /* \"#utility.yul\":29996:30127   */\n      tag_396\n      jump\t// in\n    tag_694:\n        /* \"#utility.yul\":29988:30127   */\n      swap1\n      pop\n        /* \"#utility.yul\":29715:30134   */\n      swap2\n      swap1\n      pop\n      jump\t// out\n        /* \"#utility.yul\":30140:30360   */\n    tag_397:\n        /* \"#utility.yul\":30280:30314   */\n      0x45524332303a206275726e2066726f6d20746865207a65726f20616464726573\n        /* \"#utility.yul\":30276:30277   */\n      0x00\n        /* \"#utility.yul\":30268:30274   */\n      dup3\n        /* \"#utility.yul\":30264:30278   */\n      add\n        /* \"#utility.yul\":30257:30315   */\n      mstore\n        /* \"#utility.yul\":30349:30352   */\n      0x7300000000000000000000000000000000000000000000000000000000000000\n        /* \"#utility.yul\":30344:30346   */\n      0x20\n        /* \"#utility.yul\":30336:30342   */\n      dup3\n        /* \"#utility.yul\":30332:30347   */\n      add\n        /* \"#utility.yul\":30325:30353   */\n      mstore\n        /* \"#utility.yul\":30140:30360   */\n      pop\n      jump\t// out\n        /* \"#utility.yul\":30366:30732   */\n    tag_398:\n        /* \"#utility.yul\":30508:30511   */\n      0x00\n        /* \"#utility.yul\":30529:30596   */\n      tag_697\n        /* \"#utility.yul\":30593:30595   */\n      0x21\n        /* \"#utility.yul\":30588:30591   */\n      dup4\n        /* \"#utility.yul\":30529:30596   */\n      tag_328\n      jump\t// in\n    tag_697:\n        /* \"#utility.yul\":30522:30596   */\n      swap2\n      pop\n        /* \"#utility.yul\":30605:30698   */\n      tag_698\n        /* \"#utility.yul\":30694:30697   */\n      dup3\n        /* \"#utility.yul\":30605:30698   */\n      tag_397\n      jump\t// in\n    tag_698:\n        /* \"#utility.yul\":30723:30725   */\n      0x40\n        /* \"#utility.yul\":30718:30721   */\n      dup3\n        /* \"#utility.yul\":30714:30726   */\n      add\n        /* \"#utility.yul\":30707:30726   */\n      swap1\n      pop\n        /* \"#utility.yul\":30366:30732   */\n      swap2\n      swap1\n      pop\n      jump\t// out\n        /* \"#utility.yul\":30738:31157   */\n    tag_266:\n        /* \"#utility.yul\":30904:30908   */\n      0x00\n        /* \"#utility.yul\":30942:30944   */\n      0x20\n        /* \"#utility.yul\":30931:30940   */\n      dup3\n        /* \"#utility.yul\":30927:30945   */\n      add\n        /* \"#utility.yul\":30919:30945   */\n      swap1\n      pop\n        /* \"#utility.yul\":30991:31000   */\n      dup2\n        /* \"#utility.yul\":30985:30989   */\n      dup2\n        /* \"#utility.yul\":30981:31001   */\n      sub\n        /* \"#utility.yul\":30977:30978   */\n      0x00\n        /* \"#utility.yul\":30966:30975   */\n      dup4\n        /* \"#utility.yul\":30962:30979   */\n      add\n        /* \"#utility.yul\":30955:31002   */\n      mstore\n        /* \"#utility.yul\":31019:31150   */\n      tag_700\n        /* \"#utility.yul\":31145:31149   */\n      dup2\n        /* \"#utility.yul\":31019:31150   */\n      tag_398\n      jump\t// in\n    tag_700:\n        /* \"#utility.yul\":31011:31150   */\n      swap1\n      pop\n        /* \"#utility.yul\":30738:31157   */\n      swap2\n      swap1\n      pop\n      jump\t// out\n        /* \"#utility.yul\":31163:31384   */\n    tag_399:\n        /* \"#utility.yul\":31303:31337   */\n      0x45524332303a206275726e20616d6f756e7420657863656564732062616c616e\n        /* \"#utility.yul\":31299:31300   */\n      0x00\n        /* \"#utility.yul\":31291:31297   */\n      dup3\n        /* \"#utility.yul\":31287:31301   */\n      add\n        /* \"#utility.yul\":31280:31338   */\n      mstore\n        /* \"#utility.yul\":31372:31376   */\n      0x6365000000000000000000000000000000000000000000000000000000000000\n        /* \"#utility.yul\":31367:31369   */\n      0x20\n        /* \"#utility.yul\":31359:31365   */\n      dup3\n        /* \"#utility.yul\":31355:31370   */\n      add\n        /* \"#utility.yul\":31348:31377   */\n      mstore\n        /* \"#utility.yul\":31163:31384   */\n      pop\n      jump\t// out\n        /* \"#utility.yul\":31390:31756   */\n    tag_400:\n        /* \"#utility.yul\":31532:31535   */\n      0x00\n        /* \"#utility.yul\":31553:31620   */\n      tag_703\n        /* \"#utility.yul\":31617:31619   */\n      0x22\n        /* \"#utility.yul\":31612:31615   */\n      dup4\n        /* \"#utility.yul\":31553:31620   */\n      tag_328\n      jump\t// in\n    tag_703:\n        /* \"#utility.yul\":31546:31620   */\n      swap2\n      pop\n        /* \"#utility.yul\":31629:31722   */\n      tag_704\n        /* \"#utility.yul\":31718:31721   */\n      dup3\n        /* \"#utility.yul\":31629:31722   */\n      tag_399\n      jump\t// in\n    tag_704:\n        /* \"#utility.yul\":31747:31749   */\n      0x40\n        /* \"#utility.yul\":31742:31745   */\n      dup3\n        /* \"#utility.yul\":31738:31750   */\n      add\n        /* \"#utility.yul\":31731:31750   */\n      swap1\n      pop\n        /* \"#utility.yul\":31390:31756   */\n      swap2\n      swap1\n      pop\n      jump\t// out\n        /* \"#utility.yul\":31762:32181   */\n    tag_271:\n        /* \"#utility.yul\":31928:31932   */\n      0x00\n        /* \"#utility.yul\":31966:31968   */\n      0x20\n        /* \"#utility.yul\":31955:31964   */\n      dup3\n        /* \"#utility.yul\":31951:31969   */\n      add\n        /* \"#utility.yul\":31943:31969   */\n      swap1\n      pop\n        /* \"#utility.yul\":32015:32024   */\n      dup2\n        /* \"#utility.yul\":32009:32013   */\n      dup2\n        /* \"#utility.yul\":32005:32025   */\n      sub\n        /* \"#utility.yul\":32001:32002   */\n      0x00\n        /* \"#utility.yul\":31990:31999   */\n      dup4\n        /* \"#utility.yul\":31986:32003   */\n      add\n        /* \"#utility.yul\":31979:32026   */\n      mstore\n        /* \"#utility.yul\":32043:32174   */\n      tag_706\n        /* \"#utility.yul\":32169:32173   */\n      dup2\n        /* \"#utility.yul\":32043:32174   */\n      tag_400\n      jump\t// in\n    tag_706:\n        /* \"#utility.yul\":32035:32174   */\n      swap1\n      pop\n        /* \"#utility.yul\":31762:32181   */\n      swap2\n      swap1\n      pop\n      jump\t// out\n        /* \"#utility.yul\":32187:32410   */\n    tag_401:\n        /* \"#utility.yul\":32327:32361   */\n      0x45524332303a20617070726f76652066726f6d20746865207a65726f20616464\n        /* \"#utility.yul\":32323:32324   */\n      0x00\n        /* \"#utility.yul\":32315:32321   */\n      dup3\n        /* \"#utility.yul\":32311:32325   */\n      add\n        /* \"#utility.yul\":32304:32362   */\n      mstore\n        /* \"#utility.yul\":32396:32402   */\n      0x7265737300000000000000000000000000000000000000000000000000000000\n        /* \"#utility.yul\":32391:32393   */\n      0x20\n        /* \"#utility.yul\":32383:32389   */\n      dup3\n        /* \"#utility.yul\":32379:32394   */\n      add\n        /* \"#utility.yul\":32372:32403   */\n      mstore\n        /* \"#utility.yul\":32187:32410   */\n      pop\n      jump\t// out\n        /* \"#utility.yul\":32416:32782   */\n    tag_402:\n        /* \"#utility.yul\":32558:32561   */\n      0x00\n        /* \"#utility.yul\":32579:32646   */\n      tag_709\n        /* \"#utility.yul\":32643:32645   */\n      0x24\n        /* \"#utility.yul\":32638:32641   */\n      dup4\n        /* \"#utility.yul\":32579:32646   */\n      tag_328\n      jump\t// in\n    tag_709:\n        /* \"#utility.yul\":32572:32646   */\n      swap2\n      pop\n        /* \"#utility.yul\":32655:32748   */\n      tag_710\n        /* \"#utility.yul\":32744:32747   */\n      dup3\n        /* \"#utility.yul\":32655:32748   */\n      tag_401\n      jump\t// in\n    tag_710:\n        /* \"#utility.yul\":32773:32775   */\n      0x40\n        /* \"#utility.yul\":32768:32771   */\n      dup3\n        /* \"#utility.yul\":32764:32776   */\n      add\n        /* \"#utility.yul\":32757:32776   */\n      swap1\n      pop\n        /* \"#utility.yul\":32416:32782   */\n      swap2\n      swap1\n      pop\n      jump\t// out\n        /* \"#utility.yul\":32788:33207   */\n    tag_279:\n        /* \"#utility.yul\":32954:32958   */\n      0x00\n        /* \"#utility.yul\":32992:32994   */\n      0x20\n        /* \"#utility.yul\":32981:32990   */\n      dup3\n        /* \"#utility.yul\":32977:32995   */\n      add\n        /* \"#utility.yul\":32969:32995   */\n      swap1\n      pop\n        /* \"#utility.yul\":33041:33050   */\n      dup2\n        /* \"#utility.yul\":33035:33039   */\n      dup2\n        /* \"#utility.yul\":33031:33051   */\n      sub\n        /* \"#utility.yul\":33027:33028   */\n      0x00\n        /* \"#utility.yul\":33016:33025   */\n      dup4\n        /* \"#utility.yul\":33012:33029   */\n      add\n        /* \"#utility.yul\":33005:33052   */\n      mstore\n        /* \"#utility.yul\":33069:33200   */\n      tag_712\n        /* \"#utility.yul\":33195:33199   */\n      dup2\n        /* \"#utility.yul\":33069:33200   */\n      tag_402\n      jump\t// in\n    tag_712:\n        /* \"#utility.yul\":33061:33200   */\n      swap1\n      pop\n        /* \"#utility.yul\":32788:33207   */\n      swap2\n      swap1\n      pop\n      jump\t// out\n        /* \"#utility.yul\":33213:33434   */\n    tag_403:\n        /* \"#utility.yul\":33353:33387   */\n      0x45524332303a20617070726f766520746f20746865207a65726f206164647265\n        /* \"#utility.yul\":33349:33350   */\n      0x00\n        /* \"#utility.yul\":33341:33347   */\n      dup3\n        /* \"#utility.yul\":33337:33351   */\n      add\n        /* \"#utility.yul\":33330:33388   */\n      mstore\n        /* \"#utility.yul\":33422:33426   */\n      0x7373000000000000000000000000000000000000000000000000000000000000\n        /* \"#utility.yul\":33417:33419   */\n      0x20\n        /* \"#utility.yul\":33409:33415   */\n      dup3\n        /* \"#utility.yul\":33405:33420   */\n      add\n        /* \"#utility.yul\":33398:33427   */\n      mstore\n        /* \"#utility.yul\":33213:33434   */\n      pop\n      jump\t// out\n        /* \"#utility.yul\":33440:33806   */\n    tag_404:\n        /* \"#utility.yul\":33582:33585   */\n      0x00\n        /* \"#utility.yul\":33603:33670   */\n      tag_715\n        /* \"#utility.yul\":33667:33669   */\n      0x22\n        /* \"#utility.yul\":33662:33665   */\n      dup4\n        /* \"#utility.yul\":33603:33670   */\n      tag_328\n      jump\t// in\n    tag_715:\n        /* \"#utility.yul\":33596:33670   */\n      swap2\n      pop\n        /* \"#utility.yul\":33679:33772   */\n      tag_716\n        /* \"#utility.yul\":33768:33771   */\n      dup3\n        /* \"#utility.yul\":33679:33772   */\n      tag_403\n      jump\t// in\n    tag_716:\n        /* \"#utility.yul\":33797:33799   */\n      0x40\n        /* \"#utility.yul\":33792:33795   */\n      dup3\n        /* \"#utility.yul\":33788:33800   */\n      add\n        /* \"#utility.yul\":33781:33800   */\n      swap1\n      pop\n        /* \"#utility.yul\":33440:33806   */\n      swap2\n      swap1\n      pop\n      jump\t// out\n        /* \"#utility.yul\":33812:34231   */\n    tag_282:\n        /* \"#utility.yul\":33978:33982   */\n      0x00\n        /* \"#utility.yul\":34016:34018   */\n      0x20\n        /* \"#utility.yul\":34005:34014   */\n      dup3\n        /* \"#utility.yul\":34001:34019   */\n      add\n        /* \"#utility.yul\":33993:34019   */\n      swap1\n      pop\n        /* \"#utility.yul\":34065:34074   */\n      dup2\n        /* \"#utility.yul\":34059:34063   */\n      dup2\n        /* \"#utility.yul\":34055:34075   */\n      sub\n        /* \"#utility.yul\":34051:34052   */\n      0x00\n        /* \"#utility.yul\":34040:34049   */\n      dup4\n        /* \"#utility.yul\":34036:34053   */\n      add\n        /* \"#utility.yul\":34029:34076   */\n      mstore\n        /* \"#utility.yul\":34093:34224   */\n      tag_718\n        /* \"#utility.yul\":34219:34223   */\n      dup2\n        /* \"#utility.yul\":34093:34224   */\n      tag_404\n      jump\t// in\n    tag_718:\n        /* \"#utility.yul\":34085:34224   */\n      swap1\n      pop\n        /* \"#utility.yul\":33812:34231   */\n      swap2\n      swap1\n      pop\n      jump\t// out\n        /* \"#utility.yul\":34237:34416   */\n    tag_405:\n        /* \"#utility.yul\":34377:34408   */\n      0x45524332303a20696e73756666696369656e7420616c6c6f77616e6365000000\n        /* \"#utility.yul\":34373:34374   */\n      0x00\n        /* \"#utility.yul\":34365:34371   */\n      dup3\n        /* \"#utility.yul\":34361:34375   */\n      add\n        /* \"#utility.yul\":34354:34409   */\n      mstore\n        /* \"#utility.yul\":34237:34416   */\n      pop\n      jump\t// out\n        /* \"#utility.yul\":34422:34788   */\n    tag_406:\n        /* \"#utility.yul\":34564:34567   */\n      0x00\n        /* \"#utility.yul\":34585:34652   */\n      tag_721\n        /* \"#utility.yul\":34649:34651   */\n      0x1d\n        /* \"#utility.yul\":34644:34647   */\n      dup4\n        /* \"#utility.yul\":34585:34652   */\n      tag_328\n      jump\t// in\n    tag_721:\n        /* \"#utility.yul\":34578:34652   */\n      swap2\n      pop\n        /* \"#utility.yul\":34661:34754   */\n      tag_722\n        /* \"#utility.yul\":34750:34753   */\n      dup3\n        /* \"#utility.yul\":34661:34754   */\n      tag_405\n      jump\t// in\n    tag_722:\n        /* \"#utility.yul\":34779:34781   */\n      0x20\n        /* \"#utility.yul\":34774:34777   */\n      dup3\n        /* \"#utility.yul\":34770:34782   */\n      add\n        /* \"#utility.yul\":34763:34782   */\n      swap1\n      pop\n        /* \"#utility.yul\":34422:34788   */\n      swap2\n      swap1\n      pop\n      jump\t// out\n        /* \"#utility.yul\":34794:35213   */\n    tag_289:\n        /* \"#utility.yul\":34960:34964   */\n      0x00\n        /* \"#utility.yul\":34998:35000   */\n      0x20\n        /* \"#utility.yul\":34987:34996   */\n      dup3\n        /* \"#utility.yul\":34983:35001   */\n      add\n        /* \"#utility.yul\":34975:35001   */\n      swap1\n      pop\n        /* \"#utility.yul\":35047:35056   */\n      dup2\n        /* \"#utility.yul\":35041:35045   */\n      dup2\n        /* \"#utility.yul\":35037:35057   */\n      sub\n        /* \"#utility.yul\":35033:35034   */\n      0x00\n        /* \"#utility.yul\":35022:35031   */\n      dup4\n        /* \"#utility.yul\":35018:35035   */\n      add\n        /* \"#utility.yul\":35011:35058   */\n      mstore\n        /* \"#utility.yul\":35075:35206   */\n      tag_724\n        /* \"#utility.yul\":35201:35205   */\n      dup2\n        /* \"#utility.yul\":35075:35206   */\n      tag_406\n      jump\t// in\n    tag_724:\n        /* \"#utility.yul\":35067:35206   */\n      swap1\n      pop\n        /* \"#utility.yul\":34794:35213   */\n      swap2\n      swap1\n      pop\n      jump\t// out\n        /* \"#utility.yul\":35219:35443   */\n    tag_407:\n        /* \"#utility.yul\":35359:35393   */\n      0x45524332303a207472616e736665722066726f6d20746865207a65726f206164\n        /* \"#utility.yul\":35355:35356   */\n      0x00\n        /* \"#utility.yul\":35347:35353   */\n      dup3\n        /* \"#utility.yul\":35343:35357   */\n      add\n        /* \"#utility.yul\":35336:35394   */\n      mstore\n        /* \"#utility.yul\":35428:35435   */\n      0x6472657373000000000000000000000000000000000000000000000000000000\n        /* \"#utility.yul\":35423:35425   */\n      0x20\n        /* \"#utility.yul\":35415:35421   */\n      dup3\n        /* \"#utility.yul\":35411:35426   */\n      add\n        /* \"#utility.yul\":35404:35436   */\n      mstore\n        /* \"#utility.yul\":35219:35443   */\n      pop\n      jump\t// out\n        /* \"#utility.yul\":35449:35815   */\n    tag_408:\n        /* \"#utility.yul\":35591:35594   */\n      0x00\n        /* \"#utility.yul\":35612:35679   */\n      tag_727\n        /* \"#utility.yul\":35676:35678   */\n      0x25\n        /* \"#utility.yul\":35671:35674   */\n      dup4\n        /* \"#utility.yul\":35612:35679   */\n      tag_328\n      jump\t// in\n    tag_727:\n        /* \"#utility.yul\":35605:35679   */\n      swap2\n      pop\n        /* \"#utility.yul\":35688:35781   */\n      tag_728\n        /* \"#utility.yul\":35777:35780   */\n      dup3\n        /* \"#utility.yul\":35688:35781   */\n      tag_407\n      jump\t// in\n    tag_728:\n        /* \"#utility.yul\":35806:35808   */\n      0x40\n        /* \"#utility.yul\":35801:35804   */\n      dup3\n        /* \"#utility.yul\":35797:35809   */\n      add\n        /* \"#utility.yul\":35790:35809   */\n      swap1\n      pop\n        /* \"#utility.yul\":35449:35815   */\n      swap2\n      swap1\n      pop\n      jump\t// out\n        /* \"#utility.yul\":35821:36240   */\n    tag_294:\n        /* \"#utility.yul\":35987:35991   */\n      0x00\n        /* \"#utility.yul\":36025:36027   */\n      0x20\n        /* \"#utility.yul\":36014:36023   */\n      dup3\n        /* \"#utility.yul\":36010:36028   */\n      add\n        /* \"#utility.yul\":36002:36028   */\n      swap1\n      pop\n        /* \"#utility.yul\":36074:36083   */\n      dup2\n        /* \"#utility.yul\":36068:36072   */\n      dup2\n        /* \"#utility.yul\":36064:36084   */\n      sub\n        /* \"#utility.yul\":36060:36061   */\n      0x00\n        /* \"#utility.yul\":36049:36058   */\n      dup4\n        /* \"#utility.yul\":36045:36062   */\n      add\n        /* \"#utility.yul\":36038:36085   */\n      mstore\n        /* \"#utility.yul\":36102:36233   */\n      tag_730\n        /* \"#utility.yul\":36228:36232   */\n      dup2\n        /* \"#utility.yul\":36102:36233   */\n      tag_408\n      jump\t// in\n    tag_730:\n        /* \"#utility.yul\":36094:36233   */\n      swap1\n      pop\n        /* \"#utility.yul\":35821:36240   */\n      swap2\n      swap1\n      pop\n      jump\t// out\n        /* \"#utility.yul\":36246:36468   */\n    tag_409:\n        /* \"#utility.yul\":36386:36420   */\n      0x45524332303a207472616e7366657220746f20746865207a65726f2061646472\n        /* \"#utility.yul\":36382:36383   */\n      0x00\n        /* \"#utility.yul\":36374:36380   */\n      dup3\n        /* \"#utility.yul\":36370:36384   */\n      add\n        /* \"#utility.yul\":36363:36421   */\n      mstore\n        /* \"#utility.yul\":36455:36460   */\n      0x6573730000000000000000000000000000000000000000000000000000000000\n        /* \"#utility.yul\":36450:36452   */\n      0x20\n        /* \"#utility.yul\":36442:36448   */\n      dup3\n        /* \"#utility.yul\":36438:36453   */\n      add\n        /* \"#utility.yul\":36431:36461   */\n      mstore\n        /* \"#utility.yul\":36246:36468   */\n      pop\n      jump\t// out\n        /* \"#utility.yul\":36474:36840   */\n    tag_410:\n        /* \"#utility.yul\":36616:36619   */\n      0x00\n        /* \"#utility.yul\":36637:36704   */\n      tag_733\n        /* \"#utility.yul\":36701:36703   */\n      0x23\n        /* \"#utility.yul\":36696:36699   */\n      dup4\n        /* \"#utility.yul\":36637:36704   */\n      tag_328\n      jump\t// in\n    tag_733:\n        /* \"#utility.yul\":36630:36704   */\n      swap2\n      pop\n        /* \"#utility.yul\":36713:36806   */\n      tag_734\n        /* \"#utility.yul\":36802:36805   */\n      dup3\n        /* \"#utility.yul\":36713:36806   */\n      tag_409\n      jump\t// in\n    tag_734:\n        /* \"#utility.yul\":36831:36833   */\n      0x40\n        /* \"#utility.yul\":36826:36829   */\n      dup3\n        /* \"#utility.yul\":36822:36834   */\n      add\n        /* \"#utility.yul\":36815:36834   */\n      swap1\n      pop\n        /* \"#utility.yul\":36474:36840   */\n      swap2\n      swap1\n      pop\n      jump\t// out\n        /* \"#utility.yul\":36846:37265   */\n    tag_297:\n        /* \"#utility.yul\":37012:37016   */\n      0x00\n        /* \"#utility.yul\":37050:37052   */\n      0x20\n        /* \"#utility.yul\":37039:37048   */\n      dup3\n        /* \"#utility.yul\":37035:37053   */\n      add\n        /* \"#utility.yul\":37027:37053   */\n      swap1\n      pop\n        /* \"#utility.yul\":37099:37108   */\n      dup2\n        /* \"#utility.yul\":37093:37097   */\n      dup2\n        /* \"#utility.yul\":37089:37109   */\n      sub\n        /* \"#utility.yul\":37085:37086   */\n      0x00\n        /* \"#utility.yul\":37074:37083   */\n      dup4\n        /* \"#utility.yul\":37070:37087   */\n      add\n        /* \"#utility.yul\":37063:37110   */\n      mstore\n        /* \"#utility.yul\":37127:37258   */\n      tag_736\n        /* \"#utility.yul\":37253:37257   */\n      dup2\n        /* \"#utility.yul\":37127:37258   */\n      tag_410\n      jump\t// in\n    tag_736:\n        /* \"#utility.yul\":37119:37258   */\n      swap1\n      pop\n        /* \"#utility.yul\":36846:37265   */\n      swap2\n      swap1\n      pop\n      jump\t// out\n        /* \"#utility.yul\":37271:37496   */\n    tag_411:\n        /* \"#utility.yul\":37411:37445   */\n      0x45524332303a207472616e7366657220616d6f756e7420657863656564732062\n        /* \"#utility.yul\":37407:37408   */\n      0x00\n        /* \"#utility.yul\":37399:37405   */\n      dup3\n        /* \"#utility.yul\":37395:37409   */\n      add\n        /* \"#utility.yul\":37388:37446   */\n      mstore\n        /* \"#utility.yul\":37480:37488   */\n      0x616c616e63650000000000000000000000000000000000000000000000000000\n        /* \"#utility.yul\":37475:37477   */\n      0x20\n        /* \"#utility.yul\":37467:37473   */\n      dup3\n        /* \"#utility.yul\":37463:37478   */\n      add\n        /* \"#utility.yul\":37456:37489   */\n      mstore\n        /* \"#utility.yul\":37271:37496   */\n      pop\n      jump\t// out\n        /* \"#utility.yul\":37502:37868   */\n    tag_412:\n        /* \"#utility.yul\":37644:37647   */\n      0x00\n        /* \"#utility.yul\":37665:37732   */\n      tag_739\n        /* \"#utility.yul\":37729:37731   */\n      0x26\n        /* \"#utility.yul\":37724:37727   */\n      dup4\n        /* \"#utility.yul\":37665:37732   */\n      tag_328\n      jump\t// in\n    tag_739:\n        /* \"#utility.yul\":37658:37732   */\n      swap2\n      pop\n        /* \"#utility.yul\":37741:37834   */\n      tag_740\n        /* \"#utility.yul\":37830:37833   */\n      dup3\n        /* \"#utility.yul\":37741:37834   */\n      tag_411\n      jump\t// in\n    tag_740:\n        /* \"#utility.yul\":37859:37861   */\n      0x40\n        /* \"#utility.yul\":37854:37857   */\n      dup3\n        /* \"#utility.yul\":37850:37862   */\n      add\n        /* \"#utility.yul\":37843:37862   */\n      swap1\n      pop\n        /* \"#utility.yul\":37502:37868   */\n      swap2\n      swap1\n      pop\n      jump\t// out\n        /* \"#utility.yul\":37874:38293   */\n    tag_301:\n        /* \"#utility.yul\":38040:38044   */\n      0x00\n        /* \"#utility.yul\":38078:38080   */\n      0x20\n        /* \"#utility.yul\":38067:38076   */\n      dup3\n        /* \"#utility.yul\":38063:38081   */\n      add\n        /* \"#utility.yul\":38055:38081   */\n      swap1\n      pop\n        /* \"#utility.yul\":38127:38136   */\n      dup2\n        /* \"#utility.yul\":38121:38125   */\n      dup2\n        /* \"#utility.yul\":38117:38137   */\n      sub\n        /* \"#utility.yul\":38113:38114   */\n      0x00\n        /* \"#utility.yul\":38102:38111   */\n      dup4\n        /* \"#utility.yul\":38098:38115   */\n      add\n        /* \"#utility.yul\":38091:38138   */\n      mstore\n        /* \"#utility.yul\":38155:38286   */\n      tag_742\n        /* \"#utility.yul\":38281:38285   */\n      dup2\n        /* \"#utility.yul\":38155:38286   */\n      tag_412\n      jump\t// in\n    tag_742:\n        /* \"#utility.yul\":38147:38286   */\n      swap1\n      pop\n        /* \"#utility.yul\":37874:38293   */\n      swap2\n      swap1\n      pop\n      jump\t// out\n        /* \"#utility.yul\":38299:38481   */\n    tag_413:\n        /* \"#utility.yul\":38439:38473   */\n      0x4f776e61626c653a2063616c6c6572206973206e6f7420746865206f776e6572\n        /* \"#utility.yul\":38435:38436   */\n      0x00\n        /* \"#utility.yul\":38427:38433   */\n      dup3\n        /* \"#utility.yul\":38423:38437   */\n      add\n        /* \"#utility.yul\":38416:38474   */\n      mstore\n        /* \"#utility.yul\":38299:38481   */\n      pop\n      jump\t// out\n        /* \"#utility.yul\":38487:38853   */\n    tag_414:\n        /* \"#utility.yul\":38629:38632   */\n      0x00\n        /* \"#utility.yul\":38650:38717   */\n      tag_745\n        /* \"#utility.yul\":38714:38716   */\n      0x20\n        /* \"#utility.yul\":38709:38712   */\n      dup4\n        /* \"#utility.yul\":38650:38717   */\n      tag_328\n      jump\t// in\n    tag_745:\n        /* \"#utility.yul\":38643:38717   */\n      swap2\n      pop\n        /* \"#utility.yul\":38726:38819   */\n      tag_746\n        /* \"#utility.yul\":38815:38818   */\n      dup3\n        /* \"#utility.yul\":38726:38819   */\n      tag_413\n      jump\t// in\n    tag_746:\n        /* \"#utility.yul\":38844:38846   */\n      0x20\n        /* \"#utility.yul\":38839:38842   */\n      dup3\n        /* \"#utility.yul\":38835:38847   */\n      add\n        /* \"#utility.yul\":38828:38847   */\n      swap1\n      pop\n        /* \"#utility.yul\":38487:38853   */\n      swap2\n      swap1\n      pop\n      jump\t// out\n        /* \"#utility.yul\":38859:39278   */\n    tag_309:\n        /* \"#utility.yul\":39025:39029   */\n      0x00\n        /* \"#utility.yul\":39063:39065   */\n      0x20\n        /* \"#utility.yul\":39052:39061   */\n      dup3\n        /* \"#utility.yul\":39048:39066   */\n      add\n        /* \"#utility.yul\":39040:39066   */\n      swap1\n      pop\n        /* \"#utility.yul\":39112:39121   */\n      dup2\n        /* \"#utility.yul\":39106:39110   */\n      dup2\n        /* \"#utility.yul\":39102:39122   */\n      sub\n        /* \"#utility.yul\":39098:39099   */\n      0x00\n        /* \"#utility.yul\":39087:39096   */\n      dup4\n        /* \"#utility.yul\":39083:39100   */\n      add\n        /* \"#utility.yul\":39076:39123   */\n      mstore\n        /* \"#utility.yul\":39140:39271   */\n      tag_748\n        /* \"#utility.yul\":39266:39270   */\n      dup2\n        /* \"#utility.yul\":39140:39271   */\n      tag_414\n      jump\t// in\n    tag_748:\n        /* \"#utility.yul\":39132:39271   */\n      swap1\n      pop\n        /* \"#utility.yul\":38859:39278   */\n      swap2\n      swap1\n      pop\n      jump\t// out\n        /* \"#utility.yul\":39284:39465   */\n    tag_415:\n        /* \"#utility.yul\":39424:39457   */\n      0x45524332303a206d696e7420746f20746865207a65726f206164647265737300\n        /* \"#utility.yul\":39420:39421   */\n      0x00\n        /* \"#utility.yul\":39412:39418   */\n      dup3\n        /* \"#utility.yul\":39408:39422   */\n      add\n        /* \"#utility.yul\":39401:39458   */\n      mstore\n        /* \"#utility.yul\":39284:39465   */\n      pop\n      jump\t// out\n        /* \"#utility.yul\":39471:39837   */\n    tag_416:\n        /* \"#utility.yul\":39613:39616   */\n      0x00\n        /* \"#utility.yul\":39634:39701   */\n      tag_751\n        /* \"#utility.yul\":39698:39700   */\n      0x1f\n        /* \"#utility.yul\":39693:39696   */\n      dup4\n        /* \"#utility.yul\":39634:39701   */\n      tag_328\n      jump\t// in\n    tag_751:\n        /* \"#utility.yul\":39627:39701   */\n      swap2\n      pop\n        /* \"#utility.yul\":39710:39803   */\n      tag_752\n        /* \"#utility.yul\":39799:39802   */\n      dup3\n        /* \"#utility.yul\":39710:39803   */\n      tag_415\n      jump\t// in\n    tag_752:\n        /* \"#utility.yul\":39828:39830   */\n      0x20\n        /* \"#utility.yul\":39823:39826   */\n      dup3\n        /* \"#utility.yul\":39819:39831   */\n      add\n        /* \"#utility.yul\":39812:39831   */\n      swap1\n      pop\n        /* \"#utility.yul\":39471:39837   */\n      swap2\n      swap1\n      pop\n      jump\t// out\n        /* \"#utility.yul\":39843:40262   */\n    tag_313:\n        /* \"#utility.yul\":40009:40013   */\n      0x00\n        /* \"#utility.yul\":40047:40049   */\n      0x20\n        /* \"#utility.yul\":40036:40045   */\n      dup3\n        /* \"#utility.yul\":40032:40050   */\n      add\n        /* \"#utility.yul\":40024:40050   */\n      swap1\n      pop\n        /* \"#utility.yul\":40096:40105   */\n      dup2\n        /* \"#utility.yul\":40090:40094   */\n      dup2\n        /* \"#utility.yul\":40086:40106   */\n      sub\n        /* \"#utility.yul\":40082:40083   */\n      0x00\n        /* \"#utility.yul\":40071:40080   */\n      dup4\n        /* \"#utility.yul\":40067:40084   */\n      add\n        /* \"#utility.yul\":40060:40107   */\n      mstore\n        /* \"#utility.yul\":40124:40255   */\n      tag_754\n        /* \"#utility.yul\":40250:40254   */\n      dup2\n        /* \"#utility.yul\":40124:40255   */\n      tag_416\n      jump\t// in\n    tag_754:\n        /* \"#utility.yul\":40116:40255   */\n      swap1\n      pop\n        /* \"#utility.yul\":39843:40262   */\n      swap2\n      swap1\n      pop\n      jump\t// out\n\n    auxdata: 0xa264697066735822122075a055a431abccb2258d724e41213a7d5a544a24daa1cf915a49ad19c53dea7764736f6c63430008120033\n}\n",
				"bytecode": {
					"linkReferences": {},
					"object": "60806040523480156200001157600080fd5b506040518060400160405280600b81526020017f446567656e5f546f6b656e0000000000000000000000000000000000000000008152506040518060400160405280600781526020017f5f444547454e5f0000000000000000000000000000000000000000000000000081525081600390816200008f91906200059d565b508060049081620000a191906200059d565b505050620000c4620000b8620000de60201b60201c565b620000e660201b60201c565b620000d8336103e8620001ac60201b60201c565b6200079f565b600033905090565b6000600560009054906101000a900473ffffffffffffffffffffffffffffffffffffffff16905081600560006101000a81548173ffffffffffffffffffffffffffffffffffffffff021916908373ffffffffffffffffffffffffffffffffffffffff1602179055508173ffffffffffffffffffffffffffffffffffffffff168173ffffffffffffffffffffffffffffffffffffffff167f8be0079c531659141344cd1fd0a4f28419497f9722a3daafe3b4186f6b6457e060405160405180910390a35050565b600073ffffffffffffffffffffffffffffffffffffffff168273ffffffffffffffffffffffffffffffffffffffff16036200021e576040517f08c379a00000000000000000000000000000000000000000000000000000000081526004016200021590620006e5565b60405180910390fd5b62000232600083836200031960201b60201c565b806002600082825462000246919062000736565b92505081905550806000808473ffffffffffffffffffffffffffffffffffffffff1673ffffffffffffffffffffffffffffffffffffffff168152602001908152602001600020600082825401925050819055508173ffffffffffffffffffffffffffffffffffffffff16600073ffffffffffffffffffffffffffffffffffffffff167fddf252ad1be2c89b69c2b068fc378daa952ba7f163c4a11628f55a4df523b3ef83604051620002f9919062000782565b60405180910390a362000315600083836200031e60201b60201c565b5050565b505050565b505050565b600081519050919050565b7f4e487b7100000000000000000000000000000000000000000000000000000000600052604160045260246000fd5b7f4e487b7100000000000000000000000000000000000000000000000000000000600052602260045260246000fd5b60006002820490506001821680620003a557607f821691505b602082108103620003bb57620003ba6200035d565b5b50919050565b60008190508160005260206000209050919050565b60006020601f8301049050919050565b600082821b905092915050565b600060088302620004257fffffffffffffffffffffffffffffffffffffffffffffffffffffffffffffffff82620003e6565b620004318683620003e6565b95508019841693508086168417925050509392505050565b6000819050919050565b6000819050919050565b60006200047e62000478620004728462000449565b62000453565b62000449565b9050919050565b6000819050919050565b6200049a836200045d565b620004b2620004a98262000485565b848454620003f3565b825550505050565b600090565b620004c9620004ba565b620004d68184846200048f565b505050565b5b81811015620004fe57620004f2600082620004bf565b600181019050620004dc565b5050565b601f8211156200054d576200051781620003c1565b6200052284620003d6565b8101602085101562000532578190505b6200054a6200054185620003d6565b830182620004db565b50505b505050565b600082821c905092915050565b6000620005726000198460080262000552565b1980831691505092915050565b60006200058d83836200055f565b9150826002028217905092915050565b620005a88262000323565b67ffffffffffffffff811115620005c457620005c36200032e565b5b620005d082546200038c565b620005dd82828562000502565b600060209050601f83116001811462000615576000841562000600578287015190505b6200060c85826200057f565b8655506200067c565b601f1984166200062586620003c1565b60005b828110156200064f5784890151825560018201915060208501945060208101905062000628565b868310156200066f57848901516200066b601f8916826200055f565b8355505b6001600288020188555050505b505050505050565b600082825260208201905092915050565b7f45524332303a206d696e7420746f20746865207a65726f206164647265737300600082015250565b6000620006cd601f8362000684565b9150620006da8262000695565b602082019050919050565b600060208201905081810360008301526200070081620006be565b9050919050565b7f4e487b7100000000000000000000000000000000000000000000000000000000600052601160045260246000fd5b6000620007438262000449565b9150620007508362000449565b92508282019050808211156200076b576200076a62000707565b5b92915050565b6200077c8162000449565b82525050565b600060208201905062000799600083018462000771565b92915050565b612d0380620007af6000396000f3fe608060405234801561001057600080fd5b50600436106101585760003560e01c806370a08231116100c3578063cb01a6bd1161007c578063cb01a6bd146103dd578063dd62ed3e146103f9578063e3e4a1b414610429578063e6e645d114610445578063f2fde38b14610461578063fe2909171461047d57610158565b806370a0823114610307578063715018a6146103375780638da5cb5b1461034157806395d89b411461035f578063a457c2d71461037d578063a9059cbb146103ad57610158565b80632be8c2a5116101155780632be8c2a514610233578063313ce5671461024f57806337f7c4121461026d578063395093511461029d5780634d264827146102cd5780635873607b146102eb57610158565b80630439c7341461015d57806306fdde0314610179578063095ea7b31461019757806318160ddd146101c757806323b872dd146101e55780632799276d14610215575b600080fd5b61017760048036038101906101729190611813565b6104af565b005b610181610507565b60405161018e91906118d0565b60405180910390f35b6101b160048036038101906101ac9190611950565b610599565b6040516101be91906119ab565b60405180910390f35b6101cf6105bc565b6040516101dc91906119d5565b60405180910390f35b6101ff60048036038101906101fa91906119f0565b6105c6565b60405161020c91906119ab565b60405180910390f35b61021d6105f5565b60405161022a91906119d5565b60405180910390f35b61024d60048036038101906102489190611950565b6105fb565b005b610257610679565b6040516102649190611a5f565b60405180910390f35b61028760048036038101906102829190611a7a565b610682565b60405161029491906119d5565b60405180910390f35b6102b760048036038101906102b29190611950565b610694565b6040516102c491906119ab565b60405180910390f35b6102d56106cb565b6040516102e29190611c12565b60405180910390f35b61030560048036038101906103009190611950565b610840565b005b610321600480360381019061031c9190611a7a565b610856565b60405161032e91906119d5565b60405180910390f35b61033f61089e565b005b6103496108b2565b6040516103569190611c43565b60405180910390f35b6103676108dc565b60405161037491906118d0565b60405180910390f35b61039760048036038101906103929190611950565b61096e565b6040516103a491906119ab565b60405180910390f35b6103c760048036038101906103c29190611950565b6109e5565b6040516103d491906119ab565b60405180910390f35b6103f760048036038101906103f29190611d93565b610a08565b005b610413600480360381019061040e9190611e02565b610b10565b60405161042091906119d5565b60405180910390f35b610443600480360381019061043e9190611813565b610b97565b005b61045f600480360381019061045a9190611813565b610bef565b005b61047b60048036038101906104769190611a7a565b610d2f565b005b61049760048036038101906104929190611813565b610db2565b6040516104a693929190611e42565b60405180910390f35b806104b933610856565b10156104fa576040517f08c379a00000000000000000000000000000000000000000000000000000000081526004016104f190611ecc565b60405180910390fd5b6105043382610e64565b50565b60606003805461051690611f1b565b80601f016020809104026020016040519081016040528092919081815260200182805461054290611f1b565b801561058f5780601f106105645761010080835404028352916020019161058f565b820191906000526020600020905b81548152906001019060200180831161057257829003601f168201915b5050505050905090565b6000806105a4611031565b90506105b1818585611039565b600191505092915050565b6000600254905090565b6000806105d1611031565b90506105de858285611202565b6105e985858561128e565b60019150509392505050565b60075481565b600073ffffffffffffffffffffffffffffffffffffffff168273ffffffffffffffffffffffffffffffffffffffff160361066a576040517f08c379a000000000000000000000000000000000000000000000000000000000815260040161066190611f98565b60405180910390fd5b61067533838361128e565b5050565b60006012905090565b600061068d82610856565b9050919050565b60008061069f611031565b90506106c08185856106b18589610b10565b6106bb9190611fe7565b611039565b600191505092915050565b6060600060075467ffffffffffffffff8111156106eb576106ea611c68565b5b60405190808252806020026020018201604052801561072457816020015b6107116117a8565b8152602001906001900390816107095790505b5090506000600190505b6007548111610838576006600082815260200190815260200160002060405180606001604052908160008201805461076590611f1b565b80601f016020809104026020016040519081016040528092919081815260200182805461079190611f1b565b80156107de5780601f106107b3576101008083540402835291602001916107de565b820191906000526020600020905b8154815290600101906020018083116107c157829003601f168201915b505050505081526020016001820154815260200160028201548152505082600183610809919061201b565b8151811061081a5761081961204f565b5b602002602001018190525080806108309061207e565b91505061072e565b508091505090565b610848611504565b6108528282611582565b5050565b60008060008373ffffffffffffffffffffffffffffffffffffffff1673ffffffffffffffffffffffffffffffffffffffff168152602001908152602001600020549050919050565b6108a6611504565b6108b060006116d8565b565b6000600560009054906101000a900473ffffffffffffffffffffffffffffffffffffffff16905090565b6060600480546108eb90611f1b565b80601f016020809104026020016040519081016040528092919081815260200182805461091790611f1b565b80156109645780601f1061093957610100808354040283529160200191610964565b820191906000526020600020905b81548152906001019060200180831161094757829003601f168201915b5050505050905090565b600080610979611031565b905060006109878286610b10565b9050838110156109cc576040517f08c379a00000000000000000000000000000000000000000000000000000000081526004016109c390612138565b60405180910390fd5b6109d98286868403611039565b60019250505092915050565b6000806109f0611031565b90506109fd81858561128e565b600191505092915050565b610a10611504565b60008211610a53576040517f08c379a0000000000000000000000000000000000000000000000000000000008152600401610a4a906121a4565b60405180910390fd5b60008111610a96576040517f08c379a0000000000000000000000000000000000000000000000000000000008152600401610a8d90612210565b60405180910390fd5b60076000815480929190610aa99061207e565b91905055506040518060600160405280848152602001838152602001828152506006600060075481526020019081526020016000206000820151816000019081610af391906123dc565b506020820151816001015560408201518160020155905050505050565b6000600160008473ffffffffffffffffffffffffffffffffffffffff1673ffffffffffffffffffffffffffffffffffffffff16815260200190815260200160002060008373ffffffffffffffffffffffffffffffffffffffff1673ffffffffffffffffffffffffffffffffffffffff16815260200190815260200160002054905092915050565b80610ba133610856565b1015610be2576040517f08c379a0000000000000000000000000000000000000000000000000000000008152600401610bd9906124fa565b60405180910390fd5b610bec3382610e64565b50565b600081118015610c0157506007548111155b610c40576040517f08c379a0000000000000000000000000000000000000000000000000000000008152600401610c3790612566565b60405180910390fd5b60006006600083815260200190815260200160002090506000816002015411610c9e576040517f08c379a0000000000000000000000000000000000000000000000000000000008152600401610c95906125f8565b60405180910390fd5b8060010154610cac33610856565b1015610ced576040517f08c379a0000000000000000000000000000000000000000000000000000000008152600401610ce4906126b0565b60405180910390fd5b610d0333610cf96108b2565b836001015461128e565b610d11338260010154610e64565b806002016000815480929190610d26906126d0565b91905055505050565b610d37611504565b600073ffffffffffffffffffffffffffffffffffffffff168173ffffffffffffffffffffffffffffffffffffffff1603610da6576040517f08c379a0000000000000000000000000000000000000000000000000000000008152600401610d9d9061276b565b60405180910390fd5b610daf816116d8565b50565b6006602052806000526040600020600091509050806000018054610dd590611f1b565b80601f0160208091040260200160405190810160405280929190818152602001828054610e0190611f1b565b8015610e4e5780601f10610e2357610100808354040283529160200191610e4e565b820191906000526020600020905b815481529060010190602001808311610e3157829003601f168201915b5050505050908060010154908060020154905083565b600073ffffffffffffffffffffffffffffffffffffffff168273ffffffffffffffffffffffffffffffffffffffff1603610ed3576040517f08c379a0000000000000000000000000000000000000000000000000000000008152600401610eca906127fd565b60405180910390fd5b610edf8260008361179e565b60008060008473ffffffffffffffffffffffffffffffffffffffff1673ffffffffffffffffffffffffffffffffffffffff16815260200190815260200160002054905081811015610f65576040517f08c379a0000000000000000000000000000000000000000000000000000000008152600401610f5c9061288f565b60405180910390fd5b8181036000808573ffffffffffffffffffffffffffffffffffffffff1673ffffffffffffffffffffffffffffffffffffffff1681526020019081526020016000208190555081600260008282540392505081905550600073ffffffffffffffffffffffffffffffffffffffff168373ffffffffffffffffffffffffffffffffffffffff167fddf252ad1be2c89b69c2b068fc378daa952ba7f163c4a11628f55a4df523b3ef8460405161101891906119d5565b60405180910390a361102c836000846117a3565b505050565b600033905090565b600073ffffffffffffffffffffffffffffffffffffffff168373ffffffffffffffffffffffffffffffffffffffff16036110a8576040517f08c379a000000000000000000000000000000000000000000000000000000000815260040161109f90612921565b60405180910390fd5b600073ffffffffffffffffffffffffffffffffffffffff168273ffffffffffffffffffffffffffffffffffffffff1603611117576040517f08c379a000000000000000000000000000000000000000000000000000000000815260040161110e906129b3565b60405180910390fd5b80600160008573ffffffffffffffffffffffffffffffffffffffff1673ffffffffffffffffffffffffffffffffffffffff16815260200190815260200160002060008473ffffffffffffffffffffffffffffffffffffffff1673ffffffffffffffffffffffffffffffffffffffff168152602001908152602001600020819055508173ffffffffffffffffffffffffffffffffffffffff168373ffffffffffffffffffffffffffffffffffffffff167f8c5be1e5ebec7d5bd14f71427d1e84f3dd0314c0f7b2291e5b200ac8c7c3b925836040516111f591906119d5565b60405180910390a3505050565b600061120e8484610b10565b90507fffffffffffffffffffffffffffffffffffffffffffffffffffffffffffffffff8114611288578181101561127a576040517f08c379a000000000000000000000000000000000000000000000000000000000815260040161127190612a1f565b60405180910390fd5b6112878484848403611039565b5b50505050565b600073ffffffffffffffffffffffffffffffffffffffff168373ffffffffffffffffffffffffffffffffffffffff16036112fd576040517f08c379a00000000000000000000000000000000000000000000000000000000081526004016112f490612ab1565b60405180910390fd5b600073ffffffffffffffffffffffffffffffffffffffff168273ffffffffffffffffffffffffffffffffffffffff160361136c576040517f08c379a000000000000000000000000000000000000000000000000000000000815260040161136390612b43565b60405180910390fd5b61137783838361179e565b60008060008573ffffffffffffffffffffffffffffffffffffffff1673ffffffffffffffffffffffffffffffffffffffff168152602001908152602001600020549050818110156113fd576040517f08c379a00000000000000000000000000000000000000000000000000000000081526004016113f490612bd5565b60405180910390fd5b8181036000808673ffffffffffffffffffffffffffffffffffffffff1673ffffffffffffffffffffffffffffffffffffffff16815260200190815260200160002081905550816000808573ffffffffffffffffffffffffffffffffffffffff1673ffffffffffffffffffffffffffffffffffffffff168152602001908152602001600020600082825401925050819055508273ffffffffffffffffffffffffffffffffffffffff168473ffffffffffffffffffffffffffffffffffffffff167fddf252ad1be2c89b69c2b068fc378daa952ba7f163c4a11628f55a4df523b3ef846040516114eb91906119d5565b60405180910390a36114fe8484846117a3565b50505050565b61150c611031565b73ffffffffffffffffffffffffffffffffffffffff1661152a6108b2565b73ffffffffffffffffffffffffffffffffffffffff1614611580576040517f08c379a000000000000000000000000000000000000000000000000000000000815260040161157790612c41565b60405180910390fd5b565b600073ffffffffffffffffffffffffffffffffffffffff168273ffffffffffffffffffffffffffffffffffffffff16036115f1576040517f08c379a00000000000000000000000000000000000000000000000000000000081526004016115e890612cad565b60405180910390fd5b6115fd6000838361179e565b806002600082825461160f9190611fe7565b92505081905550806000808473ffffffffffffffffffffffffffffffffffffffff1673ffffffffffffffffffffffffffffffffffffffff168152602001908152602001600020600082825401925050819055508173ffffffffffffffffffffffffffffffffffffffff16600073ffffffffffffffffffffffffffffffffffffffff167fddf252ad1be2c89b69c2b068fc378daa952ba7f163c4a11628f55a4df523b3ef836040516116c091906119d5565b60405180910390a36116d4600083836117a3565b5050565b6000600560009054906101000a900473ffffffffffffffffffffffffffffffffffffffff16905081600560006101000a81548173ffffffffffffffffffffffffffffffffffffffff021916908373ffffffffffffffffffffffffffffffffffffffff1602179055508173ffffffffffffffffffffffffffffffffffffffff168173ffffffffffffffffffffffffffffffffffffffff167f8be0079c531659141344cd1fd0a4f28419497f9722a3daafe3b4186f6b6457e060405160405180910390a35050565b505050565b505050565b60405180606001604052806060815260200160008152602001600081525090565b6000604051905090565b600080fd5b600080fd5b6000819050919050565b6117f0816117dd565b81146117fb57600080fd5b50565b60008135905061180d816117e7565b92915050565b600060208284031215611829576118286117d3565b5b6000611837848285016117fe565b91505092915050565b600081519050919050565b600082825260208201905092915050565b60005b8381101561187a57808201518184015260208101905061185f565b60008484015250505050565b6000601f19601f8301169050919050565b60006118a282611840565b6118ac818561184b565b93506118bc81856020860161185c565b6118c581611886565b840191505092915050565b600060208201905081810360008301526118ea8184611897565b905092915050565b600073ffffffffffffffffffffffffffffffffffffffff82169050919050565b600061191d826118f2565b9050919050565b61192d81611912565b811461193857600080fd5b50565b60008135905061194a81611924565b92915050565b60008060408385031215611967576119666117d3565b5b60006119758582860161193b565b9250506020611986858286016117fe565b9150509250929050565b60008115159050919050565b6119a581611990565b82525050565b60006020820190506119c0600083018461199c565b92915050565b6119cf816117dd565b82525050565b60006020820190506119ea60008301846119c6565b92915050565b600080600060608486031215611a0957611a086117d3565b5b6000611a178682870161193b565b9350506020611a288682870161193b565b9250506040611a39868287016117fe565b9150509250925092565b600060ff82169050919050565b611a5981611a43565b82525050565b6000602082019050611a746000830184611a50565b92915050565b600060208284031215611a9057611a8f6117d3565b5b6000611a9e8482850161193b565b91505092915050565b600081519050919050565b600082825260208201905092915050565b6000819050602082019050919050565b600082825260208201905092915050565b6000611aef82611840565b611af98185611ad3565b9350611b0981856020860161185c565b611b1281611886565b840191505092915050565b611b26816117dd565b82525050565b60006060830160008301518482036000860152611b498282611ae4565b9150506020830151611b5e6020860182611b1d565b506040830151611b716040860182611b1d565b508091505092915050565b6000611b888383611b2c565b905092915050565b6000602082019050919050565b6000611ba882611aa7565b611bb28185611ab2565b935083602082028501611bc485611ac3565b8060005b85811015611c005784840389528151611be18582611b7c565b9450611bec83611b90565b925060208a01995050600181019050611bc8565b50829750879550505050505092915050565b60006020820190508181036000830152611c2c8184611b9d565b905092915050565b611c3d81611912565b82525050565b6000602082019050611c586000830184611c34565b92915050565b600080fd5b600080fd5b7f4e487b7100000000000000000000000000000000000000000000000000000000600052604160045260246000fd5b611ca082611886565b810181811067ffffffffffffffff82111715611cbf57611cbe611c68565b5b80604052505050565b6000611cd26117c9565b9050611cde8282611c97565b919050565b600067ffffffffffffffff821115611cfe57611cfd611c68565b5b611d0782611886565b9050602081019050919050565b82818337600083830152505050565b6000611d36611d3184611ce3565b611cc8565b905082815260208101848484011115611d5257611d51611c63565b5b611d5d848285611d14565b509392505050565b600082601f830112611d7a57611d79611c5e565b5b8135611d8a848260208601611d23565b91505092915050565b600080600060608486031215611dac57611dab6117d3565b5b600084013567ffffffffffffffff811115611dca57611dc96117d8565b5b611dd686828701611d65565b9350506020611de7868287016117fe565b9250506040611df8868287016117fe565b9150509250925092565b60008060408385031215611e1957611e186117d3565b5b6000611e278582860161193b565b9250506020611e388582860161193b565b9150509250929050565b60006060820190508181036000830152611e5c8186611897565b9050611e6b60208301856119c6565b611e7860408301846119c6565b949350505050565b7f496e73756666696369656e742062616c616e6365000000000000000000000000600082015250565b6000611eb660148361184b565b9150611ec182611e80565b602082019050919050565b60006020820190508181036000830152611ee581611ea9565b9050919050565b7f4e487b7100000000000000000000000000000000000000000000000000000000600052602260045260246000fd5b60006002820490506001821680611f3357607f821691505b602082108103611f4657611f45611eec565b5b50919050565b7f496e76616c696420726563697069656e74206164647265737300000000000000600082015250565b6000611f8260198361184b565b9150611f8d82611f4c565b602082019050919050565b60006020820190508181036000830152611fb181611f75565b9050919050565b7f4e487b7100000000000000000000000000000000000000000000000000000000600052601160045260246000fd5b6000611ff2826117dd565b9150611ffd836117dd565b925082820190508082111561201557612014611fb8565b5b92915050565b6000612026826117dd565b9150612031836117dd565b925082820390508181111561204957612048611fb8565b5b92915050565b7f4e487b7100000000000000000000000000000000000000000000000000000000600052603260045260246000fd5b6000612089826117dd565b91507fffffffffffffffffffffffffffffffffffffffffffffffffffffffffffffffff82036120bb576120ba611fb8565b5b600182019050919050565b7f45524332303a2064656372656173656420616c6c6f77616e63652062656c6f7760008201527f207a65726f000000000000000000000000000000000000000000000000000000602082015250565b600061212260258361184b565b915061212d826120c6565b604082019050919050565b6000602082019050818103600083015261215181612115565b9050919050565b7f50726963652073686f756c64206265206d6f7265207468616e20300000000000600082015250565b600061218e601b8361184b565b915061219982612158565b602082019050919050565b600060208201905081810360008301526121bd81612181565b9050919050565b7f53746f636b2073686f756c64206265206d6f7265207468616e20300000000000600082015250565b60006121fa601b8361184b565b9150612205826121c4565b602082019050919050565b60006020820190508181036000830152612229816121ed565b9050919050565b60008190508160005260206000209050919050565b60006020601f8301049050919050565b600082821b905092915050565b6000600883026122927fffffffffffffffffffffffffffffffffffffffffffffffffffffffffffffffff82612255565b61229c8683612255565b95508019841693508086168417925050509392505050565b6000819050919050565b60006122d96122d46122cf846117dd565b6122b4565b6117dd565b9050919050565b6000819050919050565b6122f3836122be565b6123076122ff826122e0565b848454612262565b825550505050565b600090565b61231c61230f565b6123278184846122ea565b505050565b5b8181101561234b57612340600082612314565b60018101905061232d565b5050565b601f8211156123905761236181612230565b61236a84612245565b81016020851015612379578190505b61238d61238585612245565b83018261232c565b50505b505050565b600082821c905092915050565b60006123b360001984600802612395565b1980831691505092915050565b60006123cc83836123a2565b9150826002028217905092915050565b6123e582611840565b67ffffffffffffffff8111156123fe576123fd611c68565b5b6124088254611f1b565b61241382828561234f565b600060209050601f8311600181146124465760008415612434578287015190505b61243e85826123c0565b8655506124a6565b601f19841661245486612230565b60005b8281101561247c57848901518255600182019150602085019450602081019050612457565b868310156124995784890151612495601f8916826123a2565b8355505b6001600288020188555050505b505050505050565b7f62616c616e636520697320496e73756666696369656e74000000000000000000600082015250565b60006124e460178361184b565b91506124ef826124ae565b602082019050919050565b60006020820190508181036000830152612513816124d7565b9050919050565b7f6974656d204944206e6f742076616c6964000000000000000000000000000000600082015250565b600061255060118361184b565b915061255b8261251a565b602082019050919050565b6000602082019050818103600083015261257f81612543565b9050919050565b7f4974656d206973206f7574206f662073746f636b20736f206e6f74206176616c60008201527f6961626c65000000000000000000000000000000000000000000000000000000602082015250565b60006125e260258361184b565b91506125ed82612586565b604082019050919050565b60006020820190508181036000830152612611816125d5565b9050919050565b7f62616c616e6365206973206e6f742073756666696369656e7420706c6573652060008201527f636865636b20796f752062616c616e6365206265666f7265206d616b696e672060208201527f7472616e73616374696f6e000000000000000000000000000000000000000000604082015250565b600061269a604b8361184b565b91506126a582612618565b606082019050919050565b600060208201905081810360008301526126c98161268d565b9050919050565b60006126db826117dd565b9150600082036126ee576126ed611fb8565b5b600182039050919050565b7f4f776e61626c653a206e6577206f776e657220697320746865207a65726f206160008201527f6464726573730000000000000000000000000000000000000000000000000000602082015250565b600061275560268361184b565b9150612760826126f9565b604082019050919050565b6000602082019050818103600083015261278481612748565b9050919050565b7f45524332303a206275726e2066726f6d20746865207a65726f2061646472657360008201527f7300000000000000000000000000000000000000000000000000000000000000602082015250565b60006127e760218361184b565b91506127f28261278b565b604082019050919050565b60006020820190508181036000830152612816816127da565b9050919050565b7f45524332303a206275726e20616d6f756e7420657863656564732062616c616e60008201527f6365000000000000000000000000000000000000000000000000000000000000602082015250565b600061287960228361184b565b91506128848261281d565b604082019050919050565b600060208201905081810360008301526128a88161286c565b9050919050565b7f45524332303a20617070726f76652066726f6d20746865207a65726f2061646460008201527f7265737300000000000000000000000000000000000000000000000000000000602082015250565b600061290b60248361184b565b9150612916826128af565b604082019050919050565b6000602082019050818103600083015261293a816128fe565b9050919050565b7f45524332303a20617070726f766520746f20746865207a65726f20616464726560008201527f7373000000000000000000000000000000000000000000000000000000000000602082015250565b600061299d60228361184b565b91506129a882612941565b604082019050919050565b600060208201905081810360008301526129cc81612990565b9050919050565b7f45524332303a20696e73756666696369656e7420616c6c6f77616e6365000000600082015250565b6000612a09601d8361184b565b9150612a14826129d3565b602082019050919050565b60006020820190508181036000830152612a38816129fc565b9050919050565b7f45524332303a207472616e736665722066726f6d20746865207a65726f20616460008201527f6472657373000000000000000000000000000000000000000000000000000000602082015250565b6000612a9b60258361184b565b9150612aa682612a3f565b604082019050919050565b60006020820190508181036000830152612aca81612a8e565b9050919050565b7f45524332303a207472616e7366657220746f20746865207a65726f206164647260008201527f6573730000000000000000000000000000000000000000000000000000000000602082015250565b6000612b2d60238361184b565b9150612b3882612ad1565b604082019050919050565b60006020820190508181036000830152612b5c81612b20565b9050919050565b7f45524332303a207472616e7366657220616d6f756e742065786365656473206260008201527f616c616e63650000000000000000000000000000000000000000000000000000602082015250565b6000612bbf60268361184b565b9150612bca82612b63565b604082019050919050565b60006020820190508181036000830152612bee81612bb2565b9050919050565b7f4f776e61626c653a2063616c6c6572206973206e6f7420746865206f776e6572600082015250565b6000612c2b60208361184b565b9150612c3682612bf5565b602082019050919050565b60006020820190508181036000830152612c5a81612c1e565b9050919050565b7f45524332303a206d696e7420746f20746865207a65726f206164647265737300600082015250565b6000612c97601f8361184b565b9150612ca282612c61565b602082019050919050565b60006020820190508181036000830152612cc681612c8a565b905091905056fea264697066735822122075a055a431abccb2258d724e41213a7d5a544a24daa1cf915a49ad19c53dea7764736f6c63430008120033",
					"opcodes": "PUSH1 0x80 PUSH1 0x40 MSTORE CALLVALUE DUP1 ISZERO PUSH3 0x11 JUMPI PUSH1 0x0 DUP1 REVERT JUMPDEST POP PUSH1 0x40 MLOAD DUP1 PUSH1 0x40 ADD PUSH1 0x40 MSTORE DUP1 PUSH1 0xB DUP2 MSTORE PUSH1 0x20 ADD PUSH32 0x446567656E5F546F6B656E000000000000000000000000000000000000000000 DUP2 MSTORE POP PUSH1 0x40 MLOAD DUP1 PUSH1 0x40 ADD PUSH1 0x40 MSTORE DUP1 PUSH1 0x7 DUP2 MSTORE PUSH1 0x20 ADD PUSH32 0x5F444547454E5F00000000000000000000000000000000000000000000000000 DUP2 MSTORE POP DUP2 PUSH1 0x3 SWAP1 DUP2 PUSH3 0x8F SWAP2 SWAP1 PUSH3 0x59D JUMP JUMPDEST POP DUP1 PUSH1 0x4 SWAP1 DUP2 PUSH3 0xA1 SWAP2 SWAP1 PUSH3 0x59D JUMP JUMPDEST POP POP POP PUSH3 0xC4 PUSH3 0xB8 PUSH3 0xDE PUSH1 0x20 SHL PUSH1 0x20 SHR JUMP JUMPDEST PUSH3 0xE6 PUSH1 0x20 SHL PUSH1 0x20 SHR JUMP JUMPDEST PUSH3 0xD8 CALLER PUSH2 0x3E8 PUSH3 0x1AC PUSH1 0x20 SHL PUSH1 0x20 SHR JUMP JUMPDEST PUSH3 0x79F JUMP JUMPDEST PUSH1 0x0 CALLER SWAP1 POP SWAP1 JUMP JUMPDEST PUSH1 0x0 PUSH1 0x5 PUSH1 0x0 SWAP1 SLOAD SWAP1 PUSH2 0x100 EXP SWAP1 DIV PUSH20 0xFFFFFFFFFFFFFFFFFFFFFFFFFFFFFFFFFFFFFFFF AND SWAP1 POP DUP2 PUSH1 0x5 PUSH1 0x0 PUSH2 0x100 EXP DUP2 SLOAD DUP2 PUSH20 0xFFFFFFFFFFFFFFFFFFFFFFFFFFFFFFFFFFFFFFFF MUL NOT AND SWAP1 DUP4 PUSH20 0xFFFFFFFFFFFFFFFFFFFFFFFFFFFFFFFFFFFFFFFF AND MUL OR SWAP1 SSTORE POP DUP2 PUSH20 0xFFFFFFFFFFFFFFFFFFFFFFFFFFFFFFFFFFFFFFFF AND DUP2 PUSH20 0xFFFFFFFFFFFFFFFFFFFFFFFFFFFFFFFFFFFFFFFF AND PUSH32 0x8BE0079C531659141344CD1FD0A4F28419497F9722A3DAAFE3B4186F6B6457E0 PUSH1 0x40 MLOAD PUSH1 0x40 MLOAD DUP1 SWAP2 SUB SWAP1 LOG3 POP POP JUMP JUMPDEST PUSH1 0x0 PUSH20 0xFFFFFFFFFFFFFFFFFFFFFFFFFFFFFFFFFFFFFFFF AND DUP3 PUSH20 0xFFFFFFFFFFFFFFFFFFFFFFFFFFFFFFFFFFFFFFFF AND SUB PUSH3 0x21E JUMPI PUSH1 0x40 MLOAD PUSH32 0x8C379A000000000000000000000000000000000000000000000000000000000 DUP2 MSTORE PUSH1 0x4 ADD PUSH3 0x215 SWAP1 PUSH3 0x6E5 JUMP JUMPDEST PUSH1 0x40 MLOAD DUP1 SWAP2 SUB SWAP1 REVERT JUMPDEST PUSH3 0x232 PUSH1 0x0 DUP4 DUP4 PUSH3 0x319 PUSH1 0x20 SHL PUSH1 0x20 SHR JUMP JUMPDEST DUP1 PUSH1 0x2 PUSH1 0x0 DUP3 DUP3 SLOAD PUSH3 0x246 SWAP2 SWAP1 PUSH3 0x736 JUMP JUMPDEST SWAP3 POP POP DUP2 SWAP1 SSTORE POP DUP1 PUSH1 0x0 DUP1 DUP5 PUSH20 0xFFFFFFFFFFFFFFFFFFFFFFFFFFFFFFFFFFFFFFFF AND PUSH20 0xFFFFFFFFFFFFFFFFFFFFFFFFFFFFFFFFFFFFFFFF AND DUP2 MSTORE PUSH1 0x20 ADD SWAP1 DUP2 MSTORE PUSH1 0x20 ADD PUSH1 0x0 KECCAK256 PUSH1 0x0 DUP3 DUP3 SLOAD ADD SWAP3 POP POP DUP2 SWAP1 SSTORE POP DUP2 PUSH20 0xFFFFFFFFFFFFFFFFFFFFFFFFFFFFFFFFFFFFFFFF AND PUSH1 0x0 PUSH20 0xFFFFFFFFFFFFFFFFFFFFFFFFFFFFFFFFFFFFFFFF AND PUSH32 0xDDF252AD1BE2C89B69C2B068FC378DAA952BA7F163C4A11628F55A4DF523B3EF DUP4 PUSH1 0x40 MLOAD PUSH3 0x2F9 SWAP2 SWAP1 PUSH3 0x782 JUMP JUMPDEST PUSH1 0x40 MLOAD DUP1 SWAP2 SUB SWAP1 LOG3 PUSH3 0x315 PUSH1 0x0 DUP4 DUP4 PUSH3 0x31E PUSH1 0x20 SHL PUSH1 0x20 SHR JUMP JUMPDEST POP POP JUMP JUMPDEST POP POP POP JUMP JUMPDEST POP POP POP JUMP JUMPDEST PUSH1 0x0 DUP2 MLOAD SWAP1 POP SWAP2 SWAP1 POP JUMP JUMPDEST PUSH32 0x4E487B7100000000000000000000000000000000000000000000000000000000 PUSH1 0x0 MSTORE PUSH1 0x41 PUSH1 0x4 MSTORE PUSH1 0x24 PUSH1 0x0 REVERT JUMPDEST PUSH32 0x4E487B7100000000000000000000000000000000000000000000000000000000 PUSH1 0x0 MSTORE PUSH1 0x22 PUSH1 0x4 MSTORE PUSH1 0x24 PUSH1 0x0 REVERT JUMPDEST PUSH1 0x0 PUSH1 0x2 DUP3 DIV SWAP1 POP PUSH1 0x1 DUP3 AND DUP1 PUSH3 0x3A5 JUMPI PUSH1 0x7F DUP3 AND SWAP2 POP JUMPDEST PUSH1 0x20 DUP3 LT DUP2 SUB PUSH3 0x3BB JUMPI PUSH3 0x3BA PUSH3 0x35D JUMP JUMPDEST JUMPDEST POP SWAP2 SWAP1 POP JUMP JUMPDEST PUSH1 0x0 DUP2 SWAP1 POP DUP2 PUSH1 0x0 MSTORE PUSH1 0x20 PUSH1 0x0 KECCAK256 SWAP1 POP SWAP2 SWAP1 POP JUMP JUMPDEST PUSH1 0x0 PUSH1 0x20 PUSH1 0x1F DUP4 ADD DIV SWAP1 POP SWAP2 SWAP1 POP JUMP JUMPDEST PUSH1 0x0 DUP3 DUP3 SHL SWAP1 POP SWAP3 SWAP2 POP POP JUMP JUMPDEST PUSH1 0x0 PUSH1 0x8 DUP4 MUL PUSH3 0x425 PUSH32 0xFFFFFFFFFFFFFFFFFFFFFFFFFFFFFFFFFFFFFFFFFFFFFFFFFFFFFFFFFFFFFFFF DUP3 PUSH3 0x3E6 JUMP JUMPDEST PUSH3 0x431 DUP7 DUP4 PUSH3 0x3E6 JUMP JUMPDEST SWAP6 POP DUP1 NOT DUP5 AND SWAP4 POP DUP1 DUP7 AND DUP5 OR SWAP3 POP POP POP SWAP4 SWAP3 POP POP POP JUMP JUMPDEST PUSH1 0x0 DUP2 SWAP1 POP SWAP2 SWAP1 POP JUMP JUMPDEST PUSH1 0x0 DUP2 SWAP1 POP SWAP2 SWAP1 POP JUMP JUMPDEST PUSH1 0x0 PUSH3 0x47E PUSH3 0x478 PUSH3 0x472 DUP5 PUSH3 0x449 JUMP JUMPDEST PUSH3 0x453 JUMP JUMPDEST PUSH3 0x449 JUMP JUMPDEST SWAP1 POP SWAP2 SWAP1 POP JUMP JUMPDEST PUSH1 0x0 DUP2 SWAP1 POP SWAP2 SWAP1 POP JUMP JUMPDEST PUSH3 0x49A DUP4 PUSH3 0x45D JUMP JUMPDEST PUSH3 0x4B2 PUSH3 0x4A9 DUP3 PUSH3 0x485 JUMP JUMPDEST DUP5 DUP5 SLOAD PUSH3 0x3F3 JUMP JUMPDEST DUP3 SSTORE POP POP POP POP JUMP JUMPDEST PUSH1 0x0 SWAP1 JUMP JUMPDEST PUSH3 0x4C9 PUSH3 0x4BA JUMP JUMPDEST PUSH3 0x4D6 DUP2 DUP5 DUP5 PUSH3 0x48F JUMP JUMPDEST POP POP POP JUMP JUMPDEST JUMPDEST DUP2 DUP2 LT ISZERO PUSH3 0x4FE JUMPI PUSH3 0x4F2 PUSH1 0x0 DUP3 PUSH3 0x4BF JUMP JUMPDEST PUSH1 0x1 DUP2 ADD SWAP1 POP PUSH3 0x4DC JUMP JUMPDEST POP POP JUMP JUMPDEST PUSH1 0x1F DUP3 GT ISZERO PUSH3 0x54D JUMPI PUSH3 0x517 DUP2 PUSH3 0x3C1 JUMP JUMPDEST PUSH3 0x522 DUP5 PUSH3 0x3D6 JUMP JUMPDEST DUP2 ADD PUSH1 0x20 DUP6 LT ISZERO PUSH3 0x532 JUMPI DUP2 SWAP1 POP JUMPDEST PUSH3 0x54A PUSH3 0x541 DUP6 PUSH3 0x3D6 JUMP JUMPDEST DUP4 ADD DUP3 PUSH3 0x4DB JUMP JUMPDEST POP POP JUMPDEST POP POP POP JUMP JUMPDEST PUSH1 0x0 DUP3 DUP3 SHR SWAP1 POP SWAP3 SWAP2 POP POP JUMP JUMPDEST PUSH1 0x0 PUSH3 0x572 PUSH1 0x0 NOT DUP5 PUSH1 0x8 MUL PUSH3 0x552 JUMP JUMPDEST NOT DUP1 DUP4 AND SWAP2 POP POP SWAP3 SWAP2 POP POP JUMP JUMPDEST PUSH1 0x0 PUSH3 0x58D DUP4 DUP4 PUSH3 0x55F JUMP JUMPDEST SWAP2 POP DUP3 PUSH1 0x2 MUL DUP3 OR SWAP1 POP SWAP3 SWAP2 POP POP JUMP JUMPDEST PUSH3 0x5A8 DUP3 PUSH3 0x323 JUMP JUMPDEST PUSH8 0xFFFFFFFFFFFFFFFF DUP2 GT ISZERO PUSH3 0x5C4 JUMPI PUSH3 0x5C3 PUSH3 0x32E JUMP JUMPDEST JUMPDEST PUSH3 0x5D0 DUP3 SLOAD PUSH3 0x38C JUMP JUMPDEST PUSH3 0x5DD DUP3 DUP3 DUP6 PUSH3 0x502 JUMP JUMPDEST PUSH1 0x0 PUSH1 0x20 SWAP1 POP PUSH1 0x1F DUP4 GT PUSH1 0x1 DUP2 EQ PUSH3 0x615 JUMPI PUSH1 0x0 DUP5 ISZERO PUSH3 0x600 JUMPI DUP3 DUP8 ADD MLOAD SWAP1 POP JUMPDEST PUSH3 0x60C DUP6 DUP3 PUSH3 0x57F JUMP JUMPDEST DUP7 SSTORE POP PUSH3 0x67C JUMP JUMPDEST PUSH1 0x1F NOT DUP5 AND PUSH3 0x625 DUP7 PUSH3 0x3C1 JUMP JUMPDEST PUSH1 0x0 JUMPDEST DUP3 DUP2 LT ISZERO PUSH3 0x64F JUMPI DUP5 DUP10 ADD MLOAD DUP3 SSTORE PUSH1 0x1 DUP3 ADD SWAP2 POP PUSH1 0x20 DUP6 ADD SWAP5 POP PUSH1 0x20 DUP2 ADD SWAP1 POP PUSH3 0x628 JUMP JUMPDEST DUP7 DUP4 LT ISZERO PUSH3 0x66F JUMPI DUP5 DUP10 ADD MLOAD PUSH3 0x66B PUSH1 0x1F DUP10 AND DUP3 PUSH3 0x55F JUMP JUMPDEST DUP4 SSTORE POP JUMPDEST PUSH1 0x1 PUSH1 0x2 DUP9 MUL ADD DUP9 SSTORE POP POP POP JUMPDEST POP POP POP POP POP POP JUMP JUMPDEST PUSH1 0x0 DUP3 DUP3 MSTORE PUSH1 0x20 DUP3 ADD SWAP1 POP SWAP3 SWAP2 POP POP JUMP JUMPDEST PUSH32 0x45524332303A206D696E7420746F20746865207A65726F206164647265737300 PUSH1 0x0 DUP3 ADD MSTORE POP JUMP JUMPDEST PUSH1 0x0 PUSH3 0x6CD PUSH1 0x1F DUP4 PUSH3 0x684 JUMP JUMPDEST SWAP2 POP PUSH3 0x6DA DUP3 PUSH3 0x695 JUMP JUMPDEST PUSH1 0x20 DUP3 ADD SWAP1 POP SWAP2 SWAP1 POP JUMP JUMPDEST PUSH1 0x0 PUSH1 0x20 DUP3 ADD SWAP1 POP DUP2 DUP2 SUB PUSH1 0x0 DUP4 ADD MSTORE PUSH3 0x700 DUP2 PUSH3 0x6BE JUMP JUMPDEST SWAP1 POP SWAP2 SWAP1 POP JUMP JUMPDEST PUSH32 0x4E487B7100000000000000000000000000000000000000000000000000000000 PUSH1 0x0 MSTORE PUSH1 0x11 PUSH1 0x4 MSTORE PUSH1 0x24 PUSH1 0x0 REVERT JUMPDEST PUSH1 0x0 PUSH3 0x743 DUP3 PUSH3 0x449 JUMP JUMPDEST SWAP2 POP PUSH3 0x750 DUP4 PUSH3 0x449 JUMP JUMPDEST SWAP3 POP DUP3 DUP3 ADD SWAP1 POP DUP1 DUP3 GT ISZERO PUSH3 0x76B JUMPI PUSH3 0x76A PUSH3 0x707 JUMP JUMPDEST JUMPDEST SWAP3 SWAP2 POP POP JUMP JUMPDEST PUSH3 0x77C DUP2 PUSH3 0x449 JUMP JUMPDEST DUP3 MSTORE POP POP JUMP JUMPDEST PUSH1 0x0 PUSH1 0x20 DUP3 ADD SWAP1 POP PUSH3 0x799 PUSH1 0x0 DUP4 ADD DUP5 PUSH3 0x771 JUMP JUMPDEST SWAP3 SWAP2 POP POP JUMP JUMPDEST PUSH2 0x2D03 DUP1 PUSH3 0x7AF PUSH1 0x0 CODECOPY PUSH1 0x0 RETURN INVALID PUSH1 0x80 PUSH1 0x40 MSTORE CALLVALUE DUP1 ISZERO PUSH2 0x10 JUMPI PUSH1 0x0 DUP1 REVERT JUMPDEST POP PUSH1 0x4 CALLDATASIZE LT PUSH2 0x158 JUMPI PUSH1 0x0 CALLDATALOAD PUSH1 0xE0 SHR DUP1 PUSH4 0x70A08231 GT PUSH2 0xC3 JUMPI DUP1 PUSH4 0xCB01A6BD GT PUSH2 0x7C JUMPI DUP1 PUSH4 0xCB01A6BD EQ PUSH2 0x3DD JUMPI DUP1 PUSH4 0xDD62ED3E EQ PUSH2 0x3F9 JUMPI DUP1 PUSH4 0xE3E4A1B4 EQ PUSH2 0x429 JUMPI DUP1 PUSH4 0xE6E645D1 EQ PUSH2 0x445 JUMPI DUP1 PUSH4 0xF2FDE38B EQ PUSH2 0x461 JUMPI DUP1 PUSH4 0xFE290917 EQ PUSH2 0x47D JUMPI PUSH2 0x158 JUMP JUMPDEST DUP1 PUSH4 0x70A08231 EQ PUSH2 0x307 JUMPI DUP1 PUSH4 0x715018A6 EQ PUSH2 0x337 JUMPI DUP1 PUSH4 0x8DA5CB5B EQ PUSH2 0x341 JUMPI DUP1 PUSH4 0x95D89B41 EQ PUSH2 0x35F JUMPI DUP1 PUSH4 0xA457C2D7 EQ PUSH2 0x37D JUMPI DUP1 PUSH4 0xA9059CBB EQ PUSH2 0x3AD JUMPI PUSH2 0x158 JUMP JUMPDEST DUP1 PUSH4 0x2BE8C2A5 GT PUSH2 0x115 JUMPI DUP1 PUSH4 0x2BE8C2A5 EQ PUSH2 0x233 JUMPI DUP1 PUSH4 0x313CE567 EQ PUSH2 0x24F JUMPI DUP1 PUSH4 0x37F7C412 EQ PUSH2 0x26D JUMPI DUP1 PUSH4 0x39509351 EQ PUSH2 0x29D JUMPI DUP1 PUSH4 0x4D264827 EQ PUSH2 0x2CD JUMPI DUP1 PUSH4 0x5873607B EQ PUSH2 0x2EB JUMPI PUSH2 0x158 JUMP JUMPDEST DUP1 PUSH4 0x439C734 EQ PUSH2 0x15D JUMPI DUP1 PUSH4 0x6FDDE03 EQ PUSH2 0x179 JUMPI DUP1 PUSH4 0x95EA7B3 EQ PUSH2 0x197 JUMPI DUP1 PUSH4 0x18160DDD EQ PUSH2 0x1C7 JUMPI DUP1 PUSH4 0x23B872DD EQ PUSH2 0x1E5 JUMPI DUP1 PUSH4 0x2799276D EQ PUSH2 0x215 JUMPI JUMPDEST PUSH1 0x0 DUP1 REVERT JUMPDEST PUSH2 0x177 PUSH1 0x4 DUP1 CALLDATASIZE SUB DUP2 ADD SWAP1 PUSH2 0x172 SWAP2 SWAP1 PUSH2 0x1813 JUMP JUMPDEST PUSH2 0x4AF JUMP JUMPDEST STOP JUMPDEST PUSH2 0x181 PUSH2 0x507 JUMP JUMPDEST PUSH1 0x40 MLOAD PUSH2 0x18E SWAP2 SWAP1 PUSH2 0x18D0 JUMP JUMPDEST PUSH1 0x40 MLOAD DUP1 SWAP2 SUB SWAP1 RETURN JUMPDEST PUSH2 0x1B1 PUSH1 0x4 DUP1 CALLDATASIZE SUB DUP2 ADD SWAP1 PUSH2 0x1AC SWAP2 SWAP1 PUSH2 0x1950 JUMP JUMPDEST PUSH2 0x599 JUMP JUMPDEST PUSH1 0x40 MLOAD PUSH2 0x1BE SWAP2 SWAP1 PUSH2 0x19AB JUMP JUMPDEST PUSH1 0x40 MLOAD DUP1 SWAP2 SUB SWAP1 RETURN JUMPDEST PUSH2 0x1CF PUSH2 0x5BC JUMP JUMPDEST PUSH1 0x40 MLOAD PUSH2 0x1DC SWAP2 SWAP1 PUSH2 0x19D5 JUMP JUMPDEST PUSH1 0x40 MLOAD DUP1 SWAP2 SUB SWAP1 RETURN JUMPDEST PUSH2 0x1FF PUSH1 0x4 DUP1 CALLDATASIZE SUB DUP2 ADD SWAP1 PUSH2 0x1FA SWAP2 SWAP1 PUSH2 0x19F0 JUMP JUMPDEST PUSH2 0x5C6 JUMP JUMPDEST PUSH1 0x40 MLOAD PUSH2 0x20C SWAP2 SWAP1 PUSH2 0x19AB JUMP JUMPDEST PUSH1 0x40 MLOAD DUP1 SWAP2 SUB SWAP1 RETURN JUMPDEST PUSH2 0x21D PUSH2 0x5F5 JUMP JUMPDEST PUSH1 0x40 MLOAD PUSH2 0x22A SWAP2 SWAP1 PUSH2 0x19D5 JUMP JUMPDEST PUSH1 0x40 MLOAD DUP1 SWAP2 SUB SWAP1 RETURN JUMPDEST PUSH2 0x24D PUSH1 0x4 DUP1 CALLDATASIZE SUB DUP2 ADD SWAP1 PUSH2 0x248 SWAP2 SWAP1 PUSH2 0x1950 JUMP JUMPDEST PUSH2 0x5FB JUMP JUMPDEST STOP JUMPDEST PUSH2 0x257 PUSH2 0x679 JUMP JUMPDEST PUSH1 0x40 MLOAD PUSH2 0x264 SWAP2 SWAP1 PUSH2 0x1A5F JUMP JUMPDEST PUSH1 0x40 MLOAD DUP1 SWAP2 SUB SWAP1 RETURN JUMPDEST PUSH2 0x287 PUSH1 0x4 DUP1 CALLDATASIZE SUB DUP2 ADD SWAP1 PUSH2 0x282 SWAP2 SWAP1 PUSH2 0x1A7A JUMP JUMPDEST PUSH2 0x682 JUMP JUMPDEST PUSH1 0x40 MLOAD PUSH2 0x294 SWAP2 SWAP1 PUSH2 0x19D5 JUMP JUMPDEST PUSH1 0x40 MLOAD DUP1 SWAP2 SUB SWAP1 RETURN JUMPDEST PUSH2 0x2B7 PUSH1 0x4 DUP1 CALLDATASIZE SUB DUP2 ADD SWAP1 PUSH2 0x2B2 SWAP2 SWAP1 PUSH2 0x1950 JUMP JUMPDEST PUSH2 0x694 JUMP JUMPDEST PUSH1 0x40 MLOAD PUSH2 0x2C4 SWAP2 SWAP1 PUSH2 0x19AB JUMP JUMPDEST PUSH1 0x40 MLOAD DUP1 SWAP2 SUB SWAP1 RETURN JUMPDEST PUSH2 0x2D5 PUSH2 0x6CB JUMP JUMPDEST PUSH1 0x40 MLOAD PUSH2 0x2E2 SWAP2 SWAP1 PUSH2 0x1C12 JUMP JUMPDEST PUSH1 0x40 MLOAD DUP1 SWAP2 SUB SWAP1 RETURN JUMPDEST PUSH2 0x305 PUSH1 0x4 DUP1 CALLDATASIZE SUB DUP2 ADD SWAP1 PUSH2 0x300 SWAP2 SWAP1 PUSH2 0x1950 JUMP JUMPDEST PUSH2 0x840 JUMP JUMPDEST STOP JUMPDEST PUSH2 0x321 PUSH1 0x4 DUP1 CALLDATASIZE SUB DUP2 ADD SWAP1 PUSH2 0x31C SWAP2 SWAP1 PUSH2 0x1A7A JUMP JUMPDEST PUSH2 0x856 JUMP JUMPDEST PUSH1 0x40 MLOAD PUSH2 0x32E SWAP2 SWAP1 PUSH2 0x19D5 JUMP JUMPDEST PUSH1 0x40 MLOAD DUP1 SWAP2 SUB SWAP1 RETURN JUMPDEST PUSH2 0x33F PUSH2 0x89E JUMP JUMPDEST STOP JUMPDEST PUSH2 0x349 PUSH2 0x8B2 JUMP JUMPDEST PUSH1 0x40 MLOAD PUSH2 0x356 SWAP2 SWAP1 PUSH2 0x1C43 JUMP JUMPDEST PUSH1 0x40 MLOAD DUP1 SWAP2 SUB SWAP1 RETURN JUMPDEST PUSH2 0x367 PUSH2 0x8DC JUMP JUMPDEST PUSH1 0x40 MLOAD PUSH2 0x374 SWAP2 SWAP1 PUSH2 0x18D0 JUMP JUMPDEST PUSH1 0x40 MLOAD DUP1 SWAP2 SUB SWAP1 RETURN JUMPDEST PUSH2 0x397 PUSH1 0x4 DUP1 CALLDATASIZE SUB DUP2 ADD SWAP1 PUSH2 0x392 SWAP2 SWAP1 PUSH2 0x1950 JUMP JUMPDEST PUSH2 0x96E JUMP JUMPDEST PUSH1 0x40 MLOAD PUSH2 0x3A4 SWAP2 SWAP1 PUSH2 0x19AB JUMP JUMPDEST PUSH1 0x40 MLOAD DUP1 SWAP2 SUB SWAP1 RETURN JUMPDEST PUSH2 0x3C7 PUSH1 0x4 DUP1 CALLDATASIZE SUB DUP2 ADD SWAP1 PUSH2 0x3C2 SWAP2 SWAP1 PUSH2 0x1950 JUMP JUMPDEST PUSH2 0x9E5 JUMP JUMPDEST PUSH1 0x40 MLOAD PUSH2 0x3D4 SWAP2 SWAP1 PUSH2 0x19AB JUMP JUMPDEST PUSH1 0x40 MLOAD DUP1 SWAP2 SUB SWAP1 RETURN JUMPDEST PUSH2 0x3F7 PUSH1 0x4 DUP1 CALLDATASIZE SUB DUP2 ADD SWAP1 PUSH2 0x3F2 SWAP2 SWAP1 PUSH2 0x1D93 JUMP JUMPDEST PUSH2 0xA08 JUMP JUMPDEST STOP JUMPDEST PUSH2 0x413 PUSH1 0x4 DUP1 CALLDATASIZE SUB DUP2 ADD SWAP1 PUSH2 0x40E SWAP2 SWAP1 PUSH2 0x1E02 JUMP JUMPDEST PUSH2 0xB10 JUMP JUMPDEST PUSH1 0x40 MLOAD PUSH2 0x420 SWAP2 SWAP1 PUSH2 0x19D5 JUMP JUMPDEST PUSH1 0x40 MLOAD DUP1 SWAP2 SUB SWAP1 RETURN JUMPDEST PUSH2 0x443 PUSH1 0x4 DUP1 CALLDATASIZE SUB DUP2 ADD SWAP1 PUSH2 0x43E SWAP2 SWAP1 PUSH2 0x1813 JUMP JUMPDEST PUSH2 0xB97 JUMP JUMPDEST STOP JUMPDEST PUSH2 0x45F PUSH1 0x4 DUP1 CALLDATASIZE SUB DUP2 ADD SWAP1 PUSH2 0x45A SWAP2 SWAP1 PUSH2 0x1813 JUMP JUMPDEST PUSH2 0xBEF JUMP JUMPDEST STOP JUMPDEST PUSH2 0x47B PUSH1 0x4 DUP1 CALLDATASIZE SUB DUP2 ADD SWAP1 PUSH2 0x476 SWAP2 SWAP1 PUSH2 0x1A7A JUMP JUMPDEST PUSH2 0xD2F JUMP JUMPDEST STOP JUMPDEST PUSH2 0x497 PUSH1 0x4 DUP1 CALLDATASIZE SUB DUP2 ADD SWAP1 PUSH2 0x492 SWAP2 SWAP1 PUSH2 0x1813 JUMP JUMPDEST PUSH2 0xDB2 JUMP JUMPDEST PUSH1 0x40 MLOAD PUSH2 0x4A6 SWAP4 SWAP3 SWAP2 SWAP1 PUSH2 0x1E42 JUMP JUMPDEST PUSH1 0x40 MLOAD DUP1 SWAP2 SUB SWAP1 RETURN JUMPDEST DUP1 PUSH2 0x4B9 CALLER PUSH2 0x856 JUMP JUMPDEST LT ISZERO PUSH2 0x4FA JUMPI PUSH1 0x40 MLOAD PUSH32 0x8C379A000000000000000000000000000000000000000000000000000000000 DUP2 MSTORE PUSH1 0x4 ADD PUSH2 0x4F1 SWAP1 PUSH2 0x1ECC JUMP JUMPDEST PUSH1 0x40 MLOAD DUP1 SWAP2 SUB SWAP1 REVERT JUMPDEST PUSH2 0x504 CALLER DUP3 PUSH2 0xE64 JUMP JUMPDEST POP JUMP JUMPDEST PUSH1 0x60 PUSH1 0x3 DUP1 SLOAD PUSH2 0x516 SWAP1 PUSH2 0x1F1B JUMP JUMPDEST DUP1 PUSH1 0x1F ADD PUSH1 0x20 DUP1 SWAP2 DIV MUL PUSH1 0x20 ADD PUSH1 0x40 MLOAD SWAP1 DUP2 ADD PUSH1 0x40 MSTORE DUP1 SWAP3 SWAP2 SWAP1 DUP2 DUP2 MSTORE PUSH1 0x20 ADD DUP3 DUP1 SLOAD PUSH2 0x542 SWAP1 PUSH2 0x1F1B JUMP JUMPDEST DUP1 ISZERO PUSH2 0x58F JUMPI DUP1 PUSH1 0x1F LT PUSH2 0x564 JUMPI PUSH2 0x100 DUP1 DUP4 SLOAD DIV MUL DUP4 MSTORE SWAP2 PUSH1 0x20 ADD SWAP2 PUSH2 0x58F JUMP JUMPDEST DUP3 ADD SWAP2 SWAP1 PUSH1 0x0 MSTORE PUSH1 0x20 PUSH1 0x0 KECCAK256 SWAP1 JUMPDEST DUP2 SLOAD DUP2 MSTORE SWAP1 PUSH1 0x1 ADD SWAP1 PUSH1 0x20 ADD DUP1 DUP4 GT PUSH2 0x572 JUMPI DUP3 SWAP1 SUB PUSH1 0x1F AND DUP3 ADD SWAP2 JUMPDEST POP POP POP POP POP SWAP1 POP SWAP1 JUMP JUMPDEST PUSH1 0x0 DUP1 PUSH2 0x5A4 PUSH2 0x1031 JUMP JUMPDEST SWAP1 POP PUSH2 0x5B1 DUP2 DUP6 DUP6 PUSH2 0x1039 JUMP JUMPDEST PUSH1 0x1 SWAP2 POP POP SWAP3 SWAP2 POP POP JUMP JUMPDEST PUSH1 0x0 PUSH1 0x2 SLOAD SWAP1 POP SWAP1 JUMP JUMPDEST PUSH1 0x0 DUP1 PUSH2 0x5D1 PUSH2 0x1031 JUMP JUMPDEST SWAP1 POP PUSH2 0x5DE DUP6 DUP3 DUP6 PUSH2 0x1202 JUMP JUMPDEST PUSH2 0x5E9 DUP6 DUP6 DUP6 PUSH2 0x128E JUMP JUMPDEST PUSH1 0x1 SWAP2 POP POP SWAP4 SWAP3 POP POP POP JUMP JUMPDEST PUSH1 0x7 SLOAD DUP2 JUMP JUMPDEST PUSH1 0x0 PUSH20 0xFFFFFFFFFFFFFFFFFFFFFFFFFFFFFFFFFFFFFFFF AND DUP3 PUSH20 0xFFFFFFFFFFFFFFFFFFFFFFFFFFFFFFFFFFFFFFFF AND SUB PUSH2 0x66A JUMPI PUSH1 0x40 MLOAD PUSH32 0x8C379A000000000000000000000000000000000000000000000000000000000 DUP2 MSTORE PUSH1 0x4 ADD PUSH2 0x661 SWAP1 PUSH2 0x1F98 JUMP JUMPDEST PUSH1 0x40 MLOAD DUP1 SWAP2 SUB SWAP1 REVERT JUMPDEST PUSH2 0x675 CALLER DUP4 DUP4 PUSH2 0x128E JUMP JUMPDEST POP POP JUMP JUMPDEST PUSH1 0x0 PUSH1 0x12 SWAP1 POP SWAP1 JUMP JUMPDEST PUSH1 0x0 PUSH2 0x68D DUP3 PUSH2 0x856 JUMP JUMPDEST SWAP1 POP SWAP2 SWAP1 POP JUMP JUMPDEST PUSH1 0x0 DUP1 PUSH2 0x69F PUSH2 0x1031 JUMP JUMPDEST SWAP1 POP PUSH2 0x6C0 DUP2 DUP6 DUP6 PUSH2 0x6B1 DUP6 DUP10 PUSH2 0xB10 JUMP JUMPDEST PUSH2 0x6BB SWAP2 SWAP1 PUSH2 0x1FE7 JUMP JUMPDEST PUSH2 0x1039 JUMP JUMPDEST PUSH1 0x1 SWAP2 POP POP SWAP3 SWAP2 POP POP JUMP JUMPDEST PUSH1 0x60 PUSH1 0x0 PUSH1 0x7 SLOAD PUSH8 0xFFFFFFFFFFFFFFFF DUP2 GT ISZERO PUSH2 0x6EB JUMPI PUSH2 0x6EA PUSH2 0x1C68 JUMP JUMPDEST JUMPDEST PUSH1 0x40 MLOAD SWAP1 DUP1 DUP3 MSTORE DUP1 PUSH1 0x20 MUL PUSH1 0x20 ADD DUP3 ADD PUSH1 0x40 MSTORE DUP1 ISZERO PUSH2 0x724 JUMPI DUP2 PUSH1 0x20 ADD JUMPDEST PUSH2 0x711 PUSH2 0x17A8 JUMP JUMPDEST DUP2 MSTORE PUSH1 0x20 ADD SWAP1 PUSH1 0x1 SWAP1 SUB SWAP1 DUP2 PUSH2 0x709 JUMPI SWAP1 POP JUMPDEST POP SWAP1 POP PUSH1 0x0 PUSH1 0x1 SWAP1 POP JUMPDEST PUSH1 0x7 SLOAD DUP2 GT PUSH2 0x838 JUMPI PUSH1 0x6 PUSH1 0x0 DUP3 DUP2 MSTORE PUSH1 0x20 ADD SWAP1 DUP2 MSTORE PUSH1 0x20 ADD PUSH1 0x0 KECCAK256 PUSH1 0x40 MLOAD DUP1 PUSH1 0x60 ADD PUSH1 0x40 MSTORE SWAP1 DUP2 PUSH1 0x0 DUP3 ADD DUP1 SLOAD PUSH2 0x765 SWAP1 PUSH2 0x1F1B JUMP JUMPDEST DUP1 PUSH1 0x1F ADD PUSH1 0x20 DUP1 SWAP2 DIV MUL PUSH1 0x20 ADD PUSH1 0x40 MLOAD SWAP1 DUP2 ADD PUSH1 0x40 MSTORE DUP1 SWAP3 SWAP2 SWAP1 DUP2 DUP2 MSTORE PUSH1 0x20 ADD DUP3 DUP1 SLOAD PUSH2 0x791 SWAP1 PUSH2 0x1F1B JUMP JUMPDEST DUP1 ISZERO PUSH2 0x7DE JUMPI DUP1 PUSH1 0x1F LT PUSH2 0x7B3 JUMPI PUSH2 0x100 DUP1 DUP4 SLOAD DIV MUL DUP4 MSTORE SWAP2 PUSH1 0x20 ADD SWAP2 PUSH2 0x7DE JUMP JUMPDEST DUP3 ADD SWAP2 SWAP1 PUSH1 0x0 MSTORE PUSH1 0x20 PUSH1 0x0 KECCAK256 SWAP1 JUMPDEST DUP2 SLOAD DUP2 MSTORE SWAP1 PUSH1 0x1 ADD SWAP1 PUSH1 0x20 ADD DUP1 DUP4 GT PUSH2 0x7C1 JUMPI DUP3 SWAP1 SUB PUSH1 0x1F AND DUP3 ADD SWAP2 JUMPDEST POP POP POP POP POP DUP2 MSTORE PUSH1 0x20 ADD PUSH1 0x1 DUP3 ADD SLOAD DUP2 MSTORE PUSH1 0x20 ADD PUSH1 0x2 DUP3 ADD SLOAD DUP2 MSTORE POP POP DUP3 PUSH1 0x1 DUP4 PUSH2 0x809 SWAP2 SWAP1 PUSH2 0x201B JUMP JUMPDEST DUP2 MLOAD DUP2 LT PUSH2 0x81A JUMPI PUSH2 0x819 PUSH2 0x204F JUMP JUMPDEST JUMPDEST PUSH1 0x20 MUL PUSH1 0x20 ADD ADD DUP2 SWAP1 MSTORE POP DUP1 DUP1 PUSH2 0x830 SWAP1 PUSH2 0x207E JUMP JUMPDEST SWAP2 POP POP PUSH2 0x72E JUMP JUMPDEST POP DUP1 SWAP2 POP POP SWAP1 JUMP JUMPDEST PUSH2 0x848 PUSH2 0x1504 JUMP JUMPDEST PUSH2 0x852 DUP3 DUP3 PUSH2 0x1582 JUMP JUMPDEST POP POP JUMP JUMPDEST PUSH1 0x0 DUP1 PUSH1 0x0 DUP4 PUSH20 0xFFFFFFFFFFFFFFFFFFFFFFFFFFFFFFFFFFFFFFFF AND PUSH20 0xFFFFFFFFFFFFFFFFFFFFFFFFFFFFFFFFFFFFFFFF AND DUP2 MSTORE PUSH1 0x20 ADD SWAP1 DUP2 MSTORE PUSH1 0x20 ADD PUSH1 0x0 KECCAK256 SLOAD SWAP1 POP SWAP2 SWAP1 POP JUMP JUMPDEST PUSH2 0x8A6 PUSH2 0x1504 JUMP JUMPDEST PUSH2 0x8B0 PUSH1 0x0 PUSH2 0x16D8 JUMP JUMPDEST JUMP JUMPDEST PUSH1 0x0 PUSH1 0x5 PUSH1 0x0 SWAP1 SLOAD SWAP1 PUSH2 0x100 EXP SWAP1 DIV PUSH20 0xFFFFFFFFFFFFFFFFFFFFFFFFFFFFFFFFFFFFFFFF AND SWAP1 POP SWAP1 JUMP JUMPDEST PUSH1 0x60 PUSH1 0x4 DUP1 SLOAD PUSH2 0x8EB SWAP1 PUSH2 0x1F1B JUMP JUMPDEST DUP1 PUSH1 0x1F ADD PUSH1 0x20 DUP1 SWAP2 DIV MUL PUSH1 0x20 ADD PUSH1 0x40 MLOAD SWAP1 DUP2 ADD PUSH1 0x40 MSTORE DUP1 SWAP3 SWAP2 SWAP1 DUP2 DUP2 MSTORE PUSH1 0x20 ADD DUP3 DUP1 SLOAD PUSH2 0x917 SWAP1 PUSH2 0x1F1B JUMP JUMPDEST DUP1 ISZERO PUSH2 0x964 JUMPI DUP1 PUSH1 0x1F LT PUSH2 0x939 JUMPI PUSH2 0x100 DUP1 DUP4 SLOAD DIV MUL DUP4 MSTORE SWAP2 PUSH1 0x20 ADD SWAP2 PUSH2 0x964 JUMP JUMPDEST DUP3 ADD SWAP2 SWAP1 PUSH1 0x0 MSTORE PUSH1 0x20 PUSH1 0x0 KECCAK256 SWAP1 JUMPDEST DUP2 SLOAD DUP2 MSTORE SWAP1 PUSH1 0x1 ADD SWAP1 PUSH1 0x20 ADD DUP1 DUP4 GT PUSH2 0x947 JUMPI DUP3 SWAP1 SUB PUSH1 0x1F AND DUP3 ADD SWAP2 JUMPDEST POP POP POP POP POP SWAP1 POP SWAP1 JUMP JUMPDEST PUSH1 0x0 DUP1 PUSH2 0x979 PUSH2 0x1031 JUMP JUMPDEST SWAP1 POP PUSH1 0x0 PUSH2 0x987 DUP3 DUP7 PUSH2 0xB10 JUMP JUMPDEST SWAP1 POP DUP4 DUP2 LT ISZERO PUSH2 0x9CC JUMPI PUSH1 0x40 MLOAD PUSH32 0x8C379A000000000000000000000000000000000000000000000000000000000 DUP2 MSTORE PUSH1 0x4 ADD PUSH2 0x9C3 SWAP1 PUSH2 0x2138 JUMP JUMPDEST PUSH1 0x40 MLOAD DUP1 SWAP2 SUB SWAP1 REVERT JUMPDEST PUSH2 0x9D9 DUP3 DUP7 DUP7 DUP5 SUB PUSH2 0x1039 JUMP JUMPDEST PUSH1 0x1 SWAP3 POP POP POP SWAP3 SWAP2 POP POP JUMP JUMPDEST PUSH1 0x0 DUP1 PUSH2 0x9F0 PUSH2 0x1031 JUMP JUMPDEST SWAP1 POP PUSH2 0x9FD DUP2 DUP6 DUP6 PUSH2 0x128E JUMP JUMPDEST PUSH1 0x1 SWAP2 POP POP SWAP3 SWAP2 POP POP JUMP JUMPDEST PUSH2 0xA10 PUSH2 0x1504 JUMP JUMPDEST PUSH1 0x0 DUP3 GT PUSH2 0xA53 JUMPI PUSH1 0x40 MLOAD PUSH32 0x8C379A000000000000000000000000000000000000000000000000000000000 DUP2 MSTORE PUSH1 0x4 ADD PUSH2 0xA4A SWAP1 PUSH2 0x21A4 JUMP JUMPDEST PUSH1 0x40 MLOAD DUP1 SWAP2 SUB SWAP1 REVERT JUMPDEST PUSH1 0x0 DUP2 GT PUSH2 0xA96 JUMPI PUSH1 0x40 MLOAD PUSH32 0x8C379A000000000000000000000000000000000000000000000000000000000 DUP2 MSTORE PUSH1 0x4 ADD PUSH2 0xA8D SWAP1 PUSH2 0x2210 JUMP JUMPDEST PUSH1 0x40 MLOAD DUP1 SWAP2 SUB SWAP1 REVERT JUMPDEST PUSH1 0x7 PUSH1 0x0 DUP2 SLOAD DUP1 SWAP3 SWAP2 SWAP1 PUSH2 0xAA9 SWAP1 PUSH2 0x207E JUMP JUMPDEST SWAP2 SWAP1 POP SSTORE POP PUSH1 0x40 MLOAD DUP1 PUSH1 0x60 ADD PUSH1 0x40 MSTORE DUP1 DUP5 DUP2 MSTORE PUSH1 0x20 ADD DUP4 DUP2 MSTORE PUSH1 0x20 ADD DUP3 DUP2 MSTORE POP PUSH1 0x6 PUSH1 0x0 PUSH1 0x7 SLOAD DUP2 MSTORE PUSH1 0x20 ADD SWAP1 DUP2 MSTORE PUSH1 0x20 ADD PUSH1 0x0 KECCAK256 PUSH1 0x0 DUP3 ADD MLOAD DUP2 PUSH1 0x0 ADD SWAP1 DUP2 PUSH2 0xAF3 SWAP2 SWAP1 PUSH2 0x23DC JUMP JUMPDEST POP PUSH1 0x20 DUP3 ADD MLOAD DUP2 PUSH1 0x1 ADD SSTORE PUSH1 0x40 DUP3 ADD MLOAD DUP2 PUSH1 0x2 ADD SSTORE SWAP1 POP POP POP POP POP JUMP JUMPDEST PUSH1 0x0 PUSH1 0x1 PUSH1 0x0 DUP5 PUSH20 0xFFFFFFFFFFFFFFFFFFFFFFFFFFFFFFFFFFFFFFFF AND PUSH20 0xFFFFFFFFFFFFFFFFFFFFFFFFFFFFFFFFFFFFFFFF AND DUP2 MSTORE PUSH1 0x20 ADD SWAP1 DUP2 MSTORE PUSH1 0x20 ADD PUSH1 0x0 KECCAK256 PUSH1 0x0 DUP4 PUSH20 0xFFFFFFFFFFFFFFFFFFFFFFFFFFFFFFFFFFFFFFFF AND PUSH20 0xFFFFFFFFFFFFFFFFFFFFFFFFFFFFFFFFFFFFFFFF AND DUP2 MSTORE PUSH1 0x20 ADD SWAP1 DUP2 MSTORE PUSH1 0x20 ADD PUSH1 0x0 KECCAK256 SLOAD SWAP1 POP SWAP3 SWAP2 POP POP JUMP JUMPDEST DUP1 PUSH2 0xBA1 CALLER PUSH2 0x856 JUMP JUMPDEST LT ISZERO PUSH2 0xBE2 JUMPI PUSH1 0x40 MLOAD PUSH32 0x8C379A000000000000000000000000000000000000000000000000000000000 DUP2 MSTORE PUSH1 0x4 ADD PUSH2 0xBD9 SWAP1 PUSH2 0x24FA JUMP JUMPDEST PUSH1 0x40 MLOAD DUP1 SWAP2 SUB SWAP1 REVERT JUMPDEST PUSH2 0xBEC CALLER DUP3 PUSH2 0xE64 JUMP JUMPDEST POP JUMP JUMPDEST PUSH1 0x0 DUP2 GT DUP1 ISZERO PUSH2 0xC01 JUMPI POP PUSH1 0x7 SLOAD DUP2 GT ISZERO JUMPDEST PUSH2 0xC40 JUMPI PUSH1 0x40 MLOAD PUSH32 0x8C379A000000000000000000000000000000000000000000000000000000000 DUP2 MSTORE PUSH1 0x4 ADD PUSH2 0xC37 SWAP1 PUSH2 0x2566 JUMP JUMPDEST PUSH1 0x40 MLOAD DUP1 SWAP2 SUB SWAP1 REVERT JUMPDEST PUSH1 0x0 PUSH1 0x6 PUSH1 0x0 DUP4 DUP2 MSTORE PUSH1 0x20 ADD SWAP1 DUP2 MSTORE PUSH1 0x20 ADD PUSH1 0x0 KECCAK256 SWAP1 POP PUSH1 0x0 DUP2 PUSH1 0x2 ADD SLOAD GT PUSH2 0xC9E JUMPI PUSH1 0x40 MLOAD PUSH32 0x8C379A000000000000000000000000000000000000000000000000000000000 DUP2 MSTORE PUSH1 0x4 ADD PUSH2 0xC95 SWAP1 PUSH2 0x25F8 JUMP JUMPDEST PUSH1 0x40 MLOAD DUP1 SWAP2 SUB SWAP1 REVERT JUMPDEST DUP1 PUSH1 0x1 ADD SLOAD PUSH2 0xCAC CALLER PUSH2 0x856 JUMP JUMPDEST LT ISZERO PUSH2 0xCED JUMPI PUSH1 0x40 MLOAD PUSH32 0x8C379A000000000000000000000000000000000000000000000000000000000 DUP2 MSTORE PUSH1 0x4 ADD PUSH2 0xCE4 SWAP1 PUSH2 0x26B0 JUMP JUMPDEST PUSH1 0x40 MLOAD DUP1 SWAP2 SUB SWAP1 REVERT JUMPDEST PUSH2 0xD03 CALLER PUSH2 0xCF9 PUSH2 0x8B2 JUMP JUMPDEST DUP4 PUSH1 0x1 ADD SLOAD PUSH2 0x128E JUMP JUMPDEST PUSH2 0xD11 CALLER DUP3 PUSH1 0x1 ADD SLOAD PUSH2 0xE64 JUMP JUMPDEST DUP1 PUSH1 0x2 ADD PUSH1 0x0 DUP2 SLOAD DUP1 SWAP3 SWAP2 SWAP1 PUSH2 0xD26 SWAP1 PUSH2 0x26D0 JUMP JUMPDEST SWAP2 SWAP1 POP SSTORE POP POP POP JUMP JUMPDEST PUSH2 0xD37 PUSH2 0x1504 JUMP JUMPDEST PUSH1 0x0 PUSH20 0xFFFFFFFFFFFFFFFFFFFFFFFFFFFFFFFFFFFFFFFF AND DUP2 PUSH20 0xFFFFFFFFFFFFFFFFFFFFFFFFFFFFFFFFFFFFFFFF AND SUB PUSH2 0xDA6 JUMPI PUSH1 0x40 MLOAD PUSH32 0x8C379A000000000000000000000000000000000000000000000000000000000 DUP2 MSTORE PUSH1 0x4 ADD PUSH2 0xD9D SWAP1 PUSH2 0x276B JUMP JUMPDEST PUSH1 0x40 MLOAD DUP1 SWAP2 SUB SWAP1 REVERT JUMPDEST PUSH2 0xDAF DUP2 PUSH2 0x16D8 JUMP JUMPDEST POP JUMP JUMPDEST PUSH1 0x6 PUSH1 0x20 MSTORE DUP1 PUSH1 0x0 MSTORE PUSH1 0x40 PUSH1 0x0 KECCAK256 PUSH1 0x0 SWAP2 POP SWAP1 POP DUP1 PUSH1 0x0 ADD DUP1 SLOAD PUSH2 0xDD5 SWAP1 PUSH2 0x1F1B JUMP JUMPDEST DUP1 PUSH1 0x1F ADD PUSH1 0x20 DUP1 SWAP2 DIV MUL PUSH1 0x20 ADD PUSH1 0x40 MLOAD SWAP1 DUP2 ADD PUSH1 0x40 MSTORE DUP1 SWAP3 SWAP2 SWAP1 DUP2 DUP2 MSTORE PUSH1 0x20 ADD DUP3 DUP1 SLOAD PUSH2 0xE01 SWAP1 PUSH2 0x1F1B JUMP JUMPDEST DUP1 ISZERO PUSH2 0xE4E JUMPI DUP1 PUSH1 0x1F LT PUSH2 0xE23 JUMPI PUSH2 0x100 DUP1 DUP4 SLOAD DIV MUL DUP4 MSTORE SWAP2 PUSH1 0x20 ADD SWAP2 PUSH2 0xE4E JUMP JUMPDEST DUP3 ADD SWAP2 SWAP1 PUSH1 0x0 MSTORE PUSH1 0x20 PUSH1 0x0 KECCAK256 SWAP1 JUMPDEST DUP2 SLOAD DUP2 MSTORE SWAP1 PUSH1 0x1 ADD SWAP1 PUSH1 0x20 ADD DUP1 DUP4 GT PUSH2 0xE31 JUMPI DUP3 SWAP1 SUB PUSH1 0x1F AND DUP3 ADD SWAP2 JUMPDEST POP POP POP POP POP SWAP1 DUP1 PUSH1 0x1 ADD SLOAD SWAP1 DUP1 PUSH1 0x2 ADD SLOAD SWAP1 POP DUP4 JUMP JUMPDEST PUSH1 0x0 PUSH20 0xFFFFFFFFFFFFFFFFFFFFFFFFFFFFFFFFFFFFFFFF AND DUP3 PUSH20 0xFFFFFFFFFFFFFFFFFFFFFFFFFFFFFFFFFFFFFFFF AND SUB PUSH2 0xED3 JUMPI PUSH1 0x40 MLOAD PUSH32 0x8C379A000000000000000000000000000000000000000000000000000000000 DUP2 MSTORE PUSH1 0x4 ADD PUSH2 0xECA SWAP1 PUSH2 0x27FD JUMP JUMPDEST PUSH1 0x40 MLOAD DUP1 SWAP2 SUB SWAP1 REVERT JUMPDEST PUSH2 0xEDF DUP3 PUSH1 0x0 DUP4 PUSH2 0x179E JUMP JUMPDEST PUSH1 0x0 DUP1 PUSH1 0x0 DUP5 PUSH20 0xFFFFFFFFFFFFFFFFFFFFFFFFFFFFFFFFFFFFFFFF AND PUSH20 0xFFFFFFFFFFFFFFFFFFFFFFFFFFFFFFFFFFFFFFFF AND DUP2 MSTORE PUSH1 0x20 ADD SWAP1 DUP2 MSTORE PUSH1 0x20 ADD PUSH1 0x0 KECCAK256 SLOAD SWAP1 POP DUP2 DUP2 LT ISZERO PUSH2 0xF65 JUMPI PUSH1 0x40 MLOAD PUSH32 0x8C379A000000000000000000000000000000000000000000000000000000000 DUP2 MSTORE PUSH1 0x4 ADD PUSH2 0xF5C SWAP1 PUSH2 0x288F JUMP JUMPDEST PUSH1 0x40 MLOAD DUP1 SWAP2 SUB SWAP1 REVERT JUMPDEST DUP2 DUP2 SUB PUSH1 0x0 DUP1 DUP6 PUSH20 0xFFFFFFFFFFFFFFFFFFFFFFFFFFFFFFFFFFFFFFFF AND PUSH20 0xFFFFFFFFFFFFFFFFFFFFFFFFFFFFFFFFFFFFFFFF AND DUP2 MSTORE PUSH1 0x20 ADD SWAP1 DUP2 MSTORE PUSH1 0x20 ADD PUSH1 0x0 KECCAK256 DUP2 SWAP1 SSTORE POP DUP2 PUSH1 0x2 PUSH1 0x0 DUP3 DUP3 SLOAD SUB SWAP3 POP POP DUP2 SWAP1 SSTORE POP PUSH1 0x0 PUSH20 0xFFFFFFFFFFFFFFFFFFFFFFFFFFFFFFFFFFFFFFFF AND DUP4 PUSH20 0xFFFFFFFFFFFFFFFFFFFFFFFFFFFFFFFFFFFFFFFF AND PUSH32 0xDDF252AD1BE2C89B69C2B068FC378DAA952BA7F163C4A11628F55A4DF523B3EF DUP5 PUSH1 0x40 MLOAD PUSH2 0x1018 SWAP2 SWAP1 PUSH2 0x19D5 JUMP JUMPDEST PUSH1 0x40 MLOAD DUP1 SWAP2 SUB SWAP1 LOG3 PUSH2 0x102C DUP4 PUSH1 0x0 DUP5 PUSH2 0x17A3 JUMP JUMPDEST POP POP POP JUMP JUMPDEST PUSH1 0x0 CALLER SWAP1 POP SWAP1 JUMP JUMPDEST PUSH1 0x0 PUSH20 0xFFFFFFFFFFFFFFFFFFFFFFFFFFFFFFFFFFFFFFFF AND DUP4 PUSH20 0xFFFFFFFFFFFFFFFFFFFFFFFFFFFFFFFFFFFFFFFF AND SUB PUSH2 0x10A8 JUMPI PUSH1 0x40 MLOAD PUSH32 0x8C379A000000000000000000000000000000000000000000000000000000000 DUP2 MSTORE PUSH1 0x4 ADD PUSH2 0x109F SWAP1 PUSH2 0x2921 JUMP JUMPDEST PUSH1 0x40 MLOAD DUP1 SWAP2 SUB SWAP1 REVERT JUMPDEST PUSH1 0x0 PUSH20 0xFFFFFFFFFFFFFFFFFFFFFFFFFFFFFFFFFFFFFFFF AND DUP3 PUSH20 0xFFFFFFFFFFFFFFFFFFFFFFFFFFFFFFFFFFFFFFFF AND SUB PUSH2 0x1117 JUMPI PUSH1 0x40 MLOAD PUSH32 0x8C379A000000000000000000000000000000000000000000000000000000000 DUP2 MSTORE PUSH1 0x4 ADD PUSH2 0x110E SWAP1 PUSH2 0x29B3 JUMP JUMPDEST PUSH1 0x40 MLOAD DUP1 SWAP2 SUB SWAP1 REVERT JUMPDEST DUP1 PUSH1 0x1 PUSH1 0x0 DUP6 PUSH20 0xFFFFFFFFFFFFFFFFFFFFFFFFFFFFFFFFFFFFFFFF AND PUSH20 0xFFFFFFFFFFFFFFFFFFFFFFFFFFFFFFFFFFFFFFFF AND DUP2 MSTORE PUSH1 0x20 ADD SWAP1 DUP2 MSTORE PUSH1 0x20 ADD PUSH1 0x0 KECCAK256 PUSH1 0x0 DUP5 PUSH20 0xFFFFFFFFFFFFFFFFFFFFFFFFFFFFFFFFFFFFFFFF AND PUSH20 0xFFFFFFFFFFFFFFFFFFFFFFFFFFFFFFFFFFFFFFFF AND DUP2 MSTORE PUSH1 0x20 ADD SWAP1 DUP2 MSTORE PUSH1 0x20 ADD PUSH1 0x0 KECCAK256 DUP2 SWAP1 SSTORE POP DUP2 PUSH20 0xFFFFFFFFFFFFFFFFFFFFFFFFFFFFFFFFFFFFFFFF AND DUP4 PUSH20 0xFFFFFFFFFFFFFFFFFFFFFFFFFFFFFFFFFFFFFFFF AND PUSH32 0x8C5BE1E5EBEC7D5BD14F71427D1E84F3DD0314C0F7B2291E5B200AC8C7C3B925 DUP4 PUSH1 0x40 MLOAD PUSH2 0x11F5 SWAP2 SWAP1 PUSH2 0x19D5 JUMP JUMPDEST PUSH1 0x40 MLOAD DUP1 SWAP2 SUB SWAP1 LOG3 POP POP POP JUMP JUMPDEST PUSH1 0x0 PUSH2 0x120E DUP5 DUP5 PUSH2 0xB10 JUMP JUMPDEST SWAP1 POP PUSH32 0xFFFFFFFFFFFFFFFFFFFFFFFFFFFFFFFFFFFFFFFFFFFFFFFFFFFFFFFFFFFFFFFF DUP2 EQ PUSH2 0x1288 JUMPI DUP2 DUP2 LT ISZERO PUSH2 0x127A JUMPI PUSH1 0x40 MLOAD PUSH32 0x8C379A000000000000000000000000000000000000000000000000000000000 DUP2 MSTORE PUSH1 0x4 ADD PUSH2 0x1271 SWAP1 PUSH2 0x2A1F JUMP JUMPDEST PUSH1 0x40 MLOAD DUP1 SWAP2 SUB SWAP1 REVERT JUMPDEST PUSH2 0x1287 DUP5 DUP5 DUP5 DUP5 SUB PUSH2 0x1039 JUMP JUMPDEST JUMPDEST POP POP POP POP JUMP JUMPDEST PUSH1 0x0 PUSH20 0xFFFFFFFFFFFFFFFFFFFFFFFFFFFFFFFFFFFFFFFF AND DUP4 PUSH20 0xFFFFFFFFFFFFFFFFFFFFFFFFFFFFFFFFFFFFFFFF AND SUB PUSH2 0x12FD JUMPI PUSH1 0x40 MLOAD PUSH32 0x8C379A000000000000000000000000000000000000000000000000000000000 DUP2 MSTORE PUSH1 0x4 ADD PUSH2 0x12F4 SWAP1 PUSH2 0x2AB1 JUMP JUMPDEST PUSH1 0x40 MLOAD DUP1 SWAP2 SUB SWAP1 REVERT JUMPDEST PUSH1 0x0 PUSH20 0xFFFFFFFFFFFFFFFFFFFFFFFFFFFFFFFFFFFFFFFF AND DUP3 PUSH20 0xFFFFFFFFFFFFFFFFFFFFFFFFFFFFFFFFFFFFFFFF AND SUB PUSH2 0x136C JUMPI PUSH1 0x40 MLOAD PUSH32 0x8C379A000000000000000000000000000000000000000000000000000000000 DUP2 MSTORE PUSH1 0x4 ADD PUSH2 0x1363 SWAP1 PUSH2 0x2B43 JUMP JUMPDEST PUSH1 0x40 MLOAD DUP1 SWAP2 SUB SWAP1 REVERT JUMPDEST PUSH2 0x1377 DUP4 DUP4 DUP4 PUSH2 0x179E JUMP JUMPDEST PUSH1 0x0 DUP1 PUSH1 0x0 DUP6 PUSH20 0xFFFFFFFFFFFFFFFFFFFFFFFFFFFFFFFFFFFFFFFF AND PUSH20 0xFFFFFFFFFFFFFFFFFFFFFFFFFFFFFFFFFFFFFFFF AND DUP2 MSTORE PUSH1 0x20 ADD SWAP1 DUP2 MSTORE PUSH1 0x20 ADD PUSH1 0x0 KECCAK256 SLOAD SWAP1 POP DUP2 DUP2 LT ISZERO PUSH2 0x13FD JUMPI PUSH1 0x40 MLOAD PUSH32 0x8C379A000000000000000000000000000000000000000000000000000000000 DUP2 MSTORE PUSH1 0x4 ADD PUSH2 0x13F4 SWAP1 PUSH2 0x2BD5 JUMP JUMPDEST PUSH1 0x40 MLOAD DUP1 SWAP2 SUB SWAP1 REVERT JUMPDEST DUP2 DUP2 SUB PUSH1 0x0 DUP1 DUP7 PUSH20 0xFFFFFFFFFFFFFFFFFFFFFFFFFFFFFFFFFFFFFFFF AND PUSH20 0xFFFFFFFFFFFFFFFFFFFFFFFFFFFFFFFFFFFFFFFF AND DUP2 MSTORE PUSH1 0x20 ADD SWAP1 DUP2 MSTORE PUSH1 0x20 ADD PUSH1 0x0 KECCAK256 DUP2 SWAP1 SSTORE POP DUP2 PUSH1 0x0 DUP1 DUP6 PUSH20 0xFFFFFFFFFFFFFFFFFFFFFFFFFFFFFFFFFFFFFFFF AND PUSH20 0xFFFFFFFFFFFFFFFFFFFFFFFFFFFFFFFFFFFFFFFF AND DUP2 MSTORE PUSH1 0x20 ADD SWAP1 DUP2 MSTORE PUSH1 0x20 ADD PUSH1 0x0 KECCAK256 PUSH1 0x0 DUP3 DUP3 SLOAD ADD SWAP3 POP POP DUP2 SWAP1 SSTORE POP DUP3 PUSH20 0xFFFFFFFFFFFFFFFFFFFFFFFFFFFFFFFFFFFFFFFF AND DUP5 PUSH20 0xFFFFFFFFFFFFFFFFFFFFFFFFFFFFFFFFFFFFFFFF AND PUSH32 0xDDF252AD1BE2C89B69C2B068FC378DAA952BA7F163C4A11628F55A4DF523B3EF DUP5 PUSH1 0x40 MLOAD PUSH2 0x14EB SWAP2 SWAP1 PUSH2 0x19D5 JUMP JUMPDEST PUSH1 0x40 MLOAD DUP1 SWAP2 SUB SWAP1 LOG3 PUSH2 0x14FE DUP5 DUP5 DUP5 PUSH2 0x17A3 JUMP JUMPDEST POP POP POP POP JUMP JUMPDEST PUSH2 0x150C PUSH2 0x1031 JUMP JUMPDEST PUSH20 0xFFFFFFFFFFFFFFFFFFFFFFFFFFFFFFFFFFFFFFFF AND PUSH2 0x152A PUSH2 0x8B2 JUMP JUMPDEST PUSH20 0xFFFFFFFFFFFFFFFFFFFFFFFFFFFFFFFFFFFFFFFF AND EQ PUSH2 0x1580 JUMPI PUSH1 0x40 MLOAD PUSH32 0x8C379A000000000000000000000000000000000000000000000000000000000 DUP2 MSTORE PUSH1 0x4 ADD PUSH2 0x1577 SWAP1 PUSH2 0x2C41 JUMP JUMPDEST PUSH1 0x40 MLOAD DUP1 SWAP2 SUB SWAP1 REVERT JUMPDEST JUMP JUMPDEST PUSH1 0x0 PUSH20 0xFFFFFFFFFFFFFFFFFFFFFFFFFFFFFFFFFFFFFFFF AND DUP3 PUSH20 0xFFFFFFFFFFFFFFFFFFFFFFFFFFFFFFFFFFFFFFFF AND SUB PUSH2 0x15F1 JUMPI PUSH1 0x40 MLOAD PUSH32 0x8C379A000000000000000000000000000000000000000000000000000000000 DUP2 MSTORE PUSH1 0x4 ADD PUSH2 0x15E8 SWAP1 PUSH2 0x2CAD JUMP JUMPDEST PUSH1 0x40 MLOAD DUP1 SWAP2 SUB SWAP1 REVERT JUMPDEST PUSH2 0x15FD PUSH1 0x0 DUP4 DUP4 PUSH2 0x179E JUMP JUMPDEST DUP1 PUSH1 0x2 PUSH1 0x0 DUP3 DUP3 SLOAD PUSH2 0x160F SWAP2 SWAP1 PUSH2 0x1FE7 JUMP JUMPDEST SWAP3 POP POP DUP2 SWAP1 SSTORE POP DUP1 PUSH1 0x0 DUP1 DUP5 PUSH20 0xFFFFFFFFFFFFFFFFFFFFFFFFFFFFFFFFFFFFFFFF AND PUSH20 0xFFFFFFFFFFFFFFFFFFFFFFFFFFFFFFFFFFFFFFFF AND DUP2 MSTORE PUSH1 0x20 ADD SWAP1 DUP2 MSTORE PUSH1 0x20 ADD PUSH1 0x0 KECCAK256 PUSH1 0x0 DUP3 DUP3 SLOAD ADD SWAP3 POP POP DUP2 SWAP1 SSTORE POP DUP2 PUSH20 0xFFFFFFFFFFFFFFFFFFFFFFFFFFFFFFFFFFFFFFFF AND PUSH1 0x0 PUSH20 0xFFFFFFFFFFFFFFFFFFFFFFFFFFFFFFFFFFFFFFFF AND PUSH32 0xDDF252AD1BE2C89B69C2B068FC378DAA952BA7F163C4A11628F55A4DF523B3EF DUP4 PUSH1 0x40 MLOAD PUSH2 0x16C0 SWAP2 SWAP1 PUSH2 0x19D5 JUMP JUMPDEST PUSH1 0x40 MLOAD DUP1 SWAP2 SUB SWAP1 LOG3 PUSH2 0x16D4 PUSH1 0x0 DUP4 DUP4 PUSH2 0x17A3 JUMP JUMPDEST POP POP JUMP JUMPDEST PUSH1 0x0 PUSH1 0x5 PUSH1 0x0 SWAP1 SLOAD SWAP1 PUSH2 0x100 EXP SWAP1 DIV PUSH20 0xFFFFFFFFFFFFFFFFFFFFFFFFFFFFFFFFFFFFFFFF AND SWAP1 POP DUP2 PUSH1 0x5 PUSH1 0x0 PUSH2 0x100 EXP DUP2 SLOAD DUP2 PUSH20 0xFFFFFFFFFFFFFFFFFFFFFFFFFFFFFFFFFFFFFFFF MUL NOT AND SWAP1 DUP4 PUSH20 0xFFFFFFFFFFFFFFFFFFFFFFFFFFFFFFFFFFFFFFFF AND MUL OR SWAP1 SSTORE POP DUP2 PUSH20 0xFFFFFFFFFFFFFFFFFFFFFFFFFFFFFFFFFFFFFFFF AND DUP2 PUSH20 0xFFFFFFFFFFFFFFFFFFFFFFFFFFFFFFFFFFFFFFFF AND PUSH32 0x8BE0079C531659141344CD1FD0A4F28419497F9722A3DAAFE3B4186F6B6457E0 PUSH1 0x40 MLOAD PUSH1 0x40 MLOAD DUP1 SWAP2 SUB SWAP1 LOG3 POP POP JUMP JUMPDEST POP POP POP JUMP JUMPDEST POP POP POP JUMP JUMPDEST PUSH1 0x40 MLOAD DUP1 PUSH1 0x60 ADD PUSH1 0x40 MSTORE DUP1 PUSH1 0x60 DUP2 MSTORE PUSH1 0x20 ADD PUSH1 0x0 DUP2 MSTORE PUSH1 0x20 ADD PUSH1 0x0 DUP2 MSTORE POP SWAP1 JUMP JUMPDEST PUSH1 0x0 PUSH1 0x40 MLOAD SWAP1 POP SWAP1 JUMP JUMPDEST PUSH1 0x0 DUP1 REVERT JUMPDEST PUSH1 0x0 DUP1 REVERT JUMPDEST PUSH1 0x0 DUP2 SWAP1 POP SWAP2 SWAP1 POP JUMP JUMPDEST PUSH2 0x17F0 DUP2 PUSH2 0x17DD JUMP JUMPDEST DUP2 EQ PUSH2 0x17FB JUMPI PUSH1 0x0 DUP1 REVERT JUMPDEST POP JUMP JUMPDEST PUSH1 0x0 DUP2 CALLDATALOAD SWAP1 POP PUSH2 0x180D DUP2 PUSH2 0x17E7 JUMP JUMPDEST SWAP3 SWAP2 POP POP JUMP JUMPDEST PUSH1 0x0 PUSH1 0x20 DUP3 DUP5 SUB SLT ISZERO PUSH2 0x1829 JUMPI PUSH2 0x1828 PUSH2 0x17D3 JUMP JUMPDEST JUMPDEST PUSH1 0x0 PUSH2 0x1837 DUP5 DUP3 DUP6 ADD PUSH2 0x17FE JUMP JUMPDEST SWAP2 POP POP SWAP3 SWAP2 POP POP JUMP JUMPDEST PUSH1 0x0 DUP2 MLOAD SWAP1 POP SWAP2 SWAP1 POP JUMP JUMPDEST PUSH1 0x0 DUP3 DUP3 MSTORE PUSH1 0x20 DUP3 ADD SWAP1 POP SWAP3 SWAP2 POP POP JUMP JUMPDEST PUSH1 0x0 JUMPDEST DUP4 DUP2 LT ISZERO PUSH2 0x187A JUMPI DUP1 DUP3 ADD MLOAD DUP2 DUP5 ADD MSTORE PUSH1 0x20 DUP2 ADD SWAP1 POP PUSH2 0x185F JUMP JUMPDEST PUSH1 0x0 DUP5 DUP5 ADD MSTORE POP POP POP POP JUMP JUMPDEST PUSH1 0x0 PUSH1 0x1F NOT PUSH1 0x1F DUP4 ADD AND SWAP1 POP SWAP2 SWAP1 POP JUMP JUMPDEST PUSH1 0x0 PUSH2 0x18A2 DUP3 PUSH2 0x1840 JUMP JUMPDEST PUSH2 0x18AC DUP2 DUP6 PUSH2 0x184B JUMP JUMPDEST SWAP4 POP PUSH2 0x18BC DUP2 DUP6 PUSH1 0x20 DUP7 ADD PUSH2 0x185C JUMP JUMPDEST PUSH2 0x18C5 DUP2 PUSH2 0x1886 JUMP JUMPDEST DUP5 ADD SWAP2 POP POP SWAP3 SWAP2 POP POP JUMP JUMPDEST PUSH1 0x0 PUSH1 0x20 DUP3 ADD SWAP1 POP DUP2 DUP2 SUB PUSH1 0x0 DUP4 ADD MSTORE PUSH2 0x18EA DUP2 DUP5 PUSH2 0x1897 JUMP JUMPDEST SWAP1 POP SWAP3 SWAP2 POP POP JUMP JUMPDEST PUSH1 0x0 PUSH20 0xFFFFFFFFFFFFFFFFFFFFFFFFFFFFFFFFFFFFFFFF DUP3 AND SWAP1 POP SWAP2 SWAP1 POP JUMP JUMPDEST PUSH1 0x0 PUSH2 0x191D DUP3 PUSH2 0x18F2 JUMP JUMPDEST SWAP1 POP SWAP2 SWAP1 POP JUMP JUMPDEST PUSH2 0x192D DUP2 PUSH2 0x1912 JUMP JUMPDEST DUP2 EQ PUSH2 0x1938 JUMPI PUSH1 0x0 DUP1 REVERT JUMPDEST POP JUMP JUMPDEST PUSH1 0x0 DUP2 CALLDATALOAD SWAP1 POP PUSH2 0x194A DUP2 PUSH2 0x1924 JUMP JUMPDEST SWAP3 SWAP2 POP POP JUMP JUMPDEST PUSH1 0x0 DUP1 PUSH1 0x40 DUP4 DUP6 SUB SLT ISZERO PUSH2 0x1967 JUMPI PUSH2 0x1966 PUSH2 0x17D3 JUMP JUMPDEST JUMPDEST PUSH1 0x0 PUSH2 0x1975 DUP6 DUP3 DUP7 ADD PUSH2 0x193B JUMP JUMPDEST SWAP3 POP POP PUSH1 0x20 PUSH2 0x1986 DUP6 DUP3 DUP7 ADD PUSH2 0x17FE JUMP JUMPDEST SWAP2 POP POP SWAP3 POP SWAP3 SWAP1 POP JUMP JUMPDEST PUSH1 0x0 DUP2 ISZERO ISZERO SWAP1 POP SWAP2 SWAP1 POP JUMP JUMPDEST PUSH2 0x19A5 DUP2 PUSH2 0x1990 JUMP JUMPDEST DUP3 MSTORE POP POP JUMP JUMPDEST PUSH1 0x0 PUSH1 0x20 DUP3 ADD SWAP1 POP PUSH2 0x19C0 PUSH1 0x0 DUP4 ADD DUP5 PUSH2 0x199C JUMP JUMPDEST SWAP3 SWAP2 POP POP JUMP JUMPDEST PUSH2 0x19CF DUP2 PUSH2 0x17DD JUMP JUMPDEST DUP3 MSTORE POP POP JUMP JUMPDEST PUSH1 0x0 PUSH1 0x20 DUP3 ADD SWAP1 POP PUSH2 0x19EA PUSH1 0x0 DUP4 ADD DUP5 PUSH2 0x19C6 JUMP JUMPDEST SWAP3 SWAP2 POP POP JUMP JUMPDEST PUSH1 0x0 DUP1 PUSH1 0x0 PUSH1 0x60 DUP5 DUP7 SUB SLT ISZERO PUSH2 0x1A09 JUMPI PUSH2 0x1A08 PUSH2 0x17D3 JUMP JUMPDEST JUMPDEST PUSH1 0x0 PUSH2 0x1A17 DUP7 DUP3 DUP8 ADD PUSH2 0x193B JUMP JUMPDEST SWAP4 POP POP PUSH1 0x20 PUSH2 0x1A28 DUP7 DUP3 DUP8 ADD PUSH2 0x193B JUMP JUMPDEST SWAP3 POP POP PUSH1 0x40 PUSH2 0x1A39 DUP7 DUP3 DUP8 ADD PUSH2 0x17FE JUMP JUMPDEST SWAP2 POP POP SWAP3 POP SWAP3 POP SWAP3 JUMP JUMPDEST PUSH1 0x0 PUSH1 0xFF DUP3 AND SWAP1 POP SWAP2 SWAP1 POP JUMP JUMPDEST PUSH2 0x1A59 DUP2 PUSH2 0x1A43 JUMP JUMPDEST DUP3 MSTORE POP POP JUMP JUMPDEST PUSH1 0x0 PUSH1 0x20 DUP3 ADD SWAP1 POP PUSH2 0x1A74 PUSH1 0x0 DUP4 ADD DUP5 PUSH2 0x1A50 JUMP JUMPDEST SWAP3 SWAP2 POP POP JUMP JUMPDEST PUSH1 0x0 PUSH1 0x20 DUP3 DUP5 SUB SLT ISZERO PUSH2 0x1A90 JUMPI PUSH2 0x1A8F PUSH2 0x17D3 JUMP JUMPDEST JUMPDEST PUSH1 0x0 PUSH2 0x1A9E DUP5 DUP3 DUP6 ADD PUSH2 0x193B JUMP JUMPDEST SWAP2 POP POP SWAP3 SWAP2 POP POP JUMP JUMPDEST PUSH1 0x0 DUP2 MLOAD SWAP1 POP SWAP2 SWAP1 POP JUMP JUMPDEST PUSH1 0x0 DUP3 DUP3 MSTORE PUSH1 0x20 DUP3 ADD SWAP1 POP SWAP3 SWAP2 POP POP JUMP JUMPDEST PUSH1 0x0 DUP2 SWAP1 POP PUSH1 0x20 DUP3 ADD SWAP1 POP SWAP2 SWAP1 POP JUMP JUMPDEST PUSH1 0x0 DUP3 DUP3 MSTORE PUSH1 0x20 DUP3 ADD SWAP1 POP SWAP3 SWAP2 POP POP JUMP JUMPDEST PUSH1 0x0 PUSH2 0x1AEF DUP3 PUSH2 0x1840 JUMP JUMPDEST PUSH2 0x1AF9 DUP2 DUP6 PUSH2 0x1AD3 JUMP JUMPDEST SWAP4 POP PUSH2 0x1B09 DUP2 DUP6 PUSH1 0x20 DUP7 ADD PUSH2 0x185C JUMP JUMPDEST PUSH2 0x1B12 DUP2 PUSH2 0x1886 JUMP JUMPDEST DUP5 ADD SWAP2 POP POP SWAP3 SWAP2 POP POP JUMP JUMPDEST PUSH2 0x1B26 DUP2 PUSH2 0x17DD JUMP JUMPDEST DUP3 MSTORE POP POP JUMP JUMPDEST PUSH1 0x0 PUSH1 0x60 DUP4 ADD PUSH1 0x0 DUP4 ADD MLOAD DUP5 DUP3 SUB PUSH1 0x0 DUP7 ADD MSTORE PUSH2 0x1B49 DUP3 DUP3 PUSH2 0x1AE4 JUMP JUMPDEST SWAP2 POP POP PUSH1 0x20 DUP4 ADD MLOAD PUSH2 0x1B5E PUSH1 0x20 DUP7 ADD DUP3 PUSH2 0x1B1D JUMP JUMPDEST POP PUSH1 0x40 DUP4 ADD MLOAD PUSH2 0x1B71 PUSH1 0x40 DUP7 ADD DUP3 PUSH2 0x1B1D JUMP JUMPDEST POP DUP1 SWAP2 POP POP SWAP3 SWAP2 POP POP JUMP JUMPDEST PUSH1 0x0 PUSH2 0x1B88 DUP4 DUP4 PUSH2 0x1B2C JUMP JUMPDEST SWAP1 POP SWAP3 SWAP2 POP POP JUMP JUMPDEST PUSH1 0x0 PUSH1 0x20 DUP3 ADD SWAP1 POP SWAP2 SWAP1 POP JUMP JUMPDEST PUSH1 0x0 PUSH2 0x1BA8 DUP3 PUSH2 0x1AA7 JUMP JUMPDEST PUSH2 0x1BB2 DUP2 DUP6 PUSH2 0x1AB2 JUMP JUMPDEST SWAP4 POP DUP4 PUSH1 0x20 DUP3 MUL DUP6 ADD PUSH2 0x1BC4 DUP6 PUSH2 0x1AC3 JUMP JUMPDEST DUP1 PUSH1 0x0 JUMPDEST DUP6 DUP2 LT ISZERO PUSH2 0x1C00 JUMPI DUP5 DUP5 SUB DUP10 MSTORE DUP2 MLOAD PUSH2 0x1BE1 DUP6 DUP3 PUSH2 0x1B7C JUMP JUMPDEST SWAP5 POP PUSH2 0x1BEC DUP4 PUSH2 0x1B90 JUMP JUMPDEST SWAP3 POP PUSH1 0x20 DUP11 ADD SWAP10 POP POP PUSH1 0x1 DUP2 ADD SWAP1 POP PUSH2 0x1BC8 JUMP JUMPDEST POP DUP3 SWAP8 POP DUP8 SWAP6 POP POP POP POP POP POP SWAP3 SWAP2 POP POP JUMP JUMPDEST PUSH1 0x0 PUSH1 0x20 DUP3 ADD SWAP1 POP DUP2 DUP2 SUB PUSH1 0x0 DUP4 ADD MSTORE PUSH2 0x1C2C DUP2 DUP5 PUSH2 0x1B9D JUMP JUMPDEST SWAP1 POP SWAP3 SWAP2 POP POP JUMP JUMPDEST PUSH2 0x1C3D DUP2 PUSH2 0x1912 JUMP JUMPDEST DUP3 MSTORE POP POP JUMP JUMPDEST PUSH1 0x0 PUSH1 0x20 DUP3 ADD SWAP1 POP PUSH2 0x1C58 PUSH1 0x0 DUP4 ADD DUP5 PUSH2 0x1C34 JUMP JUMPDEST SWAP3 SWAP2 POP POP JUMP JUMPDEST PUSH1 0x0 DUP1 REVERT JUMPDEST PUSH1 0x0 DUP1 REVERT JUMPDEST PUSH32 0x4E487B7100000000000000000000000000000000000000000000000000000000 PUSH1 0x0 MSTORE PUSH1 0x41 PUSH1 0x4 MSTORE PUSH1 0x24 PUSH1 0x0 REVERT JUMPDEST PUSH2 0x1CA0 DUP3 PUSH2 0x1886 JUMP JUMPDEST DUP2 ADD DUP2 DUP2 LT PUSH8 0xFFFFFFFFFFFFFFFF DUP3 GT OR ISZERO PUSH2 0x1CBF JUMPI PUSH2 0x1CBE PUSH2 0x1C68 JUMP JUMPDEST JUMPDEST DUP1 PUSH1 0x40 MSTORE POP POP POP JUMP JUMPDEST PUSH1 0x0 PUSH2 0x1CD2 PUSH2 0x17C9 JUMP JUMPDEST SWAP1 POP PUSH2 0x1CDE DUP3 DUP3 PUSH2 0x1C97 JUMP JUMPDEST SWAP2 SWAP1 POP JUMP JUMPDEST PUSH1 0x0 PUSH8 0xFFFFFFFFFFFFFFFF DUP3 GT ISZERO PUSH2 0x1CFE JUMPI PUSH2 0x1CFD PUSH2 0x1C68 JUMP JUMPDEST JUMPDEST PUSH2 0x1D07 DUP3 PUSH2 0x1886 JUMP JUMPDEST SWAP1 POP PUSH1 0x20 DUP2 ADD SWAP1 POP SWAP2 SWAP1 POP JUMP JUMPDEST DUP3 DUP2 DUP4 CALLDATACOPY PUSH1 0x0 DUP4 DUP4 ADD MSTORE POP POP POP JUMP JUMPDEST PUSH1 0x0 PUSH2 0x1D36 PUSH2 0x1D31 DUP5 PUSH2 0x1CE3 JUMP JUMPDEST PUSH2 0x1CC8 JUMP JUMPDEST SWAP1 POP DUP3 DUP2 MSTORE PUSH1 0x20 DUP2 ADD DUP5 DUP5 DUP5 ADD GT ISZERO PUSH2 0x1D52 JUMPI PUSH2 0x1D51 PUSH2 0x1C63 JUMP JUMPDEST JUMPDEST PUSH2 0x1D5D DUP5 DUP3 DUP6 PUSH2 0x1D14 JUMP JUMPDEST POP SWAP4 SWAP3 POP POP POP JUMP JUMPDEST PUSH1 0x0 DUP3 PUSH1 0x1F DUP4 ADD SLT PUSH2 0x1D7A JUMPI PUSH2 0x1D79 PUSH2 0x1C5E JUMP JUMPDEST JUMPDEST DUP2 CALLDATALOAD PUSH2 0x1D8A DUP5 DUP3 PUSH1 0x20 DUP7 ADD PUSH2 0x1D23 JUMP JUMPDEST SWAP2 POP POP SWAP3 SWAP2 POP POP JUMP JUMPDEST PUSH1 0x0 DUP1 PUSH1 0x0 PUSH1 0x60 DUP5 DUP7 SUB SLT ISZERO PUSH2 0x1DAC JUMPI PUSH2 0x1DAB PUSH2 0x17D3 JUMP JUMPDEST JUMPDEST PUSH1 0x0 DUP5 ADD CALLDATALOAD PUSH8 0xFFFFFFFFFFFFFFFF DUP2 GT ISZERO PUSH2 0x1DCA JUMPI PUSH2 0x1DC9 PUSH2 0x17D8 JUMP JUMPDEST JUMPDEST PUSH2 0x1DD6 DUP7 DUP3 DUP8 ADD PUSH2 0x1D65 JUMP JUMPDEST SWAP4 POP POP PUSH1 0x20 PUSH2 0x1DE7 DUP7 DUP3 DUP8 ADD PUSH2 0x17FE JUMP JUMPDEST SWAP3 POP POP PUSH1 0x40 PUSH2 0x1DF8 DUP7 DUP3 DUP8 ADD PUSH2 0x17FE JUMP JUMPDEST SWAP2 POP POP SWAP3 POP SWAP3 POP SWAP3 JUMP JUMPDEST PUSH1 0x0 DUP1 PUSH1 0x40 DUP4 DUP6 SUB SLT ISZERO PUSH2 0x1E19 JUMPI PUSH2 0x1E18 PUSH2 0x17D3 JUMP JUMPDEST JUMPDEST PUSH1 0x0 PUSH2 0x1E27 DUP6 DUP3 DUP7 ADD PUSH2 0x193B JUMP JUMPDEST SWAP3 POP POP PUSH1 0x20 PUSH2 0x1E38 DUP6 DUP3 DUP7 ADD PUSH2 0x193B JUMP JUMPDEST SWAP2 POP POP SWAP3 POP SWAP3 SWAP1 POP JUMP JUMPDEST PUSH1 0x0 PUSH1 0x60 DUP3 ADD SWAP1 POP DUP2 DUP2 SUB PUSH1 0x0 DUP4 ADD MSTORE PUSH2 0x1E5C DUP2 DUP7 PUSH2 0x1897 JUMP JUMPDEST SWAP1 POP PUSH2 0x1E6B PUSH1 0x20 DUP4 ADD DUP6 PUSH2 0x19C6 JUMP JUMPDEST PUSH2 0x1E78 PUSH1 0x40 DUP4 ADD DUP5 PUSH2 0x19C6 JUMP JUMPDEST SWAP5 SWAP4 POP POP POP POP JUMP JUMPDEST PUSH32 0x496E73756666696369656E742062616C616E6365000000000000000000000000 PUSH1 0x0 DUP3 ADD MSTORE POP JUMP JUMPDEST PUSH1 0x0 PUSH2 0x1EB6 PUSH1 0x14 DUP4 PUSH2 0x184B JUMP JUMPDEST SWAP2 POP PUSH2 0x1EC1 DUP3 PUSH2 0x1E80 JUMP JUMPDEST PUSH1 0x20 DUP3 ADD SWAP1 POP SWAP2 SWAP1 POP JUMP JUMPDEST PUSH1 0x0 PUSH1 0x20 DUP3 ADD SWAP1 POP DUP2 DUP2 SUB PUSH1 0x0 DUP4 ADD MSTORE PUSH2 0x1EE5 DUP2 PUSH2 0x1EA9 JUMP JUMPDEST SWAP1 POP SWAP2 SWAP1 POP JUMP JUMPDEST PUSH32 0x4E487B7100000000000000000000000000000000000000000000000000000000 PUSH1 0x0 MSTORE PUSH1 0x22 PUSH1 0x4 MSTORE PUSH1 0x24 PUSH1 0x0 REVERT JUMPDEST PUSH1 0x0 PUSH1 0x2 DUP3 DIV SWAP1 POP PUSH1 0x1 DUP3 AND DUP1 PUSH2 0x1F33 JUMPI PUSH1 0x7F DUP3 AND SWAP2 POP JUMPDEST PUSH1 0x20 DUP3 LT DUP2 SUB PUSH2 0x1F46 JUMPI PUSH2 0x1F45 PUSH2 0x1EEC JUMP JUMPDEST JUMPDEST POP SWAP2 SWAP1 POP JUMP JUMPDEST PUSH32 0x496E76616C696420726563697069656E74206164647265737300000000000000 PUSH1 0x0 DUP3 ADD MSTORE POP JUMP JUMPDEST PUSH1 0x0 PUSH2 0x1F82 PUSH1 0x19 DUP4 PUSH2 0x184B JUMP JUMPDEST SWAP2 POP PUSH2 0x1F8D DUP3 PUSH2 0x1F4C JUMP JUMPDEST PUSH1 0x20 DUP3 ADD SWAP1 POP SWAP2 SWAP1 POP JUMP JUMPDEST PUSH1 0x0 PUSH1 0x20 DUP3 ADD SWAP1 POP DUP2 DUP2 SUB PUSH1 0x0 DUP4 ADD MSTORE PUSH2 0x1FB1 DUP2 PUSH2 0x1F75 JUMP JUMPDEST SWAP1 POP SWAP2 SWAP1 POP JUMP JUMPDEST PUSH32 0x4E487B7100000000000000000000000000000000000000000000000000000000 PUSH1 0x0 MSTORE PUSH1 0x11 PUSH1 0x4 MSTORE PUSH1 0x24 PUSH1 0x0 REVERT JUMPDEST PUSH1 0x0 PUSH2 0x1FF2 DUP3 PUSH2 0x17DD JUMP JUMPDEST SWAP2 POP PUSH2 0x1FFD DUP4 PUSH2 0x17DD JUMP JUMPDEST SWAP3 POP DUP3 DUP3 ADD SWAP1 POP DUP1 DUP3 GT ISZERO PUSH2 0x2015 JUMPI PUSH2 0x2014 PUSH2 0x1FB8 JUMP JUMPDEST JUMPDEST SWAP3 SWAP2 POP POP JUMP JUMPDEST PUSH1 0x0 PUSH2 0x2026 DUP3 PUSH2 0x17DD JUMP JUMPDEST SWAP2 POP PUSH2 0x2031 DUP4 PUSH2 0x17DD JUMP JUMPDEST SWAP3 POP DUP3 DUP3 SUB SWAP1 POP DUP2 DUP2 GT ISZERO PUSH2 0x2049 JUMPI PUSH2 0x2048 PUSH2 0x1FB8 JUMP JUMPDEST JUMPDEST SWAP3 SWAP2 POP POP JUMP JUMPDEST PUSH32 0x4E487B7100000000000000000000000000000000000000000000000000000000 PUSH1 0x0 MSTORE PUSH1 0x32 PUSH1 0x4 MSTORE PUSH1 0x24 PUSH1 0x0 REVERT JUMPDEST PUSH1 0x0 PUSH2 0x2089 DUP3 PUSH2 0x17DD JUMP JUMPDEST SWAP2 POP PUSH32 0xFFFFFFFFFFFFFFFFFFFFFFFFFFFFFFFFFFFFFFFFFFFFFFFFFFFFFFFFFFFFFFFF DUP3 SUB PUSH2 0x20BB JUMPI PUSH2 0x20BA PUSH2 0x1FB8 JUMP JUMPDEST JUMPDEST PUSH1 0x1 DUP3 ADD SWAP1 POP SWAP2 SWAP1 POP JUMP JUMPDEST PUSH32 0x45524332303A2064656372656173656420616C6C6F77616E63652062656C6F77 PUSH1 0x0 DUP3 ADD MSTORE PUSH32 0x207A65726F000000000000000000000000000000000000000000000000000000 PUSH1 0x20 DUP3 ADD MSTORE POP JUMP JUMPDEST PUSH1 0x0 PUSH2 0x2122 PUSH1 0x25 DUP4 PUSH2 0x184B JUMP JUMPDEST SWAP2 POP PUSH2 0x212D DUP3 PUSH2 0x20C6 JUMP JUMPDEST PUSH1 0x40 DUP3 ADD SWAP1 POP SWAP2 SWAP1 POP JUMP JUMPDEST PUSH1 0x0 PUSH1 0x20 DUP3 ADD SWAP1 POP DUP2 DUP2 SUB PUSH1 0x0 DUP4 ADD MSTORE PUSH2 0x2151 DUP2 PUSH2 0x2115 JUMP JUMPDEST SWAP1 POP SWAP2 SWAP1 POP JUMP JUMPDEST PUSH32 0x50726963652073686F756C64206265206D6F7265207468616E20300000000000 PUSH1 0x0 DUP3 ADD MSTORE POP JUMP JUMPDEST PUSH1 0x0 PUSH2 0x218E PUSH1 0x1B DUP4 PUSH2 0x184B JUMP JUMPDEST SWAP2 POP PUSH2 0x2199 DUP3 PUSH2 0x2158 JUMP JUMPDEST PUSH1 0x20 DUP3 ADD SWAP1 POP SWAP2 SWAP1 POP JUMP JUMPDEST PUSH1 0x0 PUSH1 0x20 DUP3 ADD SWAP1 POP DUP2 DUP2 SUB PUSH1 0x0 DUP4 ADD MSTORE PUSH2 0x21BD DUP2 PUSH2 0x2181 JUMP JUMPDEST SWAP1 POP SWAP2 SWAP1 POP JUMP JUMPDEST PUSH32 0x53746F636B2073686F756C64206265206D6F7265207468616E20300000000000 PUSH1 0x0 DUP3 ADD MSTORE POP JUMP JUMPDEST PUSH1 0x0 PUSH2 0x21FA PUSH1 0x1B DUP4 PUSH2 0x184B JUMP JUMPDEST SWAP2 POP PUSH2 0x2205 DUP3 PUSH2 0x21C4 JUMP JUMPDEST PUSH1 0x20 DUP3 ADD SWAP1 POP SWAP2 SWAP1 POP JUMP JUMPDEST PUSH1 0x0 PUSH1 0x20 DUP3 ADD SWAP1 POP DUP2 DUP2 SUB PUSH1 0x0 DUP4 ADD MSTORE PUSH2 0x2229 DUP2 PUSH2 0x21ED JUMP JUMPDEST SWAP1 POP SWAP2 SWAP1 POP JUMP JUMPDEST PUSH1 0x0 DUP2 SWAP1 POP DUP2 PUSH1 0x0 MSTORE PUSH1 0x20 PUSH1 0x0 KECCAK256 SWAP1 POP SWAP2 SWAP1 POP JUMP JUMPDEST PUSH1 0x0 PUSH1 0x20 PUSH1 0x1F DUP4 ADD DIV SWAP1 POP SWAP2 SWAP1 POP JUMP JUMPDEST PUSH1 0x0 DUP3 DUP3 SHL SWAP1 POP SWAP3 SWAP2 POP POP JUMP JUMPDEST PUSH1 0x0 PUSH1 0x8 DUP4 MUL PUSH2 0x2292 PUSH32 0xFFFFFFFFFFFFFFFFFFFFFFFFFFFFFFFFFFFFFFFFFFFFFFFFFFFFFFFFFFFFFFFF DUP3 PUSH2 0x2255 JUMP JUMPDEST PUSH2 0x229C DUP7 DUP4 PUSH2 0x2255 JUMP JUMPDEST SWAP6 POP DUP1 NOT DUP5 AND SWAP4 POP DUP1 DUP7 AND DUP5 OR SWAP3 POP POP POP SWAP4 SWAP3 POP POP POP JUMP JUMPDEST PUSH1 0x0 DUP2 SWAP1 POP SWAP2 SWAP1 POP JUMP JUMPDEST PUSH1 0x0 PUSH2 0x22D9 PUSH2 0x22D4 PUSH2 0x22CF DUP5 PUSH2 0x17DD JUMP JUMPDEST PUSH2 0x22B4 JUMP JUMPDEST PUSH2 0x17DD JUMP JUMPDEST SWAP1 POP SWAP2 SWAP1 POP JUMP JUMPDEST PUSH1 0x0 DUP2 SWAP1 POP SWAP2 SWAP1 POP JUMP JUMPDEST PUSH2 0x22F3 DUP4 PUSH2 0x22BE JUMP JUMPDEST PUSH2 0x2307 PUSH2 0x22FF DUP3 PUSH2 0x22E0 JUMP JUMPDEST DUP5 DUP5 SLOAD PUSH2 0x2262 JUMP JUMPDEST DUP3 SSTORE POP POP POP POP JUMP JUMPDEST PUSH1 0x0 SWAP1 JUMP JUMPDEST PUSH2 0x231C PUSH2 0x230F JUMP JUMPDEST PUSH2 0x2327 DUP2 DUP5 DUP5 PUSH2 0x22EA JUMP JUMPDEST POP POP POP JUMP JUMPDEST JUMPDEST DUP2 DUP2 LT ISZERO PUSH2 0x234B JUMPI PUSH2 0x2340 PUSH1 0x0 DUP3 PUSH2 0x2314 JUMP JUMPDEST PUSH1 0x1 DUP2 ADD SWAP1 POP PUSH2 0x232D JUMP JUMPDEST POP POP JUMP JUMPDEST PUSH1 0x1F DUP3 GT ISZERO PUSH2 0x2390 JUMPI PUSH2 0x2361 DUP2 PUSH2 0x2230 JUMP JUMPDEST PUSH2 0x236A DUP5 PUSH2 0x2245 JUMP JUMPDEST DUP2 ADD PUSH1 0x20 DUP6 LT ISZERO PUSH2 0x2379 JUMPI DUP2 SWAP1 POP JUMPDEST PUSH2 0x238D PUSH2 0x2385 DUP6 PUSH2 0x2245 JUMP JUMPDEST DUP4 ADD DUP3 PUSH2 0x232C JUMP JUMPDEST POP POP JUMPDEST POP POP POP JUMP JUMPDEST PUSH1 0x0 DUP3 DUP3 SHR SWAP1 POP SWAP3 SWAP2 POP POP JUMP JUMPDEST PUSH1 0x0 PUSH2 0x23B3 PUSH1 0x0 NOT DUP5 PUSH1 0x8 MUL PUSH2 0x2395 JUMP JUMPDEST NOT DUP1 DUP4 AND SWAP2 POP POP SWAP3 SWAP2 POP POP JUMP JUMPDEST PUSH1 0x0 PUSH2 0x23CC DUP4 DUP4 PUSH2 0x23A2 JUMP JUMPDEST SWAP2 POP DUP3 PUSH1 0x2 MUL DUP3 OR SWAP1 POP SWAP3 SWAP2 POP POP JUMP JUMPDEST PUSH2 0x23E5 DUP3 PUSH2 0x1840 JUMP JUMPDEST PUSH8 0xFFFFFFFFFFFFFFFF DUP2 GT ISZERO PUSH2 0x23FE JUMPI PUSH2 0x23FD PUSH2 0x1C68 JUMP JUMPDEST JUMPDEST PUSH2 0x2408 DUP3 SLOAD PUSH2 0x1F1B JUMP JUMPDEST PUSH2 0x2413 DUP3 DUP3 DUP6 PUSH2 0x234F JUMP JUMPDEST PUSH1 0x0 PUSH1 0x20 SWAP1 POP PUSH1 0x1F DUP4 GT PUSH1 0x1 DUP2 EQ PUSH2 0x2446 JUMPI PUSH1 0x0 DUP5 ISZERO PUSH2 0x2434 JUMPI DUP3 DUP8 ADD MLOAD SWAP1 POP JUMPDEST PUSH2 0x243E DUP6 DUP3 PUSH2 0x23C0 JUMP JUMPDEST DUP7 SSTORE POP PUSH2 0x24A6 JUMP JUMPDEST PUSH1 0x1F NOT DUP5 AND PUSH2 0x2454 DUP7 PUSH2 0x2230 JUMP JUMPDEST PUSH1 0x0 JUMPDEST DUP3 DUP2 LT ISZERO PUSH2 0x247C JUMPI DUP5 DUP10 ADD MLOAD DUP3 SSTORE PUSH1 0x1 DUP3 ADD SWAP2 POP PUSH1 0x20 DUP6 ADD SWAP5 POP PUSH1 0x20 DUP2 ADD SWAP1 POP PUSH2 0x2457 JUMP JUMPDEST DUP7 DUP4 LT ISZERO PUSH2 0x2499 JUMPI DUP5 DUP10 ADD MLOAD PUSH2 0x2495 PUSH1 0x1F DUP10 AND DUP3 PUSH2 0x23A2 JUMP JUMPDEST DUP4 SSTORE POP JUMPDEST PUSH1 0x1 PUSH1 0x2 DUP9 MUL ADD DUP9 SSTORE POP POP POP JUMPDEST POP POP POP POP POP POP JUMP JUMPDEST PUSH32 0x62616C616E636520697320496E73756666696369656E74000000000000000000 PUSH1 0x0 DUP3 ADD MSTORE POP JUMP JUMPDEST PUSH1 0x0 PUSH2 0x24E4 PUSH1 0x17 DUP4 PUSH2 0x184B JUMP JUMPDEST SWAP2 POP PUSH2 0x24EF DUP3 PUSH2 0x24AE JUMP JUMPDEST PUSH1 0x20 DUP3 ADD SWAP1 POP SWAP2 SWAP1 POP JUMP JUMPDEST PUSH1 0x0 PUSH1 0x20 DUP3 ADD SWAP1 POP DUP2 DUP2 SUB PUSH1 0x0 DUP4 ADD MSTORE PUSH2 0x2513 DUP2 PUSH2 0x24D7 JUMP JUMPDEST SWAP1 POP SWAP2 SWAP1 POP JUMP JUMPDEST PUSH32 0x6974656D204944206E6F742076616C6964000000000000000000000000000000 PUSH1 0x0 DUP3 ADD MSTORE POP JUMP JUMPDEST PUSH1 0x0 PUSH2 0x2550 PUSH1 0x11 DUP4 PUSH2 0x184B JUMP JUMPDEST SWAP2 POP PUSH2 0x255B DUP3 PUSH2 0x251A JUMP JUMPDEST PUSH1 0x20 DUP3 ADD SWAP1 POP SWAP2 SWAP1 POP JUMP JUMPDEST PUSH1 0x0 PUSH1 0x20 DUP3 ADD SWAP1 POP DUP2 DUP2 SUB PUSH1 0x0 DUP4 ADD MSTORE PUSH2 0x257F DUP2 PUSH2 0x2543 JUMP JUMPDEST SWAP1 POP SWAP2 SWAP1 POP JUMP JUMPDEST PUSH32 0x4974656D206973206F7574206F662073746F636B20736F206E6F74206176616C PUSH1 0x0 DUP3 ADD MSTORE PUSH32 0x6961626C65000000000000000000000000000000000000000000000000000000 PUSH1 0x20 DUP3 ADD MSTORE POP JUMP JUMPDEST PUSH1 0x0 PUSH2 0x25E2 PUSH1 0x25 DUP4 PUSH2 0x184B JUMP JUMPDEST SWAP2 POP PUSH2 0x25ED DUP3 PUSH2 0x2586 JUMP JUMPDEST PUSH1 0x40 DUP3 ADD SWAP1 POP SWAP2 SWAP1 POP JUMP JUMPDEST PUSH1 0x0 PUSH1 0x20 DUP3 ADD SWAP1 POP DUP2 DUP2 SUB PUSH1 0x0 DUP4 ADD MSTORE PUSH2 0x2611 DUP2 PUSH2 0x25D5 JUMP JUMPDEST SWAP1 POP SWAP2 SWAP1 POP JUMP JUMPDEST PUSH32 0x62616C616E6365206973206E6F742073756666696369656E7420706C65736520 PUSH1 0x0 DUP3 ADD MSTORE PUSH32 0x636865636B20796F752062616C616E6365206265666F7265206D616B696E6720 PUSH1 0x20 DUP3 ADD MSTORE PUSH32 0x7472616E73616374696F6E000000000000000000000000000000000000000000 PUSH1 0x40 DUP3 ADD MSTORE POP JUMP JUMPDEST PUSH1 0x0 PUSH2 0x269A PUSH1 0x4B DUP4 PUSH2 0x184B JUMP JUMPDEST SWAP2 POP PUSH2 0x26A5 DUP3 PUSH2 0x2618 JUMP JUMPDEST PUSH1 0x60 DUP3 ADD SWAP1 POP SWAP2 SWAP1 POP JUMP JUMPDEST PUSH1 0x0 PUSH1 0x20 DUP3 ADD SWAP1 POP DUP2 DUP2 SUB PUSH1 0x0 DUP4 ADD MSTORE PUSH2 0x26C9 DUP2 PUSH2 0x268D JUMP JUMPDEST SWAP1 POP SWAP2 SWAP1 POP JUMP JUMPDEST PUSH1 0x0 PUSH2 0x26DB DUP3 PUSH2 0x17DD JUMP JUMPDEST SWAP2 POP PUSH1 0x0 DUP3 SUB PUSH2 0x26EE JUMPI PUSH2 0x26ED PUSH2 0x1FB8 JUMP JUMPDEST JUMPDEST PUSH1 0x1 DUP3 SUB SWAP1 POP SWAP2 SWAP1 POP JUMP JUMPDEST PUSH32 0x4F776E61626C653A206E6577206F776E657220697320746865207A65726F2061 PUSH1 0x0 DUP3 ADD MSTORE PUSH32 0x6464726573730000000000000000000000000000000000000000000000000000 PUSH1 0x20 DUP3 ADD MSTORE POP JUMP JUMPDEST PUSH1 0x0 PUSH2 0x2755 PUSH1 0x26 DUP4 PUSH2 0x184B JUMP JUMPDEST SWAP2 POP PUSH2 0x2760 DUP3 PUSH2 0x26F9 JUMP JUMPDEST PUSH1 0x40 DUP3 ADD SWAP1 POP SWAP2 SWAP1 POP JUMP JUMPDEST PUSH1 0x0 PUSH1 0x20 DUP3 ADD SWAP1 POP DUP2 DUP2 SUB PUSH1 0x0 DUP4 ADD MSTORE PUSH2 0x2784 DUP2 PUSH2 0x2748 JUMP JUMPDEST SWAP1 POP SWAP2 SWAP1 POP JUMP JUMPDEST PUSH32 0x45524332303A206275726E2066726F6D20746865207A65726F20616464726573 PUSH1 0x0 DUP3 ADD MSTORE PUSH32 0x7300000000000000000000000000000000000000000000000000000000000000 PUSH1 0x20 DUP3 ADD MSTORE POP JUMP JUMPDEST PUSH1 0x0 PUSH2 0x27E7 PUSH1 0x21 DUP4 PUSH2 0x184B JUMP JUMPDEST SWAP2 POP PUSH2 0x27F2 DUP3 PUSH2 0x278B JUMP JUMPDEST PUSH1 0x40 DUP3 ADD SWAP1 POP SWAP2 SWAP1 POP JUMP JUMPDEST PUSH1 0x0 PUSH1 0x20 DUP3 ADD SWAP1 POP DUP2 DUP2 SUB PUSH1 0x0 DUP4 ADD MSTORE PUSH2 0x2816 DUP2 PUSH2 0x27DA JUMP JUMPDEST SWAP1 POP SWAP2 SWAP1 POP JUMP JUMPDEST PUSH32 0x45524332303A206275726E20616D6F756E7420657863656564732062616C616E PUSH1 0x0 DUP3 ADD MSTORE PUSH32 0x6365000000000000000000000000000000000000000000000000000000000000 PUSH1 0x20 DUP3 ADD MSTORE POP JUMP JUMPDEST PUSH1 0x0 PUSH2 0x2879 PUSH1 0x22 DUP4 PUSH2 0x184B JUMP JUMPDEST SWAP2 POP PUSH2 0x2884 DUP3 PUSH2 0x281D JUMP JUMPDEST PUSH1 0x40 DUP3 ADD SWAP1 POP SWAP2 SWAP1 POP JUMP JUMPDEST PUSH1 0x0 PUSH1 0x20 DUP3 ADD SWAP1 POP DUP2 DUP2 SUB PUSH1 0x0 DUP4 ADD MSTORE PUSH2 0x28A8 DUP2 PUSH2 0x286C JUMP JUMPDEST SWAP1 POP SWAP2 SWAP1 POP JUMP JUMPDEST PUSH32 0x45524332303A20617070726F76652066726F6D20746865207A65726F20616464 PUSH1 0x0 DUP3 ADD MSTORE PUSH32 0x7265737300000000000000000000000000000000000000000000000000000000 PUSH1 0x20 DUP3 ADD MSTORE POP JUMP JUMPDEST PUSH1 0x0 PUSH2 0x290B PUSH1 0x24 DUP4 PUSH2 0x184B JUMP JUMPDEST SWAP2 POP PUSH2 0x2916 DUP3 PUSH2 0x28AF JUMP JUMPDEST PUSH1 0x40 DUP3 ADD SWAP1 POP SWAP2 SWAP1 POP JUMP JUMPDEST PUSH1 0x0 PUSH1 0x20 DUP3 ADD SWAP1 POP DUP2 DUP2 SUB PUSH1 0x0 DUP4 ADD MSTORE PUSH2 0x293A DUP2 PUSH2 0x28FE JUMP JUMPDEST SWAP1 POP SWAP2 SWAP1 POP JUMP JUMPDEST PUSH32 0x45524332303A20617070726F766520746F20746865207A65726F206164647265 PUSH1 0x0 DUP3 ADD MSTORE PUSH32 0x7373000000000000000000000000000000000000000000000000000000000000 PUSH1 0x20 DUP3 ADD MSTORE POP JUMP JUMPDEST PUSH1 0x0 PUSH2 0x299D PUSH1 0x22 DUP4 PUSH2 0x184B JUMP JUMPDEST SWAP2 POP PUSH2 0x29A8 DUP3 PUSH2 0x2941 JUMP JUMPDEST PUSH1 0x40 DUP3 ADD SWAP1 POP SWAP2 SWAP1 POP JUMP JUMPDEST PUSH1 0x0 PUSH1 0x20 DUP3 ADD SWAP1 POP DUP2 DUP2 SUB PUSH1 0x0 DUP4 ADD MSTORE PUSH2 0x29CC DUP2 PUSH2 0x2990 JUMP JUMPDEST SWAP1 POP SWAP2 SWAP1 POP JUMP JUMPDEST PUSH32 0x45524332303A20696E73756666696369656E7420616C6C6F77616E6365000000 PUSH1 0x0 DUP3 ADD MSTORE POP JUMP JUMPDEST PUSH1 0x0 PUSH2 0x2A09 PUSH1 0x1D DUP4 PUSH2 0x184B JUMP JUMPDEST SWAP2 POP PUSH2 0x2A14 DUP3 PUSH2 0x29D3 JUMP JUMPDEST PUSH1 0x20 DUP3 ADD SWAP1 POP SWAP2 SWAP1 POP JUMP JUMPDEST PUSH1 0x0 PUSH1 0x20 DUP3 ADD SWAP1 POP DUP2 DUP2 SUB PUSH1 0x0 DUP4 ADD MSTORE PUSH2 0x2A38 DUP2 PUSH2 0x29FC JUMP JUMPDEST SWAP1 POP SWAP2 SWAP1 POP JUMP JUMPDEST PUSH32 0x45524332303A207472616E736665722066726F6D20746865207A65726F206164 PUSH1 0x0 DUP3 ADD MSTORE PUSH32 0x6472657373000000000000000000000000000000000000000000000000000000 PUSH1 0x20 DUP3 ADD MSTORE POP JUMP JUMPDEST PUSH1 0x0 PUSH2 0x2A9B PUSH1 0x25 DUP4 PUSH2 0x184B JUMP JUMPDEST SWAP2 POP PUSH2 0x2AA6 DUP3 PUSH2 0x2A3F JUMP JUMPDEST PUSH1 0x40 DUP3 ADD SWAP1 POP SWAP2 SWAP1 POP JUMP JUMPDEST PUSH1 0x0 PUSH1 0x20 DUP3 ADD SWAP1 POP DUP2 DUP2 SUB PUSH1 0x0 DUP4 ADD MSTORE PUSH2 0x2ACA DUP2 PUSH2 0x2A8E JUMP JUMPDEST SWAP1 POP SWAP2 SWAP1 POP JUMP JUMPDEST PUSH32 0x45524332303A207472616E7366657220746F20746865207A65726F2061646472 PUSH1 0x0 DUP3 ADD MSTORE PUSH32 0x6573730000000000000000000000000000000000000000000000000000000000 PUSH1 0x20 DUP3 ADD MSTORE POP JUMP JUMPDEST PUSH1 0x0 PUSH2 0x2B2D PUSH1 0x23 DUP4 PUSH2 0x184B JUMP JUMPDEST SWAP2 POP PUSH2 0x2B38 DUP3 PUSH2 0x2AD1 JUMP JUMPDEST PUSH1 0x40 DUP3 ADD SWAP1 POP SWAP2 SWAP1 POP JUMP JUMPDEST PUSH1 0x0 PUSH1 0x20 DUP3 ADD SWAP1 POP DUP2 DUP2 SUB PUSH1 0x0 DUP4 ADD MSTORE PUSH2 0x2B5C DUP2 PUSH2 0x2B20 JUMP JUMPDEST SWAP1 POP SWAP2 SWAP1 POP JUMP JUMPDEST PUSH32 0x45524332303A207472616E7366657220616D6F756E7420657863656564732062 PUSH1 0x0 DUP3 ADD MSTORE PUSH32 0x616C616E63650000000000000000000000000000000000000000000000000000 PUSH1 0x20 DUP3 ADD MSTORE POP JUMP JUMPDEST PUSH1 0x0 PUSH2 0x2BBF PUSH1 0x26 DUP4 PUSH2 0x184B JUMP JUMPDEST SWAP2 POP PUSH2 0x2BCA DUP3 PUSH2 0x2B63 JUMP JUMPDEST PUSH1 0x40 DUP3 ADD SWAP1 POP SWAP2 SWAP1 POP JUMP JUMPDEST PUSH1 0x0 PUSH1 0x20 DUP3 ADD SWAP1 POP DUP2 DUP2 SUB PUSH1 0x0 DUP4 ADD MSTORE PUSH2 0x2BEE DUP2 PUSH2 0x2BB2 JUMP JUMPDEST SWAP1 POP SWAP2 SWAP1 POP JUMP JUMPDEST PUSH32 0x4F776E61626C653A2063616C6C6572206973206E6F7420746865206F776E6572 PUSH1 0x0 DUP3 ADD MSTORE POP JUMP JUMPDEST PUSH1 0x0 PUSH2 0x2C2B PUSH1 0x20 DUP4 PUSH2 0x184B JUMP JUMPDEST SWAP2 POP PUSH2 0x2C36 DUP3 PUSH2 0x2BF5 JUMP JUMPDEST PUSH1 0x20 DUP3 ADD SWAP1 POP SWAP2 SWAP1 POP JUMP JUMPDEST PUSH1 0x0 PUSH1 0x20 DUP3 ADD SWAP1 POP DUP2 DUP2 SUB PUSH1 0x0 DUP4 ADD MSTORE PUSH2 0x2C5A DUP2 PUSH2 0x2C1E JUMP JUMPDEST SWAP1 POP SWAP2 SWAP1 POP JUMP JUMPDEST PUSH32 0x45524332303A206D696E7420746F20746865207A65726F206164647265737300 PUSH1 0x0 DUP3 ADD MSTORE POP JUMP JUMPDEST PUSH1 0x0 PUSH2 0x2C97 PUSH1 0x1F DUP4 PUSH2 0x184B JUMP JUMPDEST SWAP2 POP PUSH2 0x2CA2 DUP3 PUSH2 0x2C61 JUMP JUMPDEST PUSH1 0x20 DUP3 ADD SWAP1 POP SWAP2 SWAP1 POP JUMP JUMPDEST PUSH1 0x0 PUSH1 0x20 DUP3 ADD SWAP1 POP DUP2 DUP2 SUB PUSH1 0x0 DUP4 ADD MSTORE PUSH2 0x2CC6 DUP2 PUSH2 0x2C8A JUMP JUMPDEST SWAP1 POP SWAP2 SWAP1 POP JUMP INVALID LOG2 PUSH5 0x6970667358 0x22 SLT KECCAK256 PUSH22 0xA055A431ABCCB2258D724E41213A7D5A544A24DAA1CF SWAP2 GAS 0x49 0xAD NOT 0xC5 RETURNDATASIZE 0xEA PUSH24 0x64736F6C6343000812003300000000000000000000000000 "
				},
				"gasEstimates": {
					"creation": {
						"codeDepositCost": "2304600",
						"executionCost": "infinite",
						"totalCost": "infinite"
					},
					"external": {
						"addItemToGameStore(string,uint256,uint256)": "infinite",
						"allowance(address,address)": "infinite",
						"approve(address,uint256)": "infinite",
						"balanceOf(address)": "2864",
						"burnUserTokens(uint256)": "infinite",
						"checkAccountTokenBalance(address)": "2951",
						"decimals()": "388",
						"decreaseAllowance(address,uint256)": "infinite",
						"gameStoreInventory(uint256)": "infinite",
						"getGameStoreInventory()": "infinite",
						"increaseAllowance(address,uint256)": "infinite",
						"mintOwnerTokens(address,uint256)": "infinite",
						"name()": "infinite",
						"owner()": "2589",
						"redeemGameStoreItem(uint256)": "infinite",
						"redeemTokensFor(uint256)": "infinite",
						"renounceOwnership()": "30443",
						"symbol()": "infinite",
						"totalItems()": "2563",
						"totalSupply()": "2527",
						"transfer(address,uint256)": "infinite",
						"transferFrom(address,address,uint256)": "infinite",
						"transferOwnership(address)": "30854",
						"transferTokensTo(address,uint256)": "infinite"
					}
				},
				"methodIdentifiers": {
					"addItemToGameStore(string,uint256,uint256)": "cb01a6bd",
					"allowance(address,address)": "dd62ed3e",
					"approve(address,uint256)": "095ea7b3",
					"balanceOf(address)": "70a08231",
					"burnUserTokens(uint256)": "e3e4a1b4",
					"checkAccountTokenBalance(address)": "37f7c412",
					"decimals()": "313ce567",
					"decreaseAllowance(address,uint256)": "a457c2d7",
					"gameStoreInventory(uint256)": "fe290917",
					"getGameStoreInventory()": "4d264827",
					"increaseAllowance(address,uint256)": "39509351",
					"mintOwnerTokens(address,uint256)": "5873607b",
					"name()": "06fdde03",
					"owner()": "8da5cb5b",
					"redeemGameStoreItem(uint256)": "e6e645d1",
					"redeemTokensFor(uint256)": "0439c734",
					"renounceOwnership()": "715018a6",
					"symbol()": "95d89b41",
					"totalItems()": "2799276d",
					"totalSupply()": "18160ddd",
					"transfer(address,uint256)": "a9059cbb",
					"transferFrom(address,address,uint256)": "23b872dd",
					"transferOwnership(address)": "f2fde38b",
					"transferTokensTo(address,uint256)": "2be8c2a5"
				}
			},
			"storageLayout": {
				"storage": [
					{
						"astId": 128,
						"contract": "contracts/ETH-AVX-DegenToken.sol:Degen_Token_Gaming",
						"label": "_balances",
						"offset": 0,
						"slot": "0",
						"type": "t_mapping(t_address,t_uint256)"
					},
					{
						"astId": 134,
						"contract": "contracts/ETH-AVX-DegenToken.sol:Degen_Token_Gaming",
						"label": "_allowances",
						"offset": 0,
						"slot": "1",
						"type": "t_mapping(t_address,t_mapping(t_address,t_uint256))"
					},
					{
						"astId": 136,
						"contract": "contracts/ETH-AVX-DegenToken.sol:Degen_Token_Gaming",
						"label": "_totalSupply",
						"offset": 0,
						"slot": "2",
						"type": "t_uint256"
					},
					{
						"astId": 138,
						"contract": "contracts/ETH-AVX-DegenToken.sol:Degen_Token_Gaming",
						"label": "_name",
						"offset": 0,
						"slot": "3",
						"type": "t_string_storage"
					},
					{
						"astId": 140,
						"contract": "contracts/ETH-AVX-DegenToken.sol:Degen_Token_Gaming",
						"label": "_symbol",
						"offset": 0,
						"slot": "4",
						"type": "t_string_storage"
					},
					{
						"astId": 7,
						"contract": "contracts/ETH-AVX-DegenToken.sol:Degen_Token_Gaming",
						"label": "_owner",
						"offset": 0,
						"slot": "5",
						"type": "t_address"
					},
					{
						"astId": 844,
						"contract": "contracts/ETH-AVX-DegenToken.sol:Degen_Token_Gaming",
						"label": "gameStoreInventory",
						"offset": 0,
						"slot": "6",
						"type": "t_mapping(t_uint256,t_struct(GameStoreItem)839_storage)"
					},
					{
						"astId": 846,
						"contract": "contracts/ETH-AVX-DegenToken.sol:Degen_Token_Gaming",
						"label": "totalItems",
						"offset": 0,
						"slot": "7",
						"type": "t_uint256"
					}
				],
				"types": {
					"t_address": {
						"encoding": "inplace",
						"label": "address",
						"numberOfBytes": "20"
					},
					"t_mapping(t_address,t_mapping(t_address,t_uint256))": {
						"encoding": "mapping",
						"key": "t_address",
						"label": "mapping(address => mapping(address => uint256))",
						"numberOfBytes": "32",
						"value": "t_mapping(t_address,t_uint256)"
					},
					"t_mapping(t_address,t_uint256)": {
						"encoding": "mapping",
						"key": "t_address",
						"label": "mapping(address => uint256)",
						"numberOfBytes": "32",
						"value": "t_uint256"
					},
					"t_mapping(t_uint256,t_struct(GameStoreItem)839_storage)": {
						"encoding": "mapping",
						"key": "t_uint256",
						"label": "mapping(uint256 => struct Degen_Token_Gaming.GameStoreItem)",
						"numberOfBytes": "32",
						"value": "t_struct(GameStoreItem)839_storage"
					},
					"t_string_storage": {
						"encoding": "bytes",
						"label": "string",
						"numberOfBytes": "32"
					},
					"t_struct(GameStoreItem)839_storage": {
						"encoding": "inplace",
						"label": "struct Degen_Token_Gaming.GameStoreItem",
						"members": [
							{
								"astId": 834,
								"contract": "contracts/ETH-AVX-DegenToken.sol:Degen_Token_Gaming",
								"label": "itemName",
								"offset": 0,
								"slot": "0",
								"type": "t_string_storage"
							},
							{
								"astId": 836,
								"contract": "contracts/ETH-AVX-DegenToken.sol:Degen_Token_Gaming",
								"label": "itemPrice",
								"offset": 0,
								"slot": "1",
								"type": "t_uint256"
							},
							{
								"astId": 838,
								"contract": "contracts/ETH-AVX-DegenToken.sol:Degen_Token_Gaming",
								"label": "itemStock",
								"offset": 0,
								"slot": "2",
								"type": "t_uint256"
							}
						],
						"numberOfBytes": "96"
					},
					"t_uint256": {
						"encoding": "inplace",
						"label": "uint256",
						"numberOfBytes": "32"
					}
				}
			},
			"userdoc": {
				"kind": "user",
				"methods": {},
				"version": 1
			}
		}
	}
}