{
	"contracts/DegenToken.sol": {
		"DegenToken": {
			"abi": [
				{
					"inputs": [],
					"stateMutability": "nonpayable",
					"type": "constructor"
				},
				{
					"anonymous": false,
					"inputs": [
						{
							"indexed": true,
							"internalType": "address",
							"name": "owner",
							"type": "address"
						},
						{
							"indexed": true,
							"internalType": "address",
							"name": "spender",
							"type": "address"
						},
						{
							"indexed": false,
							"internalType": "uint256",
							"name": "value",
							"type": "uint256"
						}
					],
					"name": "Approval",
					"type": "event"
				},
				{
					"anonymous": false,
					"inputs": [
						{
							"indexed": true,
							"internalType": "address",
							"name": "previousOwner",
							"type": "address"
						},
						{
							"indexed": true,
							"internalType": "address",
							"name": "newOwner",
							"type": "address"
						}
					],
					"name": "OwnershipTransferred",
					"type": "event"
				},
				{
					"anonymous": false,
					"inputs": [
						{
							"indexed": true,
							"internalType": "address",
							"name": "from",
							"type": "address"
						},
						{
							"indexed": true,
							"internalType": "address",
							"name": "to",
							"type": "address"
						},
						{
							"indexed": false,
							"internalType": "uint256",
							"name": "value",
							"type": "uint256"
						}
					],
					"name": "Transfer",
					"type": "event"
				},
				{
					"inputs": [
						{
							"internalType": "string",
							"name": "itemName",
							"type": "string"
						},
						{
							"internalType": "uint256",
							"name": "price",
							"type": "uint256"
						},
						{
							"internalType": "uint256",
							"name": "stock",
							"type": "uint256"
						}
					],
					"name": "addGameStoreItem",
					"outputs": [],
					"stateMutability": "nonpayable",
					"type": "function"
				},
				{
					"inputs": [
						{
							"internalType": "address",
							"name": "owner",
							"type": "address"
						},
						{
							"internalType": "address",
							"name": "spender",
							"type": "address"
						}
					],
					"name": "allowance",
					"outputs": [
						{
							"internalType": "uint256",
							"name": "",
							"type": "uint256"
						}
					],
					"stateMutability": "view",
					"type": "function"
				},
				{
					"inputs": [
						{
							"internalType": "address",
							"name": "spender",
							"type": "address"
						},
						{
							"internalType": "uint256",
							"name": "amount",
							"type": "uint256"
						}
					],
					"name": "approve",
					"outputs": [
						{
							"internalType": "bool",
							"name": "",
							"type": "bool"
						}
					],
					"stateMutability": "nonpayable",
					"type": "function"
				},
				{
					"inputs": [
						{
							"internalType": "address",
							"name": "account",
							"type": "address"
						}
					],
					"name": "balanceOf",
					"outputs": [
						{
							"internalType": "uint256",
							"name": "",
							"type": "uint256"
						}
					],
					"stateMutability": "view",
					"type": "function"
				},
				{
					"inputs": [
						{
							"internalType": "uint256",
							"name": "amount",
							"type": "uint256"
						}
					],
					"name": "burnTokens",
					"outputs": [],
					"stateMutability": "nonpayable",
					"type": "function"
				},
				{
					"inputs": [
						{
							"internalType": "address",
							"name": "account",
							"type": "address"
						}
					],
					"name": "checkTokenBalance",
					"outputs": [
						{
							"internalType": "uint256",
							"name": "",
							"type": "uint256"
						}
					],
					"stateMutability": "view",
					"type": "function"
				},
				{
					"inputs": [],
					"name": "decimals",
					"outputs": [
						{
							"internalType": "uint8",
							"name": "",
							"type": "uint8"
						}
					],
					"stateMutability": "view",
					"type": "function"
				},
				{
					"inputs": [
						{
							"internalType": "address",
							"name": "spender",
							"type": "address"
						},
						{
							"internalType": "uint256",
							"name": "subtractedValue",
							"type": "uint256"
						}
					],
					"name": "decreaseAllowance",
					"outputs": [
						{
							"internalType": "bool",
							"name": "",
							"type": "bool"
						}
					],
					"stateMutability": "nonpayable",
					"type": "function"
				},
				{
					"inputs": [
						{
							"internalType": "uint256",
							"name": "",
							"type": "uint256"
						}
					],
					"name": "gameStoreItems",
					"outputs": [
						{
							"internalType": "string",
							"name": "itemName",
							"type": "string"
						},
						{
							"internalType": "uint256",
							"name": "price",
							"type": "uint256"
						},
						{
							"internalType": "uint256",
							"name": "stock",
							"type": "uint256"
						}
					],
					"stateMutability": "view",
					"type": "function"
				},
				{
					"inputs": [],
					"name": "getGameStoreItems",
					"outputs": [
						{
							"components": [
								{
									"internalType": "string",
									"name": "itemName",
									"type": "string"
								},
								{
									"internalType": "uint256",
									"name": "price",
									"type": "uint256"
								},
								{
									"internalType": "uint256",
									"name": "stock",
									"type": "uint256"
								}
							],
							"internalType": "struct DegenToken.GameStoreItem[]",
							"name": "",
							"type": "tuple[]"
						}
					],
					"stateMutability": "view",
					"type": "function"
				},
				{
					"inputs": [
						{
							"internalType": "address",
							"name": "spender",
							"type": "address"
						},
						{
							"internalType": "uint256",
							"name": "addedValue",
							"type": "uint256"
						}
					],
					"name": "increaseAllowance",
					"outputs": [
						{
							"internalType": "bool",
							"name": "",
							"type": "bool"
						}
					],
					"stateMutability": "nonpayable",
					"type": "function"
				},
				{
					"inputs": [],
					"name": "itemCount",
					"outputs": [
						{
							"internalType": "uint256",
							"name": "",
							"type": "uint256"
						}
					],
					"stateMutability": "view",
					"type": "function"
				},
				{
					"inputs": [
						{
							"internalType": "address",
							"name": "recipient",
							"type": "address"
						},
						{
							"internalType": "uint256",
							"name": "amount",
							"type": "uint256"
						}
					],
					"name": "mintTokens",
					"outputs": [],
					"stateMutability": "nonpayable",
					"type": "function"
				},
				{
					"inputs": [],
					"name": "name",
					"outputs": [
						{
							"internalType": "string",
							"name": "",
							"type": "string"
						}
					],
					"stateMutability": "view",
					"type": "function"
				},
				{
					"inputs": [],
					"name": "owner",
					"outputs": [
						{
							"internalType": "address",
							"name": "",
							"type": "address"
						}
					],
					"stateMutability": "view",
					"type": "function"
				},
				{
					"inputs": [
						{
							"internalType": "uint256",
							"name": "itemId",
							"type": "uint256"
						}
					],
					"name": "redeemGameStoreItem",
					"outputs": [],
					"stateMutability": "nonpayable",
					"type": "function"
				},
				{
					"inputs": [
						{
							"internalType": "uint256",
							"name": "amount",
							"type": "uint256"
						}
					],
					"name": "redeemTokens",
					"outputs": [],
					"stateMutability": "nonpayable",
					"type": "function"
				},
				{
					"inputs": [],
					"name": "renounceOwnership",
					"outputs": [],
					"stateMutability": "nonpayable",
					"type": "function"
				},
				{
					"inputs": [],
					"name": "symbol",
					"outputs": [
						{
							"internalType": "string",
							"name": "",
							"type": "string"
						}
					],
					"stateMutability": "view",
					"type": "function"
				},
				{
					"inputs": [],
					"name": "totalSupply",
					"outputs": [
						{
							"internalType": "uint256",
							"name": "",
							"type": "uint256"
						}
					],
					"stateMutability": "view",
					"type": "function"
				},
				{
					"inputs": [
						{
							"internalType": "address",
							"name": "to",
							"type": "address"
						},
						{
							"internalType": "uint256",
							"name": "amount",
							"type": "uint256"
						}
					],
					"name": "transfer",
					"outputs": [
						{
							"internalType": "bool",
							"name": "",
							"type": "bool"
						}
					],
					"stateMutability": "nonpayable",
					"type": "function"
				},
				{
					"inputs": [
						{
							"internalType": "address",
							"name": "from",
							"type": "address"
						},
						{
							"internalType": "address",
							"name": "to",
							"type": "address"
						},
						{
							"internalType": "uint256",
							"name": "amount",
							"type": "uint256"
						}
					],
					"name": "transferFrom",
					"outputs": [
						{
							"internalType": "bool",
							"name": "",
							"type": "bool"
						}
					],
					"stateMutability": "nonpayable",
					"type": "function"
				},
				{
					"inputs": [
						{
							"internalType": "address",
							"name": "newOwner",
							"type": "address"
						}
					],
					"name": "transferOwnership",
					"outputs": [],
					"stateMutability": "nonpayable",
					"type": "function"
				},
				{
					"inputs": [
						{
							"internalType": "address",
							"name": "to",
							"type": "address"
						},
						{
							"internalType": "uint256",
							"name": "amount",
							"type": "uint256"
						}
					],
					"name": "transferTokens",
					"outputs": [],
					"stateMutability": "nonpayable",
					"type": "function"
				}
			],
			"devdoc": {
				"events": {
					"Approval(address,address,uint256)": {
						"details": "Emitted when the allowance of a `spender` for an `owner` is set by a call to {approve}. `value` is the new allowance."
					},
					"Transfer(address,address,uint256)": {
						"details": "Emitted when `value` tokens are moved from one account (`from`) to another (`to`). Note that `value` may be zero."
					}
				},
				"kind": "dev",
				"methods": {
					"allowance(address,address)": {
						"details": "See {IERC20-allowance}."
					},
					"approve(address,uint256)": {
						"details": "See {IERC20-approve}. NOTE: If `amount` is the maximum `uint256`, the allowance is not updated on `transferFrom`. This is semantically equivalent to an infinite approval. Requirements: - `spender` cannot be the zero address."
					},
					"balanceOf(address)": {
						"details": "See {IERC20-balanceOf}."
					},
					"decimals()": {
						"details": "Returns the number of decimals used to get its user representation. For example, if `decimals` equals `2`, a balance of `505` tokens should be displayed to a user as `5.05` (`505 / 10 ** 2`). Tokens usually opt for a value of 18, imitating the relationship between Ether and Wei. This is the default value returned by this function, unless it's overridden. NOTE: This information is only used for _display_ purposes: it in no way affects any of the arithmetic of the contract, including {IERC20-balanceOf} and {IERC20-transfer}."
					},
					"decreaseAllowance(address,uint256)": {
						"details": "Atomically decreases the allowance granted to `spender` by the caller. This is an alternative to {approve} that can be used as a mitigation for problems described in {IERC20-approve}. Emits an {Approval} event indicating the updated allowance. Requirements: - `spender` cannot be the zero address. - `spender` must have allowance for the caller of at least `subtractedValue`."
					},
					"increaseAllowance(address,uint256)": {
						"details": "Atomically increases the allowance granted to `spender` by the caller. This is an alternative to {approve} that can be used as a mitigation for problems described in {IERC20-approve}. Emits an {Approval} event indicating the updated allowance. Requirements: - `spender` cannot be the zero address."
					},
					"name()": {
						"details": "Returns the name of the token."
					},
					"owner()": {
						"details": "Returns the address of the current owner."
					},
					"renounceOwnership()": {
						"details": "Leaves the contract without owner. It will not be possible to call `onlyOwner` functions. Can only be called by the current owner. NOTE: Renouncing ownership will leave the contract without an owner, thereby disabling any functionality that is only available to the owner."
					},
					"symbol()": {
						"details": "Returns the symbol of the token, usually a shorter version of the name."
					},
					"totalSupply()": {
						"details": "See {IERC20-totalSupply}."
					},
					"transfer(address,uint256)": {
						"details": "See {IERC20-transfer}. Requirements: - `to` cannot be the zero address. - the caller must have a balance of at least `amount`."
					},
					"transferFrom(address,address,uint256)": {
						"details": "See {IERC20-transferFrom}. Emits an {Approval} event indicating the updated allowance. This is not required by the EIP. See the note at the beginning of {ERC20}. NOTE: Does not update the allowance if the current allowance is the maximum `uint256`. Requirements: - `from` and `to` cannot be the zero address. - `from` must have a balance of at least `amount`. - the caller must have allowance for ``from``'s tokens of at least `amount`."
					},
					"transferOwnership(address)": {
						"details": "Transfers ownership of the contract to a new account (`newOwner`). Can only be called by the current owner."
					}
				},
				"version": 1
			},
			"evm": {
				"assembly": "    /* \"contracts/DegenToken.sol\":167:2406  contract DegenToken is ERC20, Ownable {... */\n  mstore(0x40, 0x80)\n    /* \"contracts/DegenToken.sol\":435:543  constructor() ERC20(\"DegenToken\", \"DEGEN\") {... */\n  callvalue\n  dup1\n  iszero\n  tag_1\n  jumpi\n  0x00\n  dup1\n  revert\ntag_1:\n  pop\n    /* \"@openzeppelin/contracts/token/ERC20/ERC20.sol\":1980:2093  constructor(string memory name_, string memory symbol_) {... */\n  mload(0x40)\n  dup1\n  0x40\n  add\n  0x40\n  mstore\n  dup1\n  0x0a\n  dup2\n  mstore\n  0x20\n  add\n  0x446567656e546f6b656e00000000000000000000000000000000000000000000\n  dup2\n  mstore\n  pop\n  mload(0x40)\n  dup1\n  0x40\n  add\n  0x40\n  mstore\n  dup1\n  0x05\n  dup2\n  mstore\n  0x20\n  add\n  0x444547454e000000000000000000000000000000000000000000000000000000\n  dup2\n  mstore\n  pop\n    /* \"@openzeppelin/contracts/token/ERC20/ERC20.sol\":2054:2059  name_ */\n  dup2\n    /* \"@openzeppelin/contracts/token/ERC20/ERC20.sol\":2046:2051  _name */\n  0x03\n    /* \"@openzeppelin/contracts/token/ERC20/ERC20.sol\":2046:2059  _name = name_ */\n  swap1\n  dup2\n  tag_6\n  swap2\n  swap1\n  tag_7\n  jump\t// in\ntag_6:\n  pop\n    /* \"@openzeppelin/contracts/token/ERC20/ERC20.sol\":2079:2086  symbol_ */\n  dup1\n    /* \"@openzeppelin/contracts/token/ERC20/ERC20.sol\":2069:2076  _symbol */\n  0x04\n    /* \"@openzeppelin/contracts/token/ERC20/ERC20.sol\":2069:2086  _symbol = symbol_ */\n  swap1\n  dup2\n  tag_8\n  swap2\n  swap1\n  tag_7\n  jump\t// in\ntag_8:\n  pop\n    /* \"@openzeppelin/contracts/token/ERC20/ERC20.sol\":1980:2093  constructor(string memory name_, string memory symbol_) {... */\n  pop\n  pop\n    /* \"@openzeppelin/contracts/access/Ownable.sol\":936:968  _transferOwnership(_msgSender()) */\n  tag_10\n    /* \"@openzeppelin/contracts/access/Ownable.sol\":955:967  _msgSender() */\n  tag_11\n    /* \"@openzeppelin/contracts/access/Ownable.sol\":955:965  _msgSender */\n  shl(0x20, tag_12)\n    /* \"@openzeppelin/contracts/access/Ownable.sol\":955:967  _msgSender() */\n  0x20\n  shr\n  jump\t// in\ntag_11:\n    /* \"@openzeppelin/contracts/access/Ownable.sol\":936:954  _transferOwnership */\n  shl(0x20, tag_13)\n    /* \"@openzeppelin/contracts/access/Ownable.sol\":936:968  _transferOwnership(_msgSender()) */\n  0x20\n  shr\n  jump\t// in\ntag_10:\n    /* \"contracts/DegenToken.sol\":488:511  _mint(msg.sender, 1000) */\n  tag_15\n    /* \"contracts/DegenToken.sol\":494:504  msg.sender */\n  caller\n    /* \"contracts/DegenToken.sol\":506:510  1000 */\n  0x03e8\n    /* \"contracts/DegenToken.sol\":488:493  _mint */\n  shl(0x20, tag_16)\n    /* \"contracts/DegenToken.sol\":488:511  _mint(msg.sender, 1000) */\n  0x20\n  shr\n  jump\t// in\ntag_15:\n    /* \"contracts/DegenToken.sol\":167:2406  contract DegenToken is ERC20, Ownable {... */\n  jump(tag_17)\n    /* \"@openzeppelin/contracts/utils/Context.sol\":640:736  function _msgSender() internal view virtual returns (address) {... */\ntag_12:\n    /* \"@openzeppelin/contracts/utils/Context.sol\":693:700  address */\n  0x00\n    /* \"@openzeppelin/contracts/utils/Context.sol\":719:729  msg.sender */\n  caller\n    /* \"@openzeppelin/contracts/utils/Context.sol\":712:729  return msg.sender */\n  swap1\n  pop\n    /* \"@openzeppelin/contracts/utils/Context.sol\":640:736  function _msgSender() internal view virtual returns (address) {... */\n  swap1\n  jump\t// out\n    /* \"@openzeppelin/contracts/access/Ownable.sol\":2426:2613  function _transferOwnership(address newOwner) internal virtual {... */\ntag_13:\n    /* \"@openzeppelin/contracts/access/Ownable.sol\":2499:2515  address oldOwner */\n  0x00\n    /* \"@openzeppelin/contracts/access/Ownable.sol\":2518:2524  _owner */\n  0x05\n  0x00\n  swap1\n  sload\n  swap1\n  0x0100\n  exp\n  swap1\n  div\n  0xffffffffffffffffffffffffffffffffffffffff\n  and\n    /* \"@openzeppelin/contracts/access/Ownable.sol\":2499:2524  address oldOwner = _owner */\n  swap1\n  pop\n    /* \"@openzeppelin/contracts/access/Ownable.sol\":2543:2551  newOwner */\n  dup2\n    /* \"@openzeppelin/contracts/access/Ownable.sol\":2534:2540  _owner */\n  0x05\n  0x00\n    /* \"@openzeppelin/contracts/access/Ownable.sol\":2534:2551  _owner = newOwner */\n  0x0100\n  exp\n  dup2\n  sload\n  dup2\n  0xffffffffffffffffffffffffffffffffffffffff\n  mul\n  not\n  and\n  swap1\n  dup4\n  0xffffffffffffffffffffffffffffffffffffffff\n  and\n  mul\n  or\n  swap1\n  sstore\n  pop\n    /* \"@openzeppelin/contracts/access/Ownable.sol\":2597:2605  newOwner */\n  dup2\n    /* \"@openzeppelin/contracts/access/Ownable.sol\":2566:2606  OwnershipTransferred(oldOwner, newOwner) */\n  0xffffffffffffffffffffffffffffffffffffffff\n  and\n    /* \"@openzeppelin/contracts/access/Ownable.sol\":2587:2595  oldOwner */\n  dup2\n    /* \"@openzeppelin/contracts/access/Ownable.sol\":2566:2606  OwnershipTransferred(oldOwner, newOwner) */\n  0xffffffffffffffffffffffffffffffffffffffff\n  and\n  0x8be0079c531659141344cd1fd0a4f28419497f9722a3daafe3b4186f6b6457e0\n  mload(0x40)\n  mload(0x40)\n  dup1\n  swap2\n  sub\n  swap1\n  log3\n    /* \"@openzeppelin/contracts/access/Ownable.sol\":2489:2613  {... */\n  pop\n    /* \"@openzeppelin/contracts/access/Ownable.sol\":2426:2613  function _transferOwnership(address newOwner) internal virtual {... */\n  pop\n  jump\t// out\n    /* \"@openzeppelin/contracts/token/ERC20/ERC20.sol\":8520:9055  function _mint(address account, uint256 amount) internal virtual {... */\ntag_16:\n    /* \"@openzeppelin/contracts/token/ERC20/ERC20.sol\":8622:8623  0 */\n  0x00\n    /* \"@openzeppelin/contracts/token/ERC20/ERC20.sol\":8603:8624  account != address(0) */\n  0xffffffffffffffffffffffffffffffffffffffff\n  and\n    /* \"@openzeppelin/contracts/token/ERC20/ERC20.sol\":8603:8610  account */\n  dup3\n    /* \"@openzeppelin/contracts/token/ERC20/ERC20.sol\":8603:8624  account != address(0) */\n  0xffffffffffffffffffffffffffffffffffffffff\n  and\n  sub\n    /* \"@openzeppelin/contracts/token/ERC20/ERC20.sol\":8595:8660  require(account != address(0), \"ERC20: mint to the zero address\") */\n  tag_21\n  jumpi\n  mload(0x40)\n  0x08c379a000000000000000000000000000000000000000000000000000000000\n  dup2\n  mstore\n  0x04\n  add\n  tag_22\n  swap1\n  tag_23\n  jump\t// in\ntag_22:\n  mload(0x40)\n  dup1\n  swap2\n  sub\n  swap1\n  revert\ntag_21:\n    /* \"@openzeppelin/contracts/token/ERC20/ERC20.sol\":8671:8720  _beforeTokenTransfer(address(0), account, amount) */\n  tag_24\n    /* \"@openzeppelin/contracts/token/ERC20/ERC20.sol\":8700:8701  0 */\n  0x00\n    /* \"@openzeppelin/contracts/token/ERC20/ERC20.sol\":8704:8711  account */\n  dup4\n    /* \"@openzeppelin/contracts/token/ERC20/ERC20.sol\":8713:8719  amount */\n  dup4\n    /* \"@openzeppelin/contracts/token/ERC20/ERC20.sol\":8671:8691  _beforeTokenTransfer */\n  shl(0x20, tag_25)\n    /* \"@openzeppelin/contracts/token/ERC20/ERC20.sol\":8671:8720  _beforeTokenTransfer(address(0), account, amount) */\n  0x20\n  shr\n  jump\t// in\ntag_24:\n    /* \"@openzeppelin/contracts/token/ERC20/ERC20.sol\":8747:8753  amount */\n  dup1\n    /* \"@openzeppelin/contracts/token/ERC20/ERC20.sol\":8731:8743  _totalSupply */\n  0x02\n  0x00\n    /* \"@openzeppelin/contracts/token/ERC20/ERC20.sol\":8731:8753  _totalSupply += amount */\n  dup3\n  dup3\n  sload\n  tag_26\n  swap2\n  swap1\n  tag_27\n  jump\t// in\ntag_26:\n  swap3\n  pop\n  pop\n  dup2\n  swap1\n  sstore\n  pop\n    /* \"@openzeppelin/contracts/token/ERC20/ERC20.sol\":8921:8927  amount */\n  dup1\n    /* \"@openzeppelin/contracts/token/ERC20/ERC20.sol\":8899:8908  _balances */\n  0x00\n    /* \"@openzeppelin/contracts/token/ERC20/ERC20.sol\":8899:8917  _balances[account] */\n  dup1\n    /* \"@openzeppelin/contracts/token/ERC20/ERC20.sol\":8909:8916  account */\n  dup5\n    /* \"@openzeppelin/contracts/token/ERC20/ERC20.sol\":8899:8917  _balances[account] */\n  0xffffffffffffffffffffffffffffffffffffffff\n  and\n  0xffffffffffffffffffffffffffffffffffffffff\n  and\n  dup2\n  mstore\n  0x20\n  add\n  swap1\n  dup2\n  mstore\n  0x20\n  add\n  0x00\n  keccak256\n  0x00\n    /* \"@openzeppelin/contracts/token/ERC20/ERC20.sol\":8899:8927  _balances[account] += amount */\n  dup3\n  dup3\n  sload\n  add\n  swap3\n  pop\n  pop\n  dup2\n  swap1\n  sstore\n  pop\n    /* \"@openzeppelin/contracts/token/ERC20/ERC20.sol\":8973:8980  account */\n  dup2\n    /* \"@openzeppelin/contracts/token/ERC20/ERC20.sol\":8952:8989  Transfer(address(0), account, amount) */\n  0xffffffffffffffffffffffffffffffffffffffff\n  and\n    /* \"@openzeppelin/contracts/token/ERC20/ERC20.sol\":8969:8970  0 */\n  0x00\n    /* \"@openzeppelin/contracts/token/ERC20/ERC20.sol\":8952:8989  Transfer(address(0), account, amount) */\n  0xffffffffffffffffffffffffffffffffffffffff\n  and\n  0xddf252ad1be2c89b69c2b068fc378daa952ba7f163c4a11628f55a4df523b3ef\n    /* \"@openzeppelin/contracts/token/ERC20/ERC20.sol\":8982:8988  amount */\n  dup4\n    /* \"@openzeppelin/contracts/token/ERC20/ERC20.sol\":8952:8989  Transfer(address(0), account, amount) */\n  mload(0x40)\n  tag_28\n  swap2\n  swap1\n  tag_29\n  jump\t// in\ntag_28:\n  mload(0x40)\n  dup1\n  swap2\n  sub\n  swap1\n  log3\n    /* \"@openzeppelin/contracts/token/ERC20/ERC20.sol\":9000:9048  _afterTokenTransfer(address(0), account, amount) */\n  tag_30\n    /* \"@openzeppelin/contracts/token/ERC20/ERC20.sol\":9028:9029  0 */\n  0x00\n    /* \"@openzeppelin/contracts/token/ERC20/ERC20.sol\":9032:9039  account */\n  dup4\n    /* \"@openzeppelin/contracts/token/ERC20/ERC20.sol\":9041:9047  amount */\n  dup4\n    /* \"@openzeppelin/contracts/token/ERC20/ERC20.sol\":9000:9019  _afterTokenTransfer */\n  shl(0x20, tag_31)\n    /* \"@openzeppelin/contracts/token/ERC20/ERC20.sol\":9000:9048  _afterTokenTransfer(address(0), account, amount) */\n  0x20\n  shr\n  jump\t// in\ntag_30:\n    /* \"@openzeppelin/contracts/token/ERC20/ERC20.sol\":8520:9055  function _mint(address account, uint256 amount) internal virtual {... */\n  pop\n  pop\n  jump\t// out\n    /* \"@openzeppelin/contracts/token/ERC20/ERC20.sol\":12073:12164  function _beforeTokenTransfer(address from, address to, uint256 amount) internal virtual {} */\ntag_25:\n  pop\n  pop\n  pop\n  jump\t// out\n    /* \"@openzeppelin/contracts/token/ERC20/ERC20.sol\":12752:12842  function _afterTokenTransfer(address from, address to, uint256 amount) internal virtual {} */\ntag_31:\n  pop\n  pop\n  pop\n  jump\t// out\n    /* \"#utility.yul\":7:106   */\ntag_34:\n    /* \"#utility.yul\":59:65   */\n  0x00\n    /* \"#utility.yul\":93:98   */\n  dup2\n    /* \"#utility.yul\":87:99   */\n  mload\n    /* \"#utility.yul\":77:99   */\n  swap1\n  pop\n    /* \"#utility.yul\":7:106   */\n  swap2\n  swap1\n  pop\n  jump\t// out\n    /* \"#utility.yul\":112:292   */\ntag_35:\n    /* \"#utility.yul\":160:237   */\n  0x4e487b7100000000000000000000000000000000000000000000000000000000\n    /* \"#utility.yul\":157:158   */\n  0x00\n    /* \"#utility.yul\":150:238   */\n  mstore\n    /* \"#utility.yul\":257:261   */\n  0x41\n    /* \"#utility.yul\":254:255   */\n  0x04\n    /* \"#utility.yul\":247:262   */\n  mstore\n    /* \"#utility.yul\":281:285   */\n  0x24\n    /* \"#utility.yul\":278:279   */\n  0x00\n    /* \"#utility.yul\":271:286   */\n  revert\n    /* \"#utility.yul\":298:478   */\ntag_36:\n    /* \"#utility.yul\":346:423   */\n  0x4e487b7100000000000000000000000000000000000000000000000000000000\n    /* \"#utility.yul\":343:344   */\n  0x00\n    /* \"#utility.yul\":336:424   */\n  mstore\n    /* \"#utility.yul\":443:447   */\n  0x22\n    /* \"#utility.yul\":440:441   */\n  0x04\n    /* \"#utility.yul\":433:448   */\n  mstore\n    /* \"#utility.yul\":467:471   */\n  0x24\n    /* \"#utility.yul\":464:465   */\n  0x00\n    /* \"#utility.yul\":457:472   */\n  revert\n    /* \"#utility.yul\":484:804   */\ntag_37:\n    /* \"#utility.yul\":528:534   */\n  0x00\n    /* \"#utility.yul\":565:566   */\n  0x02\n    /* \"#utility.yul\":559:563   */\n  dup3\n    /* \"#utility.yul\":555:567   */\n  div\n    /* \"#utility.yul\":545:567   */\n  swap1\n  pop\n    /* \"#utility.yul\":612:613   */\n  0x01\n    /* \"#utility.yul\":606:610   */\n  dup3\n    /* \"#utility.yul\":602:614   */\n  and\n    /* \"#utility.yul\":633:651   */\n  dup1\n    /* \"#utility.yul\":623:704   */\n  tag_64\n  jumpi\n    /* \"#utility.yul\":689:693   */\n  0x7f\n    /* \"#utility.yul\":681:687   */\n  dup3\n    /* \"#utility.yul\":677:694   */\n  and\n    /* \"#utility.yul\":667:694   */\n  swap2\n  pop\n    /* \"#utility.yul\":623:704   */\ntag_64:\n    /* \"#utility.yul\":751:753   */\n  0x20\n    /* \"#utility.yul\":743:749   */\n  dup3\n    /* \"#utility.yul\":740:754   */\n  lt\n    /* \"#utility.yul\":720:738   */\n  dup2\n    /* \"#utility.yul\":717:755   */\n  sub\n    /* \"#utility.yul\":714:798   */\n  tag_65\n  jumpi\n    /* \"#utility.yul\":770:788   */\n  tag_66\n  tag_36\n  jump\t// in\ntag_66:\n    /* \"#utility.yul\":714:798   */\ntag_65:\n    /* \"#utility.yul\":535:804   */\n  pop\n    /* \"#utility.yul\":484:804   */\n  swap2\n  swap1\n  pop\n  jump\t// out\n    /* \"#utility.yul\":810:951   */\ntag_38:\n    /* \"#utility.yul\":859:863   */\n  0x00\n    /* \"#utility.yul\":882:885   */\n  dup2\n    /* \"#utility.yul\":874:885   */\n  swap1\n  pop\n    /* \"#utility.yul\":905:908   */\n  dup2\n    /* \"#utility.yul\":902:903   */\n  0x00\n    /* \"#utility.yul\":895:909   */\n  mstore\n    /* \"#utility.yul\":939:943   */\n  0x20\n    /* \"#utility.yul\":936:937   */\n  0x00\n    /* \"#utility.yul\":926:944   */\n  keccak256\n    /* \"#utility.yul\":918:944   */\n  swap1\n  pop\n    /* \"#utility.yul\":810:951   */\n  swap2\n  swap1\n  pop\n  jump\t// out\n    /* \"#utility.yul\":957:1050   */\ntag_39:\n    /* \"#utility.yul\":994:1000   */\n  0x00\n    /* \"#utility.yul\":1041:1043   */\n  0x20\n    /* \"#utility.yul\":1036:1038   */\n  0x1f\n    /* \"#utility.yul\":1029:1034   */\n  dup4\n    /* \"#utility.yul\":1025:1039   */\n  add\n    /* \"#utility.yul\":1021:1044   */\n  div\n    /* \"#utility.yul\":1011:1044   */\n  swap1\n  pop\n    /* \"#utility.yul\":957:1050   */\n  swap2\n  swap1\n  pop\n  jump\t// out\n    /* \"#utility.yul\":1056:1163   */\ntag_40:\n    /* \"#utility.yul\":1100:1108   */\n  0x00\n    /* \"#utility.yul\":1150:1155   */\n  dup3\n    /* \"#utility.yul\":1144:1148   */\n  dup3\n    /* \"#utility.yul\":1140:1156   */\n  shl\n    /* \"#utility.yul\":1119:1156   */\n  swap1\n  pop\n    /* \"#utility.yul\":1056:1163   */\n  swap3\n  swap2\n  pop\n  pop\n  jump\t// out\n    /* \"#utility.yul\":1169:1562   */\ntag_41:\n    /* \"#utility.yul\":1238:1244   */\n  0x00\n    /* \"#utility.yul\":1288:1289   */\n  0x08\n    /* \"#utility.yul\":1276:1286   */\n  dup4\n    /* \"#utility.yul\":1272:1290   */\n  mul\n    /* \"#utility.yul\":1311:1408   */\n  tag_71\n    /* \"#utility.yul\":1341:1407   */\n  0xffffffffffffffffffffffffffffffffffffffffffffffffffffffffffffffff\n    /* \"#utility.yul\":1330:1339   */\n  dup3\n    /* \"#utility.yul\":1311:1408   */\n  tag_40\n  jump\t// in\ntag_71:\n    /* \"#utility.yul\":1429:1468   */\n  tag_72\n    /* \"#utility.yul\":1459:1467   */\n  dup7\n    /* \"#utility.yul\":1448:1457   */\n  dup4\n    /* \"#utility.yul\":1429:1468   */\n  tag_40\n  jump\t// in\ntag_72:\n    /* \"#utility.yul\":1417:1468   */\n  swap6\n  pop\n    /* \"#utility.yul\":1501:1505   */\n  dup1\n    /* \"#utility.yul\":1497:1506   */\n  not\n    /* \"#utility.yul\":1490:1495   */\n  dup5\n    /* \"#utility.yul\":1486:1507   */\n  and\n    /* \"#utility.yul\":1477:1507   */\n  swap4\n  pop\n    /* \"#utility.yul\":1550:1554   */\n  dup1\n    /* \"#utility.yul\":1540:1548   */\n  dup7\n    /* \"#utility.yul\":1536:1555   */\n  and\n    /* \"#utility.yul\":1529:1534   */\n  dup5\n    /* \"#utility.yul\":1526:1556   */\n  or\n    /* \"#utility.yul\":1516:1556   */\n  swap3\n  pop\n    /* \"#utility.yul\":1245:1562   */\n  pop\n  pop\n    /* \"#utility.yul\":1169:1562   */\n  swap4\n  swap3\n  pop\n  pop\n  pop\n  jump\t// out\n    /* \"#utility.yul\":1568:1645   */\ntag_42:\n    /* \"#utility.yul\":1605:1612   */\n  0x00\n    /* \"#utility.yul\":1634:1639   */\n  dup2\n    /* \"#utility.yul\":1623:1639   */\n  swap1\n  pop\n    /* \"#utility.yul\":1568:1645   */\n  swap2\n  swap1\n  pop\n  jump\t// out\n    /* \"#utility.yul\":1651:1711   */\ntag_43:\n    /* \"#utility.yul\":1679:1682   */\n  0x00\n    /* \"#utility.yul\":1700:1705   */\n  dup2\n    /* \"#utility.yul\":1693:1705   */\n  swap1\n  pop\n    /* \"#utility.yul\":1651:1711   */\n  swap2\n  swap1\n  pop\n  jump\t// out\n    /* \"#utility.yul\":1717:1859   */\ntag_44:\n    /* \"#utility.yul\":1767:1776   */\n  0x00\n    /* \"#utility.yul\":1800:1853   */\n  tag_76\n    /* \"#utility.yul\":1818:1852   */\n  tag_77\n    /* \"#utility.yul\":1827:1851   */\n  tag_78\n    /* \"#utility.yul\":1845:1850   */\n  dup5\n    /* \"#utility.yul\":1827:1851   */\n  tag_42\n  jump\t// in\ntag_78:\n    /* \"#utility.yul\":1818:1852   */\n  tag_43\n  jump\t// in\ntag_77:\n    /* \"#utility.yul\":1800:1853   */\n  tag_42\n  jump\t// in\ntag_76:\n    /* \"#utility.yul\":1787:1853   */\n  swap1\n  pop\n    /* \"#utility.yul\":1717:1859   */\n  swap2\n  swap1\n  pop\n  jump\t// out\n    /* \"#utility.yul\":1865:1940   */\ntag_45:\n    /* \"#utility.yul\":1908:1911   */\n  0x00\n    /* \"#utility.yul\":1929:1934   */\n  dup2\n    /* \"#utility.yul\":1922:1934   */\n  swap1\n  pop\n    /* \"#utility.yul\":1865:1940   */\n  swap2\n  swap1\n  pop\n  jump\t// out\n    /* \"#utility.yul\":1946:2215   */\ntag_46:\n    /* \"#utility.yul\":2056:2095   */\n  tag_81\n    /* \"#utility.yul\":2087:2094   */\n  dup4\n    /* \"#utility.yul\":2056:2095   */\n  tag_44\n  jump\t// in\ntag_81:\n    /* \"#utility.yul\":2117:2208   */\n  tag_82\n    /* \"#utility.yul\":2166:2207   */\n  tag_83\n    /* \"#utility.yul\":2190:2206   */\n  dup3\n    /* \"#utility.yul\":2166:2207   */\n  tag_45\n  jump\t// in\ntag_83:\n    /* \"#utility.yul\":2158:2164   */\n  dup5\n    /* \"#utility.yul\":2151:2155   */\n  dup5\n    /* \"#utility.yul\":2145:2156   */\n  sload\n    /* \"#utility.yul\":2117:2208   */\n  tag_41\n  jump\t// in\ntag_82:\n    /* \"#utility.yul\":2111:2115   */\n  dup3\n    /* \"#utility.yul\":2104:2209   */\n  sstore\n    /* \"#utility.yul\":2022:2215   */\n  pop\n    /* \"#utility.yul\":1946:2215   */\n  pop\n  pop\n  pop\n  jump\t// out\n    /* \"#utility.yul\":2221:2294   */\ntag_47:\n    /* \"#utility.yul\":2266:2269   */\n  0x00\n    /* \"#utility.yul\":2221:2294   */\n  swap1\n  jump\t// out\n    /* \"#utility.yul\":2300:2489   */\ntag_48:\n    /* \"#utility.yul\":2377:2409   */\n  tag_86\n  tag_47\n  jump\t// in\ntag_86:\n    /* \"#utility.yul\":2418:2483   */\n  tag_87\n    /* \"#utility.yul\":2476:2482   */\n  dup2\n    /* \"#utility.yul\":2468:2474   */\n  dup5\n    /* \"#utility.yul\":2462:2466   */\n  dup5\n    /* \"#utility.yul\":2418:2483   */\n  tag_46\n  jump\t// in\ntag_87:\n    /* \"#utility.yul\":2353:2489   */\n  pop\n    /* \"#utility.yul\":2300:2489   */\n  pop\n  pop\n  jump\t// out\n    /* \"#utility.yul\":2495:2681   */\ntag_49:\n    /* \"#utility.yul\":2555:2675   */\ntag_89:\n    /* \"#utility.yul\":2572:2575   */\n  dup2\n    /* \"#utility.yul\":2565:2570   */\n  dup2\n    /* \"#utility.yul\":2562:2576   */\n  lt\n    /* \"#utility.yul\":2555:2675   */\n  iszero\n  tag_91\n  jumpi\n    /* \"#utility.yul\":2626:2665   */\n  tag_92\n    /* \"#utility.yul\":2663:2664   */\n  0x00\n    /* \"#utility.yul\":2656:2661   */\n  dup3\n    /* \"#utility.yul\":2626:2665   */\n  tag_48\n  jump\t// in\ntag_92:\n    /* \"#utility.yul\":2599:2600   */\n  0x01\n    /* \"#utility.yul\":2592:2597   */\n  dup2\n    /* \"#utility.yul\":2588:2601   */\n  add\n    /* \"#utility.yul\":2579:2601   */\n  swap1\n  pop\n    /* \"#utility.yul\":2555:2675   */\n  jump(tag_89)\ntag_91:\n    /* \"#utility.yul\":2495:2681   */\n  pop\n  pop\n  jump\t// out\n    /* \"#utility.yul\":2687:3230   */\ntag_50:\n    /* \"#utility.yul\":2788:2790   */\n  0x1f\n    /* \"#utility.yul\":2783:2786   */\n  dup3\n    /* \"#utility.yul\":2780:2791   */\n  gt\n    /* \"#utility.yul\":2777:3223   */\n  iszero\n  tag_94\n  jumpi\n    /* \"#utility.yul\":2822:2860   */\n  tag_95\n    /* \"#utility.yul\":2854:2859   */\n  dup2\n    /* \"#utility.yul\":2822:2860   */\n  tag_38\n  jump\t// in\ntag_95:\n    /* \"#utility.yul\":2906:2935   */\n  tag_96\n    /* \"#utility.yul\":2924:2934   */\n  dup5\n    /* \"#utility.yul\":2906:2935   */\n  tag_39\n  jump\t// in\ntag_96:\n    /* \"#utility.yul\":2896:2904   */\n  dup2\n    /* \"#utility.yul\":2892:2936   */\n  add\n    /* \"#utility.yul\":3089:3091   */\n  0x20\n    /* \"#utility.yul\":3077:3087   */\n  dup6\n    /* \"#utility.yul\":3074:3092   */\n  lt\n    /* \"#utility.yul\":3071:3120   */\n  iszero\n  tag_97\n  jumpi\n    /* \"#utility.yul\":3110:3118   */\n  dup2\n    /* \"#utility.yul\":3095:3118   */\n  swap1\n  pop\n    /* \"#utility.yul\":3071:3120   */\ntag_97:\n    /* \"#utility.yul\":3133:3213   */\n  tag_98\n    /* \"#utility.yul\":3189:3211   */\n  tag_99\n    /* \"#utility.yul\":3207:3210   */\n  dup6\n    /* \"#utility.yul\":3189:3211   */\n  tag_39\n  jump\t// in\ntag_99:\n    /* \"#utility.yul\":3179:3187   */\n  dup4\n    /* \"#utility.yul\":3175:3212   */\n  add\n    /* \"#utility.yul\":3162:3173   */\n  dup3\n    /* \"#utility.yul\":3133:3213   */\n  tag_49\n  jump\t// in\ntag_98:\n    /* \"#utility.yul\":2792:3223   */\n  pop\n  pop\n    /* \"#utility.yul\":2777:3223   */\ntag_94:\n    /* \"#utility.yul\":2687:3230   */\n  pop\n  pop\n  pop\n  jump\t// out\n    /* \"#utility.yul\":3236:3353   */\ntag_51:\n    /* \"#utility.yul\":3290:3298   */\n  0x00\n    /* \"#utility.yul\":3340:3345   */\n  dup3\n    /* \"#utility.yul\":3334:3338   */\n  dup3\n    /* \"#utility.yul\":3330:3346   */\n  shr\n    /* \"#utility.yul\":3309:3346   */\n  swap1\n  pop\n    /* \"#utility.yul\":3236:3353   */\n  swap3\n  swap2\n  pop\n  pop\n  jump\t// out\n    /* \"#utility.yul\":3359:3528   */\ntag_52:\n    /* \"#utility.yul\":3403:3409   */\n  0x00\n    /* \"#utility.yul\":3436:3487   */\n  tag_102\n    /* \"#utility.yul\":3484:3485   */\n  0x00\n    /* \"#utility.yul\":3480:3486   */\n  not\n    /* \"#utility.yul\":3472:3477   */\n  dup5\n    /* \"#utility.yul\":3469:3470   */\n  0x08\n    /* \"#utility.yul\":3465:3478   */\n  mul\n    /* \"#utility.yul\":3436:3487   */\n  tag_51\n  jump\t// in\ntag_102:\n    /* \"#utility.yul\":3432:3488   */\n  not\n    /* \"#utility.yul\":3517:3521   */\n  dup1\n    /* \"#utility.yul\":3511:3515   */\n  dup4\n    /* \"#utility.yul\":3507:3522   */\n  and\n    /* \"#utility.yul\":3497:3522   */\n  swap2\n  pop\n    /* \"#utility.yul\":3410:3528   */\n  pop\n    /* \"#utility.yul\":3359:3528   */\n  swap3\n  swap2\n  pop\n  pop\n  jump\t// out\n    /* \"#utility.yul\":3533:3828   */\ntag_53:\n    /* \"#utility.yul\":3609:3613   */\n  0x00\n    /* \"#utility.yul\":3755:3784   */\n  tag_104\n    /* \"#utility.yul\":3780:3783   */\n  dup4\n    /* \"#utility.yul\":3774:3778   */\n  dup4\n    /* \"#utility.yul\":3755:3784   */\n  tag_52\n  jump\t// in\ntag_104:\n    /* \"#utility.yul\":3747:3784   */\n  swap2\n  pop\n    /* \"#utility.yul\":3817:3820   */\n  dup3\n    /* \"#utility.yul\":3814:3815   */\n  0x02\n    /* \"#utility.yul\":3810:3821   */\n  mul\n    /* \"#utility.yul\":3804:3808   */\n  dup3\n    /* \"#utility.yul\":3801:3822   */\n  or\n    /* \"#utility.yul\":3793:3822   */\n  swap1\n  pop\n    /* \"#utility.yul\":3533:3828   */\n  swap3\n  swap2\n  pop\n  pop\n  jump\t// out\n    /* \"#utility.yul\":3833:5228   */\ntag_7:\n    /* \"#utility.yul\":3950:3987   */\n  tag_106\n    /* \"#utility.yul\":3983:3986   */\n  dup3\n    /* \"#utility.yul\":3950:3987   */\n  tag_34\n  jump\t// in\ntag_106:\n    /* \"#utility.yul\":4052:4070   */\n  0xffffffffffffffff\n    /* \"#utility.yul\":4044:4050   */\n  dup2\n    /* \"#utility.yul\":4041:4071   */\n  gt\n    /* \"#utility.yul\":4038:4094   */\n  iszero\n  tag_107\n  jumpi\n    /* \"#utility.yul\":4074:4092   */\n  tag_108\n  tag_35\n  jump\t// in\ntag_108:\n    /* \"#utility.yul\":4038:4094   */\ntag_107:\n    /* \"#utility.yul\":4118:4156   */\n  tag_109\n    /* \"#utility.yul\":4150:4154   */\n  dup3\n    /* \"#utility.yul\":4144:4155   */\n  sload\n    /* \"#utility.yul\":4118:4156   */\n  tag_37\n  jump\t// in\ntag_109:\n    /* \"#utility.yul\":4203:4270   */\n  tag_110\n    /* \"#utility.yul\":4263:4269   */\n  dup3\n    /* \"#utility.yul\":4255:4261   */\n  dup3\n    /* \"#utility.yul\":4249:4253   */\n  dup6\n    /* \"#utility.yul\":4203:4270   */\n  tag_50\n  jump\t// in\ntag_110:\n    /* \"#utility.yul\":4297:4298   */\n  0x00\n    /* \"#utility.yul\":4321:4325   */\n  0x20\n    /* \"#utility.yul\":4308:4325   */\n  swap1\n  pop\n    /* \"#utility.yul\":4353:4355   */\n  0x1f\n    /* \"#utility.yul\":4345:4351   */\n  dup4\n    /* \"#utility.yul\":4342:4356   */\n  gt\n    /* \"#utility.yul\":4370:4371   */\n  0x01\n    /* \"#utility.yul\":4365:4983   */\n  dup2\n  eq\n  tag_112\n  jumpi\n    /* \"#utility.yul\":5027:5028   */\n  0x00\n    /* \"#utility.yul\":5044:5050   */\n  dup5\n    /* \"#utility.yul\":5041:5118   */\n  iszero\n  tag_113\n  jumpi\n    /* \"#utility.yul\":5093:5102   */\n  dup3\n    /* \"#utility.yul\":5088:5091   */\n  dup8\n    /* \"#utility.yul\":5084:5103   */\n  add\n    /* \"#utility.yul\":5078:5104   */\n  mload\n    /* \"#utility.yul\":5069:5104   */\n  swap1\n  pop\n    /* \"#utility.yul\":5041:5118   */\ntag_113:\n    /* \"#utility.yul\":5144:5211   */\n  tag_114\n    /* \"#utility.yul\":5204:5210   */\n  dup6\n    /* \"#utility.yul\":5197:5202   */\n  dup3\n    /* \"#utility.yul\":5144:5211   */\n  tag_53\n  jump\t// in\ntag_114:\n    /* \"#utility.yul\":5138:5142   */\n  dup7\n    /* \"#utility.yul\":5131:5212   */\n  sstore\n    /* \"#utility.yul\":5000:5222   */\n  pop\n    /* \"#utility.yul\":4335:5222   */\n  jump(tag_111)\n    /* \"#utility.yul\":4365:4983   */\ntag_112:\n    /* \"#utility.yul\":4417:4421   */\n  0x1f\n    /* \"#utility.yul\":4413:4422   */\n  not\n    /* \"#utility.yul\":4405:4411   */\n  dup5\n    /* \"#utility.yul\":4401:4423   */\n  and\n    /* \"#utility.yul\":4451:4488   */\n  tag_115\n    /* \"#utility.yul\":4483:4487   */\n  dup7\n    /* \"#utility.yul\":4451:4488   */\n  tag_38\n  jump\t// in\ntag_115:\n    /* \"#utility.yul\":4510:4511   */\n  0x00\n    /* \"#utility.yul\":4524:4732   */\ntag_116:\n    /* \"#utility.yul\":4538:4545   */\n  dup3\n    /* \"#utility.yul\":4535:4536   */\n  dup2\n    /* \"#utility.yul\":4532:4546   */\n  lt\n    /* \"#utility.yul\":4524:4732   */\n  iszero\n  tag_118\n  jumpi\n    /* \"#utility.yul\":4617:4626   */\n  dup5\n    /* \"#utility.yul\":4612:4615   */\n  dup10\n    /* \"#utility.yul\":4608:4627   */\n  add\n    /* \"#utility.yul\":4602:4628   */\n  mload\n    /* \"#utility.yul\":4594:4600   */\n  dup3\n    /* \"#utility.yul\":4587:4629   */\n  sstore\n    /* \"#utility.yul\":4668:4669   */\n  0x01\n    /* \"#utility.yul\":4660:4666   */\n  dup3\n    /* \"#utility.yul\":4656:4670   */\n  add\n    /* \"#utility.yul\":4646:4670   */\n  swap2\n  pop\n    /* \"#utility.yul\":4715:4717   */\n  0x20\n    /* \"#utility.yul\":4704:4713   */\n  dup6\n    /* \"#utility.yul\":4700:4718   */\n  add\n    /* \"#utility.yul\":4687:4718   */\n  swap5\n  pop\n    /* \"#utility.yul\":4561:4565   */\n  0x20\n    /* \"#utility.yul\":4558:4559   */\n  dup2\n    /* \"#utility.yul\":4554:4566   */\n  add\n    /* \"#utility.yul\":4549:4566   */\n  swap1\n  pop\n    /* \"#utility.yul\":4524:4732   */\n  jump(tag_116)\ntag_118:\n    /* \"#utility.yul\":4760:4766   */\n  dup7\n    /* \"#utility.yul\":4751:4758   */\n  dup4\n    /* \"#utility.yul\":4748:4767   */\n  lt\n    /* \"#utility.yul\":4745:4924   */\n  iszero\n  tag_119\n  jumpi\n    /* \"#utility.yul\":4818:4827   */\n  dup5\n    /* \"#utility.yul\":4813:4816   */\n  dup10\n    /* \"#utility.yul\":4809:4828   */\n  add\n    /* \"#utility.yul\":4803:4829   */\n  mload\n    /* \"#utility.yul\":4861:4909   */\n  tag_120\n    /* \"#utility.yul\":4903:4907   */\n  0x1f\n    /* \"#utility.yul\":4895:4901   */\n  dup10\n    /* \"#utility.yul\":4891:4908   */\n  and\n    /* \"#utility.yul\":4880:4889   */\n  dup3\n    /* \"#utility.yul\":4861:4909   */\n  tag_52\n  jump\t// in\ntag_120:\n    /* \"#utility.yul\":4853:4859   */\n  dup4\n    /* \"#utility.yul\":4846:4910   */\n  sstore\n    /* \"#utility.yul\":4768:4924   */\n  pop\n    /* \"#utility.yul\":4745:4924   */\ntag_119:\n    /* \"#utility.yul\":4970:4971   */\n  0x01\n    /* \"#utility.yul\":4966:4967   */\n  0x02\n    /* \"#utility.yul\":4958:4964   */\n  dup9\n    /* \"#utility.yul\":4954:4968   */\n  mul\n    /* \"#utility.yul\":4950:4972   */\n  add\n    /* \"#utility.yul\":4944:4948   */\n  dup9\n    /* \"#utility.yul\":4937:4973   */\n  sstore\n    /* \"#utility.yul\":4372:4983   */\n  pop\n  pop\n  pop\n    /* \"#utility.yul\":4335:5222   */\ntag_111:\n  pop\n    /* \"#utility.yul\":3925:5228   */\n  pop\n  pop\n  pop\n    /* \"#utility.yul\":3833:5228   */\n  pop\n  pop\n  jump\t// out\n    /* \"#utility.yul\":5234:5403   */\ntag_54:\n    /* \"#utility.yul\":5318:5329   */\n  0x00\n    /* \"#utility.yul\":5352:5358   */\n  dup3\n    /* \"#utility.yul\":5347:5350   */\n  dup3\n    /* \"#utility.yul\":5340:5359   */\n  mstore\n    /* \"#utility.yul\":5392:5396   */\n  0x20\n    /* \"#utility.yul\":5387:5390   */\n  dup3\n    /* \"#utility.yul\":5383:5397   */\n  add\n    /* \"#utility.yul\":5368:5397   */\n  swap1\n  pop\n    /* \"#utility.yul\":5234:5403   */\n  swap3\n  swap2\n  pop\n  pop\n  jump\t// out\n    /* \"#utility.yul\":5409:5590   */\ntag_55:\n    /* \"#utility.yul\":5549:5582   */\n  0x45524332303a206d696e7420746f20746865207a65726f206164647265737300\n    /* \"#utility.yul\":5545:5546   */\n  0x00\n    /* \"#utility.yul\":5537:5543   */\n  dup3\n    /* \"#utility.yul\":5533:5547   */\n  add\n    /* \"#utility.yul\":5526:5583   */\n  mstore\n    /* \"#utility.yul\":5409:5590   */\n  pop\n  jump\t// out\n    /* \"#utility.yul\":5596:5962   */\ntag_56:\n    /* \"#utility.yul\":5738:5741   */\n  0x00\n    /* \"#utility.yul\":5759:5826   */\n  tag_124\n    /* \"#utility.yul\":5823:5825   */\n  0x1f\n    /* \"#utility.yul\":5818:5821   */\n  dup4\n    /* \"#utility.yul\":5759:5826   */\n  tag_54\n  jump\t// in\ntag_124:\n    /* \"#utility.yul\":5752:5826   */\n  swap2\n  pop\n    /* \"#utility.yul\":5835:5928   */\n  tag_125\n    /* \"#utility.yul\":5924:5927   */\n  dup3\n    /* \"#utility.yul\":5835:5928   */\n  tag_55\n  jump\t// in\ntag_125:\n    /* \"#utility.yul\":5953:5955   */\n  0x20\n    /* \"#utility.yul\":5948:5951   */\n  dup3\n    /* \"#utility.yul\":5944:5956   */\n  add\n    /* \"#utility.yul\":5937:5956   */\n  swap1\n  pop\n    /* \"#utility.yul\":5596:5962   */\n  swap2\n  swap1\n  pop\n  jump\t// out\n    /* \"#utility.yul\":5968:6387   */\ntag_23:\n    /* \"#utility.yul\":6134:6138   */\n  0x00\n    /* \"#utility.yul\":6172:6174   */\n  0x20\n    /* \"#utility.yul\":6161:6170   */\n  dup3\n    /* \"#utility.yul\":6157:6175   */\n  add\n    /* \"#utility.yul\":6149:6175   */\n  swap1\n  pop\n    /* \"#utility.yul\":6221:6230   */\n  dup2\n    /* \"#utility.yul\":6215:6219   */\n  dup2\n    /* \"#utility.yul\":6211:6231   */\n  sub\n    /* \"#utility.yul\":6207:6208   */\n  0x00\n    /* \"#utility.yul\":6196:6205   */\n  dup4\n    /* \"#utility.yul\":6192:6209   */\n  add\n    /* \"#utility.yul\":6185:6232   */\n  mstore\n    /* \"#utility.yul\":6249:6380   */\n  tag_127\n    /* \"#utility.yul\":6375:6379   */\n  dup2\n    /* \"#utility.yul\":6249:6380   */\n  tag_56\n  jump\t// in\ntag_127:\n    /* \"#utility.yul\":6241:6380   */\n  swap1\n  pop\n    /* \"#utility.yul\":5968:6387   */\n  swap2\n  swap1\n  pop\n  jump\t// out\n    /* \"#utility.yul\":6393:6573   */\ntag_57:\n    /* \"#utility.yul\":6441:6518   */\n  0x4e487b7100000000000000000000000000000000000000000000000000000000\n    /* \"#utility.yul\":6438:6439   */\n  0x00\n    /* \"#utility.yul\":6431:6519   */\n  mstore\n    /* \"#utility.yul\":6538:6542   */\n  0x11\n    /* \"#utility.yul\":6535:6536   */\n  0x04\n    /* \"#utility.yul\":6528:6543   */\n  mstore\n    /* \"#utility.yul\":6562:6566   */\n  0x24\n    /* \"#utility.yul\":6559:6560   */\n  0x00\n    /* \"#utility.yul\":6552:6567   */\n  revert\n    /* \"#utility.yul\":6579:6770   */\ntag_27:\n    /* \"#utility.yul\":6619:6622   */\n  0x00\n    /* \"#utility.yul\":6638:6658   */\n  tag_130\n    /* \"#utility.yul\":6656:6657   */\n  dup3\n    /* \"#utility.yul\":6638:6658   */\n  tag_42\n  jump\t// in\ntag_130:\n    /* \"#utility.yul\":6633:6658   */\n  swap2\n  pop\n    /* \"#utility.yul\":6672:6692   */\n  tag_131\n    /* \"#utility.yul\":6690:6691   */\n  dup4\n    /* \"#utility.yul\":6672:6692   */\n  tag_42\n  jump\t// in\ntag_131:\n    /* \"#utility.yul\":6667:6692   */\n  swap3\n  pop\n    /* \"#utility.yul\":6715:6716   */\n  dup3\n    /* \"#utility.yul\":6712:6713   */\n  dup3\n    /* \"#utility.yul\":6708:6717   */\n  add\n    /* \"#utility.yul\":6701:6717   */\n  swap1\n  pop\n    /* \"#utility.yul\":6736:6739   */\n  dup1\n    /* \"#utility.yul\":6733:6734   */\n  dup3\n    /* \"#utility.yul\":6730:6740   */\n  gt\n    /* \"#utility.yul\":6727:6763   */\n  iszero\n  tag_132\n  jumpi\n    /* \"#utility.yul\":6743:6761   */\n  tag_133\n  tag_57\n  jump\t// in\ntag_133:\n    /* \"#utility.yul\":6727:6763   */\ntag_132:\n    /* \"#utility.yul\":6579:6770   */\n  swap3\n  swap2\n  pop\n  pop\n  jump\t// out\n    /* \"#utility.yul\":6776:6894   */\ntag_58:\n    /* \"#utility.yul\":6863:6887   */\n  tag_135\n    /* \"#utility.yul\":6881:6886   */\n  dup2\n    /* \"#utility.yul\":6863:6887   */\n  tag_42\n  jump\t// in\ntag_135:\n    /* \"#utility.yul\":6858:6861   */\n  dup3\n    /* \"#utility.yul\":6851:6888   */\n  mstore\n    /* \"#utility.yul\":6776:6894   */\n  pop\n  pop\n  jump\t// out\n    /* \"#utility.yul\":6900:7122   */\ntag_29:\n    /* \"#utility.yul\":6993:6997   */\n  0x00\n    /* \"#utility.yul\":7031:7033   */\n  0x20\n    /* \"#utility.yul\":7020:7029   */\n  dup3\n    /* \"#utility.yul\":7016:7034   */\n  add\n    /* \"#utility.yul\":7008:7034   */\n  swap1\n  pop\n    /* \"#utility.yul\":7044:7115   */\n  tag_137\n    /* \"#utility.yul\":7112:7113   */\n  0x00\n    /* \"#utility.yul\":7101:7110   */\n  dup4\n    /* \"#utility.yul\":7097:7114   */\n  add\n    /* \"#utility.yul\":7088:7094   */\n  dup5\n    /* \"#utility.yul\":7044:7115   */\n  tag_58\n  jump\t// in\ntag_137:\n    /* \"#utility.yul\":6900:7122   */\n  swap3\n  swap2\n  pop\n  pop\n  jump\t// out\n    /* \"contracts/DegenToken.sol\":167:2406  contract DegenToken is ERC20, Ownable {... */\ntag_17:\n  dataSize(sub_0)\n  dup1\n  dataOffset(sub_0)\n  0x00\n  codecopy\n  0x00\n  return\nstop\n\nsub_0: assembly {\n        /* \"contracts/DegenToken.sol\":167:2406  contract DegenToken is ERC20, Ownable {... */\n      mstore(0x40, 0x80)\n      callvalue\n      dup1\n      iszero\n      tag_1\n      jumpi\n      0x00\n      dup1\n      revert\n    tag_1:\n      pop\n      jumpi(tag_2, lt(calldatasize, 0x04))\n      shr(0xe0, calldataload(0x00))\n      dup1\n      0x8da5cb5b\n      gt\n      tag_27\n      jumpi\n      dup1\n      0xbec3fa17\n      gt\n      tag_28\n      jumpi\n      dup1\n      0xbec3fa17\n      eq\n      tag_21\n      jumpi\n      dup1\n      0xcc56857d\n      eq\n      tag_22\n      jumpi\n      dup1\n      0xdd62ed3e\n      eq\n      tag_23\n      jumpi\n      dup1\n      0xe6e645d1\n      eq\n      tag_24\n      jumpi\n      dup1\n      0xf0dda65c\n      eq\n      tag_25\n      jumpi\n      dup1\n      0xf2fde38b\n      eq\n      tag_26\n      jumpi\n      jump(tag_2)\n    tag_28:\n      dup1\n      0x8da5cb5b\n      eq\n      tag_15\n      jumpi\n      dup1\n      0x95d89b41\n      eq\n      tag_16\n      jumpi\n      dup1\n      0xa196f966\n      eq\n      tag_17\n      jumpi\n      dup1\n      0xa457c2d7\n      eq\n      tag_18\n      jumpi\n      dup1\n      0xa6e158f8\n      eq\n      tag_19\n      jumpi\n      dup1\n      0xa9059cbb\n      eq\n      tag_20\n      jumpi\n      jump(tag_2)\n    tag_27:\n      dup1\n      0x313ce567\n      gt\n      tag_29\n      jumpi\n      dup1\n      0x313ce567\n      eq\n      tag_9\n      jumpi\n      dup1\n      0x39509351\n      eq\n      tag_10\n      jumpi\n      dup1\n      0x6bfb0d01\n      eq\n      tag_11\n      jumpi\n      dup1\n      0x6d1b229d\n      eq\n      tag_12\n      jumpi\n      dup1\n      0x70a08231\n      eq\n      tag_13\n      jumpi\n      dup1\n      0x715018a6\n      eq\n      tag_14\n      jumpi\n      jump(tag_2)\n    tag_29:\n      dup1\n      0x06fdde03\n      eq\n      tag_3\n      jumpi\n      dup1\n      0x095ea7b3\n      eq\n      tag_4\n      jumpi\n      dup1\n      0x126cbe60\n      eq\n      tag_5\n      jumpi\n      dup1\n      0x18160ddd\n      eq\n      tag_6\n      jumpi\n      dup1\n      0x21dded92\n      eq\n      tag_7\n      jumpi\n      dup1\n      0x23b872dd\n      eq\n      tag_8\n      jumpi\n    tag_2:\n      0x00\n      dup1\n      revert\n        /* \"@openzeppelin/contracts/token/ERC20/ERC20.sol\":2158:2256  function name() public view virtual override returns (string memory) {... */\n    tag_3:\n      tag_30\n      tag_31\n      jump\t// in\n    tag_30:\n      mload(0x40)\n      tag_32\n      swap2\n      swap1\n      tag_33\n      jump\t// in\n    tag_32:\n      mload(0x40)\n      dup1\n      swap2\n      sub\n      swap1\n      return\n        /* \"@openzeppelin/contracts/token/ERC20/ERC20.sol\":4444:4641  function approve(address spender, uint256 amount) public virtual override returns (bool) {... */\n    tag_4:\n      tag_34\n      0x04\n      dup1\n      calldatasize\n      sub\n      dup2\n      add\n      swap1\n      tag_35\n      swap2\n      swap1\n      tag_36\n      jump\t// in\n    tag_35:\n      tag_37\n      jump\t// in\n    tag_34:\n      mload(0x40)\n      tag_38\n      swap2\n      swap1\n      tag_39\n      jump\t// in\n    tag_38:\n      mload(0x40)\n      dup1\n      swap2\n      sub\n      swap1\n      return\n        /* \"contracts/DegenToken.sol\":1014:1130  function checkTokenBalance(address account) public view returns (uint256) {... */\n    tag_5:\n      tag_40\n      0x04\n      dup1\n      calldatasize\n      sub\n      dup2\n      add\n      swap1\n      tag_41\n      swap2\n      swap1\n      tag_42\n      jump\t// in\n    tag_41:\n      tag_43\n      jump\t// in\n    tag_40:\n      mload(0x40)\n      tag_44\n      swap2\n      swap1\n      tag_45\n      jump\t// in\n    tag_44:\n      mload(0x40)\n      dup1\n      swap2\n      sub\n      swap1\n      return\n        /* \"@openzeppelin/contracts/token/ERC20/ERC20.sol\":3255:3361  function totalSupply() public view virtual override returns (uint256) {... */\n    tag_6:\n      tag_46\n      tag_47\n      jump\t// in\n    tag_46:\n      mload(0x40)\n      tag_48\n      swap2\n      swap1\n      tag_45\n      jump\t// in\n    tag_48:\n      mload(0x40)\n      dup1\n      swap2\n      sub\n      swap1\n      return\n        /* \"contracts/DegenToken.sol\":343:398  mapping(uint256 => GameStoreItem) public gameStoreItems */\n    tag_7:\n      tag_49\n      0x04\n      dup1\n      calldatasize\n      sub\n      dup2\n      add\n      swap1\n      tag_50\n      swap2\n      swap1\n      tag_51\n      jump\t// in\n    tag_50:\n      tag_52\n      jump\t// in\n    tag_49:\n      mload(0x40)\n      tag_53\n      swap4\n      swap3\n      swap2\n      swap1\n      tag_54\n      jump\t// in\n    tag_53:\n      mload(0x40)\n      dup1\n      swap2\n      sub\n      swap1\n      return\n        /* \"@openzeppelin/contracts/token/ERC20/ERC20.sol\":5203:5459  function transferFrom(address from, address to, uint256 amount) public virtual override returns (bool) {... */\n    tag_8:\n      tag_55\n      0x04\n      dup1\n      calldatasize\n      sub\n      dup2\n      add\n      swap1\n      tag_56\n      swap2\n      swap1\n      tag_57\n      jump\t// in\n    tag_56:\n      tag_58\n      jump\t// in\n    tag_55:\n      mload(0x40)\n      tag_59\n      swap2\n      swap1\n      tag_39\n      jump\t// in\n    tag_59:\n      mload(0x40)\n      dup1\n      swap2\n      sub\n      swap1\n      return\n        /* \"@openzeppelin/contracts/token/ERC20/ERC20.sol\":3104:3195  function decimals() public view virtual override returns (uint8) {... */\n    tag_9:\n      tag_60\n      tag_61\n      jump\t// in\n    tag_60:\n      mload(0x40)\n      tag_62\n      swap2\n      swap1\n      tag_63\n      jump\t// in\n    tag_62:\n      mload(0x40)\n      dup1\n      swap2\n      sub\n      swap1\n      return\n        /* \"@openzeppelin/contracts/token/ERC20/ERC20.sol\":5854:6088  function increaseAllowance(address spender, uint256 addedValue) public virtual returns (bool) {... */\n    tag_10:\n      tag_64\n      0x04\n      dup1\n      calldatasize\n      sub\n      dup2\n      add\n      swap1\n      tag_65\n      swap2\n      swap1\n      tag_36\n      jump\t// in\n    tag_65:\n      tag_66\n      jump\t// in\n    tag_64:\n      mload(0x40)\n      tag_67\n      swap2\n      swap1\n      tag_39\n      jump\t// in\n    tag_67:\n      mload(0x40)\n      dup1\n      swap2\n      sub\n      swap1\n      return\n        /* \"contracts/DegenToken.sol\":404:428  uint256 public itemCount */\n    tag_11:\n      tag_68\n      tag_69\n      jump\t// in\n    tag_68:\n      mload(0x40)\n      tag_70\n      swap2\n      swap1\n      tag_45\n      jump\t// in\n    tag_70:\n      mload(0x40)\n      dup1\n      swap2\n      sub\n      swap1\n      return\n        /* \"contracts/DegenToken.sol\":1136:1295  function burnTokens(uint256 amount) public {... */\n    tag_12:\n      tag_71\n      0x04\n      dup1\n      calldatasize\n      sub\n      dup2\n      add\n      swap1\n      tag_72\n      swap2\n      swap1\n      tag_51\n      jump\t// in\n    tag_72:\n      tag_73\n      jump\t// in\n    tag_71:\n      stop\n        /* \"@openzeppelin/contracts/token/ERC20/ERC20.sol\":3419:3544  function balanceOf(address account) public view virtual override returns (uint256) {... */\n    tag_13:\n      tag_74\n      0x04\n      dup1\n      calldatasize\n      sub\n      dup2\n      add\n      swap1\n      tag_75\n      swap2\n      swap1\n      tag_42\n      jump\t// in\n    tag_75:\n      tag_76\n      jump\t// in\n    tag_74:\n      mload(0x40)\n      tag_77\n      swap2\n      swap1\n      tag_45\n      jump\t// in\n    tag_77:\n      mload(0x40)\n      dup1\n      swap2\n      sub\n      swap1\n      return\n        /* \"@openzeppelin/contracts/access/Ownable.sol\":1824:1925  function renounceOwnership() public virtual onlyOwner {... */\n    tag_14:\n      tag_78\n      tag_79\n      jump\t// in\n    tag_78:\n      stop\n        /* \"@openzeppelin/contracts/access/Ownable.sol\":1201:1286  function owner() public view virtual returns (address) {... */\n    tag_15:\n      tag_80\n      tag_81\n      jump\t// in\n    tag_80:\n      mload(0x40)\n      tag_82\n      swap2\n      swap1\n      tag_83\n      jump\t// in\n    tag_82:\n      mload(0x40)\n      dup1\n      swap2\n      sub\n      swap1\n      return\n        /* \"@openzeppelin/contracts/token/ERC20/ERC20.sol\":2369:2471  function symbol() public view virtual override returns (string memory) {... */\n    tag_16:\n      tag_84\n      tag_85\n      jump\t// in\n    tag_84:\n      mload(0x40)\n      tag_86\n      swap2\n      swap1\n      tag_33\n      jump\t// in\n    tag_86:\n      mload(0x40)\n      dup1\n      swap2\n      sub\n      swap1\n      return\n        /* \"contracts/DegenToken.sol\":1301:1621  function addGameStoreItem(string memory itemName, uint256 price, uint256 stock) public onlyOwner {... */\n    tag_17:\n      tag_87\n      0x04\n      dup1\n      calldatasize\n      sub\n      dup2\n      add\n      swap1\n      tag_88\n      swap2\n      swap1\n      tag_89\n      jump\t// in\n    tag_88:\n      tag_90\n      jump\t// in\n    tag_87:\n      stop\n        /* \"@openzeppelin/contracts/token/ERC20/ERC20.sol\":6575:7002  function decreaseAllowance(address spender, uint256 subtractedValue) public virtual returns (bool) {... */\n    tag_18:\n      tag_91\n      0x04\n      dup1\n      calldatasize\n      sub\n      dup2\n      add\n      swap1\n      tag_92\n      swap2\n      swap1\n      tag_36\n      jump\t// in\n    tag_92:\n      tag_93\n      jump\t// in\n    tag_91:\n      mload(0x40)\n      tag_94\n      swap2\n      swap1\n      tag_39\n      jump\t// in\n    tag_94:\n      mload(0x40)\n      dup1\n      swap2\n      sub\n      swap1\n      return\n        /* \"contracts/DegenToken.sol\":847:1008  function redeemTokens(uint256 amount) public {... */\n    tag_19:\n      tag_95\n      0x04\n      dup1\n      calldatasize\n      sub\n      dup2\n      add\n      swap1\n      tag_96\n      swap2\n      swap1\n      tag_51\n      jump\t// in\n    tag_96:\n      tag_97\n      jump\t// in\n    tag_95:\n      stop\n        /* \"@openzeppelin/contracts/token/ERC20/ERC20.sol\":3740:3929  function transfer(address to, uint256 amount) public virtual override returns (bool) {... */\n    tag_20:\n      tag_98\n      0x04\n      dup1\n      calldatasize\n      sub\n      dup2\n      add\n      swap1\n      tag_99\n      swap2\n      swap1\n      tag_36\n      jump\t// in\n    tag_99:\n      tag_100\n      jump\t// in\n    tag_98:\n      mload(0x40)\n      tag_101\n      swap2\n      swap1\n      tag_39\n      jump\t// in\n    tag_101:\n      mload(0x40)\n      dup1\n      swap2\n      sub\n      swap1\n      return\n        /* \"contracts/DegenToken.sol\":668:841  function transferTokens(address to, uint256 amount) public {... */\n    tag_21:\n      tag_102\n      0x04\n      dup1\n      calldatasize\n      sub\n      dup2\n      add\n      swap1\n      tag_103\n      swap2\n      swap1\n      tag_36\n      jump\t// in\n    tag_103:\n      tag_104\n      jump\t// in\n    tag_102:\n      stop\n        /* \"contracts/DegenToken.sol\":1627:1908  function getGameStoreItems() public view returns (GameStoreItem[] memory) {... */\n    tag_22:\n      tag_105\n      tag_106\n      jump\t// in\n    tag_105:\n      mload(0x40)\n      tag_107\n      swap2\n      swap1\n      tag_108\n      jump\t// in\n    tag_107:\n      mload(0x40)\n      dup1\n      swap2\n      sub\n      swap1\n      return\n        /* \"@openzeppelin/contracts/token/ERC20/ERC20.sol\":3987:4136  function allowance(address owner, address spender) public view virtual override returns (uint256) {... */\n    tag_23:\n      tag_109\n      0x04\n      dup1\n      calldatasize\n      sub\n      dup2\n      add\n      swap1\n      tag_110\n      swap2\n      swap1\n      tag_111\n      jump\t// in\n    tag_110:\n      tag_112\n      jump\t// in\n    tag_109:\n      mload(0x40)\n      tag_113\n      swap2\n      swap1\n      tag_45\n      jump\t// in\n    tag_113:\n      mload(0x40)\n      dup1\n      swap2\n      sub\n      swap1\n      return\n        /* \"contracts/DegenToken.sol\":1914:2404  function redeemGameStoreItem(uint256 itemId) public {... */\n    tag_24:\n      tag_114\n      0x04\n      dup1\n      calldatasize\n      sub\n      dup2\n      add\n      swap1\n      tag_115\n      swap2\n      swap1\n      tag_51\n      jump\t// in\n    tag_115:\n      tag_116\n      jump\t// in\n    tag_114:\n      stop\n        /* \"contracts/DegenToken.sol\":549:662  function mintTokens(address recipient, uint256 amount) public onlyOwner {... */\n    tag_25:\n      tag_117\n      0x04\n      dup1\n      calldatasize\n      sub\n      dup2\n      add\n      swap1\n      tag_118\n      swap2\n      swap1\n      tag_36\n      jump\t// in\n    tag_118:\n      tag_119\n      jump\t// in\n    tag_117:\n      stop\n        /* \"@openzeppelin/contracts/access/Ownable.sol\":2074:2272  function transferOwnership(address newOwner) public virtual onlyOwner {... */\n    tag_26:\n      tag_120\n      0x04\n      dup1\n      calldatasize\n      sub\n      dup2\n      add\n      swap1\n      tag_121\n      swap2\n      swap1\n      tag_42\n      jump\t// in\n    tag_121:\n      tag_122\n      jump\t// in\n    tag_120:\n      stop\n        /* \"@openzeppelin/contracts/token/ERC20/ERC20.sol\":2158:2256  function name() public view virtual override returns (string memory) {... */\n    tag_31:\n        /* \"@openzeppelin/contracts/token/ERC20/ERC20.sol\":2212:2225  string memory */\n      0x60\n        /* \"@openzeppelin/contracts/token/ERC20/ERC20.sol\":2244:2249  _name */\n      0x03\n        /* \"@openzeppelin/contracts/token/ERC20/ERC20.sol\":2237:2249  return _name */\n      dup1\n      sload\n      tag_124\n      swap1\n      tag_125\n      jump\t// in\n    tag_124:\n      dup1\n      0x1f\n      add\n      0x20\n      dup1\n      swap2\n      div\n      mul\n      0x20\n      add\n      mload(0x40)\n      swap1\n      dup2\n      add\n      0x40\n      mstore\n      dup1\n      swap3\n      swap2\n      swap1\n      dup2\n      dup2\n      mstore\n      0x20\n      add\n      dup3\n      dup1\n      sload\n      tag_126\n      swap1\n      tag_125\n      jump\t// in\n    tag_126:\n      dup1\n      iszero\n      tag_127\n      jumpi\n      dup1\n      0x1f\n      lt\n      tag_128\n      jumpi\n      0x0100\n      dup1\n      dup4\n      sload\n      div\n      mul\n      dup4\n      mstore\n      swap2\n      0x20\n      add\n      swap2\n      jump(tag_127)\n    tag_128:\n      dup3\n      add\n      swap2\n      swap1\n      0x00\n      mstore\n      keccak256(0x00, 0x20)\n      swap1\n    tag_129:\n      dup2\n      sload\n      dup2\n      mstore\n      swap1\n      0x01\n      add\n      swap1\n      0x20\n      add\n      dup1\n      dup4\n      gt\n      tag_129\n      jumpi\n      dup3\n      swap1\n      sub\n      0x1f\n      and\n      dup3\n      add\n      swap2\n    tag_127:\n      pop\n      pop\n      pop\n      pop\n      pop\n      swap1\n      pop\n        /* \"@openzeppelin/contracts/token/ERC20/ERC20.sol\":2158:2256  function name() public view virtual override returns (string memory) {... */\n      swap1\n      jump\t// out\n        /* \"@openzeppelin/contracts/token/ERC20/ERC20.sol\":4444:4641  function approve(address spender, uint256 amount) public virtual override returns (bool) {... */\n    tag_37:\n        /* \"@openzeppelin/contracts/token/ERC20/ERC20.sol\":4527:4531  bool */\n      0x00\n        /* \"@openzeppelin/contracts/token/ERC20/ERC20.sol\":4543:4556  address owner */\n      dup1\n        /* \"@openzeppelin/contracts/token/ERC20/ERC20.sol\":4559:4571  _msgSender() */\n      tag_131\n        /* \"@openzeppelin/contracts/token/ERC20/ERC20.sol\":4559:4569  _msgSender */\n      tag_132\n        /* \"@openzeppelin/contracts/token/ERC20/ERC20.sol\":4559:4571  _msgSender() */\n      jump\t// in\n    tag_131:\n        /* \"@openzeppelin/contracts/token/ERC20/ERC20.sol\":4543:4571  address owner = _msgSender() */\n      swap1\n      pop\n        /* \"@openzeppelin/contracts/token/ERC20/ERC20.sol\":4581:4613  _approve(owner, spender, amount) */\n      tag_133\n        /* \"@openzeppelin/contracts/token/ERC20/ERC20.sol\":4590:4595  owner */\n      dup2\n        /* \"@openzeppelin/contracts/token/ERC20/ERC20.sol\":4597:4604  spender */\n      dup6\n        /* \"@openzeppelin/contracts/token/ERC20/ERC20.sol\":4606:4612  amount */\n      dup6\n        /* \"@openzeppelin/contracts/token/ERC20/ERC20.sol\":4581:4589  _approve */\n      tag_134\n        /* \"@openzeppelin/contracts/token/ERC20/ERC20.sol\":4581:4613  _approve(owner, spender, amount) */\n      jump\t// in\n    tag_133:\n        /* \"@openzeppelin/contracts/token/ERC20/ERC20.sol\":4630:4634  true */\n      0x01\n        /* \"@openzeppelin/contracts/token/ERC20/ERC20.sol\":4623:4634  return true */\n      swap2\n      pop\n      pop\n        /* \"@openzeppelin/contracts/token/ERC20/ERC20.sol\":4444:4641  function approve(address spender, uint256 amount) public virtual override returns (bool) {... */\n      swap3\n      swap2\n      pop\n      pop\n      jump\t// out\n        /* \"contracts/DegenToken.sol\":1014:1130  function checkTokenBalance(address account) public view returns (uint256) {... */\n    tag_43:\n        /* \"contracts/DegenToken.sol\":1079:1086  uint256 */\n      0x00\n        /* \"contracts/DegenToken.sol\":1105:1123  balanceOf(account) */\n      tag_136\n        /* \"contracts/DegenToken.sol\":1115:1122  account */\n      dup3\n        /* \"contracts/DegenToken.sol\":1105:1114  balanceOf */\n      tag_76\n        /* \"contracts/DegenToken.sol\":1105:1123  balanceOf(account) */\n      jump\t// in\n    tag_136:\n        /* \"contracts/DegenToken.sol\":1098:1123  return balanceOf(account) */\n      swap1\n      pop\n        /* \"contracts/DegenToken.sol\":1014:1130  function checkTokenBalance(address account) public view returns (uint256) {... */\n      swap2\n      swap1\n      pop\n      jump\t// out\n        /* \"@openzeppelin/contracts/token/ERC20/ERC20.sol\":3255:3361  function totalSupply() public view virtual override returns (uint256) {... */\n    tag_47:\n        /* \"@openzeppelin/contracts/token/ERC20/ERC20.sol\":3316:3323  uint256 */\n      0x00\n        /* \"@openzeppelin/contracts/token/ERC20/ERC20.sol\":3342:3354  _totalSupply */\n      sload(0x02)\n        /* \"@openzeppelin/contracts/token/ERC20/ERC20.sol\":3335:3354  return _totalSupply */\n      swap1\n      pop\n        /* \"@openzeppelin/contracts/token/ERC20/ERC20.sol\":3255:3361  function totalSupply() public view virtual override returns (uint256) {... */\n      swap1\n      jump\t// out\n        /* \"contracts/DegenToken.sol\":343:398  mapping(uint256 => GameStoreItem) public gameStoreItems */\n    tag_52:\n      mstore(0x20, 0x06)\n      dup1\n      0x00\n      mstore\n      keccak256(0x00, 0x40)\n      0x00\n      swap2\n      pop\n      swap1\n      pop\n      dup1\n      0x00\n      add\n      dup1\n      sload\n      tag_138\n      swap1\n      tag_125\n      jump\t// in\n    tag_138:\n      dup1\n      0x1f\n      add\n      0x20\n      dup1\n      swap2\n      div\n      mul\n      0x20\n      add\n      mload(0x40)\n      swap1\n      dup2\n      add\n      0x40\n      mstore\n      dup1\n      swap3\n      swap2\n      swap1\n      dup2\n      dup2\n      mstore\n      0x20\n      add\n      dup3\n      dup1\n      sload\n      tag_139\n      swap1\n      tag_125\n      jump\t// in\n    tag_139:\n      dup1\n      iszero\n      tag_140\n      jumpi\n      dup1\n      0x1f\n      lt\n      tag_141\n      jumpi\n      0x0100\n      dup1\n      dup4\n      sload\n      div\n      mul\n      dup4\n      mstore\n      swap2\n      0x20\n      add\n      swap2\n      jump(tag_140)\n    tag_141:\n      dup3\n      add\n      swap2\n      swap1\n      0x00\n      mstore\n      keccak256(0x00, 0x20)\n      swap1\n    tag_142:\n      dup2\n      sload\n      dup2\n      mstore\n      swap1\n      0x01\n      add\n      swap1\n      0x20\n      add\n      dup1\n      dup4\n      gt\n      tag_142\n      jumpi\n      dup3\n      swap1\n      sub\n      0x1f\n      and\n      dup3\n      add\n      swap2\n    tag_140:\n      pop\n      pop\n      pop\n      pop\n      pop\n      swap1\n      dup1\n      0x01\n      add\n      sload\n      swap1\n      dup1\n      0x02\n      add\n      sload\n      swap1\n      pop\n      dup4\n      jump\t// out\n        /* \"@openzeppelin/contracts/token/ERC20/ERC20.sol\":5203:5459  function transferFrom(address from, address to, uint256 amount) public virtual override returns (bool) {... */\n    tag_58:\n        /* \"@openzeppelin/contracts/token/ERC20/ERC20.sol\":5300:5304  bool */\n      0x00\n        /* \"@openzeppelin/contracts/token/ERC20/ERC20.sol\":5316:5331  address spender */\n      dup1\n        /* \"@openzeppelin/contracts/token/ERC20/ERC20.sol\":5334:5346  _msgSender() */\n      tag_144\n        /* \"@openzeppelin/contracts/token/ERC20/ERC20.sol\":5334:5344  _msgSender */\n      tag_132\n        /* \"@openzeppelin/contracts/token/ERC20/ERC20.sol\":5334:5346  _msgSender() */\n      jump\t// in\n    tag_144:\n        /* \"@openzeppelin/contracts/token/ERC20/ERC20.sol\":5316:5346  address spender = _msgSender() */\n      swap1\n      pop\n        /* \"@openzeppelin/contracts/token/ERC20/ERC20.sol\":5356:5394  _spendAllowance(from, spender, amount) */\n      tag_145\n        /* \"@openzeppelin/contracts/token/ERC20/ERC20.sol\":5372:5376  from */\n      dup6\n        /* \"@openzeppelin/contracts/token/ERC20/ERC20.sol\":5378:5385  spender */\n      dup3\n        /* \"@openzeppelin/contracts/token/ERC20/ERC20.sol\":5387:5393  amount */\n      dup6\n        /* \"@openzeppelin/contracts/token/ERC20/ERC20.sol\":5356:5371  _spendAllowance */\n      tag_146\n        /* \"@openzeppelin/contracts/token/ERC20/ERC20.sol\":5356:5394  _spendAllowance(from, spender, amount) */\n      jump\t// in\n    tag_145:\n        /* \"@openzeppelin/contracts/token/ERC20/ERC20.sol\":5404:5431  _transfer(from, to, amount) */\n      tag_147\n        /* \"@openzeppelin/contracts/token/ERC20/ERC20.sol\":5414:5418  from */\n      dup6\n        /* \"@openzeppelin/contracts/token/ERC20/ERC20.sol\":5420:5422  to */\n      dup6\n        /* \"@openzeppelin/contracts/token/ERC20/ERC20.sol\":5424:5430  amount */\n      dup6\n        /* \"@openzeppelin/contracts/token/ERC20/ERC20.sol\":5404:5413  _transfer */\n      tag_148\n        /* \"@openzeppelin/contracts/token/ERC20/ERC20.sol\":5404:5431  _transfer(from, to, amount) */\n      jump\t// in\n    tag_147:\n        /* \"@openzeppelin/contracts/token/ERC20/ERC20.sol\":5448:5452  true */\n      0x01\n        /* \"@openzeppelin/contracts/token/ERC20/ERC20.sol\":5441:5452  return true */\n      swap2\n      pop\n      pop\n        /* \"@openzeppelin/contracts/token/ERC20/ERC20.sol\":5203:5459  function transferFrom(address from, address to, uint256 amount) public virtual override returns (bool) {... */\n      swap4\n      swap3\n      pop\n      pop\n      pop\n      jump\t// out\n        /* \"@openzeppelin/contracts/token/ERC20/ERC20.sol\":3104:3195  function decimals() public view virtual override returns (uint8) {... */\n    tag_61:\n        /* \"@openzeppelin/contracts/token/ERC20/ERC20.sol\":3162:3167  uint8 */\n      0x00\n        /* \"@openzeppelin/contracts/token/ERC20/ERC20.sol\":3186:3188  18 */\n      0x12\n        /* \"@openzeppelin/contracts/token/ERC20/ERC20.sol\":3179:3188  return 18 */\n      swap1\n      pop\n        /* \"@openzeppelin/contracts/token/ERC20/ERC20.sol\":3104:3195  function decimals() public view virtual override returns (uint8) {... */\n      swap1\n      jump\t// out\n        /* \"@openzeppelin/contracts/token/ERC20/ERC20.sol\":5854:6088  function increaseAllowance(address spender, uint256 addedValue) public virtual returns (bool) {... */\n    tag_66:\n        /* \"@openzeppelin/contracts/token/ERC20/ERC20.sol\":5942:5946  bool */\n      0x00\n        /* \"@openzeppelin/contracts/token/ERC20/ERC20.sol\":5958:5971  address owner */\n      dup1\n        /* \"@openzeppelin/contracts/token/ERC20/ERC20.sol\":5974:5986  _msgSender() */\n      tag_151\n        /* \"@openzeppelin/contracts/token/ERC20/ERC20.sol\":5974:5984  _msgSender */\n      tag_132\n        /* \"@openzeppelin/contracts/token/ERC20/ERC20.sol\":5974:5986  _msgSender() */\n      jump\t// in\n    tag_151:\n        /* \"@openzeppelin/contracts/token/ERC20/ERC20.sol\":5958:5986  address owner = _msgSender() */\n      swap1\n      pop\n        /* \"@openzeppelin/contracts/token/ERC20/ERC20.sol\":5996:6060  _approve(owner, spender, allowance(owner, spender) + addedValue) */\n      tag_152\n        /* \"@openzeppelin/contracts/token/ERC20/ERC20.sol\":6005:6010  owner */\n      dup2\n        /* \"@openzeppelin/contracts/token/ERC20/ERC20.sol\":6012:6019  spender */\n      dup6\n        /* \"@openzeppelin/contracts/token/ERC20/ERC20.sol\":6049:6059  addedValue */\n      dup6\n        /* \"@openzeppelin/contracts/token/ERC20/ERC20.sol\":6021:6046  allowance(owner, spender) */\n      tag_153\n        /* \"@openzeppelin/contracts/token/ERC20/ERC20.sol\":6031:6036  owner */\n      dup6\n        /* \"@openzeppelin/contracts/token/ERC20/ERC20.sol\":6038:6045  spender */\n      dup10\n        /* \"@openzeppelin/contracts/token/ERC20/ERC20.sol\":6021:6030  allowance */\n      tag_112\n        /* \"@openzeppelin/contracts/token/ERC20/ERC20.sol\":6021:6046  allowance(owner, spender) */\n      jump\t// in\n    tag_153:\n        /* \"@openzeppelin/contracts/token/ERC20/ERC20.sol\":6021:6059  allowance(owner, spender) + addedValue */\n      tag_154\n      swap2\n      swap1\n      tag_155\n      jump\t// in\n    tag_154:\n        /* \"@openzeppelin/contracts/token/ERC20/ERC20.sol\":5996:6004  _approve */\n      tag_134\n        /* \"@openzeppelin/contracts/token/ERC20/ERC20.sol\":5996:6060  _approve(owner, spender, allowance(owner, spender) + addedValue) */\n      jump\t// in\n    tag_152:\n        /* \"@openzeppelin/contracts/token/ERC20/ERC20.sol\":6077:6081  true */\n      0x01\n        /* \"@openzeppelin/contracts/token/ERC20/ERC20.sol\":6070:6081  return true */\n      swap2\n      pop\n      pop\n        /* \"@openzeppelin/contracts/token/ERC20/ERC20.sol\":5854:6088  function increaseAllowance(address spender, uint256 addedValue) public virtual returns (bool) {... */\n      swap3\n      swap2\n      pop\n      pop\n      jump\t// out\n        /* \"contracts/DegenToken.sol\":404:428  uint256 public itemCount */\n    tag_69:\n      sload(0x07)\n      dup2\n      jump\t// out\n        /* \"contracts/DegenToken.sol\":1136:1295  function burnTokens(uint256 amount) public {... */\n    tag_73:\n        /* \"contracts/DegenToken.sol\":1222:1228  amount */\n      dup1\n        /* \"contracts/DegenToken.sol\":1197:1218  balanceOf(msg.sender) */\n      tag_157\n        /* \"contracts/DegenToken.sol\":1207:1217  msg.sender */\n      caller\n        /* \"contracts/DegenToken.sol\":1197:1206  balanceOf */\n      tag_76\n        /* \"contracts/DegenToken.sol\":1197:1218  balanceOf(msg.sender) */\n      jump\t// in\n    tag_157:\n        /* \"contracts/DegenToken.sol\":1197:1228  balanceOf(msg.sender) >= amount */\n      lt\n      iszero\n        /* \"contracts/DegenToken.sol\":1189:1253  require(balanceOf(msg.sender) >= amount, \"Insufficient balance\") */\n      tag_158\n      jumpi\n      mload(0x40)\n      0x08c379a000000000000000000000000000000000000000000000000000000000\n      dup2\n      mstore\n      0x04\n      add\n      tag_159\n      swap1\n      tag_160\n      jump\t// in\n    tag_159:\n      mload(0x40)\n      dup1\n      swap2\n      sub\n      swap1\n      revert\n    tag_158:\n        /* \"contracts/DegenToken.sol\":1263:1288  _burn(msg.sender, amount) */\n      tag_161\n        /* \"contracts/DegenToken.sol\":1269:1279  msg.sender */\n      caller\n        /* \"contracts/DegenToken.sol\":1281:1287  amount */\n      dup3\n        /* \"contracts/DegenToken.sol\":1263:1268  _burn */\n      tag_162\n        /* \"contracts/DegenToken.sol\":1263:1288  _burn(msg.sender, amount) */\n      jump\t// in\n    tag_161:\n        /* \"contracts/DegenToken.sol\":1136:1295  function burnTokens(uint256 amount) public {... */\n      pop\n      jump\t// out\n        /* \"@openzeppelin/contracts/token/ERC20/ERC20.sol\":3419:3544  function balanceOf(address account) public view virtual override returns (uint256) {... */\n    tag_76:\n        /* \"@openzeppelin/contracts/token/ERC20/ERC20.sol\":3493:3500  uint256 */\n      0x00\n        /* \"@openzeppelin/contracts/token/ERC20/ERC20.sol\":3519:3528  _balances */\n      dup1\n        /* \"@openzeppelin/contracts/token/ERC20/ERC20.sol\":3519:3537  _balances[account] */\n      0x00\n        /* \"@openzeppelin/contracts/token/ERC20/ERC20.sol\":3529:3536  account */\n      dup4\n        /* \"@openzeppelin/contracts/token/ERC20/ERC20.sol\":3519:3537  _balances[account] */\n      0xffffffffffffffffffffffffffffffffffffffff\n      and\n      0xffffffffffffffffffffffffffffffffffffffff\n      and\n      dup2\n      mstore\n      0x20\n      add\n      swap1\n      dup2\n      mstore\n      0x20\n      add\n      0x00\n      keccak256\n      sload\n        /* \"@openzeppelin/contracts/token/ERC20/ERC20.sol\":3512:3537  return _balances[account] */\n      swap1\n      pop\n        /* \"@openzeppelin/contracts/token/ERC20/ERC20.sol\":3419:3544  function balanceOf(address account) public view virtual override returns (uint256) {... */\n      swap2\n      swap1\n      pop\n      jump\t// out\n        /* \"@openzeppelin/contracts/access/Ownable.sol\":1824:1925  function renounceOwnership() public virtual onlyOwner {... */\n    tag_79:\n        /* \"@openzeppelin/contracts/access/Ownable.sol\":1094:1107  _checkOwner() */\n      tag_165\n        /* \"@openzeppelin/contracts/access/Ownable.sol\":1094:1105  _checkOwner */\n      tag_166\n        /* \"@openzeppelin/contracts/access/Ownable.sol\":1094:1107  _checkOwner() */\n      jump\t// in\n    tag_165:\n        /* \"@openzeppelin/contracts/access/Ownable.sol\":1888:1918  _transferOwnership(address(0)) */\n      tag_168\n        /* \"@openzeppelin/contracts/access/Ownable.sol\":1915:1916  0 */\n      0x00\n        /* \"@openzeppelin/contracts/access/Ownable.sol\":1888:1906  _transferOwnership */\n      tag_169\n        /* \"@openzeppelin/contracts/access/Ownable.sol\":1888:1918  _transferOwnership(address(0)) */\n      jump\t// in\n    tag_168:\n        /* \"@openzeppelin/contracts/access/Ownable.sol\":1824:1925  function renounceOwnership() public virtual onlyOwner {... */\n      jump\t// out\n        /* \"@openzeppelin/contracts/access/Ownable.sol\":1201:1286  function owner() public view virtual returns (address) {... */\n    tag_81:\n        /* \"@openzeppelin/contracts/access/Ownable.sol\":1247:1254  address */\n      0x00\n        /* \"@openzeppelin/contracts/access/Ownable.sol\":1273:1279  _owner */\n      0x05\n      0x00\n      swap1\n      sload\n      swap1\n      0x0100\n      exp\n      swap1\n      div\n      0xffffffffffffffffffffffffffffffffffffffff\n      and\n        /* \"@openzeppelin/contracts/access/Ownable.sol\":1266:1279  return _owner */\n      swap1\n      pop\n        /* \"@openzeppelin/contracts/access/Ownable.sol\":1201:1286  function owner() public view virtual returns (address) {... */\n      swap1\n      jump\t// out\n        /* \"@openzeppelin/contracts/token/ERC20/ERC20.sol\":2369:2471  function symbol() public view virtual override returns (string memory) {... */\n    tag_85:\n        /* \"@openzeppelin/contracts/token/ERC20/ERC20.sol\":2425:2438  string memory */\n      0x60\n        /* \"@openzeppelin/contracts/token/ERC20/ERC20.sol\":2457:2464  _symbol */\n      0x04\n        /* \"@openzeppelin/contracts/token/ERC20/ERC20.sol\":2450:2464  return _symbol */\n      dup1\n      sload\n      tag_172\n      swap1\n      tag_125\n      jump\t// in\n    tag_172:\n      dup1\n      0x1f\n      add\n      0x20\n      dup1\n      swap2\n      div\n      mul\n      0x20\n      add\n      mload(0x40)\n      swap1\n      dup2\n      add\n      0x40\n      mstore\n      dup1\n      swap3\n      swap2\n      swap1\n      dup2\n      dup2\n      mstore\n      0x20\n      add\n      dup3\n      dup1\n      sload\n      tag_173\n      swap1\n      tag_125\n      jump\t// in\n    tag_173:\n      dup1\n      iszero\n      tag_174\n      jumpi\n      dup1\n      0x1f\n      lt\n      tag_175\n      jumpi\n      0x0100\n      dup1\n      dup4\n      sload\n      div\n      mul\n      dup4\n      mstore\n      swap2\n      0x20\n      add\n      swap2\n      jump(tag_174)\n    tag_175:\n      dup3\n      add\n      swap2\n      swap1\n      0x00\n      mstore\n      keccak256(0x00, 0x20)\n      swap1\n    tag_176:\n      dup2\n      sload\n      dup2\n      mstore\n      swap1\n      0x01\n      add\n      swap1\n      0x20\n      add\n      dup1\n      dup4\n      gt\n      tag_176\n      jumpi\n      dup3\n      swap1\n      sub\n      0x1f\n      and\n      dup3\n      add\n      swap2\n    tag_174:\n      pop\n      pop\n      pop\n      pop\n      pop\n      swap1\n      pop\n        /* \"@openzeppelin/contracts/token/ERC20/ERC20.sol\":2369:2471  function symbol() public view virtual override returns (string memory) {... */\n      swap1\n      jump\t// out\n        /* \"contracts/DegenToken.sol\":1301:1621  function addGameStoreItem(string memory itemName, uint256 price, uint256 stock) public onlyOwner {... */\n    tag_90:\n        /* \"@openzeppelin/contracts/access/Ownable.sol\":1094:1107  _checkOwner() */\n      tag_178\n        /* \"@openzeppelin/contracts/access/Ownable.sol\":1094:1105  _checkOwner */\n      tag_166\n        /* \"@openzeppelin/contracts/access/Ownable.sol\":1094:1107  _checkOwner() */\n      jump\t// in\n    tag_178:\n        /* \"contracts/DegenToken.sol\":1424:1425  0 */\n      0x00\n        /* \"contracts/DegenToken.sol\":1416:1421  price */\n      dup3\n        /* \"contracts/DegenToken.sol\":1416:1425  price > 0 */\n      gt\n        /* \"contracts/DegenToken.sol\":1408:1458  require(price > 0, \"Price must be greater than 0\") */\n      tag_180\n      jumpi\n      mload(0x40)\n      0x08c379a000000000000000000000000000000000000000000000000000000000\n      dup2\n      mstore\n      0x04\n      add\n      tag_181\n      swap1\n      tag_182\n      jump\t// in\n    tag_181:\n      mload(0x40)\n      dup1\n      swap2\n      sub\n      swap1\n      revert\n    tag_180:\n        /* \"contracts/DegenToken.sol\":1484:1485  0 */\n      0x00\n        /* \"contracts/DegenToken.sol\":1476:1481  stock */\n      dup2\n        /* \"contracts/DegenToken.sol\":1476:1485  stock > 0 */\n      gt\n        /* \"contracts/DegenToken.sol\":1468:1518  require(stock > 0, \"Stock must be greater than 0\") */\n      tag_183\n      jumpi\n      mload(0x40)\n      0x08c379a000000000000000000000000000000000000000000000000000000000\n      dup2\n      mstore\n      0x04\n      add\n      tag_184\n      swap1\n      tag_185\n      jump\t// in\n    tag_184:\n      mload(0x40)\n      dup1\n      swap2\n      sub\n      swap1\n      revert\n    tag_183:\n        /* \"contracts/DegenToken.sol\":1528:1537  itemCount */\n      0x07\n      0x00\n        /* \"contracts/DegenToken.sol\":1528:1539  itemCount++ */\n      dup2\n      sload\n      dup1\n      swap3\n      swap2\n      swap1\n      tag_186\n      swap1\n      tag_187\n      jump\t// in\n    tag_186:\n      swap2\n      swap1\n      pop\n      sstore\n      pop\n        /* \"contracts/DegenToken.sol\":1577:1614  GameStoreItem(itemName, price, stock) */\n      mload(0x40)\n      dup1\n      0x60\n      add\n      0x40\n      mstore\n      dup1\n        /* \"contracts/DegenToken.sol\":1591:1599  itemName */\n      dup5\n        /* \"contracts/DegenToken.sol\":1577:1614  GameStoreItem(itemName, price, stock) */\n      dup2\n      mstore\n      0x20\n      add\n        /* \"contracts/DegenToken.sol\":1601:1606  price */\n      dup4\n        /* \"contracts/DegenToken.sol\":1577:1614  GameStoreItem(itemName, price, stock) */\n      dup2\n      mstore\n      0x20\n      add\n        /* \"contracts/DegenToken.sol\":1608:1613  stock */\n      dup3\n        /* \"contracts/DegenToken.sol\":1577:1614  GameStoreItem(itemName, price, stock) */\n      dup2\n      mstore\n      pop\n        /* \"contracts/DegenToken.sol\":1549:1563  gameStoreItems */\n      0x06\n        /* \"contracts/DegenToken.sol\":1549:1574  gameStoreItems[itemCount] */\n      0x00\n        /* \"contracts/DegenToken.sol\":1564:1573  itemCount */\n      sload(0x07)\n        /* \"contracts/DegenToken.sol\":1549:1574  gameStoreItems[itemCount] */\n      dup2\n      mstore\n      0x20\n      add\n      swap1\n      dup2\n      mstore\n      0x20\n      add\n      0x00\n      keccak256\n        /* \"contracts/DegenToken.sol\":1549:1614  gameStoreItems[itemCount] = GameStoreItem(itemName, price, stock) */\n      0x00\n      dup3\n      add\n      mload\n      dup2\n      0x00\n      add\n      swap1\n      dup2\n      tag_188\n      swap2\n      swap1\n      tag_189\n      jump\t// in\n    tag_188:\n      pop\n      0x20\n      dup3\n      add\n      mload\n      dup2\n      0x01\n      add\n      sstore\n      0x40\n      dup3\n      add\n      mload\n      dup2\n      0x02\n      add\n      sstore\n      swap1\n      pop\n      pop\n        /* \"contracts/DegenToken.sol\":1301:1621  function addGameStoreItem(string memory itemName, uint256 price, uint256 stock) public onlyOwner {... */\n      pop\n      pop\n      pop\n      jump\t// out\n        /* \"@openzeppelin/contracts/token/ERC20/ERC20.sol\":6575:7002  function decreaseAllowance(address spender, uint256 subtractedValue) public virtual returns (bool) {... */\n    tag_93:\n        /* \"@openzeppelin/contracts/token/ERC20/ERC20.sol\":6668:6672  bool */\n      0x00\n        /* \"@openzeppelin/contracts/token/ERC20/ERC20.sol\":6684:6697  address owner */\n      dup1\n        /* \"@openzeppelin/contracts/token/ERC20/ERC20.sol\":6700:6712  _msgSender() */\n      tag_191\n        /* \"@openzeppelin/contracts/token/ERC20/ERC20.sol\":6700:6710  _msgSender */\n      tag_132\n        /* \"@openzeppelin/contracts/token/ERC20/ERC20.sol\":6700:6712  _msgSender() */\n      jump\t// in\n    tag_191:\n        /* \"@openzeppelin/contracts/token/ERC20/ERC20.sol\":6684:6712  address owner = _msgSender() */\n      swap1\n      pop\n        /* \"@openzeppelin/contracts/token/ERC20/ERC20.sol\":6722:6746  uint256 currentAllowance */\n      0x00\n        /* \"@openzeppelin/contracts/token/ERC20/ERC20.sol\":6749:6774  allowance(owner, spender) */\n      tag_192\n        /* \"@openzeppelin/contracts/token/ERC20/ERC20.sol\":6759:6764  owner */\n      dup3\n        /* \"@openzeppelin/contracts/token/ERC20/ERC20.sol\":6766:6773  spender */\n      dup7\n        /* \"@openzeppelin/contracts/token/ERC20/ERC20.sol\":6749:6758  allowance */\n      tag_112\n        /* \"@openzeppelin/contracts/token/ERC20/ERC20.sol\":6749:6774  allowance(owner, spender) */\n      jump\t// in\n    tag_192:\n        /* \"@openzeppelin/contracts/token/ERC20/ERC20.sol\":6722:6774  uint256 currentAllowance = allowance(owner, spender) */\n      swap1\n      pop\n        /* \"@openzeppelin/contracts/token/ERC20/ERC20.sol\":6812:6827  subtractedValue */\n      dup4\n        /* \"@openzeppelin/contracts/token/ERC20/ERC20.sol\":6792:6808  currentAllowance */\n      dup2\n        /* \"@openzeppelin/contracts/token/ERC20/ERC20.sol\":6792:6827  currentAllowance >= subtractedValue */\n      lt\n      iszero\n        /* \"@openzeppelin/contracts/token/ERC20/ERC20.sol\":6784:6869  require(currentAllowance >= subtractedValue, \"ERC20: decreased allowance below zero\") */\n      tag_193\n      jumpi\n      mload(0x40)\n      0x08c379a000000000000000000000000000000000000000000000000000000000\n      dup2\n      mstore\n      0x04\n      add\n      tag_194\n      swap1\n      tag_195\n      jump\t// in\n    tag_194:\n      mload(0x40)\n      dup1\n      swap2\n      sub\n      swap1\n      revert\n    tag_193:\n        /* \"@openzeppelin/contracts/token/ERC20/ERC20.sol\":6903:6963  _approve(owner, spender, currentAllowance - subtractedValue) */\n      tag_196\n        /* \"@openzeppelin/contracts/token/ERC20/ERC20.sol\":6912:6917  owner */\n      dup3\n        /* \"@openzeppelin/contracts/token/ERC20/ERC20.sol\":6919:6926  spender */\n      dup7\n        /* \"@openzeppelin/contracts/token/ERC20/ERC20.sol\":6947:6962  subtractedValue */\n      dup7\n        /* \"@openzeppelin/contracts/token/ERC20/ERC20.sol\":6928:6944  currentAllowance */\n      dup5\n        /* \"@openzeppelin/contracts/token/ERC20/ERC20.sol\":6928:6962  currentAllowance - subtractedValue */\n      sub\n        /* \"@openzeppelin/contracts/token/ERC20/ERC20.sol\":6903:6911  _approve */\n      tag_134\n        /* \"@openzeppelin/contracts/token/ERC20/ERC20.sol\":6903:6963  _approve(owner, spender, currentAllowance - subtractedValue) */\n      jump\t// in\n    tag_196:\n        /* \"@openzeppelin/contracts/token/ERC20/ERC20.sol\":6991:6995  true */\n      0x01\n        /* \"@openzeppelin/contracts/token/ERC20/ERC20.sol\":6984:6995  return true */\n      swap3\n      pop\n      pop\n      pop\n        /* \"@openzeppelin/contracts/token/ERC20/ERC20.sol\":6575:7002  function decreaseAllowance(address spender, uint256 subtractedValue) public virtual returns (bool) {... */\n      swap3\n      swap2\n      pop\n      pop\n      jump\t// out\n        /* \"contracts/DegenToken.sol\":847:1008  function redeemTokens(uint256 amount) public {... */\n    tag_97:\n        /* \"contracts/DegenToken.sol\":935:941  amount */\n      dup1\n        /* \"contracts/DegenToken.sol\":910:931  balanceOf(msg.sender) */\n      tag_198\n        /* \"contracts/DegenToken.sol\":920:930  msg.sender */\n      caller\n        /* \"contracts/DegenToken.sol\":910:919  balanceOf */\n      tag_76\n        /* \"contracts/DegenToken.sol\":910:931  balanceOf(msg.sender) */\n      jump\t// in\n    tag_198:\n        /* \"contracts/DegenToken.sol\":910:941  balanceOf(msg.sender) >= amount */\n      lt\n      iszero\n        /* \"contracts/DegenToken.sol\":902:966  require(balanceOf(msg.sender) >= amount, \"Insufficient balance\") */\n      tag_199\n      jumpi\n      mload(0x40)\n      0x08c379a000000000000000000000000000000000000000000000000000000000\n      dup2\n      mstore\n      0x04\n      add\n      tag_200\n      swap1\n      tag_160\n      jump\t// in\n    tag_200:\n      mload(0x40)\n      dup1\n      swap2\n      sub\n      swap1\n      revert\n    tag_199:\n        /* \"contracts/DegenToken.sol\":976:1001  _burn(msg.sender, amount) */\n      tag_201\n        /* \"contracts/DegenToken.sol\":982:992  msg.sender */\n      caller\n        /* \"contracts/DegenToken.sol\":994:1000  amount */\n      dup3\n        /* \"contracts/DegenToken.sol\":976:981  _burn */\n      tag_162\n        /* \"contracts/DegenToken.sol\":976:1001  _burn(msg.sender, amount) */\n      jump\t// in\n    tag_201:\n        /* \"contracts/DegenToken.sol\":847:1008  function redeemTokens(uint256 amount) public {... */\n      pop\n      jump\t// out\n        /* \"@openzeppelin/contracts/token/ERC20/ERC20.sol\":3740:3929  function transfer(address to, uint256 amount) public virtual override returns (bool) {... */\n    tag_100:\n        /* \"@openzeppelin/contracts/token/ERC20/ERC20.sol\":3819:3823  bool */\n      0x00\n        /* \"@openzeppelin/contracts/token/ERC20/ERC20.sol\":3835:3848  address owner */\n      dup1\n        /* \"@openzeppelin/contracts/token/ERC20/ERC20.sol\":3851:3863  _msgSender() */\n      tag_203\n        /* \"@openzeppelin/contracts/token/ERC20/ERC20.sol\":3851:3861  _msgSender */\n      tag_132\n        /* \"@openzeppelin/contracts/token/ERC20/ERC20.sol\":3851:3863  _msgSender() */\n      jump\t// in\n    tag_203:\n        /* \"@openzeppelin/contracts/token/ERC20/ERC20.sol\":3835:3863  address owner = _msgSender() */\n      swap1\n      pop\n        /* \"@openzeppelin/contracts/token/ERC20/ERC20.sol\":3873:3901  _transfer(owner, to, amount) */\n      tag_204\n        /* \"@openzeppelin/contracts/token/ERC20/ERC20.sol\":3883:3888  owner */\n      dup2\n        /* \"@openzeppelin/contracts/token/ERC20/ERC20.sol\":3890:3892  to */\n      dup6\n        /* \"@openzeppelin/contracts/token/ERC20/ERC20.sol\":3894:3900  amount */\n      dup6\n        /* \"@openzeppelin/contracts/token/ERC20/ERC20.sol\":3873:3882  _transfer */\n      tag_148\n        /* \"@openzeppelin/contracts/token/ERC20/ERC20.sol\":3873:3901  _transfer(owner, to, amount) */\n      jump\t// in\n    tag_204:\n        /* \"@openzeppelin/contracts/token/ERC20/ERC20.sol\":3918:3922  true */\n      0x01\n        /* \"@openzeppelin/contracts/token/ERC20/ERC20.sol\":3911:3922  return true */\n      swap2\n      pop\n      pop\n        /* \"@openzeppelin/contracts/token/ERC20/ERC20.sol\":3740:3929  function transfer(address to, uint256 amount) public virtual override returns (bool) {... */\n      swap3\n      swap2\n      pop\n      pop\n      jump\t// out\n        /* \"contracts/DegenToken.sol\":668:841  function transferTokens(address to, uint256 amount) public {... */\n    tag_104:\n        /* \"contracts/DegenToken.sol\":759:760  0 */\n      0x00\n        /* \"contracts/DegenToken.sol\":745:761  to != address(0) */\n      0xffffffffffffffffffffffffffffffffffffffff\n      and\n        /* \"contracts/DegenToken.sol\":745:747  to */\n      dup3\n        /* \"contracts/DegenToken.sol\":745:761  to != address(0) */\n      0xffffffffffffffffffffffffffffffffffffffff\n      and\n      sub\n        /* \"contracts/DegenToken.sol\":737:791  require(to != address(0), \"Invalid recipient address\") */\n      tag_206\n      jumpi\n      mload(0x40)\n      0x08c379a000000000000000000000000000000000000000000000000000000000\n      dup2\n      mstore\n      0x04\n      add\n      tag_207\n      swap1\n      tag_208\n      jump\t// in\n    tag_207:\n      mload(0x40)\n      dup1\n      swap2\n      sub\n      swap1\n      revert\n    tag_206:\n        /* \"contracts/DegenToken.sol\":801:834  _transfer(msg.sender, to, amount) */\n      tag_209\n        /* \"contracts/DegenToken.sol\":811:821  msg.sender */\n      caller\n        /* \"contracts/DegenToken.sol\":823:825  to */\n      dup4\n        /* \"contracts/DegenToken.sol\":827:833  amount */\n      dup4\n        /* \"contracts/DegenToken.sol\":801:810  _transfer */\n      tag_148\n        /* \"contracts/DegenToken.sol\":801:834  _transfer(msg.sender, to, amount) */\n      jump\t// in\n    tag_209:\n        /* \"contracts/DegenToken.sol\":668:841  function transferTokens(address to, uint256 amount) public {... */\n      pop\n      pop\n      jump\t// out\n        /* \"contracts/DegenToken.sol\":1627:1908  function getGameStoreItems() public view returns (GameStoreItem[] memory) {... */\n    tag_106:\n        /* \"contracts/DegenToken.sol\":1677:1699  GameStoreItem[] memory */\n      0x60\n        /* \"contracts/DegenToken.sol\":1711:1739  GameStoreItem[] memory items */\n      0x00\n        /* \"contracts/DegenToken.sol\":1762:1771  itemCount */\n      sload(0x07)\n        /* \"contracts/DegenToken.sol\":1742:1772  new GameStoreItem[](itemCount) */\n      0xffffffffffffffff\n      dup2\n      gt\n      iszero\n      tag_211\n      jumpi\n      tag_212\n      tag_213\n      jump\t// in\n    tag_212:\n    tag_211:\n      mload(0x40)\n      swap1\n      dup1\n      dup3\n      mstore\n      dup1\n      0x20\n      mul\n      0x20\n      add\n      dup3\n      add\n      0x40\n      mstore\n      dup1\n      iszero\n      tag_214\n      jumpi\n      dup2\n      0x20\n      add\n    tag_215:\n      tag_216\n      tag_217\n      jump\t// in\n    tag_216:\n      dup2\n      mstore\n      0x20\n      add\n      swap1\n      0x01\n      swap1\n      sub\n      swap1\n      dup2\n      tag_215\n      jumpi\n      swap1\n      pop\n    tag_214:\n      pop\n        /* \"contracts/DegenToken.sol\":1711:1772  GameStoreItem[] memory items = new GameStoreItem[](itemCount) */\n      swap1\n      pop\n        /* \"contracts/DegenToken.sol\":1787:1796  uint256 i */\n      0x00\n        /* \"contracts/DegenToken.sol\":1799:1800  1 */\n      0x01\n        /* \"contracts/DegenToken.sol\":1787:1800  uint256 i = 1 */\n      swap1\n      pop\n        /* \"contracts/DegenToken.sol\":1782:1880  for (uint256 i = 1; i <= itemCount; i++) {... */\n    tag_218:\n        /* \"contracts/DegenToken.sol\":1807:1816  itemCount */\n      sload(0x07)\n        /* \"contracts/DegenToken.sol\":1802:1803  i */\n      dup2\n        /* \"contracts/DegenToken.sol\":1802:1816  i <= itemCount */\n      gt\n        /* \"contracts/DegenToken.sol\":1782:1880  for (uint256 i = 1; i <= itemCount; i++) {... */\n      tag_219\n      jumpi\n        /* \"contracts/DegenToken.sol\":1852:1866  gameStoreItems */\n      0x06\n        /* \"contracts/DegenToken.sol\":1852:1869  gameStoreItems[i] */\n      0x00\n        /* \"contracts/DegenToken.sol\":1867:1868  i */\n      dup3\n        /* \"contracts/DegenToken.sol\":1852:1869  gameStoreItems[i] */\n      dup2\n      mstore\n      0x20\n      add\n      swap1\n      dup2\n      mstore\n      0x20\n      add\n      0x00\n      keccak256\n        /* \"contracts/DegenToken.sol\":1837:1869  items[i - 1] = gameStoreItems[i] */\n      mload(0x40)\n      dup1\n      0x60\n      add\n      0x40\n      mstore\n      swap1\n      dup2\n      0x00\n      dup3\n      add\n      dup1\n      sload\n      tag_221\n      swap1\n      tag_125\n      jump\t// in\n    tag_221:\n      dup1\n      0x1f\n      add\n      0x20\n      dup1\n      swap2\n      div\n      mul\n      0x20\n      add\n      mload(0x40)\n      swap1\n      dup2\n      add\n      0x40\n      mstore\n      dup1\n      swap3\n      swap2\n      swap1\n      dup2\n      dup2\n      mstore\n      0x20\n      add\n      dup3\n      dup1\n      sload\n      tag_222\n      swap1\n      tag_125\n      jump\t// in\n    tag_222:\n      dup1\n      iszero\n      tag_223\n      jumpi\n      dup1\n      0x1f\n      lt\n      tag_224\n      jumpi\n      0x0100\n      dup1\n      dup4\n      sload\n      div\n      mul\n      dup4\n      mstore\n      swap2\n      0x20\n      add\n      swap2\n      jump(tag_223)\n    tag_224:\n      dup3\n      add\n      swap2\n      swap1\n      0x00\n      mstore\n      keccak256(0x00, 0x20)\n      swap1\n    tag_225:\n      dup2\n      sload\n      dup2\n      mstore\n      swap1\n      0x01\n      add\n      swap1\n      0x20\n      add\n      dup1\n      dup4\n      gt\n      tag_225\n      jumpi\n      dup3\n      swap1\n      sub\n      0x1f\n      and\n      dup3\n      add\n      swap2\n    tag_223:\n      pop\n      pop\n      pop\n      pop\n      pop\n      dup2\n      mstore\n      0x20\n      add\n      0x01\n      dup3\n      add\n      sload\n      dup2\n      mstore\n      0x20\n      add\n      0x02\n      dup3\n      add\n      sload\n      dup2\n      mstore\n      pop\n      pop\n        /* \"contracts/DegenToken.sol\":1837:1842  items */\n      dup3\n        /* \"contracts/DegenToken.sol\":1847:1848  1 */\n      0x01\n        /* \"contracts/DegenToken.sol\":1843:1844  i */\n      dup4\n        /* \"contracts/DegenToken.sol\":1843:1848  i - 1 */\n      tag_226\n      swap2\n      swap1\n      tag_227\n      jump\t// in\n    tag_226:\n        /* \"contracts/DegenToken.sol\":1837:1849  items[i - 1] */\n      dup2\n      mload\n      dup2\n      lt\n      tag_228\n      jumpi\n      tag_229\n      tag_230\n      jump\t// in\n    tag_229:\n    tag_228:\n      0x20\n      mul\n      0x20\n      add\n      add\n        /* \"contracts/DegenToken.sol\":1837:1869  items[i - 1] = gameStoreItems[i] */\n      dup2\n      swap1\n      mstore\n      pop\n        /* \"contracts/DegenToken.sol\":1818:1821  i++ */\n      dup1\n      dup1\n      tag_231\n      swap1\n      tag_187\n      jump\t// in\n    tag_231:\n      swap2\n      pop\n      pop\n        /* \"contracts/DegenToken.sol\":1782:1880  for (uint256 i = 1; i <= itemCount; i++) {... */\n      jump(tag_218)\n    tag_219:\n      pop\n        /* \"contracts/DegenToken.sol\":1896:1901  items */\n      dup1\n        /* \"contracts/DegenToken.sol\":1889:1901  return items */\n      swap2\n      pop\n      pop\n        /* \"contracts/DegenToken.sol\":1627:1908  function getGameStoreItems() public view returns (GameStoreItem[] memory) {... */\n      swap1\n      jump\t// out\n        /* \"@openzeppelin/contracts/token/ERC20/ERC20.sol\":3987:4136  function allowance(address owner, address spender) public view virtual override returns (uint256) {... */\n    tag_112:\n        /* \"@openzeppelin/contracts/token/ERC20/ERC20.sol\":4076:4083  uint256 */\n      0x00\n        /* \"@openzeppelin/contracts/token/ERC20/ERC20.sol\":4102:4113  _allowances */\n      0x01\n        /* \"@openzeppelin/contracts/token/ERC20/ERC20.sol\":4102:4120  _allowances[owner] */\n      0x00\n        /* \"@openzeppelin/contracts/token/ERC20/ERC20.sol\":4114:4119  owner */\n      dup5\n        /* \"@openzeppelin/contracts/token/ERC20/ERC20.sol\":4102:4120  _allowances[owner] */\n      0xffffffffffffffffffffffffffffffffffffffff\n      and\n      0xffffffffffffffffffffffffffffffffffffffff\n      and\n      dup2\n      mstore\n      0x20\n      add\n      swap1\n      dup2\n      mstore\n      0x20\n      add\n      0x00\n      keccak256\n        /* \"@openzeppelin/contracts/token/ERC20/ERC20.sol\":4102:4129  _allowances[owner][spender] */\n      0x00\n        /* \"@openzeppelin/contracts/token/ERC20/ERC20.sol\":4121:4128  spender */\n      dup4\n        /* \"@openzeppelin/contracts/token/ERC20/ERC20.sol\":4102:4129  _allowances[owner][spender] */\n      0xffffffffffffffffffffffffffffffffffffffff\n      and\n      0xffffffffffffffffffffffffffffffffffffffff\n      and\n      dup2\n      mstore\n      0x20\n      add\n      swap1\n      dup2\n      mstore\n      0x20\n      add\n      0x00\n      keccak256\n      sload\n        /* \"@openzeppelin/contracts/token/ERC20/ERC20.sol\":4095:4129  return _allowances[owner][spender] */\n      swap1\n      pop\n        /* \"@openzeppelin/contracts/token/ERC20/ERC20.sol\":3987:4136  function allowance(address owner, address spender) public view virtual override returns (uint256) {... */\n      swap3\n      swap2\n      pop\n      pop\n      jump\t// out\n        /* \"contracts/DegenToken.sol\":1914:2404  function redeemGameStoreItem(uint256 itemId) public {... */\n    tag_116:\n        /* \"contracts/DegenToken.sol\":1993:1994  0 */\n      0x00\n        /* \"contracts/DegenToken.sol\":1984:1990  itemId */\n      dup2\n        /* \"contracts/DegenToken.sol\":1984:1994  itemId > 0 */\n      gt\n        /* \"contracts/DegenToken.sol\":1984:2017  itemId > 0 && itemId <= itemCount */\n      dup1\n      iszero\n      tag_234\n      jumpi\n      pop\n        /* \"contracts/DegenToken.sol\":2008:2017  itemCount */\n      sload(0x07)\n        /* \"contracts/DegenToken.sol\":1998:2004  itemId */\n      dup2\n        /* \"contracts/DegenToken.sol\":1998:2017  itemId <= itemCount */\n      gt\n      iszero\n        /* \"contracts/DegenToken.sol\":1984:2017  itemId > 0 && itemId <= itemCount */\n    tag_234:\n        /* \"contracts/DegenToken.sol\":1976:2037  require(itemId > 0 && itemId <= itemCount, \"Invalid item ID\") */\n      tag_235\n      jumpi\n      mload(0x40)\n      0x08c379a000000000000000000000000000000000000000000000000000000000\n      dup2\n      mstore\n      0x04\n      add\n      tag_236\n      swap1\n      tag_237\n      jump\t// in\n    tag_236:\n      mload(0x40)\n      dup1\n      swap2\n      sub\n      swap1\n      revert\n    tag_235:\n        /* \"contracts/DegenToken.sol\":2047:2073  GameStoreItem storage item */\n      0x00\n        /* \"contracts/DegenToken.sol\":2076:2090  gameStoreItems */\n      0x06\n        /* \"contracts/DegenToken.sol\":2076:2098  gameStoreItems[itemId] */\n      0x00\n        /* \"contracts/DegenToken.sol\":2091:2097  itemId */\n      dup4\n        /* \"contracts/DegenToken.sol\":2076:2098  gameStoreItems[itemId] */\n      dup2\n      mstore\n      0x20\n      add\n      swap1\n      dup2\n      mstore\n      0x20\n      add\n      0x00\n      keccak256\n        /* \"contracts/DegenToken.sol\":2047:2098  GameStoreItem storage item = gameStoreItems[itemId] */\n      swap1\n      pop\n        /* \"contracts/DegenToken.sol\":2129:2130  0 */\n      0x00\n        /* \"contracts/DegenToken.sol\":2116:2120  item */\n      dup2\n        /* \"contracts/DegenToken.sol\":2116:2126  item.stock */\n      0x02\n      add\n      sload\n        /* \"contracts/DegenToken.sol\":2116:2130  item.stock > 0 */\n      gt\n        /* \"contracts/DegenToken.sol\":2108:2152  require(item.stock > 0, \"Item out of stock\") */\n      tag_238\n      jumpi\n      mload(0x40)\n      0x08c379a000000000000000000000000000000000000000000000000000000000\n      dup2\n      mstore\n      0x04\n      add\n      tag_239\n      swap1\n      tag_240\n      jump\t// in\n    tag_239:\n      mload(0x40)\n      dup1\n      swap2\n      sub\n      swap1\n      revert\n    tag_238:\n        /* \"contracts/DegenToken.sol\":2195:2199  item */\n      dup1\n        /* \"contracts/DegenToken.sol\":2195:2205  item.price */\n      0x01\n      add\n      sload\n        /* \"contracts/DegenToken.sol\":2170:2191  balanceOf(msg.sender) */\n      tag_241\n        /* \"contracts/DegenToken.sol\":2180:2190  msg.sender */\n      caller\n        /* \"contracts/DegenToken.sol\":2170:2179  balanceOf */\n      tag_76\n        /* \"contracts/DegenToken.sol\":2170:2191  balanceOf(msg.sender) */\n      jump\t// in\n    tag_241:\n        /* \"contracts/DegenToken.sol\":2170:2205  balanceOf(msg.sender) >= item.price */\n      lt\n      iszero\n        /* \"contracts/DegenToken.sol\":2162:2230  require(balanceOf(msg.sender) >= item.price, \"Insufficient balance\") */\n      tag_242\n      jumpi\n      mload(0x40)\n      0x08c379a000000000000000000000000000000000000000000000000000000000\n      dup2\n      mstore\n      0x04\n      add\n      tag_243\n      swap1\n      tag_160\n      jump\t// in\n    tag_243:\n      mload(0x40)\n      dup1\n      swap2\n      sub\n      swap1\n      revert\n    tag_242:\n        /* \"contracts/DegenToken.sol\":2241:2283  _transfer(msg.sender, owner(), item.price) */\n      tag_244\n        /* \"contracts/DegenToken.sol\":2251:2261  msg.sender */\n      caller\n        /* \"contracts/DegenToken.sol\":2263:2270  owner() */\n      tag_245\n        /* \"contracts/DegenToken.sol\":2263:2268  owner */\n      tag_81\n        /* \"contracts/DegenToken.sol\":2263:2270  owner() */\n      jump\t// in\n    tag_245:\n        /* \"contracts/DegenToken.sol\":2272:2276  item */\n      dup4\n        /* \"contracts/DegenToken.sol\":2272:2282  item.price */\n      0x01\n      add\n      sload\n        /* \"contracts/DegenToken.sol\":2241:2250  _transfer */\n      tag_148\n        /* \"contracts/DegenToken.sol\":2241:2283  _transfer(msg.sender, owner(), item.price) */\n      jump\t// in\n    tag_244:\n        /* \"contracts/DegenToken.sol\":2321:2350  _burn(msg.sender, item.price) */\n      tag_246\n        /* \"contracts/DegenToken.sol\":2327:2337  msg.sender */\n      caller\n        /* \"contracts/DegenToken.sol\":2339:2343  item */\n      dup3\n        /* \"contracts/DegenToken.sol\":2339:2349  item.price */\n      0x01\n      add\n      sload\n        /* \"contracts/DegenToken.sol\":2321:2326  _burn */\n      tag_162\n        /* \"contracts/DegenToken.sol\":2321:2350  _burn(msg.sender, item.price) */\n      jump\t// in\n    tag_246:\n        /* \"contracts/DegenToken.sol\":2385:2389  item */\n      dup1\n        /* \"contracts/DegenToken.sol\":2385:2395  item.stock */\n      0x02\n      add\n      0x00\n        /* \"contracts/DegenToken.sol\":2385:2397  item.stock-- */\n      dup2\n      sload\n      dup1\n      swap3\n      swap2\n      swap1\n      tag_247\n      swap1\n      tag_248\n      jump\t// in\n    tag_247:\n      swap2\n      swap1\n      pop\n      sstore\n      pop\n        /* \"contracts/DegenToken.sol\":1966:2404  {... */\n      pop\n        /* \"contracts/DegenToken.sol\":1914:2404  function redeemGameStoreItem(uint256 itemId) public {... */\n      pop\n      jump\t// out\n        /* \"contracts/DegenToken.sol\":549:662  function mintTokens(address recipient, uint256 amount) public onlyOwner {... */\n    tag_119:\n        /* \"@openzeppelin/contracts/access/Ownable.sol\":1094:1107  _checkOwner() */\n      tag_250\n        /* \"@openzeppelin/contracts/access/Ownable.sol\":1094:1105  _checkOwner */\n      tag_166\n        /* \"@openzeppelin/contracts/access/Ownable.sol\":1094:1107  _checkOwner() */\n      jump\t// in\n    tag_250:\n        /* \"contracts/DegenToken.sol\":631:655  _mint(recipient, amount) */\n      tag_252\n        /* \"contracts/DegenToken.sol\":637:646  recipient */\n      dup3\n        /* \"contracts/DegenToken.sol\":648:654  amount */\n      dup3\n        /* \"contracts/DegenToken.sol\":631:636  _mint */\n      tag_253\n        /* \"contracts/DegenToken.sol\":631:655  _mint(recipient, amount) */\n      jump\t// in\n    tag_252:\n        /* \"contracts/DegenToken.sol\":549:662  function mintTokens(address recipient, uint256 amount) public onlyOwner {... */\n      pop\n      pop\n      jump\t// out\n        /* \"@openzeppelin/contracts/access/Ownable.sol\":2074:2272  function transferOwnership(address newOwner) public virtual onlyOwner {... */\n    tag_122:\n        /* \"@openzeppelin/contracts/access/Ownable.sol\":1094:1107  _checkOwner() */\n      tag_255\n        /* \"@openzeppelin/contracts/access/Ownable.sol\":1094:1105  _checkOwner */\n      tag_166\n        /* \"@openzeppelin/contracts/access/Ownable.sol\":1094:1107  _checkOwner() */\n      jump\t// in\n    tag_255:\n        /* \"@openzeppelin/contracts/access/Ownable.sol\":2182:2183  0 */\n      0x00\n        /* \"@openzeppelin/contracts/access/Ownable.sol\":2162:2184  newOwner != address(0) */\n      0xffffffffffffffffffffffffffffffffffffffff\n      and\n        /* \"@openzeppelin/contracts/access/Ownable.sol\":2162:2170  newOwner */\n      dup2\n        /* \"@openzeppelin/contracts/access/Ownable.sol\":2162:2184  newOwner != address(0) */\n      0xffffffffffffffffffffffffffffffffffffffff\n      and\n      sub\n        /* \"@openzeppelin/contracts/access/Ownable.sol\":2154:2227  require(newOwner != address(0), \"Ownable: new owner is the zero address\") */\n      tag_257\n      jumpi\n      mload(0x40)\n      0x08c379a000000000000000000000000000000000000000000000000000000000\n      dup2\n      mstore\n      0x04\n      add\n      tag_258\n      swap1\n      tag_259\n      jump\t// in\n    tag_258:\n      mload(0x40)\n      dup1\n      swap2\n      sub\n      swap1\n      revert\n    tag_257:\n        /* \"@openzeppelin/contracts/access/Ownable.sol\":2237:2265  _transferOwnership(newOwner) */\n      tag_260\n        /* \"@openzeppelin/contracts/access/Ownable.sol\":2256:2264  newOwner */\n      dup2\n        /* \"@openzeppelin/contracts/access/Ownable.sol\":2237:2255  _transferOwnership */\n      tag_169\n        /* \"@openzeppelin/contracts/access/Ownable.sol\":2237:2265  _transferOwnership(newOwner) */\n      jump\t// in\n    tag_260:\n        /* \"@openzeppelin/contracts/access/Ownable.sol\":2074:2272  function transferOwnership(address newOwner) public virtual onlyOwner {... */\n      pop\n      jump\t// out\n        /* \"@openzeppelin/contracts/utils/Context.sol\":640:736  function _msgSender() internal view virtual returns (address) {... */\n    tag_132:\n        /* \"@openzeppelin/contracts/utils/Context.sol\":693:700  address */\n      0x00\n        /* \"@openzeppelin/contracts/utils/Context.sol\":719:729  msg.sender */\n      caller\n        /* \"@openzeppelin/contracts/utils/Context.sol\":712:729  return msg.sender */\n      swap1\n      pop\n        /* \"@openzeppelin/contracts/utils/Context.sol\":640:736  function _msgSender() internal view virtual returns (address) {... */\n      swap1\n      jump\t// out\n        /* \"@openzeppelin/contracts/token/ERC20/ERC20.sol\":10457:10797  function _approve(address owner, address spender, uint256 amount) internal virtual {... */\n    tag_134:\n        /* \"@openzeppelin/contracts/token/ERC20/ERC20.sol\":10575:10576  0 */\n      0x00\n        /* \"@openzeppelin/contracts/token/ERC20/ERC20.sol\":10558:10577  owner != address(0) */\n      0xffffffffffffffffffffffffffffffffffffffff\n      and\n        /* \"@openzeppelin/contracts/token/ERC20/ERC20.sol\":10558:10563  owner */\n      dup4\n        /* \"@openzeppelin/contracts/token/ERC20/ERC20.sol\":10558:10577  owner != address(0) */\n      0xffffffffffffffffffffffffffffffffffffffff\n      and\n      sub\n        /* \"@openzeppelin/contracts/token/ERC20/ERC20.sol\":10550:10618  require(owner != address(0), \"ERC20: approve from the zero address\") */\n      tag_263\n      jumpi\n      mload(0x40)\n      0x08c379a000000000000000000000000000000000000000000000000000000000\n      dup2\n      mstore\n      0x04\n      add\n      tag_264\n      swap1\n      tag_265\n      jump\t// in\n    tag_264:\n      mload(0x40)\n      dup1\n      swap2\n      sub\n      swap1\n      revert\n    tag_263:\n        /* \"@openzeppelin/contracts/token/ERC20/ERC20.sol\":10655:10656  0 */\n      0x00\n        /* \"@openzeppelin/contracts/token/ERC20/ERC20.sol\":10636:10657  spender != address(0) */\n      0xffffffffffffffffffffffffffffffffffffffff\n      and\n        /* \"@openzeppelin/contracts/token/ERC20/ERC20.sol\":10636:10643  spender */\n      dup3\n        /* \"@openzeppelin/contracts/token/ERC20/ERC20.sol\":10636:10657  spender != address(0) */\n      0xffffffffffffffffffffffffffffffffffffffff\n      and\n      sub\n        /* \"@openzeppelin/contracts/token/ERC20/ERC20.sol\":10628:10696  require(spender != address(0), \"ERC20: approve to the zero address\") */\n      tag_266\n      jumpi\n      mload(0x40)\n      0x08c379a000000000000000000000000000000000000000000000000000000000\n      dup2\n      mstore\n      0x04\n      add\n      tag_267\n      swap1\n      tag_268\n      jump\t// in\n    tag_267:\n      mload(0x40)\n      dup1\n      swap2\n      sub\n      swap1\n      revert\n    tag_266:\n        /* \"@openzeppelin/contracts/token/ERC20/ERC20.sol\":10737:10743  amount */\n      dup1\n        /* \"@openzeppelin/contracts/token/ERC20/ERC20.sol\":10707:10718  _allowances */\n      0x01\n        /* \"@openzeppelin/contracts/token/ERC20/ERC20.sol\":10707:10725  _allowances[owner] */\n      0x00\n        /* \"@openzeppelin/contracts/token/ERC20/ERC20.sol\":10719:10724  owner */\n      dup6\n        /* \"@openzeppelin/contracts/token/ERC20/ERC20.sol\":10707:10725  _allowances[owner] */\n      0xffffffffffffffffffffffffffffffffffffffff\n      and\n      0xffffffffffffffffffffffffffffffffffffffff\n      and\n      dup2\n      mstore\n      0x20\n      add\n      swap1\n      dup2\n      mstore\n      0x20\n      add\n      0x00\n      keccak256\n        /* \"@openzeppelin/contracts/token/ERC20/ERC20.sol\":10707:10734  _allowances[owner][spender] */\n      0x00\n        /* \"@openzeppelin/contracts/token/ERC20/ERC20.sol\":10726:10733  spender */\n      dup5\n        /* \"@openzeppelin/contracts/token/ERC20/ERC20.sol\":10707:10734  _allowances[owner][spender] */\n      0xffffffffffffffffffffffffffffffffffffffff\n      and\n      0xffffffffffffffffffffffffffffffffffffffff\n      and\n      dup2\n      mstore\n      0x20\n      add\n      swap1\n      dup2\n      mstore\n      0x20\n      add\n      0x00\n      keccak256\n        /* \"@openzeppelin/contracts/token/ERC20/ERC20.sol\":10707:10743  _allowances[owner][spender] = amount */\n      dup2\n      swap1\n      sstore\n      pop\n        /* \"@openzeppelin/contracts/token/ERC20/ERC20.sol\":10774:10781  spender */\n      dup2\n        /* \"@openzeppelin/contracts/token/ERC20/ERC20.sol\":10758:10790  Approval(owner, spender, amount) */\n      0xffffffffffffffffffffffffffffffffffffffff\n      and\n        /* \"@openzeppelin/contracts/token/ERC20/ERC20.sol\":10767:10772  owner */\n      dup4\n        /* \"@openzeppelin/contracts/token/ERC20/ERC20.sol\":10758:10790  Approval(owner, spender, amount) */\n      0xffffffffffffffffffffffffffffffffffffffff\n      and\n      0x8c5be1e5ebec7d5bd14f71427d1e84f3dd0314c0f7b2291e5b200ac8c7c3b925\n        /* \"@openzeppelin/contracts/token/ERC20/ERC20.sol\":10783:10789  amount */\n      dup4\n        /* \"@openzeppelin/contracts/token/ERC20/ERC20.sol\":10758:10790  Approval(owner, spender, amount) */\n      mload(0x40)\n      tag_269\n      swap2\n      swap1\n      tag_45\n      jump\t// in\n    tag_269:\n      mload(0x40)\n      dup1\n      swap2\n      sub\n      swap1\n      log3\n        /* \"@openzeppelin/contracts/token/ERC20/ERC20.sol\":10457:10797  function _approve(address owner, address spender, uint256 amount) internal virtual {... */\n      pop\n      pop\n      pop\n      jump\t// out\n        /* \"@openzeppelin/contracts/token/ERC20/ERC20.sol\":11078:11489  function _spendAllowance(address owner, address spender, uint256 amount) internal virtual {... */\n    tag_146:\n        /* \"@openzeppelin/contracts/token/ERC20/ERC20.sol\":11178:11202  uint256 currentAllowance */\n      0x00\n        /* \"@openzeppelin/contracts/token/ERC20/ERC20.sol\":11205:11230  allowance(owner, spender) */\n      tag_271\n        /* \"@openzeppelin/contracts/token/ERC20/ERC20.sol\":11215:11220  owner */\n      dup5\n        /* \"@openzeppelin/contracts/token/ERC20/ERC20.sol\":11222:11229  spender */\n      dup5\n        /* \"@openzeppelin/contracts/token/ERC20/ERC20.sol\":11205:11214  allowance */\n      tag_112\n        /* \"@openzeppelin/contracts/token/ERC20/ERC20.sol\":11205:11230  allowance(owner, spender) */\n      jump\t// in\n    tag_271:\n        /* \"@openzeppelin/contracts/token/ERC20/ERC20.sol\":11178:11230  uint256 currentAllowance = allowance(owner, spender) */\n      swap1\n      pop\n        /* \"@openzeppelin/contracts/token/ERC20/ERC20.sol\":11264:11281  type(uint256).max */\n      0xffffffffffffffffffffffffffffffffffffffffffffffffffffffffffffffff\n        /* \"@openzeppelin/contracts/token/ERC20/ERC20.sol\":11244:11260  currentAllowance */\n      dup2\n        /* \"@openzeppelin/contracts/token/ERC20/ERC20.sol\":11244:11281  currentAllowance != type(uint256).max */\n      eq\n        /* \"@openzeppelin/contracts/token/ERC20/ERC20.sol\":11240:11483  if (currentAllowance != type(uint256).max) {... */\n      tag_272\n      jumpi\n        /* \"@openzeppelin/contracts/token/ERC20/ERC20.sol\":11325:11331  amount */\n      dup2\n        /* \"@openzeppelin/contracts/token/ERC20/ERC20.sol\":11305:11321  currentAllowance */\n      dup2\n        /* \"@openzeppelin/contracts/token/ERC20/ERC20.sol\":11305:11331  currentAllowance >= amount */\n      lt\n      iszero\n        /* \"@openzeppelin/contracts/token/ERC20/ERC20.sol\":11297:11365  require(currentAllowance >= amount, \"ERC20: insufficient allowance\") */\n      tag_273\n      jumpi\n      mload(0x40)\n      0x08c379a000000000000000000000000000000000000000000000000000000000\n      dup2\n      mstore\n      0x04\n      add\n      tag_274\n      swap1\n      tag_275\n      jump\t// in\n    tag_274:\n      mload(0x40)\n      dup1\n      swap2\n      sub\n      swap1\n      revert\n    tag_273:\n        /* \"@openzeppelin/contracts/token/ERC20/ERC20.sol\":11407:11458  _approve(owner, spender, currentAllowance - amount) */\n      tag_276\n        /* \"@openzeppelin/contracts/token/ERC20/ERC20.sol\":11416:11421  owner */\n      dup5\n        /* \"@openzeppelin/contracts/token/ERC20/ERC20.sol\":11423:11430  spender */\n      dup5\n        /* \"@openzeppelin/contracts/token/ERC20/ERC20.sol\":11451:11457  amount */\n      dup5\n        /* \"@openzeppelin/contracts/token/ERC20/ERC20.sol\":11432:11448  currentAllowance */\n      dup5\n        /* \"@openzeppelin/contracts/token/ERC20/ERC20.sol\":11432:11457  currentAllowance - amount */\n      sub\n        /* \"@openzeppelin/contracts/token/ERC20/ERC20.sol\":11407:11415  _approve */\n      tag_134\n        /* \"@openzeppelin/contracts/token/ERC20/ERC20.sol\":11407:11458  _approve(owner, spender, currentAllowance - amount) */\n      jump\t// in\n    tag_276:\n        /* \"@openzeppelin/contracts/token/ERC20/ERC20.sol\":11240:11483  if (currentAllowance != type(uint256).max) {... */\n    tag_272:\n        /* \"@openzeppelin/contracts/token/ERC20/ERC20.sol\":11168:11489  {... */\n      pop\n        /* \"@openzeppelin/contracts/token/ERC20/ERC20.sol\":11078:11489  function _spendAllowance(address owner, address spender, uint256 amount) internal virtual {... */\n      pop\n      pop\n      pop\n      jump\t// out\n        /* \"@openzeppelin/contracts/token/ERC20/ERC20.sol\":7456:8244  function _transfer(address from, address to, uint256 amount) internal virtual {... */\n    tag_148:\n        /* \"@openzeppelin/contracts/token/ERC20/ERC20.sol\":7568:7569  0 */\n      0x00\n        /* \"@openzeppelin/contracts/token/ERC20/ERC20.sol\":7552:7570  from != address(0) */\n      0xffffffffffffffffffffffffffffffffffffffff\n      and\n        /* \"@openzeppelin/contracts/token/ERC20/ERC20.sol\":7552:7556  from */\n      dup4\n        /* \"@openzeppelin/contracts/token/ERC20/ERC20.sol\":7552:7570  from != address(0) */\n      0xffffffffffffffffffffffffffffffffffffffff\n      and\n      sub\n        /* \"@openzeppelin/contracts/token/ERC20/ERC20.sol\":7544:7612  require(from != address(0), \"ERC20: transfer from the zero address\") */\n      tag_278\n      jumpi\n      mload(0x40)\n      0x08c379a000000000000000000000000000000000000000000000000000000000\n      dup2\n      mstore\n      0x04\n      add\n      tag_279\n      swap1\n      tag_280\n      jump\t// in\n    tag_279:\n      mload(0x40)\n      dup1\n      swap2\n      sub\n      swap1\n      revert\n    tag_278:\n        /* \"@openzeppelin/contracts/token/ERC20/ERC20.sol\":7644:7645  0 */\n      0x00\n        /* \"@openzeppelin/contracts/token/ERC20/ERC20.sol\":7630:7646  to != address(0) */\n      0xffffffffffffffffffffffffffffffffffffffff\n      and\n        /* \"@openzeppelin/contracts/token/ERC20/ERC20.sol\":7630:7632  to */\n      dup3\n        /* \"@openzeppelin/contracts/token/ERC20/ERC20.sol\":7630:7646  to != address(0) */\n      0xffffffffffffffffffffffffffffffffffffffff\n      and\n      sub\n        /* \"@openzeppelin/contracts/token/ERC20/ERC20.sol\":7622:7686  require(to != address(0), \"ERC20: transfer to the zero address\") */\n      tag_281\n      jumpi\n      mload(0x40)\n      0x08c379a000000000000000000000000000000000000000000000000000000000\n      dup2\n      mstore\n      0x04\n      add\n      tag_282\n      swap1\n      tag_283\n      jump\t// in\n    tag_282:\n      mload(0x40)\n      dup1\n      swap2\n      sub\n      swap1\n      revert\n    tag_281:\n        /* \"@openzeppelin/contracts/token/ERC20/ERC20.sol\":7697:7735  _beforeTokenTransfer(from, to, amount) */\n      tag_284\n        /* \"@openzeppelin/contracts/token/ERC20/ERC20.sol\":7718:7722  from */\n      dup4\n        /* \"@openzeppelin/contracts/token/ERC20/ERC20.sol\":7724:7726  to */\n      dup4\n        /* \"@openzeppelin/contracts/token/ERC20/ERC20.sol\":7728:7734  amount */\n      dup4\n        /* \"@openzeppelin/contracts/token/ERC20/ERC20.sol\":7697:7717  _beforeTokenTransfer */\n      tag_285\n        /* \"@openzeppelin/contracts/token/ERC20/ERC20.sol\":7697:7735  _beforeTokenTransfer(from, to, amount) */\n      jump\t// in\n    tag_284:\n        /* \"@openzeppelin/contracts/token/ERC20/ERC20.sol\":7746:7765  uint256 fromBalance */\n      0x00\n        /* \"@openzeppelin/contracts/token/ERC20/ERC20.sol\":7768:7777  _balances */\n      dup1\n        /* \"@openzeppelin/contracts/token/ERC20/ERC20.sol\":7768:7783  _balances[from] */\n      0x00\n        /* \"@openzeppelin/contracts/token/ERC20/ERC20.sol\":7778:7782  from */\n      dup6\n        /* \"@openzeppelin/contracts/token/ERC20/ERC20.sol\":7768:7783  _balances[from] */\n      0xffffffffffffffffffffffffffffffffffffffff\n      and\n      0xffffffffffffffffffffffffffffffffffffffff\n      and\n      dup2\n      mstore\n      0x20\n      add\n      swap1\n      dup2\n      mstore\n      0x20\n      add\n      0x00\n      keccak256\n      sload\n        /* \"@openzeppelin/contracts/token/ERC20/ERC20.sol\":7746:7783  uint256 fromBalance = _balances[from] */\n      swap1\n      pop\n        /* \"@openzeppelin/contracts/token/ERC20/ERC20.sol\":7816:7822  amount */\n      dup2\n        /* \"@openzeppelin/contracts/token/ERC20/ERC20.sol\":7801:7812  fromBalance */\n      dup2\n        /* \"@openzeppelin/contracts/token/ERC20/ERC20.sol\":7801:7822  fromBalance >= amount */\n      lt\n      iszero\n        /* \"@openzeppelin/contracts/token/ERC20/ERC20.sol\":7793:7865  require(fromBalance >= amount, \"ERC20: transfer amount exceeds balance\") */\n      tag_286\n      jumpi\n      mload(0x40)\n      0x08c379a000000000000000000000000000000000000000000000000000000000\n      dup2\n      mstore\n      0x04\n      add\n      tag_287\n      swap1\n      tag_288\n      jump\t// in\n    tag_287:\n      mload(0x40)\n      dup1\n      swap2\n      sub\n      swap1\n      revert\n    tag_286:\n        /* \"@openzeppelin/contracts/token/ERC20/ERC20.sol\":7931:7937  amount */\n      dup2\n        /* \"@openzeppelin/contracts/token/ERC20/ERC20.sol\":7917:7928  fromBalance */\n      dup2\n        /* \"@openzeppelin/contracts/token/ERC20/ERC20.sol\":7917:7937  fromBalance - amount */\n      sub\n        /* \"@openzeppelin/contracts/token/ERC20/ERC20.sol\":7899:7908  _balances */\n      0x00\n        /* \"@openzeppelin/contracts/token/ERC20/ERC20.sol\":7899:7914  _balances[from] */\n      dup1\n        /* \"@openzeppelin/contracts/token/ERC20/ERC20.sol\":7909:7913  from */\n      dup7\n        /* \"@openzeppelin/contracts/token/ERC20/ERC20.sol\":7899:7914  _balances[from] */\n      0xffffffffffffffffffffffffffffffffffffffff\n      and\n      0xffffffffffffffffffffffffffffffffffffffff\n      and\n      dup2\n      mstore\n      0x20\n      add\n      swap1\n      dup2\n      mstore\n      0x20\n      add\n      0x00\n      keccak256\n        /* \"@openzeppelin/contracts/token/ERC20/ERC20.sol\":7899:7937  _balances[from] = fromBalance - amount */\n      dup2\n      swap1\n      sstore\n      pop\n        /* \"@openzeppelin/contracts/token/ERC20/ERC20.sol\":8131:8137  amount */\n      dup2\n        /* \"@openzeppelin/contracts/token/ERC20/ERC20.sol\":8114:8123  _balances */\n      0x00\n        /* \"@openzeppelin/contracts/token/ERC20/ERC20.sol\":8114:8127  _balances[to] */\n      dup1\n        /* \"@openzeppelin/contracts/token/ERC20/ERC20.sol\":8124:8126  to */\n      dup6\n        /* \"@openzeppelin/contracts/token/ERC20/ERC20.sol\":8114:8127  _balances[to] */\n      0xffffffffffffffffffffffffffffffffffffffff\n      and\n      0xffffffffffffffffffffffffffffffffffffffff\n      and\n      dup2\n      mstore\n      0x20\n      add\n      swap1\n      dup2\n      mstore\n      0x20\n      add\n      0x00\n      keccak256\n      0x00\n        /* \"@openzeppelin/contracts/token/ERC20/ERC20.sol\":8114:8137  _balances[to] += amount */\n      dup3\n      dup3\n      sload\n      add\n      swap3\n      pop\n      pop\n      dup2\n      swap1\n      sstore\n      pop\n        /* \"@openzeppelin/contracts/token/ERC20/ERC20.sol\":8178:8180  to */\n      dup3\n        /* \"@openzeppelin/contracts/token/ERC20/ERC20.sol\":8163:8189  Transfer(from, to, amount) */\n      0xffffffffffffffffffffffffffffffffffffffff\n      and\n        /* \"@openzeppelin/contracts/token/ERC20/ERC20.sol\":8172:8176  from */\n      dup5\n        /* \"@openzeppelin/contracts/token/ERC20/ERC20.sol\":8163:8189  Transfer(from, to, amount) */\n      0xffffffffffffffffffffffffffffffffffffffff\n      and\n      0xddf252ad1be2c89b69c2b068fc378daa952ba7f163c4a11628f55a4df523b3ef\n        /* \"@openzeppelin/contracts/token/ERC20/ERC20.sol\":8182:8188  amount */\n      dup5\n        /* \"@openzeppelin/contracts/token/ERC20/ERC20.sol\":8163:8189  Transfer(from, to, amount) */\n      mload(0x40)\n      tag_289\n      swap2\n      swap1\n      tag_45\n      jump\t// in\n    tag_289:\n      mload(0x40)\n      dup1\n      swap2\n      sub\n      swap1\n      log3\n        /* \"@openzeppelin/contracts/token/ERC20/ERC20.sol\":8200:8237  _afterTokenTransfer(from, to, amount) */\n      tag_290\n        /* \"@openzeppelin/contracts/token/ERC20/ERC20.sol\":8220:8224  from */\n      dup5\n        /* \"@openzeppelin/contracts/token/ERC20/ERC20.sol\":8226:8228  to */\n      dup5\n        /* \"@openzeppelin/contracts/token/ERC20/ERC20.sol\":8230:8236  amount */\n      dup5\n        /* \"@openzeppelin/contracts/token/ERC20/ERC20.sol\":8200:8219  _afterTokenTransfer */\n      tag_291\n        /* \"@openzeppelin/contracts/token/ERC20/ERC20.sol\":8200:8237  _afterTokenTransfer(from, to, amount) */\n      jump\t// in\n    tag_290:\n        /* \"@openzeppelin/contracts/token/ERC20/ERC20.sol\":7534:8244  {... */\n      pop\n        /* \"@openzeppelin/contracts/token/ERC20/ERC20.sol\":7456:8244  function _transfer(address from, address to, uint256 amount) internal virtual {... */\n      pop\n      pop\n      pop\n      jump\t// out\n        /* \"@openzeppelin/contracts/token/ERC20/ERC20.sol\":9375:10034  function _burn(address account, uint256 amount) internal virtual {... */\n    tag_162:\n        /* \"@openzeppelin/contracts/token/ERC20/ERC20.sol\":9477:9478  0 */\n      0x00\n        /* \"@openzeppelin/contracts/token/ERC20/ERC20.sol\":9458:9479  account != address(0) */\n      0xffffffffffffffffffffffffffffffffffffffff\n      and\n        /* \"@openzeppelin/contracts/token/ERC20/ERC20.sol\":9458:9465  account */\n      dup3\n        /* \"@openzeppelin/contracts/token/ERC20/ERC20.sol\":9458:9479  account != address(0) */\n      0xffffffffffffffffffffffffffffffffffffffff\n      and\n      sub\n        /* \"@openzeppelin/contracts/token/ERC20/ERC20.sol\":9450:9517  require(account != address(0), \"ERC20: burn from the zero address\") */\n      tag_293\n      jumpi\n      mload(0x40)\n      0x08c379a000000000000000000000000000000000000000000000000000000000\n      dup2\n      mstore\n      0x04\n      add\n      tag_294\n      swap1\n      tag_295\n      jump\t// in\n    tag_294:\n      mload(0x40)\n      dup1\n      swap2\n      sub\n      swap1\n      revert\n    tag_293:\n        /* \"@openzeppelin/contracts/token/ERC20/ERC20.sol\":9528:9577  _beforeTokenTransfer(account, address(0), amount) */\n      tag_296\n        /* \"@openzeppelin/contracts/token/ERC20/ERC20.sol\":9549:9556  account */\n      dup3\n        /* \"@openzeppelin/contracts/token/ERC20/ERC20.sol\":9566:9567  0 */\n      0x00\n        /* \"@openzeppelin/contracts/token/ERC20/ERC20.sol\":9570:9576  amount */\n      dup4\n        /* \"@openzeppelin/contracts/token/ERC20/ERC20.sol\":9528:9548  _beforeTokenTransfer */\n      tag_285\n        /* \"@openzeppelin/contracts/token/ERC20/ERC20.sol\":9528:9577  _beforeTokenTransfer(account, address(0), amount) */\n      jump\t// in\n    tag_296:\n        /* \"@openzeppelin/contracts/token/ERC20/ERC20.sol\":9588:9610  uint256 accountBalance */\n      0x00\n        /* \"@openzeppelin/contracts/token/ERC20/ERC20.sol\":9613:9622  _balances */\n      dup1\n        /* \"@openzeppelin/contracts/token/ERC20/ERC20.sol\":9613:9631  _balances[account] */\n      0x00\n        /* \"@openzeppelin/contracts/token/ERC20/ERC20.sol\":9623:9630  account */\n      dup5\n        /* \"@openzeppelin/contracts/token/ERC20/ERC20.sol\":9613:9631  _balances[account] */\n      0xffffffffffffffffffffffffffffffffffffffff\n      and\n      0xffffffffffffffffffffffffffffffffffffffff\n      and\n      dup2\n      mstore\n      0x20\n      add\n      swap1\n      dup2\n      mstore\n      0x20\n      add\n      0x00\n      keccak256\n      sload\n        /* \"@openzeppelin/contracts/token/ERC20/ERC20.sol\":9588:9631  uint256 accountBalance = _balances[account] */\n      swap1\n      pop\n        /* \"@openzeppelin/contracts/token/ERC20/ERC20.sol\":9667:9673  amount */\n      dup2\n        /* \"@openzeppelin/contracts/token/ERC20/ERC20.sol\":9649:9663  accountBalance */\n      dup2\n        /* \"@openzeppelin/contracts/token/ERC20/ERC20.sol\":9649:9673  accountBalance >= amount */\n      lt\n      iszero\n        /* \"@openzeppelin/contracts/token/ERC20/ERC20.sol\":9641:9712  require(accountBalance >= amount, \"ERC20: burn amount exceeds balance\") */\n      tag_297\n      jumpi\n      mload(0x40)\n      0x08c379a000000000000000000000000000000000000000000000000000000000\n      dup2\n      mstore\n      0x04\n      add\n      tag_298\n      swap1\n      tag_299\n      jump\t// in\n    tag_298:\n      mload(0x40)\n      dup1\n      swap2\n      sub\n      swap1\n      revert\n    tag_297:\n        /* \"@openzeppelin/contracts/token/ERC20/ERC20.sol\":9784:9790  amount */\n      dup2\n        /* \"@openzeppelin/contracts/token/ERC20/ERC20.sol\":9767:9781  accountBalance */\n      dup2\n        /* \"@openzeppelin/contracts/token/ERC20/ERC20.sol\":9767:9790  accountBalance - amount */\n      sub\n        /* \"@openzeppelin/contracts/token/ERC20/ERC20.sol\":9746:9755  _balances */\n      0x00\n        /* \"@openzeppelin/contracts/token/ERC20/ERC20.sol\":9746:9764  _balances[account] */\n      dup1\n        /* \"@openzeppelin/contracts/token/ERC20/ERC20.sol\":9756:9763  account */\n      dup6\n        /* \"@openzeppelin/contracts/token/ERC20/ERC20.sol\":9746:9764  _balances[account] */\n      0xffffffffffffffffffffffffffffffffffffffff\n      and\n      0xffffffffffffffffffffffffffffffffffffffff\n      and\n      dup2\n      mstore\n      0x20\n      add\n      swap1\n      dup2\n      mstore\n      0x20\n      add\n      0x00\n      keccak256\n        /* \"@openzeppelin/contracts/token/ERC20/ERC20.sol\":9746:9790  _balances[account] = accountBalance - amount */\n      dup2\n      swap1\n      sstore\n      pop\n        /* \"@openzeppelin/contracts/token/ERC20/ERC20.sol\":9899:9905  amount */\n      dup2\n        /* \"@openzeppelin/contracts/token/ERC20/ERC20.sol\":9883:9895  _totalSupply */\n      0x02\n      0x00\n        /* \"@openzeppelin/contracts/token/ERC20/ERC20.sol\":9883:9905  _totalSupply -= amount */\n      dup3\n      dup3\n      sload\n      sub\n      swap3\n      pop\n      pop\n      dup2\n      swap1\n      sstore\n      pop\n        /* \"@openzeppelin/contracts/token/ERC20/ERC20.sol\":9957:9958  0 */\n      0x00\n        /* \"@openzeppelin/contracts/token/ERC20/ERC20.sol\":9931:9968  Transfer(account, address(0), amount) */\n      0xffffffffffffffffffffffffffffffffffffffff\n      and\n        /* \"@openzeppelin/contracts/token/ERC20/ERC20.sol\":9940:9947  account */\n      dup4\n        /* \"@openzeppelin/contracts/token/ERC20/ERC20.sol\":9931:9968  Transfer(account, address(0), amount) */\n      0xffffffffffffffffffffffffffffffffffffffff\n      and\n      0xddf252ad1be2c89b69c2b068fc378daa952ba7f163c4a11628f55a4df523b3ef\n        /* \"@openzeppelin/contracts/token/ERC20/ERC20.sol\":9961:9967  amount */\n      dup5\n        /* \"@openzeppelin/contracts/token/ERC20/ERC20.sol\":9931:9968  Transfer(account, address(0), amount) */\n      mload(0x40)\n      tag_300\n      swap2\n      swap1\n      tag_45\n      jump\t// in\n    tag_300:\n      mload(0x40)\n      dup1\n      swap2\n      sub\n      swap1\n      log3\n        /* \"@openzeppelin/contracts/token/ERC20/ERC20.sol\":9979:10027  _afterTokenTransfer(account, address(0), amount) */\n      tag_301\n        /* \"@openzeppelin/contracts/token/ERC20/ERC20.sol\":9999:10006  account */\n      dup4\n        /* \"@openzeppelin/contracts/token/ERC20/ERC20.sol\":10016:10017  0 */\n      0x00\n        /* \"@openzeppelin/contracts/token/ERC20/ERC20.sol\":10020:10026  amount */\n      dup5\n        /* \"@openzeppelin/contracts/token/ERC20/ERC20.sol\":9979:9998  _afterTokenTransfer */\n      tag_291\n        /* \"@openzeppelin/contracts/token/ERC20/ERC20.sol\":9979:10027  _afterTokenTransfer(account, address(0), amount) */\n      jump\t// in\n    tag_301:\n        /* \"@openzeppelin/contracts/token/ERC20/ERC20.sol\":9440:10034  {... */\n      pop\n        /* \"@openzeppelin/contracts/token/ERC20/ERC20.sol\":9375:10034  function _burn(address account, uint256 amount) internal virtual {... */\n      pop\n      pop\n      jump\t// out\n        /* \"@openzeppelin/contracts/access/Ownable.sol\":1359:1489  function _checkOwner() internal view virtual {... */\n    tag_166:\n        /* \"@openzeppelin/contracts/access/Ownable.sol\":1433:1445  _msgSender() */\n      tag_303\n        /* \"@openzeppelin/contracts/access/Ownable.sol\":1433:1443  _msgSender */\n      tag_132\n        /* \"@openzeppelin/contracts/access/Ownable.sol\":1433:1445  _msgSender() */\n      jump\t// in\n    tag_303:\n        /* \"@openzeppelin/contracts/access/Ownable.sol\":1422:1445  owner() == _msgSender() */\n      0xffffffffffffffffffffffffffffffffffffffff\n      and\n        /* \"@openzeppelin/contracts/access/Ownable.sol\":1422:1429  owner() */\n      tag_304\n        /* \"@openzeppelin/contracts/access/Ownable.sol\":1422:1427  owner */\n      tag_81\n        /* \"@openzeppelin/contracts/access/Ownable.sol\":1422:1429  owner() */\n      jump\t// in\n    tag_304:\n        /* \"@openzeppelin/contracts/access/Ownable.sol\":1422:1445  owner() == _msgSender() */\n      0xffffffffffffffffffffffffffffffffffffffff\n      and\n      eq\n        /* \"@openzeppelin/contracts/access/Ownable.sol\":1414:1482  require(owner() == _msgSender(), \"Ownable: caller is not the owner\") */\n      tag_305\n      jumpi\n      mload(0x40)\n      0x08c379a000000000000000000000000000000000000000000000000000000000\n      dup2\n      mstore\n      0x04\n      add\n      tag_306\n      swap1\n      tag_307\n      jump\t// in\n    tag_306:\n      mload(0x40)\n      dup1\n      swap2\n      sub\n      swap1\n      revert\n    tag_305:\n        /* \"@openzeppelin/contracts/access/Ownable.sol\":1359:1489  function _checkOwner() internal view virtual {... */\n      jump\t// out\n        /* \"@openzeppelin/contracts/access/Ownable.sol\":2426:2613  function _transferOwnership(address newOwner) internal virtual {... */\n    tag_169:\n        /* \"@openzeppelin/contracts/access/Ownable.sol\":2499:2515  address oldOwner */\n      0x00\n        /* \"@openzeppelin/contracts/access/Ownable.sol\":2518:2524  _owner */\n      0x05\n      0x00\n      swap1\n      sload\n      swap1\n      0x0100\n      exp\n      swap1\n      div\n      0xffffffffffffffffffffffffffffffffffffffff\n      and\n        /* \"@openzeppelin/contracts/access/Ownable.sol\":2499:2524  address oldOwner = _owner */\n      swap1\n      pop\n        /* \"@openzeppelin/contracts/access/Ownable.sol\":2543:2551  newOwner */\n      dup2\n        /* \"@openzeppelin/contracts/access/Ownable.sol\":2534:2540  _owner */\n      0x05\n      0x00\n        /* \"@openzeppelin/contracts/access/Ownable.sol\":2534:2551  _owner = newOwner */\n      0x0100\n      exp\n      dup2\n      sload\n      dup2\n      0xffffffffffffffffffffffffffffffffffffffff\n      mul\n      not\n      and\n      swap1\n      dup4\n      0xffffffffffffffffffffffffffffffffffffffff\n      and\n      mul\n      or\n      swap1\n      sstore\n      pop\n        /* \"@openzeppelin/contracts/access/Ownable.sol\":2597:2605  newOwner */\n      dup2\n        /* \"@openzeppelin/contracts/access/Ownable.sol\":2566:2606  OwnershipTransferred(oldOwner, newOwner) */\n      0xffffffffffffffffffffffffffffffffffffffff\n      and\n        /* \"@openzeppelin/contracts/access/Ownable.sol\":2587:2595  oldOwner */\n      dup2\n        /* \"@openzeppelin/contracts/access/Ownable.sol\":2566:2606  OwnershipTransferred(oldOwner, newOwner) */\n      0xffffffffffffffffffffffffffffffffffffffff\n      and\n      0x8be0079c531659141344cd1fd0a4f28419497f9722a3daafe3b4186f6b6457e0\n      mload(0x40)\n      mload(0x40)\n      dup1\n      swap2\n      sub\n      swap1\n      log3\n        /* \"@openzeppelin/contracts/access/Ownable.sol\":2489:2613  {... */\n      pop\n        /* \"@openzeppelin/contracts/access/Ownable.sol\":2426:2613  function _transferOwnership(address newOwner) internal virtual {... */\n      pop\n      jump\t// out\n        /* \"@openzeppelin/contracts/token/ERC20/ERC20.sol\":8520:9055  function _mint(address account, uint256 amount) internal virtual {... */\n    tag_253:\n        /* \"@openzeppelin/contracts/token/ERC20/ERC20.sol\":8622:8623  0 */\n      0x00\n        /* \"@openzeppelin/contracts/token/ERC20/ERC20.sol\":8603:8624  account != address(0) */\n      0xffffffffffffffffffffffffffffffffffffffff\n      and\n        /* \"@openzeppelin/contracts/token/ERC20/ERC20.sol\":8603:8610  account */\n      dup3\n        /* \"@openzeppelin/contracts/token/ERC20/ERC20.sol\":8603:8624  account != address(0) */\n      0xffffffffffffffffffffffffffffffffffffffff\n      and\n      sub\n        /* \"@openzeppelin/contracts/token/ERC20/ERC20.sol\":8595:8660  require(account != address(0), \"ERC20: mint to the zero address\") */\n      tag_310\n      jumpi\n      mload(0x40)\n      0x08c379a000000000000000000000000000000000000000000000000000000000\n      dup2\n      mstore\n      0x04\n      add\n      tag_311\n      swap1\n      tag_312\n      jump\t// in\n    tag_311:\n      mload(0x40)\n      dup1\n      swap2\n      sub\n      swap1\n      revert\n    tag_310:\n        /* \"@openzeppelin/contracts/token/ERC20/ERC20.sol\":8671:8720  _beforeTokenTransfer(address(0), account, amount) */\n      tag_313\n        /* \"@openzeppelin/contracts/token/ERC20/ERC20.sol\":8700:8701  0 */\n      0x00\n        /* \"@openzeppelin/contracts/token/ERC20/ERC20.sol\":8704:8711  account */\n      dup4\n        /* \"@openzeppelin/contracts/token/ERC20/ERC20.sol\":8713:8719  amount */\n      dup4\n        /* \"@openzeppelin/contracts/token/ERC20/ERC20.sol\":8671:8691  _beforeTokenTransfer */\n      tag_285\n        /* \"@openzeppelin/contracts/token/ERC20/ERC20.sol\":8671:8720  _beforeTokenTransfer(address(0), account, amount) */\n      jump\t// in\n    tag_313:\n        /* \"@openzeppelin/contracts/token/ERC20/ERC20.sol\":8747:8753  amount */\n      dup1\n        /* \"@openzeppelin/contracts/token/ERC20/ERC20.sol\":8731:8743  _totalSupply */\n      0x02\n      0x00\n        /* \"@openzeppelin/contracts/token/ERC20/ERC20.sol\":8731:8753  _totalSupply += amount */\n      dup3\n      dup3\n      sload\n      tag_314\n      swap2\n      swap1\n      tag_155\n      jump\t// in\n    tag_314:\n      swap3\n      pop\n      pop\n      dup2\n      swap1\n      sstore\n      pop\n        /* \"@openzeppelin/contracts/token/ERC20/ERC20.sol\":8921:8927  amount */\n      dup1\n        /* \"@openzeppelin/contracts/token/ERC20/ERC20.sol\":8899:8908  _balances */\n      0x00\n        /* \"@openzeppelin/contracts/token/ERC20/ERC20.sol\":8899:8917  _balances[account] */\n      dup1\n        /* \"@openzeppelin/contracts/token/ERC20/ERC20.sol\":8909:8916  account */\n      dup5\n        /* \"@openzeppelin/contracts/token/ERC20/ERC20.sol\":8899:8917  _balances[account] */\n      0xffffffffffffffffffffffffffffffffffffffff\n      and\n      0xffffffffffffffffffffffffffffffffffffffff\n      and\n      dup2\n      mstore\n      0x20\n      add\n      swap1\n      dup2\n      mstore\n      0x20\n      add\n      0x00\n      keccak256\n      0x00\n        /* \"@openzeppelin/contracts/token/ERC20/ERC20.sol\":8899:8927  _balances[account] += amount */\n      dup3\n      dup3\n      sload\n      add\n      swap3\n      pop\n      pop\n      dup2\n      swap1\n      sstore\n      pop\n        /* \"@openzeppelin/contracts/token/ERC20/ERC20.sol\":8973:8980  account */\n      dup2\n        /* \"@openzeppelin/contracts/token/ERC20/ERC20.sol\":8952:8989  Transfer(address(0), account, amount) */\n      0xffffffffffffffffffffffffffffffffffffffff\n      and\n        /* \"@openzeppelin/contracts/token/ERC20/ERC20.sol\":8969:8970  0 */\n      0x00\n        /* \"@openzeppelin/contracts/token/ERC20/ERC20.sol\":8952:8989  Transfer(address(0), account, amount) */\n      0xffffffffffffffffffffffffffffffffffffffff\n      and\n      0xddf252ad1be2c89b69c2b068fc378daa952ba7f163c4a11628f55a4df523b3ef\n        /* \"@openzeppelin/contracts/token/ERC20/ERC20.sol\":8982:8988  amount */\n      dup4\n        /* \"@openzeppelin/contracts/token/ERC20/ERC20.sol\":8952:8989  Transfer(address(0), account, amount) */\n      mload(0x40)\n      tag_315\n      swap2\n      swap1\n      tag_45\n      jump\t// in\n    tag_315:\n      mload(0x40)\n      dup1\n      swap2\n      sub\n      swap1\n      log3\n        /* \"@openzeppelin/contracts/token/ERC20/ERC20.sol\":9000:9048  _afterTokenTransfer(address(0), account, amount) */\n      tag_316\n        /* \"@openzeppelin/contracts/token/ERC20/ERC20.sol\":9028:9029  0 */\n      0x00\n        /* \"@openzeppelin/contracts/token/ERC20/ERC20.sol\":9032:9039  account */\n      dup4\n        /* \"@openzeppelin/contracts/token/ERC20/ERC20.sol\":9041:9047  amount */\n      dup4\n        /* \"@openzeppelin/contracts/token/ERC20/ERC20.sol\":9000:9019  _afterTokenTransfer */\n      tag_291\n        /* \"@openzeppelin/contracts/token/ERC20/ERC20.sol\":9000:9048  _afterTokenTransfer(address(0), account, amount) */\n      jump\t// in\n    tag_316:\n        /* \"@openzeppelin/contracts/token/ERC20/ERC20.sol\":8520:9055  function _mint(address account, uint256 amount) internal virtual {... */\n      pop\n      pop\n      jump\t// out\n        /* \"@openzeppelin/contracts/token/ERC20/ERC20.sol\":12073:12164  function _beforeTokenTransfer(address from, address to, uint256 amount) internal virtual {} */\n    tag_285:\n      pop\n      pop\n      pop\n      jump\t// out\n        /* \"@openzeppelin/contracts/token/ERC20/ERC20.sol\":12752:12842  function _afterTokenTransfer(address from, address to, uint256 amount) internal virtual {} */\n    tag_291:\n      pop\n      pop\n      pop\n      jump\t// out\n    tag_217:\n      mload(0x40)\n      dup1\n      0x60\n      add\n      0x40\n      mstore\n      dup1\n      0x60\n      dup2\n      mstore\n      0x20\n      add\n      0x00\n      dup2\n      mstore\n      0x20\n      add\n      0x00\n      dup2\n      mstore\n      pop\n      swap1\n      jump\t// out\n        /* \"#utility.yul\":7:106   */\n    tag_319:\n        /* \"#utility.yul\":59:65   */\n      0x00\n        /* \"#utility.yul\":93:98   */\n      dup2\n        /* \"#utility.yul\":87:99   */\n      mload\n        /* \"#utility.yul\":77:99   */\n      swap1\n      pop\n        /* \"#utility.yul\":7:106   */\n      swap2\n      swap1\n      pop\n      jump\t// out\n        /* \"#utility.yul\":112:281   */\n    tag_320:\n        /* \"#utility.yul\":196:207   */\n      0x00\n        /* \"#utility.yul\":230:236   */\n      dup3\n        /* \"#utility.yul\":225:228   */\n      dup3\n        /* \"#utility.yul\":218:237   */\n      mstore\n        /* \"#utility.yul\":270:274   */\n      0x20\n        /* \"#utility.yul\":265:268   */\n      dup3\n        /* \"#utility.yul\":261:275   */\n      add\n        /* \"#utility.yul\":246:275   */\n      swap1\n      pop\n        /* \"#utility.yul\":112:281   */\n      swap3\n      swap2\n      pop\n      pop\n      jump\t// out\n        /* \"#utility.yul\":287:533   */\n    tag_321:\n        /* \"#utility.yul\":368:369   */\n      0x00\n        /* \"#utility.yul\":378:491   */\n    tag_415:\n        /* \"#utility.yul\":392:398   */\n      dup4\n        /* \"#utility.yul\":389:390   */\n      dup2\n        /* \"#utility.yul\":386:399   */\n      lt\n        /* \"#utility.yul\":378:491   */\n      iszero\n      tag_417\n      jumpi\n        /* \"#utility.yul\":477:478   */\n      dup1\n        /* \"#utility.yul\":472:475   */\n      dup3\n        /* \"#utility.yul\":468:479   */\n      add\n        /* \"#utility.yul\":462:480   */\n      mload\n        /* \"#utility.yul\":458:459   */\n      dup2\n        /* \"#utility.yul\":453:456   */\n      dup5\n        /* \"#utility.yul\":449:460   */\n      add\n        /* \"#utility.yul\":442:481   */\n      mstore\n        /* \"#utility.yul\":414:416   */\n      0x20\n        /* \"#utility.yul\":411:412   */\n      dup2\n        /* \"#utility.yul\":407:417   */\n      add\n        /* \"#utility.yul\":402:417   */\n      swap1\n      pop\n        /* \"#utility.yul\":378:491   */\n      jump(tag_415)\n    tag_417:\n        /* \"#utility.yul\":525:526   */\n      0x00\n        /* \"#utility.yul\":516:522   */\n      dup5\n        /* \"#utility.yul\":511:514   */\n      dup5\n        /* \"#utility.yul\":507:523   */\n      add\n        /* \"#utility.yul\":500:527   */\n      mstore\n        /* \"#utility.yul\":349:533   */\n      pop\n        /* \"#utility.yul\":287:533   */\n      pop\n      pop\n      pop\n      jump\t// out\n        /* \"#utility.yul\":539:641   */\n    tag_322:\n        /* \"#utility.yul\":580:586   */\n      0x00\n        /* \"#utility.yul\":631:633   */\n      0x1f\n        /* \"#utility.yul\":627:634   */\n      not\n        /* \"#utility.yul\":622:624   */\n      0x1f\n        /* \"#utility.yul\":615:620   */\n      dup4\n        /* \"#utility.yul\":611:625   */\n      add\n        /* \"#utility.yul\":607:635   */\n      and\n        /* \"#utility.yul\":597:635   */\n      swap1\n      pop\n        /* \"#utility.yul\":539:641   */\n      swap2\n      swap1\n      pop\n      jump\t// out\n        /* \"#utility.yul\":647:1024   */\n    tag_323:\n        /* \"#utility.yul\":735:738   */\n      0x00\n        /* \"#utility.yul\":763:802   */\n      tag_420\n        /* \"#utility.yul\":796:801   */\n      dup3\n        /* \"#utility.yul\":763:802   */\n      tag_319\n      jump\t// in\n    tag_420:\n        /* \"#utility.yul\":818:889   */\n      tag_421\n        /* \"#utility.yul\":882:888   */\n      dup2\n        /* \"#utility.yul\":877:880   */\n      dup6\n        /* \"#utility.yul\":818:889   */\n      tag_320\n      jump\t// in\n    tag_421:\n        /* \"#utility.yul\":811:889   */\n      swap4\n      pop\n        /* \"#utility.yul\":898:963   */\n      tag_422\n        /* \"#utility.yul\":956:962   */\n      dup2\n        /* \"#utility.yul\":951:954   */\n      dup6\n        /* \"#utility.yul\":944:948   */\n      0x20\n        /* \"#utility.yul\":937:942   */\n      dup7\n        /* \"#utility.yul\":933:949   */\n      add\n        /* \"#utility.yul\":898:963   */\n      tag_321\n      jump\t// in\n    tag_422:\n        /* \"#utility.yul\":988:1017   */\n      tag_423\n        /* \"#utility.yul\":1010:1016   */\n      dup2\n        /* \"#utility.yul\":988:1017   */\n      tag_322\n      jump\t// in\n    tag_423:\n        /* \"#utility.yul\":983:986   */\n      dup5\n        /* \"#utility.yul\":979:1018   */\n      add\n        /* \"#utility.yul\":972:1018   */\n      swap2\n      pop\n        /* \"#utility.yul\":739:1024   */\n      pop\n        /* \"#utility.yul\":647:1024   */\n      swap3\n      swap2\n      pop\n      pop\n      jump\t// out\n        /* \"#utility.yul\":1030:1343   */\n    tag_33:\n        /* \"#utility.yul\":1143:1147   */\n      0x00\n        /* \"#utility.yul\":1181:1183   */\n      0x20\n        /* \"#utility.yul\":1170:1179   */\n      dup3\n        /* \"#utility.yul\":1166:1184   */\n      add\n        /* \"#utility.yul\":1158:1184   */\n      swap1\n      pop\n        /* \"#utility.yul\":1230:1239   */\n      dup2\n        /* \"#utility.yul\":1224:1228   */\n      dup2\n        /* \"#utility.yul\":1220:1240   */\n      sub\n        /* \"#utility.yul\":1216:1217   */\n      0x00\n        /* \"#utility.yul\":1205:1214   */\n      dup4\n        /* \"#utility.yul\":1201:1218   */\n      add\n        /* \"#utility.yul\":1194:1241   */\n      mstore\n        /* \"#utility.yul\":1258:1336   */\n      tag_425\n        /* \"#utility.yul\":1331:1335   */\n      dup2\n        /* \"#utility.yul\":1322:1328   */\n      dup5\n        /* \"#utility.yul\":1258:1336   */\n      tag_323\n      jump\t// in\n    tag_425:\n        /* \"#utility.yul\":1250:1336   */\n      swap1\n      pop\n        /* \"#utility.yul\":1030:1343   */\n      swap3\n      swap2\n      pop\n      pop\n      jump\t// out\n        /* \"#utility.yul\":1349:1424   */\n    tag_324:\n        /* \"#utility.yul\":1382:1388   */\n      0x00\n        /* \"#utility.yul\":1415:1417   */\n      0x40\n        /* \"#utility.yul\":1409:1418   */\n      mload\n        /* \"#utility.yul\":1399:1418   */\n      swap1\n      pop\n        /* \"#utility.yul\":1349:1424   */\n      swap1\n      jump\t// out\n        /* \"#utility.yul\":1430:1547   */\n    tag_325:\n        /* \"#utility.yul\":1539:1540   */\n      0x00\n        /* \"#utility.yul\":1536:1537   */\n      dup1\n        /* \"#utility.yul\":1529:1541   */\n      revert\n        /* \"#utility.yul\":1553:1670   */\n    tag_326:\n        /* \"#utility.yul\":1662:1663   */\n      0x00\n        /* \"#utility.yul\":1659:1660   */\n      dup1\n        /* \"#utility.yul\":1652:1664   */\n      revert\n        /* \"#utility.yul\":1676:1802   */\n    tag_327:\n        /* \"#utility.yul\":1713:1720   */\n      0x00\n        /* \"#utility.yul\":1753:1795   */\n      0xffffffffffffffffffffffffffffffffffffffff\n        /* \"#utility.yul\":1746:1751   */\n      dup3\n        /* \"#utility.yul\":1742:1796   */\n      and\n        /* \"#utility.yul\":1731:1796   */\n      swap1\n      pop\n        /* \"#utility.yul\":1676:1802   */\n      swap2\n      swap1\n      pop\n      jump\t// out\n        /* \"#utility.yul\":1808:1904   */\n    tag_328:\n        /* \"#utility.yul\":1845:1852   */\n      0x00\n        /* \"#utility.yul\":1874:1898   */\n      tag_431\n        /* \"#utility.yul\":1892:1897   */\n      dup3\n        /* \"#utility.yul\":1874:1898   */\n      tag_327\n      jump\t// in\n    tag_431:\n        /* \"#utility.yul\":1863:1898   */\n      swap1\n      pop\n        /* \"#utility.yul\":1808:1904   */\n      swap2\n      swap1\n      pop\n      jump\t// out\n        /* \"#utility.yul\":1910:2032   */\n    tag_329:\n        /* \"#utility.yul\":1983:2007   */\n      tag_433\n        /* \"#utility.yul\":2001:2006   */\n      dup2\n        /* \"#utility.yul\":1983:2007   */\n      tag_328\n      jump\t// in\n    tag_433:\n        /* \"#utility.yul\":1976:1981   */\n      dup2\n        /* \"#utility.yul\":1973:2008   */\n      eq\n        /* \"#utility.yul\":1963:2026   */\n      tag_434\n      jumpi\n        /* \"#utility.yul\":2022:2023   */\n      0x00\n        /* \"#utility.yul\":2019:2020   */\n      dup1\n        /* \"#utility.yul\":2012:2024   */\n      revert\n        /* \"#utility.yul\":1963:2026   */\n    tag_434:\n        /* \"#utility.yul\":1910:2032   */\n      pop\n      jump\t// out\n        /* \"#utility.yul\":2038:2177   */\n    tag_330:\n        /* \"#utility.yul\":2084:2089   */\n      0x00\n        /* \"#utility.yul\":2122:2128   */\n      dup2\n        /* \"#utility.yul\":2109:2129   */\n      calldataload\n        /* \"#utility.yul\":2100:2129   */\n      swap1\n      pop\n        /* \"#utility.yul\":2138:2171   */\n      tag_436\n        /* \"#utility.yul\":2165:2170   */\n      dup2\n        /* \"#utility.yul\":2138:2171   */\n      tag_329\n      jump\t// in\n    tag_436:\n        /* \"#utility.yul\":2038:2177   */\n      swap3\n      swap2\n      pop\n      pop\n      jump\t// out\n        /* \"#utility.yul\":2183:2260   */\n    tag_331:\n        /* \"#utility.yul\":2220:2227   */\n      0x00\n        /* \"#utility.yul\":2249:2254   */\n      dup2\n        /* \"#utility.yul\":2238:2254   */\n      swap1\n      pop\n        /* \"#utility.yul\":2183:2260   */\n      swap2\n      swap1\n      pop\n      jump\t// out\n        /* \"#utility.yul\":2266:2388   */\n    tag_332:\n        /* \"#utility.yul\":2339:2363   */\n      tag_439\n        /* \"#utility.yul\":2357:2362   */\n      dup2\n        /* \"#utility.yul\":2339:2363   */\n      tag_331\n      jump\t// in\n    tag_439:\n        /* \"#utility.yul\":2332:2337   */\n      dup2\n        /* \"#utility.yul\":2329:2364   */\n      eq\n        /* \"#utility.yul\":2319:2382   */\n      tag_440\n      jumpi\n        /* \"#utility.yul\":2378:2379   */\n      0x00\n        /* \"#utility.yul\":2375:2376   */\n      dup1\n        /* \"#utility.yul\":2368:2380   */\n      revert\n        /* \"#utility.yul\":2319:2382   */\n    tag_440:\n        /* \"#utility.yul\":2266:2388   */\n      pop\n      jump\t// out\n        /* \"#utility.yul\":2394:2533   */\n    tag_333:\n        /* \"#utility.yul\":2440:2445   */\n      0x00\n        /* \"#utility.yul\":2478:2484   */\n      dup2\n        /* \"#utility.yul\":2465:2485   */\n      calldataload\n        /* \"#utility.yul\":2456:2485   */\n      swap1\n      pop\n        /* \"#utility.yul\":2494:2527   */\n      tag_442\n        /* \"#utility.yul\":2521:2526   */\n      dup2\n        /* \"#utility.yul\":2494:2527   */\n      tag_332\n      jump\t// in\n    tag_442:\n        /* \"#utility.yul\":2394:2533   */\n      swap3\n      swap2\n      pop\n      pop\n      jump\t// out\n        /* \"#utility.yul\":2539:3013   */\n    tag_36:\n        /* \"#utility.yul\":2607:2613   */\n      0x00\n        /* \"#utility.yul\":2615:2621   */\n      dup1\n        /* \"#utility.yul\":2664:2666   */\n      0x40\n        /* \"#utility.yul\":2652:2661   */\n      dup4\n        /* \"#utility.yul\":2643:2650   */\n      dup6\n        /* \"#utility.yul\":2639:2662   */\n      sub\n        /* \"#utility.yul\":2635:2667   */\n      slt\n        /* \"#utility.yul\":2632:2751   */\n      iszero\n      tag_444\n      jumpi\n        /* \"#utility.yul\":2670:2749   */\n      tag_445\n      tag_325\n      jump\t// in\n    tag_445:\n        /* \"#utility.yul\":2632:2751   */\n    tag_444:\n        /* \"#utility.yul\":2790:2791   */\n      0x00\n        /* \"#utility.yul\":2815:2868   */\n      tag_446\n        /* \"#utility.yul\":2860:2867   */\n      dup6\n        /* \"#utility.yul\":2851:2857   */\n      dup3\n        /* \"#utility.yul\":2840:2849   */\n      dup7\n        /* \"#utility.yul\":2836:2858   */\n      add\n        /* \"#utility.yul\":2815:2868   */\n      tag_330\n      jump\t// in\n    tag_446:\n        /* \"#utility.yul\":2805:2868   */\n      swap3\n      pop\n        /* \"#utility.yul\":2761:2878   */\n      pop\n        /* \"#utility.yul\":2917:2919   */\n      0x20\n        /* \"#utility.yul\":2943:2996   */\n      tag_447\n        /* \"#utility.yul\":2988:2995   */\n      dup6\n        /* \"#utility.yul\":2979:2985   */\n      dup3\n        /* \"#utility.yul\":2968:2977   */\n      dup7\n        /* \"#utility.yul\":2964:2986   */\n      add\n        /* \"#utility.yul\":2943:2996   */\n      tag_333\n      jump\t// in\n    tag_447:\n        /* \"#utility.yul\":2933:2996   */\n      swap2\n      pop\n        /* \"#utility.yul\":2888:3006   */\n      pop\n        /* \"#utility.yul\":2539:3013   */\n      swap3\n      pop\n      swap3\n      swap1\n      pop\n      jump\t// out\n        /* \"#utility.yul\":3019:3109   */\n    tag_334:\n        /* \"#utility.yul\":3053:3060   */\n      0x00\n        /* \"#utility.yul\":3096:3101   */\n      dup2\n        /* \"#utility.yul\":3089:3102   */\n      iszero\n        /* \"#utility.yul\":3082:3103   */\n      iszero\n        /* \"#utility.yul\":3071:3103   */\n      swap1\n      pop\n        /* \"#utility.yul\":3019:3109   */\n      swap2\n      swap1\n      pop\n      jump\t// out\n        /* \"#utility.yul\":3115:3224   */\n    tag_335:\n        /* \"#utility.yul\":3196:3217   */\n      tag_450\n        /* \"#utility.yul\":3211:3216   */\n      dup2\n        /* \"#utility.yul\":3196:3217   */\n      tag_334\n      jump\t// in\n    tag_450:\n        /* \"#utility.yul\":3191:3194   */\n      dup3\n        /* \"#utility.yul\":3184:3218   */\n      mstore\n        /* \"#utility.yul\":3115:3224   */\n      pop\n      pop\n      jump\t// out\n        /* \"#utility.yul\":3230:3440   */\n    tag_39:\n        /* \"#utility.yul\":3317:3321   */\n      0x00\n        /* \"#utility.yul\":3355:3357   */\n      0x20\n        /* \"#utility.yul\":3344:3353   */\n      dup3\n        /* \"#utility.yul\":3340:3358   */\n      add\n        /* \"#utility.yul\":3332:3358   */\n      swap1\n      pop\n        /* \"#utility.yul\":3368:3433   */\n      tag_452\n        /* \"#utility.yul\":3430:3431   */\n      0x00\n        /* \"#utility.yul\":3419:3428   */\n      dup4\n        /* \"#utility.yul\":3415:3432   */\n      add\n        /* \"#utility.yul\":3406:3412   */\n      dup5\n        /* \"#utility.yul\":3368:3433   */\n      tag_335\n      jump\t// in\n    tag_452:\n        /* \"#utility.yul\":3230:3440   */\n      swap3\n      swap2\n      pop\n      pop\n      jump\t// out\n        /* \"#utility.yul\":3446:3775   */\n    tag_42:\n        /* \"#utility.yul\":3505:3511   */\n      0x00\n        /* \"#utility.yul\":3554:3556   */\n      0x20\n        /* \"#utility.yul\":3542:3551   */\n      dup3\n        /* \"#utility.yul\":3533:3540   */\n      dup5\n        /* \"#utility.yul\":3529:3552   */\n      sub\n        /* \"#utility.yul\":3525:3557   */\n      slt\n        /* \"#utility.yul\":3522:3641   */\n      iszero\n      tag_454\n      jumpi\n        /* \"#utility.yul\":3560:3639   */\n      tag_455\n      tag_325\n      jump\t// in\n    tag_455:\n        /* \"#utility.yul\":3522:3641   */\n    tag_454:\n        /* \"#utility.yul\":3680:3681   */\n      0x00\n        /* \"#utility.yul\":3705:3758   */\n      tag_456\n        /* \"#utility.yul\":3750:3757   */\n      dup5\n        /* \"#utility.yul\":3741:3747   */\n      dup3\n        /* \"#utility.yul\":3730:3739   */\n      dup6\n        /* \"#utility.yul\":3726:3748   */\n      add\n        /* \"#utility.yul\":3705:3758   */\n      tag_330\n      jump\t// in\n    tag_456:\n        /* \"#utility.yul\":3695:3758   */\n      swap2\n      pop\n        /* \"#utility.yul\":3651:3768   */\n      pop\n        /* \"#utility.yul\":3446:3775   */\n      swap3\n      swap2\n      pop\n      pop\n      jump\t// out\n        /* \"#utility.yul\":3781:3899   */\n    tag_336:\n        /* \"#utility.yul\":3868:3892   */\n      tag_458\n        /* \"#utility.yul\":3886:3891   */\n      dup2\n        /* \"#utility.yul\":3868:3892   */\n      tag_331\n      jump\t// in\n    tag_458:\n        /* \"#utility.yul\":3863:3866   */\n      dup3\n        /* \"#utility.yul\":3856:3893   */\n      mstore\n        /* \"#utility.yul\":3781:3899   */\n      pop\n      pop\n      jump\t// out\n        /* \"#utility.yul\":3905:4127   */\n    tag_45:\n        /* \"#utility.yul\":3998:4002   */\n      0x00\n        /* \"#utility.yul\":4036:4038   */\n      0x20\n        /* \"#utility.yul\":4025:4034   */\n      dup3\n        /* \"#utility.yul\":4021:4039   */\n      add\n        /* \"#utility.yul\":4013:4039   */\n      swap1\n      pop\n        /* \"#utility.yul\":4049:4120   */\n      tag_460\n        /* \"#utility.yul\":4117:4118   */\n      0x00\n        /* \"#utility.yul\":4106:4115   */\n      dup4\n        /* \"#utility.yul\":4102:4119   */\n      add\n        /* \"#utility.yul\":4093:4099   */\n      dup5\n        /* \"#utility.yul\":4049:4120   */\n      tag_336\n      jump\t// in\n    tag_460:\n        /* \"#utility.yul\":3905:4127   */\n      swap3\n      swap2\n      pop\n      pop\n      jump\t// out\n        /* \"#utility.yul\":4133:4462   */\n    tag_51:\n        /* \"#utility.yul\":4192:4198   */\n      0x00\n        /* \"#utility.yul\":4241:4243   */\n      0x20\n        /* \"#utility.yul\":4229:4238   */\n      dup3\n        /* \"#utility.yul\":4220:4227   */\n      dup5\n        /* \"#utility.yul\":4216:4239   */\n      sub\n        /* \"#utility.yul\":4212:4244   */\n      slt\n        /* \"#utility.yul\":4209:4328   */\n      iszero\n      tag_462\n      jumpi\n        /* \"#utility.yul\":4247:4326   */\n      tag_463\n      tag_325\n      jump\t// in\n    tag_463:\n        /* \"#utility.yul\":4209:4328   */\n    tag_462:\n        /* \"#utility.yul\":4367:4368   */\n      0x00\n        /* \"#utility.yul\":4392:4445   */\n      tag_464\n        /* \"#utility.yul\":4437:4444   */\n      dup5\n        /* \"#utility.yul\":4428:4434   */\n      dup3\n        /* \"#utility.yul\":4417:4426   */\n      dup6\n        /* \"#utility.yul\":4413:4435   */\n      add\n        /* \"#utility.yul\":4392:4445   */\n      tag_333\n      jump\t// in\n    tag_464:\n        /* \"#utility.yul\":4382:4445   */\n      swap2\n      pop\n        /* \"#utility.yul\":4338:4455   */\n      pop\n        /* \"#utility.yul\":4133:4462   */\n      swap3\n      swap2\n      pop\n      pop\n      jump\t// out\n        /* \"#utility.yul\":4468:5001   */\n    tag_54:\n        /* \"#utility.yul\":4637:4641   */\n      0x00\n        /* \"#utility.yul\":4675:4677   */\n      0x60\n        /* \"#utility.yul\":4664:4673   */\n      dup3\n        /* \"#utility.yul\":4660:4678   */\n      add\n        /* \"#utility.yul\":4652:4678   */\n      swap1\n      pop\n        /* \"#utility.yul\":4724:4733   */\n      dup2\n        /* \"#utility.yul\":4718:4722   */\n      dup2\n        /* \"#utility.yul\":4714:4734   */\n      sub\n        /* \"#utility.yul\":4710:4711   */\n      0x00\n        /* \"#utility.yul\":4699:4708   */\n      dup4\n        /* \"#utility.yul\":4695:4712   */\n      add\n        /* \"#utility.yul\":4688:4735   */\n      mstore\n        /* \"#utility.yul\":4752:4830   */\n      tag_466\n        /* \"#utility.yul\":4825:4829   */\n      dup2\n        /* \"#utility.yul\":4816:4822   */\n      dup7\n        /* \"#utility.yul\":4752:4830   */\n      tag_323\n      jump\t// in\n    tag_466:\n        /* \"#utility.yul\":4744:4830   */\n      swap1\n      pop\n        /* \"#utility.yul\":4840:4912   */\n      tag_467\n        /* \"#utility.yul\":4908:4910   */\n      0x20\n        /* \"#utility.yul\":4897:4906   */\n      dup4\n        /* \"#utility.yul\":4893:4911   */\n      add\n        /* \"#utility.yul\":4884:4890   */\n      dup6\n        /* \"#utility.yul\":4840:4912   */\n      tag_336\n      jump\t// in\n    tag_467:\n        /* \"#utility.yul\":4922:4994   */\n      tag_468\n        /* \"#utility.yul\":4990:4992   */\n      0x40\n        /* \"#utility.yul\":4979:4988   */\n      dup4\n        /* \"#utility.yul\":4975:4993   */\n      add\n        /* \"#utility.yul\":4966:4972   */\n      dup5\n        /* \"#utility.yul\":4922:4994   */\n      tag_336\n      jump\t// in\n    tag_468:\n        /* \"#utility.yul\":4468:5001   */\n      swap5\n      swap4\n      pop\n      pop\n      pop\n      pop\n      jump\t// out\n        /* \"#utility.yul\":5007:5626   */\n    tag_57:\n        /* \"#utility.yul\":5084:5090   */\n      0x00\n        /* \"#utility.yul\":5092:5098   */\n      dup1\n        /* \"#utility.yul\":5100:5106   */\n      0x00\n        /* \"#utility.yul\":5149:5151   */\n      0x60\n        /* \"#utility.yul\":5137:5146   */\n      dup5\n        /* \"#utility.yul\":5128:5135   */\n      dup7\n        /* \"#utility.yul\":5124:5147   */\n      sub\n        /* \"#utility.yul\":5120:5152   */\n      slt\n        /* \"#utility.yul\":5117:5236   */\n      iszero\n      tag_470\n      jumpi\n        /* \"#utility.yul\":5155:5234   */\n      tag_471\n      tag_325\n      jump\t// in\n    tag_471:\n        /* \"#utility.yul\":5117:5236   */\n    tag_470:\n        /* \"#utility.yul\":5275:5276   */\n      0x00\n        /* \"#utility.yul\":5300:5353   */\n      tag_472\n        /* \"#utility.yul\":5345:5352   */\n      dup7\n        /* \"#utility.yul\":5336:5342   */\n      dup3\n        /* \"#utility.yul\":5325:5334   */\n      dup8\n        /* \"#utility.yul\":5321:5343   */\n      add\n        /* \"#utility.yul\":5300:5353   */\n      tag_330\n      jump\t// in\n    tag_472:\n        /* \"#utility.yul\":5290:5353   */\n      swap4\n      pop\n        /* \"#utility.yul\":5246:5363   */\n      pop\n        /* \"#utility.yul\":5402:5404   */\n      0x20\n        /* \"#utility.yul\":5428:5481   */\n      tag_473\n        /* \"#utility.yul\":5473:5480   */\n      dup7\n        /* \"#utility.yul\":5464:5470   */\n      dup3\n        /* \"#utility.yul\":5453:5462   */\n      dup8\n        /* \"#utility.yul\":5449:5471   */\n      add\n        /* \"#utility.yul\":5428:5481   */\n      tag_330\n      jump\t// in\n    tag_473:\n        /* \"#utility.yul\":5418:5481   */\n      swap3\n      pop\n        /* \"#utility.yul\":5373:5491   */\n      pop\n        /* \"#utility.yul\":5530:5532   */\n      0x40\n        /* \"#utility.yul\":5556:5609   */\n      tag_474\n        /* \"#utility.yul\":5601:5608   */\n      dup7\n        /* \"#utility.yul\":5592:5598   */\n      dup3\n        /* \"#utility.yul\":5581:5590   */\n      dup8\n        /* \"#utility.yul\":5577:5599   */\n      add\n        /* \"#utility.yul\":5556:5609   */\n      tag_333\n      jump\t// in\n    tag_474:\n        /* \"#utility.yul\":5546:5609   */\n      swap2\n      pop\n        /* \"#utility.yul\":5501:5619   */\n      pop\n        /* \"#utility.yul\":5007:5626   */\n      swap3\n      pop\n      swap3\n      pop\n      swap3\n      jump\t// out\n        /* \"#utility.yul\":5632:5718   */\n    tag_337:\n        /* \"#utility.yul\":5667:5674   */\n      0x00\n        /* \"#utility.yul\":5707:5711   */\n      0xff\n        /* \"#utility.yul\":5700:5705   */\n      dup3\n        /* \"#utility.yul\":5696:5712   */\n      and\n        /* \"#utility.yul\":5685:5712   */\n      swap1\n      pop\n        /* \"#utility.yul\":5632:5718   */\n      swap2\n      swap1\n      pop\n      jump\t// out\n        /* \"#utility.yul\":5724:5836   */\n    tag_338:\n        /* \"#utility.yul\":5807:5829   */\n      tag_477\n        /* \"#utility.yul\":5823:5828   */\n      dup2\n        /* \"#utility.yul\":5807:5829   */\n      tag_337\n      jump\t// in\n    tag_477:\n        /* \"#utility.yul\":5802:5805   */\n      dup3\n        /* \"#utility.yul\":5795:5830   */\n      mstore\n        /* \"#utility.yul\":5724:5836   */\n      pop\n      pop\n      jump\t// out\n        /* \"#utility.yul\":5842:6056   */\n    tag_63:\n        /* \"#utility.yul\":5931:5935   */\n      0x00\n        /* \"#utility.yul\":5969:5971   */\n      0x20\n        /* \"#utility.yul\":5958:5967   */\n      dup3\n        /* \"#utility.yul\":5954:5972   */\n      add\n        /* \"#utility.yul\":5946:5972   */\n      swap1\n      pop\n        /* \"#utility.yul\":5982:6049   */\n      tag_479\n        /* \"#utility.yul\":6046:6047   */\n      0x00\n        /* \"#utility.yul\":6035:6044   */\n      dup4\n        /* \"#utility.yul\":6031:6048   */\n      add\n        /* \"#utility.yul\":6022:6028   */\n      dup5\n        /* \"#utility.yul\":5982:6049   */\n      tag_338\n      jump\t// in\n    tag_479:\n        /* \"#utility.yul\":5842:6056   */\n      swap3\n      swap2\n      pop\n      pop\n      jump\t// out\n        /* \"#utility.yul\":6062:6180   */\n    tag_339:\n        /* \"#utility.yul\":6149:6173   */\n      tag_481\n        /* \"#utility.yul\":6167:6172   */\n      dup2\n        /* \"#utility.yul\":6149:6173   */\n      tag_328\n      jump\t// in\n    tag_481:\n        /* \"#utility.yul\":6144:6147   */\n      dup3\n        /* \"#utility.yul\":6137:6174   */\n      mstore\n        /* \"#utility.yul\":6062:6180   */\n      pop\n      pop\n      jump\t// out\n        /* \"#utility.yul\":6186:6408   */\n    tag_83:\n        /* \"#utility.yul\":6279:6283   */\n      0x00\n        /* \"#utility.yul\":6317:6319   */\n      0x20\n        /* \"#utility.yul\":6306:6315   */\n      dup3\n        /* \"#utility.yul\":6302:6320   */\n      add\n        /* \"#utility.yul\":6294:6320   */\n      swap1\n      pop\n        /* \"#utility.yul\":6330:6401   */\n      tag_483\n        /* \"#utility.yul\":6398:6399   */\n      0x00\n        /* \"#utility.yul\":6387:6396   */\n      dup4\n        /* \"#utility.yul\":6383:6400   */\n      add\n        /* \"#utility.yul\":6374:6380   */\n      dup5\n        /* \"#utility.yul\":6330:6401   */\n      tag_339\n      jump\t// in\n    tag_483:\n        /* \"#utility.yul\":6186:6408   */\n      swap3\n      swap2\n      pop\n      pop\n      jump\t// out\n        /* \"#utility.yul\":6414:6531   */\n    tag_340:\n        /* \"#utility.yul\":6523:6524   */\n      0x00\n        /* \"#utility.yul\":6520:6521   */\n      dup1\n        /* \"#utility.yul\":6513:6525   */\n      revert\n        /* \"#utility.yul\":6537:6654   */\n    tag_341:\n        /* \"#utility.yul\":6646:6647   */\n      0x00\n        /* \"#utility.yul\":6643:6644   */\n      dup1\n        /* \"#utility.yul\":6636:6648   */\n      revert\n        /* \"#utility.yul\":6660:6840   */\n    tag_213:\n        /* \"#utility.yul\":6708:6785   */\n      0x4e487b7100000000000000000000000000000000000000000000000000000000\n        /* \"#utility.yul\":6705:6706   */\n      0x00\n        /* \"#utility.yul\":6698:6786   */\n      mstore\n        /* \"#utility.yul\":6805:6809   */\n      0x41\n        /* \"#utility.yul\":6802:6803   */\n      0x04\n        /* \"#utility.yul\":6795:6810   */\n      mstore\n        /* \"#utility.yul\":6829:6833   */\n      0x24\n        /* \"#utility.yul\":6826:6827   */\n      0x00\n        /* \"#utility.yul\":6819:6834   */\n      revert\n        /* \"#utility.yul\":6846:7127   */\n    tag_342:\n        /* \"#utility.yul\":6929:6956   */\n      tag_488\n        /* \"#utility.yul\":6951:6955   */\n      dup3\n        /* \"#utility.yul\":6929:6956   */\n      tag_322\n      jump\t// in\n    tag_488:\n        /* \"#utility.yul\":6921:6927   */\n      dup2\n        /* \"#utility.yul\":6917:6957   */\n      add\n        /* \"#utility.yul\":7059:7065   */\n      dup2\n        /* \"#utility.yul\":7047:7057   */\n      dup2\n        /* \"#utility.yul\":7044:7066   */\n      lt\n        /* \"#utility.yul\":7023:7041   */\n      0xffffffffffffffff\n        /* \"#utility.yul\":7011:7021   */\n      dup3\n        /* \"#utility.yul\":7008:7042   */\n      gt\n        /* \"#utility.yul\":7005:7067   */\n      or\n        /* \"#utility.yul\":7002:7090   */\n      iszero\n      tag_489\n      jumpi\n        /* \"#utility.yul\":7070:7088   */\n      tag_490\n      tag_213\n      jump\t// in\n    tag_490:\n        /* \"#utility.yul\":7002:7090   */\n    tag_489:\n        /* \"#utility.yul\":7110:7120   */\n      dup1\n        /* \"#utility.yul\":7106:7108   */\n      0x40\n        /* \"#utility.yul\":7099:7121   */\n      mstore\n        /* \"#utility.yul\":6889:7127   */\n      pop\n        /* \"#utility.yul\":6846:7127   */\n      pop\n      pop\n      jump\t// out\n        /* \"#utility.yul\":7133:7262   */\n    tag_343:\n        /* \"#utility.yul\":7167:7173   */\n      0x00\n        /* \"#utility.yul\":7194:7214   */\n      tag_492\n      tag_324\n      jump\t// in\n    tag_492:\n        /* \"#utility.yul\":7184:7214   */\n      swap1\n      pop\n        /* \"#utility.yul\":7223:7256   */\n      tag_493\n        /* \"#utility.yul\":7251:7255   */\n      dup3\n        /* \"#utility.yul\":7243:7249   */\n      dup3\n        /* \"#utility.yul\":7223:7256   */\n      tag_342\n      jump\t// in\n    tag_493:\n        /* \"#utility.yul\":7133:7262   */\n      swap2\n      swap1\n      pop\n      jump\t// out\n        /* \"#utility.yul\":7268:7576   */\n    tag_344:\n        /* \"#utility.yul\":7330:7334   */\n      0x00\n        /* \"#utility.yul\":7420:7438   */\n      0xffffffffffffffff\n        /* \"#utility.yul\":7412:7418   */\n      dup3\n        /* \"#utility.yul\":7409:7439   */\n      gt\n        /* \"#utility.yul\":7406:7462   */\n      iszero\n      tag_495\n      jumpi\n        /* \"#utility.yul\":7442:7460   */\n      tag_496\n      tag_213\n      jump\t// in\n    tag_496:\n        /* \"#utility.yul\":7406:7462   */\n    tag_495:\n        /* \"#utility.yul\":7480:7509   */\n      tag_497\n        /* \"#utility.yul\":7502:7508   */\n      dup3\n        /* \"#utility.yul\":7480:7509   */\n      tag_322\n      jump\t// in\n    tag_497:\n        /* \"#utility.yul\":7472:7509   */\n      swap1\n      pop\n        /* \"#utility.yul\":7564:7568   */\n      0x20\n        /* \"#utility.yul\":7558:7562   */\n      dup2\n        /* \"#utility.yul\":7554:7569   */\n      add\n        /* \"#utility.yul\":7546:7569   */\n      swap1\n      pop\n        /* \"#utility.yul\":7268:7576   */\n      swap2\n      swap1\n      pop\n      jump\t// out\n        /* \"#utility.yul\":7582:7728   */\n    tag_345:\n        /* \"#utility.yul\":7679:7685   */\n      dup3\n        /* \"#utility.yul\":7674:7677   */\n      dup2\n        /* \"#utility.yul\":7669:7672   */\n      dup4\n        /* \"#utility.yul\":7656:7686   */\n      calldatacopy\n        /* \"#utility.yul\":7720:7721   */\n      0x00\n        /* \"#utility.yul\":7711:7717   */\n      dup4\n        /* \"#utility.yul\":7706:7709   */\n      dup4\n        /* \"#utility.yul\":7702:7718   */\n      add\n        /* \"#utility.yul\":7695:7722   */\n      mstore\n        /* \"#utility.yul\":7582:7728   */\n      pop\n      pop\n      pop\n      jump\t// out\n        /* \"#utility.yul\":7734:8159   */\n    tag_346:\n        /* \"#utility.yul\":7812:7817   */\n      0x00\n        /* \"#utility.yul\":7837:7903   */\n      tag_500\n        /* \"#utility.yul\":7853:7902   */\n      tag_501\n        /* \"#utility.yul\":7895:7901   */\n      dup5\n        /* \"#utility.yul\":7853:7902   */\n      tag_344\n      jump\t// in\n    tag_501:\n        /* \"#utility.yul\":7837:7903   */\n      tag_343\n      jump\t// in\n    tag_500:\n        /* \"#utility.yul\":7828:7903   */\n      swap1\n      pop\n        /* \"#utility.yul\":7926:7932   */\n      dup3\n        /* \"#utility.yul\":7919:7924   */\n      dup2\n        /* \"#utility.yul\":7912:7933   */\n      mstore\n        /* \"#utility.yul\":7964:7968   */\n      0x20\n        /* \"#utility.yul\":7957:7962   */\n      dup2\n        /* \"#utility.yul\":7953:7969   */\n      add\n        /* \"#utility.yul\":8002:8005   */\n      dup5\n        /* \"#utility.yul\":7993:7999   */\n      dup5\n        /* \"#utility.yul\":7988:7991   */\n      dup5\n        /* \"#utility.yul\":7984:8000   */\n      add\n        /* \"#utility.yul\":7981:8006   */\n      gt\n        /* \"#utility.yul\":7978:8090   */\n      iszero\n      tag_502\n      jumpi\n        /* \"#utility.yul\":8009:8088   */\n      tag_503\n      tag_341\n      jump\t// in\n    tag_503:\n        /* \"#utility.yul\":7978:8090   */\n    tag_502:\n        /* \"#utility.yul\":8099:8153   */\n      tag_504\n        /* \"#utility.yul\":8146:8152   */\n      dup5\n        /* \"#utility.yul\":8141:8144   */\n      dup3\n        /* \"#utility.yul\":8136:8139   */\n      dup6\n        /* \"#utility.yul\":8099:8153   */\n      tag_345\n      jump\t// in\n    tag_504:\n        /* \"#utility.yul\":7818:8159   */\n      pop\n        /* \"#utility.yul\":7734:8159   */\n      swap4\n      swap3\n      pop\n      pop\n      pop\n      jump\t// out\n        /* \"#utility.yul\":8179:8519   */\n    tag_347:\n        /* \"#utility.yul\":8235:8240   */\n      0x00\n        /* \"#utility.yul\":8284:8287   */\n      dup3\n        /* \"#utility.yul\":8277:8281   */\n      0x1f\n        /* \"#utility.yul\":8269:8275   */\n      dup4\n        /* \"#utility.yul\":8265:8282   */\n      add\n        /* \"#utility.yul\":8261:8288   */\n      slt\n        /* \"#utility.yul\":8251:8373   */\n      tag_506\n      jumpi\n        /* \"#utility.yul\":8292:8371   */\n      tag_507\n      tag_340\n      jump\t// in\n    tag_507:\n        /* \"#utility.yul\":8251:8373   */\n    tag_506:\n        /* \"#utility.yul\":8409:8415   */\n      dup2\n        /* \"#utility.yul\":8396:8416   */\n      calldataload\n        /* \"#utility.yul\":8434:8513   */\n      tag_508\n        /* \"#utility.yul\":8509:8512   */\n      dup5\n        /* \"#utility.yul\":8501:8507   */\n      dup3\n        /* \"#utility.yul\":8494:8498   */\n      0x20\n        /* \"#utility.yul\":8486:8492   */\n      dup7\n        /* \"#utility.yul\":8482:8499   */\n      add\n        /* \"#utility.yul\":8434:8513   */\n      tag_346\n      jump\t// in\n    tag_508:\n        /* \"#utility.yul\":8425:8513   */\n      swap2\n      pop\n        /* \"#utility.yul\":8241:8519   */\n      pop\n        /* \"#utility.yul\":8179:8519   */\n      swap3\n      swap2\n      pop\n      pop\n      jump\t// out\n        /* \"#utility.yul\":8525:9324   */\n    tag_89:\n        /* \"#utility.yul\":8612:8618   */\n      0x00\n        /* \"#utility.yul\":8620:8626   */\n      dup1\n        /* \"#utility.yul\":8628:8634   */\n      0x00\n        /* \"#utility.yul\":8677:8679   */\n      0x60\n        /* \"#utility.yul\":8665:8674   */\n      dup5\n        /* \"#utility.yul\":8656:8663   */\n      dup7\n        /* \"#utility.yul\":8652:8675   */\n      sub\n        /* \"#utility.yul\":8648:8680   */\n      slt\n        /* \"#utility.yul\":8645:8764   */\n      iszero\n      tag_510\n      jumpi\n        /* \"#utility.yul\":8683:8762   */\n      tag_511\n      tag_325\n      jump\t// in\n    tag_511:\n        /* \"#utility.yul\":8645:8764   */\n    tag_510:\n        /* \"#utility.yul\":8831:8832   */\n      0x00\n        /* \"#utility.yul\":8820:8829   */\n      dup5\n        /* \"#utility.yul\":8816:8833   */\n      add\n        /* \"#utility.yul\":8803:8834   */\n      calldataload\n        /* \"#utility.yul\":8861:8879   */\n      0xffffffffffffffff\n        /* \"#utility.yul\":8853:8859   */\n      dup2\n        /* \"#utility.yul\":8850:8880   */\n      gt\n        /* \"#utility.yul\":8847:8964   */\n      iszero\n      tag_512\n      jumpi\n        /* \"#utility.yul\":8883:8962   */\n      tag_513\n      tag_326\n      jump\t// in\n    tag_513:\n        /* \"#utility.yul\":8847:8964   */\n    tag_512:\n        /* \"#utility.yul\":8988:9051   */\n      tag_514\n        /* \"#utility.yul\":9043:9050   */\n      dup7\n        /* \"#utility.yul\":9034:9040   */\n      dup3\n        /* \"#utility.yul\":9023:9032   */\n      dup8\n        /* \"#utility.yul\":9019:9041   */\n      add\n        /* \"#utility.yul\":8988:9051   */\n      tag_347\n      jump\t// in\n    tag_514:\n        /* \"#utility.yul\":8978:9051   */\n      swap4\n      pop\n        /* \"#utility.yul\":8774:9061   */\n      pop\n        /* \"#utility.yul\":9100:9102   */\n      0x20\n        /* \"#utility.yul\":9126:9179   */\n      tag_515\n        /* \"#utility.yul\":9171:9178   */\n      dup7\n        /* \"#utility.yul\":9162:9168   */\n      dup3\n        /* \"#utility.yul\":9151:9160   */\n      dup8\n        /* \"#utility.yul\":9147:9169   */\n      add\n        /* \"#utility.yul\":9126:9179   */\n      tag_333\n      jump\t// in\n    tag_515:\n        /* \"#utility.yul\":9116:9179   */\n      swap3\n      pop\n        /* \"#utility.yul\":9071:9189   */\n      pop\n        /* \"#utility.yul\":9228:9230   */\n      0x40\n        /* \"#utility.yul\":9254:9307   */\n      tag_516\n        /* \"#utility.yul\":9299:9306   */\n      dup7\n        /* \"#utility.yul\":9290:9296   */\n      dup3\n        /* \"#utility.yul\":9279:9288   */\n      dup8\n        /* \"#utility.yul\":9275:9297   */\n      add\n        /* \"#utility.yul\":9254:9307   */\n      tag_333\n      jump\t// in\n    tag_516:\n        /* \"#utility.yul\":9244:9307   */\n      swap2\n      pop\n        /* \"#utility.yul\":9199:9317   */\n      pop\n        /* \"#utility.yul\":8525:9324   */\n      swap3\n      pop\n      swap3\n      pop\n      swap3\n      jump\t// out\n        /* \"#utility.yul\":9330:9474   */\n    tag_348:\n        /* \"#utility.yul\":9427:9433   */\n      0x00\n        /* \"#utility.yul\":9461:9466   */\n      dup2\n        /* \"#utility.yul\":9455:9467   */\n      mload\n        /* \"#utility.yul\":9445:9467   */\n      swap1\n      pop\n        /* \"#utility.yul\":9330:9474   */\n      swap2\n      swap1\n      pop\n      jump\t// out\n        /* \"#utility.yul\":9480:9694   */\n    tag_349:\n        /* \"#utility.yul\":9609:9620   */\n      0x00\n        /* \"#utility.yul\":9643:9649   */\n      dup3\n        /* \"#utility.yul\":9638:9641   */\n      dup3\n        /* \"#utility.yul\":9631:9650   */\n      mstore\n        /* \"#utility.yul\":9683:9687   */\n      0x20\n        /* \"#utility.yul\":9678:9681   */\n      dup3\n        /* \"#utility.yul\":9674:9688   */\n      add\n        /* \"#utility.yul\":9659:9688   */\n      swap1\n      pop\n        /* \"#utility.yul\":9480:9694   */\n      swap3\n      swap2\n      pop\n      pop\n      jump\t// out\n        /* \"#utility.yul\":9700:9862   */\n    tag_350:\n        /* \"#utility.yul\":9797:9801   */\n      0x00\n        /* \"#utility.yul\":9820:9823   */\n      dup2\n        /* \"#utility.yul\":9812:9823   */\n      swap1\n      pop\n        /* \"#utility.yul\":9850:9854   */\n      0x20\n        /* \"#utility.yul\":9845:9848   */\n      dup3\n        /* \"#utility.yul\":9841:9855   */\n      add\n        /* \"#utility.yul\":9833:9855   */\n      swap1\n      pop\n        /* \"#utility.yul\":9700:9862   */\n      swap2\n      swap1\n      pop\n      jump\t// out\n        /* \"#utility.yul\":9868:10027   */\n    tag_351:\n        /* \"#utility.yul\":9942:9953   */\n      0x00\n        /* \"#utility.yul\":9976:9982   */\n      dup3\n        /* \"#utility.yul\":9971:9974   */\n      dup3\n        /* \"#utility.yul\":9964:9983   */\n      mstore\n        /* \"#utility.yul\":10016:10020   */\n      0x20\n        /* \"#utility.yul\":10011:10014   */\n      dup3\n        /* \"#utility.yul\":10007:10021   */\n      add\n        /* \"#utility.yul\":9992:10021   */\n      swap1\n      pop\n        /* \"#utility.yul\":9868:10027   */\n      swap3\n      swap2\n      pop\n      pop\n      jump\t// out\n        /* \"#utility.yul\":10033:10390   */\n    tag_352:\n        /* \"#utility.yul\":10111:10114   */\n      0x00\n        /* \"#utility.yul\":10139:10178   */\n      tag_522\n        /* \"#utility.yul\":10172:10177   */\n      dup3\n        /* \"#utility.yul\":10139:10178   */\n      tag_319\n      jump\t// in\n    tag_522:\n        /* \"#utility.yul\":10194:10255   */\n      tag_523\n        /* \"#utility.yul\":10248:10254   */\n      dup2\n        /* \"#utility.yul\":10243:10246   */\n      dup6\n        /* \"#utility.yul\":10194:10255   */\n      tag_351\n      jump\t// in\n    tag_523:\n        /* \"#utility.yul\":10187:10255   */\n      swap4\n      pop\n        /* \"#utility.yul\":10264:10329   */\n      tag_524\n        /* \"#utility.yul\":10322:10328   */\n      dup2\n        /* \"#utility.yul\":10317:10320   */\n      dup6\n        /* \"#utility.yul\":10310:10314   */\n      0x20\n        /* \"#utility.yul\":10303:10308   */\n      dup7\n        /* \"#utility.yul\":10299:10315   */\n      add\n        /* \"#utility.yul\":10264:10329   */\n      tag_321\n      jump\t// in\n    tag_524:\n        /* \"#utility.yul\":10354:10383   */\n      tag_525\n        /* \"#utility.yul\":10376:10382   */\n      dup2\n        /* \"#utility.yul\":10354:10383   */\n      tag_322\n      jump\t// in\n    tag_525:\n        /* \"#utility.yul\":10349:10352   */\n      dup5\n        /* \"#utility.yul\":10345:10384   */\n      add\n        /* \"#utility.yul\":10338:10384   */\n      swap2\n      pop\n        /* \"#utility.yul\":10115:10390   */\n      pop\n        /* \"#utility.yul\":10033:10390   */\n      swap3\n      swap2\n      pop\n      pop\n      jump\t// out\n        /* \"#utility.yul\":10396:10504   */\n    tag_353:\n        /* \"#utility.yul\":10473:10497   */\n      tag_527\n        /* \"#utility.yul\":10491:10496   */\n      dup2\n        /* \"#utility.yul\":10473:10497   */\n      tag_331\n      jump\t// in\n    tag_527:\n        /* \"#utility.yul\":10468:10471   */\n      dup3\n        /* \"#utility.yul\":10461:10498   */\n      mstore\n        /* \"#utility.yul\":10396:10504   */\n      pop\n      pop\n      jump\t// out\n        /* \"#utility.yul\":10584:11370   */\n    tag_354:\n        /* \"#utility.yul\":10703:10706   */\n      0x00\n        /* \"#utility.yul\":10739:10743   */\n      0x60\n        /* \"#utility.yul\":10734:10737   */\n      dup4\n        /* \"#utility.yul\":10730:10744   */\n      add\n        /* \"#utility.yul\":10830:10834   */\n      0x00\n        /* \"#utility.yul\":10823:10828   */\n      dup4\n        /* \"#utility.yul\":10819:10835   */\n      add\n        /* \"#utility.yul\":10813:10836   */\n      mload\n        /* \"#utility.yul\":10883:10886   */\n      dup5\n        /* \"#utility.yul\":10877:10881   */\n      dup3\n        /* \"#utility.yul\":10873:10887   */\n      sub\n        /* \"#utility.yul\":10866:10870   */\n      0x00\n        /* \"#utility.yul\":10861:10864   */\n      dup7\n        /* \"#utility.yul\":10857:10871   */\n      add\n        /* \"#utility.yul\":10850:10888   */\n      mstore\n        /* \"#utility.yul\":10909:10982   */\n      tag_529\n        /* \"#utility.yul\":10977:10981   */\n      dup3\n        /* \"#utility.yul\":10963:10975   */\n      dup3\n        /* \"#utility.yul\":10909:10982   */\n      tag_352\n      jump\t// in\n    tag_529:\n        /* \"#utility.yul\":10901:10982   */\n      swap2\n      pop\n        /* \"#utility.yul\":10754:10993   */\n      pop\n        /* \"#utility.yul\":11076:11080   */\n      0x20\n        /* \"#utility.yul\":11069:11074   */\n      dup4\n        /* \"#utility.yul\":11065:11081   */\n      add\n        /* \"#utility.yul\":11059:11082   */\n      mload\n        /* \"#utility.yul\":11095:11158   */\n      tag_530\n        /* \"#utility.yul\":11152:11156   */\n      0x20\n        /* \"#utility.yul\":11147:11150   */\n      dup7\n        /* \"#utility.yul\":11143:11157   */\n      add\n        /* \"#utility.yul\":11129:11141   */\n      dup3\n        /* \"#utility.yul\":11095:11158   */\n      tag_353\n      jump\t// in\n    tag_530:\n        /* \"#utility.yul\":11003:11168   */\n      pop\n        /* \"#utility.yul\":11251:11255   */\n      0x40\n        /* \"#utility.yul\":11244:11249   */\n      dup4\n        /* \"#utility.yul\":11240:11256   */\n      add\n        /* \"#utility.yul\":11234:11257   */\n      mload\n        /* \"#utility.yul\":11270:11333   */\n      tag_531\n        /* \"#utility.yul\":11327:11331   */\n      0x40\n        /* \"#utility.yul\":11322:11325   */\n      dup7\n        /* \"#utility.yul\":11318:11332   */\n      add\n        /* \"#utility.yul\":11304:11316   */\n      dup3\n        /* \"#utility.yul\":11270:11333   */\n      tag_353\n      jump\t// in\n    tag_531:\n        /* \"#utility.yul\":11178:11343   */\n      pop\n        /* \"#utility.yul\":11360:11364   */\n      dup1\n        /* \"#utility.yul\":11353:11364   */\n      swap2\n      pop\n        /* \"#utility.yul\":10708:11370   */\n      pop\n        /* \"#utility.yul\":10584:11370   */\n      swap3\n      swap2\n      pop\n      pop\n      jump\t// out\n        /* \"#utility.yul\":11376:11652   */\n    tag_355:\n        /* \"#utility.yul\":11505:11515   */\n      0x00\n        /* \"#utility.yul\":11540:11646   */\n      tag_533\n        /* \"#utility.yul\":11642:11645   */\n      dup4\n        /* \"#utility.yul\":11634:11640   */\n      dup4\n        /* \"#utility.yul\":11540:11646   */\n      tag_354\n      jump\t// in\n    tag_533:\n        /* \"#utility.yul\":11526:11646   */\n      swap1\n      pop\n        /* \"#utility.yul\":11376:11652   */\n      swap3\n      swap2\n      pop\n      pop\n      jump\t// out\n        /* \"#utility.yul\":11658:11801   */\n    tag_356:\n        /* \"#utility.yul\":11758:11762   */\n      0x00\n        /* \"#utility.yul\":11790:11794   */\n      0x20\n        /* \"#utility.yul\":11785:11788   */\n      dup3\n        /* \"#utility.yul\":11781:11795   */\n      add\n        /* \"#utility.yul\":11773:11795   */\n      swap1\n      pop\n        /* \"#utility.yul\":11658:11801   */\n      swap2\n      swap1\n      pop\n      jump\t// out\n        /* \"#utility.yul\":11885:13036   */\n    tag_357:\n        /* \"#utility.yul\":12064:12067   */\n      0x00\n        /* \"#utility.yul\":12093:12177   */\n      tag_536\n        /* \"#utility.yul\":12171:12176   */\n      dup3\n        /* \"#utility.yul\":12093:12177   */\n      tag_348\n      jump\t// in\n    tag_536:\n        /* \"#utility.yul\":12193:12309   */\n      tag_537\n        /* \"#utility.yul\":12302:12308   */\n      dup2\n        /* \"#utility.yul\":12297:12300   */\n      dup6\n        /* \"#utility.yul\":12193:12309   */\n      tag_349\n      jump\t// in\n    tag_537:\n        /* \"#utility.yul\":12186:12309   */\n      swap4\n      pop\n        /* \"#utility.yul\":12335:12338   */\n      dup4\n        /* \"#utility.yul\":12380:12384   */\n      0x20\n        /* \"#utility.yul\":12372:12378   */\n      dup3\n        /* \"#utility.yul\":12368:12385   */\n      mul\n        /* \"#utility.yul\":12363:12366   */\n      dup6\n        /* \"#utility.yul\":12359:12386   */\n      add\n        /* \"#utility.yul\":12410:12496   */\n      tag_538\n        /* \"#utility.yul\":12490:12495   */\n      dup6\n        /* \"#utility.yul\":12410:12496   */\n      tag_350\n      jump\t// in\n    tag_538:\n        /* \"#utility.yul\":12519:12526   */\n      dup1\n        /* \"#utility.yul\":12550:12551   */\n      0x00\n        /* \"#utility.yul\":12535:12991   */\n    tag_539:\n        /* \"#utility.yul\":12560:12566   */\n      dup6\n        /* \"#utility.yul\":12557:12558   */\n      dup2\n        /* \"#utility.yul\":12554:12567   */\n      lt\n        /* \"#utility.yul\":12535:12991   */\n      iszero\n      tag_541\n      jumpi\n        /* \"#utility.yul\":12631:12640   */\n      dup5\n        /* \"#utility.yul\":12625:12629   */\n      dup5\n        /* \"#utility.yul\":12621:12641   */\n      sub\n        /* \"#utility.yul\":12616:12619   */\n      dup10\n        /* \"#utility.yul\":12609:12642   */\n      mstore\n        /* \"#utility.yul\":12682:12688   */\n      dup2\n        /* \"#utility.yul\":12676:12689   */\n      mload\n        /* \"#utility.yul\":12710:12834   */\n      tag_542\n        /* \"#utility.yul\":12829:12833   */\n      dup6\n        /* \"#utility.yul\":12814:12827   */\n      dup3\n        /* \"#utility.yul\":12710:12834   */\n      tag_355\n      jump\t// in\n    tag_542:\n        /* \"#utility.yul\":12702:12834   */\n      swap5\n      pop\n        /* \"#utility.yul\":12857:12947   */\n      tag_543\n        /* \"#utility.yul\":12940:12946   */\n      dup4\n        /* \"#utility.yul\":12857:12947   */\n      tag_356\n      jump\t// in\n    tag_543:\n        /* \"#utility.yul\":12847:12947   */\n      swap3\n      pop\n        /* \"#utility.yul\":12976:12980   */\n      0x20\n        /* \"#utility.yul\":12971:12974   */\n      dup11\n        /* \"#utility.yul\":12967:12981   */\n      add\n        /* \"#utility.yul\":12960:12981   */\n      swap10\n      pop\n        /* \"#utility.yul\":12595:12991   */\n      pop\n        /* \"#utility.yul\":12582:12583   */\n      0x01\n        /* \"#utility.yul\":12579:12580   */\n      dup2\n        /* \"#utility.yul\":12575:12584   */\n      add\n        /* \"#utility.yul\":12570:12584   */\n      swap1\n      pop\n        /* \"#utility.yul\":12535:12991   */\n      jump(tag_539)\n    tag_541:\n        /* \"#utility.yul\":12539:12553   */\n      pop\n        /* \"#utility.yul\":13007:13011   */\n      dup3\n        /* \"#utility.yul\":13000:13011   */\n      swap8\n      pop\n        /* \"#utility.yul\":13027:13030   */\n      dup8\n        /* \"#utility.yul\":13020:13030   */\n      swap6\n      pop\n        /* \"#utility.yul\":12069:13036   */\n      pop\n      pop\n      pop\n      pop\n      pop\n        /* \"#utility.yul\":11885:13036   */\n      swap3\n      swap2\n      pop\n      pop\n      jump\t// out\n        /* \"#utility.yul\":13042:13535   */\n    tag_108:\n        /* \"#utility.yul\":13245:13249   */\n      0x00\n        /* \"#utility.yul\":13283:13285   */\n      0x20\n        /* \"#utility.yul\":13272:13281   */\n      dup3\n        /* \"#utility.yul\":13268:13286   */\n      add\n        /* \"#utility.yul\":13260:13286   */\n      swap1\n      pop\n        /* \"#utility.yul\":13332:13341   */\n      dup2\n        /* \"#utility.yul\":13326:13330   */\n      dup2\n        /* \"#utility.yul\":13322:13342   */\n      sub\n        /* \"#utility.yul\":13318:13319   */\n      0x00\n        /* \"#utility.yul\":13307:13316   */\n      dup4\n        /* \"#utility.yul\":13303:13320   */\n      add\n        /* \"#utility.yul\":13296:13343   */\n      mstore\n        /* \"#utility.yul\":13360:13528   */\n      tag_545\n        /* \"#utility.yul\":13523:13527   */\n      dup2\n        /* \"#utility.yul\":13514:13520   */\n      dup5\n        /* \"#utility.yul\":13360:13528   */\n      tag_357\n      jump\t// in\n    tag_545:\n        /* \"#utility.yul\":13352:13528   */\n      swap1\n      pop\n        /* \"#utility.yul\":13042:13535   */\n      swap3\n      swap2\n      pop\n      pop\n      jump\t// out\n        /* \"#utility.yul\":13541:14015   */\n    tag_111:\n        /* \"#utility.yul\":13609:13615   */\n      0x00\n        /* \"#utility.yul\":13617:13623   */\n      dup1\n        /* \"#utility.yul\":13666:13668   */\n      0x40\n        /* \"#utility.yul\":13654:13663   */\n      dup4\n        /* \"#utility.yul\":13645:13652   */\n      dup6\n        /* \"#utility.yul\":13641:13664   */\n      sub\n        /* \"#utility.yul\":13637:13669   */\n      slt\n        /* \"#utility.yul\":13634:13753   */\n      iszero\n      tag_547\n      jumpi\n        /* \"#utility.yul\":13672:13751   */\n      tag_548\n      tag_325\n      jump\t// in\n    tag_548:\n        /* \"#utility.yul\":13634:13753   */\n    tag_547:\n        /* \"#utility.yul\":13792:13793   */\n      0x00\n        /* \"#utility.yul\":13817:13870   */\n      tag_549\n        /* \"#utility.yul\":13862:13869   */\n      dup6\n        /* \"#utility.yul\":13853:13859   */\n      dup3\n        /* \"#utility.yul\":13842:13851   */\n      dup7\n        /* \"#utility.yul\":13838:13860   */\n      add\n        /* \"#utility.yul\":13817:13870   */\n      tag_330\n      jump\t// in\n    tag_549:\n        /* \"#utility.yul\":13807:13870   */\n      swap3\n      pop\n        /* \"#utility.yul\":13763:13880   */\n      pop\n        /* \"#utility.yul\":13919:13921   */\n      0x20\n        /* \"#utility.yul\":13945:13998   */\n      tag_550\n        /* \"#utility.yul\":13990:13997   */\n      dup6\n        /* \"#utility.yul\":13981:13987   */\n      dup3\n        /* \"#utility.yul\":13970:13979   */\n      dup7\n        /* \"#utility.yul\":13966:13988   */\n      add\n        /* \"#utility.yul\":13945:13998   */\n      tag_330\n      jump\t// in\n    tag_550:\n        /* \"#utility.yul\":13935:13998   */\n      swap2\n      pop\n        /* \"#utility.yul\":13890:14008   */\n      pop\n        /* \"#utility.yul\":13541:14015   */\n      swap3\n      pop\n      swap3\n      swap1\n      pop\n      jump\t// out\n        /* \"#utility.yul\":14021:14201   */\n    tag_358:\n        /* \"#utility.yul\":14069:14146   */\n      0x4e487b7100000000000000000000000000000000000000000000000000000000\n        /* \"#utility.yul\":14066:14067   */\n      0x00\n        /* \"#utility.yul\":14059:14147   */\n      mstore\n        /* \"#utility.yul\":14166:14170   */\n      0x22\n        /* \"#utility.yul\":14163:14164   */\n      0x04\n        /* \"#utility.yul\":14156:14171   */\n      mstore\n        /* \"#utility.yul\":14190:14194   */\n      0x24\n        /* \"#utility.yul\":14187:14188   */\n      0x00\n        /* \"#utility.yul\":14180:14195   */\n      revert\n        /* \"#utility.yul\":14207:14527   */\n    tag_125:\n        /* \"#utility.yul\":14251:14257   */\n      0x00\n        /* \"#utility.yul\":14288:14289   */\n      0x02\n        /* \"#utility.yul\":14282:14286   */\n      dup3\n        /* \"#utility.yul\":14278:14290   */\n      div\n        /* \"#utility.yul\":14268:14290   */\n      swap1\n      pop\n        /* \"#utility.yul\":14335:14336   */\n      0x01\n        /* \"#utility.yul\":14329:14333   */\n      dup3\n        /* \"#utility.yul\":14325:14337   */\n      and\n        /* \"#utility.yul\":14356:14374   */\n      dup1\n        /* \"#utility.yul\":14346:14427   */\n      tag_553\n      jumpi\n        /* \"#utility.yul\":14412:14416   */\n      0x7f\n        /* \"#utility.yul\":14404:14410   */\n      dup3\n        /* \"#utility.yul\":14400:14417   */\n      and\n        /* \"#utility.yul\":14390:14417   */\n      swap2\n      pop\n        /* \"#utility.yul\":14346:14427   */\n    tag_553:\n        /* \"#utility.yul\":14474:14476   */\n      0x20\n        /* \"#utility.yul\":14466:14472   */\n      dup3\n        /* \"#utility.yul\":14463:14477   */\n      lt\n        /* \"#utility.yul\":14443:14461   */\n      dup2\n        /* \"#utility.yul\":14440:14478   */\n      sub\n        /* \"#utility.yul\":14437:14521   */\n      tag_554\n      jumpi\n        /* \"#utility.yul\":14493:14511   */\n      tag_555\n      tag_358\n      jump\t// in\n    tag_555:\n        /* \"#utility.yul\":14437:14521   */\n    tag_554:\n        /* \"#utility.yul\":14258:14527   */\n      pop\n        /* \"#utility.yul\":14207:14527   */\n      swap2\n      swap1\n      pop\n      jump\t// out\n        /* \"#utility.yul\":14533:14713   */\n    tag_359:\n        /* \"#utility.yul\":14581:14658   */\n      0x4e487b7100000000000000000000000000000000000000000000000000000000\n        /* \"#utility.yul\":14578:14579   */\n      0x00\n        /* \"#utility.yul\":14571:14659   */\n      mstore\n        /* \"#utility.yul\":14678:14682   */\n      0x11\n        /* \"#utility.yul\":14675:14676   */\n      0x04\n        /* \"#utility.yul\":14668:14683   */\n      mstore\n        /* \"#utility.yul\":14702:14706   */\n      0x24\n        /* \"#utility.yul\":14699:14700   */\n      0x00\n        /* \"#utility.yul\":14692:14707   */\n      revert\n        /* \"#utility.yul\":14719:14910   */\n    tag_155:\n        /* \"#utility.yul\":14759:14762   */\n      0x00\n        /* \"#utility.yul\":14778:14798   */\n      tag_558\n        /* \"#utility.yul\":14796:14797   */\n      dup3\n        /* \"#utility.yul\":14778:14798   */\n      tag_331\n      jump\t// in\n    tag_558:\n        /* \"#utility.yul\":14773:14798   */\n      swap2\n      pop\n        /* \"#utility.yul\":14812:14832   */\n      tag_559\n        /* \"#utility.yul\":14830:14831   */\n      dup4\n        /* \"#utility.yul\":14812:14832   */\n      tag_331\n      jump\t// in\n    tag_559:\n        /* \"#utility.yul\":14807:14832   */\n      swap3\n      pop\n        /* \"#utility.yul\":14855:14856   */\n      dup3\n        /* \"#utility.yul\":14852:14853   */\n      dup3\n        /* \"#utility.yul\":14848:14857   */\n      add\n        /* \"#utility.yul\":14841:14857   */\n      swap1\n      pop\n        /* \"#utility.yul\":14876:14879   */\n      dup1\n        /* \"#utility.yul\":14873:14874   */\n      dup3\n        /* \"#utility.yul\":14870:14880   */\n      gt\n        /* \"#utility.yul\":14867:14903   */\n      iszero\n      tag_560\n      jumpi\n        /* \"#utility.yul\":14883:14901   */\n      tag_561\n      tag_359\n      jump\t// in\n    tag_561:\n        /* \"#utility.yul\":14867:14903   */\n    tag_560:\n        /* \"#utility.yul\":14719:14910   */\n      swap3\n      swap2\n      pop\n      pop\n      jump\t// out\n        /* \"#utility.yul\":14916:15086   */\n    tag_360:\n        /* \"#utility.yul\":15056:15078   */\n      0x496e73756666696369656e742062616c616e6365000000000000000000000000\n        /* \"#utility.yul\":15052:15053   */\n      0x00\n        /* \"#utility.yul\":15044:15050   */\n      dup3\n        /* \"#utility.yul\":15040:15054   */\n      add\n        /* \"#utility.yul\":15033:15079   */\n      mstore\n        /* \"#utility.yul\":14916:15086   */\n      pop\n      jump\t// out\n        /* \"#utility.yul\":15092:15458   */\n    tag_361:\n        /* \"#utility.yul\":15234:15237   */\n      0x00\n        /* \"#utility.yul\":15255:15322   */\n      tag_564\n        /* \"#utility.yul\":15319:15321   */\n      0x14\n        /* \"#utility.yul\":15314:15317   */\n      dup4\n        /* \"#utility.yul\":15255:15322   */\n      tag_320\n      jump\t// in\n    tag_564:\n        /* \"#utility.yul\":15248:15322   */\n      swap2\n      pop\n        /* \"#utility.yul\":15331:15424   */\n      tag_565\n        /* \"#utility.yul\":15420:15423   */\n      dup3\n        /* \"#utility.yul\":15331:15424   */\n      tag_360\n      jump\t// in\n    tag_565:\n        /* \"#utility.yul\":15449:15451   */\n      0x20\n        /* \"#utility.yul\":15444:15447   */\n      dup3\n        /* \"#utility.yul\":15440:15452   */\n      add\n        /* \"#utility.yul\":15433:15452   */\n      swap1\n      pop\n        /* \"#utility.yul\":15092:15458   */\n      swap2\n      swap1\n      pop\n      jump\t// out\n        /* \"#utility.yul\":15464:15883   */\n    tag_160:\n        /* \"#utility.yul\":15630:15634   */\n      0x00\n        /* \"#utility.yul\":15668:15670   */\n      0x20\n        /* \"#utility.yul\":15657:15666   */\n      dup3\n        /* \"#utility.yul\":15653:15671   */\n      add\n        /* \"#utility.yul\":15645:15671   */\n      swap1\n      pop\n        /* \"#utility.yul\":15717:15726   */\n      dup2\n        /* \"#utility.yul\":15711:15715   */\n      dup2\n        /* \"#utility.yul\":15707:15727   */\n      sub\n        /* \"#utility.yul\":15703:15704   */\n      0x00\n        /* \"#utility.yul\":15692:15701   */\n      dup4\n        /* \"#utility.yul\":15688:15705   */\n      add\n        /* \"#utility.yul\":15681:15728   */\n      mstore\n        /* \"#utility.yul\":15745:15876   */\n      tag_567\n        /* \"#utility.yul\":15871:15875   */\n      dup2\n        /* \"#utility.yul\":15745:15876   */\n      tag_361\n      jump\t// in\n    tag_567:\n        /* \"#utility.yul\":15737:15876   */\n      swap1\n      pop\n        /* \"#utility.yul\":15464:15883   */\n      swap2\n      swap1\n      pop\n      jump\t// out\n        /* \"#utility.yul\":15889:16067   */\n    tag_362:\n        /* \"#utility.yul\":16029:16059   */\n      0x5072696365206d7573742062652067726561746572207468616e203000000000\n        /* \"#utility.yul\":16025:16026   */\n      0x00\n        /* \"#utility.yul\":16017:16023   */\n      dup3\n        /* \"#utility.yul\":16013:16027   */\n      add\n        /* \"#utility.yul\":16006:16060   */\n      mstore\n        /* \"#utility.yul\":15889:16067   */\n      pop\n      jump\t// out\n        /* \"#utility.yul\":16073:16439   */\n    tag_363:\n        /* \"#utility.yul\":16215:16218   */\n      0x00\n        /* \"#utility.yul\":16236:16303   */\n      tag_570\n        /* \"#utility.yul\":16300:16302   */\n      0x1c\n        /* \"#utility.yul\":16295:16298   */\n      dup4\n        /* \"#utility.yul\":16236:16303   */\n      tag_320\n      jump\t// in\n    tag_570:\n        /* \"#utility.yul\":16229:16303   */\n      swap2\n      pop\n        /* \"#utility.yul\":16312:16405   */\n      tag_571\n        /* \"#utility.yul\":16401:16404   */\n      dup3\n        /* \"#utility.yul\":16312:16405   */\n      tag_362\n      jump\t// in\n    tag_571:\n        /* \"#utility.yul\":16430:16432   */\n      0x20\n        /* \"#utility.yul\":16425:16428   */\n      dup3\n        /* \"#utility.yul\":16421:16433   */\n      add\n        /* \"#utility.yul\":16414:16433   */\n      swap1\n      pop\n        /* \"#utility.yul\":16073:16439   */\n      swap2\n      swap1\n      pop\n      jump\t// out\n        /* \"#utility.yul\":16445:16864   */\n    tag_182:\n        /* \"#utility.yul\":16611:16615   */\n      0x00\n        /* \"#utility.yul\":16649:16651   */\n      0x20\n        /* \"#utility.yul\":16638:16647   */\n      dup3\n        /* \"#utility.yul\":16634:16652   */\n      add\n        /* \"#utility.yul\":16626:16652   */\n      swap1\n      pop\n        /* \"#utility.yul\":16698:16707   */\n      dup2\n        /* \"#utility.yul\":16692:16696   */\n      dup2\n        /* \"#utility.yul\":16688:16708   */\n      sub\n        /* \"#utility.yul\":16684:16685   */\n      0x00\n        /* \"#utility.yul\":16673:16682   */\n      dup4\n        /* \"#utility.yul\":16669:16686   */\n      add\n        /* \"#utility.yul\":16662:16709   */\n      mstore\n        /* \"#utility.yul\":16726:16857   */\n      tag_573\n        /* \"#utility.yul\":16852:16856   */\n      dup2\n        /* \"#utility.yul\":16726:16857   */\n      tag_363\n      jump\t// in\n    tag_573:\n        /* \"#utility.yul\":16718:16857   */\n      swap1\n      pop\n        /* \"#utility.yul\":16445:16864   */\n      swap2\n      swap1\n      pop\n      jump\t// out\n        /* \"#utility.yul\":16870:17048   */\n    tag_364:\n        /* \"#utility.yul\":17010:17040   */\n      0x53746f636b206d7573742062652067726561746572207468616e203000000000\n        /* \"#utility.yul\":17006:17007   */\n      0x00\n        /* \"#utility.yul\":16998:17004   */\n      dup3\n        /* \"#utility.yul\":16994:17008   */\n      add\n        /* \"#utility.yul\":16987:17041   */\n      mstore\n        /* \"#utility.yul\":16870:17048   */\n      pop\n      jump\t// out\n        /* \"#utility.yul\":17054:17420   */\n    tag_365:\n        /* \"#utility.yul\":17196:17199   */\n      0x00\n        /* \"#utility.yul\":17217:17284   */\n      tag_576\n        /* \"#utility.yul\":17281:17283   */\n      0x1c\n        /* \"#utility.yul\":17276:17279   */\n      dup4\n        /* \"#utility.yul\":17217:17284   */\n      tag_320\n      jump\t// in\n    tag_576:\n        /* \"#utility.yul\":17210:17284   */\n      swap2\n      pop\n        /* \"#utility.yul\":17293:17386   */\n      tag_577\n        /* \"#utility.yul\":17382:17385   */\n      dup3\n        /* \"#utility.yul\":17293:17386   */\n      tag_364\n      jump\t// in\n    tag_577:\n        /* \"#utility.yul\":17411:17413   */\n      0x20\n        /* \"#utility.yul\":17406:17409   */\n      dup3\n        /* \"#utility.yul\":17402:17414   */\n      add\n        /* \"#utility.yul\":17395:17414   */\n      swap1\n      pop\n        /* \"#utility.yul\":17054:17420   */\n      swap2\n      swap1\n      pop\n      jump\t// out\n        /* \"#utility.yul\":17426:17845   */\n    tag_185:\n        /* \"#utility.yul\":17592:17596   */\n      0x00\n        /* \"#utility.yul\":17630:17632   */\n      0x20\n        /* \"#utility.yul\":17619:17628   */\n      dup3\n        /* \"#utility.yul\":17615:17633   */\n      add\n        /* \"#utility.yul\":17607:17633   */\n      swap1\n      pop\n        /* \"#utility.yul\":17679:17688   */\n      dup2\n        /* \"#utility.yul\":17673:17677   */\n      dup2\n        /* \"#utility.yul\":17669:17689   */\n      sub\n        /* \"#utility.yul\":17665:17666   */\n      0x00\n        /* \"#utility.yul\":17654:17663   */\n      dup4\n        /* \"#utility.yul\":17650:17667   */\n      add\n        /* \"#utility.yul\":17643:17690   */\n      mstore\n        /* \"#utility.yul\":17707:17838   */\n      tag_579\n        /* \"#utility.yul\":17833:17837   */\n      dup2\n        /* \"#utility.yul\":17707:17838   */\n      tag_365\n      jump\t// in\n    tag_579:\n        /* \"#utility.yul\":17699:17838   */\n      swap1\n      pop\n        /* \"#utility.yul\":17426:17845   */\n      swap2\n      swap1\n      pop\n      jump\t// out\n        /* \"#utility.yul\":17851:18084   */\n    tag_187:\n        /* \"#utility.yul\":17890:17893   */\n      0x00\n        /* \"#utility.yul\":17913:17937   */\n      tag_581\n        /* \"#utility.yul\":17931:17936   */\n      dup3\n        /* \"#utility.yul\":17913:17937   */\n      tag_331\n      jump\t// in\n    tag_581:\n        /* \"#utility.yul\":17904:17937   */\n      swap2\n      pop\n        /* \"#utility.yul\":17959:18025   */\n      0xffffffffffffffffffffffffffffffffffffffffffffffffffffffffffffffff\n        /* \"#utility.yul\":17952:17957   */\n      dup3\n        /* \"#utility.yul\":17949:18026   */\n      sub\n        /* \"#utility.yul\":17946:18049   */\n      tag_582\n      jumpi\n        /* \"#utility.yul\":18029:18047   */\n      tag_583\n      tag_359\n      jump\t// in\n    tag_583:\n        /* \"#utility.yul\":17946:18049   */\n    tag_582:\n        /* \"#utility.yul\":18076:18077   */\n      0x01\n        /* \"#utility.yul\":18069:18074   */\n      dup3\n        /* \"#utility.yul\":18065:18078   */\n      add\n        /* \"#utility.yul\":18058:18078   */\n      swap1\n      pop\n        /* \"#utility.yul\":17851:18084   */\n      swap2\n      swap1\n      pop\n      jump\t// out\n        /* \"#utility.yul\":18090:18231   */\n    tag_366:\n        /* \"#utility.yul\":18139:18143   */\n      0x00\n        /* \"#utility.yul\":18162:18165   */\n      dup2\n        /* \"#utility.yul\":18154:18165   */\n      swap1\n      pop\n        /* \"#utility.yul\":18185:18188   */\n      dup2\n        /* \"#utility.yul\":18182:18183   */\n      0x00\n        /* \"#utility.yul\":18175:18189   */\n      mstore\n        /* \"#utility.yul\":18219:18223   */\n      0x20\n        /* \"#utility.yul\":18216:18217   */\n      0x00\n        /* \"#utility.yul\":18206:18224   */\n      keccak256\n        /* \"#utility.yul\":18198:18224   */\n      swap1\n      pop\n        /* \"#utility.yul\":18090:18231   */\n      swap2\n      swap1\n      pop\n      jump\t// out\n        /* \"#utility.yul\":18237:18330   */\n    tag_367:\n        /* \"#utility.yul\":18274:18280   */\n      0x00\n        /* \"#utility.yul\":18321:18323   */\n      0x20\n        /* \"#utility.yul\":18316:18318   */\n      0x1f\n        /* \"#utility.yul\":18309:18314   */\n      dup4\n        /* \"#utility.yul\":18305:18319   */\n      add\n        /* \"#utility.yul\":18301:18324   */\n      div\n        /* \"#utility.yul\":18291:18324   */\n      swap1\n      pop\n        /* \"#utility.yul\":18237:18330   */\n      swap2\n      swap1\n      pop\n      jump\t// out\n        /* \"#utility.yul\":18336:18443   */\n    tag_368:\n        /* \"#utility.yul\":18380:18388   */\n      0x00\n        /* \"#utility.yul\":18430:18435   */\n      dup3\n        /* \"#utility.yul\":18424:18428   */\n      dup3\n        /* \"#utility.yul\":18420:18436   */\n      shl\n        /* \"#utility.yul\":18399:18436   */\n      swap1\n      pop\n        /* \"#utility.yul\":18336:18443   */\n      swap3\n      swap2\n      pop\n      pop\n      jump\t// out\n        /* \"#utility.yul\":18449:18842   */\n    tag_369:\n        /* \"#utility.yul\":18518:18524   */\n      0x00\n        /* \"#utility.yul\":18568:18569   */\n      0x08\n        /* \"#utility.yul\":18556:18566   */\n      dup4\n        /* \"#utility.yul\":18552:18570   */\n      mul\n        /* \"#utility.yul\":18591:18688   */\n      tag_588\n        /* \"#utility.yul\":18621:18687   */\n      0xffffffffffffffffffffffffffffffffffffffffffffffffffffffffffffffff\n        /* \"#utility.yul\":18610:18619   */\n      dup3\n        /* \"#utility.yul\":18591:18688   */\n      tag_368\n      jump\t// in\n    tag_588:\n        /* \"#utility.yul\":18709:18748   */\n      tag_589\n        /* \"#utility.yul\":18739:18747   */\n      dup7\n        /* \"#utility.yul\":18728:18737   */\n      dup4\n        /* \"#utility.yul\":18709:18748   */\n      tag_368\n      jump\t// in\n    tag_589:\n        /* \"#utility.yul\":18697:18748   */\n      swap6\n      pop\n        /* \"#utility.yul\":18781:18785   */\n      dup1\n        /* \"#utility.yul\":18777:18786   */\n      not\n        /* \"#utility.yul\":18770:18775   */\n      dup5\n        /* \"#utility.yul\":18766:18787   */\n      and\n        /* \"#utility.yul\":18757:18787   */\n      swap4\n      pop\n        /* \"#utility.yul\":18830:18834   */\n      dup1\n        /* \"#utility.yul\":18820:18828   */\n      dup7\n        /* \"#utility.yul\":18816:18835   */\n      and\n        /* \"#utility.yul\":18809:18814   */\n      dup5\n        /* \"#utility.yul\":18806:18836   */\n      or\n        /* \"#utility.yul\":18796:18836   */\n      swap3\n      pop\n        /* \"#utility.yul\":18525:18842   */\n      pop\n      pop\n        /* \"#utility.yul\":18449:18842   */\n      swap4\n      swap3\n      pop\n      pop\n      pop\n      jump\t// out\n        /* \"#utility.yul\":18848:18908   */\n    tag_370:\n        /* \"#utility.yul\":18876:18879   */\n      0x00\n        /* \"#utility.yul\":18897:18902   */\n      dup2\n        /* \"#utility.yul\":18890:18902   */\n      swap1\n      pop\n        /* \"#utility.yul\":18848:18908   */\n      swap2\n      swap1\n      pop\n      jump\t// out\n        /* \"#utility.yul\":18914:19056   */\n    tag_371:\n        /* \"#utility.yul\":18964:18973   */\n      0x00\n        /* \"#utility.yul\":18997:19050   */\n      tag_592\n        /* \"#utility.yul\":19015:19049   */\n      tag_593\n        /* \"#utility.yul\":19024:19048   */\n      tag_594\n        /* \"#utility.yul\":19042:19047   */\n      dup5\n        /* \"#utility.yul\":19024:19048   */\n      tag_331\n      jump\t// in\n    tag_594:\n        /* \"#utility.yul\":19015:19049   */\n      tag_370\n      jump\t// in\n    tag_593:\n        /* \"#utility.yul\":18997:19050   */\n      tag_331\n      jump\t// in\n    tag_592:\n        /* \"#utility.yul\":18984:19050   */\n      swap1\n      pop\n        /* \"#utility.yul\":18914:19056   */\n      swap2\n      swap1\n      pop\n      jump\t// out\n        /* \"#utility.yul\":19062:19137   */\n    tag_372:\n        /* \"#utility.yul\":19105:19108   */\n      0x00\n        /* \"#utility.yul\":19126:19131   */\n      dup2\n        /* \"#utility.yul\":19119:19131   */\n      swap1\n      pop\n        /* \"#utility.yul\":19062:19137   */\n      swap2\n      swap1\n      pop\n      jump\t// out\n        /* \"#utility.yul\":19143:19412   */\n    tag_373:\n        /* \"#utility.yul\":19253:19292   */\n      tag_597\n        /* \"#utility.yul\":19284:19291   */\n      dup4\n        /* \"#utility.yul\":19253:19292   */\n      tag_371\n      jump\t// in\n    tag_597:\n        /* \"#utility.yul\":19314:19405   */\n      tag_598\n        /* \"#utility.yul\":19363:19404   */\n      tag_599\n        /* \"#utility.yul\":19387:19403   */\n      dup3\n        /* \"#utility.yul\":19363:19404   */\n      tag_372\n      jump\t// in\n    tag_599:\n        /* \"#utility.yul\":19355:19361   */\n      dup5\n        /* \"#utility.yul\":19348:19352   */\n      dup5\n        /* \"#utility.yul\":19342:19353   */\n      sload\n        /* \"#utility.yul\":19314:19405   */\n      tag_369\n      jump\t// in\n    tag_598:\n        /* \"#utility.yul\":19308:19312   */\n      dup3\n        /* \"#utility.yul\":19301:19406   */\n      sstore\n        /* \"#utility.yul\":19219:19412   */\n      pop\n        /* \"#utility.yul\":19143:19412   */\n      pop\n      pop\n      pop\n      jump\t// out\n        /* \"#utility.yul\":19418:19491   */\n    tag_374:\n        /* \"#utility.yul\":19463:19466   */\n      0x00\n        /* \"#utility.yul\":19418:19491   */\n      swap1\n      jump\t// out\n        /* \"#utility.yul\":19497:19686   */\n    tag_375:\n        /* \"#utility.yul\":19574:19606   */\n      tag_602\n      tag_374\n      jump\t// in\n    tag_602:\n        /* \"#utility.yul\":19615:19680   */\n      tag_603\n        /* \"#utility.yul\":19673:19679   */\n      dup2\n        /* \"#utility.yul\":19665:19671   */\n      dup5\n        /* \"#utility.yul\":19659:19663   */\n      dup5\n        /* \"#utility.yul\":19615:19680   */\n      tag_373\n      jump\t// in\n    tag_603:\n        /* \"#utility.yul\":19550:19686   */\n      pop\n        /* \"#utility.yul\":19497:19686   */\n      pop\n      pop\n      jump\t// out\n        /* \"#utility.yul\":19692:19878   */\n    tag_376:\n        /* \"#utility.yul\":19752:19872   */\n    tag_605:\n        /* \"#utility.yul\":19769:19772   */\n      dup2\n        /* \"#utility.yul\":19762:19767   */\n      dup2\n        /* \"#utility.yul\":19759:19773   */\n      lt\n        /* \"#utility.yul\":19752:19872   */\n      iszero\n      tag_607\n      jumpi\n        /* \"#utility.yul\":19823:19862   */\n      tag_608\n        /* \"#utility.yul\":19860:19861   */\n      0x00\n        /* \"#utility.yul\":19853:19858   */\n      dup3\n        /* \"#utility.yul\":19823:19862   */\n      tag_375\n      jump\t// in\n    tag_608:\n        /* \"#utility.yul\":19796:19797   */\n      0x01\n        /* \"#utility.yul\":19789:19794   */\n      dup2\n        /* \"#utility.yul\":19785:19798   */\n      add\n        /* \"#utility.yul\":19776:19798   */\n      swap1\n      pop\n        /* \"#utility.yul\":19752:19872   */\n      jump(tag_605)\n    tag_607:\n        /* \"#utility.yul\":19692:19878   */\n      pop\n      pop\n      jump\t// out\n        /* \"#utility.yul\":19884:20427   */\n    tag_377:\n        /* \"#utility.yul\":19985:19987   */\n      0x1f\n        /* \"#utility.yul\":19980:19983   */\n      dup3\n        /* \"#utility.yul\":19977:19988   */\n      gt\n        /* \"#utility.yul\":19974:20420   */\n      iszero\n      tag_610\n      jumpi\n        /* \"#utility.yul\":20019:20057   */\n      tag_611\n        /* \"#utility.yul\":20051:20056   */\n      dup2\n        /* \"#utility.yul\":20019:20057   */\n      tag_366\n      jump\t// in\n    tag_611:\n        /* \"#utility.yul\":20103:20132   */\n      tag_612\n        /* \"#utility.yul\":20121:20131   */\n      dup5\n        /* \"#utility.yul\":20103:20132   */\n      tag_367\n      jump\t// in\n    tag_612:\n        /* \"#utility.yul\":20093:20101   */\n      dup2\n        /* \"#utility.yul\":20089:20133   */\n      add\n        /* \"#utility.yul\":20286:20288   */\n      0x20\n        /* \"#utility.yul\":20274:20284   */\n      dup6\n        /* \"#utility.yul\":20271:20289   */\n      lt\n        /* \"#utility.yul\":20268:20317   */\n      iszero\n      tag_613\n      jumpi\n        /* \"#utility.yul\":20307:20315   */\n      dup2\n        /* \"#utility.yul\":20292:20315   */\n      swap1\n      pop\n        /* \"#utility.yul\":20268:20317   */\n    tag_613:\n        /* \"#utility.yul\":20330:20410   */\n      tag_614\n        /* \"#utility.yul\":20386:20408   */\n      tag_615\n        /* \"#utility.yul\":20404:20407   */\n      dup6\n        /* \"#utility.yul\":20386:20408   */\n      tag_367\n      jump\t// in\n    tag_615:\n        /* \"#utility.yul\":20376:20384   */\n      dup4\n        /* \"#utility.yul\":20372:20409   */\n      add\n        /* \"#utility.yul\":20359:20370   */\n      dup3\n        /* \"#utility.yul\":20330:20410   */\n      tag_376\n      jump\t// in\n    tag_614:\n        /* \"#utility.yul\":19989:20420   */\n      pop\n      pop\n        /* \"#utility.yul\":19974:20420   */\n    tag_610:\n        /* \"#utility.yul\":19884:20427   */\n      pop\n      pop\n      pop\n      jump\t// out\n        /* \"#utility.yul\":20433:20550   */\n    tag_378:\n        /* \"#utility.yul\":20487:20495   */\n      0x00\n        /* \"#utility.yul\":20537:20542   */\n      dup3\n        /* \"#utility.yul\":20531:20535   */\n      dup3\n        /* \"#utility.yul\":20527:20543   */\n      shr\n        /* \"#utility.yul\":20506:20543   */\n      swap1\n      pop\n        /* \"#utility.yul\":20433:20550   */\n      swap3\n      swap2\n      pop\n      pop\n      jump\t// out\n        /* \"#utility.yul\":20556:20725   */\n    tag_379:\n        /* \"#utility.yul\":20600:20606   */\n      0x00\n        /* \"#utility.yul\":20633:20684   */\n      tag_618\n        /* \"#utility.yul\":20681:20682   */\n      0x00\n        /* \"#utility.yul\":20677:20683   */\n      not\n        /* \"#utility.yul\":20669:20674   */\n      dup5\n        /* \"#utility.yul\":20666:20667   */\n      0x08\n        /* \"#utility.yul\":20662:20675   */\n      mul\n        /* \"#utility.yul\":20633:20684   */\n      tag_378\n      jump\t// in\n    tag_618:\n        /* \"#utility.yul\":20629:20685   */\n      not\n        /* \"#utility.yul\":20714:20718   */\n      dup1\n        /* \"#utility.yul\":20708:20712   */\n      dup4\n        /* \"#utility.yul\":20704:20719   */\n      and\n        /* \"#utility.yul\":20694:20719   */\n      swap2\n      pop\n        /* \"#utility.yul\":20607:20725   */\n      pop\n        /* \"#utility.yul\":20556:20725   */\n      swap3\n      swap2\n      pop\n      pop\n      jump\t// out\n        /* \"#utility.yul\":20730:21025   */\n    tag_380:\n        /* \"#utility.yul\":20806:20810   */\n      0x00\n        /* \"#utility.yul\":20952:20981   */\n      tag_620\n        /* \"#utility.yul\":20977:20980   */\n      dup4\n        /* \"#utility.yul\":20971:20975   */\n      dup4\n        /* \"#utility.yul\":20952:20981   */\n      tag_379\n      jump\t// in\n    tag_620:\n        /* \"#utility.yul\":20944:20981   */\n      swap2\n      pop\n        /* \"#utility.yul\":21014:21017   */\n      dup3\n        /* \"#utility.yul\":21011:21012   */\n      0x02\n        /* \"#utility.yul\":21007:21018   */\n      mul\n        /* \"#utility.yul\":21001:21005   */\n      dup3\n        /* \"#utility.yul\":20998:21019   */\n      or\n        /* \"#utility.yul\":20990:21019   */\n      swap1\n      pop\n        /* \"#utility.yul\":20730:21025   */\n      swap3\n      swap2\n      pop\n      pop\n      jump\t// out\n        /* \"#utility.yul\":21030:22425   */\n    tag_189:\n        /* \"#utility.yul\":21147:21184   */\n      tag_622\n        /* \"#utility.yul\":21180:21183   */\n      dup3\n        /* \"#utility.yul\":21147:21184   */\n      tag_319\n      jump\t// in\n    tag_622:\n        /* \"#utility.yul\":21249:21267   */\n      0xffffffffffffffff\n        /* \"#utility.yul\":21241:21247   */\n      dup2\n        /* \"#utility.yul\":21238:21268   */\n      gt\n        /* \"#utility.yul\":21235:21291   */\n      iszero\n      tag_623\n      jumpi\n        /* \"#utility.yul\":21271:21289   */\n      tag_624\n      tag_213\n      jump\t// in\n    tag_624:\n        /* \"#utility.yul\":21235:21291   */\n    tag_623:\n        /* \"#utility.yul\":21315:21353   */\n      tag_625\n        /* \"#utility.yul\":21347:21351   */\n      dup3\n        /* \"#utility.yul\":21341:21352   */\n      sload\n        /* \"#utility.yul\":21315:21353   */\n      tag_125\n      jump\t// in\n    tag_625:\n        /* \"#utility.yul\":21400:21467   */\n      tag_626\n        /* \"#utility.yul\":21460:21466   */\n      dup3\n        /* \"#utility.yul\":21452:21458   */\n      dup3\n        /* \"#utility.yul\":21446:21450   */\n      dup6\n        /* \"#utility.yul\":21400:21467   */\n      tag_377\n      jump\t// in\n    tag_626:\n        /* \"#utility.yul\":21494:21495   */\n      0x00\n        /* \"#utility.yul\":21518:21522   */\n      0x20\n        /* \"#utility.yul\":21505:21522   */\n      swap1\n      pop\n        /* \"#utility.yul\":21550:21552   */\n      0x1f\n        /* \"#utility.yul\":21542:21548   */\n      dup4\n        /* \"#utility.yul\":21539:21553   */\n      gt\n        /* \"#utility.yul\":21567:21568   */\n      0x01\n        /* \"#utility.yul\":21562:22180   */\n      dup2\n      eq\n      tag_628\n      jumpi\n        /* \"#utility.yul\":22224:22225   */\n      0x00\n        /* \"#utility.yul\":22241:22247   */\n      dup5\n        /* \"#utility.yul\":22238:22315   */\n      iszero\n      tag_629\n      jumpi\n        /* \"#utility.yul\":22290:22299   */\n      dup3\n        /* \"#utility.yul\":22285:22288   */\n      dup8\n        /* \"#utility.yul\":22281:22300   */\n      add\n        /* \"#utility.yul\":22275:22301   */\n      mload\n        /* \"#utility.yul\":22266:22301   */\n      swap1\n      pop\n        /* \"#utility.yul\":22238:22315   */\n    tag_629:\n        /* \"#utility.yul\":22341:22408   */\n      tag_630\n        /* \"#utility.yul\":22401:22407   */\n      dup6\n        /* \"#utility.yul\":22394:22399   */\n      dup3\n        /* \"#utility.yul\":22341:22408   */\n      tag_380\n      jump\t// in\n    tag_630:\n        /* \"#utility.yul\":22335:22339   */\n      dup7\n        /* \"#utility.yul\":22328:22409   */\n      sstore\n        /* \"#utility.yul\":22197:22419   */\n      pop\n        /* \"#utility.yul\":21532:22419   */\n      jump(tag_627)\n        /* \"#utility.yul\":21562:22180   */\n    tag_628:\n        /* \"#utility.yul\":21614:21618   */\n      0x1f\n        /* \"#utility.yul\":21610:21619   */\n      not\n        /* \"#utility.yul\":21602:21608   */\n      dup5\n        /* \"#utility.yul\":21598:21620   */\n      and\n        /* \"#utility.yul\":21648:21685   */\n      tag_631\n        /* \"#utility.yul\":21680:21684   */\n      dup7\n        /* \"#utility.yul\":21648:21685   */\n      tag_366\n      jump\t// in\n    tag_631:\n        /* \"#utility.yul\":21707:21708   */\n      0x00\n        /* \"#utility.yul\":21721:21929   */\n    tag_632:\n        /* \"#utility.yul\":21735:21742   */\n      dup3\n        /* \"#utility.yul\":21732:21733   */\n      dup2\n        /* \"#utility.yul\":21729:21743   */\n      lt\n        /* \"#utility.yul\":21721:21929   */\n      iszero\n      tag_634\n      jumpi\n        /* \"#utility.yul\":21814:21823   */\n      dup5\n        /* \"#utility.yul\":21809:21812   */\n      dup10\n        /* \"#utility.yul\":21805:21824   */\n      add\n        /* \"#utility.yul\":21799:21825   */\n      mload\n        /* \"#utility.yul\":21791:21797   */\n      dup3\n        /* \"#utility.yul\":21784:21826   */\n      sstore\n        /* \"#utility.yul\":21865:21866   */\n      0x01\n        /* \"#utility.yul\":21857:21863   */\n      dup3\n        /* \"#utility.yul\":21853:21867   */\n      add\n        /* \"#utility.yul\":21843:21867   */\n      swap2\n      pop\n        /* \"#utility.yul\":21912:21914   */\n      0x20\n        /* \"#utility.yul\":21901:21910   */\n      dup6\n        /* \"#utility.yul\":21897:21915   */\n      add\n        /* \"#utility.yul\":21884:21915   */\n      swap5\n      pop\n        /* \"#utility.yul\":21758:21762   */\n      0x20\n        /* \"#utility.yul\":21755:21756   */\n      dup2\n        /* \"#utility.yul\":21751:21763   */\n      add\n        /* \"#utility.yul\":21746:21763   */\n      swap1\n      pop\n        /* \"#utility.yul\":21721:21929   */\n      jump(tag_632)\n    tag_634:\n        /* \"#utility.yul\":21957:21963   */\n      dup7\n        /* \"#utility.yul\":21948:21955   */\n      dup4\n        /* \"#utility.yul\":21945:21964   */\n      lt\n        /* \"#utility.yul\":21942:22121   */\n      iszero\n      tag_635\n      jumpi\n        /* \"#utility.yul\":22015:22024   */\n      dup5\n        /* \"#utility.yul\":22010:22013   */\n      dup10\n        /* \"#utility.yul\":22006:22025   */\n      add\n        /* \"#utility.yul\":22000:22026   */\n      mload\n        /* \"#utility.yul\":22058:22106   */\n      tag_636\n        /* \"#utility.yul\":22100:22104   */\n      0x1f\n        /* \"#utility.yul\":22092:22098   */\n      dup10\n        /* \"#utility.yul\":22088:22105   */\n      and\n        /* \"#utility.yul\":22077:22086   */\n      dup3\n        /* \"#utility.yul\":22058:22106   */\n      tag_379\n      jump\t// in\n    tag_636:\n        /* \"#utility.yul\":22050:22056   */\n      dup4\n        /* \"#utility.yul\":22043:22107   */\n      sstore\n        /* \"#utility.yul\":21965:22121   */\n      pop\n        /* \"#utility.yul\":21942:22121   */\n    tag_635:\n        /* \"#utility.yul\":22167:22168   */\n      0x01\n        /* \"#utility.yul\":22163:22164   */\n      0x02\n        /* \"#utility.yul\":22155:22161   */\n      dup9\n        /* \"#utility.yul\":22151:22165   */\n      mul\n        /* \"#utility.yul\":22147:22169   */\n      add\n        /* \"#utility.yul\":22141:22145   */\n      dup9\n        /* \"#utility.yul\":22134:22170   */\n      sstore\n        /* \"#utility.yul\":21569:22180   */\n      pop\n      pop\n      pop\n        /* \"#utility.yul\":21532:22419   */\n    tag_627:\n      pop\n        /* \"#utility.yul\":21122:22425   */\n      pop\n      pop\n      pop\n        /* \"#utility.yul\":21030:22425   */\n      pop\n      pop\n      jump\t// out\n        /* \"#utility.yul\":22431:22655   */\n    tag_381:\n        /* \"#utility.yul\":22571:22605   */\n      0x45524332303a2064656372656173656420616c6c6f77616e63652062656c6f77\n        /* \"#utility.yul\":22567:22568   */\n      0x00\n        /* \"#utility.yul\":22559:22565   */\n      dup3\n        /* \"#utility.yul\":22555:22569   */\n      add\n        /* \"#utility.yul\":22548:22606   */\n      mstore\n        /* \"#utility.yul\":22640:22647   */\n      0x207a65726f000000000000000000000000000000000000000000000000000000\n        /* \"#utility.yul\":22635:22637   */\n      0x20\n        /* \"#utility.yul\":22627:22633   */\n      dup3\n        /* \"#utility.yul\":22623:22638   */\n      add\n        /* \"#utility.yul\":22616:22648   */\n      mstore\n        /* \"#utility.yul\":22431:22655   */\n      pop\n      jump\t// out\n        /* \"#utility.yul\":22661:23027   */\n    tag_382:\n        /* \"#utility.yul\":22803:22806   */\n      0x00\n        /* \"#utility.yul\":22824:22891   */\n      tag_639\n        /* \"#utility.yul\":22888:22890   */\n      0x25\n        /* \"#utility.yul\":22883:22886   */\n      dup4\n        /* \"#utility.yul\":22824:22891   */\n      tag_320\n      jump\t// in\n    tag_639:\n        /* \"#utility.yul\":22817:22891   */\n      swap2\n      pop\n        /* \"#utility.yul\":22900:22993   */\n      tag_640\n        /* \"#utility.yul\":22989:22992   */\n      dup3\n        /* \"#utility.yul\":22900:22993   */\n      tag_381\n      jump\t// in\n    tag_640:\n        /* \"#utility.yul\":23018:23020   */\n      0x40\n        /* \"#utility.yul\":23013:23016   */\n      dup3\n        /* \"#utility.yul\":23009:23021   */\n      add\n        /* \"#utility.yul\":23002:23021   */\n      swap1\n      pop\n        /* \"#utility.yul\":22661:23027   */\n      swap2\n      swap1\n      pop\n      jump\t// out\n        /* \"#utility.yul\":23033:23452   */\n    tag_195:\n        /* \"#utility.yul\":23199:23203   */\n      0x00\n        /* \"#utility.yul\":23237:23239   */\n      0x20\n        /* \"#utility.yul\":23226:23235   */\n      dup3\n        /* \"#utility.yul\":23222:23240   */\n      add\n        /* \"#utility.yul\":23214:23240   */\n      swap1\n      pop\n        /* \"#utility.yul\":23286:23295   */\n      dup2\n        /* \"#utility.yul\":23280:23284   */\n      dup2\n        /* \"#utility.yul\":23276:23296   */\n      sub\n        /* \"#utility.yul\":23272:23273   */\n      0x00\n        /* \"#utility.yul\":23261:23270   */\n      dup4\n        /* \"#utility.yul\":23257:23274   */\n      add\n        /* \"#utility.yul\":23250:23297   */\n      mstore\n        /* \"#utility.yul\":23314:23445   */\n      tag_642\n        /* \"#utility.yul\":23440:23444   */\n      dup2\n        /* \"#utility.yul\":23314:23445   */\n      tag_382\n      jump\t// in\n    tag_642:\n        /* \"#utility.yul\":23306:23445   */\n      swap1\n      pop\n        /* \"#utility.yul\":23033:23452   */\n      swap2\n      swap1\n      pop\n      jump\t// out\n        /* \"#utility.yul\":23458:23633   */\n    tag_383:\n        /* \"#utility.yul\":23598:23625   */\n      0x496e76616c696420726563697069656e74206164647265737300000000000000\n        /* \"#utility.yul\":23594:23595   */\n      0x00\n        /* \"#utility.yul\":23586:23592   */\n      dup3\n        /* \"#utility.yul\":23582:23596   */\n      add\n        /* \"#utility.yul\":23575:23626   */\n      mstore\n        /* \"#utility.yul\":23458:23633   */\n      pop\n      jump\t// out\n        /* \"#utility.yul\":23639:24005   */\n    tag_384:\n        /* \"#utility.yul\":23781:23784   */\n      0x00\n        /* \"#utility.yul\":23802:23869   */\n      tag_645\n        /* \"#utility.yul\":23866:23868   */\n      0x19\n        /* \"#utility.yul\":23861:23864   */\n      dup4\n        /* \"#utility.yul\":23802:23869   */\n      tag_320\n      jump\t// in\n    tag_645:\n        /* \"#utility.yul\":23795:23869   */\n      swap2\n      pop\n        /* \"#utility.yul\":23878:23971   */\n      tag_646\n        /* \"#utility.yul\":23967:23970   */\n      dup3\n        /* \"#utility.yul\":23878:23971   */\n      tag_383\n      jump\t// in\n    tag_646:\n        /* \"#utility.yul\":23996:23998   */\n      0x20\n        /* \"#utility.yul\":23991:23994   */\n      dup3\n        /* \"#utility.yul\":23987:23999   */\n      add\n        /* \"#utility.yul\":23980:23999   */\n      swap1\n      pop\n        /* \"#utility.yul\":23639:24005   */\n      swap2\n      swap1\n      pop\n      jump\t// out\n        /* \"#utility.yul\":24011:24430   */\n    tag_208:\n        /* \"#utility.yul\":24177:24181   */\n      0x00\n        /* \"#utility.yul\":24215:24217   */\n      0x20\n        /* \"#utility.yul\":24204:24213   */\n      dup3\n        /* \"#utility.yul\":24200:24218   */\n      add\n        /* \"#utility.yul\":24192:24218   */\n      swap1\n      pop\n        /* \"#utility.yul\":24264:24273   */\n      dup2\n        /* \"#utility.yul\":24258:24262   */\n      dup2\n        /* \"#utility.yul\":24254:24274   */\n      sub\n        /* \"#utility.yul\":24250:24251   */\n      0x00\n        /* \"#utility.yul\":24239:24248   */\n      dup4\n        /* \"#utility.yul\":24235:24252   */\n      add\n        /* \"#utility.yul\":24228:24275   */\n      mstore\n        /* \"#utility.yul\":24292:24423   */\n      tag_648\n        /* \"#utility.yul\":24418:24422   */\n      dup2\n        /* \"#utility.yul\":24292:24423   */\n      tag_384\n      jump\t// in\n    tag_648:\n        /* \"#utility.yul\":24284:24423   */\n      swap1\n      pop\n        /* \"#utility.yul\":24011:24430   */\n      swap2\n      swap1\n      pop\n      jump\t// out\n        /* \"#utility.yul\":24436:24630   */\n    tag_227:\n        /* \"#utility.yul\":24476:24480   */\n      0x00\n        /* \"#utility.yul\":24496:24516   */\n      tag_650\n        /* \"#utility.yul\":24514:24515   */\n      dup3\n        /* \"#utility.yul\":24496:24516   */\n      tag_331\n      jump\t// in\n    tag_650:\n        /* \"#utility.yul\":24491:24516   */\n      swap2\n      pop\n        /* \"#utility.yul\":24530:24550   */\n      tag_651\n        /* \"#utility.yul\":24548:24549   */\n      dup4\n        /* \"#utility.yul\":24530:24550   */\n      tag_331\n      jump\t// in\n    tag_651:\n        /* \"#utility.yul\":24525:24550   */\n      swap3\n      pop\n        /* \"#utility.yul\":24574:24575   */\n      dup3\n        /* \"#utility.yul\":24571:24572   */\n      dup3\n        /* \"#utility.yul\":24567:24576   */\n      sub\n        /* \"#utility.yul\":24559:24576   */\n      swap1\n      pop\n        /* \"#utility.yul\":24598:24599   */\n      dup2\n        /* \"#utility.yul\":24592:24596   */\n      dup2\n        /* \"#utility.yul\":24589:24600   */\n      gt\n        /* \"#utility.yul\":24586:24623   */\n      iszero\n      tag_652\n      jumpi\n        /* \"#utility.yul\":24603:24621   */\n      tag_653\n      tag_359\n      jump\t// in\n    tag_653:\n        /* \"#utility.yul\":24586:24623   */\n    tag_652:\n        /* \"#utility.yul\":24436:24630   */\n      swap3\n      swap2\n      pop\n      pop\n      jump\t// out\n        /* \"#utility.yul\":24636:24816   */\n    tag_230:\n        /* \"#utility.yul\":24684:24761   */\n      0x4e487b7100000000000000000000000000000000000000000000000000000000\n        /* \"#utility.yul\":24681:24682   */\n      0x00\n        /* \"#utility.yul\":24674:24762   */\n      mstore\n        /* \"#utility.yul\":24781:24785   */\n      0x32\n        /* \"#utility.yul\":24778:24779   */\n      0x04\n        /* \"#utility.yul\":24771:24786   */\n      mstore\n        /* \"#utility.yul\":24805:24809   */\n      0x24\n        /* \"#utility.yul\":24802:24803   */\n      0x00\n        /* \"#utility.yul\":24795:24810   */\n      revert\n        /* \"#utility.yul\":24822:24987   */\n    tag_385:\n        /* \"#utility.yul\":24962:24979   */\n      0x496e76616c6964206974656d2049440000000000000000000000000000000000\n        /* \"#utility.yul\":24958:24959   */\n      0x00\n        /* \"#utility.yul\":24950:24956   */\n      dup3\n        /* \"#utility.yul\":24946:24960   */\n      add\n        /* \"#utility.yul\":24939:24980   */\n      mstore\n        /* \"#utility.yul\":24822:24987   */\n      pop\n      jump\t// out\n        /* \"#utility.yul\":24993:25359   */\n    tag_386:\n        /* \"#utility.yul\":25135:25138   */\n      0x00\n        /* \"#utility.yul\":25156:25223   */\n      tag_657\n        /* \"#utility.yul\":25220:25222   */\n      0x0f\n        /* \"#utility.yul\":25215:25218   */\n      dup4\n        /* \"#utility.yul\":25156:25223   */\n      tag_320\n      jump\t// in\n    tag_657:\n        /* \"#utility.yul\":25149:25223   */\n      swap2\n      pop\n        /* \"#utility.yul\":25232:25325   */\n      tag_658\n        /* \"#utility.yul\":25321:25324   */\n      dup3\n        /* \"#utility.yul\":25232:25325   */\n      tag_385\n      jump\t// in\n    tag_658:\n        /* \"#utility.yul\":25350:25352   */\n      0x20\n        /* \"#utility.yul\":25345:25348   */\n      dup3\n        /* \"#utility.yul\":25341:25353   */\n      add\n        /* \"#utility.yul\":25334:25353   */\n      swap1\n      pop\n        /* \"#utility.yul\":24993:25359   */\n      swap2\n      swap1\n      pop\n      jump\t// out\n        /* \"#utility.yul\":25365:25784   */\n    tag_237:\n        /* \"#utility.yul\":25531:25535   */\n      0x00\n        /* \"#utility.yul\":25569:25571   */\n      0x20\n        /* \"#utility.yul\":25558:25567   */\n      dup3\n        /* \"#utility.yul\":25554:25572   */\n      add\n        /* \"#utility.yul\":25546:25572   */\n      swap1\n      pop\n        /* \"#utility.yul\":25618:25627   */\n      dup2\n        /* \"#utility.yul\":25612:25616   */\n      dup2\n        /* \"#utility.yul\":25608:25628   */\n      sub\n        /* \"#utility.yul\":25604:25605   */\n      0x00\n        /* \"#utility.yul\":25593:25602   */\n      dup4\n        /* \"#utility.yul\":25589:25606   */\n      add\n        /* \"#utility.yul\":25582:25629   */\n      mstore\n        /* \"#utility.yul\":25646:25777   */\n      tag_660\n        /* \"#utility.yul\":25772:25776   */\n      dup2\n        /* \"#utility.yul\":25646:25777   */\n      tag_386\n      jump\t// in\n    tag_660:\n        /* \"#utility.yul\":25638:25777   */\n      swap1\n      pop\n        /* \"#utility.yul\":25365:25784   */\n      swap2\n      swap1\n      pop\n      jump\t// out\n        /* \"#utility.yul\":25790:25957   */\n    tag_387:\n        /* \"#utility.yul\":25930:25949   */\n      0x4974656d206f7574206f662073746f636b000000000000000000000000000000\n        /* \"#utility.yul\":25926:25927   */\n      0x00\n        /* \"#utility.yul\":25918:25924   */\n      dup3\n        /* \"#utility.yul\":25914:25928   */\n      add\n        /* \"#utility.yul\":25907:25950   */\n      mstore\n        /* \"#utility.yul\":25790:25957   */\n      pop\n      jump\t// out\n        /* \"#utility.yul\":25963:26329   */\n    tag_388:\n        /* \"#utility.yul\":26105:26108   */\n      0x00\n        /* \"#utility.yul\":26126:26193   */\n      tag_663\n        /* \"#utility.yul\":26190:26192   */\n      0x11\n        /* \"#utility.yul\":26185:26188   */\n      dup4\n        /* \"#utility.yul\":26126:26193   */\n      tag_320\n      jump\t// in\n    tag_663:\n        /* \"#utility.yul\":26119:26193   */\n      swap2\n      pop\n        /* \"#utility.yul\":26202:26295   */\n      tag_664\n        /* \"#utility.yul\":26291:26294   */\n      dup3\n        /* \"#utility.yul\":26202:26295   */\n      tag_387\n      jump\t// in\n    tag_664:\n        /* \"#utility.yul\":26320:26322   */\n      0x20\n        /* \"#utility.yul\":26315:26318   */\n      dup3\n        /* \"#utility.yul\":26311:26323   */\n      add\n        /* \"#utility.yul\":26304:26323   */\n      swap1\n      pop\n        /* \"#utility.yul\":25963:26329   */\n      swap2\n      swap1\n      pop\n      jump\t// out\n        /* \"#utility.yul\":26335:26754   */\n    tag_240:\n        /* \"#utility.yul\":26501:26505   */\n      0x00\n        /* \"#utility.yul\":26539:26541   */\n      0x20\n        /* \"#utility.yul\":26528:26537   */\n      dup3\n        /* \"#utility.yul\":26524:26542   */\n      add\n        /* \"#utility.yul\":26516:26542   */\n      swap1\n      pop\n        /* \"#utility.yul\":26588:26597   */\n      dup2\n        /* \"#utility.yul\":26582:26586   */\n      dup2\n        /* \"#utility.yul\":26578:26598   */\n      sub\n        /* \"#utility.yul\":26574:26575   */\n      0x00\n        /* \"#utility.yul\":26563:26572   */\n      dup4\n        /* \"#utility.yul\":26559:26576   */\n      add\n        /* \"#utility.yul\":26552:26599   */\n      mstore\n        /* \"#utility.yul\":26616:26747   */\n      tag_666\n        /* \"#utility.yul\":26742:26746   */\n      dup2\n        /* \"#utility.yul\":26616:26747   */\n      tag_388\n      jump\t// in\n    tag_666:\n        /* \"#utility.yul\":26608:26747   */\n      swap1\n      pop\n        /* \"#utility.yul\":26335:26754   */\n      swap2\n      swap1\n      pop\n      jump\t// out\n        /* \"#utility.yul\":26760:26931   */\n    tag_248:\n        /* \"#utility.yul\":26799:26802   */\n      0x00\n        /* \"#utility.yul\":26822:26846   */\n      tag_668\n        /* \"#utility.yul\":26840:26845   */\n      dup3\n        /* \"#utility.yul\":26822:26846   */\n      tag_331\n      jump\t// in\n    tag_668:\n        /* \"#utility.yul\":26813:26846   */\n      swap2\n      pop\n        /* \"#utility.yul\":26868:26872   */\n      0x00\n        /* \"#utility.yul\":26861:26866   */\n      dup3\n        /* \"#utility.yul\":26858:26873   */\n      sub\n        /* \"#utility.yul\":26855:26896   */\n      tag_669\n      jumpi\n        /* \"#utility.yul\":26876:26894   */\n      tag_670\n      tag_359\n      jump\t// in\n    tag_670:\n        /* \"#utility.yul\":26855:26896   */\n    tag_669:\n        /* \"#utility.yul\":26923:26924   */\n      0x01\n        /* \"#utility.yul\":26916:26921   */\n      dup3\n        /* \"#utility.yul\":26912:26925   */\n      sub\n        /* \"#utility.yul\":26905:26925   */\n      swap1\n      pop\n        /* \"#utility.yul\":26760:26931   */\n      swap2\n      swap1\n      pop\n      jump\t// out\n        /* \"#utility.yul\":26937:27162   */\n    tag_389:\n        /* \"#utility.yul\":27077:27111   */\n      0x4f776e61626c653a206e6577206f776e657220697320746865207a65726f2061\n        /* \"#utility.yul\":27073:27074   */\n      0x00\n        /* \"#utility.yul\":27065:27071   */\n      dup3\n        /* \"#utility.yul\":27061:27075   */\n      add\n        /* \"#utility.yul\":27054:27112   */\n      mstore\n        /* \"#utility.yul\":27146:27154   */\n      0x6464726573730000000000000000000000000000000000000000000000000000\n        /* \"#utility.yul\":27141:27143   */\n      0x20\n        /* \"#utility.yul\":27133:27139   */\n      dup3\n        /* \"#utility.yul\":27129:27144   */\n      add\n        /* \"#utility.yul\":27122:27155   */\n      mstore\n        /* \"#utility.yul\":26937:27162   */\n      pop\n      jump\t// out\n        /* \"#utility.yul\":27168:27534   */\n    tag_390:\n        /* \"#utility.yul\":27310:27313   */\n      0x00\n        /* \"#utility.yul\":27331:27398   */\n      tag_673\n        /* \"#utility.yul\":27395:27397   */\n      0x26\n        /* \"#utility.yul\":27390:27393   */\n      dup4\n        /* \"#utility.yul\":27331:27398   */\n      tag_320\n      jump\t// in\n    tag_673:\n        /* \"#utility.yul\":27324:27398   */\n      swap2\n      pop\n        /* \"#utility.yul\":27407:27500   */\n      tag_674\n        /* \"#utility.yul\":27496:27499   */\n      dup3\n        /* \"#utility.yul\":27407:27500   */\n      tag_389\n      jump\t// in\n    tag_674:\n        /* \"#utility.yul\":27525:27527   */\n      0x40\n        /* \"#utility.yul\":27520:27523   */\n      dup3\n        /* \"#utility.yul\":27516:27528   */\n      add\n        /* \"#utility.yul\":27509:27528   */\n      swap1\n      pop\n        /* \"#utility.yul\":27168:27534   */\n      swap2\n      swap1\n      pop\n      jump\t// out\n        /* \"#utility.yul\":27540:27959   */\n    tag_259:\n        /* \"#utility.yul\":27706:27710   */\n      0x00\n        /* \"#utility.yul\":27744:27746   */\n      0x20\n        /* \"#utility.yul\":27733:27742   */\n      dup3\n        /* \"#utility.yul\":27729:27747   */\n      add\n        /* \"#utility.yul\":27721:27747   */\n      swap1\n      pop\n        /* \"#utility.yul\":27793:27802   */\n      dup2\n        /* \"#utility.yul\":27787:27791   */\n      dup2\n        /* \"#utility.yul\":27783:27803   */\n      sub\n        /* \"#utility.yul\":27779:27780   */\n      0x00\n        /* \"#utility.yul\":27768:27777   */\n      dup4\n        /* \"#utility.yul\":27764:27781   */\n      add\n        /* \"#utility.yul\":27757:27804   */\n      mstore\n        /* \"#utility.yul\":27821:27952   */\n      tag_676\n        /* \"#utility.yul\":27947:27951   */\n      dup2\n        /* \"#utility.yul\":27821:27952   */\n      tag_390\n      jump\t// in\n    tag_676:\n        /* \"#utility.yul\":27813:27952   */\n      swap1\n      pop\n        /* \"#utility.yul\":27540:27959   */\n      swap2\n      swap1\n      pop\n      jump\t// out\n        /* \"#utility.yul\":27965:28188   */\n    tag_391:\n        /* \"#utility.yul\":28105:28139   */\n      0x45524332303a20617070726f76652066726f6d20746865207a65726f20616464\n        /* \"#utility.yul\":28101:28102   */\n      0x00\n        /* \"#utility.yul\":28093:28099   */\n      dup3\n        /* \"#utility.yul\":28089:28103   */\n      add\n        /* \"#utility.yul\":28082:28140   */\n      mstore\n        /* \"#utility.yul\":28174:28180   */\n      0x7265737300000000000000000000000000000000000000000000000000000000\n        /* \"#utility.yul\":28169:28171   */\n      0x20\n        /* \"#utility.yul\":28161:28167   */\n      dup3\n        /* \"#utility.yul\":28157:28172   */\n      add\n        /* \"#utility.yul\":28150:28181   */\n      mstore\n        /* \"#utility.yul\":27965:28188   */\n      pop\n      jump\t// out\n        /* \"#utility.yul\":28194:28560   */\n    tag_392:\n        /* \"#utility.yul\":28336:28339   */\n      0x00\n        /* \"#utility.yul\":28357:28424   */\n      tag_679\n        /* \"#utility.yul\":28421:28423   */\n      0x24\n        /* \"#utility.yul\":28416:28419   */\n      dup4\n        /* \"#utility.yul\":28357:28424   */\n      tag_320\n      jump\t// in\n    tag_679:\n        /* \"#utility.yul\":28350:28424   */\n      swap2\n      pop\n        /* \"#utility.yul\":28433:28526   */\n      tag_680\n        /* \"#utility.yul\":28522:28525   */\n      dup3\n        /* \"#utility.yul\":28433:28526   */\n      tag_391\n      jump\t// in\n    tag_680:\n        /* \"#utility.yul\":28551:28553   */\n      0x40\n        /* \"#utility.yul\":28546:28549   */\n      dup3\n        /* \"#utility.yul\":28542:28554   */\n      add\n        /* \"#utility.yul\":28535:28554   */\n      swap1\n      pop\n        /* \"#utility.yul\":28194:28560   */\n      swap2\n      swap1\n      pop\n      jump\t// out\n        /* \"#utility.yul\":28566:28985   */\n    tag_265:\n        /* \"#utility.yul\":28732:28736   */\n      0x00\n        /* \"#utility.yul\":28770:28772   */\n      0x20\n        /* \"#utility.yul\":28759:28768   */\n      dup3\n        /* \"#utility.yul\":28755:28773   */\n      add\n        /* \"#utility.yul\":28747:28773   */\n      swap1\n      pop\n        /* \"#utility.yul\":28819:28828   */\n      dup2\n        /* \"#utility.yul\":28813:28817   */\n      dup2\n        /* \"#utility.yul\":28809:28829   */\n      sub\n        /* \"#utility.yul\":28805:28806   */\n      0x00\n        /* \"#utility.yul\":28794:28803   */\n      dup4\n        /* \"#utility.yul\":28790:28807   */\n      add\n        /* \"#utility.yul\":28783:28830   */\n      mstore\n        /* \"#utility.yul\":28847:28978   */\n      tag_682\n        /* \"#utility.yul\":28973:28977   */\n      dup2\n        /* \"#utility.yul\":28847:28978   */\n      tag_392\n      jump\t// in\n    tag_682:\n        /* \"#utility.yul\":28839:28978   */\n      swap1\n      pop\n        /* \"#utility.yul\":28566:28985   */\n      swap2\n      swap1\n      pop\n      jump\t// out\n        /* \"#utility.yul\":28991:29212   */\n    tag_393:\n        /* \"#utility.yul\":29131:29165   */\n      0x45524332303a20617070726f766520746f20746865207a65726f206164647265\n        /* \"#utility.yul\":29127:29128   */\n      0x00\n        /* \"#utility.yul\":29119:29125   */\n      dup3\n        /* \"#utility.yul\":29115:29129   */\n      add\n        /* \"#utility.yul\":29108:29166   */\n      mstore\n        /* \"#utility.yul\":29200:29204   */\n      0x7373000000000000000000000000000000000000000000000000000000000000\n        /* \"#utility.yul\":29195:29197   */\n      0x20\n        /* \"#utility.yul\":29187:29193   */\n      dup3\n        /* \"#utility.yul\":29183:29198   */\n      add\n        /* \"#utility.yul\":29176:29205   */\n      mstore\n        /* \"#utility.yul\":28991:29212   */\n      pop\n      jump\t// out\n        /* \"#utility.yul\":29218:29584   */\n    tag_394:\n        /* \"#utility.yul\":29360:29363   */\n      0x00\n        /* \"#utility.yul\":29381:29448   */\n      tag_685\n        /* \"#utility.yul\":29445:29447   */\n      0x22\n        /* \"#utility.yul\":29440:29443   */\n      dup4\n        /* \"#utility.yul\":29381:29448   */\n      tag_320\n      jump\t// in\n    tag_685:\n        /* \"#utility.yul\":29374:29448   */\n      swap2\n      pop\n        /* \"#utility.yul\":29457:29550   */\n      tag_686\n        /* \"#utility.yul\":29546:29549   */\n      dup3\n        /* \"#utility.yul\":29457:29550   */\n      tag_393\n      jump\t// in\n    tag_686:\n        /* \"#utility.yul\":29575:29577   */\n      0x40\n        /* \"#utility.yul\":29570:29573   */\n      dup3\n        /* \"#utility.yul\":29566:29578   */\n      add\n        /* \"#utility.yul\":29559:29578   */\n      swap1\n      pop\n        /* \"#utility.yul\":29218:29584   */\n      swap2\n      swap1\n      pop\n      jump\t// out\n        /* \"#utility.yul\":29590:30009   */\n    tag_268:\n        /* \"#utility.yul\":29756:29760   */\n      0x00\n        /* \"#utility.yul\":29794:29796   */\n      0x20\n        /* \"#utility.yul\":29783:29792   */\n      dup3\n        /* \"#utility.yul\":29779:29797   */\n      add\n        /* \"#utility.yul\":29771:29797   */\n      swap1\n      pop\n        /* \"#utility.yul\":29843:29852   */\n      dup2\n        /* \"#utility.yul\":29837:29841   */\n      dup2\n        /* \"#utility.yul\":29833:29853   */\n      sub\n        /* \"#utility.yul\":29829:29830   */\n      0x00\n        /* \"#utility.yul\":29818:29827   */\n      dup4\n        /* \"#utility.yul\":29814:29831   */\n      add\n        /* \"#utility.yul\":29807:29854   */\n      mstore\n        /* \"#utility.yul\":29871:30002   */\n      tag_688\n        /* \"#utility.yul\":29997:30001   */\n      dup2\n        /* \"#utility.yul\":29871:30002   */\n      tag_394\n      jump\t// in\n    tag_688:\n        /* \"#utility.yul\":29863:30002   */\n      swap1\n      pop\n        /* \"#utility.yul\":29590:30009   */\n      swap2\n      swap1\n      pop\n      jump\t// out\n        /* \"#utility.yul\":30015:30194   */\n    tag_395:\n        /* \"#utility.yul\":30155:30186   */\n      0x45524332303a20696e73756666696369656e7420616c6c6f77616e6365000000\n        /* \"#utility.yul\":30151:30152   */\n      0x00\n        /* \"#utility.yul\":30143:30149   */\n      dup3\n        /* \"#utility.yul\":30139:30153   */\n      add\n        /* \"#utility.yul\":30132:30187   */\n      mstore\n        /* \"#utility.yul\":30015:30194   */\n      pop\n      jump\t// out\n        /* \"#utility.yul\":30200:30566   */\n    tag_396:\n        /* \"#utility.yul\":30342:30345   */\n      0x00\n        /* \"#utility.yul\":30363:30430   */\n      tag_691\n        /* \"#utility.yul\":30427:30429   */\n      0x1d\n        /* \"#utility.yul\":30422:30425   */\n      dup4\n        /* \"#utility.yul\":30363:30430   */\n      tag_320\n      jump\t// in\n    tag_691:\n        /* \"#utility.yul\":30356:30430   */\n      swap2\n      pop\n        /* \"#utility.yul\":30439:30532   */\n      tag_692\n        /* \"#utility.yul\":30528:30531   */\n      dup3\n        /* \"#utility.yul\":30439:30532   */\n      tag_395\n      jump\t// in\n    tag_692:\n        /* \"#utility.yul\":30557:30559   */\n      0x20\n        /* \"#utility.yul\":30552:30555   */\n      dup3\n        /* \"#utility.yul\":30548:30560   */\n      add\n        /* \"#utility.yul\":30541:30560   */\n      swap1\n      pop\n        /* \"#utility.yul\":30200:30566   */\n      swap2\n      swap1\n      pop\n      jump\t// out\n        /* \"#utility.yul\":30572:30991   */\n    tag_275:\n        /* \"#utility.yul\":30738:30742   */\n      0x00\n        /* \"#utility.yul\":30776:30778   */\n      0x20\n        /* \"#utility.yul\":30765:30774   */\n      dup3\n        /* \"#utility.yul\":30761:30779   */\n      add\n        /* \"#utility.yul\":30753:30779   */\n      swap1\n      pop\n        /* \"#utility.yul\":30825:30834   */\n      dup2\n        /* \"#utility.yul\":30819:30823   */\n      dup2\n        /* \"#utility.yul\":30815:30835   */\n      sub\n        /* \"#utility.yul\":30811:30812   */\n      0x00\n        /* \"#utility.yul\":30800:30809   */\n      dup4\n        /* \"#utility.yul\":30796:30813   */\n      add\n        /* \"#utility.yul\":30789:30836   */\n      mstore\n        /* \"#utility.yul\":30853:30984   */\n      tag_694\n        /* \"#utility.yul\":30979:30983   */\n      dup2\n        /* \"#utility.yul\":30853:30984   */\n      tag_396\n      jump\t// in\n    tag_694:\n        /* \"#utility.yul\":30845:30984   */\n      swap1\n      pop\n        /* \"#utility.yul\":30572:30991   */\n      swap2\n      swap1\n      pop\n      jump\t// out\n        /* \"#utility.yul\":30997:31221   */\n    tag_397:\n        /* \"#utility.yul\":31137:31171   */\n      0x45524332303a207472616e736665722066726f6d20746865207a65726f206164\n        /* \"#utility.yul\":31133:31134   */\n      0x00\n        /* \"#utility.yul\":31125:31131   */\n      dup3\n        /* \"#utility.yul\":31121:31135   */\n      add\n        /* \"#utility.yul\":31114:31172   */\n      mstore\n        /* \"#utility.yul\":31206:31213   */\n      0x6472657373000000000000000000000000000000000000000000000000000000\n        /* \"#utility.yul\":31201:31203   */\n      0x20\n        /* \"#utility.yul\":31193:31199   */\n      dup3\n        /* \"#utility.yul\":31189:31204   */\n      add\n        /* \"#utility.yul\":31182:31214   */\n      mstore\n        /* \"#utility.yul\":30997:31221   */\n      pop\n      jump\t// out\n        /* \"#utility.yul\":31227:31593   */\n    tag_398:\n        /* \"#utility.yul\":31369:31372   */\n      0x00\n        /* \"#utility.yul\":31390:31457   */\n      tag_697\n        /* \"#utility.yul\":31454:31456   */\n      0x25\n        /* \"#utility.yul\":31449:31452   */\n      dup4\n        /* \"#utility.yul\":31390:31457   */\n      tag_320\n      jump\t// in\n    tag_697:\n        /* \"#utility.yul\":31383:31457   */\n      swap2\n      pop\n        /* \"#utility.yul\":31466:31559   */\n      tag_698\n        /* \"#utility.yul\":31555:31558   */\n      dup3\n        /* \"#utility.yul\":31466:31559   */\n      tag_397\n      jump\t// in\n    tag_698:\n        /* \"#utility.yul\":31584:31586   */\n      0x40\n        /* \"#utility.yul\":31579:31582   */\n      dup3\n        /* \"#utility.yul\":31575:31587   */\n      add\n        /* \"#utility.yul\":31568:31587   */\n      swap1\n      pop\n        /* \"#utility.yul\":31227:31593   */\n      swap2\n      swap1\n      pop\n      jump\t// out\n        /* \"#utility.yul\":31599:32018   */\n    tag_280:\n        /* \"#utility.yul\":31765:31769   */\n      0x00\n        /* \"#utility.yul\":31803:31805   */\n      0x20\n        /* \"#utility.yul\":31792:31801   */\n      dup3\n        /* \"#utility.yul\":31788:31806   */\n      add\n        /* \"#utility.yul\":31780:31806   */\n      swap1\n      pop\n        /* \"#utility.yul\":31852:31861   */\n      dup2\n        /* \"#utility.yul\":31846:31850   */\n      dup2\n        /* \"#utility.yul\":31842:31862   */\n      sub\n        /* \"#utility.yul\":31838:31839   */\n      0x00\n        /* \"#utility.yul\":31827:31836   */\n      dup4\n        /* \"#utility.yul\":31823:31840   */\n      add\n        /* \"#utility.yul\":31816:31863   */\n      mstore\n        /* \"#utility.yul\":31880:32011   */\n      tag_700\n        /* \"#utility.yul\":32006:32010   */\n      dup2\n        /* \"#utility.yul\":31880:32011   */\n      tag_398\n      jump\t// in\n    tag_700:\n        /* \"#utility.yul\":31872:32011   */\n      swap1\n      pop\n        /* \"#utility.yul\":31599:32018   */\n      swap2\n      swap1\n      pop\n      jump\t// out\n        /* \"#utility.yul\":32024:32246   */\n    tag_399:\n        /* \"#utility.yul\":32164:32198   */\n      0x45524332303a207472616e7366657220746f20746865207a65726f2061646472\n        /* \"#utility.yul\":32160:32161   */\n      0x00\n        /* \"#utility.yul\":32152:32158   */\n      dup3\n        /* \"#utility.yul\":32148:32162   */\n      add\n        /* \"#utility.yul\":32141:32199   */\n      mstore\n        /* \"#utility.yul\":32233:32238   */\n      0x6573730000000000000000000000000000000000000000000000000000000000\n        /* \"#utility.yul\":32228:32230   */\n      0x20\n        /* \"#utility.yul\":32220:32226   */\n      dup3\n        /* \"#utility.yul\":32216:32231   */\n      add\n        /* \"#utility.yul\":32209:32239   */\n      mstore\n        /* \"#utility.yul\":32024:32246   */\n      pop\n      jump\t// out\n        /* \"#utility.yul\":32252:32618   */\n    tag_400:\n        /* \"#utility.yul\":32394:32397   */\n      0x00\n        /* \"#utility.yul\":32415:32482   */\n      tag_703\n        /* \"#utility.yul\":32479:32481   */\n      0x23\n        /* \"#utility.yul\":32474:32477   */\n      dup4\n        /* \"#utility.yul\":32415:32482   */\n      tag_320\n      jump\t// in\n    tag_703:\n        /* \"#utility.yul\":32408:32482   */\n      swap2\n      pop\n        /* \"#utility.yul\":32491:32584   */\n      tag_704\n        /* \"#utility.yul\":32580:32583   */\n      dup3\n        /* \"#utility.yul\":32491:32584   */\n      tag_399\n      jump\t// in\n    tag_704:\n        /* \"#utility.yul\":32609:32611   */\n      0x40\n        /* \"#utility.yul\":32604:32607   */\n      dup3\n        /* \"#utility.yul\":32600:32612   */\n      add\n        /* \"#utility.yul\":32593:32612   */\n      swap1\n      pop\n        /* \"#utility.yul\":32252:32618   */\n      swap2\n      swap1\n      pop\n      jump\t// out\n        /* \"#utility.yul\":32624:33043   */\n    tag_283:\n        /* \"#utility.yul\":32790:32794   */\n      0x00\n        /* \"#utility.yul\":32828:32830   */\n      0x20\n        /* \"#utility.yul\":32817:32826   */\n      dup3\n        /* \"#utility.yul\":32813:32831   */\n      add\n        /* \"#utility.yul\":32805:32831   */\n      swap1\n      pop\n        /* \"#utility.yul\":32877:32886   */\n      dup2\n        /* \"#utility.yul\":32871:32875   */\n      dup2\n        /* \"#utility.yul\":32867:32887   */\n      sub\n        /* \"#utility.yul\":32863:32864   */\n      0x00\n        /* \"#utility.yul\":32852:32861   */\n      dup4\n        /* \"#utility.yul\":32848:32865   */\n      add\n        /* \"#utility.yul\":32841:32888   */\n      mstore\n        /* \"#utility.yul\":32905:33036   */\n      tag_706\n        /* \"#utility.yul\":33031:33035   */\n      dup2\n        /* \"#utility.yul\":32905:33036   */\n      tag_400\n      jump\t// in\n    tag_706:\n        /* \"#utility.yul\":32897:33036   */\n      swap1\n      pop\n        /* \"#utility.yul\":32624:33043   */\n      swap2\n      swap1\n      pop\n      jump\t// out\n        /* \"#utility.yul\":33049:33274   */\n    tag_401:\n        /* \"#utility.yul\":33189:33223   */\n      0x45524332303a207472616e7366657220616d6f756e7420657863656564732062\n        /* \"#utility.yul\":33185:33186   */\n      0x00\n        /* \"#utility.yul\":33177:33183   */\n      dup3\n        /* \"#utility.yul\":33173:33187   */\n      add\n        /* \"#utility.yul\":33166:33224   */\n      mstore\n        /* \"#utility.yul\":33258:33266   */\n      0x616c616e63650000000000000000000000000000000000000000000000000000\n        /* \"#utility.yul\":33253:33255   */\n      0x20\n        /* \"#utility.yul\":33245:33251   */\n      dup3\n        /* \"#utility.yul\":33241:33256   */\n      add\n        /* \"#utility.yul\":33234:33267   */\n      mstore\n        /* \"#utility.yul\":33049:33274   */\n      pop\n      jump\t// out\n        /* \"#utility.yul\":33280:33646   */\n    tag_402:\n        /* \"#utility.yul\":33422:33425   */\n      0x00\n        /* \"#utility.yul\":33443:33510   */\n      tag_709\n        /* \"#utility.yul\":33507:33509   */\n      0x26\n        /* \"#utility.yul\":33502:33505   */\n      dup4\n        /* \"#utility.yul\":33443:33510   */\n      tag_320\n      jump\t// in\n    tag_709:\n        /* \"#utility.yul\":33436:33510   */\n      swap2\n      pop\n        /* \"#utility.yul\":33519:33612   */\n      tag_710\n        /* \"#utility.yul\":33608:33611   */\n      dup3\n        /* \"#utility.yul\":33519:33612   */\n      tag_401\n      jump\t// in\n    tag_710:\n        /* \"#utility.yul\":33637:33639   */\n      0x40\n        /* \"#utility.yul\":33632:33635   */\n      dup3\n        /* \"#utility.yul\":33628:33640   */\n      add\n        /* \"#utility.yul\":33621:33640   */\n      swap1\n      pop\n        /* \"#utility.yul\":33280:33646   */\n      swap2\n      swap1\n      pop\n      jump\t// out\n        /* \"#utility.yul\":33652:34071   */\n    tag_288:\n        /* \"#utility.yul\":33818:33822   */\n      0x00\n        /* \"#utility.yul\":33856:33858   */\n      0x20\n        /* \"#utility.yul\":33845:33854   */\n      dup3\n        /* \"#utility.yul\":33841:33859   */\n      add\n        /* \"#utility.yul\":33833:33859   */\n      swap1\n      pop\n        /* \"#utility.yul\":33905:33914   */\n      dup2\n        /* \"#utility.yul\":33899:33903   */\n      dup2\n        /* \"#utility.yul\":33895:33915   */\n      sub\n        /* \"#utility.yul\":33891:33892   */\n      0x00\n        /* \"#utility.yul\":33880:33889   */\n      dup4\n        /* \"#utility.yul\":33876:33893   */\n      add\n        /* \"#utility.yul\":33869:33916   */\n      mstore\n        /* \"#utility.yul\":33933:34064   */\n      tag_712\n        /* \"#utility.yul\":34059:34063   */\n      dup2\n        /* \"#utility.yul\":33933:34064   */\n      tag_402\n      jump\t// in\n    tag_712:\n        /* \"#utility.yul\":33925:34064   */\n      swap1\n      pop\n        /* \"#utility.yul\":33652:34071   */\n      swap2\n      swap1\n      pop\n      jump\t// out\n        /* \"#utility.yul\":34077:34297   */\n    tag_403:\n        /* \"#utility.yul\":34217:34251   */\n      0x45524332303a206275726e2066726f6d20746865207a65726f20616464726573\n        /* \"#utility.yul\":34213:34214   */\n      0x00\n        /* \"#utility.yul\":34205:34211   */\n      dup3\n        /* \"#utility.yul\":34201:34215   */\n      add\n        /* \"#utility.yul\":34194:34252   */\n      mstore\n        /* \"#utility.yul\":34286:34289   */\n      0x7300000000000000000000000000000000000000000000000000000000000000\n        /* \"#utility.yul\":34281:34283   */\n      0x20\n        /* \"#utility.yul\":34273:34279   */\n      dup3\n        /* \"#utility.yul\":34269:34284   */\n      add\n        /* \"#utility.yul\":34262:34290   */\n      mstore\n        /* \"#utility.yul\":34077:34297   */\n      pop\n      jump\t// out\n        /* \"#utility.yul\":34303:34669   */\n    tag_404:\n        /* \"#utility.yul\":34445:34448   */\n      0x00\n        /* \"#utility.yul\":34466:34533   */\n      tag_715\n        /* \"#utility.yul\":34530:34532   */\n      0x21\n        /* \"#utility.yul\":34525:34528   */\n      dup4\n        /* \"#utility.yul\":34466:34533   */\n      tag_320\n      jump\t// in\n    tag_715:\n        /* \"#utility.yul\":34459:34533   */\n      swap2\n      pop\n        /* \"#utility.yul\":34542:34635   */\n      tag_716\n        /* \"#utility.yul\":34631:34634   */\n      dup3\n        /* \"#utility.yul\":34542:34635   */\n      tag_403\n      jump\t// in\n    tag_716:\n        /* \"#utility.yul\":34660:34662   */\n      0x40\n        /* \"#utility.yul\":34655:34658   */\n      dup3\n        /* \"#utility.yul\":34651:34663   */\n      add\n        /* \"#utility.yul\":34644:34663   */\n      swap1\n      pop\n        /* \"#utility.yul\":34303:34669   */\n      swap2\n      swap1\n      pop\n      jump\t// out\n        /* \"#utility.yul\":34675:35094   */\n    tag_295:\n        /* \"#utility.yul\":34841:34845   */\n      0x00\n        /* \"#utility.yul\":34879:34881   */\n      0x20\n        /* \"#utility.yul\":34868:34877   */\n      dup3\n        /* \"#utility.yul\":34864:34882   */\n      add\n        /* \"#utility.yul\":34856:34882   */\n      swap1\n      pop\n        /* \"#utility.yul\":34928:34937   */\n      dup2\n        /* \"#utility.yul\":34922:34926   */\n      dup2\n        /* \"#utility.yul\":34918:34938   */\n      sub\n        /* \"#utility.yul\":34914:34915   */\n      0x00\n        /* \"#utility.yul\":34903:34912   */\n      dup4\n        /* \"#utility.yul\":34899:34916   */\n      add\n        /* \"#utility.yul\":34892:34939   */\n      mstore\n        /* \"#utility.yul\":34956:35087   */\n      tag_718\n        /* \"#utility.yul\":35082:35086   */\n      dup2\n        /* \"#utility.yul\":34956:35087   */\n      tag_404\n      jump\t// in\n    tag_718:\n        /* \"#utility.yul\":34948:35087   */\n      swap1\n      pop\n        /* \"#utility.yul\":34675:35094   */\n      swap2\n      swap1\n      pop\n      jump\t// out\n        /* \"#utility.yul\":35100:35321   */\n    tag_405:\n        /* \"#utility.yul\":35240:35274   */\n      0x45524332303a206275726e20616d6f756e7420657863656564732062616c616e\n        /* \"#utility.yul\":35236:35237   */\n      0x00\n        /* \"#utility.yul\":35228:35234   */\n      dup3\n        /* \"#utility.yul\":35224:35238   */\n      add\n        /* \"#utility.yul\":35217:35275   */\n      mstore\n        /* \"#utility.yul\":35309:35313   */\n      0x6365000000000000000000000000000000000000000000000000000000000000\n        /* \"#utility.yul\":35304:35306   */\n      0x20\n        /* \"#utility.yul\":35296:35302   */\n      dup3\n        /* \"#utility.yul\":35292:35307   */\n      add\n        /* \"#utility.yul\":35285:35314   */\n      mstore\n        /* \"#utility.yul\":35100:35321   */\n      pop\n      jump\t// out\n        /* \"#utility.yul\":35327:35693   */\n    tag_406:\n        /* \"#utility.yul\":35469:35472   */\n      0x00\n        /* \"#utility.yul\":35490:35557   */\n      tag_721\n        /* \"#utility.yul\":35554:35556   */\n      0x22\n        /* \"#utility.yul\":35549:35552   */\n      dup4\n        /* \"#utility.yul\":35490:35557   */\n      tag_320\n      jump\t// in\n    tag_721:\n        /* \"#utility.yul\":35483:35557   */\n      swap2\n      pop\n        /* \"#utility.yul\":35566:35659   */\n      tag_722\n        /* \"#utility.yul\":35655:35658   */\n      dup3\n        /* \"#utility.yul\":35566:35659   */\n      tag_405\n      jump\t// in\n    tag_722:\n        /* \"#utility.yul\":35684:35686   */\n      0x40\n        /* \"#utility.yul\":35679:35682   */\n      dup3\n        /* \"#utility.yul\":35675:35687   */\n      add\n        /* \"#utility.yul\":35668:35687   */\n      swap1\n      pop\n        /* \"#utility.yul\":35327:35693   */\n      swap2\n      swap1\n      pop\n      jump\t// out\n        /* \"#utility.yul\":35699:36118   */\n    tag_299:\n        /* \"#utility.yul\":35865:35869   */\n      0x00\n        /* \"#utility.yul\":35903:35905   */\n      0x20\n        /* \"#utility.yul\":35892:35901   */\n      dup3\n        /* \"#utility.yul\":35888:35906   */\n      add\n        /* \"#utility.yul\":35880:35906   */\n      swap1\n      pop\n        /* \"#utility.yul\":35952:35961   */\n      dup2\n        /* \"#utility.yul\":35946:35950   */\n      dup2\n        /* \"#utility.yul\":35942:35962   */\n      sub\n        /* \"#utility.yul\":35938:35939   */\n      0x00\n        /* \"#utility.yul\":35927:35936   */\n      dup4\n        /* \"#utility.yul\":35923:35940   */\n      add\n        /* \"#utility.yul\":35916:35963   */\n      mstore\n        /* \"#utility.yul\":35980:36111   */\n      tag_724\n        /* \"#utility.yul\":36106:36110   */\n      dup2\n        /* \"#utility.yul\":35980:36111   */\n      tag_406\n      jump\t// in\n    tag_724:\n        /* \"#utility.yul\":35972:36111   */\n      swap1\n      pop\n        /* \"#utility.yul\":35699:36118   */\n      swap2\n      swap1\n      pop\n      jump\t// out\n        /* \"#utility.yul\":36124:36306   */\n    tag_407:\n        /* \"#utility.yul\":36264:36298   */\n      0x4f776e61626c653a2063616c6c6572206973206e6f7420746865206f776e6572\n        /* \"#utility.yul\":36260:36261   */\n      0x00\n        /* \"#utility.yul\":36252:36258   */\n      dup3\n        /* \"#utility.yul\":36248:36262   */\n      add\n        /* \"#utility.yul\":36241:36299   */\n      mstore\n        /* \"#utility.yul\":36124:36306   */\n      pop\n      jump\t// out\n        /* \"#utility.yul\":36312:36678   */\n    tag_408:\n        /* \"#utility.yul\":36454:36457   */\n      0x00\n        /* \"#utility.yul\":36475:36542   */\n      tag_727\n        /* \"#utility.yul\":36539:36541   */\n      0x20\n        /* \"#utility.yul\":36534:36537   */\n      dup4\n        /* \"#utility.yul\":36475:36542   */\n      tag_320\n      jump\t// in\n    tag_727:\n        /* \"#utility.yul\":36468:36542   */\n      swap2\n      pop\n        /* \"#utility.yul\":36551:36644   */\n      tag_728\n        /* \"#utility.yul\":36640:36643   */\n      dup3\n        /* \"#utility.yul\":36551:36644   */\n      tag_407\n      jump\t// in\n    tag_728:\n        /* \"#utility.yul\":36669:36671   */\n      0x20\n        /* \"#utility.yul\":36664:36667   */\n      dup3\n        /* \"#utility.yul\":36660:36672   */\n      add\n        /* \"#utility.yul\":36653:36672   */\n      swap1\n      pop\n        /* \"#utility.yul\":36312:36678   */\n      swap2\n      swap1\n      pop\n      jump\t// out\n        /* \"#utility.yul\":36684:37103   */\n    tag_307:\n        /* \"#utility.yul\":36850:36854   */\n      0x00\n        /* \"#utility.yul\":36888:36890   */\n      0x20\n        /* \"#utility.yul\":36877:36886   */\n      dup3\n        /* \"#utility.yul\":36873:36891   */\n      add\n        /* \"#utility.yul\":36865:36891   */\n      swap1\n      pop\n        /* \"#utility.yul\":36937:36946   */\n      dup2\n        /* \"#utility.yul\":36931:36935   */\n      dup2\n        /* \"#utility.yul\":36927:36947   */\n      sub\n        /* \"#utility.yul\":36923:36924   */\n      0x00\n        /* \"#utility.yul\":36912:36921   */\n      dup4\n        /* \"#utility.yul\":36908:36925   */\n      add\n        /* \"#utility.yul\":36901:36948   */\n      mstore\n        /* \"#utility.yul\":36965:37096   */\n      tag_730\n        /* \"#utility.yul\":37091:37095   */\n      dup2\n        /* \"#utility.yul\":36965:37096   */\n      tag_408\n      jump\t// in\n    tag_730:\n        /* \"#utility.yul\":36957:37096   */\n      swap1\n      pop\n        /* \"#utility.yul\":36684:37103   */\n      swap2\n      swap1\n      pop\n      jump\t// out\n        /* \"#utility.yul\":37109:37290   */\n    tag_409:\n        /* \"#utility.yul\":37249:37282   */\n      0x45524332303a206d696e7420746f20746865207a65726f206164647265737300\n        /* \"#utility.yul\":37245:37246   */\n      0x00\n        /* \"#utility.yul\":37237:37243   */\n      dup3\n        /* \"#utility.yul\":37233:37247   */\n      add\n        /* \"#utility.yul\":37226:37283   */\n      mstore\n        /* \"#utility.yul\":37109:37290   */\n      pop\n      jump\t// out\n        /* \"#utility.yul\":37296:37662   */\n    tag_410:\n        /* \"#utility.yul\":37438:37441   */\n      0x00\n        /* \"#utility.yul\":37459:37526   */\n      tag_733\n        /* \"#utility.yul\":37523:37525   */\n      0x1f\n        /* \"#utility.yul\":37518:37521   */\n      dup4\n        /* \"#utility.yul\":37459:37526   */\n      tag_320\n      jump\t// in\n    tag_733:\n        /* \"#utility.yul\":37452:37526   */\n      swap2\n      pop\n        /* \"#utility.yul\":37535:37628   */\n      tag_734\n        /* \"#utility.yul\":37624:37627   */\n      dup3\n        /* \"#utility.yul\":37535:37628   */\n      tag_409\n      jump\t// in\n    tag_734:\n        /* \"#utility.yul\":37653:37655   */\n      0x20\n        /* \"#utility.yul\":37648:37651   */\n      dup3\n        /* \"#utility.yul\":37644:37656   */\n      add\n        /* \"#utility.yul\":37637:37656   */\n      swap1\n      pop\n        /* \"#utility.yul\":37296:37662   */\n      swap2\n      swap1\n      pop\n      jump\t// out\n        /* \"#utility.yul\":37668:38087   */\n    tag_312:\n        /* \"#utility.yul\":37834:37838   */\n      0x00\n        /* \"#utility.yul\":37872:37874   */\n      0x20\n        /* \"#utility.yul\":37861:37870   */\n      dup3\n        /* \"#utility.yul\":37857:37875   */\n      add\n        /* \"#utility.yul\":37849:37875   */\n      swap1\n      pop\n        /* \"#utility.yul\":37921:37930   */\n      dup2\n        /* \"#utility.yul\":37915:37919   */\n      dup2\n        /* \"#utility.yul\":37911:37931   */\n      sub\n        /* \"#utility.yul\":37907:37908   */\n      0x00\n        /* \"#utility.yul\":37896:37905   */\n      dup4\n        /* \"#utility.yul\":37892:37909   */\n      add\n        /* \"#utility.yul\":37885:37932   */\n      mstore\n        /* \"#utility.yul\":37949:38080   */\n      tag_736\n        /* \"#utility.yul\":38075:38079   */\n      dup2\n        /* \"#utility.yul\":37949:38080   */\n      tag_410\n      jump\t// in\n    tag_736:\n        /* \"#utility.yul\":37941:38080   */\n      swap1\n      pop\n        /* \"#utility.yul\":37668:38087   */\n      swap2\n      swap1\n      pop\n      jump\t// out\n\n    auxdata: 0xa2646970667358221220fa47e90953298045291410898f54e9cc16e0de51564970f78f836af117845a6d64736f6c63430008120033\n}\n",
				"bytecode": {
					"linkReferences": {},
					"object": "60806040523480156200001157600080fd5b506040518060400160405280600a81526020017f446567656e546f6b656e000000000000000000000000000000000000000000008152506040518060400160405280600581526020017f444547454e00000000000000000000000000000000000000000000000000000081525081600390816200008f91906200059d565b508060049081620000a191906200059d565b505050620000c4620000b8620000de60201b60201c565b620000e660201b60201c565b620000d8336103e8620001ac60201b60201c565b6200079f565b600033905090565b6000600560009054906101000a900473ffffffffffffffffffffffffffffffffffffffff16905081600560006101000a81548173ffffffffffffffffffffffffffffffffffffffff021916908373ffffffffffffffffffffffffffffffffffffffff1602179055508173ffffffffffffffffffffffffffffffffffffffff168173ffffffffffffffffffffffffffffffffffffffff167f8be0079c531659141344cd1fd0a4f28419497f9722a3daafe3b4186f6b6457e060405160405180910390a35050565b600073ffffffffffffffffffffffffffffffffffffffff168273ffffffffffffffffffffffffffffffffffffffff16036200021e576040517f08c379a00000000000000000000000000000000000000000000000000000000081526004016200021590620006e5565b60405180910390fd5b62000232600083836200031960201b60201c565b806002600082825462000246919062000736565b92505081905550806000808473ffffffffffffffffffffffffffffffffffffffff1673ffffffffffffffffffffffffffffffffffffffff168152602001908152602001600020600082825401925050819055508173ffffffffffffffffffffffffffffffffffffffff16600073ffffffffffffffffffffffffffffffffffffffff167fddf252ad1be2c89b69c2b068fc378daa952ba7f163c4a11628f55a4df523b3ef83604051620002f9919062000782565b60405180910390a362000315600083836200031e60201b60201c565b5050565b505050565b505050565b600081519050919050565b7f4e487b7100000000000000000000000000000000000000000000000000000000600052604160045260246000fd5b7f4e487b7100000000000000000000000000000000000000000000000000000000600052602260045260246000fd5b60006002820490506001821680620003a557607f821691505b602082108103620003bb57620003ba6200035d565b5b50919050565b60008190508160005260206000209050919050565b60006020601f8301049050919050565b600082821b905092915050565b600060088302620004257fffffffffffffffffffffffffffffffffffffffffffffffffffffffffffffffff82620003e6565b620004318683620003e6565b95508019841693508086168417925050509392505050565b6000819050919050565b6000819050919050565b60006200047e62000478620004728462000449565b62000453565b62000449565b9050919050565b6000819050919050565b6200049a836200045d565b620004b2620004a98262000485565b848454620003f3565b825550505050565b600090565b620004c9620004ba565b620004d68184846200048f565b505050565b5b81811015620004fe57620004f2600082620004bf565b600181019050620004dc565b5050565b601f8211156200054d576200051781620003c1565b6200052284620003d6565b8101602085101562000532578190505b6200054a6200054185620003d6565b830182620004db565b50505b505050565b600082821c905092915050565b6000620005726000198460080262000552565b1980831691505092915050565b60006200058d83836200055f565b9150826002028217905092915050565b620005a88262000323565b67ffffffffffffffff811115620005c457620005c36200032e565b5b620005d082546200038c565b620005dd82828562000502565b600060209050601f83116001811462000615576000841562000600578287015190505b6200060c85826200057f565b8655506200067c565b601f1984166200062586620003c1565b60005b828110156200064f5784890151825560018201915060208501945060208101905062000628565b868310156200066f57848901516200066b601f8916826200055f565b8355505b6001600288020188555050505b505050505050565b600082825260208201905092915050565b7f45524332303a206d696e7420746f20746865207a65726f206164647265737300600082015250565b6000620006cd601f8362000684565b9150620006da8262000695565b602082019050919050565b600060208201905081810360008301526200070081620006be565b9050919050565b7f4e487b7100000000000000000000000000000000000000000000000000000000600052601160045260246000fd5b6000620007438262000449565b9150620007508362000449565b92508282019050808211156200076b576200076a62000707565b5b92915050565b6200077c8162000449565b82525050565b600060208201905062000799600083018462000771565b92915050565b612bb980620007af6000396000f3fe608060405234801561001057600080fd5b50600436106101585760003560e01c80638da5cb5b116100c3578063bec3fa171161007c578063bec3fa17146103f1578063cc56857d1461040d578063dd62ed3e1461042b578063e6e645d11461045b578063f0dda65c14610477578063f2fde38b1461049357610158565b80638da5cb5b1461031d57806395d89b411461033b578063a196f96614610359578063a457c2d714610375578063a6e158f8146103a5578063a9059cbb146103c157610158565b8063313ce56711610115578063313ce5671461025b57806339509351146102795780636bfb0d01146102a95780636d1b229d146102c757806370a08231146102e3578063715018a61461031357610158565b806306fdde031461015d578063095ea7b31461017b578063126cbe60146101ab57806318160ddd146101db57806321dded92146101f957806323b872dd1461022b575b600080fd5b6101656104af565b6040516101729190611859565b60405180910390f35b61019560048036038101906101909190611923565b610541565b6040516101a2919061197e565b60405180910390f35b6101c560048036038101906101c09190611999565b610564565b6040516101d291906119d5565b60405180910390f35b6101e3610576565b6040516101f091906119d5565b60405180910390f35b610213600480360381019061020e91906119f0565b610580565b60405161022293929190611a1d565b60405180910390f35b61024560048036038101906102409190611a5b565b610632565b604051610252919061197e565b60405180910390f35b610263610661565b6040516102709190611aca565b60405180910390f35b610293600480360381019061028e9190611923565b61066a565b6040516102a0919061197e565b60405180910390f35b6102b16106a1565b6040516102be91906119d5565b60405180910390f35b6102e160048036038101906102dc91906119f0565b6106a7565b005b6102fd60048036038101906102f89190611999565b6106ff565b60405161030a91906119d5565b60405180910390f35b61031b610747565b005b61032561075b565b6040516103329190611af4565b60405180910390f35b610343610785565b6040516103509190611859565b60405180910390f35b610373600480360381019061036e9190611c44565b610817565b005b61038f600480360381019061038a9190611923565b61091f565b60405161039c919061197e565b60405180910390f35b6103bf60048036038101906103ba91906119f0565b610996565b005b6103db60048036038101906103d69190611923565b6109ee565b6040516103e8919061197e565b60405180910390f35b61040b60048036038101906104069190611923565b610a11565b005b610415610a8f565b6040516104229190611e1e565b60405180910390f35b61044560048036038101906104409190611e40565b610c04565b60405161045291906119d5565b60405180910390f35b610475600480360381019061047091906119f0565b610c8b565b005b610491600480360381019061048c9190611923565b610dcb565b005b6104ad60048036038101906104a89190611999565b610de1565b005b6060600380546104be90611eaf565b80601f01602080910402602001604051908101604052809291908181526020018280546104ea90611eaf565b80156105375780601f1061050c57610100808354040283529160200191610537565b820191906000526020600020905b81548152906001019060200180831161051a57829003601f168201915b5050505050905090565b60008061054c610e64565b9050610559818585610e6c565b600191505092915050565b600061056f826106ff565b9050919050565b6000600254905090565b60066020528060005260406000206000915090508060000180546105a390611eaf565b80601f01602080910402602001604051908101604052809291908181526020018280546105cf90611eaf565b801561061c5780601f106105f15761010080835404028352916020019161061c565b820191906000526020600020905b8154815290600101906020018083116105ff57829003601f168201915b5050505050908060010154908060020154905083565b60008061063d610e64565b905061064a858285611035565b6106558585856110c1565b60019150509392505050565b60006012905090565b600080610675610e64565b90506106968185856106878589610c04565b6106919190611f0f565b610e6c565b600191505092915050565b60075481565b806106b1336106ff565b10156106f2576040517f08c379a00000000000000000000000000000000000000000000000000000000081526004016106e990611f8f565b60405180910390fd5b6106fc3382611337565b50565b60008060008373ffffffffffffffffffffffffffffffffffffffff1673ffffffffffffffffffffffffffffffffffffffff168152602001908152602001600020549050919050565b61074f611504565b6107596000611582565b565b6000600560009054906101000a900473ffffffffffffffffffffffffffffffffffffffff16905090565b60606004805461079490611eaf565b80601f01602080910402602001604051908101604052809291908181526020018280546107c090611eaf565b801561080d5780601f106107e25761010080835404028352916020019161080d565b820191906000526020600020905b8154815290600101906020018083116107f057829003601f168201915b5050505050905090565b61081f611504565b60008211610862576040517f08c379a000000000000000000000000000000000000000000000000000000000815260040161085990611ffb565b60405180910390fd5b600081116108a5576040517f08c379a000000000000000000000000000000000000000000000000000000000815260040161089c90612067565b60405180910390fd5b600760008154809291906108b890612087565b91905055506040518060600160405280848152602001838152602001828152506006600060075481526020019081526020016000206000820151816000019081610902919061227b565b506020820151816001015560408201518160020155905050505050565b60008061092a610e64565b905060006109388286610c04565b90508381101561097d576040517f08c379a0000000000000000000000000000000000000000000000000000000008152600401610974906123bf565b60405180910390fd5b61098a8286868403610e6c565b60019250505092915050565b806109a0336106ff565b10156109e1576040517f08c379a00000000000000000000000000000000000000000000000000000000081526004016109d890611f8f565b60405180910390fd5b6109eb3382611337565b50565b6000806109f9610e64565b9050610a068185856110c1565b600191505092915050565b600073ffffffffffffffffffffffffffffffffffffffff168273ffffffffffffffffffffffffffffffffffffffff1603610a80576040517f08c379a0000000000000000000000000000000000000000000000000000000008152600401610a779061242b565b60405180910390fd5b610a8b3383836110c1565b5050565b6060600060075467ffffffffffffffff811115610aaf57610aae611b19565b5b604051908082528060200260200182016040528015610ae857816020015b610ad56117a8565b815260200190600190039081610acd5790505b5090506000600190505b6007548111610bfc5760066000828152602001908152602001600020604051806060016040529081600082018054610b2990611eaf565b80601f0160208091040260200160405190810160405280929190818152602001828054610b5590611eaf565b8015610ba25780601f10610b7757610100808354040283529160200191610ba2565b820191906000526020600020905b815481529060010190602001808311610b8557829003601f168201915b505050505081526020016001820154815260200160028201548152505082600183610bcd919061244b565b81518110610bde57610bdd61247f565b5b60200260200101819052508080610bf490612087565b915050610af2565b508091505090565b6000600160008473ffffffffffffffffffffffffffffffffffffffff1673ffffffffffffffffffffffffffffffffffffffff16815260200190815260200160002060008373ffffffffffffffffffffffffffffffffffffffff1673ffffffffffffffffffffffffffffffffffffffff16815260200190815260200160002054905092915050565b600081118015610c9d57506007548111155b610cdc576040517f08c379a0000000000000000000000000000000000000000000000000000000008152600401610cd3906124fa565b60405180910390fd5b60006006600083815260200190815260200160002090506000816002015411610d3a576040517f08c379a0000000000000000000000000000000000000000000000000000000008152600401610d3190612566565b60405180910390fd5b8060010154610d48336106ff565b1015610d89576040517f08c379a0000000000000000000000000000000000000000000000000000000008152600401610d8090611f8f565b60405180910390fd5b610d9f33610d9561075b565b83600101546110c1565b610dad338260010154611337565b806002016000815480929190610dc290612586565b91905055505050565b610dd3611504565b610ddd8282611648565b5050565b610de9611504565b600073ffffffffffffffffffffffffffffffffffffffff168173ffffffffffffffffffffffffffffffffffffffff1603610e58576040517f08c379a0000000000000000000000000000000000000000000000000000000008152600401610e4f90612621565b60405180910390fd5b610e6181611582565b50565b600033905090565b600073ffffffffffffffffffffffffffffffffffffffff168373ffffffffffffffffffffffffffffffffffffffff1603610edb576040517f08c379a0000000000000000000000000000000000000000000000000000000008152600401610ed2906126b3565b60405180910390fd5b600073ffffffffffffffffffffffffffffffffffffffff168273ffffffffffffffffffffffffffffffffffffffff1603610f4a576040517f08c379a0000000000000000000000000000000000000000000000000000000008152600401610f4190612745565b60405180910390fd5b80600160008573ffffffffffffffffffffffffffffffffffffffff1673ffffffffffffffffffffffffffffffffffffffff16815260200190815260200160002060008473ffffffffffffffffffffffffffffffffffffffff1673ffffffffffffffffffffffffffffffffffffffff168152602001908152602001600020819055508173ffffffffffffffffffffffffffffffffffffffff168373ffffffffffffffffffffffffffffffffffffffff167f8c5be1e5ebec7d5bd14f71427d1e84f3dd0314c0f7b2291e5b200ac8c7c3b9258360405161102891906119d5565b60405180910390a3505050565b60006110418484610c04565b90507fffffffffffffffffffffffffffffffffffffffffffffffffffffffffffffffff81146110bb57818110156110ad576040517f08c379a00000000000000000000000000000000000000000000000000000000081526004016110a4906127b1565b60405180910390fd5b6110ba8484848403610e6c565b5b50505050565b600073ffffffffffffffffffffffffffffffffffffffff168373ffffffffffffffffffffffffffffffffffffffff1603611130576040517f08c379a000000000000000000000000000000000000000000000000000000000815260040161112790612843565b60405180910390fd5b600073ffffffffffffffffffffffffffffffffffffffff168273ffffffffffffffffffffffffffffffffffffffff160361119f576040517f08c379a0000000000000000000000000000000000000000000000000000000008152600401611196906128d5565b60405180910390fd5b6111aa83838361179e565b60008060008573ffffffffffffffffffffffffffffffffffffffff1673ffffffffffffffffffffffffffffffffffffffff16815260200190815260200160002054905081811015611230576040517f08c379a000000000000000000000000000000000000000000000000000000000815260040161122790612967565b60405180910390fd5b8181036000808673ffffffffffffffffffffffffffffffffffffffff1673ffffffffffffffffffffffffffffffffffffffff16815260200190815260200160002081905550816000808573ffffffffffffffffffffffffffffffffffffffff1673ffffffffffffffffffffffffffffffffffffffff168152602001908152602001600020600082825401925050819055508273ffffffffffffffffffffffffffffffffffffffff168473ffffffffffffffffffffffffffffffffffffffff167fddf252ad1be2c89b69c2b068fc378daa952ba7f163c4a11628f55a4df523b3ef8460405161131e91906119d5565b60405180910390a36113318484846117a3565b50505050565b600073ffffffffffffffffffffffffffffffffffffffff168273ffffffffffffffffffffffffffffffffffffffff16036113a6576040517f08c379a000000000000000000000000000000000000000000000000000000000815260040161139d906129f9565b60405180910390fd5b6113b28260008361179e565b60008060008473ffffffffffffffffffffffffffffffffffffffff1673ffffffffffffffffffffffffffffffffffffffff16815260200190815260200160002054905081811015611438576040517f08c379a000000000000000000000000000000000000000000000000000000000815260040161142f90612a8b565b60405180910390fd5b8181036000808573ffffffffffffffffffffffffffffffffffffffff1673ffffffffffffffffffffffffffffffffffffffff1681526020019081526020016000208190555081600260008282540392505081905550600073ffffffffffffffffffffffffffffffffffffffff168373ffffffffffffffffffffffffffffffffffffffff167fddf252ad1be2c89b69c2b068fc378daa952ba7f163c4a11628f55a4df523b3ef846040516114eb91906119d5565b60405180910390a36114ff836000846117a3565b505050565b61150c610e64565b73ffffffffffffffffffffffffffffffffffffffff1661152a61075b565b73ffffffffffffffffffffffffffffffffffffffff1614611580576040517f08c379a000000000000000000000000000000000000000000000000000000000815260040161157790612af7565b60405180910390fd5b565b6000600560009054906101000a900473ffffffffffffffffffffffffffffffffffffffff16905081600560006101000a81548173ffffffffffffffffffffffffffffffffffffffff021916908373ffffffffffffffffffffffffffffffffffffffff1602179055508173ffffffffffffffffffffffffffffffffffffffff168173ffffffffffffffffffffffffffffffffffffffff167f8be0079c531659141344cd1fd0a4f28419497f9722a3daafe3b4186f6b6457e060405160405180910390a35050565b600073ffffffffffffffffffffffffffffffffffffffff168273ffffffffffffffffffffffffffffffffffffffff16036116b7576040517f08c379a00000000000000000000000000000000000000000000000000000000081526004016116ae90612b63565b60405180910390fd5b6116c36000838361179e565b80600260008282546116d59190611f0f565b92505081905550806000808473ffffffffffffffffffffffffffffffffffffffff1673ffffffffffffffffffffffffffffffffffffffff168152602001908152602001600020600082825401925050819055508173ffffffffffffffffffffffffffffffffffffffff16600073ffffffffffffffffffffffffffffffffffffffff167fddf252ad1be2c89b69c2b068fc378daa952ba7f163c4a11628f55a4df523b3ef8360405161178691906119d5565b60405180910390a361179a600083836117a3565b5050565b505050565b505050565b60405180606001604052806060815260200160008152602001600081525090565b600081519050919050565b600082825260208201905092915050565b60005b838110156118035780820151818401526020810190506117e8565b60008484015250505050565b6000601f19601f8301169050919050565b600061182b826117c9565b61183581856117d4565b93506118458185602086016117e5565b61184e8161180f565b840191505092915050565b600060208201905081810360008301526118738184611820565b905092915050565b6000604051905090565b600080fd5b600080fd5b600073ffffffffffffffffffffffffffffffffffffffff82169050919050565b60006118ba8261188f565b9050919050565b6118ca816118af565b81146118d557600080fd5b50565b6000813590506118e7816118c1565b92915050565b6000819050919050565b611900816118ed565b811461190b57600080fd5b50565b60008135905061191d816118f7565b92915050565b6000806040838503121561193a57611939611885565b5b6000611948858286016118d8565b92505060206119598582860161190e565b9150509250929050565b60008115159050919050565b61197881611963565b82525050565b6000602082019050611993600083018461196f565b92915050565b6000602082840312156119af576119ae611885565b5b60006119bd848285016118d8565b91505092915050565b6119cf816118ed565b82525050565b60006020820190506119ea60008301846119c6565b92915050565b600060208284031215611a0657611a05611885565b5b6000611a148482850161190e565b91505092915050565b60006060820190508181036000830152611a378186611820565b9050611a4660208301856119c6565b611a5360408301846119c6565b949350505050565b600080600060608486031215611a7457611a73611885565b5b6000611a82868287016118d8565b9350506020611a93868287016118d8565b9250506040611aa48682870161190e565b9150509250925092565b600060ff82169050919050565b611ac481611aae565b82525050565b6000602082019050611adf6000830184611abb565b92915050565b611aee816118af565b82525050565b6000602082019050611b096000830184611ae5565b92915050565b600080fd5b600080fd5b7f4e487b7100000000000000000000000000000000000000000000000000000000600052604160045260246000fd5b611b518261180f565b810181811067ffffffffffffffff82111715611b7057611b6f611b19565b5b80604052505050565b6000611b8361187b565b9050611b8f8282611b48565b919050565b600067ffffffffffffffff821115611baf57611bae611b19565b5b611bb88261180f565b9050602081019050919050565b82818337600083830152505050565b6000611be7611be284611b94565b611b79565b905082815260208101848484011115611c0357611c02611b14565b5b611c0e848285611bc5565b509392505050565b600082601f830112611c2b57611c2a611b0f565b5b8135611c3b848260208601611bd4565b91505092915050565b600080600060608486031215611c5d57611c5c611885565b5b600084013567ffffffffffffffff811115611c7b57611c7a61188a565b5b611c8786828701611c16565b9350506020611c988682870161190e565b9250506040611ca98682870161190e565b9150509250925092565b600081519050919050565b600082825260208201905092915050565b6000819050602082019050919050565b600082825260208201905092915050565b6000611cfb826117c9565b611d058185611cdf565b9350611d158185602086016117e5565b611d1e8161180f565b840191505092915050565b611d32816118ed565b82525050565b60006060830160008301518482036000860152611d558282611cf0565b9150506020830151611d6a6020860182611d29565b506040830151611d7d6040860182611d29565b508091505092915050565b6000611d948383611d38565b905092915050565b6000602082019050919050565b6000611db482611cb3565b611dbe8185611cbe565b935083602082028501611dd085611ccf565b8060005b85811015611e0c5784840389528151611ded8582611d88565b9450611df883611d9c565b925060208a01995050600181019050611dd4565b50829750879550505050505092915050565b60006020820190508181036000830152611e388184611da9565b905092915050565b60008060408385031215611e5757611e56611885565b5b6000611e65858286016118d8565b9250506020611e76858286016118d8565b9150509250929050565b7f4e487b7100000000000000000000000000000000000000000000000000000000600052602260045260246000fd5b60006002820490506001821680611ec757607f821691505b602082108103611eda57611ed9611e80565b5b50919050565b7f4e487b7100000000000000000000000000000000000000000000000000000000600052601160045260246000fd5b6000611f1a826118ed565b9150611f25836118ed565b9250828201905080821115611f3d57611f3c611ee0565b5b92915050565b7f496e73756666696369656e742062616c616e6365000000000000000000000000600082015250565b6000611f796014836117d4565b9150611f8482611f43565b602082019050919050565b60006020820190508181036000830152611fa881611f6c565b9050919050565b7f5072696365206d7573742062652067726561746572207468616e203000000000600082015250565b6000611fe5601c836117d4565b9150611ff082611faf565b602082019050919050565b6000602082019050818103600083015261201481611fd8565b9050919050565b7f53746f636b206d7573742062652067726561746572207468616e203000000000600082015250565b6000612051601c836117d4565b915061205c8261201b565b602082019050919050565b6000602082019050818103600083015261208081612044565b9050919050565b6000612092826118ed565b91507fffffffffffffffffffffffffffffffffffffffffffffffffffffffffffffffff82036120c4576120c3611ee0565b5b600182019050919050565b60008190508160005260206000209050919050565b60006020601f8301049050919050565b600082821b905092915050565b6000600883026121317fffffffffffffffffffffffffffffffffffffffffffffffffffffffffffffffff826120f4565b61213b86836120f4565b95508019841693508086168417925050509392505050565b6000819050919050565b600061217861217361216e846118ed565b612153565b6118ed565b9050919050565b6000819050919050565b6121928361215d565b6121a661219e8261217f565b848454612101565b825550505050565b600090565b6121bb6121ae565b6121c6818484612189565b505050565b5b818110156121ea576121df6000826121b3565b6001810190506121cc565b5050565b601f82111561222f57612200816120cf565b612209846120e4565b81016020851015612218578190505b61222c612224856120e4565b8301826121cb565b50505b505050565b600082821c905092915050565b600061225260001984600802612234565b1980831691505092915050565b600061226b8383612241565b9150826002028217905092915050565b612284826117c9565b67ffffffffffffffff81111561229d5761229c611b19565b5b6122a78254611eaf565b6122b28282856121ee565b600060209050601f8311600181146122e557600084156122d3578287015190505b6122dd858261225f565b865550612345565b601f1984166122f3866120cf565b60005b8281101561231b578489015182556001820191506020850194506020810190506122f6565b868310156123385784890151612334601f891682612241565b8355505b6001600288020188555050505b505050505050565b7f45524332303a2064656372656173656420616c6c6f77616e63652062656c6f7760008201527f207a65726f000000000000000000000000000000000000000000000000000000602082015250565b60006123a96025836117d4565b91506123b48261234d565b604082019050919050565b600060208201905081810360008301526123d88161239c565b9050919050565b7f496e76616c696420726563697069656e74206164647265737300000000000000600082015250565b60006124156019836117d4565b9150612420826123df565b602082019050919050565b6000602082019050818103600083015261244481612408565b9050919050565b6000612456826118ed565b9150612461836118ed565b925082820390508181111561247957612478611ee0565b5b92915050565b7f4e487b7100000000000000000000000000000000000000000000000000000000600052603260045260246000fd5b7f496e76616c6964206974656d2049440000000000000000000000000000000000600082015250565b60006124e4600f836117d4565b91506124ef826124ae565b602082019050919050565b60006020820190508181036000830152612513816124d7565b9050919050565b7f4974656d206f7574206f662073746f636b000000000000000000000000000000600082015250565b60006125506011836117d4565b915061255b8261251a565b602082019050919050565b6000602082019050818103600083015261257f81612543565b9050919050565b6000612591826118ed565b9150600082036125a4576125a3611ee0565b5b600182039050919050565b7f4f776e61626c653a206e6577206f776e657220697320746865207a65726f206160008201527f6464726573730000000000000000000000000000000000000000000000000000602082015250565b600061260b6026836117d4565b9150612616826125af565b604082019050919050565b6000602082019050818103600083015261263a816125fe565b9050919050565b7f45524332303a20617070726f76652066726f6d20746865207a65726f2061646460008201527f7265737300000000000000000000000000000000000000000000000000000000602082015250565b600061269d6024836117d4565b91506126a882612641565b604082019050919050565b600060208201905081810360008301526126cc81612690565b9050919050565b7f45524332303a20617070726f766520746f20746865207a65726f20616464726560008201527f7373000000000000000000000000000000000000000000000000000000000000602082015250565b600061272f6022836117d4565b915061273a826126d3565b604082019050919050565b6000602082019050818103600083015261275e81612722565b9050919050565b7f45524332303a20696e73756666696369656e7420616c6c6f77616e6365000000600082015250565b600061279b601d836117d4565b91506127a682612765565b602082019050919050565b600060208201905081810360008301526127ca8161278e565b9050919050565b7f45524332303a207472616e736665722066726f6d20746865207a65726f20616460008201527f6472657373000000000000000000000000000000000000000000000000000000602082015250565b600061282d6025836117d4565b9150612838826127d1565b604082019050919050565b6000602082019050818103600083015261285c81612820565b9050919050565b7f45524332303a207472616e7366657220746f20746865207a65726f206164647260008201527f6573730000000000000000000000000000000000000000000000000000000000602082015250565b60006128bf6023836117d4565b91506128ca82612863565b604082019050919050565b600060208201905081810360008301526128ee816128b2565b9050919050565b7f45524332303a207472616e7366657220616d6f756e742065786365656473206260008201527f616c616e63650000000000000000000000000000000000000000000000000000602082015250565b60006129516026836117d4565b915061295c826128f5565b604082019050919050565b6000602082019050818103600083015261298081612944565b9050919050565b7f45524332303a206275726e2066726f6d20746865207a65726f2061646472657360008201527f7300000000000000000000000000000000000000000000000000000000000000602082015250565b60006129e36021836117d4565b91506129ee82612987565b604082019050919050565b60006020820190508181036000830152612a12816129d6565b9050919050565b7f45524332303a206275726e20616d6f756e7420657863656564732062616c616e60008201527f6365000000000000000000000000000000000000000000000000000000000000602082015250565b6000612a756022836117d4565b9150612a8082612a19565b604082019050919050565b60006020820190508181036000830152612aa481612a68565b9050919050565b7f4f776e61626c653a2063616c6c6572206973206e6f7420746865206f776e6572600082015250565b6000612ae16020836117d4565b9150612aec82612aab565b602082019050919050565b60006020820190508181036000830152612b1081612ad4565b9050919050565b7f45524332303a206d696e7420746f20746865207a65726f206164647265737300600082015250565b6000612b4d601f836117d4565b9150612b5882612b17565b602082019050919050565b60006020820190508181036000830152612b7c81612b40565b905091905056fea2646970667358221220fa47e90953298045291410898f54e9cc16e0de51564970f78f836af117845a6d64736f6c63430008120033",
					"opcodes": "PUSH1 0x80 PUSH1 0x40 MSTORE CALLVALUE DUP1 ISZERO PUSH3 0x11 JUMPI PUSH1 0x0 DUP1 REVERT JUMPDEST POP PUSH1 0x40 MLOAD DUP1 PUSH1 0x40 ADD PUSH1 0x40 MSTORE DUP1 PUSH1 0xA DUP2 MSTORE PUSH1 0x20 ADD PUSH32 0x446567656E546F6B656E00000000000000000000000000000000000000000000 DUP2 MSTORE POP PUSH1 0x40 MLOAD DUP1 PUSH1 0x40 ADD PUSH1 0x40 MSTORE DUP1 PUSH1 0x5 DUP2 MSTORE PUSH1 0x20 ADD PUSH32 0x444547454E000000000000000000000000000000000000000000000000000000 DUP2 MSTORE POP DUP2 PUSH1 0x3 SWAP1 DUP2 PUSH3 0x8F SWAP2 SWAP1 PUSH3 0x59D JUMP JUMPDEST POP DUP1 PUSH1 0x4 SWAP1 DUP2 PUSH3 0xA1 SWAP2 SWAP1 PUSH3 0x59D JUMP JUMPDEST POP POP POP PUSH3 0xC4 PUSH3 0xB8 PUSH3 0xDE PUSH1 0x20 SHL PUSH1 0x20 SHR JUMP JUMPDEST PUSH3 0xE6 PUSH1 0x20 SHL PUSH1 0x20 SHR JUMP JUMPDEST PUSH3 0xD8 CALLER PUSH2 0x3E8 PUSH3 0x1AC PUSH1 0x20 SHL PUSH1 0x20 SHR JUMP JUMPDEST PUSH3 0x79F JUMP JUMPDEST PUSH1 0x0 CALLER SWAP1 POP SWAP1 JUMP JUMPDEST PUSH1 0x0 PUSH1 0x5 PUSH1 0x0 SWAP1 SLOAD SWAP1 PUSH2 0x100 EXP SWAP1 DIV PUSH20 0xFFFFFFFFFFFFFFFFFFFFFFFFFFFFFFFFFFFFFFFF AND SWAP1 POP DUP2 PUSH1 0x5 PUSH1 0x0 PUSH2 0x100 EXP DUP2 SLOAD DUP2 PUSH20 0xFFFFFFFFFFFFFFFFFFFFFFFFFFFFFFFFFFFFFFFF MUL NOT AND SWAP1 DUP4 PUSH20 0xFFFFFFFFFFFFFFFFFFFFFFFFFFFFFFFFFFFFFFFF AND MUL OR SWAP1 SSTORE POP DUP2 PUSH20 0xFFFFFFFFFFFFFFFFFFFFFFFFFFFFFFFFFFFFFFFF AND DUP2 PUSH20 0xFFFFFFFFFFFFFFFFFFFFFFFFFFFFFFFFFFFFFFFF AND PUSH32 0x8BE0079C531659141344CD1FD0A4F28419497F9722A3DAAFE3B4186F6B6457E0 PUSH1 0x40 MLOAD PUSH1 0x40 MLOAD DUP1 SWAP2 SUB SWAP1 LOG3 POP POP JUMP JUMPDEST PUSH1 0x0 PUSH20 0xFFFFFFFFFFFFFFFFFFFFFFFFFFFFFFFFFFFFFFFF AND DUP3 PUSH20 0xFFFFFFFFFFFFFFFFFFFFFFFFFFFFFFFFFFFFFFFF AND SUB PUSH3 0x21E JUMPI PUSH1 0x40 MLOAD PUSH32 0x8C379A000000000000000000000000000000000000000000000000000000000 DUP2 MSTORE PUSH1 0x4 ADD PUSH3 0x215 SWAP1 PUSH3 0x6E5 JUMP JUMPDEST PUSH1 0x40 MLOAD DUP1 SWAP2 SUB SWAP1 REVERT JUMPDEST PUSH3 0x232 PUSH1 0x0 DUP4 DUP4 PUSH3 0x319 PUSH1 0x20 SHL PUSH1 0x20 SHR JUMP JUMPDEST DUP1 PUSH1 0x2 PUSH1 0x0 DUP3 DUP3 SLOAD PUSH3 0x246 SWAP2 SWAP1 PUSH3 0x736 JUMP JUMPDEST SWAP3 POP POP DUP2 SWAP1 SSTORE POP DUP1 PUSH1 0x0 DUP1 DUP5 PUSH20 0xFFFFFFFFFFFFFFFFFFFFFFFFFFFFFFFFFFFFFFFF AND PUSH20 0xFFFFFFFFFFFFFFFFFFFFFFFFFFFFFFFFFFFFFFFF AND DUP2 MSTORE PUSH1 0x20 ADD SWAP1 DUP2 MSTORE PUSH1 0x20 ADD PUSH1 0x0 KECCAK256 PUSH1 0x0 DUP3 DUP3 SLOAD ADD SWAP3 POP POP DUP2 SWAP1 SSTORE POP DUP2 PUSH20 0xFFFFFFFFFFFFFFFFFFFFFFFFFFFFFFFFFFFFFFFF AND PUSH1 0x0 PUSH20 0xFFFFFFFFFFFFFFFFFFFFFFFFFFFFFFFFFFFFFFFF AND PUSH32 0xDDF252AD1BE2C89B69C2B068FC378DAA952BA7F163C4A11628F55A4DF523B3EF DUP4 PUSH1 0x40 MLOAD PUSH3 0x2F9 SWAP2 SWAP1 PUSH3 0x782 JUMP JUMPDEST PUSH1 0x40 MLOAD DUP1 SWAP2 SUB SWAP1 LOG3 PUSH3 0x315 PUSH1 0x0 DUP4 DUP4 PUSH3 0x31E PUSH1 0x20 SHL PUSH1 0x20 SHR JUMP JUMPDEST POP POP JUMP JUMPDEST POP POP POP JUMP JUMPDEST POP POP POP JUMP JUMPDEST PUSH1 0x0 DUP2 MLOAD SWAP1 POP SWAP2 SWAP1 POP JUMP JUMPDEST PUSH32 0x4E487B7100000000000000000000000000000000000000000000000000000000 PUSH1 0x0 MSTORE PUSH1 0x41 PUSH1 0x4 MSTORE PUSH1 0x24 PUSH1 0x0 REVERT JUMPDEST PUSH32 0x4E487B7100000000000000000000000000000000000000000000000000000000 PUSH1 0x0 MSTORE PUSH1 0x22 PUSH1 0x4 MSTORE PUSH1 0x24 PUSH1 0x0 REVERT JUMPDEST PUSH1 0x0 PUSH1 0x2 DUP3 DIV SWAP1 POP PUSH1 0x1 DUP3 AND DUP1 PUSH3 0x3A5 JUMPI PUSH1 0x7F DUP3 AND SWAP2 POP JUMPDEST PUSH1 0x20 DUP3 LT DUP2 SUB PUSH3 0x3BB JUMPI PUSH3 0x3BA PUSH3 0x35D JUMP JUMPDEST JUMPDEST POP SWAP2 SWAP1 POP JUMP JUMPDEST PUSH1 0x0 DUP2 SWAP1 POP DUP2 PUSH1 0x0 MSTORE PUSH1 0x20 PUSH1 0x0 KECCAK256 SWAP1 POP SWAP2 SWAP1 POP JUMP JUMPDEST PUSH1 0x0 PUSH1 0x20 PUSH1 0x1F DUP4 ADD DIV SWAP1 POP SWAP2 SWAP1 POP JUMP JUMPDEST PUSH1 0x0 DUP3 DUP3 SHL SWAP1 POP SWAP3 SWAP2 POP POP JUMP JUMPDEST PUSH1 0x0 PUSH1 0x8 DUP4 MUL PUSH3 0x425 PUSH32 0xFFFFFFFFFFFFFFFFFFFFFFFFFFFFFFFFFFFFFFFFFFFFFFFFFFFFFFFFFFFFFFFF DUP3 PUSH3 0x3E6 JUMP JUMPDEST PUSH3 0x431 DUP7 DUP4 PUSH3 0x3E6 JUMP JUMPDEST SWAP6 POP DUP1 NOT DUP5 AND SWAP4 POP DUP1 DUP7 AND DUP5 OR SWAP3 POP POP POP SWAP4 SWAP3 POP POP POP JUMP JUMPDEST PUSH1 0x0 DUP2 SWAP1 POP SWAP2 SWAP1 POP JUMP JUMPDEST PUSH1 0x0 DUP2 SWAP1 POP SWAP2 SWAP1 POP JUMP JUMPDEST PUSH1 0x0 PUSH3 0x47E PUSH3 0x478 PUSH3 0x472 DUP5 PUSH3 0x449 JUMP JUMPDEST PUSH3 0x453 JUMP JUMPDEST PUSH3 0x449 JUMP JUMPDEST SWAP1 POP SWAP2 SWAP1 POP JUMP JUMPDEST PUSH1 0x0 DUP2 SWAP1 POP SWAP2 SWAP1 POP JUMP JUMPDEST PUSH3 0x49A DUP4 PUSH3 0x45D JUMP JUMPDEST PUSH3 0x4B2 PUSH3 0x4A9 DUP3 PUSH3 0x485 JUMP JUMPDEST DUP5 DUP5 SLOAD PUSH3 0x3F3 JUMP JUMPDEST DUP3 SSTORE POP POP POP POP JUMP JUMPDEST PUSH1 0x0 SWAP1 JUMP JUMPDEST PUSH3 0x4C9 PUSH3 0x4BA JUMP JUMPDEST PUSH3 0x4D6 DUP2 DUP5 DUP5 PUSH3 0x48F JUMP JUMPDEST POP POP POP JUMP JUMPDEST JUMPDEST DUP2 DUP2 LT ISZERO PUSH3 0x4FE JUMPI PUSH3 0x4F2 PUSH1 0x0 DUP3 PUSH3 0x4BF JUMP JUMPDEST PUSH1 0x1 DUP2 ADD SWAP1 POP PUSH3 0x4DC JUMP JUMPDEST POP POP JUMP JUMPDEST PUSH1 0x1F DUP3 GT ISZERO PUSH3 0x54D JUMPI PUSH3 0x517 DUP2 PUSH3 0x3C1 JUMP JUMPDEST PUSH3 0x522 DUP5 PUSH3 0x3D6 JUMP JUMPDEST DUP2 ADD PUSH1 0x20 DUP6 LT ISZERO PUSH3 0x532 JUMPI DUP2 SWAP1 POP JUMPDEST PUSH3 0x54A PUSH3 0x541 DUP6 PUSH3 0x3D6 JUMP JUMPDEST DUP4 ADD DUP3 PUSH3 0x4DB JUMP JUMPDEST POP POP JUMPDEST POP POP POP JUMP JUMPDEST PUSH1 0x0 DUP3 DUP3 SHR SWAP1 POP SWAP3 SWAP2 POP POP JUMP JUMPDEST PUSH1 0x0 PUSH3 0x572 PUSH1 0x0 NOT DUP5 PUSH1 0x8 MUL PUSH3 0x552 JUMP JUMPDEST NOT DUP1 DUP4 AND SWAP2 POP POP SWAP3 SWAP2 POP POP JUMP JUMPDEST PUSH1 0x0 PUSH3 0x58D DUP4 DUP4 PUSH3 0x55F JUMP JUMPDEST SWAP2 POP DUP3 PUSH1 0x2 MUL DUP3 OR SWAP1 POP SWAP3 SWAP2 POP POP JUMP JUMPDEST PUSH3 0x5A8 DUP3 PUSH3 0x323 JUMP JUMPDEST PUSH8 0xFFFFFFFFFFFFFFFF DUP2 GT ISZERO PUSH3 0x5C4 JUMPI PUSH3 0x5C3 PUSH3 0x32E JUMP JUMPDEST JUMPDEST PUSH3 0x5D0 DUP3 SLOAD PUSH3 0x38C JUMP JUMPDEST PUSH3 0x5DD DUP3 DUP3 DUP6 PUSH3 0x502 JUMP JUMPDEST PUSH1 0x0 PUSH1 0x20 SWAP1 POP PUSH1 0x1F DUP4 GT PUSH1 0x1 DUP2 EQ PUSH3 0x615 JUMPI PUSH1 0x0 DUP5 ISZERO PUSH3 0x600 JUMPI DUP3 DUP8 ADD MLOAD SWAP1 POP JUMPDEST PUSH3 0x60C DUP6 DUP3 PUSH3 0x57F JUMP JUMPDEST DUP7 SSTORE POP PUSH3 0x67C JUMP JUMPDEST PUSH1 0x1F NOT DUP5 AND PUSH3 0x625 DUP7 PUSH3 0x3C1 JUMP JUMPDEST PUSH1 0x0 JUMPDEST DUP3 DUP2 LT ISZERO PUSH3 0x64F JUMPI DUP5 DUP10 ADD MLOAD DUP3 SSTORE PUSH1 0x1 DUP3 ADD SWAP2 POP PUSH1 0x20 DUP6 ADD SWAP5 POP PUSH1 0x20 DUP2 ADD SWAP1 POP PUSH3 0x628 JUMP JUMPDEST DUP7 DUP4 LT ISZERO PUSH3 0x66F JUMPI DUP5 DUP10 ADD MLOAD PUSH3 0x66B PUSH1 0x1F DUP10 AND DUP3 PUSH3 0x55F JUMP JUMPDEST DUP4 SSTORE POP JUMPDEST PUSH1 0x1 PUSH1 0x2 DUP9 MUL ADD DUP9 SSTORE POP POP POP JUMPDEST POP POP POP POP POP POP JUMP JUMPDEST PUSH1 0x0 DUP3 DUP3 MSTORE PUSH1 0x20 DUP3 ADD SWAP1 POP SWAP3 SWAP2 POP POP JUMP JUMPDEST PUSH32 0x45524332303A206D696E7420746F20746865207A65726F206164647265737300 PUSH1 0x0 DUP3 ADD MSTORE POP JUMP JUMPDEST PUSH1 0x0 PUSH3 0x6CD PUSH1 0x1F DUP4 PUSH3 0x684 JUMP JUMPDEST SWAP2 POP PUSH3 0x6DA DUP3 PUSH3 0x695 JUMP JUMPDEST PUSH1 0x20 DUP3 ADD SWAP1 POP SWAP2 SWAP1 POP JUMP JUMPDEST PUSH1 0x0 PUSH1 0x20 DUP3 ADD SWAP1 POP DUP2 DUP2 SUB PUSH1 0x0 DUP4 ADD MSTORE PUSH3 0x700 DUP2 PUSH3 0x6BE JUMP JUMPDEST SWAP1 POP SWAP2 SWAP1 POP JUMP JUMPDEST PUSH32 0x4E487B7100000000000000000000000000000000000000000000000000000000 PUSH1 0x0 MSTORE PUSH1 0x11 PUSH1 0x4 MSTORE PUSH1 0x24 PUSH1 0x0 REVERT JUMPDEST PUSH1 0x0 PUSH3 0x743 DUP3 PUSH3 0x449 JUMP JUMPDEST SWAP2 POP PUSH3 0x750 DUP4 PUSH3 0x449 JUMP JUMPDEST SWAP3 POP DUP3 DUP3 ADD SWAP1 POP DUP1 DUP3 GT ISZERO PUSH3 0x76B JUMPI PUSH3 0x76A PUSH3 0x707 JUMP JUMPDEST JUMPDEST SWAP3 SWAP2 POP POP JUMP JUMPDEST PUSH3 0x77C DUP2 PUSH3 0x449 JUMP JUMPDEST DUP3 MSTORE POP POP JUMP JUMPDEST PUSH1 0x0 PUSH1 0x20 DUP3 ADD SWAP1 POP PUSH3 0x799 PUSH1 0x0 DUP4 ADD DUP5 PUSH3 0x771 JUMP JUMPDEST SWAP3 SWAP2 POP POP JUMP JUMPDEST PUSH2 0x2BB9 DUP1 PUSH3 0x7AF PUSH1 0x0 CODECOPY PUSH1 0x0 RETURN INVALID PUSH1 0x80 PUSH1 0x40 MSTORE CALLVALUE DUP1 ISZERO PUSH2 0x10 JUMPI PUSH1 0x0 DUP1 REVERT JUMPDEST POP PUSH1 0x4 CALLDATASIZE LT PUSH2 0x158 JUMPI PUSH1 0x0 CALLDATALOAD PUSH1 0xE0 SHR DUP1 PUSH4 0x8DA5CB5B GT PUSH2 0xC3 JUMPI DUP1 PUSH4 0xBEC3FA17 GT PUSH2 0x7C JUMPI DUP1 PUSH4 0xBEC3FA17 EQ PUSH2 0x3F1 JUMPI DUP1 PUSH4 0xCC56857D EQ PUSH2 0x40D JUMPI DUP1 PUSH4 0xDD62ED3E EQ PUSH2 0x42B JUMPI DUP1 PUSH4 0xE6E645D1 EQ PUSH2 0x45B JUMPI DUP1 PUSH4 0xF0DDA65C EQ PUSH2 0x477 JUMPI DUP1 PUSH4 0xF2FDE38B EQ PUSH2 0x493 JUMPI PUSH2 0x158 JUMP JUMPDEST DUP1 PUSH4 0x8DA5CB5B EQ PUSH2 0x31D JUMPI DUP1 PUSH4 0x95D89B41 EQ PUSH2 0x33B JUMPI DUP1 PUSH4 0xA196F966 EQ PUSH2 0x359 JUMPI DUP1 PUSH4 0xA457C2D7 EQ PUSH2 0x375 JUMPI DUP1 PUSH4 0xA6E158F8 EQ PUSH2 0x3A5 JUMPI DUP1 PUSH4 0xA9059CBB EQ PUSH2 0x3C1 JUMPI PUSH2 0x158 JUMP JUMPDEST DUP1 PUSH4 0x313CE567 GT PUSH2 0x115 JUMPI DUP1 PUSH4 0x313CE567 EQ PUSH2 0x25B JUMPI DUP1 PUSH4 0x39509351 EQ PUSH2 0x279 JUMPI DUP1 PUSH4 0x6BFB0D01 EQ PUSH2 0x2A9 JUMPI DUP1 PUSH4 0x6D1B229D EQ PUSH2 0x2C7 JUMPI DUP1 PUSH4 0x70A08231 EQ PUSH2 0x2E3 JUMPI DUP1 PUSH4 0x715018A6 EQ PUSH2 0x313 JUMPI PUSH2 0x158 JUMP JUMPDEST DUP1 PUSH4 0x6FDDE03 EQ PUSH2 0x15D JUMPI DUP1 PUSH4 0x95EA7B3 EQ PUSH2 0x17B JUMPI DUP1 PUSH4 0x126CBE60 EQ PUSH2 0x1AB JUMPI DUP1 PUSH4 0x18160DDD EQ PUSH2 0x1DB JUMPI DUP1 PUSH4 0x21DDED92 EQ PUSH2 0x1F9 JUMPI DUP1 PUSH4 0x23B872DD EQ PUSH2 0x22B JUMPI JUMPDEST PUSH1 0x0 DUP1 REVERT JUMPDEST PUSH2 0x165 PUSH2 0x4AF JUMP JUMPDEST PUSH1 0x40 MLOAD PUSH2 0x172 SWAP2 SWAP1 PUSH2 0x1859 JUMP JUMPDEST PUSH1 0x40 MLOAD DUP1 SWAP2 SUB SWAP1 RETURN JUMPDEST PUSH2 0x195 PUSH1 0x4 DUP1 CALLDATASIZE SUB DUP2 ADD SWAP1 PUSH2 0x190 SWAP2 SWAP1 PUSH2 0x1923 JUMP JUMPDEST PUSH2 0x541 JUMP JUMPDEST PUSH1 0x40 MLOAD PUSH2 0x1A2 SWAP2 SWAP1 PUSH2 0x197E JUMP JUMPDEST PUSH1 0x40 MLOAD DUP1 SWAP2 SUB SWAP1 RETURN JUMPDEST PUSH2 0x1C5 PUSH1 0x4 DUP1 CALLDATASIZE SUB DUP2 ADD SWAP1 PUSH2 0x1C0 SWAP2 SWAP1 PUSH2 0x1999 JUMP JUMPDEST PUSH2 0x564 JUMP JUMPDEST PUSH1 0x40 MLOAD PUSH2 0x1D2 SWAP2 SWAP1 PUSH2 0x19D5 JUMP JUMPDEST PUSH1 0x40 MLOAD DUP1 SWAP2 SUB SWAP1 RETURN JUMPDEST PUSH2 0x1E3 PUSH2 0x576 JUMP JUMPDEST PUSH1 0x40 MLOAD PUSH2 0x1F0 SWAP2 SWAP1 PUSH2 0x19D5 JUMP JUMPDEST PUSH1 0x40 MLOAD DUP1 SWAP2 SUB SWAP1 RETURN JUMPDEST PUSH2 0x213 PUSH1 0x4 DUP1 CALLDATASIZE SUB DUP2 ADD SWAP1 PUSH2 0x20E SWAP2 SWAP1 PUSH2 0x19F0 JUMP JUMPDEST PUSH2 0x580 JUMP JUMPDEST PUSH1 0x40 MLOAD PUSH2 0x222 SWAP4 SWAP3 SWAP2 SWAP1 PUSH2 0x1A1D JUMP JUMPDEST PUSH1 0x40 MLOAD DUP1 SWAP2 SUB SWAP1 RETURN JUMPDEST PUSH2 0x245 PUSH1 0x4 DUP1 CALLDATASIZE SUB DUP2 ADD SWAP1 PUSH2 0x240 SWAP2 SWAP1 PUSH2 0x1A5B JUMP JUMPDEST PUSH2 0x632 JUMP JUMPDEST PUSH1 0x40 MLOAD PUSH2 0x252 SWAP2 SWAP1 PUSH2 0x197E JUMP JUMPDEST PUSH1 0x40 MLOAD DUP1 SWAP2 SUB SWAP1 RETURN JUMPDEST PUSH2 0x263 PUSH2 0x661 JUMP JUMPDEST PUSH1 0x40 MLOAD PUSH2 0x270 SWAP2 SWAP1 PUSH2 0x1ACA JUMP JUMPDEST PUSH1 0x40 MLOAD DUP1 SWAP2 SUB SWAP1 RETURN JUMPDEST PUSH2 0x293 PUSH1 0x4 DUP1 CALLDATASIZE SUB DUP2 ADD SWAP1 PUSH2 0x28E SWAP2 SWAP1 PUSH2 0x1923 JUMP JUMPDEST PUSH2 0x66A JUMP JUMPDEST PUSH1 0x40 MLOAD PUSH2 0x2A0 SWAP2 SWAP1 PUSH2 0x197E JUMP JUMPDEST PUSH1 0x40 MLOAD DUP1 SWAP2 SUB SWAP1 RETURN JUMPDEST PUSH2 0x2B1 PUSH2 0x6A1 JUMP JUMPDEST PUSH1 0x40 MLOAD PUSH2 0x2BE SWAP2 SWAP1 PUSH2 0x19D5 JUMP JUMPDEST PUSH1 0x40 MLOAD DUP1 SWAP2 SUB SWAP1 RETURN JUMPDEST PUSH2 0x2E1 PUSH1 0x4 DUP1 CALLDATASIZE SUB DUP2 ADD SWAP1 PUSH2 0x2DC SWAP2 SWAP1 PUSH2 0x19F0 JUMP JUMPDEST PUSH2 0x6A7 JUMP JUMPDEST STOP JUMPDEST PUSH2 0x2FD PUSH1 0x4 DUP1 CALLDATASIZE SUB DUP2 ADD SWAP1 PUSH2 0x2F8 SWAP2 SWAP1 PUSH2 0x1999 JUMP JUMPDEST PUSH2 0x6FF JUMP JUMPDEST PUSH1 0x40 MLOAD PUSH2 0x30A SWAP2 SWAP1 PUSH2 0x19D5 JUMP JUMPDEST PUSH1 0x40 MLOAD DUP1 SWAP2 SUB SWAP1 RETURN JUMPDEST PUSH2 0x31B PUSH2 0x747 JUMP JUMPDEST STOP JUMPDEST PUSH2 0x325 PUSH2 0x75B JUMP JUMPDEST PUSH1 0x40 MLOAD PUSH2 0x332 SWAP2 SWAP1 PUSH2 0x1AF4 JUMP JUMPDEST PUSH1 0x40 MLOAD DUP1 SWAP2 SUB SWAP1 RETURN JUMPDEST PUSH2 0x343 PUSH2 0x785 JUMP JUMPDEST PUSH1 0x40 MLOAD PUSH2 0x350 SWAP2 SWAP1 PUSH2 0x1859 JUMP JUMPDEST PUSH1 0x40 MLOAD DUP1 SWAP2 SUB SWAP1 RETURN JUMPDEST PUSH2 0x373 PUSH1 0x4 DUP1 CALLDATASIZE SUB DUP2 ADD SWAP1 PUSH2 0x36E SWAP2 SWAP1 PUSH2 0x1C44 JUMP JUMPDEST PUSH2 0x817 JUMP JUMPDEST STOP JUMPDEST PUSH2 0x38F PUSH1 0x4 DUP1 CALLDATASIZE SUB DUP2 ADD SWAP1 PUSH2 0x38A SWAP2 SWAP1 PUSH2 0x1923 JUMP JUMPDEST PUSH2 0x91F JUMP JUMPDEST PUSH1 0x40 MLOAD PUSH2 0x39C SWAP2 SWAP1 PUSH2 0x197E JUMP JUMPDEST PUSH1 0x40 MLOAD DUP1 SWAP2 SUB SWAP1 RETURN JUMPDEST PUSH2 0x3BF PUSH1 0x4 DUP1 CALLDATASIZE SUB DUP2 ADD SWAP1 PUSH2 0x3BA SWAP2 SWAP1 PUSH2 0x19F0 JUMP JUMPDEST PUSH2 0x996 JUMP JUMPDEST STOP JUMPDEST PUSH2 0x3DB PUSH1 0x4 DUP1 CALLDATASIZE SUB DUP2 ADD SWAP1 PUSH2 0x3D6 SWAP2 SWAP1 PUSH2 0x1923 JUMP JUMPDEST PUSH2 0x9EE JUMP JUMPDEST PUSH1 0x40 MLOAD PUSH2 0x3E8 SWAP2 SWAP1 PUSH2 0x197E JUMP JUMPDEST PUSH1 0x40 MLOAD DUP1 SWAP2 SUB SWAP1 RETURN JUMPDEST PUSH2 0x40B PUSH1 0x4 DUP1 CALLDATASIZE SUB DUP2 ADD SWAP1 PUSH2 0x406 SWAP2 SWAP1 PUSH2 0x1923 JUMP JUMPDEST PUSH2 0xA11 JUMP JUMPDEST STOP JUMPDEST PUSH2 0x415 PUSH2 0xA8F JUMP JUMPDEST PUSH1 0x40 MLOAD PUSH2 0x422 SWAP2 SWAP1 PUSH2 0x1E1E JUMP JUMPDEST PUSH1 0x40 MLOAD DUP1 SWAP2 SUB SWAP1 RETURN JUMPDEST PUSH2 0x445 PUSH1 0x4 DUP1 CALLDATASIZE SUB DUP2 ADD SWAP1 PUSH2 0x440 SWAP2 SWAP1 PUSH2 0x1E40 JUMP JUMPDEST PUSH2 0xC04 JUMP JUMPDEST PUSH1 0x40 MLOAD PUSH2 0x452 SWAP2 SWAP1 PUSH2 0x19D5 JUMP JUMPDEST PUSH1 0x40 MLOAD DUP1 SWAP2 SUB SWAP1 RETURN JUMPDEST PUSH2 0x475 PUSH1 0x4 DUP1 CALLDATASIZE SUB DUP2 ADD SWAP1 PUSH2 0x470 SWAP2 SWAP1 PUSH2 0x19F0 JUMP JUMPDEST PUSH2 0xC8B JUMP JUMPDEST STOP JUMPDEST PUSH2 0x491 PUSH1 0x4 DUP1 CALLDATASIZE SUB DUP2 ADD SWAP1 PUSH2 0x48C SWAP2 SWAP1 PUSH2 0x1923 JUMP JUMPDEST PUSH2 0xDCB JUMP JUMPDEST STOP JUMPDEST PUSH2 0x4AD PUSH1 0x4 DUP1 CALLDATASIZE SUB DUP2 ADD SWAP1 PUSH2 0x4A8 SWAP2 SWAP1 PUSH2 0x1999 JUMP JUMPDEST PUSH2 0xDE1 JUMP JUMPDEST STOP JUMPDEST PUSH1 0x60 PUSH1 0x3 DUP1 SLOAD PUSH2 0x4BE SWAP1 PUSH2 0x1EAF JUMP JUMPDEST DUP1 PUSH1 0x1F ADD PUSH1 0x20 DUP1 SWAP2 DIV MUL PUSH1 0x20 ADD PUSH1 0x40 MLOAD SWAP1 DUP2 ADD PUSH1 0x40 MSTORE DUP1 SWAP3 SWAP2 SWAP1 DUP2 DUP2 MSTORE PUSH1 0x20 ADD DUP3 DUP1 SLOAD PUSH2 0x4EA SWAP1 PUSH2 0x1EAF JUMP JUMPDEST DUP1 ISZERO PUSH2 0x537 JUMPI DUP1 PUSH1 0x1F LT PUSH2 0x50C JUMPI PUSH2 0x100 DUP1 DUP4 SLOAD DIV MUL DUP4 MSTORE SWAP2 PUSH1 0x20 ADD SWAP2 PUSH2 0x537 JUMP JUMPDEST DUP3 ADD SWAP2 SWAP1 PUSH1 0x0 MSTORE PUSH1 0x20 PUSH1 0x0 KECCAK256 SWAP1 JUMPDEST DUP2 SLOAD DUP2 MSTORE SWAP1 PUSH1 0x1 ADD SWAP1 PUSH1 0x20 ADD DUP1 DUP4 GT PUSH2 0x51A JUMPI DUP3 SWAP1 SUB PUSH1 0x1F AND DUP3 ADD SWAP2 JUMPDEST POP POP POP POP POP SWAP1 POP SWAP1 JUMP JUMPDEST PUSH1 0x0 DUP1 PUSH2 0x54C PUSH2 0xE64 JUMP JUMPDEST SWAP1 POP PUSH2 0x559 DUP2 DUP6 DUP6 PUSH2 0xE6C JUMP JUMPDEST PUSH1 0x1 SWAP2 POP POP SWAP3 SWAP2 POP POP JUMP JUMPDEST PUSH1 0x0 PUSH2 0x56F DUP3 PUSH2 0x6FF JUMP JUMPDEST SWAP1 POP SWAP2 SWAP1 POP JUMP JUMPDEST PUSH1 0x0 PUSH1 0x2 SLOAD SWAP1 POP SWAP1 JUMP JUMPDEST PUSH1 0x6 PUSH1 0x20 MSTORE DUP1 PUSH1 0x0 MSTORE PUSH1 0x40 PUSH1 0x0 KECCAK256 PUSH1 0x0 SWAP2 POP SWAP1 POP DUP1 PUSH1 0x0 ADD DUP1 SLOAD PUSH2 0x5A3 SWAP1 PUSH2 0x1EAF JUMP JUMPDEST DUP1 PUSH1 0x1F ADD PUSH1 0x20 DUP1 SWAP2 DIV MUL PUSH1 0x20 ADD PUSH1 0x40 MLOAD SWAP1 DUP2 ADD PUSH1 0x40 MSTORE DUP1 SWAP3 SWAP2 SWAP1 DUP2 DUP2 MSTORE PUSH1 0x20 ADD DUP3 DUP1 SLOAD PUSH2 0x5CF SWAP1 PUSH2 0x1EAF JUMP JUMPDEST DUP1 ISZERO PUSH2 0x61C JUMPI DUP1 PUSH1 0x1F LT PUSH2 0x5F1 JUMPI PUSH2 0x100 DUP1 DUP4 SLOAD DIV MUL DUP4 MSTORE SWAP2 PUSH1 0x20 ADD SWAP2 PUSH2 0x61C JUMP JUMPDEST DUP3 ADD SWAP2 SWAP1 PUSH1 0x0 MSTORE PUSH1 0x20 PUSH1 0x0 KECCAK256 SWAP1 JUMPDEST DUP2 SLOAD DUP2 MSTORE SWAP1 PUSH1 0x1 ADD SWAP1 PUSH1 0x20 ADD DUP1 DUP4 GT PUSH2 0x5FF JUMPI DUP3 SWAP1 SUB PUSH1 0x1F AND DUP3 ADD SWAP2 JUMPDEST POP POP POP POP POP SWAP1 DUP1 PUSH1 0x1 ADD SLOAD SWAP1 DUP1 PUSH1 0x2 ADD SLOAD SWAP1 POP DUP4 JUMP JUMPDEST PUSH1 0x0 DUP1 PUSH2 0x63D PUSH2 0xE64 JUMP JUMPDEST SWAP1 POP PUSH2 0x64A DUP6 DUP3 DUP6 PUSH2 0x1035 JUMP JUMPDEST PUSH2 0x655 DUP6 DUP6 DUP6 PUSH2 0x10C1 JUMP JUMPDEST PUSH1 0x1 SWAP2 POP POP SWAP4 SWAP3 POP POP POP JUMP JUMPDEST PUSH1 0x0 PUSH1 0x12 SWAP1 POP SWAP1 JUMP JUMPDEST PUSH1 0x0 DUP1 PUSH2 0x675 PUSH2 0xE64 JUMP JUMPDEST SWAP1 POP PUSH2 0x696 DUP2 DUP6 DUP6 PUSH2 0x687 DUP6 DUP10 PUSH2 0xC04 JUMP JUMPDEST PUSH2 0x691 SWAP2 SWAP1 PUSH2 0x1F0F JUMP JUMPDEST PUSH2 0xE6C JUMP JUMPDEST PUSH1 0x1 SWAP2 POP POP SWAP3 SWAP2 POP POP JUMP JUMPDEST PUSH1 0x7 SLOAD DUP2 JUMP JUMPDEST DUP1 PUSH2 0x6B1 CALLER PUSH2 0x6FF JUMP JUMPDEST LT ISZERO PUSH2 0x6F2 JUMPI PUSH1 0x40 MLOAD PUSH32 0x8C379A000000000000000000000000000000000000000000000000000000000 DUP2 MSTORE PUSH1 0x4 ADD PUSH2 0x6E9 SWAP1 PUSH2 0x1F8F JUMP JUMPDEST PUSH1 0x40 MLOAD DUP1 SWAP2 SUB SWAP1 REVERT JUMPDEST PUSH2 0x6FC CALLER DUP3 PUSH2 0x1337 JUMP JUMPDEST POP JUMP JUMPDEST PUSH1 0x0 DUP1 PUSH1 0x0 DUP4 PUSH20 0xFFFFFFFFFFFFFFFFFFFFFFFFFFFFFFFFFFFFFFFF AND PUSH20 0xFFFFFFFFFFFFFFFFFFFFFFFFFFFFFFFFFFFFFFFF AND DUP2 MSTORE PUSH1 0x20 ADD SWAP1 DUP2 MSTORE PUSH1 0x20 ADD PUSH1 0x0 KECCAK256 SLOAD SWAP1 POP SWAP2 SWAP1 POP JUMP JUMPDEST PUSH2 0x74F PUSH2 0x1504 JUMP JUMPDEST PUSH2 0x759 PUSH1 0x0 PUSH2 0x1582 JUMP JUMPDEST JUMP JUMPDEST PUSH1 0x0 PUSH1 0x5 PUSH1 0x0 SWAP1 SLOAD SWAP1 PUSH2 0x100 EXP SWAP1 DIV PUSH20 0xFFFFFFFFFFFFFFFFFFFFFFFFFFFFFFFFFFFFFFFF AND SWAP1 POP SWAP1 JUMP JUMPDEST PUSH1 0x60 PUSH1 0x4 DUP1 SLOAD PUSH2 0x794 SWAP1 PUSH2 0x1EAF JUMP JUMPDEST DUP1 PUSH1 0x1F ADD PUSH1 0x20 DUP1 SWAP2 DIV MUL PUSH1 0x20 ADD PUSH1 0x40 MLOAD SWAP1 DUP2 ADD PUSH1 0x40 MSTORE DUP1 SWAP3 SWAP2 SWAP1 DUP2 DUP2 MSTORE PUSH1 0x20 ADD DUP3 DUP1 SLOAD PUSH2 0x7C0 SWAP1 PUSH2 0x1EAF JUMP JUMPDEST DUP1 ISZERO PUSH2 0x80D JUMPI DUP1 PUSH1 0x1F LT PUSH2 0x7E2 JUMPI PUSH2 0x100 DUP1 DUP4 SLOAD DIV MUL DUP4 MSTORE SWAP2 PUSH1 0x20 ADD SWAP2 PUSH2 0x80D JUMP JUMPDEST DUP3 ADD SWAP2 SWAP1 PUSH1 0x0 MSTORE PUSH1 0x20 PUSH1 0x0 KECCAK256 SWAP1 JUMPDEST DUP2 SLOAD DUP2 MSTORE SWAP1 PUSH1 0x1 ADD SWAP1 PUSH1 0x20 ADD DUP1 DUP4 GT PUSH2 0x7F0 JUMPI DUP3 SWAP1 SUB PUSH1 0x1F AND DUP3 ADD SWAP2 JUMPDEST POP POP POP POP POP SWAP1 POP SWAP1 JUMP JUMPDEST PUSH2 0x81F PUSH2 0x1504 JUMP JUMPDEST PUSH1 0x0 DUP3 GT PUSH2 0x862 JUMPI PUSH1 0x40 MLOAD PUSH32 0x8C379A000000000000000000000000000000000000000000000000000000000 DUP2 MSTORE PUSH1 0x4 ADD PUSH2 0x859 SWAP1 PUSH2 0x1FFB JUMP JUMPDEST PUSH1 0x40 MLOAD DUP1 SWAP2 SUB SWAP1 REVERT JUMPDEST PUSH1 0x0 DUP2 GT PUSH2 0x8A5 JUMPI PUSH1 0x40 MLOAD PUSH32 0x8C379A000000000000000000000000000000000000000000000000000000000 DUP2 MSTORE PUSH1 0x4 ADD PUSH2 0x89C SWAP1 PUSH2 0x2067 JUMP JUMPDEST PUSH1 0x40 MLOAD DUP1 SWAP2 SUB SWAP1 REVERT JUMPDEST PUSH1 0x7 PUSH1 0x0 DUP2 SLOAD DUP1 SWAP3 SWAP2 SWAP1 PUSH2 0x8B8 SWAP1 PUSH2 0x2087 JUMP JUMPDEST SWAP2 SWAP1 POP SSTORE POP PUSH1 0x40 MLOAD DUP1 PUSH1 0x60 ADD PUSH1 0x40 MSTORE DUP1 DUP5 DUP2 MSTORE PUSH1 0x20 ADD DUP4 DUP2 MSTORE PUSH1 0x20 ADD DUP3 DUP2 MSTORE POP PUSH1 0x6 PUSH1 0x0 PUSH1 0x7 SLOAD DUP2 MSTORE PUSH1 0x20 ADD SWAP1 DUP2 MSTORE PUSH1 0x20 ADD PUSH1 0x0 KECCAK256 PUSH1 0x0 DUP3 ADD MLOAD DUP2 PUSH1 0x0 ADD SWAP1 DUP2 PUSH2 0x902 SWAP2 SWAP1 PUSH2 0x227B JUMP JUMPDEST POP PUSH1 0x20 DUP3 ADD MLOAD DUP2 PUSH1 0x1 ADD SSTORE PUSH1 0x40 DUP3 ADD MLOAD DUP2 PUSH1 0x2 ADD SSTORE SWAP1 POP POP POP POP POP JUMP JUMPDEST PUSH1 0x0 DUP1 PUSH2 0x92A PUSH2 0xE64 JUMP JUMPDEST SWAP1 POP PUSH1 0x0 PUSH2 0x938 DUP3 DUP7 PUSH2 0xC04 JUMP JUMPDEST SWAP1 POP DUP4 DUP2 LT ISZERO PUSH2 0x97D JUMPI PUSH1 0x40 MLOAD PUSH32 0x8C379A000000000000000000000000000000000000000000000000000000000 DUP2 MSTORE PUSH1 0x4 ADD PUSH2 0x974 SWAP1 PUSH2 0x23BF JUMP JUMPDEST PUSH1 0x40 MLOAD DUP1 SWAP2 SUB SWAP1 REVERT JUMPDEST PUSH2 0x98A DUP3 DUP7 DUP7 DUP5 SUB PUSH2 0xE6C JUMP JUMPDEST PUSH1 0x1 SWAP3 POP POP POP SWAP3 SWAP2 POP POP JUMP JUMPDEST DUP1 PUSH2 0x9A0 CALLER PUSH2 0x6FF JUMP JUMPDEST LT ISZERO PUSH2 0x9E1 JUMPI PUSH1 0x40 MLOAD PUSH32 0x8C379A000000000000000000000000000000000000000000000000000000000 DUP2 MSTORE PUSH1 0x4 ADD PUSH2 0x9D8 SWAP1 PUSH2 0x1F8F JUMP JUMPDEST PUSH1 0x40 MLOAD DUP1 SWAP2 SUB SWAP1 REVERT JUMPDEST PUSH2 0x9EB CALLER DUP3 PUSH2 0x1337 JUMP JUMPDEST POP JUMP JUMPDEST PUSH1 0x0 DUP1 PUSH2 0x9F9 PUSH2 0xE64 JUMP JUMPDEST SWAP1 POP PUSH2 0xA06 DUP2 DUP6 DUP6 PUSH2 0x10C1 JUMP JUMPDEST PUSH1 0x1 SWAP2 POP POP SWAP3 SWAP2 POP POP JUMP JUMPDEST PUSH1 0x0 PUSH20 0xFFFFFFFFFFFFFFFFFFFFFFFFFFFFFFFFFFFFFFFF AND DUP3 PUSH20 0xFFFFFFFFFFFFFFFFFFFFFFFFFFFFFFFFFFFFFFFF AND SUB PUSH2 0xA80 JUMPI PUSH1 0x40 MLOAD PUSH32 0x8C379A000000000000000000000000000000000000000000000000000000000 DUP2 MSTORE PUSH1 0x4 ADD PUSH2 0xA77 SWAP1 PUSH2 0x242B JUMP JUMPDEST PUSH1 0x40 MLOAD DUP1 SWAP2 SUB SWAP1 REVERT JUMPDEST PUSH2 0xA8B CALLER DUP4 DUP4 PUSH2 0x10C1 JUMP JUMPDEST POP POP JUMP JUMPDEST PUSH1 0x60 PUSH1 0x0 PUSH1 0x7 SLOAD PUSH8 0xFFFFFFFFFFFFFFFF DUP2 GT ISZERO PUSH2 0xAAF JUMPI PUSH2 0xAAE PUSH2 0x1B19 JUMP JUMPDEST JUMPDEST PUSH1 0x40 MLOAD SWAP1 DUP1 DUP3 MSTORE DUP1 PUSH1 0x20 MUL PUSH1 0x20 ADD DUP3 ADD PUSH1 0x40 MSTORE DUP1 ISZERO PUSH2 0xAE8 JUMPI DUP2 PUSH1 0x20 ADD JUMPDEST PUSH2 0xAD5 PUSH2 0x17A8 JUMP JUMPDEST DUP2 MSTORE PUSH1 0x20 ADD SWAP1 PUSH1 0x1 SWAP1 SUB SWAP1 DUP2 PUSH2 0xACD JUMPI SWAP1 POP JUMPDEST POP SWAP1 POP PUSH1 0x0 PUSH1 0x1 SWAP1 POP JUMPDEST PUSH1 0x7 SLOAD DUP2 GT PUSH2 0xBFC JUMPI PUSH1 0x6 PUSH1 0x0 DUP3 DUP2 MSTORE PUSH1 0x20 ADD SWAP1 DUP2 MSTORE PUSH1 0x20 ADD PUSH1 0x0 KECCAK256 PUSH1 0x40 MLOAD DUP1 PUSH1 0x60 ADD PUSH1 0x40 MSTORE SWAP1 DUP2 PUSH1 0x0 DUP3 ADD DUP1 SLOAD PUSH2 0xB29 SWAP1 PUSH2 0x1EAF JUMP JUMPDEST DUP1 PUSH1 0x1F ADD PUSH1 0x20 DUP1 SWAP2 DIV MUL PUSH1 0x20 ADD PUSH1 0x40 MLOAD SWAP1 DUP2 ADD PUSH1 0x40 MSTORE DUP1 SWAP3 SWAP2 SWAP1 DUP2 DUP2 MSTORE PUSH1 0x20 ADD DUP3 DUP1 SLOAD PUSH2 0xB55 SWAP1 PUSH2 0x1EAF JUMP JUMPDEST DUP1 ISZERO PUSH2 0xBA2 JUMPI DUP1 PUSH1 0x1F LT PUSH2 0xB77 JUMPI PUSH2 0x100 DUP1 DUP4 SLOAD DIV MUL DUP4 MSTORE SWAP2 PUSH1 0x20 ADD SWAP2 PUSH2 0xBA2 JUMP JUMPDEST DUP3 ADD SWAP2 SWAP1 PUSH1 0x0 MSTORE PUSH1 0x20 PUSH1 0x0 KECCAK256 SWAP1 JUMPDEST DUP2 SLOAD DUP2 MSTORE SWAP1 PUSH1 0x1 ADD SWAP1 PUSH1 0x20 ADD DUP1 DUP4 GT PUSH2 0xB85 JUMPI DUP3 SWAP1 SUB PUSH1 0x1F AND DUP3 ADD SWAP2 JUMPDEST POP POP POP POP POP DUP2 MSTORE PUSH1 0x20 ADD PUSH1 0x1 DUP3 ADD SLOAD DUP2 MSTORE PUSH1 0x20 ADD PUSH1 0x2 DUP3 ADD SLOAD DUP2 MSTORE POP POP DUP3 PUSH1 0x1 DUP4 PUSH2 0xBCD SWAP2 SWAP1 PUSH2 0x244B JUMP JUMPDEST DUP2 MLOAD DUP2 LT PUSH2 0xBDE JUMPI PUSH2 0xBDD PUSH2 0x247F JUMP JUMPDEST JUMPDEST PUSH1 0x20 MUL PUSH1 0x20 ADD ADD DUP2 SWAP1 MSTORE POP DUP1 DUP1 PUSH2 0xBF4 SWAP1 PUSH2 0x2087 JUMP JUMPDEST SWAP2 POP POP PUSH2 0xAF2 JUMP JUMPDEST POP DUP1 SWAP2 POP POP SWAP1 JUMP JUMPDEST PUSH1 0x0 PUSH1 0x1 PUSH1 0x0 DUP5 PUSH20 0xFFFFFFFFFFFFFFFFFFFFFFFFFFFFFFFFFFFFFFFF AND PUSH20 0xFFFFFFFFFFFFFFFFFFFFFFFFFFFFFFFFFFFFFFFF AND DUP2 MSTORE PUSH1 0x20 ADD SWAP1 DUP2 MSTORE PUSH1 0x20 ADD PUSH1 0x0 KECCAK256 PUSH1 0x0 DUP4 PUSH20 0xFFFFFFFFFFFFFFFFFFFFFFFFFFFFFFFFFFFFFFFF AND PUSH20 0xFFFFFFFFFFFFFFFFFFFFFFFFFFFFFFFFFFFFFFFF AND DUP2 MSTORE PUSH1 0x20 ADD SWAP1 DUP2 MSTORE PUSH1 0x20 ADD PUSH1 0x0 KECCAK256 SLOAD SWAP1 POP SWAP3 SWAP2 POP POP JUMP JUMPDEST PUSH1 0x0 DUP2 GT DUP1 ISZERO PUSH2 0xC9D JUMPI POP PUSH1 0x7 SLOAD DUP2 GT ISZERO JUMPDEST PUSH2 0xCDC JUMPI PUSH1 0x40 MLOAD PUSH32 0x8C379A000000000000000000000000000000000000000000000000000000000 DUP2 MSTORE PUSH1 0x4 ADD PUSH2 0xCD3 SWAP1 PUSH2 0x24FA JUMP JUMPDEST PUSH1 0x40 MLOAD DUP1 SWAP2 SUB SWAP1 REVERT JUMPDEST PUSH1 0x0 PUSH1 0x6 PUSH1 0x0 DUP4 DUP2 MSTORE PUSH1 0x20 ADD SWAP1 DUP2 MSTORE PUSH1 0x20 ADD PUSH1 0x0 KECCAK256 SWAP1 POP PUSH1 0x0 DUP2 PUSH1 0x2 ADD SLOAD GT PUSH2 0xD3A JUMPI PUSH1 0x40 MLOAD PUSH32 0x8C379A000000000000000000000000000000000000000000000000000000000 DUP2 MSTORE PUSH1 0x4 ADD PUSH2 0xD31 SWAP1 PUSH2 0x2566 JUMP JUMPDEST PUSH1 0x40 MLOAD DUP1 SWAP2 SUB SWAP1 REVERT JUMPDEST DUP1 PUSH1 0x1 ADD SLOAD PUSH2 0xD48 CALLER PUSH2 0x6FF JUMP JUMPDEST LT ISZERO PUSH2 0xD89 JUMPI PUSH1 0x40 MLOAD PUSH32 0x8C379A000000000000000000000000000000000000000000000000000000000 DUP2 MSTORE PUSH1 0x4 ADD PUSH2 0xD80 SWAP1 PUSH2 0x1F8F JUMP JUMPDEST PUSH1 0x40 MLOAD DUP1 SWAP2 SUB SWAP1 REVERT JUMPDEST PUSH2 0xD9F CALLER PUSH2 0xD95 PUSH2 0x75B JUMP JUMPDEST DUP4 PUSH1 0x1 ADD SLOAD PUSH2 0x10C1 JUMP JUMPDEST PUSH2 0xDAD CALLER DUP3 PUSH1 0x1 ADD SLOAD PUSH2 0x1337 JUMP JUMPDEST DUP1 PUSH1 0x2 ADD PUSH1 0x0 DUP2 SLOAD DUP1 SWAP3 SWAP2 SWAP1 PUSH2 0xDC2 SWAP1 PUSH2 0x2586 JUMP JUMPDEST SWAP2 SWAP1 POP SSTORE POP POP POP JUMP JUMPDEST PUSH2 0xDD3 PUSH2 0x1504 JUMP JUMPDEST PUSH2 0xDDD DUP3 DUP3 PUSH2 0x1648 JUMP JUMPDEST POP POP JUMP JUMPDEST PUSH2 0xDE9 PUSH2 0x1504 JUMP JUMPDEST PUSH1 0x0 PUSH20 0xFFFFFFFFFFFFFFFFFFFFFFFFFFFFFFFFFFFFFFFF AND DUP2 PUSH20 0xFFFFFFFFFFFFFFFFFFFFFFFFFFFFFFFFFFFFFFFF AND SUB PUSH2 0xE58 JUMPI PUSH1 0x40 MLOAD PUSH32 0x8C379A000000000000000000000000000000000000000000000000000000000 DUP2 MSTORE PUSH1 0x4 ADD PUSH2 0xE4F SWAP1 PUSH2 0x2621 JUMP JUMPDEST PUSH1 0x40 MLOAD DUP1 SWAP2 SUB SWAP1 REVERT JUMPDEST PUSH2 0xE61 DUP2 PUSH2 0x1582 JUMP JUMPDEST POP JUMP JUMPDEST PUSH1 0x0 CALLER SWAP1 POP SWAP1 JUMP JUMPDEST PUSH1 0x0 PUSH20 0xFFFFFFFFFFFFFFFFFFFFFFFFFFFFFFFFFFFFFFFF AND DUP4 PUSH20 0xFFFFFFFFFFFFFFFFFFFFFFFFFFFFFFFFFFFFFFFF AND SUB PUSH2 0xEDB JUMPI PUSH1 0x40 MLOAD PUSH32 0x8C379A000000000000000000000000000000000000000000000000000000000 DUP2 MSTORE PUSH1 0x4 ADD PUSH2 0xED2 SWAP1 PUSH2 0x26B3 JUMP JUMPDEST PUSH1 0x40 MLOAD DUP1 SWAP2 SUB SWAP1 REVERT JUMPDEST PUSH1 0x0 PUSH20 0xFFFFFFFFFFFFFFFFFFFFFFFFFFFFFFFFFFFFFFFF AND DUP3 PUSH20 0xFFFFFFFFFFFFFFFFFFFFFFFFFFFFFFFFFFFFFFFF AND SUB PUSH2 0xF4A JUMPI PUSH1 0x40 MLOAD PUSH32 0x8C379A000000000000000000000000000000000000000000000000000000000 DUP2 MSTORE PUSH1 0x4 ADD PUSH2 0xF41 SWAP1 PUSH2 0x2745 JUMP JUMPDEST PUSH1 0x40 MLOAD DUP1 SWAP2 SUB SWAP1 REVERT JUMPDEST DUP1 PUSH1 0x1 PUSH1 0x0 DUP6 PUSH20 0xFFFFFFFFFFFFFFFFFFFFFFFFFFFFFFFFFFFFFFFF AND PUSH20 0xFFFFFFFFFFFFFFFFFFFFFFFFFFFFFFFFFFFFFFFF AND DUP2 MSTORE PUSH1 0x20 ADD SWAP1 DUP2 MSTORE PUSH1 0x20 ADD PUSH1 0x0 KECCAK256 PUSH1 0x0 DUP5 PUSH20 0xFFFFFFFFFFFFFFFFFFFFFFFFFFFFFFFFFFFFFFFF AND PUSH20 0xFFFFFFFFFFFFFFFFFFFFFFFFFFFFFFFFFFFFFFFF AND DUP2 MSTORE PUSH1 0x20 ADD SWAP1 DUP2 MSTORE PUSH1 0x20 ADD PUSH1 0x0 KECCAK256 DUP2 SWAP1 SSTORE POP DUP2 PUSH20 0xFFFFFFFFFFFFFFFFFFFFFFFFFFFFFFFFFFFFFFFF AND DUP4 PUSH20 0xFFFFFFFFFFFFFFFFFFFFFFFFFFFFFFFFFFFFFFFF AND PUSH32 0x8C5BE1E5EBEC7D5BD14F71427D1E84F3DD0314C0F7B2291E5B200AC8C7C3B925 DUP4 PUSH1 0x40 MLOAD PUSH2 0x1028 SWAP2 SWAP1 PUSH2 0x19D5 JUMP JUMPDEST PUSH1 0x40 MLOAD DUP1 SWAP2 SUB SWAP1 LOG3 POP POP POP JUMP JUMPDEST PUSH1 0x0 PUSH2 0x1041 DUP5 DUP5 PUSH2 0xC04 JUMP JUMPDEST SWAP1 POP PUSH32 0xFFFFFFFFFFFFFFFFFFFFFFFFFFFFFFFFFFFFFFFFFFFFFFFFFFFFFFFFFFFFFFFF DUP2 EQ PUSH2 0x10BB JUMPI DUP2 DUP2 LT ISZERO PUSH2 0x10AD JUMPI PUSH1 0x40 MLOAD PUSH32 0x8C379A000000000000000000000000000000000000000000000000000000000 DUP2 MSTORE PUSH1 0x4 ADD PUSH2 0x10A4 SWAP1 PUSH2 0x27B1 JUMP JUMPDEST PUSH1 0x40 MLOAD DUP1 SWAP2 SUB SWAP1 REVERT JUMPDEST PUSH2 0x10BA DUP5 DUP5 DUP5 DUP5 SUB PUSH2 0xE6C JUMP JUMPDEST JUMPDEST POP POP POP POP JUMP JUMPDEST PUSH1 0x0 PUSH20 0xFFFFFFFFFFFFFFFFFFFFFFFFFFFFFFFFFFFFFFFF AND DUP4 PUSH20 0xFFFFFFFFFFFFFFFFFFFFFFFFFFFFFFFFFFFFFFFF AND SUB PUSH2 0x1130 JUMPI PUSH1 0x40 MLOAD PUSH32 0x8C379A000000000000000000000000000000000000000000000000000000000 DUP2 MSTORE PUSH1 0x4 ADD PUSH2 0x1127 SWAP1 PUSH2 0x2843 JUMP JUMPDEST PUSH1 0x40 MLOAD DUP1 SWAP2 SUB SWAP1 REVERT JUMPDEST PUSH1 0x0 PUSH20 0xFFFFFFFFFFFFFFFFFFFFFFFFFFFFFFFFFFFFFFFF AND DUP3 PUSH20 0xFFFFFFFFFFFFFFFFFFFFFFFFFFFFFFFFFFFFFFFF AND SUB PUSH2 0x119F JUMPI PUSH1 0x40 MLOAD PUSH32 0x8C379A000000000000000000000000000000000000000000000000000000000 DUP2 MSTORE PUSH1 0x4 ADD PUSH2 0x1196 SWAP1 PUSH2 0x28D5 JUMP JUMPDEST PUSH1 0x40 MLOAD DUP1 SWAP2 SUB SWAP1 REVERT JUMPDEST PUSH2 0x11AA DUP4 DUP4 DUP4 PUSH2 0x179E JUMP JUMPDEST PUSH1 0x0 DUP1 PUSH1 0x0 DUP6 PUSH20 0xFFFFFFFFFFFFFFFFFFFFFFFFFFFFFFFFFFFFFFFF AND PUSH20 0xFFFFFFFFFFFFFFFFFFFFFFFFFFFFFFFFFFFFFFFF AND DUP2 MSTORE PUSH1 0x20 ADD SWAP1 DUP2 MSTORE PUSH1 0x20 ADD PUSH1 0x0 KECCAK256 SLOAD SWAP1 POP DUP2 DUP2 LT ISZERO PUSH2 0x1230 JUMPI PUSH1 0x40 MLOAD PUSH32 0x8C379A000000000000000000000000000000000000000000000000000000000 DUP2 MSTORE PUSH1 0x4 ADD PUSH2 0x1227 SWAP1 PUSH2 0x2967 JUMP JUMPDEST PUSH1 0x40 MLOAD DUP1 SWAP2 SUB SWAP1 REVERT JUMPDEST DUP2 DUP2 SUB PUSH1 0x0 DUP1 DUP7 PUSH20 0xFFFFFFFFFFFFFFFFFFFFFFFFFFFFFFFFFFFFFFFF AND PUSH20 0xFFFFFFFFFFFFFFFFFFFFFFFFFFFFFFFFFFFFFFFF AND DUP2 MSTORE PUSH1 0x20 ADD SWAP1 DUP2 MSTORE PUSH1 0x20 ADD PUSH1 0x0 KECCAK256 DUP2 SWAP1 SSTORE POP DUP2 PUSH1 0x0 DUP1 DUP6 PUSH20 0xFFFFFFFFFFFFFFFFFFFFFFFFFFFFFFFFFFFFFFFF AND PUSH20 0xFFFFFFFFFFFFFFFFFFFFFFFFFFFFFFFFFFFFFFFF AND DUP2 MSTORE PUSH1 0x20 ADD SWAP1 DUP2 MSTORE PUSH1 0x20 ADD PUSH1 0x0 KECCAK256 PUSH1 0x0 DUP3 DUP3 SLOAD ADD SWAP3 POP POP DUP2 SWAP1 SSTORE POP DUP3 PUSH20 0xFFFFFFFFFFFFFFFFFFFFFFFFFFFFFFFFFFFFFFFF AND DUP5 PUSH20 0xFFFFFFFFFFFFFFFFFFFFFFFFFFFFFFFFFFFFFFFF AND PUSH32 0xDDF252AD1BE2C89B69C2B068FC378DAA952BA7F163C4A11628F55A4DF523B3EF DUP5 PUSH1 0x40 MLOAD PUSH2 0x131E SWAP2 SWAP1 PUSH2 0x19D5 JUMP JUMPDEST PUSH1 0x40 MLOAD DUP1 SWAP2 SUB SWAP1 LOG3 PUSH2 0x1331 DUP5 DUP5 DUP5 PUSH2 0x17A3 JUMP JUMPDEST POP POP POP POP JUMP JUMPDEST PUSH1 0x0 PUSH20 0xFFFFFFFFFFFFFFFFFFFFFFFFFFFFFFFFFFFFFFFF AND DUP3 PUSH20 0xFFFFFFFFFFFFFFFFFFFFFFFFFFFFFFFFFFFFFFFF AND SUB PUSH2 0x13A6 JUMPI PUSH1 0x40 MLOAD PUSH32 0x8C379A000000000000000000000000000000000000000000000000000000000 DUP2 MSTORE PUSH1 0x4 ADD PUSH2 0x139D SWAP1 PUSH2 0x29F9 JUMP JUMPDEST PUSH1 0x40 MLOAD DUP1 SWAP2 SUB SWAP1 REVERT JUMPDEST PUSH2 0x13B2 DUP3 PUSH1 0x0 DUP4 PUSH2 0x179E JUMP JUMPDEST PUSH1 0x0 DUP1 PUSH1 0x0 DUP5 PUSH20 0xFFFFFFFFFFFFFFFFFFFFFFFFFFFFFFFFFFFFFFFF AND PUSH20 0xFFFFFFFFFFFFFFFFFFFFFFFFFFFFFFFFFFFFFFFF AND DUP2 MSTORE PUSH1 0x20 ADD SWAP1 DUP2 MSTORE PUSH1 0x20 ADD PUSH1 0x0 KECCAK256 SLOAD SWAP1 POP DUP2 DUP2 LT ISZERO PUSH2 0x1438 JUMPI PUSH1 0x40 MLOAD PUSH32 0x8C379A000000000000000000000000000000000000000000000000000000000 DUP2 MSTORE PUSH1 0x4 ADD PUSH2 0x142F SWAP1 PUSH2 0x2A8B JUMP JUMPDEST PUSH1 0x40 MLOAD DUP1 SWAP2 SUB SWAP1 REVERT JUMPDEST DUP2 DUP2 SUB PUSH1 0x0 DUP1 DUP6 PUSH20 0xFFFFFFFFFFFFFFFFFFFFFFFFFFFFFFFFFFFFFFFF AND PUSH20 0xFFFFFFFFFFFFFFFFFFFFFFFFFFFFFFFFFFFFFFFF AND DUP2 MSTORE PUSH1 0x20 ADD SWAP1 DUP2 MSTORE PUSH1 0x20 ADD PUSH1 0x0 KECCAK256 DUP2 SWAP1 SSTORE POP DUP2 PUSH1 0x2 PUSH1 0x0 DUP3 DUP3 SLOAD SUB SWAP3 POP POP DUP2 SWAP1 SSTORE POP PUSH1 0x0 PUSH20 0xFFFFFFFFFFFFFFFFFFFFFFFFFFFFFFFFFFFFFFFF AND DUP4 PUSH20 0xFFFFFFFFFFFFFFFFFFFFFFFFFFFFFFFFFFFFFFFF AND PUSH32 0xDDF252AD1BE2C89B69C2B068FC378DAA952BA7F163C4A11628F55A4DF523B3EF DUP5 PUSH1 0x40 MLOAD PUSH2 0x14EB SWAP2 SWAP1 PUSH2 0x19D5 JUMP JUMPDEST PUSH1 0x40 MLOAD DUP1 SWAP2 SUB SWAP1 LOG3 PUSH2 0x14FF DUP4 PUSH1 0x0 DUP5 PUSH2 0x17A3 JUMP JUMPDEST POP POP POP JUMP JUMPDEST PUSH2 0x150C PUSH2 0xE64 JUMP JUMPDEST PUSH20 0xFFFFFFFFFFFFFFFFFFFFFFFFFFFFFFFFFFFFFFFF AND PUSH2 0x152A PUSH2 0x75B JUMP JUMPDEST PUSH20 0xFFFFFFFFFFFFFFFFFFFFFFFFFFFFFFFFFFFFFFFF AND EQ PUSH2 0x1580 JUMPI PUSH1 0x40 MLOAD PUSH32 0x8C379A000000000000000000000000000000000000000000000000000000000 DUP2 MSTORE PUSH1 0x4 ADD PUSH2 0x1577 SWAP1 PUSH2 0x2AF7 JUMP JUMPDEST PUSH1 0x40 MLOAD DUP1 SWAP2 SUB SWAP1 REVERT JUMPDEST JUMP JUMPDEST PUSH1 0x0 PUSH1 0x5 PUSH1 0x0 SWAP1 SLOAD SWAP1 PUSH2 0x100 EXP SWAP1 DIV PUSH20 0xFFFFFFFFFFFFFFFFFFFFFFFFFFFFFFFFFFFFFFFF AND SWAP1 POP DUP2 PUSH1 0x5 PUSH1 0x0 PUSH2 0x100 EXP DUP2 SLOAD DUP2 PUSH20 0xFFFFFFFFFFFFFFFFFFFFFFFFFFFFFFFFFFFFFFFF MUL NOT AND SWAP1 DUP4 PUSH20 0xFFFFFFFFFFFFFFFFFFFFFFFFFFFFFFFFFFFFFFFF AND MUL OR SWAP1 SSTORE POP DUP2 PUSH20 0xFFFFFFFFFFFFFFFFFFFFFFFFFFFFFFFFFFFFFFFF AND DUP2 PUSH20 0xFFFFFFFFFFFFFFFFFFFFFFFFFFFFFFFFFFFFFFFF AND PUSH32 0x8BE0079C531659141344CD1FD0A4F28419497F9722A3DAAFE3B4186F6B6457E0 PUSH1 0x40 MLOAD PUSH1 0x40 MLOAD DUP1 SWAP2 SUB SWAP1 LOG3 POP POP JUMP JUMPDEST PUSH1 0x0 PUSH20 0xFFFFFFFFFFFFFFFFFFFFFFFFFFFFFFFFFFFFFFFF AND DUP3 PUSH20 0xFFFFFFFFFFFFFFFFFFFFFFFFFFFFFFFFFFFFFFFF AND SUB PUSH2 0x16B7 JUMPI PUSH1 0x40 MLOAD PUSH32 0x8C379A000000000000000000000000000000000000000000000000000000000 DUP2 MSTORE PUSH1 0x4 ADD PUSH2 0x16AE SWAP1 PUSH2 0x2B63 JUMP JUMPDEST PUSH1 0x40 MLOAD DUP1 SWAP2 SUB SWAP1 REVERT JUMPDEST PUSH2 0x16C3 PUSH1 0x0 DUP4 DUP4 PUSH2 0x179E JUMP JUMPDEST DUP1 PUSH1 0x2 PUSH1 0x0 DUP3 DUP3 SLOAD PUSH2 0x16D5 SWAP2 SWAP1 PUSH2 0x1F0F JUMP JUMPDEST SWAP3 POP POP DUP2 SWAP1 SSTORE POP DUP1 PUSH1 0x0 DUP1 DUP5 PUSH20 0xFFFFFFFFFFFFFFFFFFFFFFFFFFFFFFFFFFFFFFFF AND PUSH20 0xFFFFFFFFFFFFFFFFFFFFFFFFFFFFFFFFFFFFFFFF AND DUP2 MSTORE PUSH1 0x20 ADD SWAP1 DUP2 MSTORE PUSH1 0x20 ADD PUSH1 0x0 KECCAK256 PUSH1 0x0 DUP3 DUP3 SLOAD ADD SWAP3 POP POP DUP2 SWAP1 SSTORE POP DUP2 PUSH20 0xFFFFFFFFFFFFFFFFFFFFFFFFFFFFFFFFFFFFFFFF AND PUSH1 0x0 PUSH20 0xFFFFFFFFFFFFFFFFFFFFFFFFFFFFFFFFFFFFFFFF AND PUSH32 0xDDF252AD1BE2C89B69C2B068FC378DAA952BA7F163C4A11628F55A4DF523B3EF DUP4 PUSH1 0x40 MLOAD PUSH2 0x1786 SWAP2 SWAP1 PUSH2 0x19D5 JUMP JUMPDEST PUSH1 0x40 MLOAD DUP1 SWAP2 SUB SWAP1 LOG3 PUSH2 0x179A PUSH1 0x0 DUP4 DUP4 PUSH2 0x17A3 JUMP JUMPDEST POP POP JUMP JUMPDEST POP POP POP JUMP JUMPDEST POP POP POP JUMP JUMPDEST PUSH1 0x40 MLOAD DUP1 PUSH1 0x60 ADD PUSH1 0x40 MSTORE DUP1 PUSH1 0x60 DUP2 MSTORE PUSH1 0x20 ADD PUSH1 0x0 DUP2 MSTORE PUSH1 0x20 ADD PUSH1 0x0 DUP2 MSTORE POP SWAP1 JUMP JUMPDEST PUSH1 0x0 DUP2 MLOAD SWAP1 POP SWAP2 SWAP1 POP JUMP JUMPDEST PUSH1 0x0 DUP3 DUP3 MSTORE PUSH1 0x20 DUP3 ADD SWAP1 POP SWAP3 SWAP2 POP POP JUMP JUMPDEST PUSH1 0x0 JUMPDEST DUP4 DUP2 LT ISZERO PUSH2 0x1803 JUMPI DUP1 DUP3 ADD MLOAD DUP2 DUP5 ADD MSTORE PUSH1 0x20 DUP2 ADD SWAP1 POP PUSH2 0x17E8 JUMP JUMPDEST PUSH1 0x0 DUP5 DUP5 ADD MSTORE POP POP POP POP JUMP JUMPDEST PUSH1 0x0 PUSH1 0x1F NOT PUSH1 0x1F DUP4 ADD AND SWAP1 POP SWAP2 SWAP1 POP JUMP JUMPDEST PUSH1 0x0 PUSH2 0x182B DUP3 PUSH2 0x17C9 JUMP JUMPDEST PUSH2 0x1835 DUP2 DUP6 PUSH2 0x17D4 JUMP JUMPDEST SWAP4 POP PUSH2 0x1845 DUP2 DUP6 PUSH1 0x20 DUP7 ADD PUSH2 0x17E5 JUMP JUMPDEST PUSH2 0x184E DUP2 PUSH2 0x180F JUMP JUMPDEST DUP5 ADD SWAP2 POP POP SWAP3 SWAP2 POP POP JUMP JUMPDEST PUSH1 0x0 PUSH1 0x20 DUP3 ADD SWAP1 POP DUP2 DUP2 SUB PUSH1 0x0 DUP4 ADD MSTORE PUSH2 0x1873 DUP2 DUP5 PUSH2 0x1820 JUMP JUMPDEST SWAP1 POP SWAP3 SWAP2 POP POP JUMP JUMPDEST PUSH1 0x0 PUSH1 0x40 MLOAD SWAP1 POP SWAP1 JUMP JUMPDEST PUSH1 0x0 DUP1 REVERT JUMPDEST PUSH1 0x0 DUP1 REVERT JUMPDEST PUSH1 0x0 PUSH20 0xFFFFFFFFFFFFFFFFFFFFFFFFFFFFFFFFFFFFFFFF DUP3 AND SWAP1 POP SWAP2 SWAP1 POP JUMP JUMPDEST PUSH1 0x0 PUSH2 0x18BA DUP3 PUSH2 0x188F JUMP JUMPDEST SWAP1 POP SWAP2 SWAP1 POP JUMP JUMPDEST PUSH2 0x18CA DUP2 PUSH2 0x18AF JUMP JUMPDEST DUP2 EQ PUSH2 0x18D5 JUMPI PUSH1 0x0 DUP1 REVERT JUMPDEST POP JUMP JUMPDEST PUSH1 0x0 DUP2 CALLDATALOAD SWAP1 POP PUSH2 0x18E7 DUP2 PUSH2 0x18C1 JUMP JUMPDEST SWAP3 SWAP2 POP POP JUMP JUMPDEST PUSH1 0x0 DUP2 SWAP1 POP SWAP2 SWAP1 POP JUMP JUMPDEST PUSH2 0x1900 DUP2 PUSH2 0x18ED JUMP JUMPDEST DUP2 EQ PUSH2 0x190B JUMPI PUSH1 0x0 DUP1 REVERT JUMPDEST POP JUMP JUMPDEST PUSH1 0x0 DUP2 CALLDATALOAD SWAP1 POP PUSH2 0x191D DUP2 PUSH2 0x18F7 JUMP JUMPDEST SWAP3 SWAP2 POP POP JUMP JUMPDEST PUSH1 0x0 DUP1 PUSH1 0x40 DUP4 DUP6 SUB SLT ISZERO PUSH2 0x193A JUMPI PUSH2 0x1939 PUSH2 0x1885 JUMP JUMPDEST JUMPDEST PUSH1 0x0 PUSH2 0x1948 DUP6 DUP3 DUP7 ADD PUSH2 0x18D8 JUMP JUMPDEST SWAP3 POP POP PUSH1 0x20 PUSH2 0x1959 DUP6 DUP3 DUP7 ADD PUSH2 0x190E JUMP JUMPDEST SWAP2 POP POP SWAP3 POP SWAP3 SWAP1 POP JUMP JUMPDEST PUSH1 0x0 DUP2 ISZERO ISZERO SWAP1 POP SWAP2 SWAP1 POP JUMP JUMPDEST PUSH2 0x1978 DUP2 PUSH2 0x1963 JUMP JUMPDEST DUP3 MSTORE POP POP JUMP JUMPDEST PUSH1 0x0 PUSH1 0x20 DUP3 ADD SWAP1 POP PUSH2 0x1993 PUSH1 0x0 DUP4 ADD DUP5 PUSH2 0x196F JUMP JUMPDEST SWAP3 SWAP2 POP POP JUMP JUMPDEST PUSH1 0x0 PUSH1 0x20 DUP3 DUP5 SUB SLT ISZERO PUSH2 0x19AF JUMPI PUSH2 0x19AE PUSH2 0x1885 JUMP JUMPDEST JUMPDEST PUSH1 0x0 PUSH2 0x19BD DUP5 DUP3 DUP6 ADD PUSH2 0x18D8 JUMP JUMPDEST SWAP2 POP POP SWAP3 SWAP2 POP POP JUMP JUMPDEST PUSH2 0x19CF DUP2 PUSH2 0x18ED JUMP JUMPDEST DUP3 MSTORE POP POP JUMP JUMPDEST PUSH1 0x0 PUSH1 0x20 DUP3 ADD SWAP1 POP PUSH2 0x19EA PUSH1 0x0 DUP4 ADD DUP5 PUSH2 0x19C6 JUMP JUMPDEST SWAP3 SWAP2 POP POP JUMP JUMPDEST PUSH1 0x0 PUSH1 0x20 DUP3 DUP5 SUB SLT ISZERO PUSH2 0x1A06 JUMPI PUSH2 0x1A05 PUSH2 0x1885 JUMP JUMPDEST JUMPDEST PUSH1 0x0 PUSH2 0x1A14 DUP5 DUP3 DUP6 ADD PUSH2 0x190E JUMP JUMPDEST SWAP2 POP POP SWAP3 SWAP2 POP POP JUMP JUMPDEST PUSH1 0x0 PUSH1 0x60 DUP3 ADD SWAP1 POP DUP2 DUP2 SUB PUSH1 0x0 DUP4 ADD MSTORE PUSH2 0x1A37 DUP2 DUP7 PUSH2 0x1820 JUMP JUMPDEST SWAP1 POP PUSH2 0x1A46 PUSH1 0x20 DUP4 ADD DUP6 PUSH2 0x19C6 JUMP JUMPDEST PUSH2 0x1A53 PUSH1 0x40 DUP4 ADD DUP5 PUSH2 0x19C6 JUMP JUMPDEST SWAP5 SWAP4 POP POP POP POP JUMP JUMPDEST PUSH1 0x0 DUP1 PUSH1 0x0 PUSH1 0x60 DUP5 DUP7 SUB SLT ISZERO PUSH2 0x1A74 JUMPI PUSH2 0x1A73 PUSH2 0x1885 JUMP JUMPDEST JUMPDEST PUSH1 0x0 PUSH2 0x1A82 DUP7 DUP3 DUP8 ADD PUSH2 0x18D8 JUMP JUMPDEST SWAP4 POP POP PUSH1 0x20 PUSH2 0x1A93 DUP7 DUP3 DUP8 ADD PUSH2 0x18D8 JUMP JUMPDEST SWAP3 POP POP PUSH1 0x40 PUSH2 0x1AA4 DUP7 DUP3 DUP8 ADD PUSH2 0x190E JUMP JUMPDEST SWAP2 POP POP SWAP3 POP SWAP3 POP SWAP3 JUMP JUMPDEST PUSH1 0x0 PUSH1 0xFF DUP3 AND SWAP1 POP SWAP2 SWAP1 POP JUMP JUMPDEST PUSH2 0x1AC4 DUP2 PUSH2 0x1AAE JUMP JUMPDEST DUP3 MSTORE POP POP JUMP JUMPDEST PUSH1 0x0 PUSH1 0x20 DUP3 ADD SWAP1 POP PUSH2 0x1ADF PUSH1 0x0 DUP4 ADD DUP5 PUSH2 0x1ABB JUMP JUMPDEST SWAP3 SWAP2 POP POP JUMP JUMPDEST PUSH2 0x1AEE DUP2 PUSH2 0x18AF JUMP JUMPDEST DUP3 MSTORE POP POP JUMP JUMPDEST PUSH1 0x0 PUSH1 0x20 DUP3 ADD SWAP1 POP PUSH2 0x1B09 PUSH1 0x0 DUP4 ADD DUP5 PUSH2 0x1AE5 JUMP JUMPDEST SWAP3 SWAP2 POP POP JUMP JUMPDEST PUSH1 0x0 DUP1 REVERT JUMPDEST PUSH1 0x0 DUP1 REVERT JUMPDEST PUSH32 0x4E487B7100000000000000000000000000000000000000000000000000000000 PUSH1 0x0 MSTORE PUSH1 0x41 PUSH1 0x4 MSTORE PUSH1 0x24 PUSH1 0x0 REVERT JUMPDEST PUSH2 0x1B51 DUP3 PUSH2 0x180F JUMP JUMPDEST DUP2 ADD DUP2 DUP2 LT PUSH8 0xFFFFFFFFFFFFFFFF DUP3 GT OR ISZERO PUSH2 0x1B70 JUMPI PUSH2 0x1B6F PUSH2 0x1B19 JUMP JUMPDEST JUMPDEST DUP1 PUSH1 0x40 MSTORE POP POP POP JUMP JUMPDEST PUSH1 0x0 PUSH2 0x1B83 PUSH2 0x187B JUMP JUMPDEST SWAP1 POP PUSH2 0x1B8F DUP3 DUP3 PUSH2 0x1B48 JUMP JUMPDEST SWAP2 SWAP1 POP JUMP JUMPDEST PUSH1 0x0 PUSH8 0xFFFFFFFFFFFFFFFF DUP3 GT ISZERO PUSH2 0x1BAF JUMPI PUSH2 0x1BAE PUSH2 0x1B19 JUMP JUMPDEST JUMPDEST PUSH2 0x1BB8 DUP3 PUSH2 0x180F JUMP JUMPDEST SWAP1 POP PUSH1 0x20 DUP2 ADD SWAP1 POP SWAP2 SWAP1 POP JUMP JUMPDEST DUP3 DUP2 DUP4 CALLDATACOPY PUSH1 0x0 DUP4 DUP4 ADD MSTORE POP POP POP JUMP JUMPDEST PUSH1 0x0 PUSH2 0x1BE7 PUSH2 0x1BE2 DUP5 PUSH2 0x1B94 JUMP JUMPDEST PUSH2 0x1B79 JUMP JUMPDEST SWAP1 POP DUP3 DUP2 MSTORE PUSH1 0x20 DUP2 ADD DUP5 DUP5 DUP5 ADD GT ISZERO PUSH2 0x1C03 JUMPI PUSH2 0x1C02 PUSH2 0x1B14 JUMP JUMPDEST JUMPDEST PUSH2 0x1C0E DUP5 DUP3 DUP6 PUSH2 0x1BC5 JUMP JUMPDEST POP SWAP4 SWAP3 POP POP POP JUMP JUMPDEST PUSH1 0x0 DUP3 PUSH1 0x1F DUP4 ADD SLT PUSH2 0x1C2B JUMPI PUSH2 0x1C2A PUSH2 0x1B0F JUMP JUMPDEST JUMPDEST DUP2 CALLDATALOAD PUSH2 0x1C3B DUP5 DUP3 PUSH1 0x20 DUP7 ADD PUSH2 0x1BD4 JUMP JUMPDEST SWAP2 POP POP SWAP3 SWAP2 POP POP JUMP JUMPDEST PUSH1 0x0 DUP1 PUSH1 0x0 PUSH1 0x60 DUP5 DUP7 SUB SLT ISZERO PUSH2 0x1C5D JUMPI PUSH2 0x1C5C PUSH2 0x1885 JUMP JUMPDEST JUMPDEST PUSH1 0x0 DUP5 ADD CALLDATALOAD PUSH8 0xFFFFFFFFFFFFFFFF DUP2 GT ISZERO PUSH2 0x1C7B JUMPI PUSH2 0x1C7A PUSH2 0x188A JUMP JUMPDEST JUMPDEST PUSH2 0x1C87 DUP7 DUP3 DUP8 ADD PUSH2 0x1C16 JUMP JUMPDEST SWAP4 POP POP PUSH1 0x20 PUSH2 0x1C98 DUP7 DUP3 DUP8 ADD PUSH2 0x190E JUMP JUMPDEST SWAP3 POP POP PUSH1 0x40 PUSH2 0x1CA9 DUP7 DUP3 DUP8 ADD PUSH2 0x190E JUMP JUMPDEST SWAP2 POP POP SWAP3 POP SWAP3 POP SWAP3 JUMP JUMPDEST PUSH1 0x0 DUP2 MLOAD SWAP1 POP SWAP2 SWAP1 POP JUMP JUMPDEST PUSH1 0x0 DUP3 DUP3 MSTORE PUSH1 0x20 DUP3 ADD SWAP1 POP SWAP3 SWAP2 POP POP JUMP JUMPDEST PUSH1 0x0 DUP2 SWAP1 POP PUSH1 0x20 DUP3 ADD SWAP1 POP SWAP2 SWAP1 POP JUMP JUMPDEST PUSH1 0x0 DUP3 DUP3 MSTORE PUSH1 0x20 DUP3 ADD SWAP1 POP SWAP3 SWAP2 POP POP JUMP JUMPDEST PUSH1 0x0 PUSH2 0x1CFB DUP3 PUSH2 0x17C9 JUMP JUMPDEST PUSH2 0x1D05 DUP2 DUP6 PUSH2 0x1CDF JUMP JUMPDEST SWAP4 POP PUSH2 0x1D15 DUP2 DUP6 PUSH1 0x20 DUP7 ADD PUSH2 0x17E5 JUMP JUMPDEST PUSH2 0x1D1E DUP2 PUSH2 0x180F JUMP JUMPDEST DUP5 ADD SWAP2 POP POP SWAP3 SWAP2 POP POP JUMP JUMPDEST PUSH2 0x1D32 DUP2 PUSH2 0x18ED JUMP JUMPDEST DUP3 MSTORE POP POP JUMP JUMPDEST PUSH1 0x0 PUSH1 0x60 DUP4 ADD PUSH1 0x0 DUP4 ADD MLOAD DUP5 DUP3 SUB PUSH1 0x0 DUP7 ADD MSTORE PUSH2 0x1D55 DUP3 DUP3 PUSH2 0x1CF0 JUMP JUMPDEST SWAP2 POP POP PUSH1 0x20 DUP4 ADD MLOAD PUSH2 0x1D6A PUSH1 0x20 DUP7 ADD DUP3 PUSH2 0x1D29 JUMP JUMPDEST POP PUSH1 0x40 DUP4 ADD MLOAD PUSH2 0x1D7D PUSH1 0x40 DUP7 ADD DUP3 PUSH2 0x1D29 JUMP JUMPDEST POP DUP1 SWAP2 POP POP SWAP3 SWAP2 POP POP JUMP JUMPDEST PUSH1 0x0 PUSH2 0x1D94 DUP4 DUP4 PUSH2 0x1D38 JUMP JUMPDEST SWAP1 POP SWAP3 SWAP2 POP POP JUMP JUMPDEST PUSH1 0x0 PUSH1 0x20 DUP3 ADD SWAP1 POP SWAP2 SWAP1 POP JUMP JUMPDEST PUSH1 0x0 PUSH2 0x1DB4 DUP3 PUSH2 0x1CB3 JUMP JUMPDEST PUSH2 0x1DBE DUP2 DUP6 PUSH2 0x1CBE JUMP JUMPDEST SWAP4 POP DUP4 PUSH1 0x20 DUP3 MUL DUP6 ADD PUSH2 0x1DD0 DUP6 PUSH2 0x1CCF JUMP JUMPDEST DUP1 PUSH1 0x0 JUMPDEST DUP6 DUP2 LT ISZERO PUSH2 0x1E0C JUMPI DUP5 DUP5 SUB DUP10 MSTORE DUP2 MLOAD PUSH2 0x1DED DUP6 DUP3 PUSH2 0x1D88 JUMP JUMPDEST SWAP5 POP PUSH2 0x1DF8 DUP4 PUSH2 0x1D9C JUMP JUMPDEST SWAP3 POP PUSH1 0x20 DUP11 ADD SWAP10 POP POP PUSH1 0x1 DUP2 ADD SWAP1 POP PUSH2 0x1DD4 JUMP JUMPDEST POP DUP3 SWAP8 POP DUP8 SWAP6 POP POP POP POP POP POP SWAP3 SWAP2 POP POP JUMP JUMPDEST PUSH1 0x0 PUSH1 0x20 DUP3 ADD SWAP1 POP DUP2 DUP2 SUB PUSH1 0x0 DUP4 ADD MSTORE PUSH2 0x1E38 DUP2 DUP5 PUSH2 0x1DA9 JUMP JUMPDEST SWAP1 POP SWAP3 SWAP2 POP POP JUMP JUMPDEST PUSH1 0x0 DUP1 PUSH1 0x40 DUP4 DUP6 SUB SLT ISZERO PUSH2 0x1E57 JUMPI PUSH2 0x1E56 PUSH2 0x1885 JUMP JUMPDEST JUMPDEST PUSH1 0x0 PUSH2 0x1E65 DUP6 DUP3 DUP7 ADD PUSH2 0x18D8 JUMP JUMPDEST SWAP3 POP POP PUSH1 0x20 PUSH2 0x1E76 DUP6 DUP3 DUP7 ADD PUSH2 0x18D8 JUMP JUMPDEST SWAP2 POP POP SWAP3 POP SWAP3 SWAP1 POP JUMP JUMPDEST PUSH32 0x4E487B7100000000000000000000000000000000000000000000000000000000 PUSH1 0x0 MSTORE PUSH1 0x22 PUSH1 0x4 MSTORE PUSH1 0x24 PUSH1 0x0 REVERT JUMPDEST PUSH1 0x0 PUSH1 0x2 DUP3 DIV SWAP1 POP PUSH1 0x1 DUP3 AND DUP1 PUSH2 0x1EC7 JUMPI PUSH1 0x7F DUP3 AND SWAP2 POP JUMPDEST PUSH1 0x20 DUP3 LT DUP2 SUB PUSH2 0x1EDA JUMPI PUSH2 0x1ED9 PUSH2 0x1E80 JUMP JUMPDEST JUMPDEST POP SWAP2 SWAP1 POP JUMP JUMPDEST PUSH32 0x4E487B7100000000000000000000000000000000000000000000000000000000 PUSH1 0x0 MSTORE PUSH1 0x11 PUSH1 0x4 MSTORE PUSH1 0x24 PUSH1 0x0 REVERT JUMPDEST PUSH1 0x0 PUSH2 0x1F1A DUP3 PUSH2 0x18ED JUMP JUMPDEST SWAP2 POP PUSH2 0x1F25 DUP4 PUSH2 0x18ED JUMP JUMPDEST SWAP3 POP DUP3 DUP3 ADD SWAP1 POP DUP1 DUP3 GT ISZERO PUSH2 0x1F3D JUMPI PUSH2 0x1F3C PUSH2 0x1EE0 JUMP JUMPDEST JUMPDEST SWAP3 SWAP2 POP POP JUMP JUMPDEST PUSH32 0x496E73756666696369656E742062616C616E6365000000000000000000000000 PUSH1 0x0 DUP3 ADD MSTORE POP JUMP JUMPDEST PUSH1 0x0 PUSH2 0x1F79 PUSH1 0x14 DUP4 PUSH2 0x17D4 JUMP JUMPDEST SWAP2 POP PUSH2 0x1F84 DUP3 PUSH2 0x1F43 JUMP JUMPDEST PUSH1 0x20 DUP3 ADD SWAP1 POP SWAP2 SWAP1 POP JUMP JUMPDEST PUSH1 0x0 PUSH1 0x20 DUP3 ADD SWAP1 POP DUP2 DUP2 SUB PUSH1 0x0 DUP4 ADD MSTORE PUSH2 0x1FA8 DUP2 PUSH2 0x1F6C JUMP JUMPDEST SWAP1 POP SWAP2 SWAP1 POP JUMP JUMPDEST PUSH32 0x5072696365206D7573742062652067726561746572207468616E203000000000 PUSH1 0x0 DUP3 ADD MSTORE POP JUMP JUMPDEST PUSH1 0x0 PUSH2 0x1FE5 PUSH1 0x1C DUP4 PUSH2 0x17D4 JUMP JUMPDEST SWAP2 POP PUSH2 0x1FF0 DUP3 PUSH2 0x1FAF JUMP JUMPDEST PUSH1 0x20 DUP3 ADD SWAP1 POP SWAP2 SWAP1 POP JUMP JUMPDEST PUSH1 0x0 PUSH1 0x20 DUP3 ADD SWAP1 POP DUP2 DUP2 SUB PUSH1 0x0 DUP4 ADD MSTORE PUSH2 0x2014 DUP2 PUSH2 0x1FD8 JUMP JUMPDEST SWAP1 POP SWAP2 SWAP1 POP JUMP JUMPDEST PUSH32 0x53746F636B206D7573742062652067726561746572207468616E203000000000 PUSH1 0x0 DUP3 ADD MSTORE POP JUMP JUMPDEST PUSH1 0x0 PUSH2 0x2051 PUSH1 0x1C DUP4 PUSH2 0x17D4 JUMP JUMPDEST SWAP2 POP PUSH2 0x205C DUP3 PUSH2 0x201B JUMP JUMPDEST PUSH1 0x20 DUP3 ADD SWAP1 POP SWAP2 SWAP1 POP JUMP JUMPDEST PUSH1 0x0 PUSH1 0x20 DUP3 ADD SWAP1 POP DUP2 DUP2 SUB PUSH1 0x0 DUP4 ADD MSTORE PUSH2 0x2080 DUP2 PUSH2 0x2044 JUMP JUMPDEST SWAP1 POP SWAP2 SWAP1 POP JUMP JUMPDEST PUSH1 0x0 PUSH2 0x2092 DUP3 PUSH2 0x18ED JUMP JUMPDEST SWAP2 POP PUSH32 0xFFFFFFFFFFFFFFFFFFFFFFFFFFFFFFFFFFFFFFFFFFFFFFFFFFFFFFFFFFFFFFFF DUP3 SUB PUSH2 0x20C4 JUMPI PUSH2 0x20C3 PUSH2 0x1EE0 JUMP JUMPDEST JUMPDEST PUSH1 0x1 DUP3 ADD SWAP1 POP SWAP2 SWAP1 POP JUMP JUMPDEST PUSH1 0x0 DUP2 SWAP1 POP DUP2 PUSH1 0x0 MSTORE PUSH1 0x20 PUSH1 0x0 KECCAK256 SWAP1 POP SWAP2 SWAP1 POP JUMP JUMPDEST PUSH1 0x0 PUSH1 0x20 PUSH1 0x1F DUP4 ADD DIV SWAP1 POP SWAP2 SWAP1 POP JUMP JUMPDEST PUSH1 0x0 DUP3 DUP3 SHL SWAP1 POP SWAP3 SWAP2 POP POP JUMP JUMPDEST PUSH1 0x0 PUSH1 0x8 DUP4 MUL PUSH2 0x2131 PUSH32 0xFFFFFFFFFFFFFFFFFFFFFFFFFFFFFFFFFFFFFFFFFFFFFFFFFFFFFFFFFFFFFFFF DUP3 PUSH2 0x20F4 JUMP JUMPDEST PUSH2 0x213B DUP7 DUP4 PUSH2 0x20F4 JUMP JUMPDEST SWAP6 POP DUP1 NOT DUP5 AND SWAP4 POP DUP1 DUP7 AND DUP5 OR SWAP3 POP POP POP SWAP4 SWAP3 POP POP POP JUMP JUMPDEST PUSH1 0x0 DUP2 SWAP1 POP SWAP2 SWAP1 POP JUMP JUMPDEST PUSH1 0x0 PUSH2 0x2178 PUSH2 0x2173 PUSH2 0x216E DUP5 PUSH2 0x18ED JUMP JUMPDEST PUSH2 0x2153 JUMP JUMPDEST PUSH2 0x18ED JUMP JUMPDEST SWAP1 POP SWAP2 SWAP1 POP JUMP JUMPDEST PUSH1 0x0 DUP2 SWAP1 POP SWAP2 SWAP1 POP JUMP JUMPDEST PUSH2 0x2192 DUP4 PUSH2 0x215D JUMP JUMPDEST PUSH2 0x21A6 PUSH2 0x219E DUP3 PUSH2 0x217F JUMP JUMPDEST DUP5 DUP5 SLOAD PUSH2 0x2101 JUMP JUMPDEST DUP3 SSTORE POP POP POP POP JUMP JUMPDEST PUSH1 0x0 SWAP1 JUMP JUMPDEST PUSH2 0x21BB PUSH2 0x21AE JUMP JUMPDEST PUSH2 0x21C6 DUP2 DUP5 DUP5 PUSH2 0x2189 JUMP JUMPDEST POP POP POP JUMP JUMPDEST JUMPDEST DUP2 DUP2 LT ISZERO PUSH2 0x21EA JUMPI PUSH2 0x21DF PUSH1 0x0 DUP3 PUSH2 0x21B3 JUMP JUMPDEST PUSH1 0x1 DUP2 ADD SWAP1 POP PUSH2 0x21CC JUMP JUMPDEST POP POP JUMP JUMPDEST PUSH1 0x1F DUP3 GT ISZERO PUSH2 0x222F JUMPI PUSH2 0x2200 DUP2 PUSH2 0x20CF JUMP JUMPDEST PUSH2 0x2209 DUP5 PUSH2 0x20E4 JUMP JUMPDEST DUP2 ADD PUSH1 0x20 DUP6 LT ISZERO PUSH2 0x2218 JUMPI DUP2 SWAP1 POP JUMPDEST PUSH2 0x222C PUSH2 0x2224 DUP6 PUSH2 0x20E4 JUMP JUMPDEST DUP4 ADD DUP3 PUSH2 0x21CB JUMP JUMPDEST POP POP JUMPDEST POP POP POP JUMP JUMPDEST PUSH1 0x0 DUP3 DUP3 SHR SWAP1 POP SWAP3 SWAP2 POP POP JUMP JUMPDEST PUSH1 0x0 PUSH2 0x2252 PUSH1 0x0 NOT DUP5 PUSH1 0x8 MUL PUSH2 0x2234 JUMP JUMPDEST NOT DUP1 DUP4 AND SWAP2 POP POP SWAP3 SWAP2 POP POP JUMP JUMPDEST PUSH1 0x0 PUSH2 0x226B DUP4 DUP4 PUSH2 0x2241 JUMP JUMPDEST SWAP2 POP DUP3 PUSH1 0x2 MUL DUP3 OR SWAP1 POP SWAP3 SWAP2 POP POP JUMP JUMPDEST PUSH2 0x2284 DUP3 PUSH2 0x17C9 JUMP JUMPDEST PUSH8 0xFFFFFFFFFFFFFFFF DUP2 GT ISZERO PUSH2 0x229D JUMPI PUSH2 0x229C PUSH2 0x1B19 JUMP JUMPDEST JUMPDEST PUSH2 0x22A7 DUP3 SLOAD PUSH2 0x1EAF JUMP JUMPDEST PUSH2 0x22B2 DUP3 DUP3 DUP6 PUSH2 0x21EE JUMP JUMPDEST PUSH1 0x0 PUSH1 0x20 SWAP1 POP PUSH1 0x1F DUP4 GT PUSH1 0x1 DUP2 EQ PUSH2 0x22E5 JUMPI PUSH1 0x0 DUP5 ISZERO PUSH2 0x22D3 JUMPI DUP3 DUP8 ADD MLOAD SWAP1 POP JUMPDEST PUSH2 0x22DD DUP6 DUP3 PUSH2 0x225F JUMP JUMPDEST DUP7 SSTORE POP PUSH2 0x2345 JUMP JUMPDEST PUSH1 0x1F NOT DUP5 AND PUSH2 0x22F3 DUP7 PUSH2 0x20CF JUMP JUMPDEST PUSH1 0x0 JUMPDEST DUP3 DUP2 LT ISZERO PUSH2 0x231B JUMPI DUP5 DUP10 ADD MLOAD DUP3 SSTORE PUSH1 0x1 DUP3 ADD SWAP2 POP PUSH1 0x20 DUP6 ADD SWAP5 POP PUSH1 0x20 DUP2 ADD SWAP1 POP PUSH2 0x22F6 JUMP JUMPDEST DUP7 DUP4 LT ISZERO PUSH2 0x2338 JUMPI DUP5 DUP10 ADD MLOAD PUSH2 0x2334 PUSH1 0x1F DUP10 AND DUP3 PUSH2 0x2241 JUMP JUMPDEST DUP4 SSTORE POP JUMPDEST PUSH1 0x1 PUSH1 0x2 DUP9 MUL ADD DUP9 SSTORE POP POP POP JUMPDEST POP POP POP POP POP POP JUMP JUMPDEST PUSH32 0x45524332303A2064656372656173656420616C6C6F77616E63652062656C6F77 PUSH1 0x0 DUP3 ADD MSTORE PUSH32 0x207A65726F000000000000000000000000000000000000000000000000000000 PUSH1 0x20 DUP3 ADD MSTORE POP JUMP JUMPDEST PUSH1 0x0 PUSH2 0x23A9 PUSH1 0x25 DUP4 PUSH2 0x17D4 JUMP JUMPDEST SWAP2 POP PUSH2 0x23B4 DUP3 PUSH2 0x234D JUMP JUMPDEST PUSH1 0x40 DUP3 ADD SWAP1 POP SWAP2 SWAP1 POP JUMP JUMPDEST PUSH1 0x0 PUSH1 0x20 DUP3 ADD SWAP1 POP DUP2 DUP2 SUB PUSH1 0x0 DUP4 ADD MSTORE PUSH2 0x23D8 DUP2 PUSH2 0x239C JUMP JUMPDEST SWAP1 POP SWAP2 SWAP1 POP JUMP JUMPDEST PUSH32 0x496E76616C696420726563697069656E74206164647265737300000000000000 PUSH1 0x0 DUP3 ADD MSTORE POP JUMP JUMPDEST PUSH1 0x0 PUSH2 0x2415 PUSH1 0x19 DUP4 PUSH2 0x17D4 JUMP JUMPDEST SWAP2 POP PUSH2 0x2420 DUP3 PUSH2 0x23DF JUMP JUMPDEST PUSH1 0x20 DUP3 ADD SWAP1 POP SWAP2 SWAP1 POP JUMP JUMPDEST PUSH1 0x0 PUSH1 0x20 DUP3 ADD SWAP1 POP DUP2 DUP2 SUB PUSH1 0x0 DUP4 ADD MSTORE PUSH2 0x2444 DUP2 PUSH2 0x2408 JUMP JUMPDEST SWAP1 POP SWAP2 SWAP1 POP JUMP JUMPDEST PUSH1 0x0 PUSH2 0x2456 DUP3 PUSH2 0x18ED JUMP JUMPDEST SWAP2 POP PUSH2 0x2461 DUP4 PUSH2 0x18ED JUMP JUMPDEST SWAP3 POP DUP3 DUP3 SUB SWAP1 POP DUP2 DUP2 GT ISZERO PUSH2 0x2479 JUMPI PUSH2 0x2478 PUSH2 0x1EE0 JUMP JUMPDEST JUMPDEST SWAP3 SWAP2 POP POP JUMP JUMPDEST PUSH32 0x4E487B7100000000000000000000000000000000000000000000000000000000 PUSH1 0x0 MSTORE PUSH1 0x32 PUSH1 0x4 MSTORE PUSH1 0x24 PUSH1 0x0 REVERT JUMPDEST PUSH32 0x496E76616C6964206974656D2049440000000000000000000000000000000000 PUSH1 0x0 DUP3 ADD MSTORE POP JUMP JUMPDEST PUSH1 0x0 PUSH2 0x24E4 PUSH1 0xF DUP4 PUSH2 0x17D4 JUMP JUMPDEST SWAP2 POP PUSH2 0x24EF DUP3 PUSH2 0x24AE JUMP JUMPDEST PUSH1 0x20 DUP3 ADD SWAP1 POP SWAP2 SWAP1 POP JUMP JUMPDEST PUSH1 0x0 PUSH1 0x20 DUP3 ADD SWAP1 POP DUP2 DUP2 SUB PUSH1 0x0 DUP4 ADD MSTORE PUSH2 0x2513 DUP2 PUSH2 0x24D7 JUMP JUMPDEST SWAP1 POP SWAP2 SWAP1 POP JUMP JUMPDEST PUSH32 0x4974656D206F7574206F662073746F636B000000000000000000000000000000 PUSH1 0x0 DUP3 ADD MSTORE POP JUMP JUMPDEST PUSH1 0x0 PUSH2 0x2550 PUSH1 0x11 DUP4 PUSH2 0x17D4 JUMP JUMPDEST SWAP2 POP PUSH2 0x255B DUP3 PUSH2 0x251A JUMP JUMPDEST PUSH1 0x20 DUP3 ADD SWAP1 POP SWAP2 SWAP1 POP JUMP JUMPDEST PUSH1 0x0 PUSH1 0x20 DUP3 ADD SWAP1 POP DUP2 DUP2 SUB PUSH1 0x0 DUP4 ADD MSTORE PUSH2 0x257F DUP2 PUSH2 0x2543 JUMP JUMPDEST SWAP1 POP SWAP2 SWAP1 POP JUMP JUMPDEST PUSH1 0x0 PUSH2 0x2591 DUP3 PUSH2 0x18ED JUMP JUMPDEST SWAP2 POP PUSH1 0x0 DUP3 SUB PUSH2 0x25A4 JUMPI PUSH2 0x25A3 PUSH2 0x1EE0 JUMP JUMPDEST JUMPDEST PUSH1 0x1 DUP3 SUB SWAP1 POP SWAP2 SWAP1 POP JUMP JUMPDEST PUSH32 0x4F776E61626C653A206E6577206F776E657220697320746865207A65726F2061 PUSH1 0x0 DUP3 ADD MSTORE PUSH32 0x6464726573730000000000000000000000000000000000000000000000000000 PUSH1 0x20 DUP3 ADD MSTORE POP JUMP JUMPDEST PUSH1 0x0 PUSH2 0x260B PUSH1 0x26 DUP4 PUSH2 0x17D4 JUMP JUMPDEST SWAP2 POP PUSH2 0x2616 DUP3 PUSH2 0x25AF JUMP JUMPDEST PUSH1 0x40 DUP3 ADD SWAP1 POP SWAP2 SWAP1 POP JUMP JUMPDEST PUSH1 0x0 PUSH1 0x20 DUP3 ADD SWAP1 POP DUP2 DUP2 SUB PUSH1 0x0 DUP4 ADD MSTORE PUSH2 0x263A DUP2 PUSH2 0x25FE JUMP JUMPDEST SWAP1 POP SWAP2 SWAP1 POP JUMP JUMPDEST PUSH32 0x45524332303A20617070726F76652066726F6D20746865207A65726F20616464 PUSH1 0x0 DUP3 ADD MSTORE PUSH32 0x7265737300000000000000000000000000000000000000000000000000000000 PUSH1 0x20 DUP3 ADD MSTORE POP JUMP JUMPDEST PUSH1 0x0 PUSH2 0x269D PUSH1 0x24 DUP4 PUSH2 0x17D4 JUMP JUMPDEST SWAP2 POP PUSH2 0x26A8 DUP3 PUSH2 0x2641 JUMP JUMPDEST PUSH1 0x40 DUP3 ADD SWAP1 POP SWAP2 SWAP1 POP JUMP JUMPDEST PUSH1 0x0 PUSH1 0x20 DUP3 ADD SWAP1 POP DUP2 DUP2 SUB PUSH1 0x0 DUP4 ADD MSTORE PUSH2 0x26CC DUP2 PUSH2 0x2690 JUMP JUMPDEST SWAP1 POP SWAP2 SWAP1 POP JUMP JUMPDEST PUSH32 0x45524332303A20617070726F766520746F20746865207A65726F206164647265 PUSH1 0x0 DUP3 ADD MSTORE PUSH32 0x7373000000000000000000000000000000000000000000000000000000000000 PUSH1 0x20 DUP3 ADD MSTORE POP JUMP JUMPDEST PUSH1 0x0 PUSH2 0x272F PUSH1 0x22 DUP4 PUSH2 0x17D4 JUMP JUMPDEST SWAP2 POP PUSH2 0x273A DUP3 PUSH2 0x26D3 JUMP JUMPDEST PUSH1 0x40 DUP3 ADD SWAP1 POP SWAP2 SWAP1 POP JUMP JUMPDEST PUSH1 0x0 PUSH1 0x20 DUP3 ADD SWAP1 POP DUP2 DUP2 SUB PUSH1 0x0 DUP4 ADD MSTORE PUSH2 0x275E DUP2 PUSH2 0x2722 JUMP JUMPDEST SWAP1 POP SWAP2 SWAP1 POP JUMP JUMPDEST PUSH32 0x45524332303A20696E73756666696369656E7420616C6C6F77616E6365000000 PUSH1 0x0 DUP3 ADD MSTORE POP JUMP JUMPDEST PUSH1 0x0 PUSH2 0x279B PUSH1 0x1D DUP4 PUSH2 0x17D4 JUMP JUMPDEST SWAP2 POP PUSH2 0x27A6 DUP3 PUSH2 0x2765 JUMP JUMPDEST PUSH1 0x20 DUP3 ADD SWAP1 POP SWAP2 SWAP1 POP JUMP JUMPDEST PUSH1 0x0 PUSH1 0x20 DUP3 ADD SWAP1 POP DUP2 DUP2 SUB PUSH1 0x0 DUP4 ADD MSTORE PUSH2 0x27CA DUP2 PUSH2 0x278E JUMP JUMPDEST SWAP1 POP SWAP2 SWAP1 POP JUMP JUMPDEST PUSH32 0x45524332303A207472616E736665722066726F6D20746865207A65726F206164 PUSH1 0x0 DUP3 ADD MSTORE PUSH32 0x6472657373000000000000000000000000000000000000000000000000000000 PUSH1 0x20 DUP3 ADD MSTORE POP JUMP JUMPDEST PUSH1 0x0 PUSH2 0x282D PUSH1 0x25 DUP4 PUSH2 0x17D4 JUMP JUMPDEST SWAP2 POP PUSH2 0x2838 DUP3 PUSH2 0x27D1 JUMP JUMPDEST PUSH1 0x40 DUP3 ADD SWAP1 POP SWAP2 SWAP1 POP JUMP JUMPDEST PUSH1 0x0 PUSH1 0x20 DUP3 ADD SWAP1 POP DUP2 DUP2 SUB PUSH1 0x0 DUP4 ADD MSTORE PUSH2 0x285C DUP2 PUSH2 0x2820 JUMP JUMPDEST SWAP1 POP SWAP2 SWAP1 POP JUMP JUMPDEST PUSH32 0x45524332303A207472616E7366657220746F20746865207A65726F2061646472 PUSH1 0x0 DUP3 ADD MSTORE PUSH32 0x6573730000000000000000000000000000000000000000000000000000000000 PUSH1 0x20 DUP3 ADD MSTORE POP JUMP JUMPDEST PUSH1 0x0 PUSH2 0x28BF PUSH1 0x23 DUP4 PUSH2 0x17D4 JUMP JUMPDEST SWAP2 POP PUSH2 0x28CA DUP3 PUSH2 0x2863 JUMP JUMPDEST PUSH1 0x40 DUP3 ADD SWAP1 POP SWAP2 SWAP1 POP JUMP JUMPDEST PUSH1 0x0 PUSH1 0x20 DUP3 ADD SWAP1 POP DUP2 DUP2 SUB PUSH1 0x0 DUP4 ADD MSTORE PUSH2 0x28EE DUP2 PUSH2 0x28B2 JUMP JUMPDEST SWAP1 POP SWAP2 SWAP1 POP JUMP JUMPDEST PUSH32 0x45524332303A207472616E7366657220616D6F756E7420657863656564732062 PUSH1 0x0 DUP3 ADD MSTORE PUSH32 0x616C616E63650000000000000000000000000000000000000000000000000000 PUSH1 0x20 DUP3 ADD MSTORE POP JUMP JUMPDEST PUSH1 0x0 PUSH2 0x2951 PUSH1 0x26 DUP4 PUSH2 0x17D4 JUMP JUMPDEST SWAP2 POP PUSH2 0x295C DUP3 PUSH2 0x28F5 JUMP JUMPDEST PUSH1 0x40 DUP3 ADD SWAP1 POP SWAP2 SWAP1 POP JUMP JUMPDEST PUSH1 0x0 PUSH1 0x20 DUP3 ADD SWAP1 POP DUP2 DUP2 SUB PUSH1 0x0 DUP4 ADD MSTORE PUSH2 0x2980 DUP2 PUSH2 0x2944 JUMP JUMPDEST SWAP1 POP SWAP2 SWAP1 POP JUMP JUMPDEST PUSH32 0x45524332303A206275726E2066726F6D20746865207A65726F20616464726573 PUSH1 0x0 DUP3 ADD MSTORE PUSH32 0x7300000000000000000000000000000000000000000000000000000000000000 PUSH1 0x20 DUP3 ADD MSTORE POP JUMP JUMPDEST PUSH1 0x0 PUSH2 0x29E3 PUSH1 0x21 DUP4 PUSH2 0x17D4 JUMP JUMPDEST SWAP2 POP PUSH2 0x29EE DUP3 PUSH2 0x2987 JUMP JUMPDEST PUSH1 0x40 DUP3 ADD SWAP1 POP SWAP2 SWAP1 POP JUMP JUMPDEST PUSH1 0x0 PUSH1 0x20 DUP3 ADD SWAP1 POP DUP2 DUP2 SUB PUSH1 0x0 DUP4 ADD MSTORE PUSH2 0x2A12 DUP2 PUSH2 0x29D6 JUMP JUMPDEST SWAP1 POP SWAP2 SWAP1 POP JUMP JUMPDEST PUSH32 0x45524332303A206275726E20616D6F756E7420657863656564732062616C616E PUSH1 0x0 DUP3 ADD MSTORE PUSH32 0x6365000000000000000000000000000000000000000000000000000000000000 PUSH1 0x20 DUP3 ADD MSTORE POP JUMP JUMPDEST PUSH1 0x0 PUSH2 0x2A75 PUSH1 0x22 DUP4 PUSH2 0x17D4 JUMP JUMPDEST SWAP2 POP PUSH2 0x2A80 DUP3 PUSH2 0x2A19 JUMP JUMPDEST PUSH1 0x40 DUP3 ADD SWAP1 POP SWAP2 SWAP1 POP JUMP JUMPDEST PUSH1 0x0 PUSH1 0x20 DUP3 ADD SWAP1 POP DUP2 DUP2 SUB PUSH1 0x0 DUP4 ADD MSTORE PUSH2 0x2AA4 DUP2 PUSH2 0x2A68 JUMP JUMPDEST SWAP1 POP SWAP2 SWAP1 POP JUMP JUMPDEST PUSH32 0x4F776E61626C653A2063616C6C6572206973206E6F7420746865206F776E6572 PUSH1 0x0 DUP3 ADD MSTORE POP JUMP JUMPDEST PUSH1 0x0 PUSH2 0x2AE1 PUSH1 0x20 DUP4 PUSH2 0x17D4 JUMP JUMPDEST SWAP2 POP PUSH2 0x2AEC DUP3 PUSH2 0x2AAB JUMP JUMPDEST PUSH1 0x20 DUP3 ADD SWAP1 POP SWAP2 SWAP1 POP JUMP JUMPDEST PUSH1 0x0 PUSH1 0x20 DUP3 ADD SWAP1 POP DUP2 DUP2 SUB PUSH1 0x0 DUP4 ADD MSTORE PUSH2 0x2B10 DUP2 PUSH2 0x2AD4 JUMP JUMPDEST SWAP1 POP SWAP2 SWAP1 POP JUMP JUMPDEST PUSH32 0x45524332303A206D696E7420746F20746865207A65726F206164647265737300 PUSH1 0x0 DUP3 ADD MSTORE POP JUMP JUMPDEST PUSH1 0x0 PUSH2 0x2B4D PUSH1 0x1F DUP4 PUSH2 0x17D4 JUMP JUMPDEST SWAP2 POP PUSH2 0x2B58 DUP3 PUSH2 0x2B17 JUMP JUMPDEST PUSH1 0x20 DUP3 ADD SWAP1 POP SWAP2 SWAP1 POP JUMP JUMPDEST PUSH1 0x0 PUSH1 0x20 DUP3 ADD SWAP1 POP DUP2 DUP2 SUB PUSH1 0x0 DUP4 ADD MSTORE PUSH2 0x2B7C DUP2 PUSH2 0x2B40 JUMP JUMPDEST SWAP1 POP SWAP2 SWAP1 POP JUMP INVALID LOG2 PUSH5 0x6970667358 0x22 SLT KECCAK256 STATICCALL SELFBALANCE 0xE9 MULMOD MSTORE8 0x29 DUP1 GASLIMIT 0x29 EQ LT DUP10 DUP16 SLOAD 0xE9 0xCC AND 0xE0 0xDE MLOAD JUMP 0x49 PUSH17 0xF78F836AF117845A6D64736F6C63430008 SLT STOP CALLER "
				},
				"gasEstimates": {
					"creation": {
						"codeDepositCost": "2238600",
						"executionCost": "infinite",
						"totalCost": "infinite"
					},
					"external": {
						"addGameStoreItem(string,uint256,uint256)": "infinite",
						"allowance(address,address)": "infinite",
						"approve(address,uint256)": "infinite",
						"balanceOf(address)": "2952",
						"burnTokens(uint256)": "infinite",
						"checkTokenBalance(address)": "2952",
						"decimals()": "366",
						"decreaseAllowance(address,uint256)": "infinite",
						"gameStoreItems(uint256)": "infinite",
						"getGameStoreItems()": "infinite",
						"increaseAllowance(address,uint256)": "infinite",
						"itemCount()": "2496",
						"mintTokens(address,uint256)": "infinite",
						"name()": "infinite",
						"owner()": "2545",
						"redeemGameStoreItem(uint256)": "infinite",
						"redeemTokens(uint256)": "infinite",
						"renounceOwnership()": "30531",
						"symbol()": "infinite",
						"totalSupply()": "2527",
						"transfer(address,uint256)": "infinite",
						"transferFrom(address,address,uint256)": "infinite",
						"transferOwnership(address)": "30876",
						"transferTokens(address,uint256)": "infinite"
					}
				},
				"methodIdentifiers": {
					"addGameStoreItem(string,uint256,uint256)": "a196f966",
					"allowance(address,address)": "dd62ed3e",
					"approve(address,uint256)": "095ea7b3",
					"balanceOf(address)": "70a08231",
					"burnTokens(uint256)": "6d1b229d",
					"checkTokenBalance(address)": "126cbe60",
					"decimals()": "313ce567",
					"decreaseAllowance(address,uint256)": "a457c2d7",
					"gameStoreItems(uint256)": "21dded92",
					"getGameStoreItems()": "cc56857d",
					"increaseAllowance(address,uint256)": "39509351",
					"itemCount()": "6bfb0d01",
					"mintTokens(address,uint256)": "f0dda65c",
					"name()": "06fdde03",
					"owner()": "8da5cb5b",
					"redeemGameStoreItem(uint256)": "e6e645d1",
					"redeemTokens(uint256)": "a6e158f8",
					"renounceOwnership()": "715018a6",
					"symbol()": "95d89b41",
					"totalSupply()": "18160ddd",
					"transfer(address,uint256)": "a9059cbb",
					"transferFrom(address,address,uint256)": "23b872dd",
					"transferOwnership(address)": "f2fde38b",
					"transferTokens(address,uint256)": "bec3fa17"
				}
			},
			"storageLayout": {
				"storage": [
					{
						"astId": 128,
						"contract": "contracts/DegenToken.sol:DegenToken",
						"label": "_balances",
						"offset": 0,
						"slot": "0",
						"type": "t_mapping(t_address,t_uint256)"
					},
					{
						"astId": 134,
						"contract": "contracts/DegenToken.sol:DegenToken",
						"label": "_allowances",
						"offset": 0,
						"slot": "1",
						"type": "t_mapping(t_address,t_mapping(t_address,t_uint256))"
					},
					{
						"astId": 136,
						"contract": "contracts/DegenToken.sol:DegenToken",
						"label": "_totalSupply",
						"offset": 0,
						"slot": "2",
						"type": "t_uint256"
					},
					{
						"astId": 138,
						"contract": "contracts/DegenToken.sol:DegenToken",
						"label": "_name",
						"offset": 0,
						"slot": "3",
						"type": "t_string_storage"
					},
					{
						"astId": 140,
						"contract": "contracts/DegenToken.sol:DegenToken",
						"label": "_symbol",
						"offset": 0,
						"slot": "4",
						"type": "t_string_storage"
					},
					{
						"astId": 7,
						"contract": "contracts/DegenToken.sol:DegenToken",
						"label": "_owner",
						"offset": 0,
						"slot": "5",
						"type": "t_address"
					},
					{
						"astId": 844,
						"contract": "contracts/DegenToken.sol:DegenToken",
						"label": "gameStoreItems",
						"offset": 0,
						"slot": "6",
						"type": "t_mapping(t_uint256,t_struct(GameStoreItem)839_storage)"
					},
					{
						"astId": 846,
						"contract": "contracts/DegenToken.sol:DegenToken",
						"label": "itemCount",
						"offset": 0,
						"slot": "7",
						"type": "t_uint256"
					}
				],
				"types": {
					"t_address": {
						"encoding": "inplace",
						"label": "address",
						"numberOfBytes": "20"
					},
					"t_mapping(t_address,t_mapping(t_address,t_uint256))": {
						"encoding": "mapping",
						"key": "t_address",
						"label": "mapping(address => mapping(address => uint256))",
						"numberOfBytes": "32",
						"value": "t_mapping(t_address,t_uint256)"
					},
					"t_mapping(t_address,t_uint256)": {
						"encoding": "mapping",
						"key": "t_address",
						"label": "mapping(address => uint256)",
						"numberOfBytes": "32",
						"value": "t_uint256"
					},
					"t_mapping(t_uint256,t_struct(GameStoreItem)839_storage)": {
						"encoding": "mapping",
						"key": "t_uint256",
						"label": "mapping(uint256 => struct DegenToken.GameStoreItem)",
						"numberOfBytes": "32",
						"value": "t_struct(GameStoreItem)839_storage"
					},
					"t_string_storage": {
						"encoding": "bytes",
						"label": "string",
						"numberOfBytes": "32"
					},
					"t_struct(GameStoreItem)839_storage": {
						"encoding": "inplace",
						"label": "struct DegenToken.GameStoreItem",
						"members": [
							{
								"astId": 834,
								"contract": "contracts/DegenToken.sol:DegenToken",
								"label": "itemName",
								"offset": 0,
								"slot": "0",
								"type": "t_string_storage"
							},
							{
								"astId": 836,
								"contract": "contracts/DegenToken.sol:DegenToken",
								"label": "price",
								"offset": 0,
								"slot": "1",
								"type": "t_uint256"
							},
							{
								"astId": 838,
								"contract": "contracts/DegenToken.sol:DegenToken",
								"label": "stock",
								"offset": 0,
								"slot": "2",
								"type": "t_uint256"
							}
						],
						"numberOfBytes": "96"
					},
					"t_uint256": {
						"encoding": "inplace",
						"label": "uint256",
						"numberOfBytes": "32"
					}
				}
			},
			"userdoc": {
				"kind": "user",
				"methods": {},
				"version": 1
			}
		}
	}
}